{
	"data": {
		"bytecode": {
			"linkReferences": {},
			"object": "608060405234801561001057600080fd5b5061138d806100206000396000f3fe608060405234801561001057600080fd5b50600436106101215760003560e01c80638443bea6116100ad57806395b929261161007157806395b92926146102a5578063ad911387146102b8578063f1d5f517146102cb578063f21a4349146102de578063f2fde38b146102f157600080fd5b80638443bea61461024457806387464389146102575780638da5cb5b1461026a578063919840ad1461027b57806394d1e1551461028357600080fd5b80633527e358116100f45780633527e358146101df5780633c8463a1146102005780635f24b4a414610209578063715018a6146102345780638129fc1c1461023c57600080fd5b80630691fb2e146101265780631959a0021461014f5780631da26a8b146101a75780632e3106c4146101bc575b600080fd5b610139610134366004611043565b610304565b6040516101469190611115565b60405180910390f35b61018761015d366004611043565b60776020526000908152604090206001810154600282015460038301546004909301549192909184565b604080519485526020850193909352918301526060820152608001610146565b6101ba6101b536600461105e565b610374565b005b6101cf6101ca366004611043565b6103d5565b6040519015158152602001610146565b6101f26101ed3660046110e0565b610505565b604051908152602001610146565b6101f260685481565b60655461021c906001600160a01b031681565b6040516001600160a01b039091168152602001610146565b6101ba61051c565b6101ba610552565b60675461021c906001600160a01b031681565b60665461021c906001600160a01b031681565b6033546001600160a01b031661021c565b6101ba6105cf565b610296610291366004611043565b6108de565b60405161014693929190611249565b6101f26102b33660046110e0565b61096b565b6101ba6102c6366004611043565b61097b565b6101ba6102d93660046110e0565b6109c7565b6101ba6102ec366004611091565b6109f6565b6101ba6102ff366004611043565b610a40565b61030c610f19565b6001600160a01b038216600090815260776020526040808220815160e08101928390529290916007918390855b825461010083900a900460ff161515815260206001928301818104948501949093039092029101808411610339575094979650505050505050565b6033546001600160a01b031633146103a75760405162461bcd60e51b815260040161039e906111c9565b60405180910390fd5b606580546001600160a01b039384166001600160a01b03199182161790915560668054929093169116179055565b6001600160a01b0381811660008181526077602052604080822060675491516313ce3d6960e01b81526004810194909452919391929116906313ce3d699060240160206040518083038186803b15801561042e57600080fd5b505afa158015610442573d6000803e3d6000fd5b505050506040513d601f19601f8201168201806040525081019061046691906110be565b158061047d5750606854836001600160a01b031631105b1561048b5750600092915050565b600281015461049d5750600192915050565b80600101544211156104b25750600092915050565b6000620151808260020154426104c891906112ba565b6104d291906112a6565b90508181600781106104e6576104e6611341565b602081049091015460ff601f9092166101000a90041615949350505050565b6070816007811061051557600080fd5b0154905081565b6033546001600160a01b031633146105465760405162461bcd60e51b815260040161039e906111c9565b6105506000610ad4565b565b600061055e6001610b26565b90508015610576576000805461ff0019166101001790555b61057e610bb3565b610586610bda565b80156105cc576000805461ff0019169055604051600181527f7f26b83ff96e1f2b6a682f133852f6798a09c465da95921460cefb38474024989060200160405180910390a15b50565b6067546040516313ce3d6960e01b81523360048201526001600160a01b03909116906313ce3d699060240160206040518083038186803b15801561061257600080fd5b505afa158015610626573d6000803e3d6000fd5b505050506040513d601f19601f8201168201806040525081019061064a91906110be565b61068f5760405162461bcd60e51b81526020600482015260166024820152751b9bdd08189bdb991a5b99c81c1b185b995d081e595d60521b604482015260640161039e565b606854333110156106d95760405162461bcd60e51b81526020600482015260146024820152730c4dcc440ecc2d8eaca40dcdee840cadcdeeaced60631b604482015260640161039e565b336000908152607760205260409020600281015415806106fc5750428160010154115b6107355760405162461bcd60e51b815260206004820152600a60248201526931b630b4b69037bb32b960b11b604482015260640161039e565b600281015461076f5761074b6201518042611301565b61075590426112ba565b600282018190556107699062093a8061128e565b60018201555b60006201518082600201544261078591906112ba565b61078f91906112a6565b90508181600781106107a3576107a3611341565b602081049091015460ff601f9092166101000a900416156107f05760405162461bcd60e51b815260206004820152600760248201526618db185a5b595960ca1b604482015260640161039e565b600182826007811061080457610804611341565b602091828204019190066101000a81548160ff02191690831515021790555061084f336069836007811061083a5761083a611341565b01546065546001600160a01b03169190610c0a565b61087b336070836007811061086657610866611341565b01546066546001600160a01b03169190610c0a565b4260038301819055610891906201518090611301565b61089b90426112ba565b6108a8906201518061128e565b6004830155604051819033907fcc44919b239a9941511ae27aea57e2f4422e671285794bf3338a49fdca887f4a90600090a35050565b6000806108e9610f37565b6001600160a01b03841660009081526077602052604081209061090b86610c5c565b9050600060405180604001604052806069846007811061092d5761092d611341565b015481526020016070846007811061094757610947611341565b01548152509050826004015461095c886103d5565b90989097509095509350505050565b6069816007811061051557600080fd5b6033546001600160a01b031633146109a55760405162461bcd60e51b815260040161039e906111c9565b606780546001600160a01b0319166001600160a01b0392909216919091179055565b6033546001600160a01b031633146109f15760405162461bcd60e51b815260040161039e906111c9565b606855565b6033546001600160a01b03163314610a205760405162461bcd60e51b815260040161039e906111c9565b610a2d6069836007610f55565b50610a3b6070826007610f55565b505050565b6033546001600160a01b03163314610a6a5760405162461bcd60e51b815260040161039e906111c9565b6001600160a01b038116610acf5760405162461bcd60e51b815260206004820152602660248201527f4f776e61626c653a206e6577206f776e657220697320746865207a65726f206160448201526564647265737360d01b606482015260840161039e565b6105cc815b603380546001600160a01b038381166001600160a01b0319831681179093556040519116919082907f8be0079c531659141344cd1fd0a4f28419497f9722a3daafe3b4186f6b6457e090600090a35050565b60008054610100900460ff1615610b6d578160ff166001148015610b495750303b155b610b655760405162461bcd60e51b815260040161039e9061117b565b506000919050565b60005460ff808416911610610b945760405162461bcd60e51b815260040161039e9061117b565b506000805460ff191660ff92909216919091179055600190565b919050565b600054610100900460ff166105505760405162461bcd60e51b815260040161039e906111fe565b600054610100900460ff16610c015760405162461bcd60e51b815260040161039e906111fe565b61055033610ad4565b604080516001600160a01b038416602482015260448082018490528251808303909101815260649091019091526020810180516001600160e01b031663a9059cbb60e01b179052610a3b908490610cc4565b6001600160a01b0381166000908152607760205260408120610c7d836103d5565b610c8a5750600092915050565b6002810154610c9c5750600092915050565b600062015180826002015442610cb291906112ba565b610cbc91906112a6565b949350505050565b6000610d19826040518060400160405280602081526020017f5361666545524332303a206c6f772d6c6576656c2063616c6c206661696c6564815250856001600160a01b0316610d969092919063ffffffff16565b805190915015610a3b5780806020019051810190610d3791906110be565b610a3b5760405162461bcd60e51b815260206004820152602a60248201527f5361666545524332303a204552433230206f7065726174696f6e20646964206e6044820152691bdd081cdd58d8d9595960b21b606482015260840161039e565b6060610da58484600085610daf565b90505b9392505050565b606082471015610e105760405162461bcd60e51b815260206004820152602660248201527f416464726573733a20696e73756666696369656e742062616c616e636520666f6044820152651c8818d85b1b60d21b606482015260840161039e565b6001600160a01b0385163b610e675760405162461bcd60e51b815260206004820152601d60248201527f416464726573733a2063616c6c20746f206e6f6e2d636f6e7472616374000000604482015260640161039e565b600080866001600160a01b03168587604051610e8391906110f9565b60006040518083038185875af1925050503d8060008114610ec0576040519150601f19603f3d011682016040523d82523d6000602084013e610ec5565b606091505b5091509150610ed5828286610ee0565b979650505050505050565b60608315610eef575081610da8565b825115610eff5782518084602001fd5b8160405162461bcd60e51b815260040161039e9190611148565b6040518060e001604052806007906020820280368337509192915050565b60405180604001604052806002906020820280368337509192915050565b8260078101928215610f83579160200282015b82811115610f83578251825591602001919060010190610f68565b50610f8f929150610f93565b5090565b5b80821115610f8f5760008155600101610f94565b80356001600160a01b0381168114610bae57600080fd5b600082601f830112610fd057600080fd5b60405160e0810181811067ffffffffffffffff8211171561100157634e487b7160e01b600052604160045260246000fd5b604052808360e0810186101561101657600080fd5b60005b6007811015611038578135835260209283019290910190600101611019565b509195945050505050565b60006020828403121561105557600080fd5b610da882610fa8565b6000806040838503121561107157600080fd5b61107a83610fa8565b915061108860208401610fa8565b90509250929050565b6000806101c083850312156110a557600080fd5b6110af8484610fbf565b91506110888460e08501610fbf565b6000602082840312156110d057600080fd5b81518015158114610da857600080fd5b6000602082840312156110f257600080fd5b5035919050565b6000825161110b8184602087016112d1565b9190910192915050565b60e08101818360005b600781101561113f578151151583526020928301929091019060010161111e565b50505092915050565b60208152600082518060208401526111678160408501602087016112d1565b601f01601f19169190910160400192915050565b6020808252602e908201527f496e697469616c697a61626c653a20636f6e747261637420697320616c72656160408201526d191e481a5b9a5d1a585b1a5e995960921b606082015260800190565b6020808252818101527f4f776e61626c653a2063616c6c6572206973206e6f7420746865206f776e6572604082015260600190565b6020808252602b908201527f496e697469616c697a61626c653a20636f6e7472616374206973206e6f74206960408201526a6e697469616c697a696e6760a81b606082015260800190565b6000608082019050848252602084151581840152604083018460005b600281101561128257815183529183019190830190600101611265565b50505050949350505050565b600082198211156112a1576112a1611315565b500190565b6000826112b5576112b561132b565b500490565b6000828210156112cc576112cc611315565b500390565b60005b838110156112ec5781810151838201526020016112d4565b838111156112fb576000848401525b50505050565b6000826113105761131061132b565b500690565b634e487b7160e01b600052601160045260246000fd5b634e487b7160e01b600052601260045260246000fd5b634e487b7160e01b600052603260045260246000fdfea26469706673582212203cb96a0dea45ba9555d86d3f52ed6de74cfb7cec9f82bd4f8eee45866854bffb64736f6c63430008070033",
			"opcodes": "PUSH1 0x80 PUSH1 0x40 MSTORE CALLVALUE DUP1 ISZERO PUSH2 0x10 JUMPI PUSH1 0x0 DUP1 REVERT JUMPDEST POP PUSH2 0x138D DUP1 PUSH2 0x20 PUSH1 0x0 CODECOPY PUSH1 0x0 RETURN INVALID PUSH1 0x80 PUSH1 0x40 MSTORE CALLVALUE DUP1 ISZERO PUSH2 0x10 JUMPI PUSH1 0x0 DUP1 REVERT JUMPDEST POP PUSH1 0x4 CALLDATASIZE LT PUSH2 0x121 JUMPI PUSH1 0x0 CALLDATALOAD PUSH1 0xE0 SHR DUP1 PUSH4 0x8443BEA6 GT PUSH2 0xAD JUMPI DUP1 PUSH4 0x95B92926 GT PUSH2 0x71 JUMPI DUP1 PUSH4 0x95B92926 EQ PUSH2 0x2A5 JUMPI DUP1 PUSH4 0xAD911387 EQ PUSH2 0x2B8 JUMPI DUP1 PUSH4 0xF1D5F517 EQ PUSH2 0x2CB JUMPI DUP1 PUSH4 0xF21A4349 EQ PUSH2 0x2DE JUMPI DUP1 PUSH4 0xF2FDE38B EQ PUSH2 0x2F1 JUMPI PUSH1 0x0 DUP1 REVERT JUMPDEST DUP1 PUSH4 0x8443BEA6 EQ PUSH2 0x244 JUMPI DUP1 PUSH4 0x87464389 EQ PUSH2 0x257 JUMPI DUP1 PUSH4 0x8DA5CB5B EQ PUSH2 0x26A JUMPI DUP1 PUSH4 0x919840AD EQ PUSH2 0x27B JUMPI DUP1 PUSH4 0x94D1E155 EQ PUSH2 0x283 JUMPI PUSH1 0x0 DUP1 REVERT JUMPDEST DUP1 PUSH4 0x3527E358 GT PUSH2 0xF4 JUMPI DUP1 PUSH4 0x3527E358 EQ PUSH2 0x1DF JUMPI DUP1 PUSH4 0x3C8463A1 EQ PUSH2 0x200 JUMPI DUP1 PUSH4 0x5F24B4A4 EQ PUSH2 0x209 JUMPI DUP1 PUSH4 0x715018A6 EQ PUSH2 0x234 JUMPI DUP1 PUSH4 0x8129FC1C EQ PUSH2 0x23C JUMPI PUSH1 0x0 DUP1 REVERT JUMPDEST DUP1 PUSH4 0x691FB2E EQ PUSH2 0x126 JUMPI DUP1 PUSH4 0x1959A002 EQ PUSH2 0x14F JUMPI DUP1 PUSH4 0x1DA26A8B EQ PUSH2 0x1A7 JUMPI DUP1 PUSH4 0x2E3106C4 EQ PUSH2 0x1BC JUMPI JUMPDEST PUSH1 0x0 DUP1 REVERT JUMPDEST PUSH2 0x139 PUSH2 0x134 CALLDATASIZE PUSH1 0x4 PUSH2 0x1043 JUMP JUMPDEST PUSH2 0x304 JUMP JUMPDEST PUSH1 0x40 MLOAD PUSH2 0x146 SWAP2 SWAP1 PUSH2 0x1115 JUMP JUMPDEST PUSH1 0x40 MLOAD DUP1 SWAP2 SUB SWAP1 RETURN JUMPDEST PUSH2 0x187 PUSH2 0x15D CALLDATASIZE PUSH1 0x4 PUSH2 0x1043 JUMP JUMPDEST PUSH1 0x77 PUSH1 0x20 MSTORE PUSH1 0x0 SWAP1 DUP2 MSTORE PUSH1 0x40 SWAP1 KECCAK256 PUSH1 0x1 DUP2 ADD SLOAD PUSH1 0x2 DUP3 ADD SLOAD PUSH1 0x3 DUP4 ADD SLOAD PUSH1 0x4 SWAP1 SWAP4 ADD SLOAD SWAP2 SWAP3 SWAP1 SWAP2 DUP5 JUMP JUMPDEST PUSH1 0x40 DUP1 MLOAD SWAP5 DUP6 MSTORE PUSH1 0x20 DUP6 ADD SWAP4 SWAP1 SWAP4 MSTORE SWAP2 DUP4 ADD MSTORE PUSH1 0x60 DUP3 ADD MSTORE PUSH1 0x80 ADD PUSH2 0x146 JUMP JUMPDEST PUSH2 0x1BA PUSH2 0x1B5 CALLDATASIZE PUSH1 0x4 PUSH2 0x105E JUMP JUMPDEST PUSH2 0x374 JUMP JUMPDEST STOP JUMPDEST PUSH2 0x1CF PUSH2 0x1CA CALLDATASIZE PUSH1 0x4 PUSH2 0x1043 JUMP JUMPDEST PUSH2 0x3D5 JUMP JUMPDEST PUSH1 0x40 MLOAD SWAP1 ISZERO ISZERO DUP2 MSTORE PUSH1 0x20 ADD PUSH2 0x146 JUMP JUMPDEST PUSH2 0x1F2 PUSH2 0x1ED CALLDATASIZE PUSH1 0x4 PUSH2 0x10E0 JUMP JUMPDEST PUSH2 0x505 JUMP JUMPDEST PUSH1 0x40 MLOAD SWAP1 DUP2 MSTORE PUSH1 0x20 ADD PUSH2 0x146 JUMP JUMPDEST PUSH2 0x1F2 PUSH1 0x68 SLOAD DUP2 JUMP JUMPDEST PUSH1 0x65 SLOAD PUSH2 0x21C SWAP1 PUSH1 0x1 PUSH1 0x1 PUSH1 0xA0 SHL SUB AND DUP2 JUMP JUMPDEST PUSH1 0x40 MLOAD PUSH1 0x1 PUSH1 0x1 PUSH1 0xA0 SHL SUB SWAP1 SWAP2 AND DUP2 MSTORE PUSH1 0x20 ADD PUSH2 0x146 JUMP JUMPDEST PUSH2 0x1BA PUSH2 0x51C JUMP JUMPDEST PUSH2 0x1BA PUSH2 0x552 JUMP JUMPDEST PUSH1 0x67 SLOAD PUSH2 0x21C SWAP1 PUSH1 0x1 PUSH1 0x1 PUSH1 0xA0 SHL SUB AND DUP2 JUMP JUMPDEST PUSH1 0x66 SLOAD PUSH2 0x21C SWAP1 PUSH1 0x1 PUSH1 0x1 PUSH1 0xA0 SHL SUB AND DUP2 JUMP JUMPDEST PUSH1 0x33 SLOAD PUSH1 0x1 PUSH1 0x1 PUSH1 0xA0 SHL SUB AND PUSH2 0x21C JUMP JUMPDEST PUSH2 0x1BA PUSH2 0x5CF JUMP JUMPDEST PUSH2 0x296 PUSH2 0x291 CALLDATASIZE PUSH1 0x4 PUSH2 0x1043 JUMP JUMPDEST PUSH2 0x8DE JUMP JUMPDEST PUSH1 0x40 MLOAD PUSH2 0x146 SWAP4 SWAP3 SWAP2 SWAP1 PUSH2 0x1249 JUMP JUMPDEST PUSH2 0x1F2 PUSH2 0x2B3 CALLDATASIZE PUSH1 0x4 PUSH2 0x10E0 JUMP JUMPDEST PUSH2 0x96B JUMP JUMPDEST PUSH2 0x1BA PUSH2 0x2C6 CALLDATASIZE PUSH1 0x4 PUSH2 0x1043 JUMP JUMPDEST PUSH2 0x97B JUMP JUMPDEST PUSH2 0x1BA PUSH2 0x2D9 CALLDATASIZE PUSH1 0x4 PUSH2 0x10E0 JUMP JUMPDEST PUSH2 0x9C7 JUMP JUMPDEST PUSH2 0x1BA PUSH2 0x2EC CALLDATASIZE PUSH1 0x4 PUSH2 0x1091 JUMP JUMPDEST PUSH2 0x9F6 JUMP JUMPDEST PUSH2 0x1BA PUSH2 0x2FF CALLDATASIZE PUSH1 0x4 PUSH2 0x1043 JUMP JUMPDEST PUSH2 0xA40 JUMP JUMPDEST PUSH2 0x30C PUSH2 0xF19 JUMP JUMPDEST PUSH1 0x1 PUSH1 0x1 PUSH1 0xA0 SHL SUB DUP3 AND PUSH1 0x0 SWAP1 DUP2 MSTORE PUSH1 0x77 PUSH1 0x20 MSTORE PUSH1 0x40 DUP1 DUP3 KECCAK256 DUP2 MLOAD PUSH1 0xE0 DUP2 ADD SWAP3 DUP4 SWAP1 MSTORE SWAP3 SWAP1 SWAP2 PUSH1 0x7 SWAP2 DUP4 SWAP1 DUP6 JUMPDEST DUP3 SLOAD PUSH2 0x100 DUP4 SWAP1 EXP SWAP1 DIV PUSH1 0xFF AND ISZERO ISZERO DUP2 MSTORE PUSH1 0x20 PUSH1 0x1 SWAP3 DUP4 ADD DUP2 DUP2 DIV SWAP5 DUP6 ADD SWAP5 SWAP1 SWAP4 SUB SWAP1 SWAP3 MUL SWAP2 ADD DUP1 DUP5 GT PUSH2 0x339 JUMPI POP SWAP5 SWAP8 SWAP7 POP POP POP POP POP POP POP JUMP JUMPDEST PUSH1 0x33 SLOAD PUSH1 0x1 PUSH1 0x1 PUSH1 0xA0 SHL SUB AND CALLER EQ PUSH2 0x3A7 JUMPI PUSH1 0x40 MLOAD PUSH3 0x461BCD PUSH1 0xE5 SHL DUP2 MSTORE PUSH1 0x4 ADD PUSH2 0x39E SWAP1 PUSH2 0x11C9 JUMP JUMPDEST PUSH1 0x40 MLOAD DUP1 SWAP2 SUB SWAP1 REVERT JUMPDEST PUSH1 0x65 DUP1 SLOAD PUSH1 0x1 PUSH1 0x1 PUSH1 0xA0 SHL SUB SWAP4 DUP5 AND PUSH1 0x1 PUSH1 0x1 PUSH1 0xA0 SHL SUB NOT SWAP2 DUP3 AND OR SWAP1 SWAP2 SSTORE PUSH1 0x66 DUP1 SLOAD SWAP3 SWAP1 SWAP4 AND SWAP2 AND OR SWAP1 SSTORE JUMP JUMPDEST PUSH1 0x1 PUSH1 0x1 PUSH1 0xA0 SHL SUB DUP2 DUP2 AND PUSH1 0x0 DUP2 DUP2 MSTORE PUSH1 0x77 PUSH1 0x20 MSTORE PUSH1 0x40 DUP1 DUP3 KECCAK256 PUSH1 0x67 SLOAD SWAP2 MLOAD PUSH4 0x13CE3D69 PUSH1 0xE0 SHL DUP2 MSTORE PUSH1 0x4 DUP2 ADD SWAP5 SWAP1 SWAP5 MSTORE SWAP2 SWAP4 SWAP2 SWAP3 SWAP2 AND SWAP1 PUSH4 0x13CE3D69 SWAP1 PUSH1 0x24 ADD PUSH1 0x20 PUSH1 0x40 MLOAD DUP1 DUP4 SUB DUP2 DUP7 DUP1 EXTCODESIZE ISZERO DUP1 ISZERO PUSH2 0x42E JUMPI PUSH1 0x0 DUP1 REVERT JUMPDEST POP GAS STATICCALL ISZERO DUP1 ISZERO PUSH2 0x442 JUMPI RETURNDATASIZE PUSH1 0x0 DUP1 RETURNDATACOPY RETURNDATASIZE PUSH1 0x0 REVERT JUMPDEST POP POP POP POP PUSH1 0x40 MLOAD RETURNDATASIZE PUSH1 0x1F NOT PUSH1 0x1F DUP3 ADD AND DUP3 ADD DUP1 PUSH1 0x40 MSTORE POP DUP2 ADD SWAP1 PUSH2 0x466 SWAP2 SWAP1 PUSH2 0x10BE JUMP JUMPDEST ISZERO DUP1 PUSH2 0x47D JUMPI POP PUSH1 0x68 SLOAD DUP4 PUSH1 0x1 PUSH1 0x1 PUSH1 0xA0 SHL SUB AND BALANCE LT JUMPDEST ISZERO PUSH2 0x48B JUMPI POP PUSH1 0x0 SWAP3 SWAP2 POP POP JUMP JUMPDEST PUSH1 0x2 DUP2 ADD SLOAD PUSH2 0x49D JUMPI POP PUSH1 0x1 SWAP3 SWAP2 POP POP JUMP JUMPDEST DUP1 PUSH1 0x1 ADD SLOAD TIMESTAMP GT ISZERO PUSH2 0x4B2 JUMPI POP PUSH1 0x0 SWAP3 SWAP2 POP POP JUMP JUMPDEST PUSH1 0x0 PUSH3 0x15180 DUP3 PUSH1 0x2 ADD SLOAD TIMESTAMP PUSH2 0x4C8 SWAP2 SWAP1 PUSH2 0x12BA JUMP JUMPDEST PUSH2 0x4D2 SWAP2 SWAP1 PUSH2 0x12A6 JUMP JUMPDEST SWAP1 POP DUP2 DUP2 PUSH1 0x7 DUP2 LT PUSH2 0x4E6 JUMPI PUSH2 0x4E6 PUSH2 0x1341 JUMP JUMPDEST PUSH1 0x20 DUP2 DIV SWAP1 SWAP2 ADD SLOAD PUSH1 0xFF PUSH1 0x1F SWAP1 SWAP3 AND PUSH2 0x100 EXP SWAP1 DIV AND ISZERO SWAP5 SWAP4 POP POP POP POP JUMP JUMPDEST PUSH1 0x70 DUP2 PUSH1 0x7 DUP2 LT PUSH2 0x515 JUMPI PUSH1 0x0 DUP1 REVERT JUMPDEST ADD SLOAD SWAP1 POP DUP2 JUMP JUMPDEST PUSH1 0x33 SLOAD PUSH1 0x1 PUSH1 0x1 PUSH1 0xA0 SHL SUB AND CALLER EQ PUSH2 0x546 JUMPI PUSH1 0x40 MLOAD PUSH3 0x461BCD PUSH1 0xE5 SHL DUP2 MSTORE PUSH1 0x4 ADD PUSH2 0x39E SWAP1 PUSH2 0x11C9 JUMP JUMPDEST PUSH2 0x550 PUSH1 0x0 PUSH2 0xAD4 JUMP JUMPDEST JUMP JUMPDEST PUSH1 0x0 PUSH2 0x55E PUSH1 0x1 PUSH2 0xB26 JUMP JUMPDEST SWAP1 POP DUP1 ISZERO PUSH2 0x576 JUMPI PUSH1 0x0 DUP1 SLOAD PUSH2 0xFF00 NOT AND PUSH2 0x100 OR SWAP1 SSTORE JUMPDEST PUSH2 0x57E PUSH2 0xBB3 JUMP JUMPDEST PUSH2 0x586 PUSH2 0xBDA JUMP JUMPDEST DUP1 ISZERO PUSH2 0x5CC JUMPI PUSH1 0x0 DUP1 SLOAD PUSH2 0xFF00 NOT AND SWAP1 SSTORE PUSH1 0x40 MLOAD PUSH1 0x1 DUP2 MSTORE PUSH32 0x7F26B83FF96E1F2B6A682F133852F6798A09C465DA95921460CEFB3847402498 SWAP1 PUSH1 0x20 ADD PUSH1 0x40 MLOAD DUP1 SWAP2 SUB SWAP1 LOG1 JUMPDEST POP JUMP JUMPDEST PUSH1 0x67 SLOAD PUSH1 0x40 MLOAD PUSH4 0x13CE3D69 PUSH1 0xE0 SHL DUP2 MSTORE CALLER PUSH1 0x4 DUP3 ADD MSTORE PUSH1 0x1 PUSH1 0x1 PUSH1 0xA0 SHL SUB SWAP1 SWAP2 AND SWAP1 PUSH4 0x13CE3D69 SWAP1 PUSH1 0x24 ADD PUSH1 0x20 PUSH1 0x40 MLOAD DUP1 DUP4 SUB DUP2 DUP7 DUP1 EXTCODESIZE ISZERO DUP1 ISZERO PUSH2 0x612 JUMPI PUSH1 0x0 DUP1 REVERT JUMPDEST POP GAS STATICCALL ISZERO DUP1 ISZERO PUSH2 0x626 JUMPI RETURNDATASIZE PUSH1 0x0 DUP1 RETURNDATACOPY RETURNDATASIZE PUSH1 0x0 REVERT JUMPDEST POP POP POP POP PUSH1 0x40 MLOAD RETURNDATASIZE PUSH1 0x1F NOT PUSH1 0x1F DUP3 ADD AND DUP3 ADD DUP1 PUSH1 0x40 MSTORE POP DUP2 ADD SWAP1 PUSH2 0x64A SWAP2 SWAP1 PUSH2 0x10BE JUMP JUMPDEST PUSH2 0x68F JUMPI PUSH1 0x40 MLOAD PUSH3 0x461BCD PUSH1 0xE5 SHL DUP2 MSTORE PUSH1 0x20 PUSH1 0x4 DUP3 ADD MSTORE PUSH1 0x16 PUSH1 0x24 DUP3 ADD MSTORE PUSH22 0x1B9BDD08189BDB991A5B99C81C1B185B995D081E595D PUSH1 0x52 SHL PUSH1 0x44 DUP3 ADD MSTORE PUSH1 0x64 ADD PUSH2 0x39E JUMP JUMPDEST PUSH1 0x68 SLOAD CALLER BALANCE LT ISZERO PUSH2 0x6D9 JUMPI PUSH1 0x40 MLOAD PUSH3 0x461BCD PUSH1 0xE5 SHL DUP2 MSTORE PUSH1 0x20 PUSH1 0x4 DUP3 ADD MSTORE PUSH1 0x14 PUSH1 0x24 DUP3 ADD MSTORE PUSH20 0xC4DCC440ECC2D8EACA40DCDEE840CADCDEEACED PUSH1 0x63 SHL PUSH1 0x44 DUP3 ADD MSTORE PUSH1 0x64 ADD PUSH2 0x39E JUMP JUMPDEST CALLER PUSH1 0x0 SWAP1 DUP2 MSTORE PUSH1 0x77 PUSH1 0x20 MSTORE PUSH1 0x40 SWAP1 KECCAK256 PUSH1 0x2 DUP2 ADD SLOAD ISZERO DUP1 PUSH2 0x6FC JUMPI POP TIMESTAMP DUP2 PUSH1 0x1 ADD SLOAD GT JUMPDEST PUSH2 0x735 JUMPI PUSH1 0x40 MLOAD PUSH3 0x461BCD PUSH1 0xE5 SHL DUP2 MSTORE PUSH1 0x20 PUSH1 0x4 DUP3 ADD MSTORE PUSH1 0xA PUSH1 0x24 DUP3 ADD MSTORE PUSH10 0x31B630B4B69037BB32B9 PUSH1 0xB1 SHL PUSH1 0x44 DUP3 ADD MSTORE PUSH1 0x64 ADD PUSH2 0x39E JUMP JUMPDEST PUSH1 0x2 DUP2 ADD SLOAD PUSH2 0x76F JUMPI PUSH2 0x74B PUSH3 0x15180 TIMESTAMP PUSH2 0x1301 JUMP JUMPDEST PUSH2 0x755 SWAP1 TIMESTAMP PUSH2 0x12BA JUMP JUMPDEST PUSH1 0x2 DUP3 ADD DUP2 SWAP1 SSTORE PUSH2 0x769 SWAP1 PUSH3 0x93A80 PUSH2 0x128E JUMP JUMPDEST PUSH1 0x1 DUP3 ADD SSTORE JUMPDEST PUSH1 0x0 PUSH3 0x15180 DUP3 PUSH1 0x2 ADD SLOAD TIMESTAMP PUSH2 0x785 SWAP2 SWAP1 PUSH2 0x12BA JUMP JUMPDEST PUSH2 0x78F SWAP2 SWAP1 PUSH2 0x12A6 JUMP JUMPDEST SWAP1 POP DUP2 DUP2 PUSH1 0x7 DUP2 LT PUSH2 0x7A3 JUMPI PUSH2 0x7A3 PUSH2 0x1341 JUMP JUMPDEST PUSH1 0x20 DUP2 DIV SWAP1 SWAP2 ADD SLOAD PUSH1 0xFF PUSH1 0x1F SWAP1 SWAP3 AND PUSH2 0x100 EXP SWAP1 DIV AND ISZERO PUSH2 0x7F0 JUMPI PUSH1 0x40 MLOAD PUSH3 0x461BCD PUSH1 0xE5 SHL DUP2 MSTORE PUSH1 0x20 PUSH1 0x4 DUP3 ADD MSTORE PUSH1 0x7 PUSH1 0x24 DUP3 ADD MSTORE PUSH7 0x18DB185A5B5959 PUSH1 0xCA SHL PUSH1 0x44 DUP3 ADD MSTORE PUSH1 0x64 ADD PUSH2 0x39E JUMP JUMPDEST PUSH1 0x1 DUP3 DUP3 PUSH1 0x7 DUP2 LT PUSH2 0x804 JUMPI PUSH2 0x804 PUSH2 0x1341 JUMP JUMPDEST PUSH1 0x20 SWAP2 DUP3 DUP3 DIV ADD SWAP2 SWAP1 MOD PUSH2 0x100 EXP DUP2 SLOAD DUP2 PUSH1 0xFF MUL NOT AND SWAP1 DUP4 ISZERO ISZERO MUL OR SWAP1 SSTORE POP PUSH2 0x84F CALLER PUSH1 0x69 DUP4 PUSH1 0x7 DUP2 LT PUSH2 0x83A JUMPI PUSH2 0x83A PUSH2 0x1341 JUMP JUMPDEST ADD SLOAD PUSH1 0x65 SLOAD PUSH1 0x1 PUSH1 0x1 PUSH1 0xA0 SHL SUB AND SWAP2 SWAP1 PUSH2 0xC0A JUMP JUMPDEST PUSH2 0x87B CALLER PUSH1 0x70 DUP4 PUSH1 0x7 DUP2 LT PUSH2 0x866 JUMPI PUSH2 0x866 PUSH2 0x1341 JUMP JUMPDEST ADD SLOAD PUSH1 0x66 SLOAD PUSH1 0x1 PUSH1 0x1 PUSH1 0xA0 SHL SUB AND SWAP2 SWAP1 PUSH2 0xC0A JUMP JUMPDEST TIMESTAMP PUSH1 0x3 DUP4 ADD DUP2 SWAP1 SSTORE PUSH2 0x891 SWAP1 PUSH3 0x15180 SWAP1 PUSH2 0x1301 JUMP JUMPDEST PUSH2 0x89B SWAP1 TIMESTAMP PUSH2 0x12BA JUMP JUMPDEST PUSH2 0x8A8 SWAP1 PUSH3 0x15180 PUSH2 0x128E JUMP JUMPDEST PUSH1 0x4 DUP4 ADD SSTORE PUSH1 0x40 MLOAD DUP2 SWAP1 CALLER SWAP1 PUSH32 0xCC44919B239A9941511AE27AEA57E2F4422E671285794BF3338A49FDCA887F4A SWAP1 PUSH1 0x0 SWAP1 LOG3 POP POP JUMP JUMPDEST PUSH1 0x0 DUP1 PUSH2 0x8E9 PUSH2 0xF37 JUMP JUMPDEST PUSH1 0x1 PUSH1 0x1 PUSH1 0xA0 SHL SUB DUP5 AND PUSH1 0x0 SWAP1 DUP2 MSTORE PUSH1 0x77 PUSH1 0x20 MSTORE PUSH1 0x40 DUP2 KECCAK256 SWAP1 PUSH2 0x90B DUP7 PUSH2 0xC5C JUMP JUMPDEST SWAP1 POP PUSH1 0x0 PUSH1 0x40 MLOAD DUP1 PUSH1 0x40 ADD PUSH1 0x40 MSTORE DUP1 PUSH1 0x69 DUP5 PUSH1 0x7 DUP2 LT PUSH2 0x92D JUMPI PUSH2 0x92D PUSH2 0x1341 JUMP JUMPDEST ADD SLOAD DUP2 MSTORE PUSH1 0x20 ADD PUSH1 0x70 DUP5 PUSH1 0x7 DUP2 LT PUSH2 0x947 JUMPI PUSH2 0x947 PUSH2 0x1341 JUMP JUMPDEST ADD SLOAD DUP2 MSTORE POP SWAP1 POP DUP3 PUSH1 0x4 ADD SLOAD PUSH2 0x95C DUP9 PUSH2 0x3D5 JUMP JUMPDEST SWAP1 SWAP9 SWAP1 SWAP8 POP SWAP1 SWAP6 POP SWAP4 POP POP POP POP JUMP JUMPDEST PUSH1 0x69 DUP2 PUSH1 0x7 DUP2 LT PUSH2 0x515 JUMPI PUSH1 0x0 DUP1 REVERT JUMPDEST PUSH1 0x33 SLOAD PUSH1 0x1 PUSH1 0x1 PUSH1 0xA0 SHL SUB AND CALLER EQ PUSH2 0x9A5 JUMPI PUSH1 0x40 MLOAD PUSH3 0x461BCD PUSH1 0xE5 SHL DUP2 MSTORE PUSH1 0x4 ADD PUSH2 0x39E SWAP1 PUSH2 0x11C9 JUMP JUMPDEST PUSH1 0x67 DUP1 SLOAD PUSH1 0x1 PUSH1 0x1 PUSH1 0xA0 SHL SUB NOT AND PUSH1 0x1 PUSH1 0x1 PUSH1 0xA0 SHL SUB SWAP3 SWAP1 SWAP3 AND SWAP2 SWAP1 SWAP2 OR SWAP1 SSTORE JUMP JUMPDEST PUSH1 0x33 SLOAD PUSH1 0x1 PUSH1 0x1 PUSH1 0xA0 SHL SUB AND CALLER EQ PUSH2 0x9F1 JUMPI PUSH1 0x40 MLOAD PUSH3 0x461BCD PUSH1 0xE5 SHL DUP2 MSTORE PUSH1 0x4 ADD PUSH2 0x39E SWAP1 PUSH2 0x11C9 JUMP JUMPDEST PUSH1 0x68 SSTORE JUMP JUMPDEST PUSH1 0x33 SLOAD PUSH1 0x1 PUSH1 0x1 PUSH1 0xA0 SHL SUB AND CALLER EQ PUSH2 0xA20 JUMPI PUSH1 0x40 MLOAD PUSH3 0x461BCD PUSH1 0xE5 SHL DUP2 MSTORE PUSH1 0x4 ADD PUSH2 0x39E SWAP1 PUSH2 0x11C9 JUMP JUMPDEST PUSH2 0xA2D PUSH1 0x69 DUP4 PUSH1 0x7 PUSH2 0xF55 JUMP JUMPDEST POP PUSH2 0xA3B PUSH1 0x70 DUP3 PUSH1 0x7 PUSH2 0xF55 JUMP JUMPDEST POP POP POP JUMP JUMPDEST PUSH1 0x33 SLOAD PUSH1 0x1 PUSH1 0x1 PUSH1 0xA0 SHL SUB AND CALLER EQ PUSH2 0xA6A JUMPI PUSH1 0x40 MLOAD PUSH3 0x461BCD PUSH1 0xE5 SHL DUP2 MSTORE PUSH1 0x4 ADD PUSH2 0x39E SWAP1 PUSH2 0x11C9 JUMP JUMPDEST PUSH1 0x1 PUSH1 0x1 PUSH1 0xA0 SHL SUB DUP2 AND PUSH2 0xACF JUMPI PUSH1 0x40 MLOAD PUSH3 0x461BCD PUSH1 0xE5 SHL DUP2 MSTORE PUSH1 0x20 PUSH1 0x4 DUP3 ADD MSTORE PUSH1 0x26 PUSH1 0x24 DUP3 ADD MSTORE PUSH32 0x4F776E61626C653A206E6577206F776E657220697320746865207A65726F2061 PUSH1 0x44 DUP3 ADD MSTORE PUSH6 0x646472657373 PUSH1 0xD0 SHL PUSH1 0x64 DUP3 ADD MSTORE PUSH1 0x84 ADD PUSH2 0x39E JUMP JUMPDEST PUSH2 0x5CC DUP2 JUMPDEST PUSH1 0x33 DUP1 SLOAD PUSH1 0x1 PUSH1 0x1 PUSH1 0xA0 SHL SUB DUP4 DUP2 AND PUSH1 0x1 PUSH1 0x1 PUSH1 0xA0 SHL SUB NOT DUP4 AND DUP2 OR SWAP1 SWAP4 SSTORE PUSH1 0x40 MLOAD SWAP2 AND SWAP2 SWAP1 DUP3 SWAP1 PUSH32 0x8BE0079C531659141344CD1FD0A4F28419497F9722A3DAAFE3B4186F6B6457E0 SWAP1 PUSH1 0x0 SWAP1 LOG3 POP POP JUMP JUMPDEST PUSH1 0x0 DUP1 SLOAD PUSH2 0x100 SWAP1 DIV PUSH1 0xFF AND ISZERO PUSH2 0xB6D JUMPI DUP2 PUSH1 0xFF AND PUSH1 0x1 EQ DUP1 ISZERO PUSH2 0xB49 JUMPI POP ADDRESS EXTCODESIZE ISZERO JUMPDEST PUSH2 0xB65 JUMPI PUSH1 0x40 MLOAD PUSH3 0x461BCD PUSH1 0xE5 SHL DUP2 MSTORE PUSH1 0x4 ADD PUSH2 0x39E SWAP1 PUSH2 0x117B JUMP JUMPDEST POP PUSH1 0x0 SWAP2 SWAP1 POP JUMP JUMPDEST PUSH1 0x0 SLOAD PUSH1 0xFF DUP1 DUP5 AND SWAP2 AND LT PUSH2 0xB94 JUMPI PUSH1 0x40 MLOAD PUSH3 0x461BCD PUSH1 0xE5 SHL DUP2 MSTORE PUSH1 0x4 ADD PUSH2 0x39E SWAP1 PUSH2 0x117B JUMP JUMPDEST POP PUSH1 0x0 DUP1 SLOAD PUSH1 0xFF NOT AND PUSH1 0xFF SWAP3 SWAP1 SWAP3 AND SWAP2 SWAP1 SWAP2 OR SWAP1 SSTORE PUSH1 0x1 SWAP1 JUMP JUMPDEST SWAP2 SWAP1 POP JUMP JUMPDEST PUSH1 0x0 SLOAD PUSH2 0x100 SWAP1 DIV PUSH1 0xFF AND PUSH2 0x550 JUMPI PUSH1 0x40 MLOAD PUSH3 0x461BCD PUSH1 0xE5 SHL DUP2 MSTORE PUSH1 0x4 ADD PUSH2 0x39E SWAP1 PUSH2 0x11FE JUMP JUMPDEST PUSH1 0x0 SLOAD PUSH2 0x100 SWAP1 DIV PUSH1 0xFF AND PUSH2 0xC01 JUMPI PUSH1 0x40 MLOAD PUSH3 0x461BCD PUSH1 0xE5 SHL DUP2 MSTORE PUSH1 0x4 ADD PUSH2 0x39E SWAP1 PUSH2 0x11FE JUMP JUMPDEST PUSH2 0x550 CALLER PUSH2 0xAD4 JUMP JUMPDEST PUSH1 0x40 DUP1 MLOAD PUSH1 0x1 PUSH1 0x1 PUSH1 0xA0 SHL SUB DUP5 AND PUSH1 0x24 DUP3 ADD MSTORE PUSH1 0x44 DUP1 DUP3 ADD DUP5 SWAP1 MSTORE DUP3 MLOAD DUP1 DUP4 SUB SWAP1 SWAP2 ADD DUP2 MSTORE PUSH1 0x64 SWAP1 SWAP2 ADD SWAP1 SWAP2 MSTORE PUSH1 0x20 DUP2 ADD DUP1 MLOAD PUSH1 0x1 PUSH1 0x1 PUSH1 0xE0 SHL SUB AND PUSH4 0xA9059CBB PUSH1 0xE0 SHL OR SWAP1 MSTORE PUSH2 0xA3B SWAP1 DUP5 SWAP1 PUSH2 0xCC4 JUMP JUMPDEST PUSH1 0x1 PUSH1 0x1 PUSH1 0xA0 SHL SUB DUP2 AND PUSH1 0x0 SWAP1 DUP2 MSTORE PUSH1 0x77 PUSH1 0x20 MSTORE PUSH1 0x40 DUP2 KECCAK256 PUSH2 0xC7D DUP4 PUSH2 0x3D5 JUMP JUMPDEST PUSH2 0xC8A JUMPI POP PUSH1 0x0 SWAP3 SWAP2 POP POP JUMP JUMPDEST PUSH1 0x2 DUP2 ADD SLOAD PUSH2 0xC9C JUMPI POP PUSH1 0x0 SWAP3 SWAP2 POP POP JUMP JUMPDEST PUSH1 0x0 PUSH3 0x15180 DUP3 PUSH1 0x2 ADD SLOAD TIMESTAMP PUSH2 0xCB2 SWAP2 SWAP1 PUSH2 0x12BA JUMP JUMPDEST PUSH2 0xCBC SWAP2 SWAP1 PUSH2 0x12A6 JUMP JUMPDEST SWAP5 SWAP4 POP POP POP POP JUMP JUMPDEST PUSH1 0x0 PUSH2 0xD19 DUP3 PUSH1 0x40 MLOAD DUP1 PUSH1 0x40 ADD PUSH1 0x40 MSTORE DUP1 PUSH1 0x20 DUP2 MSTORE PUSH1 0x20 ADD PUSH32 0x5361666545524332303A206C6F772D6C6576656C2063616C6C206661696C6564 DUP2 MSTORE POP DUP6 PUSH1 0x1 PUSH1 0x1 PUSH1 0xA0 SHL SUB AND PUSH2 0xD96 SWAP1 SWAP3 SWAP2 SWAP1 PUSH4 0xFFFFFFFF AND JUMP JUMPDEST DUP1 MLOAD SWAP1 SWAP2 POP ISZERO PUSH2 0xA3B JUMPI DUP1 DUP1 PUSH1 0x20 ADD SWAP1 MLOAD DUP2 ADD SWAP1 PUSH2 0xD37 SWAP2 SWAP1 PUSH2 0x10BE JUMP JUMPDEST PUSH2 0xA3B JUMPI PUSH1 0x40 MLOAD PUSH3 0x461BCD PUSH1 0xE5 SHL DUP2 MSTORE PUSH1 0x20 PUSH1 0x4 DUP3 ADD MSTORE PUSH1 0x2A PUSH1 0x24 DUP3 ADD MSTORE PUSH32 0x5361666545524332303A204552433230206F7065726174696F6E20646964206E PUSH1 0x44 DUP3 ADD MSTORE PUSH10 0x1BDD081CDD58D8D95959 PUSH1 0xB2 SHL PUSH1 0x64 DUP3 ADD MSTORE PUSH1 0x84 ADD PUSH2 0x39E JUMP JUMPDEST PUSH1 0x60 PUSH2 0xDA5 DUP5 DUP5 PUSH1 0x0 DUP6 PUSH2 0xDAF JUMP JUMPDEST SWAP1 POP JUMPDEST SWAP4 SWAP3 POP POP POP JUMP JUMPDEST PUSH1 0x60 DUP3 SELFBALANCE LT ISZERO PUSH2 0xE10 JUMPI PUSH1 0x40 MLOAD PUSH3 0x461BCD PUSH1 0xE5 SHL DUP2 MSTORE PUSH1 0x20 PUSH1 0x4 DUP3 ADD MSTORE PUSH1 0x26 PUSH1 0x24 DUP3 ADD MSTORE PUSH32 0x416464726573733A20696E73756666696369656E742062616C616E636520666F PUSH1 0x44 DUP3 ADD MSTORE PUSH6 0x1C8818D85B1B PUSH1 0xD2 SHL PUSH1 0x64 DUP3 ADD MSTORE PUSH1 0x84 ADD PUSH2 0x39E JUMP JUMPDEST PUSH1 0x1 PUSH1 0x1 PUSH1 0xA0 SHL SUB DUP6 AND EXTCODESIZE PUSH2 0xE67 JUMPI PUSH1 0x40 MLOAD PUSH3 0x461BCD PUSH1 0xE5 SHL DUP2 MSTORE PUSH1 0x20 PUSH1 0x4 DUP3 ADD MSTORE PUSH1 0x1D PUSH1 0x24 DUP3 ADD MSTORE PUSH32 0x416464726573733A2063616C6C20746F206E6F6E2D636F6E7472616374000000 PUSH1 0x44 DUP3 ADD MSTORE PUSH1 0x64 ADD PUSH2 0x39E JUMP JUMPDEST PUSH1 0x0 DUP1 DUP7 PUSH1 0x1 PUSH1 0x1 PUSH1 0xA0 SHL SUB AND DUP6 DUP8 PUSH1 0x40 MLOAD PUSH2 0xE83 SWAP2 SWAP1 PUSH2 0x10F9 JUMP JUMPDEST PUSH1 0x0 PUSH1 0x40 MLOAD DUP1 DUP4 SUB DUP2 DUP6 DUP8 GAS CALL SWAP3 POP POP POP RETURNDATASIZE DUP1 PUSH1 0x0 DUP2 EQ PUSH2 0xEC0 JUMPI PUSH1 0x40 MLOAD SWAP2 POP PUSH1 0x1F NOT PUSH1 0x3F RETURNDATASIZE ADD AND DUP3 ADD PUSH1 0x40 MSTORE RETURNDATASIZE DUP3 MSTORE RETURNDATASIZE PUSH1 0x0 PUSH1 0x20 DUP5 ADD RETURNDATACOPY PUSH2 0xEC5 JUMP JUMPDEST PUSH1 0x60 SWAP2 POP JUMPDEST POP SWAP2 POP SWAP2 POP PUSH2 0xED5 DUP3 DUP3 DUP7 PUSH2 0xEE0 JUMP JUMPDEST SWAP8 SWAP7 POP POP POP POP POP POP POP JUMP JUMPDEST PUSH1 0x60 DUP4 ISZERO PUSH2 0xEEF JUMPI POP DUP2 PUSH2 0xDA8 JUMP JUMPDEST DUP3 MLOAD ISZERO PUSH2 0xEFF JUMPI DUP3 MLOAD DUP1 DUP5 PUSH1 0x20 ADD REVERT JUMPDEST DUP2 PUSH1 0x40 MLOAD PUSH3 0x461BCD PUSH1 0xE5 SHL DUP2 MSTORE PUSH1 0x4 ADD PUSH2 0x39E SWAP2 SWAP1 PUSH2 0x1148 JUMP JUMPDEST PUSH1 0x40 MLOAD DUP1 PUSH1 0xE0 ADD PUSH1 0x40 MSTORE DUP1 PUSH1 0x7 SWAP1 PUSH1 0x20 DUP3 MUL DUP1 CALLDATASIZE DUP4 CALLDATACOPY POP SWAP2 SWAP3 SWAP2 POP POP JUMP JUMPDEST PUSH1 0x40 MLOAD DUP1 PUSH1 0x40 ADD PUSH1 0x40 MSTORE DUP1 PUSH1 0x2 SWAP1 PUSH1 0x20 DUP3 MUL DUP1 CALLDATASIZE DUP4 CALLDATACOPY POP SWAP2 SWAP3 SWAP2 POP POP JUMP JUMPDEST DUP3 PUSH1 0x7 DUP2 ADD SWAP3 DUP3 ISZERO PUSH2 0xF83 JUMPI SWAP2 PUSH1 0x20 MUL DUP3 ADD JUMPDEST DUP3 DUP2 GT ISZERO PUSH2 0xF83 JUMPI DUP3 MLOAD DUP3 SSTORE SWAP2 PUSH1 0x20 ADD SWAP2 SWAP1 PUSH1 0x1 ADD SWAP1 PUSH2 0xF68 JUMP JUMPDEST POP PUSH2 0xF8F SWAP3 SWAP2 POP PUSH2 0xF93 JUMP JUMPDEST POP SWAP1 JUMP JUMPDEST JUMPDEST DUP1 DUP3 GT ISZERO PUSH2 0xF8F JUMPI PUSH1 0x0 DUP2 SSTORE PUSH1 0x1 ADD PUSH2 0xF94 JUMP JUMPDEST DUP1 CALLDATALOAD PUSH1 0x1 PUSH1 0x1 PUSH1 0xA0 SHL SUB DUP2 AND DUP2 EQ PUSH2 0xBAE JUMPI PUSH1 0x0 DUP1 REVERT JUMPDEST PUSH1 0x0 DUP3 PUSH1 0x1F DUP4 ADD SLT PUSH2 0xFD0 JUMPI PUSH1 0x0 DUP1 REVERT JUMPDEST PUSH1 0x40 MLOAD PUSH1 0xE0 DUP2 ADD DUP2 DUP2 LT PUSH8 0xFFFFFFFFFFFFFFFF DUP3 GT OR ISZERO PUSH2 0x1001 JUMPI PUSH4 0x4E487B71 PUSH1 0xE0 SHL PUSH1 0x0 MSTORE PUSH1 0x41 PUSH1 0x4 MSTORE PUSH1 0x24 PUSH1 0x0 REVERT JUMPDEST PUSH1 0x40 MSTORE DUP1 DUP4 PUSH1 0xE0 DUP2 ADD DUP7 LT ISZERO PUSH2 0x1016 JUMPI PUSH1 0x0 DUP1 REVERT JUMPDEST PUSH1 0x0 JUMPDEST PUSH1 0x7 DUP2 LT ISZERO PUSH2 0x1038 JUMPI DUP2 CALLDATALOAD DUP4 MSTORE PUSH1 0x20 SWAP3 DUP4 ADD SWAP3 SWAP1 SWAP2 ADD SWAP1 PUSH1 0x1 ADD PUSH2 0x1019 JUMP JUMPDEST POP SWAP2 SWAP6 SWAP5 POP POP POP POP POP JUMP JUMPDEST PUSH1 0x0 PUSH1 0x20 DUP3 DUP5 SUB SLT ISZERO PUSH2 0x1055 JUMPI PUSH1 0x0 DUP1 REVERT JUMPDEST PUSH2 0xDA8 DUP3 PUSH2 0xFA8 JUMP JUMPDEST PUSH1 0x0 DUP1 PUSH1 0x40 DUP4 DUP6 SUB SLT ISZERO PUSH2 0x1071 JUMPI PUSH1 0x0 DUP1 REVERT JUMPDEST PUSH2 0x107A DUP4 PUSH2 0xFA8 JUMP JUMPDEST SWAP2 POP PUSH2 0x1088 PUSH1 0x20 DUP5 ADD PUSH2 0xFA8 JUMP JUMPDEST SWAP1 POP SWAP3 POP SWAP3 SWAP1 POP JUMP JUMPDEST PUSH1 0x0 DUP1 PUSH2 0x1C0 DUP4 DUP6 SUB SLT ISZERO PUSH2 0x10A5 JUMPI PUSH1 0x0 DUP1 REVERT JUMPDEST PUSH2 0x10AF DUP5 DUP5 PUSH2 0xFBF JUMP JUMPDEST SWAP2 POP PUSH2 0x1088 DUP5 PUSH1 0xE0 DUP6 ADD PUSH2 0xFBF JUMP JUMPDEST PUSH1 0x0 PUSH1 0x20 DUP3 DUP5 SUB SLT ISZERO PUSH2 0x10D0 JUMPI PUSH1 0x0 DUP1 REVERT JUMPDEST DUP2 MLOAD DUP1 ISZERO ISZERO DUP2 EQ PUSH2 0xDA8 JUMPI PUSH1 0x0 DUP1 REVERT JUMPDEST PUSH1 0x0 PUSH1 0x20 DUP3 DUP5 SUB SLT ISZERO PUSH2 0x10F2 JUMPI PUSH1 0x0 DUP1 REVERT JUMPDEST POP CALLDATALOAD SWAP2 SWAP1 POP JUMP JUMPDEST PUSH1 0x0 DUP3 MLOAD PUSH2 0x110B DUP2 DUP5 PUSH1 0x20 DUP8 ADD PUSH2 0x12D1 JUMP JUMPDEST SWAP2 SWAP1 SWAP2 ADD SWAP3 SWAP2 POP POP JUMP JUMPDEST PUSH1 0xE0 DUP2 ADD DUP2 DUP4 PUSH1 0x0 JUMPDEST PUSH1 0x7 DUP2 LT ISZERO PUSH2 0x113F JUMPI DUP2 MLOAD ISZERO ISZERO DUP4 MSTORE PUSH1 0x20 SWAP3 DUP4 ADD SWAP3 SWAP1 SWAP2 ADD SWAP1 PUSH1 0x1 ADD PUSH2 0x111E JUMP JUMPDEST POP POP POP SWAP3 SWAP2 POP POP JUMP JUMPDEST PUSH1 0x20 DUP2 MSTORE PUSH1 0x0 DUP3 MLOAD DUP1 PUSH1 0x20 DUP5 ADD MSTORE PUSH2 0x1167 DUP2 PUSH1 0x40 DUP6 ADD PUSH1 0x20 DUP8 ADD PUSH2 0x12D1 JUMP JUMPDEST PUSH1 0x1F ADD PUSH1 0x1F NOT AND SWAP2 SWAP1 SWAP2 ADD PUSH1 0x40 ADD SWAP3 SWAP2 POP POP JUMP JUMPDEST PUSH1 0x20 DUP1 DUP3 MSTORE PUSH1 0x2E SWAP1 DUP3 ADD MSTORE PUSH32 0x496E697469616C697A61626C653A20636F6E747261637420697320616C726561 PUSH1 0x40 DUP3 ADD MSTORE PUSH14 0x191E481A5B9A5D1A585B1A5E9959 PUSH1 0x92 SHL PUSH1 0x60 DUP3 ADD MSTORE PUSH1 0x80 ADD SWAP1 JUMP JUMPDEST PUSH1 0x20 DUP1 DUP3 MSTORE DUP2 DUP2 ADD MSTORE PUSH32 0x4F776E61626C653A2063616C6C6572206973206E6F7420746865206F776E6572 PUSH1 0x40 DUP3 ADD MSTORE PUSH1 0x60 ADD SWAP1 JUMP JUMPDEST PUSH1 0x20 DUP1 DUP3 MSTORE PUSH1 0x2B SWAP1 DUP3 ADD MSTORE PUSH32 0x496E697469616C697A61626C653A20636F6E7472616374206973206E6F742069 PUSH1 0x40 DUP3 ADD MSTORE PUSH11 0x6E697469616C697A696E67 PUSH1 0xA8 SHL PUSH1 0x60 DUP3 ADD MSTORE PUSH1 0x80 ADD SWAP1 JUMP JUMPDEST PUSH1 0x0 PUSH1 0x80 DUP3 ADD SWAP1 POP DUP5 DUP3 MSTORE PUSH1 0x20 DUP5 ISZERO ISZERO DUP2 DUP5 ADD MSTORE PUSH1 0x40 DUP4 ADD DUP5 PUSH1 0x0 JUMPDEST PUSH1 0x2 DUP2 LT ISZERO PUSH2 0x1282 JUMPI DUP2 MLOAD DUP4 MSTORE SWAP2 DUP4 ADD SWAP2 SWAP1 DUP4 ADD SWAP1 PUSH1 0x1 ADD PUSH2 0x1265 JUMP JUMPDEST POP POP POP POP SWAP5 SWAP4 POP POP POP POP JUMP JUMPDEST PUSH1 0x0 DUP3 NOT DUP3 GT ISZERO PUSH2 0x12A1 JUMPI PUSH2 0x12A1 PUSH2 0x1315 JUMP JUMPDEST POP ADD SWAP1 JUMP JUMPDEST PUSH1 0x0 DUP3 PUSH2 0x12B5 JUMPI PUSH2 0x12B5 PUSH2 0x132B JUMP JUMPDEST POP DIV SWAP1 JUMP JUMPDEST PUSH1 0x0 DUP3 DUP3 LT ISZERO PUSH2 0x12CC JUMPI PUSH2 0x12CC PUSH2 0x1315 JUMP JUMPDEST POP SUB SWAP1 JUMP JUMPDEST PUSH1 0x0 JUMPDEST DUP4 DUP2 LT ISZERO PUSH2 0x12EC JUMPI DUP2 DUP2 ADD MLOAD DUP4 DUP3 ADD MSTORE PUSH1 0x20 ADD PUSH2 0x12D4 JUMP JUMPDEST DUP4 DUP2 GT ISZERO PUSH2 0x12FB JUMPI PUSH1 0x0 DUP5 DUP5 ADD MSTORE JUMPDEST POP POP POP POP JUMP JUMPDEST PUSH1 0x0 DUP3 PUSH2 0x1310 JUMPI PUSH2 0x1310 PUSH2 0x132B JUMP JUMPDEST POP MOD SWAP1 JUMP JUMPDEST PUSH4 0x4E487B71 PUSH1 0xE0 SHL PUSH1 0x0 MSTORE PUSH1 0x11 PUSH1 0x4 MSTORE PUSH1 0x24 PUSH1 0x0 REVERT JUMPDEST PUSH4 0x4E487B71 PUSH1 0xE0 SHL PUSH1 0x0 MSTORE PUSH1 0x12 PUSH1 0x4 MSTORE PUSH1 0x24 PUSH1 0x0 REVERT JUMPDEST PUSH4 0x4E487B71 PUSH1 0xE0 SHL PUSH1 0x0 MSTORE PUSH1 0x32 PUSH1 0x4 MSTORE PUSH1 0x24 PUSH1 0x0 REVERT INVALID LOG2 PUSH5 0x6970667358 0x22 SLT KECCAK256 EXTCODECOPY 0xB9 PUSH11 0xDEA45BA9555D86D3F52ED PUSH14 0xE74CFB7CEC9F82BD4F8EEE458668 SLOAD 0xBF 0xFB PUSH5 0x736F6C6343 STOP ADDMOD SMOD STOP CALLER "
		},
		"gasEstimates": {
			"creation": {
				"codeDepositCost": "1001000",
				"executionCost": "1041",
				"totalCost": "1002041"
			},
			"external": {
				"BVG()": "2382",
				"BVGreward(uint256)": "2441",
				"BVT()": "2404",
				"BVTreward(uint256)": "2440",
				"check()": "infinite",
				"checkAble(address)": "infinite",
				"checkUserClaimTimes(address)": "infinite",
				"getCheckInfo(address)": "infinite",
				"initialize()": "infinite",
				"owner()": "2398",
				"planet()": "2360",
				"renounceOwnership()": "28206",
				"setPlanet(address)": "26755",
				"setReward(uint256[7],uint256[7])": "infinite",
				"setToken(address,address)": "infinite",
				"setWalletLimit(uint256)": "24530",
				"transferOwnership(address)": "28411",
				"userInfo(address)": "8973",
				"walletLimit()": "2340"
			},
			"internal": {
				"findIndex(address)": "infinite"
			}
		},
		"methodIdentifiers": {
			"BVG()": "87464389",
			"BVGreward(uint256)": "3527e358",
			"BVT()": "5f24b4a4",
			"BVTreward(uint256)": "95b92926",
			"check()": "919840ad",
			"checkAble(address)": "2e3106c4",
			"checkUserClaimTimes(address)": "0691fb2e",
			"getCheckInfo(address)": "94d1e155",
			"initialize()": "8129fc1c",
			"owner()": "8da5cb5b",
			"planet()": "8443bea6",
			"renounceOwnership()": "715018a6",
			"setPlanet(address)": "ad911387",
			"setReward(uint256[7],uint256[7])": "f21a4349",
			"setToken(address,address)": "1da26a8b",
			"setWalletLimit(uint256)": "f1d5f517",
			"transferOwnership(address)": "f2fde38b",
			"userInfo(address)": "1959a002",
			"walletLimit()": "3c8463a1"
		}
	},
	"abi": [
		{
			"anonymous": false,
			"inputs": [
				{
					"indexed": true,
					"internalType": "address",
					"name": "player",
					"type": "address"
				},
				{
					"indexed": true,
					"internalType": "uint256",
					"name": "index",
					"type": "uint256"
				}
			],
			"name": "Check",
			"type": "event"
		},
		{
			"anonymous": false,
			"inputs": [
				{
					"indexed": false,
					"internalType": "uint8",
					"name": "version",
					"type": "uint8"
				}
			],
			"name": "Initialized",
			"type": "event"
		},
		{
			"anonymous": false,
			"inputs": [
				{
					"indexed": true,
					"internalType": "address",
					"name": "previousOwner",
					"type": "address"
				},
				{
					"indexed": true,
					"internalType": "address",
					"name": "newOwner",
					"type": "address"
				}
			],
			"name": "OwnershipTransferred",
			"type": "event"
		},
		{
			"inputs": [],
			"name": "BVG",
			"outputs": [
				{
					"internalType": "contract IERC20Upgradeable",
					"name": "",
					"type": "address"
				}
			],
			"stateMutability": "view",
			"type": "function"
		},
		{
			"inputs": [
				{
					"internalType": "uint256",
					"name": "",
					"type": "uint256"
				}
			],
			"name": "BVGreward",
			"outputs": [
				{
					"internalType": "uint256",
					"name": "",
					"type": "uint256"
				}
			],
			"stateMutability": "view",
			"type": "function"
		},
		{
			"inputs": [],
			"name": "BVT",
			"outputs": [
				{
					"internalType": "contract IERC20Upgradeable",
					"name": "",
					"type": "address"
				}
			],
			"stateMutability": "view",
			"type": "function"
		},
		{
			"inputs": [
				{
					"internalType": "uint256",
					"name": "",
					"type": "uint256"
				}
			],
			"name": "BVTreward",
			"outputs": [
				{
					"internalType": "uint256",
					"name": "",
					"type": "uint256"
				}
			],
			"stateMutability": "view",
			"type": "function"
		},
		{
			"inputs": [],
			"name": "check",
			"outputs": [],
			"stateMutability": "nonpayable",
			"type": "function"
		},
		{
			"inputs": [
				{
					"internalType": "address",
					"name": "addr",
					"type": "address"
				}
			],
			"name": "checkAble",
			"outputs": [
				{
					"internalType": "bool",
					"name": "",
					"type": "bool"
				}
			],
			"stateMutability": "view",
			"type": "function"
		},
		{
			"inputs": [
				{
					"internalType": "address",
					"name": "addr",
					"type": "address"
				}
			],
			"name": "checkUserClaimTimes",
			"outputs": [
				{
					"internalType": "bool[7]",
					"name": "",
					"type": "bool[7]"
				}
			],
			"stateMutability": "view",
			"type": "function"
		},
		{
			"inputs": [
				{
					"internalType": "address",
					"name": "addr",
					"type": "address"
				}
			],
			"name": "getCheckInfo",
			"outputs": [
				{
					"internalType": "uint256",
					"name": "",
					"type": "uint256"
				},
				{
					"internalType": "bool",
					"name": "",
					"type": "bool"
				},
				{
					"internalType": "uint256[2]",
					"name": "",
					"type": "uint256[2]"
				}
			],
			"stateMutability": "view",
			"type": "function"
		},
		{
			"inputs": [],
			"name": "initialize",
			"outputs": [],
			"stateMutability": "nonpayable",
			"type": "function"
		},
		{
			"inputs": [],
			"name": "owner",
			"outputs": [
				{
					"internalType": "address",
					"name": "",
					"type": "address"
				}
			],
			"stateMutability": "view",
			"type": "function"
		},
		{
			"inputs": [],
			"name": "planet",
			"outputs": [
				{
					"internalType": "contract IPlanet",
					"name": "",
					"type": "address"
				}
			],
			"stateMutability": "view",
			"type": "function"
		},
		{
			"inputs": [],
			"name": "renounceOwnership",
			"outputs": [],
			"stateMutability": "nonpayable",
			"type": "function"
		},
		{
			"inputs": [
				{
					"internalType": "address",
					"name": "planet_",
					"type": "address"
				}
			],
			"name": "setPlanet",
			"outputs": [],
			"stateMutability": "nonpayable",
			"type": "function"
		},
		{
			"inputs": [
				{
					"internalType": "uint256[7]",
					"name": "BVTrew",
					"type": "uint256[7]"
				},
				{
					"internalType": "uint256[7]",
					"name": "BVGrew",
					"type": "uint256[7]"
				}
			],
			"name": "setReward",
			"outputs": [],
			"stateMutability": "nonpayable",
			"type": "function"
		},
		{
			"inputs": [
				{
					"internalType": "address",
					"name": "BVT_",
					"type": "address"
				},
				{
					"internalType": "address",
					"name": "BVG_",
					"type": "address"
				}
			],
			"name": "setToken",
			"outputs": [],
			"stateMutability": "nonpayable",
			"type": "function"
		},
		{
			"inputs": [
				{
					"internalType": "uint256",
					"name": "limit",
					"type": "uint256"
				}
			],
			"name": "setWalletLimit",
			"outputs": [],
			"stateMutability": "nonpayable",
			"type": "function"
		},
		{
			"inputs": [
				{
					"internalType": "address",
					"name": "newOwner",
					"type": "address"
				}
			],
			"name": "transferOwnership",
			"outputs": [],
			"stateMutability": "nonpayable",
			"type": "function"
		},
		{
			"inputs": [
				{
					"internalType": "address",
					"name": "",
					"type": "address"
				}
			],
			"name": "userInfo",
			"outputs": [
				{
					"internalType": "uint256",
					"name": "claimEndTime",
					"type": "uint256"
				},
				{
					"internalType": "uint256",
					"name": "claimStartTime",
					"type": "uint256"
				},
				{
					"internalType": "uint256",
					"name": "lastClaimTime",
					"type": "uint256"
				},
				{
					"internalType": "uint256",
					"name": "nextCheckTime",
					"type": "uint256"
				}
			],
			"stateMutability": "view",
			"type": "function"
		},
		{
			"inputs": [],
			"name": "walletLimit",
			"outputs": [
				{
					"internalType": "uint256",
					"name": "",
					"type": "uint256"
				}
			],
			"stateMutability": "view",
			"type": "function"
		}
	]
}