{
	"data": {
		"bytecode": {
			"linkReferences": {},
			"object": "608060405234801561001057600080fd5b506118c7806100206000396000f3fe608060405234801561001057600080fd5b50600436106102275760003560e01c8063820074be11610130578063abb9bb05116100b8578063d0361fee1161007c578063d0361fee146104ca578063dfc69c14146104d2578063e0c86c46146104da578063e5d59e80146104fc578063f2fde38b1461050557600080fd5b8063abb9bb0514610475578063ad9113871461047e578063c101e0dc14610491578063c6a023e9146104a4578063caa44688146104b757600080fd5b80638a8dd6d3116100ff5780638a8dd6d3146104285780638a8f6729146104305780638bcaff1a146104395780638da5cb5b146104415780639dae5fd01461045257600080fd5b8063820074be146103dc5780638443bea6146103ef578063874643891461040257806388e14d9c1461041557600080fd5b8063537627ab116101b35780636300ce49116101825780636300ce49146103735780636e02bdcd146103a6578063715018a6146103b9578063754215a1146103c15780638129fc1c146103d457600080fd5b8063537627ab1461033157806355594b51146103445780635f24b4a41461034d57806361757a9a1461036057600080fd5b80631f211227116101fa5780631f2112271461030557806321032a021461030d57806321edc2941461031657806332ec46ce1461031f57806349ea7fe01461032857600080fd5b806301c211c71461022c5780630de307fe1461025c5780631959a002146102715780631e2a41ae146102ee575b600080fd5b60675461023f906001600160a01b031681565b6040516001600160a01b0390911681526020015b60405180910390f35b61026f61026a3660046114d5565b610518565b005b6102bc61027f3660046114d5565b606e6020526000908152604090205460ff808216916101008104821691620100008204811691630100000081048216916401000000009091041685565b60408051951515865293151560208601529115159284019290925290151560608301521515608082015260a001610253565b6102f760725481565b604051908152602001610253565b61026f61056d565b6102f760745481565b6102f7606d5481565b6102f760705481565b6102f760755481565b61026f61033f3660046114d5565b610676565b6102f7606c5481565b60655461023f906001600160a01b031681565b61026f61036e3660046114d5565b6106c2565b6103966103813660046114d5565b606b6020526000908152604090205460ff1681565b6040519015158152602001610253565b61026f6103b43660046114f6565b61070e565b61026f6107b2565b60685461023f906001600160a01b031681565b61026f6107e8565b61026f6103ea3660046115eb565b610923565b60695461023f906001600160a01b031681565b60665461023f906001600160a01b031681565b61026f6104233660046114d5565b610952565b61026f61099e565b6102f7606f5481565b61026f610b62565b6033546001600160a01b031661023f565b6103966104603660046114d5565b606a6020526000908152604090205460ff1681565b6102f760715481565b61026f61048c3660046114d5565b610ccd565b61026f61049f3660046114f6565b610d19565b61026f6104b236600461161b565b610db8565b61026f6104c53660046115eb565b610ded565b61026f610e1c565b61026f610f92565b6104ed6104e83660046114d5565b611128565b604051610253939291906116a6565b6102f760735481565b61026f6105133660046114d5565b61128f565b6033546001600160a01b0316331461054b5760405162461bcd60e51b815260040161054290611766565b60405180910390fd5b606780546001600160a01b0319166001600160a01b0392909216919091179055565b336000908152606e6020526040902054640100000000900460ff16156105a55760405162461bcd60e51b8152600401610542906116f7565b606654606f546040516340c10f1960e01b815233600482015260248101919091526001600160a01b03909116906340c10f1990604401600060405180830381600087803b1580156105f557600080fd5b505af1158015610609573d6000803e3d6000fd5b5050336000908152606e60205260408120805464ff00000000191664010000000017905560705460728054919450925061064490849061180d565b909155505060405133907f47531e0ec5c3d8102b06ae99673363f3fdf3bd8450e14b9af37c42325dd73e3f90600090a2565b6033546001600160a01b031633146106a05760405162461bcd60e51b815260040161054290611766565b606880546001600160a01b0319166001600160a01b0392909216919091179055565b6033546001600160a01b031633146106ec5760405162461bcd60e51b815260040161054290611766565b606580546001600160a01b0319166001600160a01b0392909216919091179055565b6033546001600160a01b031633146107385760405162461bcd60e51b815260040161054290611766565b60005b82518110156107ad5781606a600085848151811061076957634e487b7160e01b600052603260045260246000fd5b6020908102919091018101516001600160a01b03168252810191909152604001600020805460ff1916911515919091179055806107a58161183c565b91505061073b565b505050565b6033546001600160a01b031633146107dc5760405162461bcd60e51b815260040161054290611766565b6107e66000611323565b565b60006107f46001611375565b9050801561080c576000805461ff0019166101001790555b610814611402565b61081c611429565b69152d02c7e14af6800000606f5569010f0cf064dd59200000607055606580546001600160a01b031990811673271e737693be2c63e16e9ad5a83f26b95d161c7e1790915560668054821673b17b02c9e2e39c457e696abb55c6d5a44a352dd417905560678054821673e9bf60f2590d18f90b7218538dc90da682fb7b011790556068805482167396cb0ade2e254c598b12179503c00b007eeb7861179055606980549091167386ac1f6256d9da9cb946156aee7b5af93e41636a1790558015610920576000805461ff0019169055604051600181527f7f26b83ff96e1f2b6a682f133852f6798a09c465da95921460cefb38474024989060200160405180910390a15b50565b6033546001600160a01b0316331461094d5760405162461bcd60e51b815260040161054290611766565b606f55565b6033546001600160a01b0316331461097c5760405162461bcd60e51b815260040161054290611766565b606680546001600160a01b0319166001600160a01b0392909216919091179055565b6070546065546040516370a0823160e01b81523060048201526001600160a01b03909116906370a082319060240160206040518083038186803b1580156109e457600080fd5b505afa1580156109f8573d6000803e3d6000fd5b505050506040513d601f19601f82011682018060405250810190610a1c9190611603565b1015610a3a5760405162461bcd60e51b81526004016105429061179b565b336000908152606e60205260409020546301000000900460ff1615610a715760405162461bcd60e51b8152600401610542906116f7565b60655460705460405163a9059cbb60e01b815233600482015260248101919091526001600160a01b039091169063a9059cbb90604401602060405180830381600087803b158015610ac157600080fd5b505af1158015610ad5573d6000803e3d6000fd5b505050506040513d601f19601f82011682018060405250810190610af991906115cf565b50336000908152606e60205260408120805463ff000000191663010000001790556070546071805491929091610b3090849061180d565b909155505060405133907f9b0ecc34092ab6c108ad3c934901675489c617272f5445cf653f8ca720167de790600090a2565b336000908152606e602052604090205462010000900460ff1615610b985760405162461bcd60e51b8152600401610542906116f7565b610ba0611459565b60685460405163259c037f60e11b81526001600160a01b0390911690634b3806fe90610bd29033908590600401611665565b600060405180830381600087803b158015610bec57600080fd5b505af1158015610c00573d6000803e3d6000fd5b505060685460405163259c037f60e11b81526001600160a01b039091169250634b3806fe9150610c369033908590600401611665565b600060405180830381600087803b158015610c5057600080fd5b505af1158015610c64573d6000803e3d6000fd5b5050336000908152606e60205260408120805462ff00001916620100001790556073805460029450909250610c9a90849061180d565b909155505060405133907fba53510b067caa700875dbc5c5d976eda59495260cc968392d95a707a72e95c590600090a250565b6033546001600160a01b03163314610cf75760405162461bcd60e51b815260040161054290611766565b606980546001600160a01b0319166001600160a01b0392909216919091179055565b6033546001600160a01b03163314610d435760405162461bcd60e51b815260040161054290611766565b60005b82518110156107ad5781606b6000858481518110610d7457634e487b7160e01b600052603260045260246000fd5b6020908102919091018101516001600160a01b03168252810191909152604001600020805460ff191691151591909117905580610db08161183c565b915050610d46565b6033546001600160a01b03163314610de25760405162461bcd60e51b815260040161054290611766565b606d91909155606c55565b6033546001600160a01b03163314610e175760405162461bcd60e51b815260040161054290611766565b607055565b6000606d5411610e3e5760405162461bcd60e51b81526004016105429061179b565b336000908152606b602052604090205460ff16610e8e5760405162461bcd60e51b815260206004820152600e60248201526d1b9bdd081dda1a5d19481b1a5cdd60921b6044820152606401610542565b336000908152606e6020526040902054610100900460ff1615610ec35760405162461bcd60e51b8152600401610542906116f7565b6067546040516335313c2160e11b81523360048201526001600160a01b0390911690636a62784290602401600060405180830381600087803b158015610f0857600080fd5b505af1158015610f1c573d6000803e3d6000fd5b5050336000908152606e60205260408120805461ff0019166101001790556075805493509150610f4b8361183c565b9091555050606d8054906000610f6083611825565b909155505060405133907fc587e333e20a8232d4e04d3b4f6564ddfab95990a21b61fef34de3b1e9c7fe2c90600090a2565b6000606c5411610fb45760405162461bcd60e51b81526004016105429061179b565b336000908152606a602052604090205460ff166110045760405162461bcd60e51b815260206004820152600e60248201526d1b9bdd081dda1a5d19481b1a5cdd60921b6044820152606401610542565b336000908152606e602052604090205460ff16156110345760405162461bcd60e51b8152600401610542906116f7565b6069546040516340c10f1960e01b8152336004820152600160248201526001600160a01b03909116906340c10f1990604401602060405180830381600087803b15801561108057600080fd5b505af1158015611094573d6000803e3d6000fd5b505050506040513d601f19601f820116820180604052508101906110b89190611603565b50336000908152606e60205260408120805460ff19166001179055606c8054916110e183611825565b9091555050607480549060006110f68361183c565b909155505060405133907fcf9d5ee7d69cc14dbcb3989e253709787965b7ea1aaa1d51ed6fb320dbfa368490600090a2565b611130611477565b611138611495565b611140611495565b6001600160a01b038481166000818152606e602090815260408083205460ff620100008204811615158a526101008204811615158a8501526401000000008204811615158a84015263010000008204811615156060808c0191909152918116151560808b0152858552606b8452828520548116151560a08b0152948452606a83529281902054909316151560c0880152606c548652606d5490860152606f54858301526070549085015260655490516370a0823160e01b81523060048201529116906370a082319060240160206040518083038186803b15801561122357600080fd5b505afa158015611237573d6000803e3d6000fd5b505050506040513d601f19601f8201168201806040525081019061125b9190611603565b6080808401919091526071548252607254602083015260735460408301526074546060830152607554908201529193909250565b6033546001600160a01b031633146112b95760405162461bcd60e51b815260040161054290611766565b6001600160a01b03811661131e5760405162461bcd60e51b815260206004820152602660248201527f4f776e61626c653a206e6577206f776e657220697320746865207a65726f206160448201526564647265737360d01b6064820152608401610542565b610920815b603380546001600160a01b038381166001600160a01b0319831681179093556040519116919082907f8be0079c531659141344cd1fd0a4f28419497f9722a3daafe3b4186f6b6457e090600090a35050565b60008054610100900460ff16156113bc578160ff1660011480156113985750303b155b6113b45760405162461bcd60e51b815260040161054290611718565b506000919050565b60005460ff8084169116106113e35760405162461bcd60e51b815260040161054290611718565b506000805460ff191660ff92909216919091179055600190565b919050565b600054610100900460ff166107e65760405162461bcd60e51b8152600401610542906117c2565b600054610100900460ff166114505760405162461bcd60e51b8152600401610542906117c2565b6107e633611323565b60405180604001604052806002906020820280368337509192915050565b6040518060e001604052806007906020820280368337509192915050565b6040518060a001604052806005906020820280368337509192915050565b80356001600160a01b03811681146113fd57600080fd5b80356113fd81611883565b6000602082840312156114e6578081fd5b6114ef826114b3565b9392505050565b60008060408385031215611508578081fd5b823567ffffffffffffffff8082111561151f578283fd5b818501915085601f830112611532578283fd5b81356020828211156115465761154661186d565b8160051b604051601f19603f8301168101818110868211171561156b5761156b61186d565b604052838152828101945085830182870184018b1015611589578788fd5b8796505b848710156115b25761159e816114b3565b86526001969096019594830194830161158d565b5096506115c290508782016114ca565b9450505050509250929050565b6000602082840312156115e0578081fd5b81516114ef81611883565b6000602082840312156115fc578081fd5b5035919050565b600060208284031215611614578081fd5b5051919050565b6000806040838503121561162d578182fd5b50508035926020909101359150565b8060005b600581101561165f578151845260209384019390910190600101611640565b50505050565b6001600160a01b03831681526060810160208083018460005b600281101561169b5781518352918301919083019060010161167e565b505050509392505050565b6102208101818560005b60078110156116d157815115158352602092830192909101906001016116b0565b5050506116e160e083018561163c565b6116ef61018083018461163c565b949350505050565b60208082526007908201526618db185a5b595960ca1b604082015260600190565b6020808252602e908201527f496e697469616c697a61626c653a20636f6e747261637420697320616c72656160408201526d191e481a5b9a5d1a585b1a5e995960921b606082015260800190565b6020808252818101527f4f776e61626c653a2063616c6c6572206973206e6f7420746865206f776e6572604082015260600190565b6020808252600d908201526c1bdd5d081bd988185b5bdd5b9d609a1b604082015260600190565b6020808252602b908201527f496e697469616c697a61626c653a20636f6e7472616374206973206e6f74206960408201526a6e697469616c697a696e6760a81b606082015260800190565b6000821982111561182057611820611857565b500190565b60008161183457611834611857565b506000190190565b600060001982141561185057611850611857565b5060010190565b634e487b7160e01b600052601160045260246000fd5b634e487b7160e01b600052604160045260246000fd5b801515811461092057600080fdfea2646970667358221220fda956670132f5c6bff1a33b85349fb152db01c50a85fc8fe4cf343bcd481dc664736f6c63430008040033",
			"opcodes": "PUSH1 0x80 PUSH1 0x40 MSTORE CALLVALUE DUP1 ISZERO PUSH2 0x10 JUMPI PUSH1 0x0 DUP1 REVERT JUMPDEST POP PUSH2 0x18C7 DUP1 PUSH2 0x20 PUSH1 0x0 CODECOPY PUSH1 0x0 RETURN INVALID PUSH1 0x80 PUSH1 0x40 MSTORE CALLVALUE DUP1 ISZERO PUSH2 0x10 JUMPI PUSH1 0x0 DUP1 REVERT JUMPDEST POP PUSH1 0x4 CALLDATASIZE LT PUSH2 0x227 JUMPI PUSH1 0x0 CALLDATALOAD PUSH1 0xE0 SHR DUP1 PUSH4 0x820074BE GT PUSH2 0x130 JUMPI DUP1 PUSH4 0xABB9BB05 GT PUSH2 0xB8 JUMPI DUP1 PUSH4 0xD0361FEE GT PUSH2 0x7C JUMPI DUP1 PUSH4 0xD0361FEE EQ PUSH2 0x4CA JUMPI DUP1 PUSH4 0xDFC69C14 EQ PUSH2 0x4D2 JUMPI DUP1 PUSH4 0xE0C86C46 EQ PUSH2 0x4DA JUMPI DUP1 PUSH4 0xE5D59E80 EQ PUSH2 0x4FC JUMPI DUP1 PUSH4 0xF2FDE38B EQ PUSH2 0x505 JUMPI PUSH1 0x0 DUP1 REVERT JUMPDEST DUP1 PUSH4 0xABB9BB05 EQ PUSH2 0x475 JUMPI DUP1 PUSH4 0xAD911387 EQ PUSH2 0x47E JUMPI DUP1 PUSH4 0xC101E0DC EQ PUSH2 0x491 JUMPI DUP1 PUSH4 0xC6A023E9 EQ PUSH2 0x4A4 JUMPI DUP1 PUSH4 0xCAA44688 EQ PUSH2 0x4B7 JUMPI PUSH1 0x0 DUP1 REVERT JUMPDEST DUP1 PUSH4 0x8A8DD6D3 GT PUSH2 0xFF JUMPI DUP1 PUSH4 0x8A8DD6D3 EQ PUSH2 0x428 JUMPI DUP1 PUSH4 0x8A8F6729 EQ PUSH2 0x430 JUMPI DUP1 PUSH4 0x8BCAFF1A EQ PUSH2 0x439 JUMPI DUP1 PUSH4 0x8DA5CB5B EQ PUSH2 0x441 JUMPI DUP1 PUSH4 0x9DAE5FD0 EQ PUSH2 0x452 JUMPI PUSH1 0x0 DUP1 REVERT JUMPDEST DUP1 PUSH4 0x820074BE EQ PUSH2 0x3DC JUMPI DUP1 PUSH4 0x8443BEA6 EQ PUSH2 0x3EF JUMPI DUP1 PUSH4 0x87464389 EQ PUSH2 0x402 JUMPI DUP1 PUSH4 0x88E14D9C EQ PUSH2 0x415 JUMPI PUSH1 0x0 DUP1 REVERT JUMPDEST DUP1 PUSH4 0x537627AB GT PUSH2 0x1B3 JUMPI DUP1 PUSH4 0x6300CE49 GT PUSH2 0x182 JUMPI DUP1 PUSH4 0x6300CE49 EQ PUSH2 0x373 JUMPI DUP1 PUSH4 0x6E02BDCD EQ PUSH2 0x3A6 JUMPI DUP1 PUSH4 0x715018A6 EQ PUSH2 0x3B9 JUMPI DUP1 PUSH4 0x754215A1 EQ PUSH2 0x3C1 JUMPI DUP1 PUSH4 0x8129FC1C EQ PUSH2 0x3D4 JUMPI PUSH1 0x0 DUP1 REVERT JUMPDEST DUP1 PUSH4 0x537627AB EQ PUSH2 0x331 JUMPI DUP1 PUSH4 0x55594B51 EQ PUSH2 0x344 JUMPI DUP1 PUSH4 0x5F24B4A4 EQ PUSH2 0x34D JUMPI DUP1 PUSH4 0x61757A9A EQ PUSH2 0x360 JUMPI PUSH1 0x0 DUP1 REVERT JUMPDEST DUP1 PUSH4 0x1F211227 GT PUSH2 0x1FA JUMPI DUP1 PUSH4 0x1F211227 EQ PUSH2 0x305 JUMPI DUP1 PUSH4 0x21032A02 EQ PUSH2 0x30D JUMPI DUP1 PUSH4 0x21EDC294 EQ PUSH2 0x316 JUMPI DUP1 PUSH4 0x32EC46CE EQ PUSH2 0x31F JUMPI DUP1 PUSH4 0x49EA7FE0 EQ PUSH2 0x328 JUMPI PUSH1 0x0 DUP1 REVERT JUMPDEST DUP1 PUSH4 0x1C211C7 EQ PUSH2 0x22C JUMPI DUP1 PUSH4 0xDE307FE EQ PUSH2 0x25C JUMPI DUP1 PUSH4 0x1959A002 EQ PUSH2 0x271 JUMPI DUP1 PUSH4 0x1E2A41AE EQ PUSH2 0x2EE JUMPI JUMPDEST PUSH1 0x0 DUP1 REVERT JUMPDEST PUSH1 0x67 SLOAD PUSH2 0x23F SWAP1 PUSH1 0x1 PUSH1 0x1 PUSH1 0xA0 SHL SUB AND DUP2 JUMP JUMPDEST PUSH1 0x40 MLOAD PUSH1 0x1 PUSH1 0x1 PUSH1 0xA0 SHL SUB SWAP1 SWAP2 AND DUP2 MSTORE PUSH1 0x20 ADD JUMPDEST PUSH1 0x40 MLOAD DUP1 SWAP2 SUB SWAP1 RETURN JUMPDEST PUSH2 0x26F PUSH2 0x26A CALLDATASIZE PUSH1 0x4 PUSH2 0x14D5 JUMP JUMPDEST PUSH2 0x518 JUMP JUMPDEST STOP JUMPDEST PUSH2 0x2BC PUSH2 0x27F CALLDATASIZE PUSH1 0x4 PUSH2 0x14D5 JUMP JUMPDEST PUSH1 0x6E PUSH1 0x20 MSTORE PUSH1 0x0 SWAP1 DUP2 MSTORE PUSH1 0x40 SWAP1 KECCAK256 SLOAD PUSH1 0xFF DUP1 DUP3 AND SWAP2 PUSH2 0x100 DUP2 DIV DUP3 AND SWAP2 PUSH3 0x10000 DUP3 DIV DUP2 AND SWAP2 PUSH4 0x1000000 DUP2 DIV DUP3 AND SWAP2 PUSH5 0x100000000 SWAP1 SWAP2 DIV AND DUP6 JUMP JUMPDEST PUSH1 0x40 DUP1 MLOAD SWAP6 ISZERO ISZERO DUP7 MSTORE SWAP4 ISZERO ISZERO PUSH1 0x20 DUP7 ADD MSTORE SWAP2 ISZERO ISZERO SWAP3 DUP5 ADD SWAP3 SWAP1 SWAP3 MSTORE SWAP1 ISZERO ISZERO PUSH1 0x60 DUP4 ADD MSTORE ISZERO ISZERO PUSH1 0x80 DUP3 ADD MSTORE PUSH1 0xA0 ADD PUSH2 0x253 JUMP JUMPDEST PUSH2 0x2F7 PUSH1 0x72 SLOAD DUP2 JUMP JUMPDEST PUSH1 0x40 MLOAD SWAP1 DUP2 MSTORE PUSH1 0x20 ADD PUSH2 0x253 JUMP JUMPDEST PUSH2 0x26F PUSH2 0x56D JUMP JUMPDEST PUSH2 0x2F7 PUSH1 0x74 SLOAD DUP2 JUMP JUMPDEST PUSH2 0x2F7 PUSH1 0x6D SLOAD DUP2 JUMP JUMPDEST PUSH2 0x2F7 PUSH1 0x70 SLOAD DUP2 JUMP JUMPDEST PUSH2 0x2F7 PUSH1 0x75 SLOAD DUP2 JUMP JUMPDEST PUSH2 0x26F PUSH2 0x33F CALLDATASIZE PUSH1 0x4 PUSH2 0x14D5 JUMP JUMPDEST PUSH2 0x676 JUMP JUMPDEST PUSH2 0x2F7 PUSH1 0x6C SLOAD DUP2 JUMP JUMPDEST PUSH1 0x65 SLOAD PUSH2 0x23F SWAP1 PUSH1 0x1 PUSH1 0x1 PUSH1 0xA0 SHL SUB AND DUP2 JUMP JUMPDEST PUSH2 0x26F PUSH2 0x36E CALLDATASIZE PUSH1 0x4 PUSH2 0x14D5 JUMP JUMPDEST PUSH2 0x6C2 JUMP JUMPDEST PUSH2 0x396 PUSH2 0x381 CALLDATASIZE PUSH1 0x4 PUSH2 0x14D5 JUMP JUMPDEST PUSH1 0x6B PUSH1 0x20 MSTORE PUSH1 0x0 SWAP1 DUP2 MSTORE PUSH1 0x40 SWAP1 KECCAK256 SLOAD PUSH1 0xFF AND DUP2 JUMP JUMPDEST PUSH1 0x40 MLOAD SWAP1 ISZERO ISZERO DUP2 MSTORE PUSH1 0x20 ADD PUSH2 0x253 JUMP JUMPDEST PUSH2 0x26F PUSH2 0x3B4 CALLDATASIZE PUSH1 0x4 PUSH2 0x14F6 JUMP JUMPDEST PUSH2 0x70E JUMP JUMPDEST PUSH2 0x26F PUSH2 0x7B2 JUMP JUMPDEST PUSH1 0x68 SLOAD PUSH2 0x23F SWAP1 PUSH1 0x1 PUSH1 0x1 PUSH1 0xA0 SHL SUB AND DUP2 JUMP JUMPDEST PUSH2 0x26F PUSH2 0x7E8 JUMP JUMPDEST PUSH2 0x26F PUSH2 0x3EA CALLDATASIZE PUSH1 0x4 PUSH2 0x15EB JUMP JUMPDEST PUSH2 0x923 JUMP JUMPDEST PUSH1 0x69 SLOAD PUSH2 0x23F SWAP1 PUSH1 0x1 PUSH1 0x1 PUSH1 0xA0 SHL SUB AND DUP2 JUMP JUMPDEST PUSH1 0x66 SLOAD PUSH2 0x23F SWAP1 PUSH1 0x1 PUSH1 0x1 PUSH1 0xA0 SHL SUB AND DUP2 JUMP JUMPDEST PUSH2 0x26F PUSH2 0x423 CALLDATASIZE PUSH1 0x4 PUSH2 0x14D5 JUMP JUMPDEST PUSH2 0x952 JUMP JUMPDEST PUSH2 0x26F PUSH2 0x99E JUMP JUMPDEST PUSH2 0x2F7 PUSH1 0x6F SLOAD DUP2 JUMP JUMPDEST PUSH2 0x26F PUSH2 0xB62 JUMP JUMPDEST PUSH1 0x33 SLOAD PUSH1 0x1 PUSH1 0x1 PUSH1 0xA0 SHL SUB AND PUSH2 0x23F JUMP JUMPDEST PUSH2 0x396 PUSH2 0x460 CALLDATASIZE PUSH1 0x4 PUSH2 0x14D5 JUMP JUMPDEST PUSH1 0x6A PUSH1 0x20 MSTORE PUSH1 0x0 SWAP1 DUP2 MSTORE PUSH1 0x40 SWAP1 KECCAK256 SLOAD PUSH1 0xFF AND DUP2 JUMP JUMPDEST PUSH2 0x2F7 PUSH1 0x71 SLOAD DUP2 JUMP JUMPDEST PUSH2 0x26F PUSH2 0x48C CALLDATASIZE PUSH1 0x4 PUSH2 0x14D5 JUMP JUMPDEST PUSH2 0xCCD JUMP JUMPDEST PUSH2 0x26F PUSH2 0x49F CALLDATASIZE PUSH1 0x4 PUSH2 0x14F6 JUMP JUMPDEST PUSH2 0xD19 JUMP JUMPDEST PUSH2 0x26F PUSH2 0x4B2 CALLDATASIZE PUSH1 0x4 PUSH2 0x161B JUMP JUMPDEST PUSH2 0xDB8 JUMP JUMPDEST PUSH2 0x26F PUSH2 0x4C5 CALLDATASIZE PUSH1 0x4 PUSH2 0x15EB JUMP JUMPDEST PUSH2 0xDED JUMP JUMPDEST PUSH2 0x26F PUSH2 0xE1C JUMP JUMPDEST PUSH2 0x26F PUSH2 0xF92 JUMP JUMPDEST PUSH2 0x4ED PUSH2 0x4E8 CALLDATASIZE PUSH1 0x4 PUSH2 0x14D5 JUMP JUMPDEST PUSH2 0x1128 JUMP JUMPDEST PUSH1 0x40 MLOAD PUSH2 0x253 SWAP4 SWAP3 SWAP2 SWAP1 PUSH2 0x16A6 JUMP JUMPDEST PUSH2 0x2F7 PUSH1 0x73 SLOAD DUP2 JUMP JUMPDEST PUSH2 0x26F PUSH2 0x513 CALLDATASIZE PUSH1 0x4 PUSH2 0x14D5 JUMP JUMPDEST PUSH2 0x128F JUMP JUMPDEST PUSH1 0x33 SLOAD PUSH1 0x1 PUSH1 0x1 PUSH1 0xA0 SHL SUB AND CALLER EQ PUSH2 0x54B JUMPI PUSH1 0x40 MLOAD PUSH3 0x461BCD PUSH1 0xE5 SHL DUP2 MSTORE PUSH1 0x4 ADD PUSH2 0x542 SWAP1 PUSH2 0x1766 JUMP JUMPDEST PUSH1 0x40 MLOAD DUP1 SWAP2 SUB SWAP1 REVERT JUMPDEST PUSH1 0x67 DUP1 SLOAD PUSH1 0x1 PUSH1 0x1 PUSH1 0xA0 SHL SUB NOT AND PUSH1 0x1 PUSH1 0x1 PUSH1 0xA0 SHL SUB SWAP3 SWAP1 SWAP3 AND SWAP2 SWAP1 SWAP2 OR SWAP1 SSTORE JUMP JUMPDEST CALLER PUSH1 0x0 SWAP1 DUP2 MSTORE PUSH1 0x6E PUSH1 0x20 MSTORE PUSH1 0x40 SWAP1 KECCAK256 SLOAD PUSH5 0x100000000 SWAP1 DIV PUSH1 0xFF AND ISZERO PUSH2 0x5A5 JUMPI PUSH1 0x40 MLOAD PUSH3 0x461BCD PUSH1 0xE5 SHL DUP2 MSTORE PUSH1 0x4 ADD PUSH2 0x542 SWAP1 PUSH2 0x16F7 JUMP JUMPDEST PUSH1 0x66 SLOAD PUSH1 0x6F SLOAD PUSH1 0x40 MLOAD PUSH4 0x40C10F19 PUSH1 0xE0 SHL DUP2 MSTORE CALLER PUSH1 0x4 DUP3 ADD MSTORE PUSH1 0x24 DUP2 ADD SWAP2 SWAP1 SWAP2 MSTORE PUSH1 0x1 PUSH1 0x1 PUSH1 0xA0 SHL SUB SWAP1 SWAP2 AND SWAP1 PUSH4 0x40C10F19 SWAP1 PUSH1 0x44 ADD PUSH1 0x0 PUSH1 0x40 MLOAD DUP1 DUP4 SUB DUP2 PUSH1 0x0 DUP8 DUP1 EXTCODESIZE ISZERO DUP1 ISZERO PUSH2 0x5F5 JUMPI PUSH1 0x0 DUP1 REVERT JUMPDEST POP GAS CALL ISZERO DUP1 ISZERO PUSH2 0x609 JUMPI RETURNDATASIZE PUSH1 0x0 DUP1 RETURNDATACOPY RETURNDATASIZE PUSH1 0x0 REVERT JUMPDEST POP POP CALLER PUSH1 0x0 SWAP1 DUP2 MSTORE PUSH1 0x6E PUSH1 0x20 MSTORE PUSH1 0x40 DUP2 KECCAK256 DUP1 SLOAD PUSH5 0xFF00000000 NOT AND PUSH5 0x100000000 OR SWAP1 SSTORE PUSH1 0x70 SLOAD PUSH1 0x72 DUP1 SLOAD SWAP2 SWAP5 POP SWAP3 POP PUSH2 0x644 SWAP1 DUP5 SWAP1 PUSH2 0x180D JUMP JUMPDEST SWAP1 SWAP2 SSTORE POP POP PUSH1 0x40 MLOAD CALLER SWAP1 PUSH32 0x47531E0EC5C3D8102B06AE99673363F3FDF3BD8450E14B9AF37C42325DD73E3F SWAP1 PUSH1 0x0 SWAP1 LOG2 JUMP JUMPDEST PUSH1 0x33 SLOAD PUSH1 0x1 PUSH1 0x1 PUSH1 0xA0 SHL SUB AND CALLER EQ PUSH2 0x6A0 JUMPI PUSH1 0x40 MLOAD PUSH3 0x461BCD PUSH1 0xE5 SHL DUP2 MSTORE PUSH1 0x4 ADD PUSH2 0x542 SWAP1 PUSH2 0x1766 JUMP JUMPDEST PUSH1 0x68 DUP1 SLOAD PUSH1 0x1 PUSH1 0x1 PUSH1 0xA0 SHL SUB NOT AND PUSH1 0x1 PUSH1 0x1 PUSH1 0xA0 SHL SUB SWAP3 SWAP1 SWAP3 AND SWAP2 SWAP1 SWAP2 OR SWAP1 SSTORE JUMP JUMPDEST PUSH1 0x33 SLOAD PUSH1 0x1 PUSH1 0x1 PUSH1 0xA0 SHL SUB AND CALLER EQ PUSH2 0x6EC JUMPI PUSH1 0x40 MLOAD PUSH3 0x461BCD PUSH1 0xE5 SHL DUP2 MSTORE PUSH1 0x4 ADD PUSH2 0x542 SWAP1 PUSH2 0x1766 JUMP JUMPDEST PUSH1 0x65 DUP1 SLOAD PUSH1 0x1 PUSH1 0x1 PUSH1 0xA0 SHL SUB NOT AND PUSH1 0x1 PUSH1 0x1 PUSH1 0xA0 SHL SUB SWAP3 SWAP1 SWAP3 AND SWAP2 SWAP1 SWAP2 OR SWAP1 SSTORE JUMP JUMPDEST PUSH1 0x33 SLOAD PUSH1 0x1 PUSH1 0x1 PUSH1 0xA0 SHL SUB AND CALLER EQ PUSH2 0x738 JUMPI PUSH1 0x40 MLOAD PUSH3 0x461BCD PUSH1 0xE5 SHL DUP2 MSTORE PUSH1 0x4 ADD PUSH2 0x542 SWAP1 PUSH2 0x1766 JUMP JUMPDEST PUSH1 0x0 JUMPDEST DUP3 MLOAD DUP2 LT ISZERO PUSH2 0x7AD JUMPI DUP2 PUSH1 0x6A PUSH1 0x0 DUP6 DUP5 DUP2 MLOAD DUP2 LT PUSH2 0x769 JUMPI PUSH4 0x4E487B71 PUSH1 0xE0 SHL PUSH1 0x0 MSTORE PUSH1 0x32 PUSH1 0x4 MSTORE PUSH1 0x24 PUSH1 0x0 REVERT JUMPDEST PUSH1 0x20 SWAP1 DUP2 MUL SWAP2 SWAP1 SWAP2 ADD DUP2 ADD MLOAD PUSH1 0x1 PUSH1 0x1 PUSH1 0xA0 SHL SUB AND DUP3 MSTORE DUP2 ADD SWAP2 SWAP1 SWAP2 MSTORE PUSH1 0x40 ADD PUSH1 0x0 KECCAK256 DUP1 SLOAD PUSH1 0xFF NOT AND SWAP2 ISZERO ISZERO SWAP2 SWAP1 SWAP2 OR SWAP1 SSTORE DUP1 PUSH2 0x7A5 DUP2 PUSH2 0x183C JUMP JUMPDEST SWAP2 POP POP PUSH2 0x73B JUMP JUMPDEST POP POP POP JUMP JUMPDEST PUSH1 0x33 SLOAD PUSH1 0x1 PUSH1 0x1 PUSH1 0xA0 SHL SUB AND CALLER EQ PUSH2 0x7DC JUMPI PUSH1 0x40 MLOAD PUSH3 0x461BCD PUSH1 0xE5 SHL DUP2 MSTORE PUSH1 0x4 ADD PUSH2 0x542 SWAP1 PUSH2 0x1766 JUMP JUMPDEST PUSH2 0x7E6 PUSH1 0x0 PUSH2 0x1323 JUMP JUMPDEST JUMP JUMPDEST PUSH1 0x0 PUSH2 0x7F4 PUSH1 0x1 PUSH2 0x1375 JUMP JUMPDEST SWAP1 POP DUP1 ISZERO PUSH2 0x80C JUMPI PUSH1 0x0 DUP1 SLOAD PUSH2 0xFF00 NOT AND PUSH2 0x100 OR SWAP1 SSTORE JUMPDEST PUSH2 0x814 PUSH2 0x1402 JUMP JUMPDEST PUSH2 0x81C PUSH2 0x1429 JUMP JUMPDEST PUSH10 0x152D02C7E14AF6800000 PUSH1 0x6F SSTORE PUSH10 0x10F0CF064DD59200000 PUSH1 0x70 SSTORE PUSH1 0x65 DUP1 SLOAD PUSH1 0x1 PUSH1 0x1 PUSH1 0xA0 SHL SUB NOT SWAP1 DUP2 AND PUSH20 0x271E737693BE2C63E16E9AD5A83F26B95D161C7E OR SWAP1 SWAP2 SSTORE PUSH1 0x66 DUP1 SLOAD DUP3 AND PUSH20 0xB17B02C9E2E39C457E696ABB55C6D5A44A352DD4 OR SWAP1 SSTORE PUSH1 0x67 DUP1 SLOAD DUP3 AND PUSH20 0xE9BF60F2590D18F90B7218538DC90DA682FB7B01 OR SWAP1 SSTORE PUSH1 0x68 DUP1 SLOAD DUP3 AND PUSH20 0x96CB0ADE2E254C598B12179503C00B007EEB7861 OR SWAP1 SSTORE PUSH1 0x69 DUP1 SLOAD SWAP1 SWAP2 AND PUSH20 0x86AC1F6256D9DA9CB946156AEE7B5AF93E41636A OR SWAP1 SSTORE DUP1 ISZERO PUSH2 0x920 JUMPI PUSH1 0x0 DUP1 SLOAD PUSH2 0xFF00 NOT AND SWAP1 SSTORE PUSH1 0x40 MLOAD PUSH1 0x1 DUP2 MSTORE PUSH32 0x7F26B83FF96E1F2B6A682F133852F6798A09C465DA95921460CEFB3847402498 SWAP1 PUSH1 0x20 ADD PUSH1 0x40 MLOAD DUP1 SWAP2 SUB SWAP1 LOG1 JUMPDEST POP JUMP JUMPDEST PUSH1 0x33 SLOAD PUSH1 0x1 PUSH1 0x1 PUSH1 0xA0 SHL SUB AND CALLER EQ PUSH2 0x94D JUMPI PUSH1 0x40 MLOAD PUSH3 0x461BCD PUSH1 0xE5 SHL DUP2 MSTORE PUSH1 0x4 ADD PUSH2 0x542 SWAP1 PUSH2 0x1766 JUMP JUMPDEST PUSH1 0x6F SSTORE JUMP JUMPDEST PUSH1 0x33 SLOAD PUSH1 0x1 PUSH1 0x1 PUSH1 0xA0 SHL SUB AND CALLER EQ PUSH2 0x97C JUMPI PUSH1 0x40 MLOAD PUSH3 0x461BCD PUSH1 0xE5 SHL DUP2 MSTORE PUSH1 0x4 ADD PUSH2 0x542 SWAP1 PUSH2 0x1766 JUMP JUMPDEST PUSH1 0x66 DUP1 SLOAD PUSH1 0x1 PUSH1 0x1 PUSH1 0xA0 SHL SUB NOT AND PUSH1 0x1 PUSH1 0x1 PUSH1 0xA0 SHL SUB SWAP3 SWAP1 SWAP3 AND SWAP2 SWAP1 SWAP2 OR SWAP1 SSTORE JUMP JUMPDEST PUSH1 0x70 SLOAD PUSH1 0x65 SLOAD PUSH1 0x40 MLOAD PUSH4 0x70A08231 PUSH1 0xE0 SHL DUP2 MSTORE ADDRESS PUSH1 0x4 DUP3 ADD MSTORE PUSH1 0x1 PUSH1 0x1 PUSH1 0xA0 SHL SUB SWAP1 SWAP2 AND SWAP1 PUSH4 0x70A08231 SWAP1 PUSH1 0x24 ADD PUSH1 0x20 PUSH1 0x40 MLOAD DUP1 DUP4 SUB DUP2 DUP7 DUP1 EXTCODESIZE ISZERO DUP1 ISZERO PUSH2 0x9E4 JUMPI PUSH1 0x0 DUP1 REVERT JUMPDEST POP GAS STATICCALL ISZERO DUP1 ISZERO PUSH2 0x9F8 JUMPI RETURNDATASIZE PUSH1 0x0 DUP1 RETURNDATACOPY RETURNDATASIZE PUSH1 0x0 REVERT JUMPDEST POP POP POP POP PUSH1 0x40 MLOAD RETURNDATASIZE PUSH1 0x1F NOT PUSH1 0x1F DUP3 ADD AND DUP3 ADD DUP1 PUSH1 0x40 MSTORE POP DUP2 ADD SWAP1 PUSH2 0xA1C SWAP2 SWAP1 PUSH2 0x1603 JUMP JUMPDEST LT ISZERO PUSH2 0xA3A JUMPI PUSH1 0x40 MLOAD PUSH3 0x461BCD PUSH1 0xE5 SHL DUP2 MSTORE PUSH1 0x4 ADD PUSH2 0x542 SWAP1 PUSH2 0x179B JUMP JUMPDEST CALLER PUSH1 0x0 SWAP1 DUP2 MSTORE PUSH1 0x6E PUSH1 0x20 MSTORE PUSH1 0x40 SWAP1 KECCAK256 SLOAD PUSH4 0x1000000 SWAP1 DIV PUSH1 0xFF AND ISZERO PUSH2 0xA71 JUMPI PUSH1 0x40 MLOAD PUSH3 0x461BCD PUSH1 0xE5 SHL DUP2 MSTORE PUSH1 0x4 ADD PUSH2 0x542 SWAP1 PUSH2 0x16F7 JUMP JUMPDEST PUSH1 0x65 SLOAD PUSH1 0x70 SLOAD PUSH1 0x40 MLOAD PUSH4 0xA9059CBB PUSH1 0xE0 SHL DUP2 MSTORE CALLER PUSH1 0x4 DUP3 ADD MSTORE PUSH1 0x24 DUP2 ADD SWAP2 SWAP1 SWAP2 MSTORE PUSH1 0x1 PUSH1 0x1 PUSH1 0xA0 SHL SUB SWAP1 SWAP2 AND SWAP1 PUSH4 0xA9059CBB SWAP1 PUSH1 0x44 ADD PUSH1 0x20 PUSH1 0x40 MLOAD DUP1 DUP4 SUB DUP2 PUSH1 0x0 DUP8 DUP1 EXTCODESIZE ISZERO DUP1 ISZERO PUSH2 0xAC1 JUMPI PUSH1 0x0 DUP1 REVERT JUMPDEST POP GAS CALL ISZERO DUP1 ISZERO PUSH2 0xAD5 JUMPI RETURNDATASIZE PUSH1 0x0 DUP1 RETURNDATACOPY RETURNDATASIZE PUSH1 0x0 REVERT JUMPDEST POP POP POP POP PUSH1 0x40 MLOAD RETURNDATASIZE PUSH1 0x1F NOT PUSH1 0x1F DUP3 ADD AND DUP3 ADD DUP1 PUSH1 0x40 MSTORE POP DUP2 ADD SWAP1 PUSH2 0xAF9 SWAP2 SWAP1 PUSH2 0x15CF JUMP JUMPDEST POP CALLER PUSH1 0x0 SWAP1 DUP2 MSTORE PUSH1 0x6E PUSH1 0x20 MSTORE PUSH1 0x40 DUP2 KECCAK256 DUP1 SLOAD PUSH4 0xFF000000 NOT AND PUSH4 0x1000000 OR SWAP1 SSTORE PUSH1 0x70 SLOAD PUSH1 0x71 DUP1 SLOAD SWAP2 SWAP3 SWAP1 SWAP2 PUSH2 0xB30 SWAP1 DUP5 SWAP1 PUSH2 0x180D JUMP JUMPDEST SWAP1 SWAP2 SSTORE POP POP PUSH1 0x40 MLOAD CALLER SWAP1 PUSH32 0x9B0ECC34092AB6C108AD3C934901675489C617272F5445CF653F8CA720167DE7 SWAP1 PUSH1 0x0 SWAP1 LOG2 JUMP JUMPDEST CALLER PUSH1 0x0 SWAP1 DUP2 MSTORE PUSH1 0x6E PUSH1 0x20 MSTORE PUSH1 0x40 SWAP1 KECCAK256 SLOAD PUSH3 0x10000 SWAP1 DIV PUSH1 0xFF AND ISZERO PUSH2 0xB98 JUMPI PUSH1 0x40 MLOAD PUSH3 0x461BCD PUSH1 0xE5 SHL DUP2 MSTORE PUSH1 0x4 ADD PUSH2 0x542 SWAP1 PUSH2 0x16F7 JUMP JUMPDEST PUSH2 0xBA0 PUSH2 0x1459 JUMP JUMPDEST PUSH1 0x68 SLOAD PUSH1 0x40 MLOAD PUSH4 0x259C037F PUSH1 0xE1 SHL DUP2 MSTORE PUSH1 0x1 PUSH1 0x1 PUSH1 0xA0 SHL SUB SWAP1 SWAP2 AND SWAP1 PUSH4 0x4B3806FE SWAP1 PUSH2 0xBD2 SWAP1 CALLER SWAP1 DUP6 SWAP1 PUSH1 0x4 ADD PUSH2 0x1665 JUMP JUMPDEST PUSH1 0x0 PUSH1 0x40 MLOAD DUP1 DUP4 SUB DUP2 PUSH1 0x0 DUP8 DUP1 EXTCODESIZE ISZERO DUP1 ISZERO PUSH2 0xBEC JUMPI PUSH1 0x0 DUP1 REVERT JUMPDEST POP GAS CALL ISZERO DUP1 ISZERO PUSH2 0xC00 JUMPI RETURNDATASIZE PUSH1 0x0 DUP1 RETURNDATACOPY RETURNDATASIZE PUSH1 0x0 REVERT JUMPDEST POP POP PUSH1 0x68 SLOAD PUSH1 0x40 MLOAD PUSH4 0x259C037F PUSH1 0xE1 SHL DUP2 MSTORE PUSH1 0x1 PUSH1 0x1 PUSH1 0xA0 SHL SUB SWAP1 SWAP2 AND SWAP3 POP PUSH4 0x4B3806FE SWAP2 POP PUSH2 0xC36 SWAP1 CALLER SWAP1 DUP6 SWAP1 PUSH1 0x4 ADD PUSH2 0x1665 JUMP JUMPDEST PUSH1 0x0 PUSH1 0x40 MLOAD DUP1 DUP4 SUB DUP2 PUSH1 0x0 DUP8 DUP1 EXTCODESIZE ISZERO DUP1 ISZERO PUSH2 0xC50 JUMPI PUSH1 0x0 DUP1 REVERT JUMPDEST POP GAS CALL ISZERO DUP1 ISZERO PUSH2 0xC64 JUMPI RETURNDATASIZE PUSH1 0x0 DUP1 RETURNDATACOPY RETURNDATASIZE PUSH1 0x0 REVERT JUMPDEST POP POP CALLER PUSH1 0x0 SWAP1 DUP2 MSTORE PUSH1 0x6E PUSH1 0x20 MSTORE PUSH1 0x40 DUP2 KECCAK256 DUP1 SLOAD PUSH3 0xFF0000 NOT AND PUSH3 0x10000 OR SWAP1 SSTORE PUSH1 0x73 DUP1 SLOAD PUSH1 0x2 SWAP5 POP SWAP1 SWAP3 POP PUSH2 0xC9A SWAP1 DUP5 SWAP1 PUSH2 0x180D JUMP JUMPDEST SWAP1 SWAP2 SSTORE POP POP PUSH1 0x40 MLOAD CALLER SWAP1 PUSH32 0xBA53510B067CAA700875DBC5C5D976EDA59495260CC968392D95A707A72E95C5 SWAP1 PUSH1 0x0 SWAP1 LOG2 POP JUMP JUMPDEST PUSH1 0x33 SLOAD PUSH1 0x1 PUSH1 0x1 PUSH1 0xA0 SHL SUB AND CALLER EQ PUSH2 0xCF7 JUMPI PUSH1 0x40 MLOAD PUSH3 0x461BCD PUSH1 0xE5 SHL DUP2 MSTORE PUSH1 0x4 ADD PUSH2 0x542 SWAP1 PUSH2 0x1766 JUMP JUMPDEST PUSH1 0x69 DUP1 SLOAD PUSH1 0x1 PUSH1 0x1 PUSH1 0xA0 SHL SUB NOT AND PUSH1 0x1 PUSH1 0x1 PUSH1 0xA0 SHL SUB SWAP3 SWAP1 SWAP3 AND SWAP2 SWAP1 SWAP2 OR SWAP1 SSTORE JUMP JUMPDEST PUSH1 0x33 SLOAD PUSH1 0x1 PUSH1 0x1 PUSH1 0xA0 SHL SUB AND CALLER EQ PUSH2 0xD43 JUMPI PUSH1 0x40 MLOAD PUSH3 0x461BCD PUSH1 0xE5 SHL DUP2 MSTORE PUSH1 0x4 ADD PUSH2 0x542 SWAP1 PUSH2 0x1766 JUMP JUMPDEST PUSH1 0x0 JUMPDEST DUP3 MLOAD DUP2 LT ISZERO PUSH2 0x7AD JUMPI DUP2 PUSH1 0x6B PUSH1 0x0 DUP6 DUP5 DUP2 MLOAD DUP2 LT PUSH2 0xD74 JUMPI PUSH4 0x4E487B71 PUSH1 0xE0 SHL PUSH1 0x0 MSTORE PUSH1 0x32 PUSH1 0x4 MSTORE PUSH1 0x24 PUSH1 0x0 REVERT JUMPDEST PUSH1 0x20 SWAP1 DUP2 MUL SWAP2 SWAP1 SWAP2 ADD DUP2 ADD MLOAD PUSH1 0x1 PUSH1 0x1 PUSH1 0xA0 SHL SUB AND DUP3 MSTORE DUP2 ADD SWAP2 SWAP1 SWAP2 MSTORE PUSH1 0x40 ADD PUSH1 0x0 KECCAK256 DUP1 SLOAD PUSH1 0xFF NOT AND SWAP2 ISZERO ISZERO SWAP2 SWAP1 SWAP2 OR SWAP1 SSTORE DUP1 PUSH2 0xDB0 DUP2 PUSH2 0x183C JUMP JUMPDEST SWAP2 POP POP PUSH2 0xD46 JUMP JUMPDEST PUSH1 0x33 SLOAD PUSH1 0x1 PUSH1 0x1 PUSH1 0xA0 SHL SUB AND CALLER EQ PUSH2 0xDE2 JUMPI PUSH1 0x40 MLOAD PUSH3 0x461BCD PUSH1 0xE5 SHL DUP2 MSTORE PUSH1 0x4 ADD PUSH2 0x542 SWAP1 PUSH2 0x1766 JUMP JUMPDEST PUSH1 0x6D SWAP2 SWAP1 SWAP2 SSTORE PUSH1 0x6C SSTORE JUMP JUMPDEST PUSH1 0x33 SLOAD PUSH1 0x1 PUSH1 0x1 PUSH1 0xA0 SHL SUB AND CALLER EQ PUSH2 0xE17 JUMPI PUSH1 0x40 MLOAD PUSH3 0x461BCD PUSH1 0xE5 SHL DUP2 MSTORE PUSH1 0x4 ADD PUSH2 0x542 SWAP1 PUSH2 0x1766 JUMP JUMPDEST PUSH1 0x70 SSTORE JUMP JUMPDEST PUSH1 0x0 PUSH1 0x6D SLOAD GT PUSH2 0xE3E JUMPI PUSH1 0x40 MLOAD PUSH3 0x461BCD PUSH1 0xE5 SHL DUP2 MSTORE PUSH1 0x4 ADD PUSH2 0x542 SWAP1 PUSH2 0x179B JUMP JUMPDEST CALLER PUSH1 0x0 SWAP1 DUP2 MSTORE PUSH1 0x6B PUSH1 0x20 MSTORE PUSH1 0x40 SWAP1 KECCAK256 SLOAD PUSH1 0xFF AND PUSH2 0xE8E JUMPI PUSH1 0x40 MLOAD PUSH3 0x461BCD PUSH1 0xE5 SHL DUP2 MSTORE PUSH1 0x20 PUSH1 0x4 DUP3 ADD MSTORE PUSH1 0xE PUSH1 0x24 DUP3 ADD MSTORE PUSH14 0x1B9BDD081DDA1A5D19481B1A5CDD PUSH1 0x92 SHL PUSH1 0x44 DUP3 ADD MSTORE PUSH1 0x64 ADD PUSH2 0x542 JUMP JUMPDEST CALLER PUSH1 0x0 SWAP1 DUP2 MSTORE PUSH1 0x6E PUSH1 0x20 MSTORE PUSH1 0x40 SWAP1 KECCAK256 SLOAD PUSH2 0x100 SWAP1 DIV PUSH1 0xFF AND ISZERO PUSH2 0xEC3 JUMPI PUSH1 0x40 MLOAD PUSH3 0x461BCD PUSH1 0xE5 SHL DUP2 MSTORE PUSH1 0x4 ADD PUSH2 0x542 SWAP1 PUSH2 0x16F7 JUMP JUMPDEST PUSH1 0x67 SLOAD PUSH1 0x40 MLOAD PUSH4 0x35313C21 PUSH1 0xE1 SHL DUP2 MSTORE CALLER PUSH1 0x4 DUP3 ADD MSTORE PUSH1 0x1 PUSH1 0x1 PUSH1 0xA0 SHL SUB SWAP1 SWAP2 AND SWAP1 PUSH4 0x6A627842 SWAP1 PUSH1 0x24 ADD PUSH1 0x0 PUSH1 0x40 MLOAD DUP1 DUP4 SUB DUP2 PUSH1 0x0 DUP8 DUP1 EXTCODESIZE ISZERO DUP1 ISZERO PUSH2 0xF08 JUMPI PUSH1 0x0 DUP1 REVERT JUMPDEST POP GAS CALL ISZERO DUP1 ISZERO PUSH2 0xF1C JUMPI RETURNDATASIZE PUSH1 0x0 DUP1 RETURNDATACOPY RETURNDATASIZE PUSH1 0x0 REVERT JUMPDEST POP POP CALLER PUSH1 0x0 SWAP1 DUP2 MSTORE PUSH1 0x6E PUSH1 0x20 MSTORE PUSH1 0x40 DUP2 KECCAK256 DUP1 SLOAD PUSH2 0xFF00 NOT AND PUSH2 0x100 OR SWAP1 SSTORE PUSH1 0x75 DUP1 SLOAD SWAP4 POP SWAP2 POP PUSH2 0xF4B DUP4 PUSH2 0x183C JUMP JUMPDEST SWAP1 SWAP2 SSTORE POP POP PUSH1 0x6D DUP1 SLOAD SWAP1 PUSH1 0x0 PUSH2 0xF60 DUP4 PUSH2 0x1825 JUMP JUMPDEST SWAP1 SWAP2 SSTORE POP POP PUSH1 0x40 MLOAD CALLER SWAP1 PUSH32 0xC587E333E20A8232D4E04D3B4F6564DDFAB95990A21B61FEF34DE3B1E9C7FE2C SWAP1 PUSH1 0x0 SWAP1 LOG2 JUMP JUMPDEST PUSH1 0x0 PUSH1 0x6C SLOAD GT PUSH2 0xFB4 JUMPI PUSH1 0x40 MLOAD PUSH3 0x461BCD PUSH1 0xE5 SHL DUP2 MSTORE PUSH1 0x4 ADD PUSH2 0x542 SWAP1 PUSH2 0x179B JUMP JUMPDEST CALLER PUSH1 0x0 SWAP1 DUP2 MSTORE PUSH1 0x6A PUSH1 0x20 MSTORE PUSH1 0x40 SWAP1 KECCAK256 SLOAD PUSH1 0xFF AND PUSH2 0x1004 JUMPI PUSH1 0x40 MLOAD PUSH3 0x461BCD PUSH1 0xE5 SHL DUP2 MSTORE PUSH1 0x20 PUSH1 0x4 DUP3 ADD MSTORE PUSH1 0xE PUSH1 0x24 DUP3 ADD MSTORE PUSH14 0x1B9BDD081DDA1A5D19481B1A5CDD PUSH1 0x92 SHL PUSH1 0x44 DUP3 ADD MSTORE PUSH1 0x64 ADD PUSH2 0x542 JUMP JUMPDEST CALLER PUSH1 0x0 SWAP1 DUP2 MSTORE PUSH1 0x6E PUSH1 0x20 MSTORE PUSH1 0x40 SWAP1 KECCAK256 SLOAD PUSH1 0xFF AND ISZERO PUSH2 0x1034 JUMPI PUSH1 0x40 MLOAD PUSH3 0x461BCD PUSH1 0xE5 SHL DUP2 MSTORE PUSH1 0x4 ADD PUSH2 0x542 SWAP1 PUSH2 0x16F7 JUMP JUMPDEST PUSH1 0x69 SLOAD PUSH1 0x40 MLOAD PUSH4 0x40C10F19 PUSH1 0xE0 SHL DUP2 MSTORE CALLER PUSH1 0x4 DUP3 ADD MSTORE PUSH1 0x1 PUSH1 0x24 DUP3 ADD MSTORE PUSH1 0x1 PUSH1 0x1 PUSH1 0xA0 SHL SUB SWAP1 SWAP2 AND SWAP1 PUSH4 0x40C10F19 SWAP1 PUSH1 0x44 ADD PUSH1 0x20 PUSH1 0x40 MLOAD DUP1 DUP4 SUB DUP2 PUSH1 0x0 DUP8 DUP1 EXTCODESIZE ISZERO DUP1 ISZERO PUSH2 0x1080 JUMPI PUSH1 0x0 DUP1 REVERT JUMPDEST POP GAS CALL ISZERO DUP1 ISZERO PUSH2 0x1094 JUMPI RETURNDATASIZE PUSH1 0x0 DUP1 RETURNDATACOPY RETURNDATASIZE PUSH1 0x0 REVERT JUMPDEST POP POP POP POP PUSH1 0x40 MLOAD RETURNDATASIZE PUSH1 0x1F NOT PUSH1 0x1F DUP3 ADD AND DUP3 ADD DUP1 PUSH1 0x40 MSTORE POP DUP2 ADD SWAP1 PUSH2 0x10B8 SWAP2 SWAP1 PUSH2 0x1603 JUMP JUMPDEST POP CALLER PUSH1 0x0 SWAP1 DUP2 MSTORE PUSH1 0x6E PUSH1 0x20 MSTORE PUSH1 0x40 DUP2 KECCAK256 DUP1 SLOAD PUSH1 0xFF NOT AND PUSH1 0x1 OR SWAP1 SSTORE PUSH1 0x6C DUP1 SLOAD SWAP2 PUSH2 0x10E1 DUP4 PUSH2 0x1825 JUMP JUMPDEST SWAP1 SWAP2 SSTORE POP POP PUSH1 0x74 DUP1 SLOAD SWAP1 PUSH1 0x0 PUSH2 0x10F6 DUP4 PUSH2 0x183C JUMP JUMPDEST SWAP1 SWAP2 SSTORE POP POP PUSH1 0x40 MLOAD CALLER SWAP1 PUSH32 0xCF9D5EE7D69CC14DBCB3989E253709787965B7EA1AAA1D51ED6FB320DBFA3684 SWAP1 PUSH1 0x0 SWAP1 LOG2 JUMP JUMPDEST PUSH2 0x1130 PUSH2 0x1477 JUMP JUMPDEST PUSH2 0x1138 PUSH2 0x1495 JUMP JUMPDEST PUSH2 0x1140 PUSH2 0x1495 JUMP JUMPDEST PUSH1 0x1 PUSH1 0x1 PUSH1 0xA0 SHL SUB DUP5 DUP2 AND PUSH1 0x0 DUP2 DUP2 MSTORE PUSH1 0x6E PUSH1 0x20 SWAP1 DUP2 MSTORE PUSH1 0x40 DUP1 DUP4 KECCAK256 SLOAD PUSH1 0xFF PUSH3 0x10000 DUP3 DIV DUP2 AND ISZERO ISZERO DUP11 MSTORE PUSH2 0x100 DUP3 DIV DUP2 AND ISZERO ISZERO DUP11 DUP6 ADD MSTORE PUSH5 0x100000000 DUP3 DIV DUP2 AND ISZERO ISZERO DUP11 DUP5 ADD MSTORE PUSH4 0x1000000 DUP3 DIV DUP2 AND ISZERO ISZERO PUSH1 0x60 DUP1 DUP13 ADD SWAP2 SWAP1 SWAP2 MSTORE SWAP2 DUP2 AND ISZERO ISZERO PUSH1 0x80 DUP12 ADD MSTORE DUP6 DUP6 MSTORE PUSH1 0x6B DUP5 MSTORE DUP3 DUP6 KECCAK256 SLOAD DUP2 AND ISZERO ISZERO PUSH1 0xA0 DUP12 ADD MSTORE SWAP5 DUP5 MSTORE PUSH1 0x6A DUP4 MSTORE SWAP3 DUP2 SWAP1 KECCAK256 SLOAD SWAP1 SWAP4 AND ISZERO ISZERO PUSH1 0xC0 DUP9 ADD MSTORE PUSH1 0x6C SLOAD DUP7 MSTORE PUSH1 0x6D SLOAD SWAP1 DUP7 ADD MSTORE PUSH1 0x6F SLOAD DUP6 DUP4 ADD MSTORE PUSH1 0x70 SLOAD SWAP1 DUP6 ADD MSTORE PUSH1 0x65 SLOAD SWAP1 MLOAD PUSH4 0x70A08231 PUSH1 0xE0 SHL DUP2 MSTORE ADDRESS PUSH1 0x4 DUP3 ADD MSTORE SWAP2 AND SWAP1 PUSH4 0x70A08231 SWAP1 PUSH1 0x24 ADD PUSH1 0x20 PUSH1 0x40 MLOAD DUP1 DUP4 SUB DUP2 DUP7 DUP1 EXTCODESIZE ISZERO DUP1 ISZERO PUSH2 0x1223 JUMPI PUSH1 0x0 DUP1 REVERT JUMPDEST POP GAS STATICCALL ISZERO DUP1 ISZERO PUSH2 0x1237 JUMPI RETURNDATASIZE PUSH1 0x0 DUP1 RETURNDATACOPY RETURNDATASIZE PUSH1 0x0 REVERT JUMPDEST POP POP POP POP PUSH1 0x40 MLOAD RETURNDATASIZE PUSH1 0x1F NOT PUSH1 0x1F DUP3 ADD AND DUP3 ADD DUP1 PUSH1 0x40 MSTORE POP DUP2 ADD SWAP1 PUSH2 0x125B SWAP2 SWAP1 PUSH2 0x1603 JUMP JUMPDEST PUSH1 0x80 DUP1 DUP5 ADD SWAP2 SWAP1 SWAP2 MSTORE PUSH1 0x71 SLOAD DUP3 MSTORE PUSH1 0x72 SLOAD PUSH1 0x20 DUP4 ADD MSTORE PUSH1 0x73 SLOAD PUSH1 0x40 DUP4 ADD MSTORE PUSH1 0x74 SLOAD PUSH1 0x60 DUP4 ADD MSTORE PUSH1 0x75 SLOAD SWAP1 DUP3 ADD MSTORE SWAP2 SWAP4 SWAP1 SWAP3 POP JUMP JUMPDEST PUSH1 0x33 SLOAD PUSH1 0x1 PUSH1 0x1 PUSH1 0xA0 SHL SUB AND CALLER EQ PUSH2 0x12B9 JUMPI PUSH1 0x40 MLOAD PUSH3 0x461BCD PUSH1 0xE5 SHL DUP2 MSTORE PUSH1 0x4 ADD PUSH2 0x542 SWAP1 PUSH2 0x1766 JUMP JUMPDEST PUSH1 0x1 PUSH1 0x1 PUSH1 0xA0 SHL SUB DUP2 AND PUSH2 0x131E JUMPI PUSH1 0x40 MLOAD PUSH3 0x461BCD PUSH1 0xE5 SHL DUP2 MSTORE PUSH1 0x20 PUSH1 0x4 DUP3 ADD MSTORE PUSH1 0x26 PUSH1 0x24 DUP3 ADD MSTORE PUSH32 0x4F776E61626C653A206E6577206F776E657220697320746865207A65726F2061 PUSH1 0x44 DUP3 ADD MSTORE PUSH6 0x646472657373 PUSH1 0xD0 SHL PUSH1 0x64 DUP3 ADD MSTORE PUSH1 0x84 ADD PUSH2 0x542 JUMP JUMPDEST PUSH2 0x920 DUP2 JUMPDEST PUSH1 0x33 DUP1 SLOAD PUSH1 0x1 PUSH1 0x1 PUSH1 0xA0 SHL SUB DUP4 DUP2 AND PUSH1 0x1 PUSH1 0x1 PUSH1 0xA0 SHL SUB NOT DUP4 AND DUP2 OR SWAP1 SWAP4 SSTORE PUSH1 0x40 MLOAD SWAP2 AND SWAP2 SWAP1 DUP3 SWAP1 PUSH32 0x8BE0079C531659141344CD1FD0A4F28419497F9722A3DAAFE3B4186F6B6457E0 SWAP1 PUSH1 0x0 SWAP1 LOG3 POP POP JUMP JUMPDEST PUSH1 0x0 DUP1 SLOAD PUSH2 0x100 SWAP1 DIV PUSH1 0xFF AND ISZERO PUSH2 0x13BC JUMPI DUP2 PUSH1 0xFF AND PUSH1 0x1 EQ DUP1 ISZERO PUSH2 0x1398 JUMPI POP ADDRESS EXTCODESIZE ISZERO JUMPDEST PUSH2 0x13B4 JUMPI PUSH1 0x40 MLOAD PUSH3 0x461BCD PUSH1 0xE5 SHL DUP2 MSTORE PUSH1 0x4 ADD PUSH2 0x542 SWAP1 PUSH2 0x1718 JUMP JUMPDEST POP PUSH1 0x0 SWAP2 SWAP1 POP JUMP JUMPDEST PUSH1 0x0 SLOAD PUSH1 0xFF DUP1 DUP5 AND SWAP2 AND LT PUSH2 0x13E3 JUMPI PUSH1 0x40 MLOAD PUSH3 0x461BCD PUSH1 0xE5 SHL DUP2 MSTORE PUSH1 0x4 ADD PUSH2 0x542 SWAP1 PUSH2 0x1718 JUMP JUMPDEST POP PUSH1 0x0 DUP1 SLOAD PUSH1 0xFF NOT AND PUSH1 0xFF SWAP3 SWAP1 SWAP3 AND SWAP2 SWAP1 SWAP2 OR SWAP1 SSTORE PUSH1 0x1 SWAP1 JUMP JUMPDEST SWAP2 SWAP1 POP JUMP JUMPDEST PUSH1 0x0 SLOAD PUSH2 0x100 SWAP1 DIV PUSH1 0xFF AND PUSH2 0x7E6 JUMPI PUSH1 0x40 MLOAD PUSH3 0x461BCD PUSH1 0xE5 SHL DUP2 MSTORE PUSH1 0x4 ADD PUSH2 0x542 SWAP1 PUSH2 0x17C2 JUMP JUMPDEST PUSH1 0x0 SLOAD PUSH2 0x100 SWAP1 DIV PUSH1 0xFF AND PUSH2 0x1450 JUMPI PUSH1 0x40 MLOAD PUSH3 0x461BCD PUSH1 0xE5 SHL DUP2 MSTORE PUSH1 0x4 ADD PUSH2 0x542 SWAP1 PUSH2 0x17C2 JUMP JUMPDEST PUSH2 0x7E6 CALLER PUSH2 0x1323 JUMP JUMPDEST PUSH1 0x40 MLOAD DUP1 PUSH1 0x40 ADD PUSH1 0x40 MSTORE DUP1 PUSH1 0x2 SWAP1 PUSH1 0x20 DUP3 MUL DUP1 CALLDATASIZE DUP4 CALLDATACOPY POP SWAP2 SWAP3 SWAP2 POP POP JUMP JUMPDEST PUSH1 0x40 MLOAD DUP1 PUSH1 0xE0 ADD PUSH1 0x40 MSTORE DUP1 PUSH1 0x7 SWAP1 PUSH1 0x20 DUP3 MUL DUP1 CALLDATASIZE DUP4 CALLDATACOPY POP SWAP2 SWAP3 SWAP2 POP POP JUMP JUMPDEST PUSH1 0x40 MLOAD DUP1 PUSH1 0xA0 ADD PUSH1 0x40 MSTORE DUP1 PUSH1 0x5 SWAP1 PUSH1 0x20 DUP3 MUL DUP1 CALLDATASIZE DUP4 CALLDATACOPY POP SWAP2 SWAP3 SWAP2 POP POP JUMP JUMPDEST DUP1 CALLDATALOAD PUSH1 0x1 PUSH1 0x1 PUSH1 0xA0 SHL SUB DUP2 AND DUP2 EQ PUSH2 0x13FD JUMPI PUSH1 0x0 DUP1 REVERT JUMPDEST DUP1 CALLDATALOAD PUSH2 0x13FD DUP2 PUSH2 0x1883 JUMP JUMPDEST PUSH1 0x0 PUSH1 0x20 DUP3 DUP5 SUB SLT ISZERO PUSH2 0x14E6 JUMPI DUP1 DUP2 REVERT JUMPDEST PUSH2 0x14EF DUP3 PUSH2 0x14B3 JUMP JUMPDEST SWAP4 SWAP3 POP POP POP JUMP JUMPDEST PUSH1 0x0 DUP1 PUSH1 0x40 DUP4 DUP6 SUB SLT ISZERO PUSH2 0x1508 JUMPI DUP1 DUP2 REVERT JUMPDEST DUP3 CALLDATALOAD PUSH8 0xFFFFFFFFFFFFFFFF DUP1 DUP3 GT ISZERO PUSH2 0x151F JUMPI DUP3 DUP4 REVERT JUMPDEST DUP2 DUP6 ADD SWAP2 POP DUP6 PUSH1 0x1F DUP4 ADD SLT PUSH2 0x1532 JUMPI DUP3 DUP4 REVERT JUMPDEST DUP2 CALLDATALOAD PUSH1 0x20 DUP3 DUP3 GT ISZERO PUSH2 0x1546 JUMPI PUSH2 0x1546 PUSH2 0x186D JUMP JUMPDEST DUP2 PUSH1 0x5 SHL PUSH1 0x40 MLOAD PUSH1 0x1F NOT PUSH1 0x3F DUP4 ADD AND DUP2 ADD DUP2 DUP2 LT DUP7 DUP3 GT OR ISZERO PUSH2 0x156B JUMPI PUSH2 0x156B PUSH2 0x186D JUMP JUMPDEST PUSH1 0x40 MSTORE DUP4 DUP2 MSTORE DUP3 DUP2 ADD SWAP5 POP DUP6 DUP4 ADD DUP3 DUP8 ADD DUP5 ADD DUP12 LT ISZERO PUSH2 0x1589 JUMPI DUP8 DUP9 REVERT JUMPDEST DUP8 SWAP7 POP JUMPDEST DUP5 DUP8 LT ISZERO PUSH2 0x15B2 JUMPI PUSH2 0x159E DUP2 PUSH2 0x14B3 JUMP JUMPDEST DUP7 MSTORE PUSH1 0x1 SWAP7 SWAP1 SWAP7 ADD SWAP6 SWAP5 DUP4 ADD SWAP5 DUP4 ADD PUSH2 0x158D JUMP JUMPDEST POP SWAP7 POP PUSH2 0x15C2 SWAP1 POP DUP8 DUP3 ADD PUSH2 0x14CA JUMP JUMPDEST SWAP5 POP POP POP POP POP SWAP3 POP SWAP3 SWAP1 POP JUMP JUMPDEST PUSH1 0x0 PUSH1 0x20 DUP3 DUP5 SUB SLT ISZERO PUSH2 0x15E0 JUMPI DUP1 DUP2 REVERT JUMPDEST DUP2 MLOAD PUSH2 0x14EF DUP2 PUSH2 0x1883 JUMP JUMPDEST PUSH1 0x0 PUSH1 0x20 DUP3 DUP5 SUB SLT ISZERO PUSH2 0x15FC JUMPI DUP1 DUP2 REVERT JUMPDEST POP CALLDATALOAD SWAP2 SWAP1 POP JUMP JUMPDEST PUSH1 0x0 PUSH1 0x20 DUP3 DUP5 SUB SLT ISZERO PUSH2 0x1614 JUMPI DUP1 DUP2 REVERT JUMPDEST POP MLOAD SWAP2 SWAP1 POP JUMP JUMPDEST PUSH1 0x0 DUP1 PUSH1 0x40 DUP4 DUP6 SUB SLT ISZERO PUSH2 0x162D JUMPI DUP2 DUP3 REVERT JUMPDEST POP POP DUP1 CALLDATALOAD SWAP3 PUSH1 0x20 SWAP1 SWAP2 ADD CALLDATALOAD SWAP2 POP JUMP JUMPDEST DUP1 PUSH1 0x0 JUMPDEST PUSH1 0x5 DUP2 LT ISZERO PUSH2 0x165F JUMPI DUP2 MLOAD DUP5 MSTORE PUSH1 0x20 SWAP4 DUP5 ADD SWAP4 SWAP1 SWAP2 ADD SWAP1 PUSH1 0x1 ADD PUSH2 0x1640 JUMP JUMPDEST POP POP POP POP JUMP JUMPDEST PUSH1 0x1 PUSH1 0x1 PUSH1 0xA0 SHL SUB DUP4 AND DUP2 MSTORE PUSH1 0x60 DUP2 ADD PUSH1 0x20 DUP1 DUP4 ADD DUP5 PUSH1 0x0 JUMPDEST PUSH1 0x2 DUP2 LT ISZERO PUSH2 0x169B JUMPI DUP2 MLOAD DUP4 MSTORE SWAP2 DUP4 ADD SWAP2 SWAP1 DUP4 ADD SWAP1 PUSH1 0x1 ADD PUSH2 0x167E JUMP JUMPDEST POP POP POP POP SWAP4 SWAP3 POP POP POP JUMP JUMPDEST PUSH2 0x220 DUP2 ADD DUP2 DUP6 PUSH1 0x0 JUMPDEST PUSH1 0x7 DUP2 LT ISZERO PUSH2 0x16D1 JUMPI DUP2 MLOAD ISZERO ISZERO DUP4 MSTORE PUSH1 0x20 SWAP3 DUP4 ADD SWAP3 SWAP1 SWAP2 ADD SWAP1 PUSH1 0x1 ADD PUSH2 0x16B0 JUMP JUMPDEST POP POP POP PUSH2 0x16E1 PUSH1 0xE0 DUP4 ADD DUP6 PUSH2 0x163C JUMP JUMPDEST PUSH2 0x16EF PUSH2 0x180 DUP4 ADD DUP5 PUSH2 0x163C JUMP JUMPDEST SWAP5 SWAP4 POP POP POP POP JUMP JUMPDEST PUSH1 0x20 DUP1 DUP3 MSTORE PUSH1 0x7 SWAP1 DUP3 ADD MSTORE PUSH7 0x18DB185A5B5959 PUSH1 0xCA SHL PUSH1 0x40 DUP3 ADD MSTORE PUSH1 0x60 ADD SWAP1 JUMP JUMPDEST PUSH1 0x20 DUP1 DUP3 MSTORE PUSH1 0x2E SWAP1 DUP3 ADD MSTORE PUSH32 0x496E697469616C697A61626C653A20636F6E747261637420697320616C726561 PUSH1 0x40 DUP3 ADD MSTORE PUSH14 0x191E481A5B9A5D1A585B1A5E9959 PUSH1 0x92 SHL PUSH1 0x60 DUP3 ADD MSTORE PUSH1 0x80 ADD SWAP1 JUMP JUMPDEST PUSH1 0x20 DUP1 DUP3 MSTORE DUP2 DUP2 ADD MSTORE PUSH32 0x4F776E61626C653A2063616C6C6572206973206E6F7420746865206F776E6572 PUSH1 0x40 DUP3 ADD MSTORE PUSH1 0x60 ADD SWAP1 JUMP JUMPDEST PUSH1 0x20 DUP1 DUP3 MSTORE PUSH1 0xD SWAP1 DUP3 ADD MSTORE PUSH13 0x1BDD5D081BD988185B5BDD5B9D PUSH1 0x9A SHL PUSH1 0x40 DUP3 ADD MSTORE PUSH1 0x60 ADD SWAP1 JUMP JUMPDEST PUSH1 0x20 DUP1 DUP3 MSTORE PUSH1 0x2B SWAP1 DUP3 ADD MSTORE PUSH32 0x496E697469616C697A61626C653A20636F6E7472616374206973206E6F742069 PUSH1 0x40 DUP3 ADD MSTORE PUSH11 0x6E697469616C697A696E67 PUSH1 0xA8 SHL PUSH1 0x60 DUP3 ADD MSTORE PUSH1 0x80 ADD SWAP1 JUMP JUMPDEST PUSH1 0x0 DUP3 NOT DUP3 GT ISZERO PUSH2 0x1820 JUMPI PUSH2 0x1820 PUSH2 0x1857 JUMP JUMPDEST POP ADD SWAP1 JUMP JUMPDEST PUSH1 0x0 DUP2 PUSH2 0x1834 JUMPI PUSH2 0x1834 PUSH2 0x1857 JUMP JUMPDEST POP PUSH1 0x0 NOT ADD SWAP1 JUMP JUMPDEST PUSH1 0x0 PUSH1 0x0 NOT DUP3 EQ ISZERO PUSH2 0x1850 JUMPI PUSH2 0x1850 PUSH2 0x1857 JUMP JUMPDEST POP PUSH1 0x1 ADD SWAP1 JUMP JUMPDEST PUSH4 0x4E487B71 PUSH1 0xE0 SHL PUSH1 0x0 MSTORE PUSH1 0x11 PUSH1 0x4 MSTORE PUSH1 0x24 PUSH1 0x0 REVERT JUMPDEST PUSH4 0x4E487B71 PUSH1 0xE0 SHL PUSH1 0x0 MSTORE PUSH1 0x41 PUSH1 0x4 MSTORE PUSH1 0x24 PUSH1 0x0 REVERT JUMPDEST DUP1 ISZERO ISZERO DUP2 EQ PUSH2 0x920 JUMPI PUSH1 0x0 DUP1 REVERT INVALID LOG2 PUSH5 0x6970667358 0x22 SLT KECCAK256 REVERT 0xA9 JUMP PUSH8 0x132F5C6BFF1A33B DUP6 CALLVALUE SWAP16 0xB1 MSTORE 0xDB ADD 0xC5 EXP DUP6 0xFC DUP16 0xE4 0xCF CALLVALUE EXTCODESIZE 0xCD 0x48 SAR 0xC6 PUSH5 0x736F6C6343 STOP ADDMOD DIV STOP CALLER "
		},
		"gasEstimates": {
			"creation": {
				"codeDepositCost": "1268600",
				"executionCost": "1322",
				"totalCost": "1269922"
			},
			"external": {
				"BVG()": "1116",
				"BVT()": "1116",
				"addCattleWhite(address[],bool)": "infinite",
				"addPlanetWhite(address[],bool)": "infinite",
				"box()": "1137",
				"boxClaimedAmount()": "1105",
				"bvgClaimAmount()": "1062",
				"bvgClaimedAmount()": "1108",
				"bvtClaimAmount()": "1107",
				"bvtClaimedAmount()": "1040",
				"cattle()": "1073",
				"cattleAmount()": "1085",
				"cattleClaimedAmount()": "1129",
				"cattleWhite(address)": "1276",
				"checkInfo(address)": "infinite",
				"claimBVG()": "infinite",
				"claimBVT()": "infinite",
				"claimBox()": "infinite",
				"claimCattle()": "infinite",
				"claimPlanet()": "infinite",
				"initialize()": "infinite",
				"owner()": "1131",
				"planet()": "1094",
				"planetAmount()": "1063",
				"planetClaimedAmount()": "1063",
				"planetWhite(address)": "1364",
				"renounceOwnership()": "23506",
				"setAmount(uint256,uint256)": "41210",
				"setBVG(address)": "22123",
				"setBVT(address)": "22123",
				"setBox(address)": "22057",
				"setBvgClaimAmount(uint256)": "21110",
				"setBvtClaimAmount(uint256)": "21197",
				"setCattle(address)": "22080",
				"setPlanet(address)": "22078",
				"transferOwnership(address)": "23733",
				"userInfo(address)": "1513"
			}
		},
		"methodIdentifiers": {
			"BVG()": "87464389",
			"BVT()": "5f24b4a4",
			"addCattleWhite(address[],bool)": "c101e0dc",
			"addPlanetWhite(address[],bool)": "6e02bdcd",
			"box()": "754215a1",
			"boxClaimedAmount()": "e5d59e80",
			"bvgClaimAmount()": "8a8f6729",
			"bvgClaimedAmount()": "1e2a41ae",
			"bvtClaimAmount()": "32ec46ce",
			"bvtClaimedAmount()": "abb9bb05",
			"cattle()": "01c211c7",
			"cattleAmount()": "21edc294",
			"cattleClaimedAmount()": "49ea7fe0",
			"cattleWhite(address)": "6300ce49",
			"checkInfo(address)": "e0c86c46",
			"claimBVG()": "1f211227",
			"claimBVT()": "8a8dd6d3",
			"claimBox()": "8bcaff1a",
			"claimCattle()": "d0361fee",
			"claimPlanet()": "dfc69c14",
			"initialize()": "8129fc1c",
			"owner()": "8da5cb5b",
			"planet()": "8443bea6",
			"planetAmount()": "55594b51",
			"planetClaimedAmount()": "21032a02",
			"planetWhite(address)": "9dae5fd0",
			"renounceOwnership()": "715018a6",
			"setAmount(uint256,uint256)": "c6a023e9",
			"setBVG(address)": "88e14d9c",
			"setBVT(address)": "61757a9a",
			"setBox(address)": "537627ab",
			"setBvgClaimAmount(uint256)": "820074be",
			"setBvtClaimAmount(uint256)": "caa44688",
			"setCattle(address)": "0de307fe",
			"setPlanet(address)": "ad911387",
			"transferOwnership(address)": "f2fde38b",
			"userInfo(address)": "1959a002"
		}
	},
	"abi": [
		{
			"anonymous": false,
			"inputs": [
				{
					"indexed": true,
					"internalType": "address",
					"name": "addr",
					"type": "address"
				}
			],
			"name": "ClaimBVG",
			"type": "event"
		},
		{
			"anonymous": false,
			"inputs": [
				{
					"indexed": true,
					"internalType": "address",
					"name": "addr",
					"type": "address"
				}
			],
			"name": "ClaimBVT",
			"type": "event"
		},
		{
			"anonymous": false,
			"inputs": [
				{
					"indexed": true,
					"internalType": "address",
					"name": "addr",
					"type": "address"
				}
			],
			"name": "ClaimBox",
			"type": "event"
		},
		{
			"anonymous": false,
			"inputs": [
				{
					"indexed": true,
					"internalType": "address",
					"name": "addr",
					"type": "address"
				}
			],
			"name": "ClaimCattle",
			"type": "event"
		},
		{
			"anonymous": false,
			"inputs": [
				{
					"indexed": true,
					"internalType": "address",
					"name": "addr",
					"type": "address"
				}
			],
			"name": "ClaimPlanet",
			"type": "event"
		},
		{
			"anonymous": false,
			"inputs": [
				{
					"indexed": false,
					"internalType": "uint8",
					"name": "version",
					"type": "uint8"
				}
			],
			"name": "Initialized",
			"type": "event"
		},
		{
			"anonymous": false,
			"inputs": [
				{
					"indexed": true,
					"internalType": "address",
					"name": "previousOwner",
					"type": "address"
				},
				{
					"indexed": true,
					"internalType": "address",
					"name": "newOwner",
					"type": "address"
				}
			],
			"name": "OwnershipTransferred",
			"type": "event"
		},
		{
			"inputs": [],
			"name": "BVG",
			"outputs": [
				{
					"internalType": "contract IBEP20",
					"name": "",
					"type": "address"
				}
			],
			"stateMutability": "view",
			"type": "function"
		},
		{
			"inputs": [],
			"name": "BVT",
			"outputs": [
				{
					"internalType": "contract IERC20",
					"name": "",
					"type": "address"
				}
			],
			"stateMutability": "view",
			"type": "function"
		},
		{
			"inputs": [
				{
					"internalType": "address[]",
					"name": "addr",
					"type": "address[]"
				},
				{
					"internalType": "bool",
					"name": "b",
					"type": "bool"
				}
			],
			"name": "addCattleWhite",
			"outputs": [],
			"stateMutability": "nonpayable",
			"type": "function"
		},
		{
			"inputs": [
				{
					"internalType": "address[]",
					"name": "addr",
					"type": "address[]"
				},
				{
					"internalType": "bool",
					"name": "b",
					"type": "bool"
				}
			],
			"name": "addPlanetWhite",
			"outputs": [],
			"stateMutability": "nonpayable",
			"type": "function"
		},
		{
			"inputs": [],
			"name": "box",
			"outputs": [
				{
					"internalType": "contract IBOX",
					"name": "",
					"type": "address"
				}
			],
			"stateMutability": "view",
			"type": "function"
		},
		{
			"inputs": [],
			"name": "boxClaimedAmount",
			"outputs": [
				{
					"internalType": "uint256",
					"name": "",
					"type": "uint256"
				}
			],
			"stateMutability": "view",
			"type": "function"
		},
		{
			"inputs": [],
			"name": "bvgClaimAmount",
			"outputs": [
				{
					"internalType": "uint256",
					"name": "",
					"type": "uint256"
				}
			],
			"stateMutability": "view",
			"type": "function"
		},
		{
			"inputs": [],
			"name": "bvgClaimedAmount",
			"outputs": [
				{
					"internalType": "uint256",
					"name": "",
					"type": "uint256"
				}
			],
			"stateMutability": "view",
			"type": "function"
		},
		{
			"inputs": [],
			"name": "bvtClaimAmount",
			"outputs": [
				{
					"internalType": "uint256",
					"name": "",
					"type": "uint256"
				}
			],
			"stateMutability": "view",
			"type": "function"
		},
		{
			"inputs": [],
			"name": "bvtClaimedAmount",
			"outputs": [
				{
					"internalType": "uint256",
					"name": "",
					"type": "uint256"
				}
			],
			"stateMutability": "view",
			"type": "function"
		},
		{
			"inputs": [],
			"name": "cattle",
			"outputs": [
				{
					"internalType": "contract ICOW",
					"name": "",
					"type": "address"
				}
			],
			"stateMutability": "view",
			"type": "function"
		},
		{
			"inputs": [],
			"name": "cattleAmount",
			"outputs": [
				{
					"internalType": "uint256",
					"name": "",
					"type": "uint256"
				}
			],
			"stateMutability": "view",
			"type": "function"
		},
		{
			"inputs": [],
			"name": "cattleClaimedAmount",
			"outputs": [
				{
					"internalType": "uint256",
					"name": "",
					"type": "uint256"
				}
			],
			"stateMutability": "view",
			"type": "function"
		},
		{
			"inputs": [
				{
					"internalType": "address",
					"name": "",
					"type": "address"
				}
			],
			"name": "cattleWhite",
			"outputs": [
				{
					"internalType": "bool",
					"name": "",
					"type": "bool"
				}
			],
			"stateMutability": "view",
			"type": "function"
		},
		{
			"inputs": [
				{
					"internalType": "address",
					"name": "addr",
					"type": "address"
				}
			],
			"name": "checkInfo",
			"outputs": [
				{
					"internalType": "bool[7]",
					"name": "info1",
					"type": "bool[7]"
				},
				{
					"internalType": "uint256[5]",
					"name": "info2",
					"type": "uint256[5]"
				},
				{
					"internalType": "uint256[5]",
					"name": "info3",
					"type": "uint256[5]"
				}
			],
			"stateMutability": "view",
			"type": "function"
		},
		{
			"inputs": [],
			"name": "claimBVG",
			"outputs": [],
			"stateMutability": "nonpayable",
			"type": "function"
		},
		{
			"inputs": [],
			"name": "claimBVT",
			"outputs": [],
			"stateMutability": "nonpayable",
			"type": "function"
		},
		{
			"inputs": [],
			"name": "claimBox",
			"outputs": [],
			"stateMutability": "nonpayable",
			"type": "function"
		},
		{
			"inputs": [],
			"name": "claimCattle",
			"outputs": [],
			"stateMutability": "nonpayable",
			"type": "function"
		},
		{
			"inputs": [],
			"name": "claimPlanet",
			"outputs": [],
			"stateMutability": "nonpayable",
			"type": "function"
		},
		{
			"inputs": [],
			"name": "initialize",
			"outputs": [],
			"stateMutability": "nonpayable",
			"type": "function"
		},
		{
			"inputs": [],
			"name": "owner",
			"outputs": [
				{
					"internalType": "address",
					"name": "",
					"type": "address"
				}
			],
			"stateMutability": "view",
			"type": "function"
		},
		{
			"inputs": [],
			"name": "planet",
			"outputs": [
				{
					"internalType": "contract IPlanet721",
					"name": "",
					"type": "address"
				}
			],
			"stateMutability": "view",
			"type": "function"
		},
		{
			"inputs": [],
			"name": "planetAmount",
			"outputs": [
				{
					"internalType": "uint256",
					"name": "",
					"type": "uint256"
				}
			],
			"stateMutability": "view",
			"type": "function"
		},
		{
			"inputs": [],
			"name": "planetClaimedAmount",
			"outputs": [
				{
					"internalType": "uint256",
					"name": "",
					"type": "uint256"
				}
			],
			"stateMutability": "view",
			"type": "function"
		},
		{
			"inputs": [
				{
					"internalType": "address",
					"name": "",
					"type": "address"
				}
			],
			"name": "planetWhite",
			"outputs": [
				{
					"internalType": "bool",
					"name": "",
					"type": "bool"
				}
			],
			"stateMutability": "view",
			"type": "function"
		},
		{
			"inputs": [],
			"name": "renounceOwnership",
			"outputs": [],
			"stateMutability": "nonpayable",
			"type": "function"
		},
		{
			"inputs": [
				{
					"internalType": "uint256",
					"name": "catttle_",
					"type": "uint256"
				},
				{
					"internalType": "uint256",
					"name": "planet_",
					"type": "uint256"
				}
			],
			"name": "setAmount",
			"outputs": [],
			"stateMutability": "nonpayable",
			"type": "function"
		},
		{
			"inputs": [
				{
					"internalType": "address",
					"name": "addr",
					"type": "address"
				}
			],
			"name": "setBVG",
			"outputs": [],
			"stateMutability": "nonpayable",
			"type": "function"
		},
		{
			"inputs": [
				{
					"internalType": "address",
					"name": "addr",
					"type": "address"
				}
			],
			"name": "setBVT",
			"outputs": [],
			"stateMutability": "nonpayable",
			"type": "function"
		},
		{
			"inputs": [
				{
					"internalType": "address",
					"name": "addr",
					"type": "address"
				}
			],
			"name": "setBox",
			"outputs": [],
			"stateMutability": "nonpayable",
			"type": "function"
		},
		{
			"inputs": [
				{
					"internalType": "uint256",
					"name": "amount",
					"type": "uint256"
				}
			],
			"name": "setBvgClaimAmount",
			"outputs": [],
			"stateMutability": "nonpayable",
			"type": "function"
		},
		{
			"inputs": [
				{
					"internalType": "uint256",
					"name": "amount",
					"type": "uint256"
				}
			],
			"name": "setBvtClaimAmount",
			"outputs": [],
			"stateMutability": "nonpayable",
			"type": "function"
		},
		{
			"inputs": [
				{
					"internalType": "address",
					"name": "addr_",
					"type": "address"
				}
			],
			"name": "setCattle",
			"outputs": [],
			"stateMutability": "nonpayable",
			"type": "function"
		},
		{
			"inputs": [
				{
					"internalType": "address",
					"name": "addr_",
					"type": "address"
				}
			],
			"name": "setPlanet",
			"outputs": [],
			"stateMutability": "nonpayable",
			"type": "function"
		},
		{
			"inputs": [
				{
					"internalType": "address",
					"name": "newOwner",
					"type": "address"
				}
			],
			"name": "transferOwnership",
			"outputs": [],
			"stateMutability": "nonpayable",
			"type": "function"
		},
		{
			"inputs": [
				{
					"internalType": "address",
					"name": "",
					"type": "address"
				}
			],
			"name": "userInfo",
			"outputs": [
				{
					"internalType": "bool",
					"name": "planetClaimed",
					"type": "bool"
				},
				{
					"internalType": "bool",
					"name": "cattleClaimed",
					"type": "bool"
				},
				{
					"internalType": "bool",
					"name": "boxClaimed",
					"type": "bool"
				},
				{
					"internalType": "bool",
					"name": "bvtClaimed",
					"type": "bool"
				},
				{
					"internalType": "bool",
					"name": "bvgClaimed",
					"type": "bool"
				}
			],
			"stateMutability": "view",
			"type": "function"
		}
	]
}