{
	"data": {
		"bytecode": {
			"linkReferences": {},
			"object": "608060405234801561001057600080fd5b50612830806100206000396000f3fe608060405234801561001057600080fd5b50600436106101cf5760003560e01c80638ff9b63d11610104578063cff64330116100a2578063ebb83ab111610071578063ebb83ab114610461578063f1e94ad31461046a578063f2c393851461047d578063f2fde38b1461049d57600080fd5b8063cff643301461037c578063d2ef079514610384578063d4573fd9146103c2578063e75aa3d71461045857600080fd5b8063b1e5e2b7116100de578063b1e5e2b714610345578063b88a802f14610358578063be4c6e5714610360578063cd937e351461036957600080fd5b80638ff9b63d146102e257806393f1a40b146102eb578063a0020fcb1461033257600080fd5b8063715018a6116101715780638129fc1c1161014b5780638129fc1c146102a357806387464389146102ab57806388e14d9c146102be5780638da5cb5b146102d157600080fd5b8063715018a614610268578063754215a1146102705780637706c4ba1461028357600080fd5b80635c9302c9116101ad5780635c9302c91461020f578063658104d81461022b5780636b0c932d146102345780636cc25db71461023d57600080fd5b806310b49c2b146101d45780631c65c78b146101e9578063537627ab146101fc575b600080fd5b6101e76101e236600461252c565b6104b0565b005b6101e76101f7366004612512565b6104fa565b6101e761020a366004612512565b610546565b61021860755481565b6040519081526020015b60405180910390f35b610218606f5481565b61021860745481565b606654610250906001600160a01b031681565b6040516001600160a01b039091168152602001610222565b6101e7610592565b606554610250906001600160a01b031681565b61021861029136600461260c565b60766020526000908152604090205481565b6101e76105c8565b606754610250906001600160a01b031681565b6101e76102cc366004612512565b610702565b6033546001600160a01b0316610250565b610218606d5481565b61031d6102f9366004612624565b60786020908152600092835260408084209091529082529020805460019091015482565b60408051928352602083019190915201610222565b610218610340366004612512565b61074e565b6101e761035336600461260c565b61089b565b6101e7610da2565b61021860735481565b6101e761037736600461260c565b610ea9565b6101e76114fb565b6103b2610392366004612624565b607960209081526000928352604080842090915290825290205460ff1681565b6040519015158152602001610222565b6104156103d036600461260c565b6077602052600090815260409020805460018201546002830154600384015460048501546005909501546001600160a01b039485169593949283169391929091169086565b604080516001600160a01b0397881681526020810196909652938616938501939093526060840191909152909216608082015260a081019190915260c001610222565b610218606e5481565b610218606c5481565b6101e761047836600461260c565b611d20565b61021861048b366004612512565b60726020526000908152604090205481565b6101e76104ab366004612512565b6122a2565b6033546001600160a01b031633146104e35760405162461bcd60e51b81526004016104da90612670565b60405180910390fd5b80516104f6906071906020840190612456565b5050565b6033546001600160a01b031633146105245760405162461bcd60e51b81526004016104da90612670565b606680546001600160a01b0319166001600160a01b0392909216919091179055565b6033546001600160a01b031633146105705760405162461bcd60e51b81526004016104da90612670565b606580546001600160a01b0319166001600160a01b0392909216919091179055565b6033546001600160a01b031633146105bc5760405162461bcd60e51b81526004016104da90612670565b6105c66000612336565b565b600054610100900460ff166105e35760005460ff16156105e7565b303b155b61064a5760405162461bcd60e51b815260206004820152602e60248201527f496e697469616c697a61626c653a20636f6e747261637420697320616c72656160448201526d191e481a5b9a5d1a585b1a5e995960921b60648201526084016104da565b600054610100900460ff1615801561066c576000805461ffff19166101011790555b610674612388565b61067c6123af565b655af3107a4000606f5562030d40606e5561c350606a5560c860685561271060695562022218606b556005606c556014606d556032607355604080516080810182526004808252600860208084019190915260109383019390935260608201929092526106ec91607191906124a1565b5080156106ff576000805461ff00191690555b50565b6033546001600160a01b0316331461072c5760405162461bcd60e51b81526004016104da90612670565b606780546001600160a01b0319166001600160a01b0392909216919091179055565b60745460009081526079602090815260408083206001600160a01b0385168452909152812054819060ff16156107875750600092915050565b6074546000908152607760205260409020600401546001600160a01b03848116911614156107da576074546000908152607660205260409020546107cd90600290612708565b6107d790826126f0565b90505b6074546000908152607760205260409020600201546001600160a01b038481169116141561083957607454600090815260766020526040902054600a9061082290600361271c565b61082c9190612708565b61083690826126f0565b90505b6074546000908152607760205260409020546001600160a01b038481169116141561089557607454600090815260766020526040902054600a9061087e90600261271c565b6108889190612708565b61089290826126f0565b90505b92915050565b60006108aa6201518042612784565b6108b4904261273b565b905060755481146108ca57607580546074558190555b606554604051630852cd8d60e31b8152600481018490526001600160a01b03909116906342966c6890602401602060405180830381600087803b15801561091057600080fd5b505af1158015610924573d6000803e3d6000fd5b505050506040513d601f19601f8201168201806040525081019061094891906125ec565b50600061097d606b54606954606854606a5461096491906126f0565b61096e91906126f0565b61097891906126f0565b6123df565b9050606954606a54606b5461099291906126f0565b61099c91906126f0565b811115610a6557606654604051630ab714fb60e11b81526001600160a01b039091169063156e29f6906109d990339060029060019060040161264f565b602060405180830381600087803b1580156109f357600080fd5b505af1158015610a07573d6000803e3d6000fd5b505050506040513d601f19601f82011682018060405250810190610a2b91906125ec565b5060688054906000610a3c83612752565b909155505060405160019060029033906000805160206127db83398151915290600090a4610cc6565b606a54606b54610a7591906126f0565b811115610b3e57606654604051630ab714fb60e11b81526001600160a01b039091169063156e29f690610ab290339060059060019060040161264f565b602060405180830381600087803b158015610acc57600080fd5b505af1158015610ae0573d6000803e3d6000fd5b505050506040513d601f19601f82011682018060405250810190610b0491906125ec565b5060698054906000610b1583612752565b909155505060405160019060059033906000805160206127db83398151915290600090a4610cc6565b606b54811115610c0857606654604051630ab714fb60e11b81526001600160a01b039091169063156e29f690610b7d903390600190819060040161264f565b602060405180830381600087803b158015610b9757600080fd5b505af1158015610bab573d6000803e3d6000fd5b505050506040513d601f19601f82011682018060405250810190610bcf91906125ec565b50606a8054906000610be083612752565b9091555050604051600190819033906000805160206127db83398151915290600090a4610cc6565b606654604051630ab714fb60e11b81526001600160a01b039091169063156e29f690610c3e90339060069060019060040161264f565b602060405180830381600087803b158015610c5857600080fd5b505af1158015610c6c573d6000803e3d6000fd5b505050506040513d601f19601f82011682018060405250810190610c9091906125ec565b50606b8054906000610ca183612752565b909155505060405160019060069033906000805160206127db83398151915290600090a45b60755460009081526078602090815260408083203384529091528120805491610cee83612769565b909155505060755460009081526077602090815260408083206001015460788352818420338552909252909120541115610d6d5760758054600090815260776020818152604080842080546001600160a01b03191633908117909155945480855260788352818520958552948252808420549484529190529020600101555b6075546000908152607660205260408120805469043c33c19375648000009290610d989084906126f0565b9091555050505050565b6000610dad3361074e565b11610de65760405162461bcd60e51b81526020600482015260096024820152681b9bc81c995dd85c9960ba1b60448201526064016104da565b6067546001600160a01b031663a9059cbb33610e018161074e565b6040516001600160e01b031960e085901b1681526001600160a01b0390921660048301526024820152604401602060405180830381600087803b158015610e4757600080fd5b505af1158015610e5b573d6000803e3d6000fd5b505050506040513d601f19601f82011682018060405250810190610e7f91906125ec565b5060745460009081526079602090815260408083203384529091529020805460ff19166001179055565b6000610eb86201518042612784565b610ec2904261273b565b90506075548114610ed857607580546074558190555b8160021480610ee75750816004145b610f225760405162461bcd60e51b815260206004820152600c60248201526b1ddc9bdb99c8185b5bdd5b9d60a21b60448201526064016104da565b606654604051637a94c56560e11b81526001600160a01b039091169063f5298aca90610f57903390600690879060040161264f565b600060405180830381600087803b158015610f7157600080fd5b505af1158015610f85573d6000803e3d6000fd5b5050505081600214156111b6576000610f9e60646123df565b9050605081111561105457606654604051630ab714fb60e11b81526001600160a01b039091169063156e29f690610fde903390600190819060040161264f565b602060405180830381600087803b158015610ff857600080fd5b505af115801561100c573d6000803e3d6000fd5b505050506040513d601f19601f8201168201806040525081019061103091906125ec565b50604051600190819033906000805160206127db83398151915290600090a46111b0565b606654604051630ab714fb60e11b81526001600160a01b039091169063156e29f69061108a90339060069060019060040161264f565b602060405180830381600087803b1580156110a457600080fd5b505af11580156110b8573d6000803e3d6000fd5b505050506040513d601f19601f820116820180604052508101906110dc91906125ec565b50606754606f546001600160a01b039091169063a9059cbb903390611111906f03c2f7086aed236c807a1b5000000000612708565b6040516001600160e01b031960e085901b1681526001600160a01b0390921660048301526024820152604401602060405180830381600087803b15801561115757600080fd5b505af115801561116b573d6000803e3d6000fd5b505050506040513d601f19601f8201168201806040525081019061118f91906125ec565b5060405160019060069033906000805160206127db83398151915290600090a45b506113d8565b60006111c260646123df565b9050605581111561127a57606654604051630ab714fb60e11b81526001600160a01b039091169063156e29f69061120390339060059060019060040161264f565b602060405180830381600087803b15801561121d57600080fd5b505af1158015611231573d6000803e3d6000fd5b505050506040513d601f19601f8201168201806040525081019061125591906125ec565b5060405160019060059033906000805160206127db83398151915290600090a46113d6565b606654604051630ab714fb60e11b81526001600160a01b039091169063156e29f6906112b090339060069060029060040161264f565b602060405180830381600087803b1580156112ca57600080fd5b505af11580156112de573d6000803e3d6000fd5b505050506040513d601f19601f8201168201806040525081019061130291906125ec565b5060405160029060069033906000805160206127db83398151915290600090a4606754606f546001600160a01b039091169063a9059cbb903390611356906f0785ee10d5da46d900f436a000000000612708565b6040516001600160e01b031960e085901b1681526001600160a01b0390921660048301526024820152604401602060405180830381600087803b15801561139c57600080fd5b505af11580156113b0573d6000803e3d6000fd5b505050506040513d601f19601f820116820180604052508101906113d491906125ec565b505b505b6075546000908152607860209081526040808320338452909152812060010180548492906114079084906126f0565b90915550506075546000908152607760209081526040808320600301546078835281842033855290925290912060010154111561148d576075805460008181526078602090815260408083203380855290835281842060010154948452607790925280832060030193909355925481522060020180546001600160a01b03191690911790555b60758054600090815260776020908152604080832060040180546001600160a01b031916331790559254825260769052908120805469010f0cf064dd5920000092906114da9084906126f0565b90915550506075546000908152607760205260409020426005909101555050565b600061150a6201518042612784565b611514904261273b565b9050607554811461152a57607580546074558190555b6000607354116115705760405162461bcd60e51b81526020600482015260116024820152701b9bc818dc99585d1a5bdb905b5bdd5b9d607a1b60448201526064016104da565b3360009081526072602052604081205460718054919291839081106115a557634e487b7160e01b600052603260045260246000fd5b600091825260209091200154606654604051637a94c56560e11b81529192506001600160a01b03169063f5298aca906115e7903390600690869060040161264f565b600060405180830381600087803b15801561160157600080fd5b505af1158015611615573d6000803e3d6000fd5b50505050600061162560646123df565b90508261181557605f8111801561163e57506000607354115b1561170557606654604051630ab714fb60e11b81526001600160a01b039091169063156e29f69061167990339060029060019060040161264f565b602060405180830381600087803b15801561169357600080fd5b505af11580156116a7573d6000803e3d6000fd5b505050506040513d601f19601f820116820180604052508101906116cb91906125ec565b50607380549060006116dc83612752565b909155505060405160019060029033906000805160206127db83398151915290600090a4611c05565b606754606f546001600160a01b039091169063a9059cbb903390611739906f03c2f7086aed236c807a1b5000000000612708565b6040516001600160e01b031960e085901b1681526001600160a01b0390921660048301526024820152604401602060405180830381600087803b15801561177f57600080fd5b505af1158015611793573d6000803e3d6000fd5b505050506040513d601f19601f820116820180604052508101906117b791906125ec565b503360009081526072602052604081208054916117d383612769565b9091555050606f546117f5906f03c2f7086aed236c807a1b5000000000612708565b60405160009033906000805160206127db833981519152908390a4611c05565b82600114156119f65760508111801561183057506000607354115b1561190657606654604051630ab714fb60e11b81526001600160a01b039091169063156e29f69061186b90339060029060019060040161264f565b602060405180830381600087803b15801561188557600080fd5b505af1158015611899573d6000803e3d6000fd5b505050506040513d601f19601f820116820180604052508101906118bd91906125ec565b50607380549060006118ce83612752565b9091555050336000818152607260205260408082208290555160019260029290916000805160206127db8339815191529190a4611c05565b606754606f546001600160a01b039091169063a9059cbb90339061193a906f0785ee10d5da46d900f436a000000000612708565b6040516001600160e01b031960e085901b1681526001600160a01b0390921660048301526024820152604401602060405180830381600087803b15801561198057600080fd5b505af1158015611994573d6000803e3d6000fd5b505050506040513d601f19601f820116820180604052508101906119b891906125ec565b503360009081526072602052604081208054916119d483612769565b9091555050606f546117f5906f0785ee10d5da46d900f436a000000000612708565b8260021415611b3857603281118015611a1157506000607354115b15611a4c57606654604051630ab714fb60e11b81526001600160a01b039091169063156e29f69061186b90339060029060019060040161264f565b606754606f546001600160a01b039091169063a9059cbb903390611a7e906a3c2f7086aed236c807a1b560261b612708565b6040516001600160e01b031960e085901b1681526001600160a01b0390921660048301526024820152604401602060405180830381600087803b158015611ac457600080fd5b505af1158015611ad8573d6000803e3d6000fd5b505050506040513d601f19601f82011682018060405250810190611afc91906125ec565b50336000908152607260205260408120805491611b1883612769565b9091555050606f546117f5906a3c2f7086aed236c807a1b560261b612708565b606654604051630ab714fb60e11b81526001600160a01b039091169063156e29f690611b6e90339060029060019060040161264f565b602060405180830381600087803b158015611b8857600080fd5b505af1158015611b9c573d6000803e3d6000fd5b505050506040513d601f19601f82011682018060405250810190611bc091906125ec565b5060738054906000611bd183612752565b9091555050336000818152607260205260408082208290555160019260029290916000805160206127db8339815191529190a45b607554600090815260786020908152604080832033845290915281206001018054849290611c349084906126f0565b909155505060755460009081526077602090815260408083206003015460788352818420338552909252909120600101541115611cba576075805460008181526078602090815260408083203380855290835281842060010154948452607790925280832060030193909355925481522060020180546001600160a01b03191690911790555b60758054600090815260776020908152604080832060040180546001600160a01b0319163317905583548352808320426005909101559254825260769052908120805469010f0cf064dd592000009290611d159084906126f0565b909155505050505050565b6000611d2f6201518042612784565b611d39904261273b565b90506075548114611d4f57607580546074558190555b8160081480611d5e5750816014145b611d995760405162461bcd60e51b815260206004820152600c60248201526b1ddc9bdb99c8185b5bdd5b9d60a21b60448201526064016104da565b6000611da66103e86123df565b606654604051637a94c56560e11b81529192506001600160a01b03169063f5298aca90611ddc903390600690889060040161264f565b600060405180830381600087803b158015611df657600080fd5b505af1158015611e0a573d6000803e3d6000fd5b505050508260081415611fcf57610352811115611ee357606654604051630ab714fb60e11b81526001600160a01b039091169063156e29f690611e5790339060039060019060040161264f565b602060405180830381600087803b158015611e7157600080fd5b505af1158015611e85573d6000803e3d6000fd5b505050506040513d601f19601f82011682018060405250810190611ea991906125ec565b50606d8054906000611eba83612752565b909155505060405160019060039033906000805160206127db83398151915290600090a4612186565b606754606f546001600160a01b039091169063a9059cbb903390611f15906a3c2f7086aed236c807a1b560261b612708565b6040516001600160e01b031960e085901b1681526001600160a01b0390921660048301526024820152604401602060405180830381600087803b158015611f5b57600080fd5b505af1158015611f6f573d6000803e3d6000fd5b505050506040513d601f19601f82011682018060405250810190611f9391906125ec565b50606f54611faf906a3c2f7086aed236c807a1b560261b612708565b60405160009033906000805160206127db833981519152908390a4612186565b61039d81111561209a57606654604051630ab714fb60e11b81526001600160a01b039091169063156e29f69061200e903390600490600190820161264f565b602060405180830381600087803b15801561202857600080fd5b505af115801561203c573d6000803e3d6000fd5b505050506040513d601f19601f8201168201806040525081019061206091906125ec565b50606c805490600061207183612752565b909155505060405160019060049033906000805160206127db83398151915290600090a4612186565b606754606f546001600160a01b039091169063a9059cbb9033906120ce906f259da6542d43623d04c5112000000000612708565b6040516001600160e01b031960e085901b1681526001600160a01b0390921660048301526024820152604401602060405180830381600087803b15801561211457600080fd5b505af1158015612128573d6000803e3d6000fd5b505050506040513d601f19601f8201168201806040525081019061214c91906125ec565b50606f5461216a906f259da6542d43623d04c5112000000000612708565b60405160009033906000805160206127db833981519152908390a45b6075546000908152607860209081526040808320338452909152812060010180548592906121b59084906126f0565b90915550506075546000908152607760209081526040808320600301546078835281842033855290925290912060010154111561223b576075805460008181526078602090815260408083203380855290835281842060010154948452607790925280832060030193909355925481522060020180546001600160a01b03191690911790555b6075546000908152607660205260408120805469010f0cf064dd5920000092906122669084906126f0565b90915550506075805460009081526077602052604080822060040180546001600160a01b03191633179055915481522042600590910155505050565b6033546001600160a01b031633146122cc5760405162461bcd60e51b81526004016104da90612670565b6001600160a01b0381166123315760405162461bcd60e51b815260206004820152602660248201527f4f776e61626c653a206e6577206f776e657220697320746865207a65726f206160448201526564647265737360d01b60648201526084016104da565b6106ff815b603380546001600160a01b038381166001600160a01b0319831681179093556040519116919082907f8be0079c531659141344cd1fd0a4f28419497f9722a3daafe3b4186f6b6457e090600090a35050565b600054610100900460ff166105c65760405162461bcd60e51b81526004016104da906126a5565b600054610100900460ff166123d65760405162461bcd60e51b81526004016104da906126a5565b6105c633612336565b600080444260705460405160200161240a939291909283526020830191909152604082015260600190565b60408051601f19818403018152919052805160209091012060708054919250600061243483612769565b9091555061244490508382612784565b61244f9060016126f0565b9392505050565b828054828255906000526020600020908101928215612491579160200282015b82811115612491578251825591602001919060010190612476565b5061249d9291506124e1565b5090565b828054828255906000526020600020908101928215612491579160200282015b82811115612491578251829060ff169055916020019190600101906124c1565b5b8082111561249d57600081556001016124e2565b80356001600160a01b038116811461250d57600080fd5b919050565b600060208284031215612523578081fd5b61244f826124f6565b6000602080838503121561253e578182fd5b823567ffffffffffffffff80821115612555578384fd5b818501915085601f830112612568578384fd5b81358181111561257a5761257a6127c4565b8060051b604051601f19603f8301168101818110858211171561259f5761259f6127c4565b604052828152858101935084860182860187018a10156125bd578788fd5b8795505b838610156125df5780358552600195909501949386019386016125c1565b5098975050505050505050565b6000602082840312156125fd578081fd5b8151801515811461244f578182fd5b60006020828403121561261d578081fd5b5035919050565b60008060408385031215612636578081fd5b82359150612646602084016124f6565b90509250929050565b6001600160a01b039390931683526020830191909152604082015260600190565b6020808252818101527f4f776e61626c653a2063616c6c6572206973206e6f7420746865206f776e6572604082015260600190565b6020808252602b908201527f496e697469616c697a61626c653a20636f6e7472616374206973206e6f74206960408201526a6e697469616c697a696e6760a81b606082015260800190565b6000821982111561270357612703612798565b500190565b600082612717576127176127ae565b500490565b600081600019048311821515161561273657612736612798565b500290565b60008282101561274d5761274d612798565b500390565b60008161276157612761612798565b506000190190565b600060001982141561277d5761277d612798565b5060010190565b600082612793576127936127ae565b500690565b634e487b7160e01b600052601160045260246000fd5b634e487b7160e01b600052601260045260246000fd5b634e487b7160e01b600052604160045260246000fdfe02a6a2be713fedf52f113c0a759f1c1a23a113476d9b1b1a2a453c910660de4ea26469706673582212207c7a4372f26607b05454a57a974af396815ff7f35a6ae1978a9ad7f6b4cd2eb064736f6c63430008040033",
			"opcodes": "PUSH1 0x80 PUSH1 0x40 MSTORE CALLVALUE DUP1 ISZERO PUSH2 0x10 JUMPI PUSH1 0x0 DUP1 REVERT JUMPDEST POP PUSH2 0x2830 DUP1 PUSH2 0x20 PUSH1 0x0 CODECOPY PUSH1 0x0 RETURN INVALID PUSH1 0x80 PUSH1 0x40 MSTORE CALLVALUE DUP1 ISZERO PUSH2 0x10 JUMPI PUSH1 0x0 DUP1 REVERT JUMPDEST POP PUSH1 0x4 CALLDATASIZE LT PUSH2 0x1CF JUMPI PUSH1 0x0 CALLDATALOAD PUSH1 0xE0 SHR DUP1 PUSH4 0x8FF9B63D GT PUSH2 0x104 JUMPI DUP1 PUSH4 0xCFF64330 GT PUSH2 0xA2 JUMPI DUP1 PUSH4 0xEBB83AB1 GT PUSH2 0x71 JUMPI DUP1 PUSH4 0xEBB83AB1 EQ PUSH2 0x461 JUMPI DUP1 PUSH4 0xF1E94AD3 EQ PUSH2 0x46A JUMPI DUP1 PUSH4 0xF2C39385 EQ PUSH2 0x47D JUMPI DUP1 PUSH4 0xF2FDE38B EQ PUSH2 0x49D JUMPI PUSH1 0x0 DUP1 REVERT JUMPDEST DUP1 PUSH4 0xCFF64330 EQ PUSH2 0x37C JUMPI DUP1 PUSH4 0xD2EF0795 EQ PUSH2 0x384 JUMPI DUP1 PUSH4 0xD4573FD9 EQ PUSH2 0x3C2 JUMPI DUP1 PUSH4 0xE75AA3D7 EQ PUSH2 0x458 JUMPI PUSH1 0x0 DUP1 REVERT JUMPDEST DUP1 PUSH4 0xB1E5E2B7 GT PUSH2 0xDE JUMPI DUP1 PUSH4 0xB1E5E2B7 EQ PUSH2 0x345 JUMPI DUP1 PUSH4 0xB88A802F EQ PUSH2 0x358 JUMPI DUP1 PUSH4 0xBE4C6E57 EQ PUSH2 0x360 JUMPI DUP1 PUSH4 0xCD937E35 EQ PUSH2 0x369 JUMPI PUSH1 0x0 DUP1 REVERT JUMPDEST DUP1 PUSH4 0x8FF9B63D EQ PUSH2 0x2E2 JUMPI DUP1 PUSH4 0x93F1A40B EQ PUSH2 0x2EB JUMPI DUP1 PUSH4 0xA0020FCB EQ PUSH2 0x332 JUMPI PUSH1 0x0 DUP1 REVERT JUMPDEST DUP1 PUSH4 0x715018A6 GT PUSH2 0x171 JUMPI DUP1 PUSH4 0x8129FC1C GT PUSH2 0x14B JUMPI DUP1 PUSH4 0x8129FC1C EQ PUSH2 0x2A3 JUMPI DUP1 PUSH4 0x87464389 EQ PUSH2 0x2AB JUMPI DUP1 PUSH4 0x88E14D9C EQ PUSH2 0x2BE JUMPI DUP1 PUSH4 0x8DA5CB5B EQ PUSH2 0x2D1 JUMPI PUSH1 0x0 DUP1 REVERT JUMPDEST DUP1 PUSH4 0x715018A6 EQ PUSH2 0x268 JUMPI DUP1 PUSH4 0x754215A1 EQ PUSH2 0x270 JUMPI DUP1 PUSH4 0x7706C4BA EQ PUSH2 0x283 JUMPI PUSH1 0x0 DUP1 REVERT JUMPDEST DUP1 PUSH4 0x5C9302C9 GT PUSH2 0x1AD JUMPI DUP1 PUSH4 0x5C9302C9 EQ PUSH2 0x20F JUMPI DUP1 PUSH4 0x658104D8 EQ PUSH2 0x22B JUMPI DUP1 PUSH4 0x6B0C932D EQ PUSH2 0x234 JUMPI DUP1 PUSH4 0x6CC25DB7 EQ PUSH2 0x23D JUMPI PUSH1 0x0 DUP1 REVERT JUMPDEST DUP1 PUSH4 0x10B49C2B EQ PUSH2 0x1D4 JUMPI DUP1 PUSH4 0x1C65C78B EQ PUSH2 0x1E9 JUMPI DUP1 PUSH4 0x537627AB EQ PUSH2 0x1FC JUMPI JUMPDEST PUSH1 0x0 DUP1 REVERT JUMPDEST PUSH2 0x1E7 PUSH2 0x1E2 CALLDATASIZE PUSH1 0x4 PUSH2 0x252C JUMP JUMPDEST PUSH2 0x4B0 JUMP JUMPDEST STOP JUMPDEST PUSH2 0x1E7 PUSH2 0x1F7 CALLDATASIZE PUSH1 0x4 PUSH2 0x2512 JUMP JUMPDEST PUSH2 0x4FA JUMP JUMPDEST PUSH2 0x1E7 PUSH2 0x20A CALLDATASIZE PUSH1 0x4 PUSH2 0x2512 JUMP JUMPDEST PUSH2 0x546 JUMP JUMPDEST PUSH2 0x218 PUSH1 0x75 SLOAD DUP2 JUMP JUMPDEST PUSH1 0x40 MLOAD SWAP1 DUP2 MSTORE PUSH1 0x20 ADD JUMPDEST PUSH1 0x40 MLOAD DUP1 SWAP2 SUB SWAP1 RETURN JUMPDEST PUSH2 0x218 PUSH1 0x6F SLOAD DUP2 JUMP JUMPDEST PUSH2 0x218 PUSH1 0x74 SLOAD DUP2 JUMP JUMPDEST PUSH1 0x66 SLOAD PUSH2 0x250 SWAP1 PUSH1 0x1 PUSH1 0x1 PUSH1 0xA0 SHL SUB AND DUP2 JUMP JUMPDEST PUSH1 0x40 MLOAD PUSH1 0x1 PUSH1 0x1 PUSH1 0xA0 SHL SUB SWAP1 SWAP2 AND DUP2 MSTORE PUSH1 0x20 ADD PUSH2 0x222 JUMP JUMPDEST PUSH2 0x1E7 PUSH2 0x592 JUMP JUMPDEST PUSH1 0x65 SLOAD PUSH2 0x250 SWAP1 PUSH1 0x1 PUSH1 0x1 PUSH1 0xA0 SHL SUB AND DUP2 JUMP JUMPDEST PUSH2 0x218 PUSH2 0x291 CALLDATASIZE PUSH1 0x4 PUSH2 0x260C JUMP JUMPDEST PUSH1 0x76 PUSH1 0x20 MSTORE PUSH1 0x0 SWAP1 DUP2 MSTORE PUSH1 0x40 SWAP1 KECCAK256 SLOAD DUP2 JUMP JUMPDEST PUSH2 0x1E7 PUSH2 0x5C8 JUMP JUMPDEST PUSH1 0x67 SLOAD PUSH2 0x250 SWAP1 PUSH1 0x1 PUSH1 0x1 PUSH1 0xA0 SHL SUB AND DUP2 JUMP JUMPDEST PUSH2 0x1E7 PUSH2 0x2CC CALLDATASIZE PUSH1 0x4 PUSH2 0x2512 JUMP JUMPDEST PUSH2 0x702 JUMP JUMPDEST PUSH1 0x33 SLOAD PUSH1 0x1 PUSH1 0x1 PUSH1 0xA0 SHL SUB AND PUSH2 0x250 JUMP JUMPDEST PUSH2 0x218 PUSH1 0x6D SLOAD DUP2 JUMP JUMPDEST PUSH2 0x31D PUSH2 0x2F9 CALLDATASIZE PUSH1 0x4 PUSH2 0x2624 JUMP JUMPDEST PUSH1 0x78 PUSH1 0x20 SWAP1 DUP2 MSTORE PUSH1 0x0 SWAP3 DUP4 MSTORE PUSH1 0x40 DUP1 DUP5 KECCAK256 SWAP1 SWAP2 MSTORE SWAP1 DUP3 MSTORE SWAP1 KECCAK256 DUP1 SLOAD PUSH1 0x1 SWAP1 SWAP2 ADD SLOAD DUP3 JUMP JUMPDEST PUSH1 0x40 DUP1 MLOAD SWAP3 DUP4 MSTORE PUSH1 0x20 DUP4 ADD SWAP2 SWAP1 SWAP2 MSTORE ADD PUSH2 0x222 JUMP JUMPDEST PUSH2 0x218 PUSH2 0x340 CALLDATASIZE PUSH1 0x4 PUSH2 0x2512 JUMP JUMPDEST PUSH2 0x74E JUMP JUMPDEST PUSH2 0x1E7 PUSH2 0x353 CALLDATASIZE PUSH1 0x4 PUSH2 0x260C JUMP JUMPDEST PUSH2 0x89B JUMP JUMPDEST PUSH2 0x1E7 PUSH2 0xDA2 JUMP JUMPDEST PUSH2 0x218 PUSH1 0x73 SLOAD DUP2 JUMP JUMPDEST PUSH2 0x1E7 PUSH2 0x377 CALLDATASIZE PUSH1 0x4 PUSH2 0x260C JUMP JUMPDEST PUSH2 0xEA9 JUMP JUMPDEST PUSH2 0x1E7 PUSH2 0x14FB JUMP JUMPDEST PUSH2 0x3B2 PUSH2 0x392 CALLDATASIZE PUSH1 0x4 PUSH2 0x2624 JUMP JUMPDEST PUSH1 0x79 PUSH1 0x20 SWAP1 DUP2 MSTORE PUSH1 0x0 SWAP3 DUP4 MSTORE PUSH1 0x40 DUP1 DUP5 KECCAK256 SWAP1 SWAP2 MSTORE SWAP1 DUP3 MSTORE SWAP1 KECCAK256 SLOAD PUSH1 0xFF AND DUP2 JUMP JUMPDEST PUSH1 0x40 MLOAD SWAP1 ISZERO ISZERO DUP2 MSTORE PUSH1 0x20 ADD PUSH2 0x222 JUMP JUMPDEST PUSH2 0x415 PUSH2 0x3D0 CALLDATASIZE PUSH1 0x4 PUSH2 0x260C JUMP JUMPDEST PUSH1 0x77 PUSH1 0x20 MSTORE PUSH1 0x0 SWAP1 DUP2 MSTORE PUSH1 0x40 SWAP1 KECCAK256 DUP1 SLOAD PUSH1 0x1 DUP3 ADD SLOAD PUSH1 0x2 DUP4 ADD SLOAD PUSH1 0x3 DUP5 ADD SLOAD PUSH1 0x4 DUP6 ADD SLOAD PUSH1 0x5 SWAP1 SWAP6 ADD SLOAD PUSH1 0x1 PUSH1 0x1 PUSH1 0xA0 SHL SUB SWAP5 DUP6 AND SWAP6 SWAP4 SWAP5 SWAP3 DUP4 AND SWAP4 SWAP2 SWAP3 SWAP1 SWAP2 AND SWAP1 DUP7 JUMP JUMPDEST PUSH1 0x40 DUP1 MLOAD PUSH1 0x1 PUSH1 0x1 PUSH1 0xA0 SHL SUB SWAP8 DUP9 AND DUP2 MSTORE PUSH1 0x20 DUP2 ADD SWAP7 SWAP1 SWAP7 MSTORE SWAP4 DUP7 AND SWAP4 DUP6 ADD SWAP4 SWAP1 SWAP4 MSTORE PUSH1 0x60 DUP5 ADD SWAP2 SWAP1 SWAP2 MSTORE SWAP1 SWAP3 AND PUSH1 0x80 DUP3 ADD MSTORE PUSH1 0xA0 DUP2 ADD SWAP2 SWAP1 SWAP2 MSTORE PUSH1 0xC0 ADD PUSH2 0x222 JUMP JUMPDEST PUSH2 0x218 PUSH1 0x6E SLOAD DUP2 JUMP JUMPDEST PUSH2 0x218 PUSH1 0x6C SLOAD DUP2 JUMP JUMPDEST PUSH2 0x1E7 PUSH2 0x478 CALLDATASIZE PUSH1 0x4 PUSH2 0x260C JUMP JUMPDEST PUSH2 0x1D20 JUMP JUMPDEST PUSH2 0x218 PUSH2 0x48B CALLDATASIZE PUSH1 0x4 PUSH2 0x2512 JUMP JUMPDEST PUSH1 0x72 PUSH1 0x20 MSTORE PUSH1 0x0 SWAP1 DUP2 MSTORE PUSH1 0x40 SWAP1 KECCAK256 SLOAD DUP2 JUMP JUMPDEST PUSH2 0x1E7 PUSH2 0x4AB CALLDATASIZE PUSH1 0x4 PUSH2 0x2512 JUMP JUMPDEST PUSH2 0x22A2 JUMP JUMPDEST PUSH1 0x33 SLOAD PUSH1 0x1 PUSH1 0x1 PUSH1 0xA0 SHL SUB AND CALLER EQ PUSH2 0x4E3 JUMPI PUSH1 0x40 MLOAD PUSH3 0x461BCD PUSH1 0xE5 SHL DUP2 MSTORE PUSH1 0x4 ADD PUSH2 0x4DA SWAP1 PUSH2 0x2670 JUMP JUMPDEST PUSH1 0x40 MLOAD DUP1 SWAP2 SUB SWAP1 REVERT JUMPDEST DUP1 MLOAD PUSH2 0x4F6 SWAP1 PUSH1 0x71 SWAP1 PUSH1 0x20 DUP5 ADD SWAP1 PUSH2 0x2456 JUMP JUMPDEST POP POP JUMP JUMPDEST PUSH1 0x33 SLOAD PUSH1 0x1 PUSH1 0x1 PUSH1 0xA0 SHL SUB AND CALLER EQ PUSH2 0x524 JUMPI PUSH1 0x40 MLOAD PUSH3 0x461BCD PUSH1 0xE5 SHL DUP2 MSTORE PUSH1 0x4 ADD PUSH2 0x4DA SWAP1 PUSH2 0x2670 JUMP JUMPDEST PUSH1 0x66 DUP1 SLOAD PUSH1 0x1 PUSH1 0x1 PUSH1 0xA0 SHL SUB NOT AND PUSH1 0x1 PUSH1 0x1 PUSH1 0xA0 SHL SUB SWAP3 SWAP1 SWAP3 AND SWAP2 SWAP1 SWAP2 OR SWAP1 SSTORE JUMP JUMPDEST PUSH1 0x33 SLOAD PUSH1 0x1 PUSH1 0x1 PUSH1 0xA0 SHL SUB AND CALLER EQ PUSH2 0x570 JUMPI PUSH1 0x40 MLOAD PUSH3 0x461BCD PUSH1 0xE5 SHL DUP2 MSTORE PUSH1 0x4 ADD PUSH2 0x4DA SWAP1 PUSH2 0x2670 JUMP JUMPDEST PUSH1 0x65 DUP1 SLOAD PUSH1 0x1 PUSH1 0x1 PUSH1 0xA0 SHL SUB NOT AND PUSH1 0x1 PUSH1 0x1 PUSH1 0xA0 SHL SUB SWAP3 SWAP1 SWAP3 AND SWAP2 SWAP1 SWAP2 OR SWAP1 SSTORE JUMP JUMPDEST PUSH1 0x33 SLOAD PUSH1 0x1 PUSH1 0x1 PUSH1 0xA0 SHL SUB AND CALLER EQ PUSH2 0x5BC JUMPI PUSH1 0x40 MLOAD PUSH3 0x461BCD PUSH1 0xE5 SHL DUP2 MSTORE PUSH1 0x4 ADD PUSH2 0x4DA SWAP1 PUSH2 0x2670 JUMP JUMPDEST PUSH2 0x5C6 PUSH1 0x0 PUSH2 0x2336 JUMP JUMPDEST JUMP JUMPDEST PUSH1 0x0 SLOAD PUSH2 0x100 SWAP1 DIV PUSH1 0xFF AND PUSH2 0x5E3 JUMPI PUSH1 0x0 SLOAD PUSH1 0xFF AND ISZERO PUSH2 0x5E7 JUMP JUMPDEST ADDRESS EXTCODESIZE ISZERO JUMPDEST PUSH2 0x64A JUMPI PUSH1 0x40 MLOAD PUSH3 0x461BCD PUSH1 0xE5 SHL DUP2 MSTORE PUSH1 0x20 PUSH1 0x4 DUP3 ADD MSTORE PUSH1 0x2E PUSH1 0x24 DUP3 ADD MSTORE PUSH32 0x496E697469616C697A61626C653A20636F6E747261637420697320616C726561 PUSH1 0x44 DUP3 ADD MSTORE PUSH14 0x191E481A5B9A5D1A585B1A5E9959 PUSH1 0x92 SHL PUSH1 0x64 DUP3 ADD MSTORE PUSH1 0x84 ADD PUSH2 0x4DA JUMP JUMPDEST PUSH1 0x0 SLOAD PUSH2 0x100 SWAP1 DIV PUSH1 0xFF AND ISZERO DUP1 ISZERO PUSH2 0x66C JUMPI PUSH1 0x0 DUP1 SLOAD PUSH2 0xFFFF NOT AND PUSH2 0x101 OR SWAP1 SSTORE JUMPDEST PUSH2 0x674 PUSH2 0x2388 JUMP JUMPDEST PUSH2 0x67C PUSH2 0x23AF JUMP JUMPDEST PUSH6 0x5AF3107A4000 PUSH1 0x6F SSTORE PUSH3 0x30D40 PUSH1 0x6E SSTORE PUSH2 0xC350 PUSH1 0x6A SSTORE PUSH1 0xC8 PUSH1 0x68 SSTORE PUSH2 0x2710 PUSH1 0x69 SSTORE PUSH3 0x22218 PUSH1 0x6B SSTORE PUSH1 0x5 PUSH1 0x6C SSTORE PUSH1 0x14 PUSH1 0x6D SSTORE PUSH1 0x32 PUSH1 0x73 SSTORE PUSH1 0x40 DUP1 MLOAD PUSH1 0x80 DUP2 ADD DUP3 MSTORE PUSH1 0x4 DUP1 DUP3 MSTORE PUSH1 0x8 PUSH1 0x20 DUP1 DUP5 ADD SWAP2 SWAP1 SWAP2 MSTORE PUSH1 0x10 SWAP4 DUP4 ADD SWAP4 SWAP1 SWAP4 MSTORE PUSH1 0x60 DUP3 ADD SWAP3 SWAP1 SWAP3 MSTORE PUSH2 0x6EC SWAP2 PUSH1 0x71 SWAP2 SWAP1 PUSH2 0x24A1 JUMP JUMPDEST POP DUP1 ISZERO PUSH2 0x6FF JUMPI PUSH1 0x0 DUP1 SLOAD PUSH2 0xFF00 NOT AND SWAP1 SSTORE JUMPDEST POP JUMP JUMPDEST PUSH1 0x33 SLOAD PUSH1 0x1 PUSH1 0x1 PUSH1 0xA0 SHL SUB AND CALLER EQ PUSH2 0x72C JUMPI PUSH1 0x40 MLOAD PUSH3 0x461BCD PUSH1 0xE5 SHL DUP2 MSTORE PUSH1 0x4 ADD PUSH2 0x4DA SWAP1 PUSH2 0x2670 JUMP JUMPDEST PUSH1 0x67 DUP1 SLOAD PUSH1 0x1 PUSH1 0x1 PUSH1 0xA0 SHL SUB NOT AND PUSH1 0x1 PUSH1 0x1 PUSH1 0xA0 SHL SUB SWAP3 SWAP1 SWAP3 AND SWAP2 SWAP1 SWAP2 OR SWAP1 SSTORE JUMP JUMPDEST PUSH1 0x74 SLOAD PUSH1 0x0 SWAP1 DUP2 MSTORE PUSH1 0x79 PUSH1 0x20 SWAP1 DUP2 MSTORE PUSH1 0x40 DUP1 DUP4 KECCAK256 PUSH1 0x1 PUSH1 0x1 PUSH1 0xA0 SHL SUB DUP6 AND DUP5 MSTORE SWAP1 SWAP2 MSTORE DUP2 KECCAK256 SLOAD DUP2 SWAP1 PUSH1 0xFF AND ISZERO PUSH2 0x787 JUMPI POP PUSH1 0x0 SWAP3 SWAP2 POP POP JUMP JUMPDEST PUSH1 0x74 SLOAD PUSH1 0x0 SWAP1 DUP2 MSTORE PUSH1 0x77 PUSH1 0x20 MSTORE PUSH1 0x40 SWAP1 KECCAK256 PUSH1 0x4 ADD SLOAD PUSH1 0x1 PUSH1 0x1 PUSH1 0xA0 SHL SUB DUP5 DUP2 AND SWAP2 AND EQ ISZERO PUSH2 0x7DA JUMPI PUSH1 0x74 SLOAD PUSH1 0x0 SWAP1 DUP2 MSTORE PUSH1 0x76 PUSH1 0x20 MSTORE PUSH1 0x40 SWAP1 KECCAK256 SLOAD PUSH2 0x7CD SWAP1 PUSH1 0x2 SWAP1 PUSH2 0x2708 JUMP JUMPDEST PUSH2 0x7D7 SWAP1 DUP3 PUSH2 0x26F0 JUMP JUMPDEST SWAP1 POP JUMPDEST PUSH1 0x74 SLOAD PUSH1 0x0 SWAP1 DUP2 MSTORE PUSH1 0x77 PUSH1 0x20 MSTORE PUSH1 0x40 SWAP1 KECCAK256 PUSH1 0x2 ADD SLOAD PUSH1 0x1 PUSH1 0x1 PUSH1 0xA0 SHL SUB DUP5 DUP2 AND SWAP2 AND EQ ISZERO PUSH2 0x839 JUMPI PUSH1 0x74 SLOAD PUSH1 0x0 SWAP1 DUP2 MSTORE PUSH1 0x76 PUSH1 0x20 MSTORE PUSH1 0x40 SWAP1 KECCAK256 SLOAD PUSH1 0xA SWAP1 PUSH2 0x822 SWAP1 PUSH1 0x3 PUSH2 0x271C JUMP JUMPDEST PUSH2 0x82C SWAP2 SWAP1 PUSH2 0x2708 JUMP JUMPDEST PUSH2 0x836 SWAP1 DUP3 PUSH2 0x26F0 JUMP JUMPDEST SWAP1 POP JUMPDEST PUSH1 0x74 SLOAD PUSH1 0x0 SWAP1 DUP2 MSTORE PUSH1 0x77 PUSH1 0x20 MSTORE PUSH1 0x40 SWAP1 KECCAK256 SLOAD PUSH1 0x1 PUSH1 0x1 PUSH1 0xA0 SHL SUB DUP5 DUP2 AND SWAP2 AND EQ ISZERO PUSH2 0x895 JUMPI PUSH1 0x74 SLOAD PUSH1 0x0 SWAP1 DUP2 MSTORE PUSH1 0x76 PUSH1 0x20 MSTORE PUSH1 0x40 SWAP1 KECCAK256 SLOAD PUSH1 0xA SWAP1 PUSH2 0x87E SWAP1 PUSH1 0x2 PUSH2 0x271C JUMP JUMPDEST PUSH2 0x888 SWAP2 SWAP1 PUSH2 0x2708 JUMP JUMPDEST PUSH2 0x892 SWAP1 DUP3 PUSH2 0x26F0 JUMP JUMPDEST SWAP1 POP JUMPDEST SWAP3 SWAP2 POP POP JUMP JUMPDEST PUSH1 0x0 PUSH2 0x8AA PUSH3 0x15180 TIMESTAMP PUSH2 0x2784 JUMP JUMPDEST PUSH2 0x8B4 SWAP1 TIMESTAMP PUSH2 0x273B JUMP JUMPDEST SWAP1 POP PUSH1 0x75 SLOAD DUP2 EQ PUSH2 0x8CA JUMPI PUSH1 0x75 DUP1 SLOAD PUSH1 0x74 SSTORE DUP2 SWAP1 SSTORE JUMPDEST PUSH1 0x65 SLOAD PUSH1 0x40 MLOAD PUSH4 0x852CD8D PUSH1 0xE3 SHL DUP2 MSTORE PUSH1 0x4 DUP2 ADD DUP5 SWAP1 MSTORE PUSH1 0x1 PUSH1 0x1 PUSH1 0xA0 SHL SUB SWAP1 SWAP2 AND SWAP1 PUSH4 0x42966C68 SWAP1 PUSH1 0x24 ADD PUSH1 0x20 PUSH1 0x40 MLOAD DUP1 DUP4 SUB DUP2 PUSH1 0x0 DUP8 DUP1 EXTCODESIZE ISZERO DUP1 ISZERO PUSH2 0x910 JUMPI PUSH1 0x0 DUP1 REVERT JUMPDEST POP GAS CALL ISZERO DUP1 ISZERO PUSH2 0x924 JUMPI RETURNDATASIZE PUSH1 0x0 DUP1 RETURNDATACOPY RETURNDATASIZE PUSH1 0x0 REVERT JUMPDEST POP POP POP POP PUSH1 0x40 MLOAD RETURNDATASIZE PUSH1 0x1F NOT PUSH1 0x1F DUP3 ADD AND DUP3 ADD DUP1 PUSH1 0x40 MSTORE POP DUP2 ADD SWAP1 PUSH2 0x948 SWAP2 SWAP1 PUSH2 0x25EC JUMP JUMPDEST POP PUSH1 0x0 PUSH2 0x97D PUSH1 0x6B SLOAD PUSH1 0x69 SLOAD PUSH1 0x68 SLOAD PUSH1 0x6A SLOAD PUSH2 0x964 SWAP2 SWAP1 PUSH2 0x26F0 JUMP JUMPDEST PUSH2 0x96E SWAP2 SWAP1 PUSH2 0x26F0 JUMP JUMPDEST PUSH2 0x978 SWAP2 SWAP1 PUSH2 0x26F0 JUMP JUMPDEST PUSH2 0x23DF JUMP JUMPDEST SWAP1 POP PUSH1 0x69 SLOAD PUSH1 0x6A SLOAD PUSH1 0x6B SLOAD PUSH2 0x992 SWAP2 SWAP1 PUSH2 0x26F0 JUMP JUMPDEST PUSH2 0x99C SWAP2 SWAP1 PUSH2 0x26F0 JUMP JUMPDEST DUP2 GT ISZERO PUSH2 0xA65 JUMPI PUSH1 0x66 SLOAD PUSH1 0x40 MLOAD PUSH4 0xAB714FB PUSH1 0xE1 SHL DUP2 MSTORE PUSH1 0x1 PUSH1 0x1 PUSH1 0xA0 SHL SUB SWAP1 SWAP2 AND SWAP1 PUSH4 0x156E29F6 SWAP1 PUSH2 0x9D9 SWAP1 CALLER SWAP1 PUSH1 0x2 SWAP1 PUSH1 0x1 SWAP1 PUSH1 0x4 ADD PUSH2 0x264F JUMP JUMPDEST PUSH1 0x20 PUSH1 0x40 MLOAD DUP1 DUP4 SUB DUP2 PUSH1 0x0 DUP8 DUP1 EXTCODESIZE ISZERO DUP1 ISZERO PUSH2 0x9F3 JUMPI PUSH1 0x0 DUP1 REVERT JUMPDEST POP GAS CALL ISZERO DUP1 ISZERO PUSH2 0xA07 JUMPI RETURNDATASIZE PUSH1 0x0 DUP1 RETURNDATACOPY RETURNDATASIZE PUSH1 0x0 REVERT JUMPDEST POP POP POP POP PUSH1 0x40 MLOAD RETURNDATASIZE PUSH1 0x1F NOT PUSH1 0x1F DUP3 ADD AND DUP3 ADD DUP1 PUSH1 0x40 MSTORE POP DUP2 ADD SWAP1 PUSH2 0xA2B SWAP2 SWAP1 PUSH2 0x25EC JUMP JUMPDEST POP PUSH1 0x68 DUP1 SLOAD SWAP1 PUSH1 0x0 PUSH2 0xA3C DUP4 PUSH2 0x2752 JUMP JUMPDEST SWAP1 SWAP2 SSTORE POP POP PUSH1 0x40 MLOAD PUSH1 0x1 SWAP1 PUSH1 0x2 SWAP1 CALLER SWAP1 PUSH1 0x0 DUP1 MLOAD PUSH1 0x20 PUSH2 0x27DB DUP4 CODECOPY DUP2 MLOAD SWAP2 MSTORE SWAP1 PUSH1 0x0 SWAP1 LOG4 PUSH2 0xCC6 JUMP JUMPDEST PUSH1 0x6A SLOAD PUSH1 0x6B SLOAD PUSH2 0xA75 SWAP2 SWAP1 PUSH2 0x26F0 JUMP JUMPDEST DUP2 GT ISZERO PUSH2 0xB3E JUMPI PUSH1 0x66 SLOAD PUSH1 0x40 MLOAD PUSH4 0xAB714FB PUSH1 0xE1 SHL DUP2 MSTORE PUSH1 0x1 PUSH1 0x1 PUSH1 0xA0 SHL SUB SWAP1 SWAP2 AND SWAP1 PUSH4 0x156E29F6 SWAP1 PUSH2 0xAB2 SWAP1 CALLER SWAP1 PUSH1 0x5 SWAP1 PUSH1 0x1 SWAP1 PUSH1 0x4 ADD PUSH2 0x264F JUMP JUMPDEST PUSH1 0x20 PUSH1 0x40 MLOAD DUP1 DUP4 SUB DUP2 PUSH1 0x0 DUP8 DUP1 EXTCODESIZE ISZERO DUP1 ISZERO PUSH2 0xACC JUMPI PUSH1 0x0 DUP1 REVERT JUMPDEST POP GAS CALL ISZERO DUP1 ISZERO PUSH2 0xAE0 JUMPI RETURNDATASIZE PUSH1 0x0 DUP1 RETURNDATACOPY RETURNDATASIZE PUSH1 0x0 REVERT JUMPDEST POP POP POP POP PUSH1 0x40 MLOAD RETURNDATASIZE PUSH1 0x1F NOT PUSH1 0x1F DUP3 ADD AND DUP3 ADD DUP1 PUSH1 0x40 MSTORE POP DUP2 ADD SWAP1 PUSH2 0xB04 SWAP2 SWAP1 PUSH2 0x25EC JUMP JUMPDEST POP PUSH1 0x69 DUP1 SLOAD SWAP1 PUSH1 0x0 PUSH2 0xB15 DUP4 PUSH2 0x2752 JUMP JUMPDEST SWAP1 SWAP2 SSTORE POP POP PUSH1 0x40 MLOAD PUSH1 0x1 SWAP1 PUSH1 0x5 SWAP1 CALLER SWAP1 PUSH1 0x0 DUP1 MLOAD PUSH1 0x20 PUSH2 0x27DB DUP4 CODECOPY DUP2 MLOAD SWAP2 MSTORE SWAP1 PUSH1 0x0 SWAP1 LOG4 PUSH2 0xCC6 JUMP JUMPDEST PUSH1 0x6B SLOAD DUP2 GT ISZERO PUSH2 0xC08 JUMPI PUSH1 0x66 SLOAD PUSH1 0x40 MLOAD PUSH4 0xAB714FB PUSH1 0xE1 SHL DUP2 MSTORE PUSH1 0x1 PUSH1 0x1 PUSH1 0xA0 SHL SUB SWAP1 SWAP2 AND SWAP1 PUSH4 0x156E29F6 SWAP1 PUSH2 0xB7D SWAP1 CALLER SWAP1 PUSH1 0x1 SWAP1 DUP2 SWAP1 PUSH1 0x4 ADD PUSH2 0x264F JUMP JUMPDEST PUSH1 0x20 PUSH1 0x40 MLOAD DUP1 DUP4 SUB DUP2 PUSH1 0x0 DUP8 DUP1 EXTCODESIZE ISZERO DUP1 ISZERO PUSH2 0xB97 JUMPI PUSH1 0x0 DUP1 REVERT JUMPDEST POP GAS CALL ISZERO DUP1 ISZERO PUSH2 0xBAB JUMPI RETURNDATASIZE PUSH1 0x0 DUP1 RETURNDATACOPY RETURNDATASIZE PUSH1 0x0 REVERT JUMPDEST POP POP POP POP PUSH1 0x40 MLOAD RETURNDATASIZE PUSH1 0x1F NOT PUSH1 0x1F DUP3 ADD AND DUP3 ADD DUP1 PUSH1 0x40 MSTORE POP DUP2 ADD SWAP1 PUSH2 0xBCF SWAP2 SWAP1 PUSH2 0x25EC JUMP JUMPDEST POP PUSH1 0x6A DUP1 SLOAD SWAP1 PUSH1 0x0 PUSH2 0xBE0 DUP4 PUSH2 0x2752 JUMP JUMPDEST SWAP1 SWAP2 SSTORE POP POP PUSH1 0x40 MLOAD PUSH1 0x1 SWAP1 DUP2 SWAP1 CALLER SWAP1 PUSH1 0x0 DUP1 MLOAD PUSH1 0x20 PUSH2 0x27DB DUP4 CODECOPY DUP2 MLOAD SWAP2 MSTORE SWAP1 PUSH1 0x0 SWAP1 LOG4 PUSH2 0xCC6 JUMP JUMPDEST PUSH1 0x66 SLOAD PUSH1 0x40 MLOAD PUSH4 0xAB714FB PUSH1 0xE1 SHL DUP2 MSTORE PUSH1 0x1 PUSH1 0x1 PUSH1 0xA0 SHL SUB SWAP1 SWAP2 AND SWAP1 PUSH4 0x156E29F6 SWAP1 PUSH2 0xC3E SWAP1 CALLER SWAP1 PUSH1 0x6 SWAP1 PUSH1 0x1 SWAP1 PUSH1 0x4 ADD PUSH2 0x264F JUMP JUMPDEST PUSH1 0x20 PUSH1 0x40 MLOAD DUP1 DUP4 SUB DUP2 PUSH1 0x0 DUP8 DUP1 EXTCODESIZE ISZERO DUP1 ISZERO PUSH2 0xC58 JUMPI PUSH1 0x0 DUP1 REVERT JUMPDEST POP GAS CALL ISZERO DUP1 ISZERO PUSH2 0xC6C JUMPI RETURNDATASIZE PUSH1 0x0 DUP1 RETURNDATACOPY RETURNDATASIZE PUSH1 0x0 REVERT JUMPDEST POP POP POP POP PUSH1 0x40 MLOAD RETURNDATASIZE PUSH1 0x1F NOT PUSH1 0x1F DUP3 ADD AND DUP3 ADD DUP1 PUSH1 0x40 MSTORE POP DUP2 ADD SWAP1 PUSH2 0xC90 SWAP2 SWAP1 PUSH2 0x25EC JUMP JUMPDEST POP PUSH1 0x6B DUP1 SLOAD SWAP1 PUSH1 0x0 PUSH2 0xCA1 DUP4 PUSH2 0x2752 JUMP JUMPDEST SWAP1 SWAP2 SSTORE POP POP PUSH1 0x40 MLOAD PUSH1 0x1 SWAP1 PUSH1 0x6 SWAP1 CALLER SWAP1 PUSH1 0x0 DUP1 MLOAD PUSH1 0x20 PUSH2 0x27DB DUP4 CODECOPY DUP2 MLOAD SWAP2 MSTORE SWAP1 PUSH1 0x0 SWAP1 LOG4 JUMPDEST PUSH1 0x75 SLOAD PUSH1 0x0 SWAP1 DUP2 MSTORE PUSH1 0x78 PUSH1 0x20 SWAP1 DUP2 MSTORE PUSH1 0x40 DUP1 DUP4 KECCAK256 CALLER DUP5 MSTORE SWAP1 SWAP2 MSTORE DUP2 KECCAK256 DUP1 SLOAD SWAP2 PUSH2 0xCEE DUP4 PUSH2 0x2769 JUMP JUMPDEST SWAP1 SWAP2 SSTORE POP POP PUSH1 0x75 SLOAD PUSH1 0x0 SWAP1 DUP2 MSTORE PUSH1 0x77 PUSH1 0x20 SWAP1 DUP2 MSTORE PUSH1 0x40 DUP1 DUP4 KECCAK256 PUSH1 0x1 ADD SLOAD PUSH1 0x78 DUP4 MSTORE DUP2 DUP5 KECCAK256 CALLER DUP6 MSTORE SWAP1 SWAP3 MSTORE SWAP1 SWAP2 KECCAK256 SLOAD GT ISZERO PUSH2 0xD6D JUMPI PUSH1 0x75 DUP1 SLOAD PUSH1 0x0 SWAP1 DUP2 MSTORE PUSH1 0x77 PUSH1 0x20 DUP2 DUP2 MSTORE PUSH1 0x40 DUP1 DUP5 KECCAK256 DUP1 SLOAD PUSH1 0x1 PUSH1 0x1 PUSH1 0xA0 SHL SUB NOT AND CALLER SWAP1 DUP2 OR SWAP1 SWAP2 SSTORE SWAP5 SLOAD DUP1 DUP6 MSTORE PUSH1 0x78 DUP4 MSTORE DUP2 DUP6 KECCAK256 SWAP6 DUP6 MSTORE SWAP5 DUP3 MSTORE DUP1 DUP5 KECCAK256 SLOAD SWAP5 DUP5 MSTORE SWAP2 SWAP1 MSTORE SWAP1 KECCAK256 PUSH1 0x1 ADD SSTORE JUMPDEST PUSH1 0x75 SLOAD PUSH1 0x0 SWAP1 DUP2 MSTORE PUSH1 0x76 PUSH1 0x20 MSTORE PUSH1 0x40 DUP2 KECCAK256 DUP1 SLOAD PUSH10 0x43C33C1937564800000 SWAP3 SWAP1 PUSH2 0xD98 SWAP1 DUP5 SWAP1 PUSH2 0x26F0 JUMP JUMPDEST SWAP1 SWAP2 SSTORE POP POP POP POP POP JUMP JUMPDEST PUSH1 0x0 PUSH2 0xDAD CALLER PUSH2 0x74E JUMP JUMPDEST GT PUSH2 0xDE6 JUMPI PUSH1 0x40 MLOAD PUSH3 0x461BCD PUSH1 0xE5 SHL DUP2 MSTORE PUSH1 0x20 PUSH1 0x4 DUP3 ADD MSTORE PUSH1 0x9 PUSH1 0x24 DUP3 ADD MSTORE PUSH9 0x1B9BC81C995DD85C99 PUSH1 0xBA SHL PUSH1 0x44 DUP3 ADD MSTORE PUSH1 0x64 ADD PUSH2 0x4DA JUMP JUMPDEST PUSH1 0x67 SLOAD PUSH1 0x1 PUSH1 0x1 PUSH1 0xA0 SHL SUB AND PUSH4 0xA9059CBB CALLER PUSH2 0xE01 DUP2 PUSH2 0x74E JUMP JUMPDEST PUSH1 0x40 MLOAD PUSH1 0x1 PUSH1 0x1 PUSH1 0xE0 SHL SUB NOT PUSH1 0xE0 DUP6 SWAP1 SHL AND DUP2 MSTORE PUSH1 0x1 PUSH1 0x1 PUSH1 0xA0 SHL SUB SWAP1 SWAP3 AND PUSH1 0x4 DUP4 ADD MSTORE PUSH1 0x24 DUP3 ADD MSTORE PUSH1 0x44 ADD PUSH1 0x20 PUSH1 0x40 MLOAD DUP1 DUP4 SUB DUP2 PUSH1 0x0 DUP8 DUP1 EXTCODESIZE ISZERO DUP1 ISZERO PUSH2 0xE47 JUMPI PUSH1 0x0 DUP1 REVERT JUMPDEST POP GAS CALL ISZERO DUP1 ISZERO PUSH2 0xE5B JUMPI RETURNDATASIZE PUSH1 0x0 DUP1 RETURNDATACOPY RETURNDATASIZE PUSH1 0x0 REVERT JUMPDEST POP POP POP POP PUSH1 0x40 MLOAD RETURNDATASIZE PUSH1 0x1F NOT PUSH1 0x1F DUP3 ADD AND DUP3 ADD DUP1 PUSH1 0x40 MSTORE POP DUP2 ADD SWAP1 PUSH2 0xE7F SWAP2 SWAP1 PUSH2 0x25EC JUMP JUMPDEST POP PUSH1 0x74 SLOAD PUSH1 0x0 SWAP1 DUP2 MSTORE PUSH1 0x79 PUSH1 0x20 SWAP1 DUP2 MSTORE PUSH1 0x40 DUP1 DUP4 KECCAK256 CALLER DUP5 MSTORE SWAP1 SWAP2 MSTORE SWAP1 KECCAK256 DUP1 SLOAD PUSH1 0xFF NOT AND PUSH1 0x1 OR SWAP1 SSTORE JUMP JUMPDEST PUSH1 0x0 PUSH2 0xEB8 PUSH3 0x15180 TIMESTAMP PUSH2 0x2784 JUMP JUMPDEST PUSH2 0xEC2 SWAP1 TIMESTAMP PUSH2 0x273B JUMP JUMPDEST SWAP1 POP PUSH1 0x75 SLOAD DUP2 EQ PUSH2 0xED8 JUMPI PUSH1 0x75 DUP1 SLOAD PUSH1 0x74 SSTORE DUP2 SWAP1 SSTORE JUMPDEST DUP2 PUSH1 0x2 EQ DUP1 PUSH2 0xEE7 JUMPI POP DUP2 PUSH1 0x4 EQ JUMPDEST PUSH2 0xF22 JUMPI PUSH1 0x40 MLOAD PUSH3 0x461BCD PUSH1 0xE5 SHL DUP2 MSTORE PUSH1 0x20 PUSH1 0x4 DUP3 ADD MSTORE PUSH1 0xC PUSH1 0x24 DUP3 ADD MSTORE PUSH12 0x1DDC9BDB99C8185B5BDD5B9D PUSH1 0xA2 SHL PUSH1 0x44 DUP3 ADD MSTORE PUSH1 0x64 ADD PUSH2 0x4DA JUMP JUMPDEST PUSH1 0x66 SLOAD PUSH1 0x40 MLOAD PUSH4 0x7A94C565 PUSH1 0xE1 SHL DUP2 MSTORE PUSH1 0x1 PUSH1 0x1 PUSH1 0xA0 SHL SUB SWAP1 SWAP2 AND SWAP1 PUSH4 0xF5298ACA SWAP1 PUSH2 0xF57 SWAP1 CALLER SWAP1 PUSH1 0x6 SWAP1 DUP8 SWAP1 PUSH1 0x4 ADD PUSH2 0x264F JUMP JUMPDEST PUSH1 0x0 PUSH1 0x40 MLOAD DUP1 DUP4 SUB DUP2 PUSH1 0x0 DUP8 DUP1 EXTCODESIZE ISZERO DUP1 ISZERO PUSH2 0xF71 JUMPI PUSH1 0x0 DUP1 REVERT JUMPDEST POP GAS CALL ISZERO DUP1 ISZERO PUSH2 0xF85 JUMPI RETURNDATASIZE PUSH1 0x0 DUP1 RETURNDATACOPY RETURNDATASIZE PUSH1 0x0 REVERT JUMPDEST POP POP POP POP DUP2 PUSH1 0x2 EQ ISZERO PUSH2 0x11B6 JUMPI PUSH1 0x0 PUSH2 0xF9E PUSH1 0x64 PUSH2 0x23DF JUMP JUMPDEST SWAP1 POP PUSH1 0x50 DUP2 GT ISZERO PUSH2 0x1054 JUMPI PUSH1 0x66 SLOAD PUSH1 0x40 MLOAD PUSH4 0xAB714FB PUSH1 0xE1 SHL DUP2 MSTORE PUSH1 0x1 PUSH1 0x1 PUSH1 0xA0 SHL SUB SWAP1 SWAP2 AND SWAP1 PUSH4 0x156E29F6 SWAP1 PUSH2 0xFDE SWAP1 CALLER SWAP1 PUSH1 0x1 SWAP1 DUP2 SWAP1 PUSH1 0x4 ADD PUSH2 0x264F JUMP JUMPDEST PUSH1 0x20 PUSH1 0x40 MLOAD DUP1 DUP4 SUB DUP2 PUSH1 0x0 DUP8 DUP1 EXTCODESIZE ISZERO DUP1 ISZERO PUSH2 0xFF8 JUMPI PUSH1 0x0 DUP1 REVERT JUMPDEST POP GAS CALL ISZERO DUP1 ISZERO PUSH2 0x100C JUMPI RETURNDATASIZE PUSH1 0x0 DUP1 RETURNDATACOPY RETURNDATASIZE PUSH1 0x0 REVERT JUMPDEST POP POP POP POP PUSH1 0x40 MLOAD RETURNDATASIZE PUSH1 0x1F NOT PUSH1 0x1F DUP3 ADD AND DUP3 ADD DUP1 PUSH1 0x40 MSTORE POP DUP2 ADD SWAP1 PUSH2 0x1030 SWAP2 SWAP1 PUSH2 0x25EC JUMP JUMPDEST POP PUSH1 0x40 MLOAD PUSH1 0x1 SWAP1 DUP2 SWAP1 CALLER SWAP1 PUSH1 0x0 DUP1 MLOAD PUSH1 0x20 PUSH2 0x27DB DUP4 CODECOPY DUP2 MLOAD SWAP2 MSTORE SWAP1 PUSH1 0x0 SWAP1 LOG4 PUSH2 0x11B0 JUMP JUMPDEST PUSH1 0x66 SLOAD PUSH1 0x40 MLOAD PUSH4 0xAB714FB PUSH1 0xE1 SHL DUP2 MSTORE PUSH1 0x1 PUSH1 0x1 PUSH1 0xA0 SHL SUB SWAP1 SWAP2 AND SWAP1 PUSH4 0x156E29F6 SWAP1 PUSH2 0x108A SWAP1 CALLER SWAP1 PUSH1 0x6 SWAP1 PUSH1 0x1 SWAP1 PUSH1 0x4 ADD PUSH2 0x264F JUMP JUMPDEST PUSH1 0x20 PUSH1 0x40 MLOAD DUP1 DUP4 SUB DUP2 PUSH1 0x0 DUP8 DUP1 EXTCODESIZE ISZERO DUP1 ISZERO PUSH2 0x10A4 JUMPI PUSH1 0x0 DUP1 REVERT JUMPDEST POP GAS CALL ISZERO DUP1 ISZERO PUSH2 0x10B8 JUMPI RETURNDATASIZE PUSH1 0x0 DUP1 RETURNDATACOPY RETURNDATASIZE PUSH1 0x0 REVERT JUMPDEST POP POP POP POP PUSH1 0x40 MLOAD RETURNDATASIZE PUSH1 0x1F NOT PUSH1 0x1F DUP3 ADD AND DUP3 ADD DUP1 PUSH1 0x40 MSTORE POP DUP2 ADD SWAP1 PUSH2 0x10DC SWAP2 SWAP1 PUSH2 0x25EC JUMP JUMPDEST POP PUSH1 0x67 SLOAD PUSH1 0x6F SLOAD PUSH1 0x1 PUSH1 0x1 PUSH1 0xA0 SHL SUB SWAP1 SWAP2 AND SWAP1 PUSH4 0xA9059CBB SWAP1 CALLER SWAP1 PUSH2 0x1111 SWAP1 PUSH16 0x3C2F7086AED236C807A1B5000000000 PUSH2 0x2708 JUMP JUMPDEST PUSH1 0x40 MLOAD PUSH1 0x1 PUSH1 0x1 PUSH1 0xE0 SHL SUB NOT PUSH1 0xE0 DUP6 SWAP1 SHL AND DUP2 MSTORE PUSH1 0x1 PUSH1 0x1 PUSH1 0xA0 SHL SUB SWAP1 SWAP3 AND PUSH1 0x4 DUP4 ADD MSTORE PUSH1 0x24 DUP3 ADD MSTORE PUSH1 0x44 ADD PUSH1 0x20 PUSH1 0x40 MLOAD DUP1 DUP4 SUB DUP2 PUSH1 0x0 DUP8 DUP1 EXTCODESIZE ISZERO DUP1 ISZERO PUSH2 0x1157 JUMPI PUSH1 0x0 DUP1 REVERT JUMPDEST POP GAS CALL ISZERO DUP1 ISZERO PUSH2 0x116B JUMPI RETURNDATASIZE PUSH1 0x0 DUP1 RETURNDATACOPY RETURNDATASIZE PUSH1 0x0 REVERT JUMPDEST POP POP POP POP PUSH1 0x40 MLOAD RETURNDATASIZE PUSH1 0x1F NOT PUSH1 0x1F DUP3 ADD AND DUP3 ADD DUP1 PUSH1 0x40 MSTORE POP DUP2 ADD SWAP1 PUSH2 0x118F SWAP2 SWAP1 PUSH2 0x25EC JUMP JUMPDEST POP PUSH1 0x40 MLOAD PUSH1 0x1 SWAP1 PUSH1 0x6 SWAP1 CALLER SWAP1 PUSH1 0x0 DUP1 MLOAD PUSH1 0x20 PUSH2 0x27DB DUP4 CODECOPY DUP2 MLOAD SWAP2 MSTORE SWAP1 PUSH1 0x0 SWAP1 LOG4 JUMPDEST POP PUSH2 0x13D8 JUMP JUMPDEST PUSH1 0x0 PUSH2 0x11C2 PUSH1 0x64 PUSH2 0x23DF JUMP JUMPDEST SWAP1 POP PUSH1 0x55 DUP2 GT ISZERO PUSH2 0x127A JUMPI PUSH1 0x66 SLOAD PUSH1 0x40 MLOAD PUSH4 0xAB714FB PUSH1 0xE1 SHL DUP2 MSTORE PUSH1 0x1 PUSH1 0x1 PUSH1 0xA0 SHL SUB SWAP1 SWAP2 AND SWAP1 PUSH4 0x156E29F6 SWAP1 PUSH2 0x1203 SWAP1 CALLER SWAP1 PUSH1 0x5 SWAP1 PUSH1 0x1 SWAP1 PUSH1 0x4 ADD PUSH2 0x264F JUMP JUMPDEST PUSH1 0x20 PUSH1 0x40 MLOAD DUP1 DUP4 SUB DUP2 PUSH1 0x0 DUP8 DUP1 EXTCODESIZE ISZERO DUP1 ISZERO PUSH2 0x121D JUMPI PUSH1 0x0 DUP1 REVERT JUMPDEST POP GAS CALL ISZERO DUP1 ISZERO PUSH2 0x1231 JUMPI RETURNDATASIZE PUSH1 0x0 DUP1 RETURNDATACOPY RETURNDATASIZE PUSH1 0x0 REVERT JUMPDEST POP POP POP POP PUSH1 0x40 MLOAD RETURNDATASIZE PUSH1 0x1F NOT PUSH1 0x1F DUP3 ADD AND DUP3 ADD DUP1 PUSH1 0x40 MSTORE POP DUP2 ADD SWAP1 PUSH2 0x1255 SWAP2 SWAP1 PUSH2 0x25EC JUMP JUMPDEST POP PUSH1 0x40 MLOAD PUSH1 0x1 SWAP1 PUSH1 0x5 SWAP1 CALLER SWAP1 PUSH1 0x0 DUP1 MLOAD PUSH1 0x20 PUSH2 0x27DB DUP4 CODECOPY DUP2 MLOAD SWAP2 MSTORE SWAP1 PUSH1 0x0 SWAP1 LOG4 PUSH2 0x13D6 JUMP JUMPDEST PUSH1 0x66 SLOAD PUSH1 0x40 MLOAD PUSH4 0xAB714FB PUSH1 0xE1 SHL DUP2 MSTORE PUSH1 0x1 PUSH1 0x1 PUSH1 0xA0 SHL SUB SWAP1 SWAP2 AND SWAP1 PUSH4 0x156E29F6 SWAP1 PUSH2 0x12B0 SWAP1 CALLER SWAP1 PUSH1 0x6 SWAP1 PUSH1 0x2 SWAP1 PUSH1 0x4 ADD PUSH2 0x264F JUMP JUMPDEST PUSH1 0x20 PUSH1 0x40 MLOAD DUP1 DUP4 SUB DUP2 PUSH1 0x0 DUP8 DUP1 EXTCODESIZE ISZERO DUP1 ISZERO PUSH2 0x12CA JUMPI PUSH1 0x0 DUP1 REVERT JUMPDEST POP GAS CALL ISZERO DUP1 ISZERO PUSH2 0x12DE JUMPI RETURNDATASIZE PUSH1 0x0 DUP1 RETURNDATACOPY RETURNDATASIZE PUSH1 0x0 REVERT JUMPDEST POP POP POP POP PUSH1 0x40 MLOAD RETURNDATASIZE PUSH1 0x1F NOT PUSH1 0x1F DUP3 ADD AND DUP3 ADD DUP1 PUSH1 0x40 MSTORE POP DUP2 ADD SWAP1 PUSH2 0x1302 SWAP2 SWAP1 PUSH2 0x25EC JUMP JUMPDEST POP PUSH1 0x40 MLOAD PUSH1 0x2 SWAP1 PUSH1 0x6 SWAP1 CALLER SWAP1 PUSH1 0x0 DUP1 MLOAD PUSH1 0x20 PUSH2 0x27DB DUP4 CODECOPY DUP2 MLOAD SWAP2 MSTORE SWAP1 PUSH1 0x0 SWAP1 LOG4 PUSH1 0x67 SLOAD PUSH1 0x6F SLOAD PUSH1 0x1 PUSH1 0x1 PUSH1 0xA0 SHL SUB SWAP1 SWAP2 AND SWAP1 PUSH4 0xA9059CBB SWAP1 CALLER SWAP1 PUSH2 0x1356 SWAP1 PUSH16 0x785EE10D5DA46D900F436A000000000 PUSH2 0x2708 JUMP JUMPDEST PUSH1 0x40 MLOAD PUSH1 0x1 PUSH1 0x1 PUSH1 0xE0 SHL SUB NOT PUSH1 0xE0 DUP6 SWAP1 SHL AND DUP2 MSTORE PUSH1 0x1 PUSH1 0x1 PUSH1 0xA0 SHL SUB SWAP1 SWAP3 AND PUSH1 0x4 DUP4 ADD MSTORE PUSH1 0x24 DUP3 ADD MSTORE PUSH1 0x44 ADD PUSH1 0x20 PUSH1 0x40 MLOAD DUP1 DUP4 SUB DUP2 PUSH1 0x0 DUP8 DUP1 EXTCODESIZE ISZERO DUP1 ISZERO PUSH2 0x139C JUMPI PUSH1 0x0 DUP1 REVERT JUMPDEST POP GAS CALL ISZERO DUP1 ISZERO PUSH2 0x13B0 JUMPI RETURNDATASIZE PUSH1 0x0 DUP1 RETURNDATACOPY RETURNDATASIZE PUSH1 0x0 REVERT JUMPDEST POP POP POP POP PUSH1 0x40 MLOAD RETURNDATASIZE PUSH1 0x1F NOT PUSH1 0x1F DUP3 ADD AND DUP3 ADD DUP1 PUSH1 0x40 MSTORE POP DUP2 ADD SWAP1 PUSH2 0x13D4 SWAP2 SWAP1 PUSH2 0x25EC JUMP JUMPDEST POP JUMPDEST POP JUMPDEST PUSH1 0x75 SLOAD PUSH1 0x0 SWAP1 DUP2 MSTORE PUSH1 0x78 PUSH1 0x20 SWAP1 DUP2 MSTORE PUSH1 0x40 DUP1 DUP4 KECCAK256 CALLER DUP5 MSTORE SWAP1 SWAP2 MSTORE DUP2 KECCAK256 PUSH1 0x1 ADD DUP1 SLOAD DUP5 SWAP3 SWAP1 PUSH2 0x1407 SWAP1 DUP5 SWAP1 PUSH2 0x26F0 JUMP JUMPDEST SWAP1 SWAP2 SSTORE POP POP PUSH1 0x75 SLOAD PUSH1 0x0 SWAP1 DUP2 MSTORE PUSH1 0x77 PUSH1 0x20 SWAP1 DUP2 MSTORE PUSH1 0x40 DUP1 DUP4 KECCAK256 PUSH1 0x3 ADD SLOAD PUSH1 0x78 DUP4 MSTORE DUP2 DUP5 KECCAK256 CALLER DUP6 MSTORE SWAP1 SWAP3 MSTORE SWAP1 SWAP2 KECCAK256 PUSH1 0x1 ADD SLOAD GT ISZERO PUSH2 0x148D JUMPI PUSH1 0x75 DUP1 SLOAD PUSH1 0x0 DUP2 DUP2 MSTORE PUSH1 0x78 PUSH1 0x20 SWAP1 DUP2 MSTORE PUSH1 0x40 DUP1 DUP4 KECCAK256 CALLER DUP1 DUP6 MSTORE SWAP1 DUP4 MSTORE DUP2 DUP5 KECCAK256 PUSH1 0x1 ADD SLOAD SWAP5 DUP5 MSTORE PUSH1 0x77 SWAP1 SWAP3 MSTORE DUP1 DUP4 KECCAK256 PUSH1 0x3 ADD SWAP4 SWAP1 SWAP4 SSTORE SWAP3 SLOAD DUP2 MSTORE KECCAK256 PUSH1 0x2 ADD DUP1 SLOAD PUSH1 0x1 PUSH1 0x1 PUSH1 0xA0 SHL SUB NOT AND SWAP1 SWAP2 OR SWAP1 SSTORE JUMPDEST PUSH1 0x75 DUP1 SLOAD PUSH1 0x0 SWAP1 DUP2 MSTORE PUSH1 0x77 PUSH1 0x20 SWAP1 DUP2 MSTORE PUSH1 0x40 DUP1 DUP4 KECCAK256 PUSH1 0x4 ADD DUP1 SLOAD PUSH1 0x1 PUSH1 0x1 PUSH1 0xA0 SHL SUB NOT AND CALLER OR SWAP1 SSTORE SWAP3 SLOAD DUP3 MSTORE PUSH1 0x76 SWAP1 MSTORE SWAP1 DUP2 KECCAK256 DUP1 SLOAD PUSH10 0x10F0CF064DD59200000 SWAP3 SWAP1 PUSH2 0x14DA SWAP1 DUP5 SWAP1 PUSH2 0x26F0 JUMP JUMPDEST SWAP1 SWAP2 SSTORE POP POP PUSH1 0x75 SLOAD PUSH1 0x0 SWAP1 DUP2 MSTORE PUSH1 0x77 PUSH1 0x20 MSTORE PUSH1 0x40 SWAP1 KECCAK256 TIMESTAMP PUSH1 0x5 SWAP1 SWAP2 ADD SSTORE POP POP JUMP JUMPDEST PUSH1 0x0 PUSH2 0x150A PUSH3 0x15180 TIMESTAMP PUSH2 0x2784 JUMP JUMPDEST PUSH2 0x1514 SWAP1 TIMESTAMP PUSH2 0x273B JUMP JUMPDEST SWAP1 POP PUSH1 0x75 SLOAD DUP2 EQ PUSH2 0x152A JUMPI PUSH1 0x75 DUP1 SLOAD PUSH1 0x74 SSTORE DUP2 SWAP1 SSTORE JUMPDEST PUSH1 0x0 PUSH1 0x73 SLOAD GT PUSH2 0x1570 JUMPI PUSH1 0x40 MLOAD PUSH3 0x461BCD PUSH1 0xE5 SHL DUP2 MSTORE PUSH1 0x20 PUSH1 0x4 DUP3 ADD MSTORE PUSH1 0x11 PUSH1 0x24 DUP3 ADD MSTORE PUSH17 0x1B9BC818DC99585D1A5BDB905B5BDD5B9D PUSH1 0x7A SHL PUSH1 0x44 DUP3 ADD MSTORE PUSH1 0x64 ADD PUSH2 0x4DA JUMP JUMPDEST CALLER PUSH1 0x0 SWAP1 DUP2 MSTORE PUSH1 0x72 PUSH1 0x20 MSTORE PUSH1 0x40 DUP2 KECCAK256 SLOAD PUSH1 0x71 DUP1 SLOAD SWAP2 SWAP3 SWAP2 DUP4 SWAP1 DUP2 LT PUSH2 0x15A5 JUMPI PUSH4 0x4E487B71 PUSH1 0xE0 SHL PUSH1 0x0 MSTORE PUSH1 0x32 PUSH1 0x4 MSTORE PUSH1 0x24 PUSH1 0x0 REVERT JUMPDEST PUSH1 0x0 SWAP2 DUP3 MSTORE PUSH1 0x20 SWAP1 SWAP2 KECCAK256 ADD SLOAD PUSH1 0x66 SLOAD PUSH1 0x40 MLOAD PUSH4 0x7A94C565 PUSH1 0xE1 SHL DUP2 MSTORE SWAP2 SWAP3 POP PUSH1 0x1 PUSH1 0x1 PUSH1 0xA0 SHL SUB AND SWAP1 PUSH4 0xF5298ACA SWAP1 PUSH2 0x15E7 SWAP1 CALLER SWAP1 PUSH1 0x6 SWAP1 DUP7 SWAP1 PUSH1 0x4 ADD PUSH2 0x264F JUMP JUMPDEST PUSH1 0x0 PUSH1 0x40 MLOAD DUP1 DUP4 SUB DUP2 PUSH1 0x0 DUP8 DUP1 EXTCODESIZE ISZERO DUP1 ISZERO PUSH2 0x1601 JUMPI PUSH1 0x0 DUP1 REVERT JUMPDEST POP GAS CALL ISZERO DUP1 ISZERO PUSH2 0x1615 JUMPI RETURNDATASIZE PUSH1 0x0 DUP1 RETURNDATACOPY RETURNDATASIZE PUSH1 0x0 REVERT JUMPDEST POP POP POP POP PUSH1 0x0 PUSH2 0x1625 PUSH1 0x64 PUSH2 0x23DF JUMP JUMPDEST SWAP1 POP DUP3 PUSH2 0x1815 JUMPI PUSH1 0x5F DUP2 GT DUP1 ISZERO PUSH2 0x163E JUMPI POP PUSH1 0x0 PUSH1 0x73 SLOAD GT JUMPDEST ISZERO PUSH2 0x1705 JUMPI PUSH1 0x66 SLOAD PUSH1 0x40 MLOAD PUSH4 0xAB714FB PUSH1 0xE1 SHL DUP2 MSTORE PUSH1 0x1 PUSH1 0x1 PUSH1 0xA0 SHL SUB SWAP1 SWAP2 AND SWAP1 PUSH4 0x156E29F6 SWAP1 PUSH2 0x1679 SWAP1 CALLER SWAP1 PUSH1 0x2 SWAP1 PUSH1 0x1 SWAP1 PUSH1 0x4 ADD PUSH2 0x264F JUMP JUMPDEST PUSH1 0x20 PUSH1 0x40 MLOAD DUP1 DUP4 SUB DUP2 PUSH1 0x0 DUP8 DUP1 EXTCODESIZE ISZERO DUP1 ISZERO PUSH2 0x1693 JUMPI PUSH1 0x0 DUP1 REVERT JUMPDEST POP GAS CALL ISZERO DUP1 ISZERO PUSH2 0x16A7 JUMPI RETURNDATASIZE PUSH1 0x0 DUP1 RETURNDATACOPY RETURNDATASIZE PUSH1 0x0 REVERT JUMPDEST POP POP POP POP PUSH1 0x40 MLOAD RETURNDATASIZE PUSH1 0x1F NOT PUSH1 0x1F DUP3 ADD AND DUP3 ADD DUP1 PUSH1 0x40 MSTORE POP DUP2 ADD SWAP1 PUSH2 0x16CB SWAP2 SWAP1 PUSH2 0x25EC JUMP JUMPDEST POP PUSH1 0x73 DUP1 SLOAD SWAP1 PUSH1 0x0 PUSH2 0x16DC DUP4 PUSH2 0x2752 JUMP JUMPDEST SWAP1 SWAP2 SSTORE POP POP PUSH1 0x40 MLOAD PUSH1 0x1 SWAP1 PUSH1 0x2 SWAP1 CALLER SWAP1 PUSH1 0x0 DUP1 MLOAD PUSH1 0x20 PUSH2 0x27DB DUP4 CODECOPY DUP2 MLOAD SWAP2 MSTORE SWAP1 PUSH1 0x0 SWAP1 LOG4 PUSH2 0x1C05 JUMP JUMPDEST PUSH1 0x67 SLOAD PUSH1 0x6F SLOAD PUSH1 0x1 PUSH1 0x1 PUSH1 0xA0 SHL SUB SWAP1 SWAP2 AND SWAP1 PUSH4 0xA9059CBB SWAP1 CALLER SWAP1 PUSH2 0x1739 SWAP1 PUSH16 0x3C2F7086AED236C807A1B5000000000 PUSH2 0x2708 JUMP JUMPDEST PUSH1 0x40 MLOAD PUSH1 0x1 PUSH1 0x1 PUSH1 0xE0 SHL SUB NOT PUSH1 0xE0 DUP6 SWAP1 SHL AND DUP2 MSTORE PUSH1 0x1 PUSH1 0x1 PUSH1 0xA0 SHL SUB SWAP1 SWAP3 AND PUSH1 0x4 DUP4 ADD MSTORE PUSH1 0x24 DUP3 ADD MSTORE PUSH1 0x44 ADD PUSH1 0x20 PUSH1 0x40 MLOAD DUP1 DUP4 SUB DUP2 PUSH1 0x0 DUP8 DUP1 EXTCODESIZE ISZERO DUP1 ISZERO PUSH2 0x177F JUMPI PUSH1 0x0 DUP1 REVERT JUMPDEST POP GAS CALL ISZERO DUP1 ISZERO PUSH2 0x1793 JUMPI RETURNDATASIZE PUSH1 0x0 DUP1 RETURNDATACOPY RETURNDATASIZE PUSH1 0x0 REVERT JUMPDEST POP POP POP POP PUSH1 0x40 MLOAD RETURNDATASIZE PUSH1 0x1F NOT PUSH1 0x1F DUP3 ADD AND DUP3 ADD DUP1 PUSH1 0x40 MSTORE POP DUP2 ADD SWAP1 PUSH2 0x17B7 SWAP2 SWAP1 PUSH2 0x25EC JUMP JUMPDEST POP CALLER PUSH1 0x0 SWAP1 DUP2 MSTORE PUSH1 0x72 PUSH1 0x20 MSTORE PUSH1 0x40 DUP2 KECCAK256 DUP1 SLOAD SWAP2 PUSH2 0x17D3 DUP4 PUSH2 0x2769 JUMP JUMPDEST SWAP1 SWAP2 SSTORE POP POP PUSH1 0x6F SLOAD PUSH2 0x17F5 SWAP1 PUSH16 0x3C2F7086AED236C807A1B5000000000 PUSH2 0x2708 JUMP JUMPDEST PUSH1 0x40 MLOAD PUSH1 0x0 SWAP1 CALLER SWAP1 PUSH1 0x0 DUP1 MLOAD PUSH1 0x20 PUSH2 0x27DB DUP4 CODECOPY DUP2 MLOAD SWAP2 MSTORE SWAP1 DUP4 SWAP1 LOG4 PUSH2 0x1C05 JUMP JUMPDEST DUP3 PUSH1 0x1 EQ ISZERO PUSH2 0x19F6 JUMPI PUSH1 0x50 DUP2 GT DUP1 ISZERO PUSH2 0x1830 JUMPI POP PUSH1 0x0 PUSH1 0x73 SLOAD GT JUMPDEST ISZERO PUSH2 0x1906 JUMPI PUSH1 0x66 SLOAD PUSH1 0x40 MLOAD PUSH4 0xAB714FB PUSH1 0xE1 SHL DUP2 MSTORE PUSH1 0x1 PUSH1 0x1 PUSH1 0xA0 SHL SUB SWAP1 SWAP2 AND SWAP1 PUSH4 0x156E29F6 SWAP1 PUSH2 0x186B SWAP1 CALLER SWAP1 PUSH1 0x2 SWAP1 PUSH1 0x1 SWAP1 PUSH1 0x4 ADD PUSH2 0x264F JUMP JUMPDEST PUSH1 0x20 PUSH1 0x40 MLOAD DUP1 DUP4 SUB DUP2 PUSH1 0x0 DUP8 DUP1 EXTCODESIZE ISZERO DUP1 ISZERO PUSH2 0x1885 JUMPI PUSH1 0x0 DUP1 REVERT JUMPDEST POP GAS CALL ISZERO DUP1 ISZERO PUSH2 0x1899 JUMPI RETURNDATASIZE PUSH1 0x0 DUP1 RETURNDATACOPY RETURNDATASIZE PUSH1 0x0 REVERT JUMPDEST POP POP POP POP PUSH1 0x40 MLOAD RETURNDATASIZE PUSH1 0x1F NOT PUSH1 0x1F DUP3 ADD AND DUP3 ADD DUP1 PUSH1 0x40 MSTORE POP DUP2 ADD SWAP1 PUSH2 0x18BD SWAP2 SWAP1 PUSH2 0x25EC JUMP JUMPDEST POP PUSH1 0x73 DUP1 SLOAD SWAP1 PUSH1 0x0 PUSH2 0x18CE DUP4 PUSH2 0x2752 JUMP JUMPDEST SWAP1 SWAP2 SSTORE POP POP CALLER PUSH1 0x0 DUP2 DUP2 MSTORE PUSH1 0x72 PUSH1 0x20 MSTORE PUSH1 0x40 DUP1 DUP3 KECCAK256 DUP3 SWAP1 SSTORE MLOAD PUSH1 0x1 SWAP3 PUSH1 0x2 SWAP3 SWAP1 SWAP2 PUSH1 0x0 DUP1 MLOAD PUSH1 0x20 PUSH2 0x27DB DUP4 CODECOPY DUP2 MLOAD SWAP2 MSTORE SWAP2 SWAP1 LOG4 PUSH2 0x1C05 JUMP JUMPDEST PUSH1 0x67 SLOAD PUSH1 0x6F SLOAD PUSH1 0x1 PUSH1 0x1 PUSH1 0xA0 SHL SUB SWAP1 SWAP2 AND SWAP1 PUSH4 0xA9059CBB SWAP1 CALLER SWAP1 PUSH2 0x193A SWAP1 PUSH16 0x785EE10D5DA46D900F436A000000000 PUSH2 0x2708 JUMP JUMPDEST PUSH1 0x40 MLOAD PUSH1 0x1 PUSH1 0x1 PUSH1 0xE0 SHL SUB NOT PUSH1 0xE0 DUP6 SWAP1 SHL AND DUP2 MSTORE PUSH1 0x1 PUSH1 0x1 PUSH1 0xA0 SHL SUB SWAP1 SWAP3 AND PUSH1 0x4 DUP4 ADD MSTORE PUSH1 0x24 DUP3 ADD MSTORE PUSH1 0x44 ADD PUSH1 0x20 PUSH1 0x40 MLOAD DUP1 DUP4 SUB DUP2 PUSH1 0x0 DUP8 DUP1 EXTCODESIZE ISZERO DUP1 ISZERO PUSH2 0x1980 JUMPI PUSH1 0x0 DUP1 REVERT JUMPDEST POP GAS CALL ISZERO DUP1 ISZERO PUSH2 0x1994 JUMPI RETURNDATASIZE PUSH1 0x0 DUP1 RETURNDATACOPY RETURNDATASIZE PUSH1 0x0 REVERT JUMPDEST POP POP POP POP PUSH1 0x40 MLOAD RETURNDATASIZE PUSH1 0x1F NOT PUSH1 0x1F DUP3 ADD AND DUP3 ADD DUP1 PUSH1 0x40 MSTORE POP DUP2 ADD SWAP1 PUSH2 0x19B8 SWAP2 SWAP1 PUSH2 0x25EC JUMP JUMPDEST POP CALLER PUSH1 0x0 SWAP1 DUP2 MSTORE PUSH1 0x72 PUSH1 0x20 MSTORE PUSH1 0x40 DUP2 KECCAK256 DUP1 SLOAD SWAP2 PUSH2 0x19D4 DUP4 PUSH2 0x2769 JUMP JUMPDEST SWAP1 SWAP2 SSTORE POP POP PUSH1 0x6F SLOAD PUSH2 0x17F5 SWAP1 PUSH16 0x785EE10D5DA46D900F436A000000000 PUSH2 0x2708 JUMP JUMPDEST DUP3 PUSH1 0x2 EQ ISZERO PUSH2 0x1B38 JUMPI PUSH1 0x32 DUP2 GT DUP1 ISZERO PUSH2 0x1A11 JUMPI POP PUSH1 0x0 PUSH1 0x73 SLOAD GT JUMPDEST ISZERO PUSH2 0x1A4C JUMPI PUSH1 0x66 SLOAD PUSH1 0x40 MLOAD PUSH4 0xAB714FB PUSH1 0xE1 SHL DUP2 MSTORE PUSH1 0x1 PUSH1 0x1 PUSH1 0xA0 SHL SUB SWAP1 SWAP2 AND SWAP1 PUSH4 0x156E29F6 SWAP1 PUSH2 0x186B SWAP1 CALLER SWAP1 PUSH1 0x2 SWAP1 PUSH1 0x1 SWAP1 PUSH1 0x4 ADD PUSH2 0x264F JUMP JUMPDEST PUSH1 0x67 SLOAD PUSH1 0x6F SLOAD PUSH1 0x1 PUSH1 0x1 PUSH1 0xA0 SHL SUB SWAP1 SWAP2 AND SWAP1 PUSH4 0xA9059CBB SWAP1 CALLER SWAP1 PUSH2 0x1A7E SWAP1 PUSH11 0x3C2F7086AED236C807A1B5 PUSH1 0x26 SHL PUSH2 0x2708 JUMP JUMPDEST PUSH1 0x40 MLOAD PUSH1 0x1 PUSH1 0x1 PUSH1 0xE0 SHL SUB NOT PUSH1 0xE0 DUP6 SWAP1 SHL AND DUP2 MSTORE PUSH1 0x1 PUSH1 0x1 PUSH1 0xA0 SHL SUB SWAP1 SWAP3 AND PUSH1 0x4 DUP4 ADD MSTORE PUSH1 0x24 DUP3 ADD MSTORE PUSH1 0x44 ADD PUSH1 0x20 PUSH1 0x40 MLOAD DUP1 DUP4 SUB DUP2 PUSH1 0x0 DUP8 DUP1 EXTCODESIZE ISZERO DUP1 ISZERO PUSH2 0x1AC4 JUMPI PUSH1 0x0 DUP1 REVERT JUMPDEST POP GAS CALL ISZERO DUP1 ISZERO PUSH2 0x1AD8 JUMPI RETURNDATASIZE PUSH1 0x0 DUP1 RETURNDATACOPY RETURNDATASIZE PUSH1 0x0 REVERT JUMPDEST POP POP POP POP PUSH1 0x40 MLOAD RETURNDATASIZE PUSH1 0x1F NOT PUSH1 0x1F DUP3 ADD AND DUP3 ADD DUP1 PUSH1 0x40 MSTORE POP DUP2 ADD SWAP1 PUSH2 0x1AFC SWAP2 SWAP1 PUSH2 0x25EC JUMP JUMPDEST POP CALLER PUSH1 0x0 SWAP1 DUP2 MSTORE PUSH1 0x72 PUSH1 0x20 MSTORE PUSH1 0x40 DUP2 KECCAK256 DUP1 SLOAD SWAP2 PUSH2 0x1B18 DUP4 PUSH2 0x2769 JUMP JUMPDEST SWAP1 SWAP2 SSTORE POP POP PUSH1 0x6F SLOAD PUSH2 0x17F5 SWAP1 PUSH11 0x3C2F7086AED236C807A1B5 PUSH1 0x26 SHL PUSH2 0x2708 JUMP JUMPDEST PUSH1 0x66 SLOAD PUSH1 0x40 MLOAD PUSH4 0xAB714FB PUSH1 0xE1 SHL DUP2 MSTORE PUSH1 0x1 PUSH1 0x1 PUSH1 0xA0 SHL SUB SWAP1 SWAP2 AND SWAP1 PUSH4 0x156E29F6 SWAP1 PUSH2 0x1B6E SWAP1 CALLER SWAP1 PUSH1 0x2 SWAP1 PUSH1 0x1 SWAP1 PUSH1 0x4 ADD PUSH2 0x264F JUMP JUMPDEST PUSH1 0x20 PUSH1 0x40 MLOAD DUP1 DUP4 SUB DUP2 PUSH1 0x0 DUP8 DUP1 EXTCODESIZE ISZERO DUP1 ISZERO PUSH2 0x1B88 JUMPI PUSH1 0x0 DUP1 REVERT JUMPDEST POP GAS CALL ISZERO DUP1 ISZERO PUSH2 0x1B9C JUMPI RETURNDATASIZE PUSH1 0x0 DUP1 RETURNDATACOPY RETURNDATASIZE PUSH1 0x0 REVERT JUMPDEST POP POP POP POP PUSH1 0x40 MLOAD RETURNDATASIZE PUSH1 0x1F NOT PUSH1 0x1F DUP3 ADD AND DUP3 ADD DUP1 PUSH1 0x40 MSTORE POP DUP2 ADD SWAP1 PUSH2 0x1BC0 SWAP2 SWAP1 PUSH2 0x25EC JUMP JUMPDEST POP PUSH1 0x73 DUP1 SLOAD SWAP1 PUSH1 0x0 PUSH2 0x1BD1 DUP4 PUSH2 0x2752 JUMP JUMPDEST SWAP1 SWAP2 SSTORE POP POP CALLER PUSH1 0x0 DUP2 DUP2 MSTORE PUSH1 0x72 PUSH1 0x20 MSTORE PUSH1 0x40 DUP1 DUP3 KECCAK256 DUP3 SWAP1 SSTORE MLOAD PUSH1 0x1 SWAP3 PUSH1 0x2 SWAP3 SWAP1 SWAP2 PUSH1 0x0 DUP1 MLOAD PUSH1 0x20 PUSH2 0x27DB DUP4 CODECOPY DUP2 MLOAD SWAP2 MSTORE SWAP2 SWAP1 LOG4 JUMPDEST PUSH1 0x75 SLOAD PUSH1 0x0 SWAP1 DUP2 MSTORE PUSH1 0x78 PUSH1 0x20 SWAP1 DUP2 MSTORE PUSH1 0x40 DUP1 DUP4 KECCAK256 CALLER DUP5 MSTORE SWAP1 SWAP2 MSTORE DUP2 KECCAK256 PUSH1 0x1 ADD DUP1 SLOAD DUP5 SWAP3 SWAP1 PUSH2 0x1C34 SWAP1 DUP5 SWAP1 PUSH2 0x26F0 JUMP JUMPDEST SWAP1 SWAP2 SSTORE POP POP PUSH1 0x75 SLOAD PUSH1 0x0 SWAP1 DUP2 MSTORE PUSH1 0x77 PUSH1 0x20 SWAP1 DUP2 MSTORE PUSH1 0x40 DUP1 DUP4 KECCAK256 PUSH1 0x3 ADD SLOAD PUSH1 0x78 DUP4 MSTORE DUP2 DUP5 KECCAK256 CALLER DUP6 MSTORE SWAP1 SWAP3 MSTORE SWAP1 SWAP2 KECCAK256 PUSH1 0x1 ADD SLOAD GT ISZERO PUSH2 0x1CBA JUMPI PUSH1 0x75 DUP1 SLOAD PUSH1 0x0 DUP2 DUP2 MSTORE PUSH1 0x78 PUSH1 0x20 SWAP1 DUP2 MSTORE PUSH1 0x40 DUP1 DUP4 KECCAK256 CALLER DUP1 DUP6 MSTORE SWAP1 DUP4 MSTORE DUP2 DUP5 KECCAK256 PUSH1 0x1 ADD SLOAD SWAP5 DUP5 MSTORE PUSH1 0x77 SWAP1 SWAP3 MSTORE DUP1 DUP4 KECCAK256 PUSH1 0x3 ADD SWAP4 SWAP1 SWAP4 SSTORE SWAP3 SLOAD DUP2 MSTORE KECCAK256 PUSH1 0x2 ADD DUP1 SLOAD PUSH1 0x1 PUSH1 0x1 PUSH1 0xA0 SHL SUB NOT AND SWAP1 SWAP2 OR SWAP1 SSTORE JUMPDEST PUSH1 0x75 DUP1 SLOAD PUSH1 0x0 SWAP1 DUP2 MSTORE PUSH1 0x77 PUSH1 0x20 SWAP1 DUP2 MSTORE PUSH1 0x40 DUP1 DUP4 KECCAK256 PUSH1 0x4 ADD DUP1 SLOAD PUSH1 0x1 PUSH1 0x1 PUSH1 0xA0 SHL SUB NOT AND CALLER OR SWAP1 SSTORE DUP4 SLOAD DUP4 MSTORE DUP1 DUP4 KECCAK256 TIMESTAMP PUSH1 0x5 SWAP1 SWAP2 ADD SSTORE SWAP3 SLOAD DUP3 MSTORE PUSH1 0x76 SWAP1 MSTORE SWAP1 DUP2 KECCAK256 DUP1 SLOAD PUSH10 0x10F0CF064DD59200000 SWAP3 SWAP1 PUSH2 0x1D15 SWAP1 DUP5 SWAP1 PUSH2 0x26F0 JUMP JUMPDEST SWAP1 SWAP2 SSTORE POP POP POP POP POP POP JUMP JUMPDEST PUSH1 0x0 PUSH2 0x1D2F PUSH3 0x15180 TIMESTAMP PUSH2 0x2784 JUMP JUMPDEST PUSH2 0x1D39 SWAP1 TIMESTAMP PUSH2 0x273B JUMP JUMPDEST SWAP1 POP PUSH1 0x75 SLOAD DUP2 EQ PUSH2 0x1D4F JUMPI PUSH1 0x75 DUP1 SLOAD PUSH1 0x74 SSTORE DUP2 SWAP1 SSTORE JUMPDEST DUP2 PUSH1 0x8 EQ DUP1 PUSH2 0x1D5E JUMPI POP DUP2 PUSH1 0x14 EQ JUMPDEST PUSH2 0x1D99 JUMPI PUSH1 0x40 MLOAD PUSH3 0x461BCD PUSH1 0xE5 SHL DUP2 MSTORE PUSH1 0x20 PUSH1 0x4 DUP3 ADD MSTORE PUSH1 0xC PUSH1 0x24 DUP3 ADD MSTORE PUSH12 0x1DDC9BDB99C8185B5BDD5B9D PUSH1 0xA2 SHL PUSH1 0x44 DUP3 ADD MSTORE PUSH1 0x64 ADD PUSH2 0x4DA JUMP JUMPDEST PUSH1 0x0 PUSH2 0x1DA6 PUSH2 0x3E8 PUSH2 0x23DF JUMP JUMPDEST PUSH1 0x66 SLOAD PUSH1 0x40 MLOAD PUSH4 0x7A94C565 PUSH1 0xE1 SHL DUP2 MSTORE SWAP2 SWAP3 POP PUSH1 0x1 PUSH1 0x1 PUSH1 0xA0 SHL SUB AND SWAP1 PUSH4 0xF5298ACA SWAP1 PUSH2 0x1DDC SWAP1 CALLER SWAP1 PUSH1 0x6 SWAP1 DUP9 SWAP1 PUSH1 0x4 ADD PUSH2 0x264F JUMP JUMPDEST PUSH1 0x0 PUSH1 0x40 MLOAD DUP1 DUP4 SUB DUP2 PUSH1 0x0 DUP8 DUP1 EXTCODESIZE ISZERO DUP1 ISZERO PUSH2 0x1DF6 JUMPI PUSH1 0x0 DUP1 REVERT JUMPDEST POP GAS CALL ISZERO DUP1 ISZERO PUSH2 0x1E0A JUMPI RETURNDATASIZE PUSH1 0x0 DUP1 RETURNDATACOPY RETURNDATASIZE PUSH1 0x0 REVERT JUMPDEST POP POP POP POP DUP3 PUSH1 0x8 EQ ISZERO PUSH2 0x1FCF JUMPI PUSH2 0x352 DUP2 GT ISZERO PUSH2 0x1EE3 JUMPI PUSH1 0x66 SLOAD PUSH1 0x40 MLOAD PUSH4 0xAB714FB PUSH1 0xE1 SHL DUP2 MSTORE PUSH1 0x1 PUSH1 0x1 PUSH1 0xA0 SHL SUB SWAP1 SWAP2 AND SWAP1 PUSH4 0x156E29F6 SWAP1 PUSH2 0x1E57 SWAP1 CALLER SWAP1 PUSH1 0x3 SWAP1 PUSH1 0x1 SWAP1 PUSH1 0x4 ADD PUSH2 0x264F JUMP JUMPDEST PUSH1 0x20 PUSH1 0x40 MLOAD DUP1 DUP4 SUB DUP2 PUSH1 0x0 DUP8 DUP1 EXTCODESIZE ISZERO DUP1 ISZERO PUSH2 0x1E71 JUMPI PUSH1 0x0 DUP1 REVERT JUMPDEST POP GAS CALL ISZERO DUP1 ISZERO PUSH2 0x1E85 JUMPI RETURNDATASIZE PUSH1 0x0 DUP1 RETURNDATACOPY RETURNDATASIZE PUSH1 0x0 REVERT JUMPDEST POP POP POP POP PUSH1 0x40 MLOAD RETURNDATASIZE PUSH1 0x1F NOT PUSH1 0x1F DUP3 ADD AND DUP3 ADD DUP1 PUSH1 0x40 MSTORE POP DUP2 ADD SWAP1 PUSH2 0x1EA9 SWAP2 SWAP1 PUSH2 0x25EC JUMP JUMPDEST POP PUSH1 0x6D DUP1 SLOAD SWAP1 PUSH1 0x0 PUSH2 0x1EBA DUP4 PUSH2 0x2752 JUMP JUMPDEST SWAP1 SWAP2 SSTORE POP POP PUSH1 0x40 MLOAD PUSH1 0x1 SWAP1 PUSH1 0x3 SWAP1 CALLER SWAP1 PUSH1 0x0 DUP1 MLOAD PUSH1 0x20 PUSH2 0x27DB DUP4 CODECOPY DUP2 MLOAD SWAP2 MSTORE SWAP1 PUSH1 0x0 SWAP1 LOG4 PUSH2 0x2186 JUMP JUMPDEST PUSH1 0x67 SLOAD PUSH1 0x6F SLOAD PUSH1 0x1 PUSH1 0x1 PUSH1 0xA0 SHL SUB SWAP1 SWAP2 AND SWAP1 PUSH4 0xA9059CBB SWAP1 CALLER SWAP1 PUSH2 0x1F15 SWAP1 PUSH11 0x3C2F7086AED236C807A1B5 PUSH1 0x26 SHL PUSH2 0x2708 JUMP JUMPDEST PUSH1 0x40 MLOAD PUSH1 0x1 PUSH1 0x1 PUSH1 0xE0 SHL SUB NOT PUSH1 0xE0 DUP6 SWAP1 SHL AND DUP2 MSTORE PUSH1 0x1 PUSH1 0x1 PUSH1 0xA0 SHL SUB SWAP1 SWAP3 AND PUSH1 0x4 DUP4 ADD MSTORE PUSH1 0x24 DUP3 ADD MSTORE PUSH1 0x44 ADD PUSH1 0x20 PUSH1 0x40 MLOAD DUP1 DUP4 SUB DUP2 PUSH1 0x0 DUP8 DUP1 EXTCODESIZE ISZERO DUP1 ISZERO PUSH2 0x1F5B JUMPI PUSH1 0x0 DUP1 REVERT JUMPDEST POP GAS CALL ISZERO DUP1 ISZERO PUSH2 0x1F6F JUMPI RETURNDATASIZE PUSH1 0x0 DUP1 RETURNDATACOPY RETURNDATASIZE PUSH1 0x0 REVERT JUMPDEST POP POP POP POP PUSH1 0x40 MLOAD RETURNDATASIZE PUSH1 0x1F NOT PUSH1 0x1F DUP3 ADD AND DUP3 ADD DUP1 PUSH1 0x40 MSTORE POP DUP2 ADD SWAP1 PUSH2 0x1F93 SWAP2 SWAP1 PUSH2 0x25EC JUMP JUMPDEST POP PUSH1 0x6F SLOAD PUSH2 0x1FAF SWAP1 PUSH11 0x3C2F7086AED236C807A1B5 PUSH1 0x26 SHL PUSH2 0x2708 JUMP JUMPDEST PUSH1 0x40 MLOAD PUSH1 0x0 SWAP1 CALLER SWAP1 PUSH1 0x0 DUP1 MLOAD PUSH1 0x20 PUSH2 0x27DB DUP4 CODECOPY DUP2 MLOAD SWAP2 MSTORE SWAP1 DUP4 SWAP1 LOG4 PUSH2 0x2186 JUMP JUMPDEST PUSH2 0x39D DUP2 GT ISZERO PUSH2 0x209A JUMPI PUSH1 0x66 SLOAD PUSH1 0x40 MLOAD PUSH4 0xAB714FB PUSH1 0xE1 SHL DUP2 MSTORE PUSH1 0x1 PUSH1 0x1 PUSH1 0xA0 SHL SUB SWAP1 SWAP2 AND SWAP1 PUSH4 0x156E29F6 SWAP1 PUSH2 0x200E SWAP1 CALLER SWAP1 PUSH1 0x4 SWAP1 PUSH1 0x1 SWAP1 DUP3 ADD PUSH2 0x264F JUMP JUMPDEST PUSH1 0x20 PUSH1 0x40 MLOAD DUP1 DUP4 SUB DUP2 PUSH1 0x0 DUP8 DUP1 EXTCODESIZE ISZERO DUP1 ISZERO PUSH2 0x2028 JUMPI PUSH1 0x0 DUP1 REVERT JUMPDEST POP GAS CALL ISZERO DUP1 ISZERO PUSH2 0x203C JUMPI RETURNDATASIZE PUSH1 0x0 DUP1 RETURNDATACOPY RETURNDATASIZE PUSH1 0x0 REVERT JUMPDEST POP POP POP POP PUSH1 0x40 MLOAD RETURNDATASIZE PUSH1 0x1F NOT PUSH1 0x1F DUP3 ADD AND DUP3 ADD DUP1 PUSH1 0x40 MSTORE POP DUP2 ADD SWAP1 PUSH2 0x2060 SWAP2 SWAP1 PUSH2 0x25EC JUMP JUMPDEST POP PUSH1 0x6C DUP1 SLOAD SWAP1 PUSH1 0x0 PUSH2 0x2071 DUP4 PUSH2 0x2752 JUMP JUMPDEST SWAP1 SWAP2 SSTORE POP POP PUSH1 0x40 MLOAD PUSH1 0x1 SWAP1 PUSH1 0x4 SWAP1 CALLER SWAP1 PUSH1 0x0 DUP1 MLOAD PUSH1 0x20 PUSH2 0x27DB DUP4 CODECOPY DUP2 MLOAD SWAP2 MSTORE SWAP1 PUSH1 0x0 SWAP1 LOG4 PUSH2 0x2186 JUMP JUMPDEST PUSH1 0x67 SLOAD PUSH1 0x6F SLOAD PUSH1 0x1 PUSH1 0x1 PUSH1 0xA0 SHL SUB SWAP1 SWAP2 AND SWAP1 PUSH4 0xA9059CBB SWAP1 CALLER SWAP1 PUSH2 0x20CE SWAP1 PUSH16 0x259DA6542D43623D04C5112000000000 PUSH2 0x2708 JUMP JUMPDEST PUSH1 0x40 MLOAD PUSH1 0x1 PUSH1 0x1 PUSH1 0xE0 SHL SUB NOT PUSH1 0xE0 DUP6 SWAP1 SHL AND DUP2 MSTORE PUSH1 0x1 PUSH1 0x1 PUSH1 0xA0 SHL SUB SWAP1 SWAP3 AND PUSH1 0x4 DUP4 ADD MSTORE PUSH1 0x24 DUP3 ADD MSTORE PUSH1 0x44 ADD PUSH1 0x20 PUSH1 0x40 MLOAD DUP1 DUP4 SUB DUP2 PUSH1 0x0 DUP8 DUP1 EXTCODESIZE ISZERO DUP1 ISZERO PUSH2 0x2114 JUMPI PUSH1 0x0 DUP1 REVERT JUMPDEST POP GAS CALL ISZERO DUP1 ISZERO PUSH2 0x2128 JUMPI RETURNDATASIZE PUSH1 0x0 DUP1 RETURNDATACOPY RETURNDATASIZE PUSH1 0x0 REVERT JUMPDEST POP POP POP POP PUSH1 0x40 MLOAD RETURNDATASIZE PUSH1 0x1F NOT PUSH1 0x1F DUP3 ADD AND DUP3 ADD DUP1 PUSH1 0x40 MSTORE POP DUP2 ADD SWAP1 PUSH2 0x214C SWAP2 SWAP1 PUSH2 0x25EC JUMP JUMPDEST POP PUSH1 0x6F SLOAD PUSH2 0x216A SWAP1 PUSH16 0x259DA6542D43623D04C5112000000000 PUSH2 0x2708 JUMP JUMPDEST PUSH1 0x40 MLOAD PUSH1 0x0 SWAP1 CALLER SWAP1 PUSH1 0x0 DUP1 MLOAD PUSH1 0x20 PUSH2 0x27DB DUP4 CODECOPY DUP2 MLOAD SWAP2 MSTORE SWAP1 DUP4 SWAP1 LOG4 JUMPDEST PUSH1 0x75 SLOAD PUSH1 0x0 SWAP1 DUP2 MSTORE PUSH1 0x78 PUSH1 0x20 SWAP1 DUP2 MSTORE PUSH1 0x40 DUP1 DUP4 KECCAK256 CALLER DUP5 MSTORE SWAP1 SWAP2 MSTORE DUP2 KECCAK256 PUSH1 0x1 ADD DUP1 SLOAD DUP6 SWAP3 SWAP1 PUSH2 0x21B5 SWAP1 DUP5 SWAP1 PUSH2 0x26F0 JUMP JUMPDEST SWAP1 SWAP2 SSTORE POP POP PUSH1 0x75 SLOAD PUSH1 0x0 SWAP1 DUP2 MSTORE PUSH1 0x77 PUSH1 0x20 SWAP1 DUP2 MSTORE PUSH1 0x40 DUP1 DUP4 KECCAK256 PUSH1 0x3 ADD SLOAD PUSH1 0x78 DUP4 MSTORE DUP2 DUP5 KECCAK256 CALLER DUP6 MSTORE SWAP1 SWAP3 MSTORE SWAP1 SWAP2 KECCAK256 PUSH1 0x1 ADD SLOAD GT ISZERO PUSH2 0x223B JUMPI PUSH1 0x75 DUP1 SLOAD PUSH1 0x0 DUP2 DUP2 MSTORE PUSH1 0x78 PUSH1 0x20 SWAP1 DUP2 MSTORE PUSH1 0x40 DUP1 DUP4 KECCAK256 CALLER DUP1 DUP6 MSTORE SWAP1 DUP4 MSTORE DUP2 DUP5 KECCAK256 PUSH1 0x1 ADD SLOAD SWAP5 DUP5 MSTORE PUSH1 0x77 SWAP1 SWAP3 MSTORE DUP1 DUP4 KECCAK256 PUSH1 0x3 ADD SWAP4 SWAP1 SWAP4 SSTORE SWAP3 SLOAD DUP2 MSTORE KECCAK256 PUSH1 0x2 ADD DUP1 SLOAD PUSH1 0x1 PUSH1 0x1 PUSH1 0xA0 SHL SUB NOT AND SWAP1 SWAP2 OR SWAP1 SSTORE JUMPDEST PUSH1 0x75 SLOAD PUSH1 0x0 SWAP1 DUP2 MSTORE PUSH1 0x76 PUSH1 0x20 MSTORE PUSH1 0x40 DUP2 KECCAK256 DUP1 SLOAD PUSH10 0x10F0CF064DD59200000 SWAP3 SWAP1 PUSH2 0x2266 SWAP1 DUP5 SWAP1 PUSH2 0x26F0 JUMP JUMPDEST SWAP1 SWAP2 SSTORE POP POP PUSH1 0x75 DUP1 SLOAD PUSH1 0x0 SWAP1 DUP2 MSTORE PUSH1 0x77 PUSH1 0x20 MSTORE PUSH1 0x40 DUP1 DUP3 KECCAK256 PUSH1 0x4 ADD DUP1 SLOAD PUSH1 0x1 PUSH1 0x1 PUSH1 0xA0 SHL SUB NOT AND CALLER OR SWAP1 SSTORE SWAP2 SLOAD DUP2 MSTORE KECCAK256 TIMESTAMP PUSH1 0x5 SWAP1 SWAP2 ADD SSTORE POP POP POP JUMP JUMPDEST PUSH1 0x33 SLOAD PUSH1 0x1 PUSH1 0x1 PUSH1 0xA0 SHL SUB AND CALLER EQ PUSH2 0x22CC JUMPI PUSH1 0x40 MLOAD PUSH3 0x461BCD PUSH1 0xE5 SHL DUP2 MSTORE PUSH1 0x4 ADD PUSH2 0x4DA SWAP1 PUSH2 0x2670 JUMP JUMPDEST PUSH1 0x1 PUSH1 0x1 PUSH1 0xA0 SHL SUB DUP2 AND PUSH2 0x2331 JUMPI PUSH1 0x40 MLOAD PUSH3 0x461BCD PUSH1 0xE5 SHL DUP2 MSTORE PUSH1 0x20 PUSH1 0x4 DUP3 ADD MSTORE PUSH1 0x26 PUSH1 0x24 DUP3 ADD MSTORE PUSH32 0x4F776E61626C653A206E6577206F776E657220697320746865207A65726F2061 PUSH1 0x44 DUP3 ADD MSTORE PUSH6 0x646472657373 PUSH1 0xD0 SHL PUSH1 0x64 DUP3 ADD MSTORE PUSH1 0x84 ADD PUSH2 0x4DA JUMP JUMPDEST PUSH2 0x6FF DUP2 JUMPDEST PUSH1 0x33 DUP1 SLOAD PUSH1 0x1 PUSH1 0x1 PUSH1 0xA0 SHL SUB DUP4 DUP2 AND PUSH1 0x1 PUSH1 0x1 PUSH1 0xA0 SHL SUB NOT DUP4 AND DUP2 OR SWAP1 SWAP4 SSTORE PUSH1 0x40 MLOAD SWAP2 AND SWAP2 SWAP1 DUP3 SWAP1 PUSH32 0x8BE0079C531659141344CD1FD0A4F28419497F9722A3DAAFE3B4186F6B6457E0 SWAP1 PUSH1 0x0 SWAP1 LOG3 POP POP JUMP JUMPDEST PUSH1 0x0 SLOAD PUSH2 0x100 SWAP1 DIV PUSH1 0xFF AND PUSH2 0x5C6 JUMPI PUSH1 0x40 MLOAD PUSH3 0x461BCD PUSH1 0xE5 SHL DUP2 MSTORE PUSH1 0x4 ADD PUSH2 0x4DA SWAP1 PUSH2 0x26A5 JUMP JUMPDEST PUSH1 0x0 SLOAD PUSH2 0x100 SWAP1 DIV PUSH1 0xFF AND PUSH2 0x23D6 JUMPI PUSH1 0x40 MLOAD PUSH3 0x461BCD PUSH1 0xE5 SHL DUP2 MSTORE PUSH1 0x4 ADD PUSH2 0x4DA SWAP1 PUSH2 0x26A5 JUMP JUMPDEST PUSH2 0x5C6 CALLER PUSH2 0x2336 JUMP JUMPDEST PUSH1 0x0 DUP1 DIFFICULTY TIMESTAMP PUSH1 0x70 SLOAD PUSH1 0x40 MLOAD PUSH1 0x20 ADD PUSH2 0x240A SWAP4 SWAP3 SWAP2 SWAP1 SWAP3 DUP4 MSTORE PUSH1 0x20 DUP4 ADD SWAP2 SWAP1 SWAP2 MSTORE PUSH1 0x40 DUP3 ADD MSTORE PUSH1 0x60 ADD SWAP1 JUMP JUMPDEST PUSH1 0x40 DUP1 MLOAD PUSH1 0x1F NOT DUP2 DUP5 SUB ADD DUP2 MSTORE SWAP2 SWAP1 MSTORE DUP1 MLOAD PUSH1 0x20 SWAP1 SWAP2 ADD KECCAK256 PUSH1 0x70 DUP1 SLOAD SWAP2 SWAP3 POP PUSH1 0x0 PUSH2 0x2434 DUP4 PUSH2 0x2769 JUMP JUMPDEST SWAP1 SWAP2 SSTORE POP PUSH2 0x2444 SWAP1 POP DUP4 DUP3 PUSH2 0x2784 JUMP JUMPDEST PUSH2 0x244F SWAP1 PUSH1 0x1 PUSH2 0x26F0 JUMP JUMPDEST SWAP4 SWAP3 POP POP POP JUMP JUMPDEST DUP3 DUP1 SLOAD DUP3 DUP3 SSTORE SWAP1 PUSH1 0x0 MSTORE PUSH1 0x20 PUSH1 0x0 KECCAK256 SWAP1 DUP2 ADD SWAP3 DUP3 ISZERO PUSH2 0x2491 JUMPI SWAP2 PUSH1 0x20 MUL DUP3 ADD JUMPDEST DUP3 DUP2 GT ISZERO PUSH2 0x2491 JUMPI DUP3 MLOAD DUP3 SSTORE SWAP2 PUSH1 0x20 ADD SWAP2 SWAP1 PUSH1 0x1 ADD SWAP1 PUSH2 0x2476 JUMP JUMPDEST POP PUSH2 0x249D SWAP3 SWAP2 POP PUSH2 0x24E1 JUMP JUMPDEST POP SWAP1 JUMP JUMPDEST DUP3 DUP1 SLOAD DUP3 DUP3 SSTORE SWAP1 PUSH1 0x0 MSTORE PUSH1 0x20 PUSH1 0x0 KECCAK256 SWAP1 DUP2 ADD SWAP3 DUP3 ISZERO PUSH2 0x2491 JUMPI SWAP2 PUSH1 0x20 MUL DUP3 ADD JUMPDEST DUP3 DUP2 GT ISZERO PUSH2 0x2491 JUMPI DUP3 MLOAD DUP3 SWAP1 PUSH1 0xFF AND SWAP1 SSTORE SWAP2 PUSH1 0x20 ADD SWAP2 SWAP1 PUSH1 0x1 ADD SWAP1 PUSH2 0x24C1 JUMP JUMPDEST JUMPDEST DUP1 DUP3 GT ISZERO PUSH2 0x249D JUMPI PUSH1 0x0 DUP2 SSTORE PUSH1 0x1 ADD PUSH2 0x24E2 JUMP JUMPDEST DUP1 CALLDATALOAD PUSH1 0x1 PUSH1 0x1 PUSH1 0xA0 SHL SUB DUP2 AND DUP2 EQ PUSH2 0x250D JUMPI PUSH1 0x0 DUP1 REVERT JUMPDEST SWAP2 SWAP1 POP JUMP JUMPDEST PUSH1 0x0 PUSH1 0x20 DUP3 DUP5 SUB SLT ISZERO PUSH2 0x2523 JUMPI DUP1 DUP2 REVERT JUMPDEST PUSH2 0x244F DUP3 PUSH2 0x24F6 JUMP JUMPDEST PUSH1 0x0 PUSH1 0x20 DUP1 DUP4 DUP6 SUB SLT ISZERO PUSH2 0x253E JUMPI DUP2 DUP3 REVERT JUMPDEST DUP3 CALLDATALOAD PUSH8 0xFFFFFFFFFFFFFFFF DUP1 DUP3 GT ISZERO PUSH2 0x2555 JUMPI DUP4 DUP5 REVERT JUMPDEST DUP2 DUP6 ADD SWAP2 POP DUP6 PUSH1 0x1F DUP4 ADD SLT PUSH2 0x2568 JUMPI DUP4 DUP5 REVERT JUMPDEST DUP2 CALLDATALOAD DUP2 DUP2 GT ISZERO PUSH2 0x257A JUMPI PUSH2 0x257A PUSH2 0x27C4 JUMP JUMPDEST DUP1 PUSH1 0x5 SHL PUSH1 0x40 MLOAD PUSH1 0x1F NOT PUSH1 0x3F DUP4 ADD AND DUP2 ADD DUP2 DUP2 LT DUP6 DUP3 GT OR ISZERO PUSH2 0x259F JUMPI PUSH2 0x259F PUSH2 0x27C4 JUMP JUMPDEST PUSH1 0x40 MSTORE DUP3 DUP2 MSTORE DUP6 DUP2 ADD SWAP4 POP DUP5 DUP7 ADD DUP3 DUP7 ADD DUP8 ADD DUP11 LT ISZERO PUSH2 0x25BD JUMPI DUP8 DUP9 REVERT JUMPDEST DUP8 SWAP6 POP JUMPDEST DUP4 DUP7 LT ISZERO PUSH2 0x25DF JUMPI DUP1 CALLDATALOAD DUP6 MSTORE PUSH1 0x1 SWAP6 SWAP1 SWAP6 ADD SWAP5 SWAP4 DUP7 ADD SWAP4 DUP7 ADD PUSH2 0x25C1 JUMP JUMPDEST POP SWAP9 SWAP8 POP POP POP POP POP POP POP POP JUMP JUMPDEST PUSH1 0x0 PUSH1 0x20 DUP3 DUP5 SUB SLT ISZERO PUSH2 0x25FD JUMPI DUP1 DUP2 REVERT JUMPDEST DUP2 MLOAD DUP1 ISZERO ISZERO DUP2 EQ PUSH2 0x244F JUMPI DUP2 DUP3 REVERT JUMPDEST PUSH1 0x0 PUSH1 0x20 DUP3 DUP5 SUB SLT ISZERO PUSH2 0x261D JUMPI DUP1 DUP2 REVERT JUMPDEST POP CALLDATALOAD SWAP2 SWAP1 POP JUMP JUMPDEST PUSH1 0x0 DUP1 PUSH1 0x40 DUP4 DUP6 SUB SLT ISZERO PUSH2 0x2636 JUMPI DUP1 DUP2 REVERT JUMPDEST DUP3 CALLDATALOAD SWAP2 POP PUSH2 0x2646 PUSH1 0x20 DUP5 ADD PUSH2 0x24F6 JUMP JUMPDEST SWAP1 POP SWAP3 POP SWAP3 SWAP1 POP JUMP JUMPDEST PUSH1 0x1 PUSH1 0x1 PUSH1 0xA0 SHL SUB SWAP4 SWAP1 SWAP4 AND DUP4 MSTORE PUSH1 0x20 DUP4 ADD SWAP2 SWAP1 SWAP2 MSTORE PUSH1 0x40 DUP3 ADD MSTORE PUSH1 0x60 ADD SWAP1 JUMP JUMPDEST PUSH1 0x20 DUP1 DUP3 MSTORE DUP2 DUP2 ADD MSTORE PUSH32 0x4F776E61626C653A2063616C6C6572206973206E6F7420746865206F776E6572 PUSH1 0x40 DUP3 ADD MSTORE PUSH1 0x60 ADD SWAP1 JUMP JUMPDEST PUSH1 0x20 DUP1 DUP3 MSTORE PUSH1 0x2B SWAP1 DUP3 ADD MSTORE PUSH32 0x496E697469616C697A61626C653A20636F6E7472616374206973206E6F742069 PUSH1 0x40 DUP3 ADD MSTORE PUSH11 0x6E697469616C697A696E67 PUSH1 0xA8 SHL PUSH1 0x60 DUP3 ADD MSTORE PUSH1 0x80 ADD SWAP1 JUMP JUMPDEST PUSH1 0x0 DUP3 NOT DUP3 GT ISZERO PUSH2 0x2703 JUMPI PUSH2 0x2703 PUSH2 0x2798 JUMP JUMPDEST POP ADD SWAP1 JUMP JUMPDEST PUSH1 0x0 DUP3 PUSH2 0x2717 JUMPI PUSH2 0x2717 PUSH2 0x27AE JUMP JUMPDEST POP DIV SWAP1 JUMP JUMPDEST PUSH1 0x0 DUP2 PUSH1 0x0 NOT DIV DUP4 GT DUP3 ISZERO ISZERO AND ISZERO PUSH2 0x2736 JUMPI PUSH2 0x2736 PUSH2 0x2798 JUMP JUMPDEST POP MUL SWAP1 JUMP JUMPDEST PUSH1 0x0 DUP3 DUP3 LT ISZERO PUSH2 0x274D JUMPI PUSH2 0x274D PUSH2 0x2798 JUMP JUMPDEST POP SUB SWAP1 JUMP JUMPDEST PUSH1 0x0 DUP2 PUSH2 0x2761 JUMPI PUSH2 0x2761 PUSH2 0x2798 JUMP JUMPDEST POP PUSH1 0x0 NOT ADD SWAP1 JUMP JUMPDEST PUSH1 0x0 PUSH1 0x0 NOT DUP3 EQ ISZERO PUSH2 0x277D JUMPI PUSH2 0x277D PUSH2 0x2798 JUMP JUMPDEST POP PUSH1 0x1 ADD SWAP1 JUMP JUMPDEST PUSH1 0x0 DUP3 PUSH2 0x2793 JUMPI PUSH2 0x2793 PUSH2 0x27AE JUMP JUMPDEST POP MOD SWAP1 JUMP JUMPDEST PUSH4 0x4E487B71 PUSH1 0xE0 SHL PUSH1 0x0 MSTORE PUSH1 0x11 PUSH1 0x4 MSTORE PUSH1 0x24 PUSH1 0x0 REVERT JUMPDEST PUSH4 0x4E487B71 PUSH1 0xE0 SHL PUSH1 0x0 MSTORE PUSH1 0x12 PUSH1 0x4 MSTORE PUSH1 0x24 PUSH1 0x0 REVERT JUMPDEST PUSH4 0x4E487B71 PUSH1 0xE0 SHL PUSH1 0x0 MSTORE PUSH1 0x41 PUSH1 0x4 MSTORE PUSH1 0x24 PUSH1 0x0 REVERT INVALID MUL 0xA6 LOG2 0xBE PUSH18 0x3FEDF52F113C0A759F1C1A23A113476D9B1B BYTE 0x2A GASLIMIT EXTCODECOPY SWAP2 MOD PUSH1 0xDE 0x4E LOG2 PUSH5 0x6970667358 0x22 SLT KECCAK256 PUSH29 0x7A4372F26607B05454A57A974AF396815FF7F35A6AE1978A9AD7F6B4CD 0x2E 0xB0 PUSH5 0x736F6C6343 STOP ADDMOD DIV STOP CALLER "
		},
		"gasEstimates": {
			"creation": {
				"codeDepositCost": "2057600",
				"executionCost": "2185",
				"totalCost": "2059785"
			},
			"external": {
				"BVG()": "1104",
				"BvgPrice()": "1052",
				"box()": "1105",
				"claimReward()": "infinite",
				"coutingReward(address)": "9322",
				"currentDay()": "1030",
				"extractCreation()": "infinite",
				"extractCreationAmount()": "1073",
				"extractNormal(uint256)": "infinite",
				"extractPioneerPlanet(uint256)": "infinite",
				"extractTimes(address)": "1296",
				"homePlanet()": "1028",
				"initialize()": "infinite",
				"isClaimed(uint256,address)": "1396",
				"lastDay()": "1074",
				"openBox(uint256)": "infinite",
				"openInfo(uint256)": "5494",
				"owner()": "1142",
				"pioneerPlanet()": "1030",
				"renounceOwnership()": "23463",
				"rewardPool(uint256)": "1217",
				"setBVG(address)": "22100",
				"setBox(address)": "22102",
				"setExtractNeed(uint256[])": "infinite",
				"setTicket(address)": "22080",
				"ticket()": "1149",
				"totalBox()": "1095",
				"transferOwnership(address)": "23711",
				"userInfo(uint256,address)": "2224"
			},
			"internal": {
				"rand(uint256)": "infinite"
			}
		},
		"methodIdentifiers": {
			"BVG()": "87464389",
			"BvgPrice()": "658104d8",
			"box()": "754215a1",
			"claimReward()": "b88a802f",
			"coutingReward(address)": "a0020fcb",
			"currentDay()": "5c9302c9",
			"extractCreation()": "cff64330",
			"extractCreationAmount()": "be4c6e57",
			"extractNormal(uint256)": "cd937e35",
			"extractPioneerPlanet(uint256)": "f1e94ad3",
			"extractTimes(address)": "f2c39385",
			"homePlanet()": "ebb83ab1",
			"initialize()": "8129fc1c",
			"isClaimed(uint256,address)": "d2ef0795",
			"lastDay()": "6b0c932d",
			"openBox(uint256)": "b1e5e2b7",
			"openInfo(uint256)": "d4573fd9",
			"owner()": "8da5cb5b",
			"pioneerPlanet()": "8ff9b63d",
			"renounceOwnership()": "715018a6",
			"rewardPool(uint256)": "7706c4ba",
			"setBVG(address)": "88e14d9c",
			"setBox(address)": "537627ab",
			"setExtractNeed(uint256[])": "10b49c2b",
			"setTicket(address)": "1c65c78b",
			"ticket()": "6cc25db7",
			"totalBox()": "e75aa3d7",
			"transferOwnership(address)": "f2fde38b",
			"userInfo(uint256,address)": "93f1a40b"
		}
	},
	"abi": [
		{
			"anonymous": false,
			"inputs": [
				{
					"indexed": true,
					"internalType": "address",
					"name": "previousOwner",
					"type": "address"
				},
				{
					"indexed": true,
					"internalType": "address",
					"name": "newOwner",
					"type": "address"
				}
			],
			"name": "OwnershipTransferred",
			"type": "event"
		},
		{
			"anonymous": false,
			"inputs": [
				{
					"indexed": true,
					"internalType": "address",
					"name": "addr",
					"type": "address"
				},
				{
					"indexed": true,
					"internalType": "uint256",
					"name": "reward",
					"type": "uint256"
				},
				{
					"indexed": true,
					"internalType": "uint256",
					"name": "amount",
					"type": "uint256"
				}
			],
			"name": "Reward",
			"type": "event"
		},
		{
			"inputs": [],
			"name": "BVG",
			"outputs": [
				{
					"internalType": "contract IERC20",
					"name": "",
					"type": "address"
				}
			],
			"stateMutability": "view",
			"type": "function"
		},
		{
			"inputs": [],
			"name": "BvgPrice",
			"outputs": [
				{
					"internalType": "uint256",
					"name": "",
					"type": "uint256"
				}
			],
			"stateMutability": "view",
			"type": "function"
		},
		{
			"inputs": [],
			"name": "box",
			"outputs": [
				{
					"internalType": "contract IHalo",
					"name": "",
					"type": "address"
				}
			],
			"stateMutability": "view",
			"type": "function"
		},
		{
			"inputs": [],
			"name": "claimReward",
			"outputs": [],
			"stateMutability": "nonpayable",
			"type": "function"
		},
		{
			"inputs": [
				{
					"internalType": "address",
					"name": "addr",
					"type": "address"
				}
			],
			"name": "coutingReward",
			"outputs": [
				{
					"internalType": "uint256",
					"name": "",
					"type": "uint256"
				}
			],
			"stateMutability": "view",
			"type": "function"
		},
		{
			"inputs": [],
			"name": "currentDay",
			"outputs": [
				{
					"internalType": "uint256",
					"name": "",
					"type": "uint256"
				}
			],
			"stateMutability": "view",
			"type": "function"
		},
		{
			"inputs": [],
			"name": "extractCreation",
			"outputs": [],
			"stateMutability": "nonpayable",
			"type": "function"
		},
		{
			"inputs": [],
			"name": "extractCreationAmount",
			"outputs": [
				{
					"internalType": "uint256",
					"name": "",
					"type": "uint256"
				}
			],
			"stateMutability": "view",
			"type": "function"
		},
		{
			"inputs": [
				{
					"internalType": "uint256",
					"name": "amount",
					"type": "uint256"
				}
			],
			"name": "extractNormal",
			"outputs": [],
			"stateMutability": "nonpayable",
			"type": "function"
		},
		{
			"inputs": [
				{
					"internalType": "uint256",
					"name": "amount",
					"type": "uint256"
				}
			],
			"name": "extractPioneerPlanet",
			"outputs": [],
			"stateMutability": "nonpayable",
			"type": "function"
		},
		{
			"inputs": [
				{
					"internalType": "address",
					"name": "",
					"type": "address"
				}
			],
			"name": "extractTimes",
			"outputs": [
				{
					"internalType": "uint256",
					"name": "",
					"type": "uint256"
				}
			],
			"stateMutability": "view",
			"type": "function"
		},
		{
			"inputs": [],
			"name": "homePlanet",
			"outputs": [
				{
					"internalType": "uint256",
					"name": "",
					"type": "uint256"
				}
			],
			"stateMutability": "view",
			"type": "function"
		},
		{
			"inputs": [],
			"name": "initialize",
			"outputs": [],
			"stateMutability": "nonpayable",
			"type": "function"
		},
		{
			"inputs": [
				{
					"internalType": "uint256",
					"name": "",
					"type": "uint256"
				},
				{
					"internalType": "address",
					"name": "",
					"type": "address"
				}
			],
			"name": "isClaimed",
			"outputs": [
				{
					"internalType": "bool",
					"name": "",
					"type": "bool"
				}
			],
			"stateMutability": "view",
			"type": "function"
		},
		{
			"inputs": [],
			"name": "lastDay",
			"outputs": [
				{
					"internalType": "uint256",
					"name": "",
					"type": "uint256"
				}
			],
			"stateMutability": "view",
			"type": "function"
		},
		{
			"inputs": [
				{
					"internalType": "uint256",
					"name": "tokenId",
					"type": "uint256"
				}
			],
			"name": "openBox",
			"outputs": [],
			"stateMutability": "nonpayable",
			"type": "function"
		},
		{
			"inputs": [
				{
					"internalType": "uint256",
					"name": "",
					"type": "uint256"
				}
			],
			"name": "openInfo",
			"outputs": [
				{
					"internalType": "address",
					"name": "mostOpen",
					"type": "address"
				},
				{
					"internalType": "uint256",
					"name": "openAmount",
					"type": "uint256"
				},
				{
					"internalType": "address",
					"name": "mostCost",
					"type": "address"
				},
				{
					"internalType": "uint256",
					"name": "costAmount",
					"type": "uint256"
				},
				{
					"internalType": "address",
					"name": "lastExtract",
					"type": "address"
				},
				{
					"internalType": "uint256",
					"name": "openTime",
					"type": "uint256"
				}
			],
			"stateMutability": "view",
			"type": "function"
		},
		{
			"inputs": [],
			"name": "owner",
			"outputs": [
				{
					"internalType": "address",
					"name": "",
					"type": "address"
				}
			],
			"stateMutability": "view",
			"type": "function"
		},
		{
			"inputs": [],
			"name": "pioneerPlanet",
			"outputs": [
				{
					"internalType": "uint256",
					"name": "",
					"type": "uint256"
				}
			],
			"stateMutability": "view",
			"type": "function"
		},
		{
			"inputs": [],
			"name": "renounceOwnership",
			"outputs": [],
			"stateMutability": "nonpayable",
			"type": "function"
		},
		{
			"inputs": [
				{
					"internalType": "uint256",
					"name": "",
					"type": "uint256"
				}
			],
			"name": "rewardPool",
			"outputs": [
				{
					"internalType": "uint256",
					"name": "",
					"type": "uint256"
				}
			],
			"stateMutability": "view",
			"type": "function"
		},
		{
			"inputs": [
				{
					"internalType": "address",
					"name": "addr",
					"type": "address"
				}
			],
			"name": "setBVG",
			"outputs": [],
			"stateMutability": "nonpayable",
			"type": "function"
		},
		{
			"inputs": [
				{
					"internalType": "address",
					"name": "addr",
					"type": "address"
				}
			],
			"name": "setBox",
			"outputs": [],
			"stateMutability": "nonpayable",
			"type": "function"
		},
		{
			"inputs": [
				{
					"internalType": "uint256[]",
					"name": "need",
					"type": "uint256[]"
				}
			],
			"name": "setExtractNeed",
			"outputs": [],
			"stateMutability": "nonpayable",
			"type": "function"
		},
		{
			"inputs": [
				{
					"internalType": "address",
					"name": "addr",
					"type": "address"
				}
			],
			"name": "setTicket",
			"outputs": [],
			"stateMutability": "nonpayable",
			"type": "function"
		},
		{
			"inputs": [],
			"name": "ticket",
			"outputs": [
				{
					"internalType": "contract IHalo1155",
					"name": "",
					"type": "address"
				}
			],
			"stateMutability": "view",
			"type": "function"
		},
		{
			"inputs": [],
			"name": "totalBox",
			"outputs": [
				{
					"internalType": "uint256",
					"name": "",
					"type": "uint256"
				}
			],
			"stateMutability": "view",
			"type": "function"
		},
		{
			"inputs": [
				{
					"internalType": "address",
					"name": "newOwner",
					"type": "address"
				}
			],
			"name": "transferOwnership",
			"outputs": [],
			"stateMutability": "nonpayable",
			"type": "function"
		},
		{
			"inputs": [
				{
					"internalType": "uint256",
					"name": "",
					"type": "uint256"
				},
				{
					"internalType": "address",
					"name": "",
					"type": "address"
				}
			],
			"name": "userInfo",
			"outputs": [
				{
					"internalType": "uint256",
					"name": "openAmount",
					"type": "uint256"
				},
				{
					"internalType": "uint256",
					"name": "costAmount",
					"type": "uint256"
				}
			],
			"stateMutability": "view",
			"type": "function"
		}
	]
}