{
	"data": {
		"bytecode": {
			"linkReferences": {},
			"object": "608060405234801561001057600080fd5b506138a4806100206000396000f3fe608060405234801561001057600080fd5b50600436106101da5760003560e01c80638129fc1c11610104578063db71dcdc116100a2578063f2fde38b11610071578063f2fde38b1461040d578063f36eb67114610420578063f610e98214610440578063f69e20461461046257600080fd5b8063db71dcdc146103b2578063dba71376146103d4578063dbf8b168146103e7578063f2a4a82e146103fa57600080fd5b80639a68308f116100de5780639a68308f146103665780639fd0e13814610379578063ad9113871461038c578063b4dac3331461039f57600080fd5b80638129fc1c1461033a5780638443bea6146103425780638da5cb5b1461035557600080fd5b80632e8e7d7a1161017c5780636dcea85f1161014b5780636dcea85f146102f9578063715018a61461030c578063773b15431461031457806380f556051461032757600080fd5b80632e8e7d7a146102905780633144286b146102b05780635aef7de6146102d357806361a91290146102e657600080fd5b8063165ed276116101b8578063165ed276146102375780631d97b39e1461024a57806322be3de11461026a5780632be682d41461027d57600080fd5b806301c211c7146101df5780630de307fe1461020f578063110a2ded14610224575b600080fd5b6065546101f2906001600160a01b031681565b6040516001600160a01b0390911681526020015b60405180910390f35b61022261021d36600461319b565b610475565b005b61022261023236600461319b565b6104ca565b61022261024536600461319b565b610516565b61025d61025836600461319b565b610562565b604051610206919061346e565b6068546101f2906001600160a01b031681565b61022261028b36600461319b565b6108e4565b6102a361029e366004613355565b610930565b60405161020691906135e7565b6102c36102be36600461319b565b610e79565b604051610206949392919061368f565b606a546101f2906001600160a01b031681565b6102226102f436600461319b565b61101b565b61022261030736600461319b565b611067565b6102226110b3565b61022261032236600461319b565b6110e9565b606d546101f2906001600160a01b031681565b610222611135565b6066546101f2906001600160a01b031681565b6033546001600160a01b03166101f2565b606e546101f2906001600160a01b031681565b61022261038736600461319b565b6111fe565b61022261039a36600461319b565b61124a565b6069546101f2906001600160a01b031681565b6103c56103c0366004613323565b611296565b6040516102069392919061359d565b6102226103e236600461319b565b61152b565b606c546101f2906001600160a01b031681565b6067546101f2906001600160a01b031681565b61022261041b36600461319b565b611577565b61043361042e36600461319b565b61160f565b60405161020691906134e8565b61045361044e366004613323565b6118f5565b60405161020693929190613511565b606b546101f2906001600160a01b031681565b6033546001600160a01b031633146104a85760405162461bcd60e51b815260040161049f9061360f565b60405180910390fd5b606580546001600160a01b0319166001600160a01b0392909216919091179055565b6033546001600160a01b031633146104f45760405162461bcd60e51b815260040161049f9061360f565b606c80546001600160a01b0319166001600160a01b0392909216919091179055565b6033546001600160a01b031633146105405760405162461bcd60e51b815260040161049f9061360f565b606780546001600160a01b0319166001600160a01b0392909216919091179055565b606854604051637ed81e3360e11b81526001600160a01b038381166004830152606092600092839283926105f69291169063fdb03c66906024015b60006040518083038186803b1580156105b557600080fd5b505afa1580156105c9573d6000803e3d6000fd5b505050506040513d6000823e601f3d908101601f191682016040526105f19190810190613264565b6125c2565b60655460405163136f8d5f60e31b81526001600160a01b0388811660048301526001602483015292935060009290911690639b7c6af89060440160006040518083038186803b15801561064857600080fd5b505afa15801561065c573d6000803e3d6000fd5b505050506040513d6000823e601f3d908101601f191682016040526106849190810190613264565b606d546040516369343d0d60e01b8152600160048201526001600160a01b0389811660248301529293506000926106c59216906369343d0d9060440161059d565b905060006106d48484846127f0565b90508051866106e39190613740565b606a546040516307dede8960e41b81526001600160a01b038b8116600483015292985060009290911690637dede8909060240160006040518083038186803b15801561072e57600080fd5b505afa158015610742573d6000803e3d6000fd5b505050506040513d6000823e601f3d908101601f1916820160405261076a9190810190613264565b90508051876107799190613740565b965060008767ffffffffffffffff81111561079657610796613843565b6040519080825280602002602001820160405280156107c957816020015b60608152602001906001900390816107b45790505b50905060005b8351811015610857576107fa8482815181106107ed576107ed61382d565b6020026020010151612980565b60405160200161080a9190613439565b60405160208183030381529060405282898151811061082b5761082b61382d565b60200260200101819052508780610841906137d2565b985050808061084f906137d2565b9150506107cf565b5060005b82518110156108d6576108798382815181106107ed576107ed61382d565b604051602001610889919061341d565b6040516020818303038152906040528289815181106108aa576108aa61382d565b602002602001018190525087806108c0906137d2565b98505080806108ce906137d2565b91505061085b565b509998505050505050505050565b6033546001600160a01b0316331461090e5760405162461bcd60e51b815260040161049f9061360f565b606b80546001600160a01b0319166001600160a01b0392909216919091179055565b610938613103565b606b54606554604051633150984960e21b8152600481018690526001600160a01b039283169263f0a5db9c92169063c54261249060240160206040518083038186803b15801561098757600080fd5b505afa15801561099b573d6000803e3d6000fd5b505050506040513d601f19601f820116820180604052508101906109bf919061333c565b6040518263ffffffff1660e01b81526004016109dd91815260200190565b60206040518083038186803b1580156109f557600080fd5b505afa158015610a09573d6000803e3d6000fd5b505050506040513d601f19601f82011682018060405250810190610a2d919061333c565b81528151610a3a57610e73565b606554604051633150984960e21b8152600481018590526000916001600160a01b03169063c54261249060240160206040518083038186803b158015610a7f57600080fd5b505afa158015610a93573d6000803e3d6000fd5b505050506040513d601f19601f82011682018060405250810190610ab7919061333c565b606554604051631c4c108760e31b8152600481018390529192506001600160a01b03169063e26084389060240160206040518083038186803b158015610afc57600080fd5b505afa158015610b10573d6000803e3d6000fd5b505050506040513d601f19601f82011682018060405250810190610b34919061333c565b60208301526003811015610bd2576065546001600160a01b031663e2608438610b5e836001613740565b6040518263ffffffff1660e01b8152600401610b7c91815260200190565b60206040518083038186803b158015610b9457600080fd5b505afa158015610ba8573d6000803e3d6000fd5b505050506040513d601f19601f82011682018060405250810190610bcc919061333c565b60408301525b60005b8351811015610cad57606554845142916001600160a01b0316906396822dae90879085908110610c0757610c0761382d565b60200260200101516040518263ffffffff1660e01b8152600401610c2d91815260200190565b60206040518083038186803b158015610c4557600080fd5b505afa158015610c59573d6000803e3d6000fd5b505050506040513d601f19601f82011682018060405250810190610c7d919061333c565b610c87919061378b565b606084018051610c98908390613740565b90525080610ca5816137d2565b915050610bd5565b5060655460405163044947c760e21b8152600481018690526000916001600160a01b0316906311251f1c9060240160206040518083038186803b158015610cf357600080fd5b505afa158015610d07573d6000803e3d6000fd5b505050506040513d601f19601f82011682018060405250810190610d2b919061333c565b90506000612710610d3f83622e248061376c565b610d499190613758565b610d539042613740565b606554604051634b4116d760e11b8152600481018990529192506001600160a01b0316906396822dae9060240160206040518083038186803b158015610d9857600080fd5b505afa158015610dac573d6000803e3d6000fd5b505050506040513d601f19601f82011682018060405250810190610dd0919061333c565b811115610e6757606554604051634b4116d760e11b8152600481018890526001600160a01b03909116906396822dae9060240160206040518083038186803b158015610e1b57600080fd5b505afa158015610e2f573d6000803e3d6000fd5b505050506040513d601f19601f82011682018060405250810190610e53919061333c565b610e5d908261378b565b6080850152610e6f565b600060808501525b5050505b92915050565b606854604051630cacd00160e11b81526001600160a01b038381166004830152600092839283926060928492839290911690631959a00290602401604080518083038186803b158015610ecb57600080fd5b505afa158015610edf573d6000803e3d6000fd5b505050506040513d601f19601f82011682018060405250810190610f0391906133f9565b606854604051630700a63f60e41b81526001600160a01b038b811660048301529395509193508492849291169063700a63f09060240160206040518083038186803b158015610f5157600080fd5b505afa158015610f65573d6000803e3d6000fd5b505050506040513d601f19601f82011682018060405250810190610f89919061333c565b606854604051637ed81e3360e11b81526001600160a01b038c811660048301529091169063fdb03c669060240160006040518083038186803b158015610fce57600080fd5b505afa158015610fe2573d6000803e3d6000fd5b505050506040513d6000823e601f3d908101601f1916820160405261100a9190810190613264565b955095509550955050509193509193565b6033546001600160a01b031633146110455760405162461bcd60e51b815260040161049f9061360f565b606a80546001600160a01b0319166001600160a01b0392909216919091179055565b6033546001600160a01b031633146110915760405162461bcd60e51b815260040161049f9061360f565b606d80546001600160a01b0319166001600160a01b0392909216919091179055565b6033546001600160a01b031633146110dd5760405162461bcd60e51b815260040161049f9061360f565b6110e76000612a86565b565b6033546001600160a01b031633146111135760405162461bcd60e51b815260040161049f9061360f565b606e80546001600160a01b0319166001600160a01b0392909216919091179055565b600054610100900460ff166111505760005460ff1615611154565b303b155b6111b75760405162461bcd60e51b815260206004820152602e60248201527f496e697469616c697a61626c653a20636f6e747261637420697320616c72656160448201526d191e481a5b9a5d1a585b1a5e995960921b606482015260840161049f565b600054610100900460ff161580156111d9576000805461ffff19166101011790555b6111e1612ad8565b6111e9612aff565b80156111fb576000805461ff00191690555b50565b6033546001600160a01b031633146112285760405162461bcd60e51b815260040161049f9061360f565b606980546001600160a01b0319166001600160a01b0392909216919091179055565b6033546001600160a01b031633146112745760405162461bcd60e51b815260040161049f9061360f565b606680546001600160a01b0319166001600160a01b0392909216919091179055565b61129e613121565b606554604051630cff840f60e41b81526004810184905260009182916001600160a01b039091169063cff840f09060240160206040518083038186803b1580156112e757600080fd5b505afa1580156112fb573d6000803e3d6000fd5b505050506040513d601f19601f8201168201806040525081019061131f919061333c565b8352606554604051630e62256360e41b8152600481018690526001600160a01b039091169063e62256309060240160206040518083038186803b15801561136557600080fd5b505afa158015611379573d6000803e3d6000fd5b505050506040513d601f19601f8201168201806040525081019061139d919061333c565b602084015260655460405163eb22daa360e01b8152600481018690526001600160a01b039091169063eb22daa39060240160206040518083038186803b1580156113e657600080fd5b505afa1580156113fa573d6000803e3d6000fd5b505050506040513d601f19601f8201168201806040525081019061141e919061333c565b8360026020020152606554604051634b4116d760e11b8152600481018690526001600160a01b03909116906396822dae9060240160206040518083038186803b15801561146a57600080fd5b505afa15801561147e573d6000803e3d6000fd5b505050506040513d601f19601f820116820180604052508101906114a2919061333c565b606854604051630f7ebb5160e41b815260048101879052429290921193506001600160a01b03169063f7ebb5109060240160206040518083038186803b1580156114eb57600080fd5b505afa1580156114ff573d6000803e3d6000fd5b505050506040513d601f19601f8201168201806040525081019061152391906131bf565b929491935050565b6033546001600160a01b031633146115555760405162461bcd60e51b815260040161049f9061360f565b606880546001600160a01b0319166001600160a01b0392909216919091179055565b6033546001600160a01b031633146115a15760405162461bcd60e51b815260040161049f9061360f565b6001600160a01b0381166116065760405162461bcd60e51b815260206004820152602660248201527f4f776e61626c653a206e6577206f776e657220697320746865207a65726f206160448201526564647265737360d01b606482015260840161049f565b6111fb81612a86565b61161761313f565b61162082612b2f565b60408085019190915260208401919091529082526068549051630700a63f60e41b81526001600160a01b0384811660048301529091169063700a63f09060240160206040518083038186803b15801561167857600080fd5b505afa15801561168c573d6000803e3d6000fd5b505050506040513d601f19601f820116820180604052508101906116b0919061333c565b6060820152606854604051630cacd00160e11b81526001600160a01b03848116600483015290911690631959a00290602401604080518083038186803b1580156116f957600080fd5b505afa15801561170d573d6000803e3d6000fd5b505050506040513d601f19601f8201168201806040525081019061173191906133f9565b608083015250606081015160051161174f57600060a08201526117d7565b606854606082015160405163264b538760e01b815260048101919091526001600160a01b039091169063264b53879060240160206040518083038186803b15801561179957600080fd5b505afa1580156117ad573d6000803e3d6000fd5b505050506040513d601f19601f820116820180604052508101906117d1919061333c565b60a08201525b606954604051630635dd2960e21b81526001600160a01b038481166004830152909116906318d774a49060240160206040518083038186803b15801561181c57600080fd5b505afa158015611830573d6000803e3d6000fd5b505050506040513d601f19601f82011682018060405250810190611854919061333c565b60c08201526066546040516349b1029760e01b81526001600160a01b038481166004830152909116906349b102979060240160206040518083038186803b15801561189e57600080fd5b505afa1580156118b2573d6000803e3d6000fd5b505050506040513d601f19601f820116820180604052508101906118d6919061333c565b60e08201526118e482612f57565b610100830152610120820152919050565b6118fd61315e565b611905613121565b61190d61317d565b606554604051630f0a90ff60e41b8152600481018690526001600160a01b039091169063f0a90ff09060240160206040518083038186803b15801561195157600080fd5b505afa158015611965573d6000803e3d6000fd5b505050506040513d601f19601f820116820180604052508101906119899190613301565b15158252606854604051636b1aa15760e01b8152600481018690526001600160a01b0390911690636b1aa1579060240160206040518083038186803b1580156119d157600080fd5b505afa1580156119e5573d6000803e3d6000fd5b505050506040513d601f19601f82011682018060405250810190611a099190613301565b15156020830152606554604051639ad1f0bb60e01b8152600481018690526001600160a01b0390911690639ad1f0bb9060240160206040518083038186803b158015611a5457600080fd5b505afa158015611a68573d6000803e3d6000fd5b505050506040513d601f19601f82011682018060405250810190611a8c9190613301565b1515604080840191909152606554905163e06d2eb560e01b8152600481018690526001600160a01b039091169063e06d2eb59060240160206040518083038186803b158015611ada57600080fd5b505afa158015611aee573d6000803e3d6000fd5b505050506040513d601f19601f82011682018060405250810190611b12919061333c565b8352606554604051635dd07b2360e11b8152600481018690526001600160a01b039091169063bba0f6469060240160206040518083038186803b158015611b5857600080fd5b505afa158015611b6c573d6000803e3d6000fd5b505050506040513d601f19601f82011682018060405250810190611b90919061333c565b6020840152606554604051633f01ac5360e11b8152600481018690526001600160a01b0390911690637e0358a69060240160206040518083038186803b158015611bd957600080fd5b505afa158015611bed573d6000803e3d6000fd5b505050506040513d601f19601f82011682018060405250810190611c11919061333c565b836002602002015260655460405163044947c760e21b8152600481018690526001600160a01b03909116906311251f1c9060240160206040518083038186803b158015611c5d57600080fd5b505afa158015611c71573d6000803e3d6000fd5b505050506040513d601f19601f82011682018060405250810190611c95919061333c565b6060840152606554604051631470638360e21b8152600481018690526001600160a01b03909116906351c18e0c9060240160206040518083038186803b158015611cde57600080fd5b505afa158015611cf2573d6000803e3d6000fd5b505050506040513d601f19601f82011682018060405250810190611d16919061333c565b6080840152600060a0840152606554604051630cff840f60e41b8152600481018690526001600160a01b039091169063cff840f09060240160206040518083038186803b158015611d6657600080fd5b505afa158015611d7a573d6000803e3d6000fd5b505050506040513d601f19601f82011682018060405250810190611d9e919061333c565b60c0840152606554604051630e62256360e41b8152600481018690526001600160a01b039091169063e62256309060240160206040518083038186803b158015611de757600080fd5b505afa158015611dfb573d6000803e3d6000fd5b505050506040513d601f19601f82011682018060405250810190611e1f919061333c565b60e084015260655460405163eb22daa360e01b8152600481018690526001600160a01b039091169063eb22daa39060240160206040518083038186803b158015611e6857600080fd5b505afa158015611e7c573d6000803e3d6000fd5b505050506040513d601f19601f82011682018060405250810190611ea0919061333c565b61010084015260655460405163184e9c2d60e01b8152600481018690526001600160a01b039091169063184e9c2d9060240160206040518083038186803b158015611eea57600080fd5b505afa158015611efe573d6000803e3d6000fd5b505050506040513d601f19601f82011682018060405250810190611f22919061333c565b6101208401526065546040516392d9495d60e01b8152600481018690526001600160a01b03909116906392d9495d9060240160206040518083038186803b158015611f6c57600080fd5b505afa158015611f80573d6000803e3d6000fd5b505050506040513d601f19601f82011682018060405250810190611fa4919061333c565b610140840152606554604051633150984960e21b8152600481018690526001600160a01b039091169063c54261249060240160206040518083038186803b158015611fee57600080fd5b505afa158015612002573d6000803e3d6000fd5b505050506040513d601f19601f82011682018060405250810190612026919061333c565b610160840152606554604051634b4116d760e11b8152600481018690526001600160a01b03909116906396822dae9060240160206040518083038186803b15801561207057600080fd5b505afa158015612084573d6000803e3d6000fd5b505050506040513d601f19601f820116820180604052508101906120a8919061333c565b6101808401526068546040516378f9facf60e01b8152600481018690526001600160a01b03909116906378f9facf9060240160206040518083038186803b1580156120f257600080fd5b505afa158015612106573d6000803e3d6000fd5b505050506040513d601f19601f8201168201806040525081019061212a919061333c565b6101a08401526068546040516314298f8360e11b8152600481018690526001600160a01b03909116906328531f069060240160206040518083038186803b15801561217457600080fd5b505afa158015612188573d6000803e3d6000fd5b505050506040513d601f19601f820116820180604052508101906121ac919061333c565b6101c08401526068546040805163d53dc7ef60e01b815290516001600160a01b039092169163d53dc7ef91600480820192602092909190829003018186803b1580156121f757600080fd5b505afa15801561220b573d6000803e3d6000fd5b505050506040513d601f19601f8201168201806040525081019061222f919061333c565b6101e08401819052606854604051633453478f60e01b81526004810192909252602482018690526001600160a01b031690633453478f9060440160206040518083038186803b15801561228157600080fd5b505afa158015612295573d6000803e3d6000fd5b505050506040513d601f19601f820116820180604052508101906122b9919061333c565b6102008401526068546040516238001960e21b8152600481018690526001600160a01b039091169062e000649060240160206040518083038186803b15801561230157600080fd5b505afa158015612315573d6000803e3d6000fd5b505050506040513d601f19601f82011682018060405250810190612339919061333c565b6102208401526069546040516309a7a14160e11b8152600481018690526001600160a01b039091169063134f42829060240160206040518083038186803b15801561238357600080fd5b505afa158015612397573d6000803e3d6000fd5b505050506040513d601f19601f820116820180604052508101906123bb919061333c565b61024084015260695460405163c4c1a18760e01b8152600481018690526001600160a01b039091169063c4c1a1879060240160206040518083038186803b15801561240557600080fd5b505afa158015612419573d6000803e3d6000fd5b505050506040513d601f19601f8201168201806040525081019061243d919061333c565b610260840152606b5460405163bbac3eed60e01b8152600481018690526001600160a01b039091169063bbac3eed9060240160206040518083038186803b15801561248757600080fd5b505afa15801561249b573d6000803e3d6000fd5b505050506040513d601f19601f820116820180604052508101906124bf919061333c565b610280840152606554604051631128a67f60e21b8152600481018690526001600160a01b03909116906344a299fc9060240160206040518083038186803b15801561250957600080fd5b505afa15801561251d573d6000803e3d6000fd5b505050506040513d601f19601f82011682018060405250810190612541919061333c565b6102a0840152606554604051635f64d7f360e01b8152600481018690526001600160a01b0390911690635f64d7f390602401604080518083038186803b15801561258a57600080fd5b505afa15801561259e573d6000803e3d6000fd5b505050506040513d601f19601f8201168201806040525081019061152391906131dc565b60606000805b83518110156126955760655484516001600160a01b039091169063f0a90ff0908690849081106125fa576125fa61382d565b60200260200101516040518263ffffffff1660e01b815260040161262091815260200190565b60206040518083038186803b15801561263857600080fd5b505afa15801561264c573d6000803e3d6000fd5b505050506040513d601f19601f820116820180604052508101906126709190613301565b15612683578161267f816137d2565b9250505b8061268d816137d2565b9150506125c8565b5060008167ffffffffffffffff8111156126b1576126b1613843565b6040519080825280602002602001820160405280156126da578160200160208202803683370190505b5090506000915060005b84518110156127e85760655485516001600160a01b039091169063f0a90ff0908790849081106127165761271661382d565b60200260200101516040518263ffffffff1660e01b815260040161273c91815260200190565b60206040518083038186803b15801561275457600080fd5b505afa158015612768573d6000803e3d6000fd5b505050506040513d601f19601f8201168201806040525081019061278c9190613301565b156127d6578481815181106127a3576127a361382d565b60200260200101518284815181106127bd576127bd61382d565b6020908102919091010152826127d2816137d2565b9350505b806127e0816137d2565b9150506126e4565b509392505050565b606060008251845186516128049190613740565b61280e9190613740565b67ffffffffffffffff81111561282657612826613843565b60405190808252806020026020018201604052801561284f578160200160208202803683370190505b50905060005b85518110156128a7578581815181106128705761287061382d565b602002602001015182828151811061288a5761288a61382d565b60209081029190910101528061289f816137d2565b915050612855565b5060005b8451811015612909578481815181106128c6576128c661382d565b6020026020010151828288516128dc9190613740565b815181106128ec576128ec61382d565b602090810291909101015280612901816137d2565b9150506128ab565b5060005b8351811015612977578381815181106129285761292861382d565b60200260200101518282875189516129409190613740565b61294a9190613740565b8151811061295a5761295a61382d565b60209081029190910101528061296f816137d2565b91505061290d565b50949350505050565b6060816129a45750506040805180820190915260018152600360fc1b602082015290565b8160005b81156129ce57806129b8816137d2565b91506129c79050600a83613758565b91506129a8565b60008167ffffffffffffffff8111156129e9576129e9613843565b6040519080825280601f01601f191660200182016040528015612a13576020820181803683370190505b5090505b8415612a7e57612a2860018361378b565b9150612a35600a866137ed565b612a40906030613740565b60f81b818381518110612a5557612a5561382d565b60200101906001600160f81b031916908160001a905350612a77600a86613758565b9450612a17565b949350505050565b603380546001600160a01b038381166001600160a01b0319831681179093556040519116919082907f8be0079c531659141344cd1fd0a4f28419497f9722a3daafe3b4186f6b6457e090600090a35050565b600054610100900460ff166110e75760405162461bcd60e51b815260040161049f90613644565b600054610100900460ff16612b265760405162461bcd60e51b815260040161049f90613644565b6110e733612a86565b60655460405163136f8d5f60e31b81526001600160a01b038381166004830152600160248301526000928392839283921690639b7c6af89060440160006040518083038186803b158015612b8257600080fd5b505afa158015612b96573d6000803e3d6000fd5b505050506040513d6000823e601f3d908101601f19168201604052612bbe9190810190613264565b606554604051631847d46b60e21b81526001600160a01b0388811660048301529293506000929091169063611f51ac9060240160006040518083038186803b158015612c0957600080fd5b505afa158015612c1d573d6000803e3d6000fd5b505050506040513d6000823e601f3d908101601f19168201604052612c459190810190613264565b90508151925060005b8151811015612d305760655482516001600160a01b039091169063e06d2eb590849084908110612c8057612c8061382d565b60200260200101516040518263ffffffff1660e01b8152600401612ca691815260200190565b60206040518083038186803b158015612cbe57600080fd5b505afa158015612cd2573d6000803e3d6000fd5b505050506040513d601f19601f82011682018060405250810190612cf6919061333c565b60011415612d105785612d08816137d2565b965050612d1e565b84612d1a816137d2565b9550505b80612d28816137d2565b915050612c4e565b50606854604051637ed81e3360e11b81526001600160a01b038881166004830152600092169063fdb03c669060240160006040518083038186803b158015612d7757600080fd5b505afa158015612d8b573d6000803e3d6000fd5b505050506040513d6000823e601f3d908101601f19168201604052612db39190810190613264565b905060005b8151811015612f4c5760655482516001600160a01b039091169063f0a90ff090849084908110612dea57612dea61382d565b60200260200101516040518263ffffffff1660e01b8152600401612e1091815260200190565b60206040518083038186803b158015612e2857600080fd5b505afa158015612e3c573d6000803e3d6000fd5b505050506040513d601f19601f82011682018060405250810190612e609190613301565b15612e735784612e6f816137d2565b9550505b60655482516001600160a01b039091169063e06d2eb590849084908110612e9c57612e9c61382d565b60200260200101516040518263ffffffff1660e01b8152600401612ec291815260200190565b60206040518083038186803b158015612eda57600080fd5b505afa158015612eee573d6000803e3d6000fd5b505050506040513d601f19601f82011682018060405250810190612f12919061333c565b60011415612f2c5786612f24816137d2565b975050612f3a565b85612f36816137d2565b9650505b80612f44816137d2565b915050612db8565b505050509193909250565b606e54604051630f4de60760e11b81526001600160a01b0383811660048301526000928392911690631e9bcc0e9060240160206040518083038186803b158015612fa057600080fd5b505afa158015612fb4573d6000803e3d6000fd5b505050506040513d601f19601f82011682018060405250810190612fd8919061333c565b612fe29083613740565b606e5460405163c542a90b60e01b81526001600160a01b03868116600483015292945091169063c542a90b9060240160206040518083038186803b15801561302957600080fd5b505afa15801561303d573d6000803e3d6000fd5b505050506040513d601f19601f82011682018060405250810190613061919061333c565b61306b9082613740565b606c54604051630cacd00160e11b81526001600160a01b03868116600483015292935060009290911690631959a00290602401604080518083038186803b1580156130b557600080fd5b505afa1580156130c9573d6000803e3d6000fd5b505050506040513d601f19601f820116820180604052508101906130ed91906133f9565b91506130fb90508183613740565b915050915091565b6040518060a001604052806005906020820280368337509192915050565b60405180606001604052806003906020820280368337509192915050565b604051806101400160405280600a906020820280368337509192915050565b604051806102c001604052806016906020820280368337509192915050565b60405180604001604052806002906020820280368337509192915050565b6000602082840312156131ad57600080fd5b81356131b881613859565b9392505050565b6000602082840312156131d157600080fd5b81516131b881613859565b6000604082840312156131ee57600080fd5b82601f8301126131fd57600080fd5b6040516040810181811067ffffffffffffffff8211171561322057613220613843565b806040525080838560408601111561323757600080fd5b60005b600281101561325957815183526020928301929091019060010161323a565b509195945050505050565b6000602080838503121561327757600080fd5b825167ffffffffffffffff81111561328e57600080fd5b8301601f8101851361329f57600080fd5b80516132b26132ad8261371c565b6136eb565b80828252848201915084840188868560051b87010111156132d257600080fd5b600094505b838510156132f55780518352600194909401939185019185016132d7565b50979650505050505050565b60006020828403121561331357600080fd5b815180151581146131b857600080fd5b60006020828403121561333557600080fd5b5035919050565b60006020828403121561334e57600080fd5b5051919050565b6000806040838503121561336857600080fd5b8235915060208084013567ffffffffffffffff81111561338757600080fd5b8401601f8101861361339857600080fd5b80356133a66132ad8261371c565b80828252848201915084840189868560051b87010111156133c657600080fd5b600094505b838510156133e95780358352600194909401939185019185016133cb565b5080955050505050509250929050565b6000806040838503121561340c57600080fd5b505080516020909101519092909150565b6000825161342f8184602087016137a2565b9190910192915050565b6c426f76696e65204865726f202360981b81526000825161346181600d8501602087016137a2565b91909101600d0192915050565b6000602080830181845280855180835260408601915060408160051b870101925083870160005b828110156134db57878503603f19018452815180518087526134bc818989018a85016137a2565b601f01601f191695909501860194509285019290850190600101613495565b5092979650505050505050565b6101408101818360005b600a811015610e6f5781518352602092830192909101906001016134f2565b6103608101818560005b601681101561353a57815183526020928301929091019060010161351b565b5050506102c082018460005b60038110156135675781511515835260209283019290910190600101613546565b50505061032082018360005b6002811015613592578151835260209283019290910190600101613573565b505050949350505050565b60a08101818560005b60038110156135c55781518352602092830192909101906001016135a6565b50505092151560608201526001600160a01b0391909116608090910152919050565b60a08101818360005b6005811015610e6f5781518352602092830192909101906001016135f0565b6020808252818101527f4f776e61626c653a2063616c6c6572206973206e6f7420746865206f776e6572604082015260600190565b6020808252602b908201527f496e697469616c697a61626c653a20636f6e7472616374206973206e6f74206960408201526a6e697469616c697a696e6760a81b606082015260800190565b600060808201868352602086818501528560408501526080606085015281855180845260a086019150828701935060005b818110156136dc578451835293830193918301916001016136c0565b50909998505050505050505050565b604051601f8201601f1916810167ffffffffffffffff8111828210171561371457613714613843565b604052919050565b600067ffffffffffffffff82111561373657613736613843565b5060051b60200190565b6000821982111561375357613753613801565b500190565b60008261376757613767613817565b500490565b600081600019048311821515161561378657613786613801565b500290565b60008282101561379d5761379d613801565b500390565b60005b838110156137bd5781810151838201526020016137a5565b838111156137cc576000848401525b50505050565b60006000198214156137e6576137e6613801565b5060010190565b6000826137fc576137fc613817565b500690565b634e487b7160e01b600052601160045260246000fd5b634e487b7160e01b600052601260045260246000fd5b634e487b7160e01b600052603260045260246000fd5b634e487b7160e01b600052604160045260246000fd5b6001600160a01b03811681146111fb57600080fdfea2646970667358221220ba4d5f6fde8b26e6894d029b34c471f52836fa1dbcc1a1cf4be2c2643ac205ec64736f6c63430008070033",
			"opcodes": "PUSH1 0x80 PUSH1 0x40 MSTORE CALLVALUE DUP1 ISZERO PUSH2 0x10 JUMPI PUSH1 0x0 DUP1 REVERT JUMPDEST POP PUSH2 0x38A4 DUP1 PUSH2 0x20 PUSH1 0x0 CODECOPY PUSH1 0x0 RETURN INVALID PUSH1 0x80 PUSH1 0x40 MSTORE CALLVALUE DUP1 ISZERO PUSH2 0x10 JUMPI PUSH1 0x0 DUP1 REVERT JUMPDEST POP PUSH1 0x4 CALLDATASIZE LT PUSH2 0x1DA JUMPI PUSH1 0x0 CALLDATALOAD PUSH1 0xE0 SHR DUP1 PUSH4 0x8129FC1C GT PUSH2 0x104 JUMPI DUP1 PUSH4 0xDB71DCDC GT PUSH2 0xA2 JUMPI DUP1 PUSH4 0xF2FDE38B GT PUSH2 0x71 JUMPI DUP1 PUSH4 0xF2FDE38B EQ PUSH2 0x40D JUMPI DUP1 PUSH4 0xF36EB671 EQ PUSH2 0x420 JUMPI DUP1 PUSH4 0xF610E982 EQ PUSH2 0x440 JUMPI DUP1 PUSH4 0xF69E2046 EQ PUSH2 0x462 JUMPI PUSH1 0x0 DUP1 REVERT JUMPDEST DUP1 PUSH4 0xDB71DCDC EQ PUSH2 0x3B2 JUMPI DUP1 PUSH4 0xDBA71376 EQ PUSH2 0x3D4 JUMPI DUP1 PUSH4 0xDBF8B168 EQ PUSH2 0x3E7 JUMPI DUP1 PUSH4 0xF2A4A82E EQ PUSH2 0x3FA JUMPI PUSH1 0x0 DUP1 REVERT JUMPDEST DUP1 PUSH4 0x9A68308F GT PUSH2 0xDE JUMPI DUP1 PUSH4 0x9A68308F EQ PUSH2 0x366 JUMPI DUP1 PUSH4 0x9FD0E138 EQ PUSH2 0x379 JUMPI DUP1 PUSH4 0xAD911387 EQ PUSH2 0x38C JUMPI DUP1 PUSH4 0xB4DAC333 EQ PUSH2 0x39F JUMPI PUSH1 0x0 DUP1 REVERT JUMPDEST DUP1 PUSH4 0x8129FC1C EQ PUSH2 0x33A JUMPI DUP1 PUSH4 0x8443BEA6 EQ PUSH2 0x342 JUMPI DUP1 PUSH4 0x8DA5CB5B EQ PUSH2 0x355 JUMPI PUSH1 0x0 DUP1 REVERT JUMPDEST DUP1 PUSH4 0x2E8E7D7A GT PUSH2 0x17C JUMPI DUP1 PUSH4 0x6DCEA85F GT PUSH2 0x14B JUMPI DUP1 PUSH4 0x6DCEA85F EQ PUSH2 0x2F9 JUMPI DUP1 PUSH4 0x715018A6 EQ PUSH2 0x30C JUMPI DUP1 PUSH4 0x773B1543 EQ PUSH2 0x314 JUMPI DUP1 PUSH4 0x80F55605 EQ PUSH2 0x327 JUMPI PUSH1 0x0 DUP1 REVERT JUMPDEST DUP1 PUSH4 0x2E8E7D7A EQ PUSH2 0x290 JUMPI DUP1 PUSH4 0x3144286B EQ PUSH2 0x2B0 JUMPI DUP1 PUSH4 0x5AEF7DE6 EQ PUSH2 0x2D3 JUMPI DUP1 PUSH4 0x61A91290 EQ PUSH2 0x2E6 JUMPI PUSH1 0x0 DUP1 REVERT JUMPDEST DUP1 PUSH4 0x165ED276 GT PUSH2 0x1B8 JUMPI DUP1 PUSH4 0x165ED276 EQ PUSH2 0x237 JUMPI DUP1 PUSH4 0x1D97B39E EQ PUSH2 0x24A JUMPI DUP1 PUSH4 0x22BE3DE1 EQ PUSH2 0x26A JUMPI DUP1 PUSH4 0x2BE682D4 EQ PUSH2 0x27D JUMPI PUSH1 0x0 DUP1 REVERT JUMPDEST DUP1 PUSH4 0x1C211C7 EQ PUSH2 0x1DF JUMPI DUP1 PUSH4 0xDE307FE EQ PUSH2 0x20F JUMPI DUP1 PUSH4 0x110A2DED EQ PUSH2 0x224 JUMPI JUMPDEST PUSH1 0x0 DUP1 REVERT JUMPDEST PUSH1 0x65 SLOAD PUSH2 0x1F2 SWAP1 PUSH1 0x1 PUSH1 0x1 PUSH1 0xA0 SHL SUB AND DUP2 JUMP JUMPDEST PUSH1 0x40 MLOAD PUSH1 0x1 PUSH1 0x1 PUSH1 0xA0 SHL SUB SWAP1 SWAP2 AND DUP2 MSTORE PUSH1 0x20 ADD JUMPDEST PUSH1 0x40 MLOAD DUP1 SWAP2 SUB SWAP1 RETURN JUMPDEST PUSH2 0x222 PUSH2 0x21D CALLDATASIZE PUSH1 0x4 PUSH2 0x319B JUMP JUMPDEST PUSH2 0x475 JUMP JUMPDEST STOP JUMPDEST PUSH2 0x222 PUSH2 0x232 CALLDATASIZE PUSH1 0x4 PUSH2 0x319B JUMP JUMPDEST PUSH2 0x4CA JUMP JUMPDEST PUSH2 0x222 PUSH2 0x245 CALLDATASIZE PUSH1 0x4 PUSH2 0x319B JUMP JUMPDEST PUSH2 0x516 JUMP JUMPDEST PUSH2 0x25D PUSH2 0x258 CALLDATASIZE PUSH1 0x4 PUSH2 0x319B JUMP JUMPDEST PUSH2 0x562 JUMP JUMPDEST PUSH1 0x40 MLOAD PUSH2 0x206 SWAP2 SWAP1 PUSH2 0x346E JUMP JUMPDEST PUSH1 0x68 SLOAD PUSH2 0x1F2 SWAP1 PUSH1 0x1 PUSH1 0x1 PUSH1 0xA0 SHL SUB AND DUP2 JUMP JUMPDEST PUSH2 0x222 PUSH2 0x28B CALLDATASIZE PUSH1 0x4 PUSH2 0x319B JUMP JUMPDEST PUSH2 0x8E4 JUMP JUMPDEST PUSH2 0x2A3 PUSH2 0x29E CALLDATASIZE PUSH1 0x4 PUSH2 0x3355 JUMP JUMPDEST PUSH2 0x930 JUMP JUMPDEST PUSH1 0x40 MLOAD PUSH2 0x206 SWAP2 SWAP1 PUSH2 0x35E7 JUMP JUMPDEST PUSH2 0x2C3 PUSH2 0x2BE CALLDATASIZE PUSH1 0x4 PUSH2 0x319B JUMP JUMPDEST PUSH2 0xE79 JUMP JUMPDEST PUSH1 0x40 MLOAD PUSH2 0x206 SWAP5 SWAP4 SWAP3 SWAP2 SWAP1 PUSH2 0x368F JUMP JUMPDEST PUSH1 0x6A SLOAD PUSH2 0x1F2 SWAP1 PUSH1 0x1 PUSH1 0x1 PUSH1 0xA0 SHL SUB AND DUP2 JUMP JUMPDEST PUSH2 0x222 PUSH2 0x2F4 CALLDATASIZE PUSH1 0x4 PUSH2 0x319B JUMP JUMPDEST PUSH2 0x101B JUMP JUMPDEST PUSH2 0x222 PUSH2 0x307 CALLDATASIZE PUSH1 0x4 PUSH2 0x319B JUMP JUMPDEST PUSH2 0x1067 JUMP JUMPDEST PUSH2 0x222 PUSH2 0x10B3 JUMP JUMPDEST PUSH2 0x222 PUSH2 0x322 CALLDATASIZE PUSH1 0x4 PUSH2 0x319B JUMP JUMPDEST PUSH2 0x10E9 JUMP JUMPDEST PUSH1 0x6D SLOAD PUSH2 0x1F2 SWAP1 PUSH1 0x1 PUSH1 0x1 PUSH1 0xA0 SHL SUB AND DUP2 JUMP JUMPDEST PUSH2 0x222 PUSH2 0x1135 JUMP JUMPDEST PUSH1 0x66 SLOAD PUSH2 0x1F2 SWAP1 PUSH1 0x1 PUSH1 0x1 PUSH1 0xA0 SHL SUB AND DUP2 JUMP JUMPDEST PUSH1 0x33 SLOAD PUSH1 0x1 PUSH1 0x1 PUSH1 0xA0 SHL SUB AND PUSH2 0x1F2 JUMP JUMPDEST PUSH1 0x6E SLOAD PUSH2 0x1F2 SWAP1 PUSH1 0x1 PUSH1 0x1 PUSH1 0xA0 SHL SUB AND DUP2 JUMP JUMPDEST PUSH2 0x222 PUSH2 0x387 CALLDATASIZE PUSH1 0x4 PUSH2 0x319B JUMP JUMPDEST PUSH2 0x11FE JUMP JUMPDEST PUSH2 0x222 PUSH2 0x39A CALLDATASIZE PUSH1 0x4 PUSH2 0x319B JUMP JUMPDEST PUSH2 0x124A JUMP JUMPDEST PUSH1 0x69 SLOAD PUSH2 0x1F2 SWAP1 PUSH1 0x1 PUSH1 0x1 PUSH1 0xA0 SHL SUB AND DUP2 JUMP JUMPDEST PUSH2 0x3C5 PUSH2 0x3C0 CALLDATASIZE PUSH1 0x4 PUSH2 0x3323 JUMP JUMPDEST PUSH2 0x1296 JUMP JUMPDEST PUSH1 0x40 MLOAD PUSH2 0x206 SWAP4 SWAP3 SWAP2 SWAP1 PUSH2 0x359D JUMP JUMPDEST PUSH2 0x222 PUSH2 0x3E2 CALLDATASIZE PUSH1 0x4 PUSH2 0x319B JUMP JUMPDEST PUSH2 0x152B JUMP JUMPDEST PUSH1 0x6C SLOAD PUSH2 0x1F2 SWAP1 PUSH1 0x1 PUSH1 0x1 PUSH1 0xA0 SHL SUB AND DUP2 JUMP JUMPDEST PUSH1 0x67 SLOAD PUSH2 0x1F2 SWAP1 PUSH1 0x1 PUSH1 0x1 PUSH1 0xA0 SHL SUB AND DUP2 JUMP JUMPDEST PUSH2 0x222 PUSH2 0x41B CALLDATASIZE PUSH1 0x4 PUSH2 0x319B JUMP JUMPDEST PUSH2 0x1577 JUMP JUMPDEST PUSH2 0x433 PUSH2 0x42E CALLDATASIZE PUSH1 0x4 PUSH2 0x319B JUMP JUMPDEST PUSH2 0x160F JUMP JUMPDEST PUSH1 0x40 MLOAD PUSH2 0x206 SWAP2 SWAP1 PUSH2 0x34E8 JUMP JUMPDEST PUSH2 0x453 PUSH2 0x44E CALLDATASIZE PUSH1 0x4 PUSH2 0x3323 JUMP JUMPDEST PUSH2 0x18F5 JUMP JUMPDEST PUSH1 0x40 MLOAD PUSH2 0x206 SWAP4 SWAP3 SWAP2 SWAP1 PUSH2 0x3511 JUMP JUMPDEST PUSH1 0x6B SLOAD PUSH2 0x1F2 SWAP1 PUSH1 0x1 PUSH1 0x1 PUSH1 0xA0 SHL SUB AND DUP2 JUMP JUMPDEST PUSH1 0x33 SLOAD PUSH1 0x1 PUSH1 0x1 PUSH1 0xA0 SHL SUB AND CALLER EQ PUSH2 0x4A8 JUMPI PUSH1 0x40 MLOAD PUSH3 0x461BCD PUSH1 0xE5 SHL DUP2 MSTORE PUSH1 0x4 ADD PUSH2 0x49F SWAP1 PUSH2 0x360F JUMP JUMPDEST PUSH1 0x40 MLOAD DUP1 SWAP2 SUB SWAP1 REVERT JUMPDEST PUSH1 0x65 DUP1 SLOAD PUSH1 0x1 PUSH1 0x1 PUSH1 0xA0 SHL SUB NOT AND PUSH1 0x1 PUSH1 0x1 PUSH1 0xA0 SHL SUB SWAP3 SWAP1 SWAP3 AND SWAP2 SWAP1 SWAP2 OR SWAP1 SSTORE JUMP JUMPDEST PUSH1 0x33 SLOAD PUSH1 0x1 PUSH1 0x1 PUSH1 0xA0 SHL SUB AND CALLER EQ PUSH2 0x4F4 JUMPI PUSH1 0x40 MLOAD PUSH3 0x461BCD PUSH1 0xE5 SHL DUP2 MSTORE PUSH1 0x4 ADD PUSH2 0x49F SWAP1 PUSH2 0x360F JUMP JUMPDEST PUSH1 0x6C DUP1 SLOAD PUSH1 0x1 PUSH1 0x1 PUSH1 0xA0 SHL SUB NOT AND PUSH1 0x1 PUSH1 0x1 PUSH1 0xA0 SHL SUB SWAP3 SWAP1 SWAP3 AND SWAP2 SWAP1 SWAP2 OR SWAP1 SSTORE JUMP JUMPDEST PUSH1 0x33 SLOAD PUSH1 0x1 PUSH1 0x1 PUSH1 0xA0 SHL SUB AND CALLER EQ PUSH2 0x540 JUMPI PUSH1 0x40 MLOAD PUSH3 0x461BCD PUSH1 0xE5 SHL DUP2 MSTORE PUSH1 0x4 ADD PUSH2 0x49F SWAP1 PUSH2 0x360F JUMP JUMPDEST PUSH1 0x67 DUP1 SLOAD PUSH1 0x1 PUSH1 0x1 PUSH1 0xA0 SHL SUB NOT AND PUSH1 0x1 PUSH1 0x1 PUSH1 0xA0 SHL SUB SWAP3 SWAP1 SWAP3 AND SWAP2 SWAP1 SWAP2 OR SWAP1 SSTORE JUMP JUMPDEST PUSH1 0x68 SLOAD PUSH1 0x40 MLOAD PUSH4 0x7ED81E33 PUSH1 0xE1 SHL DUP2 MSTORE PUSH1 0x1 PUSH1 0x1 PUSH1 0xA0 SHL SUB DUP4 DUP2 AND PUSH1 0x4 DUP4 ADD MSTORE PUSH1 0x60 SWAP3 PUSH1 0x0 SWAP3 DUP4 SWAP3 DUP4 SWAP3 PUSH2 0x5F6 SWAP3 SWAP2 AND SWAP1 PUSH4 0xFDB03C66 SWAP1 PUSH1 0x24 ADD JUMPDEST PUSH1 0x0 PUSH1 0x40 MLOAD DUP1 DUP4 SUB DUP2 DUP7 DUP1 EXTCODESIZE ISZERO DUP1 ISZERO PUSH2 0x5B5 JUMPI PUSH1 0x0 DUP1 REVERT JUMPDEST POP GAS STATICCALL ISZERO DUP1 ISZERO PUSH2 0x5C9 JUMPI RETURNDATASIZE PUSH1 0x0 DUP1 RETURNDATACOPY RETURNDATASIZE PUSH1 0x0 REVERT JUMPDEST POP POP POP POP PUSH1 0x40 MLOAD RETURNDATASIZE PUSH1 0x0 DUP3 RETURNDATACOPY PUSH1 0x1F RETURNDATASIZE SWAP1 DUP2 ADD PUSH1 0x1F NOT AND DUP3 ADD PUSH1 0x40 MSTORE PUSH2 0x5F1 SWAP2 SWAP1 DUP2 ADD SWAP1 PUSH2 0x3264 JUMP JUMPDEST PUSH2 0x25C2 JUMP JUMPDEST PUSH1 0x65 SLOAD PUSH1 0x40 MLOAD PUSH4 0x136F8D5F PUSH1 0xE3 SHL DUP2 MSTORE PUSH1 0x1 PUSH1 0x1 PUSH1 0xA0 SHL SUB DUP9 DUP2 AND PUSH1 0x4 DUP4 ADD MSTORE PUSH1 0x1 PUSH1 0x24 DUP4 ADD MSTORE SWAP3 SWAP4 POP PUSH1 0x0 SWAP3 SWAP1 SWAP2 AND SWAP1 PUSH4 0x9B7C6AF8 SWAP1 PUSH1 0x44 ADD PUSH1 0x0 PUSH1 0x40 MLOAD DUP1 DUP4 SUB DUP2 DUP7 DUP1 EXTCODESIZE ISZERO DUP1 ISZERO PUSH2 0x648 JUMPI PUSH1 0x0 DUP1 REVERT JUMPDEST POP GAS STATICCALL ISZERO DUP1 ISZERO PUSH2 0x65C JUMPI RETURNDATASIZE PUSH1 0x0 DUP1 RETURNDATACOPY RETURNDATASIZE PUSH1 0x0 REVERT JUMPDEST POP POP POP POP PUSH1 0x40 MLOAD RETURNDATASIZE PUSH1 0x0 DUP3 RETURNDATACOPY PUSH1 0x1F RETURNDATASIZE SWAP1 DUP2 ADD PUSH1 0x1F NOT AND DUP3 ADD PUSH1 0x40 MSTORE PUSH2 0x684 SWAP2 SWAP1 DUP2 ADD SWAP1 PUSH2 0x3264 JUMP JUMPDEST PUSH1 0x6D SLOAD PUSH1 0x40 MLOAD PUSH4 0x69343D0D PUSH1 0xE0 SHL DUP2 MSTORE PUSH1 0x1 PUSH1 0x4 DUP3 ADD MSTORE PUSH1 0x1 PUSH1 0x1 PUSH1 0xA0 SHL SUB DUP10 DUP2 AND PUSH1 0x24 DUP4 ADD MSTORE SWAP3 SWAP4 POP PUSH1 0x0 SWAP3 PUSH2 0x6C5 SWAP3 AND SWAP1 PUSH4 0x69343D0D SWAP1 PUSH1 0x44 ADD PUSH2 0x59D JUMP JUMPDEST SWAP1 POP PUSH1 0x0 PUSH2 0x6D4 DUP5 DUP5 DUP5 PUSH2 0x27F0 JUMP JUMPDEST SWAP1 POP DUP1 MLOAD DUP7 PUSH2 0x6E3 SWAP2 SWAP1 PUSH2 0x3740 JUMP JUMPDEST PUSH1 0x6A SLOAD PUSH1 0x40 MLOAD PUSH4 0x7DEDE89 PUSH1 0xE4 SHL DUP2 MSTORE PUSH1 0x1 PUSH1 0x1 PUSH1 0xA0 SHL SUB DUP12 DUP2 AND PUSH1 0x4 DUP4 ADD MSTORE SWAP3 SWAP9 POP PUSH1 0x0 SWAP3 SWAP1 SWAP2 AND SWAP1 PUSH4 0x7DEDE890 SWAP1 PUSH1 0x24 ADD PUSH1 0x0 PUSH1 0x40 MLOAD DUP1 DUP4 SUB DUP2 DUP7 DUP1 EXTCODESIZE ISZERO DUP1 ISZERO PUSH2 0x72E JUMPI PUSH1 0x0 DUP1 REVERT JUMPDEST POP GAS STATICCALL ISZERO DUP1 ISZERO PUSH2 0x742 JUMPI RETURNDATASIZE PUSH1 0x0 DUP1 RETURNDATACOPY RETURNDATASIZE PUSH1 0x0 REVERT JUMPDEST POP POP POP POP PUSH1 0x40 MLOAD RETURNDATASIZE PUSH1 0x0 DUP3 RETURNDATACOPY PUSH1 0x1F RETURNDATASIZE SWAP1 DUP2 ADD PUSH1 0x1F NOT AND DUP3 ADD PUSH1 0x40 MSTORE PUSH2 0x76A SWAP2 SWAP1 DUP2 ADD SWAP1 PUSH2 0x3264 JUMP JUMPDEST SWAP1 POP DUP1 MLOAD DUP8 PUSH2 0x779 SWAP2 SWAP1 PUSH2 0x3740 JUMP JUMPDEST SWAP7 POP PUSH1 0x0 DUP8 PUSH8 0xFFFFFFFFFFFFFFFF DUP2 GT ISZERO PUSH2 0x796 JUMPI PUSH2 0x796 PUSH2 0x3843 JUMP JUMPDEST PUSH1 0x40 MLOAD SWAP1 DUP1 DUP3 MSTORE DUP1 PUSH1 0x20 MUL PUSH1 0x20 ADD DUP3 ADD PUSH1 0x40 MSTORE DUP1 ISZERO PUSH2 0x7C9 JUMPI DUP2 PUSH1 0x20 ADD JUMPDEST PUSH1 0x60 DUP2 MSTORE PUSH1 0x20 ADD SWAP1 PUSH1 0x1 SWAP1 SUB SWAP1 DUP2 PUSH2 0x7B4 JUMPI SWAP1 POP JUMPDEST POP SWAP1 POP PUSH1 0x0 JUMPDEST DUP4 MLOAD DUP2 LT ISZERO PUSH2 0x857 JUMPI PUSH2 0x7FA DUP5 DUP3 DUP2 MLOAD DUP2 LT PUSH2 0x7ED JUMPI PUSH2 0x7ED PUSH2 0x382D JUMP JUMPDEST PUSH1 0x20 MUL PUSH1 0x20 ADD ADD MLOAD PUSH2 0x2980 JUMP JUMPDEST PUSH1 0x40 MLOAD PUSH1 0x20 ADD PUSH2 0x80A SWAP2 SWAP1 PUSH2 0x3439 JUMP JUMPDEST PUSH1 0x40 MLOAD PUSH1 0x20 DUP2 DUP4 SUB SUB DUP2 MSTORE SWAP1 PUSH1 0x40 MSTORE DUP3 DUP10 DUP2 MLOAD DUP2 LT PUSH2 0x82B JUMPI PUSH2 0x82B PUSH2 0x382D JUMP JUMPDEST PUSH1 0x20 MUL PUSH1 0x20 ADD ADD DUP2 SWAP1 MSTORE POP DUP8 DUP1 PUSH2 0x841 SWAP1 PUSH2 0x37D2 JUMP JUMPDEST SWAP9 POP POP DUP1 DUP1 PUSH2 0x84F SWAP1 PUSH2 0x37D2 JUMP JUMPDEST SWAP2 POP POP PUSH2 0x7CF JUMP JUMPDEST POP PUSH1 0x0 JUMPDEST DUP3 MLOAD DUP2 LT ISZERO PUSH2 0x8D6 JUMPI PUSH2 0x879 DUP4 DUP3 DUP2 MLOAD DUP2 LT PUSH2 0x7ED JUMPI PUSH2 0x7ED PUSH2 0x382D JUMP JUMPDEST PUSH1 0x40 MLOAD PUSH1 0x20 ADD PUSH2 0x889 SWAP2 SWAP1 PUSH2 0x341D JUMP JUMPDEST PUSH1 0x40 MLOAD PUSH1 0x20 DUP2 DUP4 SUB SUB DUP2 MSTORE SWAP1 PUSH1 0x40 MSTORE DUP3 DUP10 DUP2 MLOAD DUP2 LT PUSH2 0x8AA JUMPI PUSH2 0x8AA PUSH2 0x382D JUMP JUMPDEST PUSH1 0x20 MUL PUSH1 0x20 ADD ADD DUP2 SWAP1 MSTORE POP DUP8 DUP1 PUSH2 0x8C0 SWAP1 PUSH2 0x37D2 JUMP JUMPDEST SWAP9 POP POP DUP1 DUP1 PUSH2 0x8CE SWAP1 PUSH2 0x37D2 JUMP JUMPDEST SWAP2 POP POP PUSH2 0x85B JUMP JUMPDEST POP SWAP10 SWAP9 POP POP POP POP POP POP POP POP POP JUMP JUMPDEST PUSH1 0x33 SLOAD PUSH1 0x1 PUSH1 0x1 PUSH1 0xA0 SHL SUB AND CALLER EQ PUSH2 0x90E JUMPI PUSH1 0x40 MLOAD PUSH3 0x461BCD PUSH1 0xE5 SHL DUP2 MSTORE PUSH1 0x4 ADD PUSH2 0x49F SWAP1 PUSH2 0x360F JUMP JUMPDEST PUSH1 0x6B DUP1 SLOAD PUSH1 0x1 PUSH1 0x1 PUSH1 0xA0 SHL SUB NOT AND PUSH1 0x1 PUSH1 0x1 PUSH1 0xA0 SHL SUB SWAP3 SWAP1 SWAP3 AND SWAP2 SWAP1 SWAP2 OR SWAP1 SSTORE JUMP JUMPDEST PUSH2 0x938 PUSH2 0x3103 JUMP JUMPDEST PUSH1 0x6B SLOAD PUSH1 0x65 SLOAD PUSH1 0x40 MLOAD PUSH4 0x31509849 PUSH1 0xE2 SHL DUP2 MSTORE PUSH1 0x4 DUP2 ADD DUP7 SWAP1 MSTORE PUSH1 0x1 PUSH1 0x1 PUSH1 0xA0 SHL SUB SWAP3 DUP4 AND SWAP3 PUSH4 0xF0A5DB9C SWAP3 AND SWAP1 PUSH4 0xC5426124 SWAP1 PUSH1 0x24 ADD PUSH1 0x20 PUSH1 0x40 MLOAD DUP1 DUP4 SUB DUP2 DUP7 DUP1 EXTCODESIZE ISZERO DUP1 ISZERO PUSH2 0x987 JUMPI PUSH1 0x0 DUP1 REVERT JUMPDEST POP GAS STATICCALL ISZERO DUP1 ISZERO PUSH2 0x99B JUMPI RETURNDATASIZE PUSH1 0x0 DUP1 RETURNDATACOPY RETURNDATASIZE PUSH1 0x0 REVERT JUMPDEST POP POP POP POP PUSH1 0x40 MLOAD RETURNDATASIZE PUSH1 0x1F NOT PUSH1 0x1F DUP3 ADD AND DUP3 ADD DUP1 PUSH1 0x40 MSTORE POP DUP2 ADD SWAP1 PUSH2 0x9BF SWAP2 SWAP1 PUSH2 0x333C JUMP JUMPDEST PUSH1 0x40 MLOAD DUP3 PUSH4 0xFFFFFFFF AND PUSH1 0xE0 SHL DUP2 MSTORE PUSH1 0x4 ADD PUSH2 0x9DD SWAP2 DUP2 MSTORE PUSH1 0x20 ADD SWAP1 JUMP JUMPDEST PUSH1 0x20 PUSH1 0x40 MLOAD DUP1 DUP4 SUB DUP2 DUP7 DUP1 EXTCODESIZE ISZERO DUP1 ISZERO PUSH2 0x9F5 JUMPI PUSH1 0x0 DUP1 REVERT JUMPDEST POP GAS STATICCALL ISZERO DUP1 ISZERO PUSH2 0xA09 JUMPI RETURNDATASIZE PUSH1 0x0 DUP1 RETURNDATACOPY RETURNDATASIZE PUSH1 0x0 REVERT JUMPDEST POP POP POP POP PUSH1 0x40 MLOAD RETURNDATASIZE PUSH1 0x1F NOT PUSH1 0x1F DUP3 ADD AND DUP3 ADD DUP1 PUSH1 0x40 MSTORE POP DUP2 ADD SWAP1 PUSH2 0xA2D SWAP2 SWAP1 PUSH2 0x333C JUMP JUMPDEST DUP2 MSTORE DUP2 MLOAD PUSH2 0xA3A JUMPI PUSH2 0xE73 JUMP JUMPDEST PUSH1 0x65 SLOAD PUSH1 0x40 MLOAD PUSH4 0x31509849 PUSH1 0xE2 SHL DUP2 MSTORE PUSH1 0x4 DUP2 ADD DUP6 SWAP1 MSTORE PUSH1 0x0 SWAP2 PUSH1 0x1 PUSH1 0x1 PUSH1 0xA0 SHL SUB AND SWAP1 PUSH4 0xC5426124 SWAP1 PUSH1 0x24 ADD PUSH1 0x20 PUSH1 0x40 MLOAD DUP1 DUP4 SUB DUP2 DUP7 DUP1 EXTCODESIZE ISZERO DUP1 ISZERO PUSH2 0xA7F JUMPI PUSH1 0x0 DUP1 REVERT JUMPDEST POP GAS STATICCALL ISZERO DUP1 ISZERO PUSH2 0xA93 JUMPI RETURNDATASIZE PUSH1 0x0 DUP1 RETURNDATACOPY RETURNDATASIZE PUSH1 0x0 REVERT JUMPDEST POP POP POP POP PUSH1 0x40 MLOAD RETURNDATASIZE PUSH1 0x1F NOT PUSH1 0x1F DUP3 ADD AND DUP3 ADD DUP1 PUSH1 0x40 MSTORE POP DUP2 ADD SWAP1 PUSH2 0xAB7 SWAP2 SWAP1 PUSH2 0x333C JUMP JUMPDEST PUSH1 0x65 SLOAD PUSH1 0x40 MLOAD PUSH4 0x1C4C1087 PUSH1 0xE3 SHL DUP2 MSTORE PUSH1 0x4 DUP2 ADD DUP4 SWAP1 MSTORE SWAP2 SWAP3 POP PUSH1 0x1 PUSH1 0x1 PUSH1 0xA0 SHL SUB AND SWAP1 PUSH4 0xE2608438 SWAP1 PUSH1 0x24 ADD PUSH1 0x20 PUSH1 0x40 MLOAD DUP1 DUP4 SUB DUP2 DUP7 DUP1 EXTCODESIZE ISZERO DUP1 ISZERO PUSH2 0xAFC JUMPI PUSH1 0x0 DUP1 REVERT JUMPDEST POP GAS STATICCALL ISZERO DUP1 ISZERO PUSH2 0xB10 JUMPI RETURNDATASIZE PUSH1 0x0 DUP1 RETURNDATACOPY RETURNDATASIZE PUSH1 0x0 REVERT JUMPDEST POP POP POP POP PUSH1 0x40 MLOAD RETURNDATASIZE PUSH1 0x1F NOT PUSH1 0x1F DUP3 ADD AND DUP3 ADD DUP1 PUSH1 0x40 MSTORE POP DUP2 ADD SWAP1 PUSH2 0xB34 SWAP2 SWAP1 PUSH2 0x333C JUMP JUMPDEST PUSH1 0x20 DUP4 ADD MSTORE PUSH1 0x3 DUP2 LT ISZERO PUSH2 0xBD2 JUMPI PUSH1 0x65 SLOAD PUSH1 0x1 PUSH1 0x1 PUSH1 0xA0 SHL SUB AND PUSH4 0xE2608438 PUSH2 0xB5E DUP4 PUSH1 0x1 PUSH2 0x3740 JUMP JUMPDEST PUSH1 0x40 MLOAD DUP3 PUSH4 0xFFFFFFFF AND PUSH1 0xE0 SHL DUP2 MSTORE PUSH1 0x4 ADD PUSH2 0xB7C SWAP2 DUP2 MSTORE PUSH1 0x20 ADD SWAP1 JUMP JUMPDEST PUSH1 0x20 PUSH1 0x40 MLOAD DUP1 DUP4 SUB DUP2 DUP7 DUP1 EXTCODESIZE ISZERO DUP1 ISZERO PUSH2 0xB94 JUMPI PUSH1 0x0 DUP1 REVERT JUMPDEST POP GAS STATICCALL ISZERO DUP1 ISZERO PUSH2 0xBA8 JUMPI RETURNDATASIZE PUSH1 0x0 DUP1 RETURNDATACOPY RETURNDATASIZE PUSH1 0x0 REVERT JUMPDEST POP POP POP POP PUSH1 0x40 MLOAD RETURNDATASIZE PUSH1 0x1F NOT PUSH1 0x1F DUP3 ADD AND DUP3 ADD DUP1 PUSH1 0x40 MSTORE POP DUP2 ADD SWAP1 PUSH2 0xBCC SWAP2 SWAP1 PUSH2 0x333C JUMP JUMPDEST PUSH1 0x40 DUP4 ADD MSTORE JUMPDEST PUSH1 0x0 JUMPDEST DUP4 MLOAD DUP2 LT ISZERO PUSH2 0xCAD JUMPI PUSH1 0x65 SLOAD DUP5 MLOAD TIMESTAMP SWAP2 PUSH1 0x1 PUSH1 0x1 PUSH1 0xA0 SHL SUB AND SWAP1 PUSH4 0x96822DAE SWAP1 DUP8 SWAP1 DUP6 SWAP1 DUP2 LT PUSH2 0xC07 JUMPI PUSH2 0xC07 PUSH2 0x382D JUMP JUMPDEST PUSH1 0x20 MUL PUSH1 0x20 ADD ADD MLOAD PUSH1 0x40 MLOAD DUP3 PUSH4 0xFFFFFFFF AND PUSH1 0xE0 SHL DUP2 MSTORE PUSH1 0x4 ADD PUSH2 0xC2D SWAP2 DUP2 MSTORE PUSH1 0x20 ADD SWAP1 JUMP JUMPDEST PUSH1 0x20 PUSH1 0x40 MLOAD DUP1 DUP4 SUB DUP2 DUP7 DUP1 EXTCODESIZE ISZERO DUP1 ISZERO PUSH2 0xC45 JUMPI PUSH1 0x0 DUP1 REVERT JUMPDEST POP GAS STATICCALL ISZERO DUP1 ISZERO PUSH2 0xC59 JUMPI RETURNDATASIZE PUSH1 0x0 DUP1 RETURNDATACOPY RETURNDATASIZE PUSH1 0x0 REVERT JUMPDEST POP POP POP POP PUSH1 0x40 MLOAD RETURNDATASIZE PUSH1 0x1F NOT PUSH1 0x1F DUP3 ADD AND DUP3 ADD DUP1 PUSH1 0x40 MSTORE POP DUP2 ADD SWAP1 PUSH2 0xC7D SWAP2 SWAP1 PUSH2 0x333C JUMP JUMPDEST PUSH2 0xC87 SWAP2 SWAP1 PUSH2 0x378B JUMP JUMPDEST PUSH1 0x60 DUP5 ADD DUP1 MLOAD PUSH2 0xC98 SWAP1 DUP4 SWAP1 PUSH2 0x3740 JUMP JUMPDEST SWAP1 MSTORE POP DUP1 PUSH2 0xCA5 DUP2 PUSH2 0x37D2 JUMP JUMPDEST SWAP2 POP POP PUSH2 0xBD5 JUMP JUMPDEST POP PUSH1 0x65 SLOAD PUSH1 0x40 MLOAD PUSH4 0x44947C7 PUSH1 0xE2 SHL DUP2 MSTORE PUSH1 0x4 DUP2 ADD DUP7 SWAP1 MSTORE PUSH1 0x0 SWAP2 PUSH1 0x1 PUSH1 0x1 PUSH1 0xA0 SHL SUB AND SWAP1 PUSH4 0x11251F1C SWAP1 PUSH1 0x24 ADD PUSH1 0x20 PUSH1 0x40 MLOAD DUP1 DUP4 SUB DUP2 DUP7 DUP1 EXTCODESIZE ISZERO DUP1 ISZERO PUSH2 0xCF3 JUMPI PUSH1 0x0 DUP1 REVERT JUMPDEST POP GAS STATICCALL ISZERO DUP1 ISZERO PUSH2 0xD07 JUMPI RETURNDATASIZE PUSH1 0x0 DUP1 RETURNDATACOPY RETURNDATASIZE PUSH1 0x0 REVERT JUMPDEST POP POP POP POP PUSH1 0x40 MLOAD RETURNDATASIZE PUSH1 0x1F NOT PUSH1 0x1F DUP3 ADD AND DUP3 ADD DUP1 PUSH1 0x40 MSTORE POP DUP2 ADD SWAP1 PUSH2 0xD2B SWAP2 SWAP1 PUSH2 0x333C JUMP JUMPDEST SWAP1 POP PUSH1 0x0 PUSH2 0x2710 PUSH2 0xD3F DUP4 PUSH3 0x2E2480 PUSH2 0x376C JUMP JUMPDEST PUSH2 0xD49 SWAP2 SWAP1 PUSH2 0x3758 JUMP JUMPDEST PUSH2 0xD53 SWAP1 TIMESTAMP PUSH2 0x3740 JUMP JUMPDEST PUSH1 0x65 SLOAD PUSH1 0x40 MLOAD PUSH4 0x4B4116D7 PUSH1 0xE1 SHL DUP2 MSTORE PUSH1 0x4 DUP2 ADD DUP10 SWAP1 MSTORE SWAP2 SWAP3 POP PUSH1 0x1 PUSH1 0x1 PUSH1 0xA0 SHL SUB AND SWAP1 PUSH4 0x96822DAE SWAP1 PUSH1 0x24 ADD PUSH1 0x20 PUSH1 0x40 MLOAD DUP1 DUP4 SUB DUP2 DUP7 DUP1 EXTCODESIZE ISZERO DUP1 ISZERO PUSH2 0xD98 JUMPI PUSH1 0x0 DUP1 REVERT JUMPDEST POP GAS STATICCALL ISZERO DUP1 ISZERO PUSH2 0xDAC JUMPI RETURNDATASIZE PUSH1 0x0 DUP1 RETURNDATACOPY RETURNDATASIZE PUSH1 0x0 REVERT JUMPDEST POP POP POP POP PUSH1 0x40 MLOAD RETURNDATASIZE PUSH1 0x1F NOT PUSH1 0x1F DUP3 ADD AND DUP3 ADD DUP1 PUSH1 0x40 MSTORE POP DUP2 ADD SWAP1 PUSH2 0xDD0 SWAP2 SWAP1 PUSH2 0x333C JUMP JUMPDEST DUP2 GT ISZERO PUSH2 0xE67 JUMPI PUSH1 0x65 SLOAD PUSH1 0x40 MLOAD PUSH4 0x4B4116D7 PUSH1 0xE1 SHL DUP2 MSTORE PUSH1 0x4 DUP2 ADD DUP9 SWAP1 MSTORE PUSH1 0x1 PUSH1 0x1 PUSH1 0xA0 SHL SUB SWAP1 SWAP2 AND SWAP1 PUSH4 0x96822DAE SWAP1 PUSH1 0x24 ADD PUSH1 0x20 PUSH1 0x40 MLOAD DUP1 DUP4 SUB DUP2 DUP7 DUP1 EXTCODESIZE ISZERO DUP1 ISZERO PUSH2 0xE1B JUMPI PUSH1 0x0 DUP1 REVERT JUMPDEST POP GAS STATICCALL ISZERO DUP1 ISZERO PUSH2 0xE2F JUMPI RETURNDATASIZE PUSH1 0x0 DUP1 RETURNDATACOPY RETURNDATASIZE PUSH1 0x0 REVERT JUMPDEST POP POP POP POP PUSH1 0x40 MLOAD RETURNDATASIZE PUSH1 0x1F NOT PUSH1 0x1F DUP3 ADD AND DUP3 ADD DUP1 PUSH1 0x40 MSTORE POP DUP2 ADD SWAP1 PUSH2 0xE53 SWAP2 SWAP1 PUSH2 0x333C JUMP JUMPDEST PUSH2 0xE5D SWAP1 DUP3 PUSH2 0x378B JUMP JUMPDEST PUSH1 0x80 DUP6 ADD MSTORE PUSH2 0xE6F JUMP JUMPDEST PUSH1 0x0 PUSH1 0x80 DUP6 ADD MSTORE JUMPDEST POP POP POP JUMPDEST SWAP3 SWAP2 POP POP JUMP JUMPDEST PUSH1 0x68 SLOAD PUSH1 0x40 MLOAD PUSH4 0xCACD001 PUSH1 0xE1 SHL DUP2 MSTORE PUSH1 0x1 PUSH1 0x1 PUSH1 0xA0 SHL SUB DUP4 DUP2 AND PUSH1 0x4 DUP4 ADD MSTORE PUSH1 0x0 SWAP3 DUP4 SWAP3 DUP4 SWAP3 PUSH1 0x60 SWAP3 DUP5 SWAP3 DUP4 SWAP3 SWAP1 SWAP2 AND SWAP1 PUSH4 0x1959A002 SWAP1 PUSH1 0x24 ADD PUSH1 0x40 DUP1 MLOAD DUP1 DUP4 SUB DUP2 DUP7 DUP1 EXTCODESIZE ISZERO DUP1 ISZERO PUSH2 0xECB JUMPI PUSH1 0x0 DUP1 REVERT JUMPDEST POP GAS STATICCALL ISZERO DUP1 ISZERO PUSH2 0xEDF JUMPI RETURNDATASIZE PUSH1 0x0 DUP1 RETURNDATACOPY RETURNDATASIZE PUSH1 0x0 REVERT JUMPDEST POP POP POP POP PUSH1 0x40 MLOAD RETURNDATASIZE PUSH1 0x1F NOT PUSH1 0x1F DUP3 ADD AND DUP3 ADD DUP1 PUSH1 0x40 MSTORE POP DUP2 ADD SWAP1 PUSH2 0xF03 SWAP2 SWAP1 PUSH2 0x33F9 JUMP JUMPDEST PUSH1 0x68 SLOAD PUSH1 0x40 MLOAD PUSH4 0x700A63F PUSH1 0xE4 SHL DUP2 MSTORE PUSH1 0x1 PUSH1 0x1 PUSH1 0xA0 SHL SUB DUP12 DUP2 AND PUSH1 0x4 DUP4 ADD MSTORE SWAP4 SWAP6 POP SWAP2 SWAP4 POP DUP5 SWAP3 DUP5 SWAP3 SWAP2 AND SWAP1 PUSH4 0x700A63F0 SWAP1 PUSH1 0x24 ADD PUSH1 0x20 PUSH1 0x40 MLOAD DUP1 DUP4 SUB DUP2 DUP7 DUP1 EXTCODESIZE ISZERO DUP1 ISZERO PUSH2 0xF51 JUMPI PUSH1 0x0 DUP1 REVERT JUMPDEST POP GAS STATICCALL ISZERO DUP1 ISZERO PUSH2 0xF65 JUMPI RETURNDATASIZE PUSH1 0x0 DUP1 RETURNDATACOPY RETURNDATASIZE PUSH1 0x0 REVERT JUMPDEST POP POP POP POP PUSH1 0x40 MLOAD RETURNDATASIZE PUSH1 0x1F NOT PUSH1 0x1F DUP3 ADD AND DUP3 ADD DUP1 PUSH1 0x40 MSTORE POP DUP2 ADD SWAP1 PUSH2 0xF89 SWAP2 SWAP1 PUSH2 0x333C JUMP JUMPDEST PUSH1 0x68 SLOAD PUSH1 0x40 MLOAD PUSH4 0x7ED81E33 PUSH1 0xE1 SHL DUP2 MSTORE PUSH1 0x1 PUSH1 0x1 PUSH1 0xA0 SHL SUB DUP13 DUP2 AND PUSH1 0x4 DUP4 ADD MSTORE SWAP1 SWAP2 AND SWAP1 PUSH4 0xFDB03C66 SWAP1 PUSH1 0x24 ADD PUSH1 0x0 PUSH1 0x40 MLOAD DUP1 DUP4 SUB DUP2 DUP7 DUP1 EXTCODESIZE ISZERO DUP1 ISZERO PUSH2 0xFCE JUMPI PUSH1 0x0 DUP1 REVERT JUMPDEST POP GAS STATICCALL ISZERO DUP1 ISZERO PUSH2 0xFE2 JUMPI RETURNDATASIZE PUSH1 0x0 DUP1 RETURNDATACOPY RETURNDATASIZE PUSH1 0x0 REVERT JUMPDEST POP POP POP POP PUSH1 0x40 MLOAD RETURNDATASIZE PUSH1 0x0 DUP3 RETURNDATACOPY PUSH1 0x1F RETURNDATASIZE SWAP1 DUP2 ADD PUSH1 0x1F NOT AND DUP3 ADD PUSH1 0x40 MSTORE PUSH2 0x100A SWAP2 SWAP1 DUP2 ADD SWAP1 PUSH2 0x3264 JUMP JUMPDEST SWAP6 POP SWAP6 POP SWAP6 POP SWAP6 POP POP POP SWAP2 SWAP4 POP SWAP2 SWAP4 JUMP JUMPDEST PUSH1 0x33 SLOAD PUSH1 0x1 PUSH1 0x1 PUSH1 0xA0 SHL SUB AND CALLER EQ PUSH2 0x1045 JUMPI PUSH1 0x40 MLOAD PUSH3 0x461BCD PUSH1 0xE5 SHL DUP2 MSTORE PUSH1 0x4 ADD PUSH2 0x49F SWAP1 PUSH2 0x360F JUMP JUMPDEST PUSH1 0x6A DUP1 SLOAD PUSH1 0x1 PUSH1 0x1 PUSH1 0xA0 SHL SUB NOT AND PUSH1 0x1 PUSH1 0x1 PUSH1 0xA0 SHL SUB SWAP3 SWAP1 SWAP3 AND SWAP2 SWAP1 SWAP2 OR SWAP1 SSTORE JUMP JUMPDEST PUSH1 0x33 SLOAD PUSH1 0x1 PUSH1 0x1 PUSH1 0xA0 SHL SUB AND CALLER EQ PUSH2 0x1091 JUMPI PUSH1 0x40 MLOAD PUSH3 0x461BCD PUSH1 0xE5 SHL DUP2 MSTORE PUSH1 0x4 ADD PUSH2 0x49F SWAP1 PUSH2 0x360F JUMP JUMPDEST PUSH1 0x6D DUP1 SLOAD PUSH1 0x1 PUSH1 0x1 PUSH1 0xA0 SHL SUB NOT AND PUSH1 0x1 PUSH1 0x1 PUSH1 0xA0 SHL SUB SWAP3 SWAP1 SWAP3 AND SWAP2 SWAP1 SWAP2 OR SWAP1 SSTORE JUMP JUMPDEST PUSH1 0x33 SLOAD PUSH1 0x1 PUSH1 0x1 PUSH1 0xA0 SHL SUB AND CALLER EQ PUSH2 0x10DD JUMPI PUSH1 0x40 MLOAD PUSH3 0x461BCD PUSH1 0xE5 SHL DUP2 MSTORE PUSH1 0x4 ADD PUSH2 0x49F SWAP1 PUSH2 0x360F JUMP JUMPDEST PUSH2 0x10E7 PUSH1 0x0 PUSH2 0x2A86 JUMP JUMPDEST JUMP JUMPDEST PUSH1 0x33 SLOAD PUSH1 0x1 PUSH1 0x1 PUSH1 0xA0 SHL SUB AND CALLER EQ PUSH2 0x1113 JUMPI PUSH1 0x40 MLOAD PUSH3 0x461BCD PUSH1 0xE5 SHL DUP2 MSTORE PUSH1 0x4 ADD PUSH2 0x49F SWAP1 PUSH2 0x360F JUMP JUMPDEST PUSH1 0x6E DUP1 SLOAD PUSH1 0x1 PUSH1 0x1 PUSH1 0xA0 SHL SUB NOT AND PUSH1 0x1 PUSH1 0x1 PUSH1 0xA0 SHL SUB SWAP3 SWAP1 SWAP3 AND SWAP2 SWAP1 SWAP2 OR SWAP1 SSTORE JUMP JUMPDEST PUSH1 0x0 SLOAD PUSH2 0x100 SWAP1 DIV PUSH1 0xFF AND PUSH2 0x1150 JUMPI PUSH1 0x0 SLOAD PUSH1 0xFF AND ISZERO PUSH2 0x1154 JUMP JUMPDEST ADDRESS EXTCODESIZE ISZERO JUMPDEST PUSH2 0x11B7 JUMPI PUSH1 0x40 MLOAD PUSH3 0x461BCD PUSH1 0xE5 SHL DUP2 MSTORE PUSH1 0x20 PUSH1 0x4 DUP3 ADD MSTORE PUSH1 0x2E PUSH1 0x24 DUP3 ADD MSTORE PUSH32 0x496E697469616C697A61626C653A20636F6E747261637420697320616C726561 PUSH1 0x44 DUP3 ADD MSTORE PUSH14 0x191E481A5B9A5D1A585B1A5E9959 PUSH1 0x92 SHL PUSH1 0x64 DUP3 ADD MSTORE PUSH1 0x84 ADD PUSH2 0x49F JUMP JUMPDEST PUSH1 0x0 SLOAD PUSH2 0x100 SWAP1 DIV PUSH1 0xFF AND ISZERO DUP1 ISZERO PUSH2 0x11D9 JUMPI PUSH1 0x0 DUP1 SLOAD PUSH2 0xFFFF NOT AND PUSH2 0x101 OR SWAP1 SSTORE JUMPDEST PUSH2 0x11E1 PUSH2 0x2AD8 JUMP JUMPDEST PUSH2 0x11E9 PUSH2 0x2AFF JUMP JUMPDEST DUP1 ISZERO PUSH2 0x11FB JUMPI PUSH1 0x0 DUP1 SLOAD PUSH2 0xFF00 NOT AND SWAP1 SSTORE JUMPDEST POP JUMP JUMPDEST PUSH1 0x33 SLOAD PUSH1 0x1 PUSH1 0x1 PUSH1 0xA0 SHL SUB AND CALLER EQ PUSH2 0x1228 JUMPI PUSH1 0x40 MLOAD PUSH3 0x461BCD PUSH1 0xE5 SHL DUP2 MSTORE PUSH1 0x4 ADD PUSH2 0x49F SWAP1 PUSH2 0x360F JUMP JUMPDEST PUSH1 0x69 DUP1 SLOAD PUSH1 0x1 PUSH1 0x1 PUSH1 0xA0 SHL SUB NOT AND PUSH1 0x1 PUSH1 0x1 PUSH1 0xA0 SHL SUB SWAP3 SWAP1 SWAP3 AND SWAP2 SWAP1 SWAP2 OR SWAP1 SSTORE JUMP JUMPDEST PUSH1 0x33 SLOAD PUSH1 0x1 PUSH1 0x1 PUSH1 0xA0 SHL SUB AND CALLER EQ PUSH2 0x1274 JUMPI PUSH1 0x40 MLOAD PUSH3 0x461BCD PUSH1 0xE5 SHL DUP2 MSTORE PUSH1 0x4 ADD PUSH2 0x49F SWAP1 PUSH2 0x360F JUMP JUMPDEST PUSH1 0x66 DUP1 SLOAD PUSH1 0x1 PUSH1 0x1 PUSH1 0xA0 SHL SUB NOT AND PUSH1 0x1 PUSH1 0x1 PUSH1 0xA0 SHL SUB SWAP3 SWAP1 SWAP3 AND SWAP2 SWAP1 SWAP2 OR SWAP1 SSTORE JUMP JUMPDEST PUSH2 0x129E PUSH2 0x3121 JUMP JUMPDEST PUSH1 0x65 SLOAD PUSH1 0x40 MLOAD PUSH4 0xCFF840F PUSH1 0xE4 SHL DUP2 MSTORE PUSH1 0x4 DUP2 ADD DUP5 SWAP1 MSTORE PUSH1 0x0 SWAP2 DUP3 SWAP2 PUSH1 0x1 PUSH1 0x1 PUSH1 0xA0 SHL SUB SWAP1 SWAP2 AND SWAP1 PUSH4 0xCFF840F0 SWAP1 PUSH1 0x24 ADD PUSH1 0x20 PUSH1 0x40 MLOAD DUP1 DUP4 SUB DUP2 DUP7 DUP1 EXTCODESIZE ISZERO DUP1 ISZERO PUSH2 0x12E7 JUMPI PUSH1 0x0 DUP1 REVERT JUMPDEST POP GAS STATICCALL ISZERO DUP1 ISZERO PUSH2 0x12FB JUMPI RETURNDATASIZE PUSH1 0x0 DUP1 RETURNDATACOPY RETURNDATASIZE PUSH1 0x0 REVERT JUMPDEST POP POP POP POP PUSH1 0x40 MLOAD RETURNDATASIZE PUSH1 0x1F NOT PUSH1 0x1F DUP3 ADD AND DUP3 ADD DUP1 PUSH1 0x40 MSTORE POP DUP2 ADD SWAP1 PUSH2 0x131F SWAP2 SWAP1 PUSH2 0x333C JUMP JUMPDEST DUP4 MSTORE PUSH1 0x65 SLOAD PUSH1 0x40 MLOAD PUSH4 0xE622563 PUSH1 0xE4 SHL DUP2 MSTORE PUSH1 0x4 DUP2 ADD DUP7 SWAP1 MSTORE PUSH1 0x1 PUSH1 0x1 PUSH1 0xA0 SHL SUB SWAP1 SWAP2 AND SWAP1 PUSH4 0xE6225630 SWAP1 PUSH1 0x24 ADD PUSH1 0x20 PUSH1 0x40 MLOAD DUP1 DUP4 SUB DUP2 DUP7 DUP1 EXTCODESIZE ISZERO DUP1 ISZERO PUSH2 0x1365 JUMPI PUSH1 0x0 DUP1 REVERT JUMPDEST POP GAS STATICCALL ISZERO DUP1 ISZERO PUSH2 0x1379 JUMPI RETURNDATASIZE PUSH1 0x0 DUP1 RETURNDATACOPY RETURNDATASIZE PUSH1 0x0 REVERT JUMPDEST POP POP POP POP PUSH1 0x40 MLOAD RETURNDATASIZE PUSH1 0x1F NOT PUSH1 0x1F DUP3 ADD AND DUP3 ADD DUP1 PUSH1 0x40 MSTORE POP DUP2 ADD SWAP1 PUSH2 0x139D SWAP2 SWAP1 PUSH2 0x333C JUMP JUMPDEST PUSH1 0x20 DUP5 ADD MSTORE PUSH1 0x65 SLOAD PUSH1 0x40 MLOAD PUSH4 0xEB22DAA3 PUSH1 0xE0 SHL DUP2 MSTORE PUSH1 0x4 DUP2 ADD DUP7 SWAP1 MSTORE PUSH1 0x1 PUSH1 0x1 PUSH1 0xA0 SHL SUB SWAP1 SWAP2 AND SWAP1 PUSH4 0xEB22DAA3 SWAP1 PUSH1 0x24 ADD PUSH1 0x20 PUSH1 0x40 MLOAD DUP1 DUP4 SUB DUP2 DUP7 DUP1 EXTCODESIZE ISZERO DUP1 ISZERO PUSH2 0x13E6 JUMPI PUSH1 0x0 DUP1 REVERT JUMPDEST POP GAS STATICCALL ISZERO DUP1 ISZERO PUSH2 0x13FA JUMPI RETURNDATASIZE PUSH1 0x0 DUP1 RETURNDATACOPY RETURNDATASIZE PUSH1 0x0 REVERT JUMPDEST POP POP POP POP PUSH1 0x40 MLOAD RETURNDATASIZE PUSH1 0x1F NOT PUSH1 0x1F DUP3 ADD AND DUP3 ADD DUP1 PUSH1 0x40 MSTORE POP DUP2 ADD SWAP1 PUSH2 0x141E SWAP2 SWAP1 PUSH2 0x333C JUMP JUMPDEST DUP4 PUSH1 0x2 PUSH1 0x20 MUL ADD MSTORE PUSH1 0x65 SLOAD PUSH1 0x40 MLOAD PUSH4 0x4B4116D7 PUSH1 0xE1 SHL DUP2 MSTORE PUSH1 0x4 DUP2 ADD DUP7 SWAP1 MSTORE PUSH1 0x1 PUSH1 0x1 PUSH1 0xA0 SHL SUB SWAP1 SWAP2 AND SWAP1 PUSH4 0x96822DAE SWAP1 PUSH1 0x24 ADD PUSH1 0x20 PUSH1 0x40 MLOAD DUP1 DUP4 SUB DUP2 DUP7 DUP1 EXTCODESIZE ISZERO DUP1 ISZERO PUSH2 0x146A JUMPI PUSH1 0x0 DUP1 REVERT JUMPDEST POP GAS STATICCALL ISZERO DUP1 ISZERO PUSH2 0x147E JUMPI RETURNDATASIZE PUSH1 0x0 DUP1 RETURNDATACOPY RETURNDATASIZE PUSH1 0x0 REVERT JUMPDEST POP POP POP POP PUSH1 0x40 MLOAD RETURNDATASIZE PUSH1 0x1F NOT PUSH1 0x1F DUP3 ADD AND DUP3 ADD DUP1 PUSH1 0x40 MSTORE POP DUP2 ADD SWAP1 PUSH2 0x14A2 SWAP2 SWAP1 PUSH2 0x333C JUMP JUMPDEST PUSH1 0x68 SLOAD PUSH1 0x40 MLOAD PUSH4 0xF7EBB51 PUSH1 0xE4 SHL DUP2 MSTORE PUSH1 0x4 DUP2 ADD DUP8 SWAP1 MSTORE TIMESTAMP SWAP3 SWAP1 SWAP3 GT SWAP4 POP PUSH1 0x1 PUSH1 0x1 PUSH1 0xA0 SHL SUB AND SWAP1 PUSH4 0xF7EBB510 SWAP1 PUSH1 0x24 ADD PUSH1 0x20 PUSH1 0x40 MLOAD DUP1 DUP4 SUB DUP2 DUP7 DUP1 EXTCODESIZE ISZERO DUP1 ISZERO PUSH2 0x14EB JUMPI PUSH1 0x0 DUP1 REVERT JUMPDEST POP GAS STATICCALL ISZERO DUP1 ISZERO PUSH2 0x14FF JUMPI RETURNDATASIZE PUSH1 0x0 DUP1 RETURNDATACOPY RETURNDATASIZE PUSH1 0x0 REVERT JUMPDEST POP POP POP POP PUSH1 0x40 MLOAD RETURNDATASIZE PUSH1 0x1F NOT PUSH1 0x1F DUP3 ADD AND DUP3 ADD DUP1 PUSH1 0x40 MSTORE POP DUP2 ADD SWAP1 PUSH2 0x1523 SWAP2 SWAP1 PUSH2 0x31BF JUMP JUMPDEST SWAP3 SWAP5 SWAP2 SWAP4 POP POP JUMP JUMPDEST PUSH1 0x33 SLOAD PUSH1 0x1 PUSH1 0x1 PUSH1 0xA0 SHL SUB AND CALLER EQ PUSH2 0x1555 JUMPI PUSH1 0x40 MLOAD PUSH3 0x461BCD PUSH1 0xE5 SHL DUP2 MSTORE PUSH1 0x4 ADD PUSH2 0x49F SWAP1 PUSH2 0x360F JUMP JUMPDEST PUSH1 0x68 DUP1 SLOAD PUSH1 0x1 PUSH1 0x1 PUSH1 0xA0 SHL SUB NOT AND PUSH1 0x1 PUSH1 0x1 PUSH1 0xA0 SHL SUB SWAP3 SWAP1 SWAP3 AND SWAP2 SWAP1 SWAP2 OR SWAP1 SSTORE JUMP JUMPDEST PUSH1 0x33 SLOAD PUSH1 0x1 PUSH1 0x1 PUSH1 0xA0 SHL SUB AND CALLER EQ PUSH2 0x15A1 JUMPI PUSH1 0x40 MLOAD PUSH3 0x461BCD PUSH1 0xE5 SHL DUP2 MSTORE PUSH1 0x4 ADD PUSH2 0x49F SWAP1 PUSH2 0x360F JUMP JUMPDEST PUSH1 0x1 PUSH1 0x1 PUSH1 0xA0 SHL SUB DUP2 AND PUSH2 0x1606 JUMPI PUSH1 0x40 MLOAD PUSH3 0x461BCD PUSH1 0xE5 SHL DUP2 MSTORE PUSH1 0x20 PUSH1 0x4 DUP3 ADD MSTORE PUSH1 0x26 PUSH1 0x24 DUP3 ADD MSTORE PUSH32 0x4F776E61626C653A206E6577206F776E657220697320746865207A65726F2061 PUSH1 0x44 DUP3 ADD MSTORE PUSH6 0x646472657373 PUSH1 0xD0 SHL PUSH1 0x64 DUP3 ADD MSTORE PUSH1 0x84 ADD PUSH2 0x49F JUMP JUMPDEST PUSH2 0x11FB DUP2 PUSH2 0x2A86 JUMP JUMPDEST PUSH2 0x1617 PUSH2 0x313F JUMP JUMPDEST PUSH2 0x1620 DUP3 PUSH2 0x2B2F JUMP JUMPDEST PUSH1 0x40 DUP1 DUP6 ADD SWAP2 SWAP1 SWAP2 MSTORE PUSH1 0x20 DUP5 ADD SWAP2 SWAP1 SWAP2 MSTORE SWAP1 DUP3 MSTORE PUSH1 0x68 SLOAD SWAP1 MLOAD PUSH4 0x700A63F PUSH1 0xE4 SHL DUP2 MSTORE PUSH1 0x1 PUSH1 0x1 PUSH1 0xA0 SHL SUB DUP5 DUP2 AND PUSH1 0x4 DUP4 ADD MSTORE SWAP1 SWAP2 AND SWAP1 PUSH4 0x700A63F0 SWAP1 PUSH1 0x24 ADD PUSH1 0x20 PUSH1 0x40 MLOAD DUP1 DUP4 SUB DUP2 DUP7 DUP1 EXTCODESIZE ISZERO DUP1 ISZERO PUSH2 0x1678 JUMPI PUSH1 0x0 DUP1 REVERT JUMPDEST POP GAS STATICCALL ISZERO DUP1 ISZERO PUSH2 0x168C JUMPI RETURNDATASIZE PUSH1 0x0 DUP1 RETURNDATACOPY RETURNDATASIZE PUSH1 0x0 REVERT JUMPDEST POP POP POP POP PUSH1 0x40 MLOAD RETURNDATASIZE PUSH1 0x1F NOT PUSH1 0x1F DUP3 ADD AND DUP3 ADD DUP1 PUSH1 0x40 MSTORE POP DUP2 ADD SWAP1 PUSH2 0x16B0 SWAP2 SWAP1 PUSH2 0x333C JUMP JUMPDEST PUSH1 0x60 DUP3 ADD MSTORE PUSH1 0x68 SLOAD PUSH1 0x40 MLOAD PUSH4 0xCACD001 PUSH1 0xE1 SHL DUP2 MSTORE PUSH1 0x1 PUSH1 0x1 PUSH1 0xA0 SHL SUB DUP5 DUP2 AND PUSH1 0x4 DUP4 ADD MSTORE SWAP1 SWAP2 AND SWAP1 PUSH4 0x1959A002 SWAP1 PUSH1 0x24 ADD PUSH1 0x40 DUP1 MLOAD DUP1 DUP4 SUB DUP2 DUP7 DUP1 EXTCODESIZE ISZERO DUP1 ISZERO PUSH2 0x16F9 JUMPI PUSH1 0x0 DUP1 REVERT JUMPDEST POP GAS STATICCALL ISZERO DUP1 ISZERO PUSH2 0x170D JUMPI RETURNDATASIZE PUSH1 0x0 DUP1 RETURNDATACOPY RETURNDATASIZE PUSH1 0x0 REVERT JUMPDEST POP POP POP POP PUSH1 0x40 MLOAD RETURNDATASIZE PUSH1 0x1F NOT PUSH1 0x1F DUP3 ADD AND DUP3 ADD DUP1 PUSH1 0x40 MSTORE POP DUP2 ADD SWAP1 PUSH2 0x1731 SWAP2 SWAP1 PUSH2 0x33F9 JUMP JUMPDEST PUSH1 0x80 DUP4 ADD MSTORE POP PUSH1 0x60 DUP2 ADD MLOAD PUSH1 0x5 GT PUSH2 0x174F JUMPI PUSH1 0x0 PUSH1 0xA0 DUP3 ADD MSTORE PUSH2 0x17D7 JUMP JUMPDEST PUSH1 0x68 SLOAD PUSH1 0x60 DUP3 ADD MLOAD PUSH1 0x40 MLOAD PUSH4 0x264B5387 PUSH1 0xE0 SHL DUP2 MSTORE PUSH1 0x4 DUP2 ADD SWAP2 SWAP1 SWAP2 MSTORE PUSH1 0x1 PUSH1 0x1 PUSH1 0xA0 SHL SUB SWAP1 SWAP2 AND SWAP1 PUSH4 0x264B5387 SWAP1 PUSH1 0x24 ADD PUSH1 0x20 PUSH1 0x40 MLOAD DUP1 DUP4 SUB DUP2 DUP7 DUP1 EXTCODESIZE ISZERO DUP1 ISZERO PUSH2 0x1799 JUMPI PUSH1 0x0 DUP1 REVERT JUMPDEST POP GAS STATICCALL ISZERO DUP1 ISZERO PUSH2 0x17AD JUMPI RETURNDATASIZE PUSH1 0x0 DUP1 RETURNDATACOPY RETURNDATASIZE PUSH1 0x0 REVERT JUMPDEST POP POP POP POP PUSH1 0x40 MLOAD RETURNDATASIZE PUSH1 0x1F NOT PUSH1 0x1F DUP3 ADD AND DUP3 ADD DUP1 PUSH1 0x40 MSTORE POP DUP2 ADD SWAP1 PUSH2 0x17D1 SWAP2 SWAP1 PUSH2 0x333C JUMP JUMPDEST PUSH1 0xA0 DUP3 ADD MSTORE JUMPDEST PUSH1 0x69 SLOAD PUSH1 0x40 MLOAD PUSH4 0x635DD29 PUSH1 0xE2 SHL DUP2 MSTORE PUSH1 0x1 PUSH1 0x1 PUSH1 0xA0 SHL SUB DUP5 DUP2 AND PUSH1 0x4 DUP4 ADD MSTORE SWAP1 SWAP2 AND SWAP1 PUSH4 0x18D774A4 SWAP1 PUSH1 0x24 ADD PUSH1 0x20 PUSH1 0x40 MLOAD DUP1 DUP4 SUB DUP2 DUP7 DUP1 EXTCODESIZE ISZERO DUP1 ISZERO PUSH2 0x181C JUMPI PUSH1 0x0 DUP1 REVERT JUMPDEST POP GAS STATICCALL ISZERO DUP1 ISZERO PUSH2 0x1830 JUMPI RETURNDATASIZE PUSH1 0x0 DUP1 RETURNDATACOPY RETURNDATASIZE PUSH1 0x0 REVERT JUMPDEST POP POP POP POP PUSH1 0x40 MLOAD RETURNDATASIZE PUSH1 0x1F NOT PUSH1 0x1F DUP3 ADD AND DUP3 ADD DUP1 PUSH1 0x40 MSTORE POP DUP2 ADD SWAP1 PUSH2 0x1854 SWAP2 SWAP1 PUSH2 0x333C JUMP JUMPDEST PUSH1 0xC0 DUP3 ADD MSTORE PUSH1 0x66 SLOAD PUSH1 0x40 MLOAD PUSH4 0x49B10297 PUSH1 0xE0 SHL DUP2 MSTORE PUSH1 0x1 PUSH1 0x1 PUSH1 0xA0 SHL SUB DUP5 DUP2 AND PUSH1 0x4 DUP4 ADD MSTORE SWAP1 SWAP2 AND SWAP1 PUSH4 0x49B10297 SWAP1 PUSH1 0x24 ADD PUSH1 0x20 PUSH1 0x40 MLOAD DUP1 DUP4 SUB DUP2 DUP7 DUP1 EXTCODESIZE ISZERO DUP1 ISZERO PUSH2 0x189E JUMPI PUSH1 0x0 DUP1 REVERT JUMPDEST POP GAS STATICCALL ISZERO DUP1 ISZERO PUSH2 0x18B2 JUMPI RETURNDATASIZE PUSH1 0x0 DUP1 RETURNDATACOPY RETURNDATASIZE PUSH1 0x0 REVERT JUMPDEST POP POP POP POP PUSH1 0x40 MLOAD RETURNDATASIZE PUSH1 0x1F NOT PUSH1 0x1F DUP3 ADD AND DUP3 ADD DUP1 PUSH1 0x40 MSTORE POP DUP2 ADD SWAP1 PUSH2 0x18D6 SWAP2 SWAP1 PUSH2 0x333C JUMP JUMPDEST PUSH1 0xE0 DUP3 ADD MSTORE PUSH2 0x18E4 DUP3 PUSH2 0x2F57 JUMP JUMPDEST PUSH2 0x100 DUP4 ADD MSTORE PUSH2 0x120 DUP3 ADD MSTORE SWAP2 SWAP1 POP JUMP JUMPDEST PUSH2 0x18FD PUSH2 0x315E JUMP JUMPDEST PUSH2 0x1905 PUSH2 0x3121 JUMP JUMPDEST PUSH2 0x190D PUSH2 0x317D JUMP JUMPDEST PUSH1 0x65 SLOAD PUSH1 0x40 MLOAD PUSH4 0xF0A90FF PUSH1 0xE4 SHL DUP2 MSTORE PUSH1 0x4 DUP2 ADD DUP7 SWAP1 MSTORE PUSH1 0x1 PUSH1 0x1 PUSH1 0xA0 SHL SUB SWAP1 SWAP2 AND SWAP1 PUSH4 0xF0A90FF0 SWAP1 PUSH1 0x24 ADD PUSH1 0x20 PUSH1 0x40 MLOAD DUP1 DUP4 SUB DUP2 DUP7 DUP1 EXTCODESIZE ISZERO DUP1 ISZERO PUSH2 0x1951 JUMPI PUSH1 0x0 DUP1 REVERT JUMPDEST POP GAS STATICCALL ISZERO DUP1 ISZERO PUSH2 0x1965 JUMPI RETURNDATASIZE PUSH1 0x0 DUP1 RETURNDATACOPY RETURNDATASIZE PUSH1 0x0 REVERT JUMPDEST POP POP POP POP PUSH1 0x40 MLOAD RETURNDATASIZE PUSH1 0x1F NOT PUSH1 0x1F DUP3 ADD AND DUP3 ADD DUP1 PUSH1 0x40 MSTORE POP DUP2 ADD SWAP1 PUSH2 0x1989 SWAP2 SWAP1 PUSH2 0x3301 JUMP JUMPDEST ISZERO ISZERO DUP3 MSTORE PUSH1 0x68 SLOAD PUSH1 0x40 MLOAD PUSH4 0x6B1AA157 PUSH1 0xE0 SHL DUP2 MSTORE PUSH1 0x4 DUP2 ADD DUP7 SWAP1 MSTORE PUSH1 0x1 PUSH1 0x1 PUSH1 0xA0 SHL SUB SWAP1 SWAP2 AND SWAP1 PUSH4 0x6B1AA157 SWAP1 PUSH1 0x24 ADD PUSH1 0x20 PUSH1 0x40 MLOAD DUP1 DUP4 SUB DUP2 DUP7 DUP1 EXTCODESIZE ISZERO DUP1 ISZERO PUSH2 0x19D1 JUMPI PUSH1 0x0 DUP1 REVERT JUMPDEST POP GAS STATICCALL ISZERO DUP1 ISZERO PUSH2 0x19E5 JUMPI RETURNDATASIZE PUSH1 0x0 DUP1 RETURNDATACOPY RETURNDATASIZE PUSH1 0x0 REVERT JUMPDEST POP POP POP POP PUSH1 0x40 MLOAD RETURNDATASIZE PUSH1 0x1F NOT PUSH1 0x1F DUP3 ADD AND DUP3 ADD DUP1 PUSH1 0x40 MSTORE POP DUP2 ADD SWAP1 PUSH2 0x1A09 SWAP2 SWAP1 PUSH2 0x3301 JUMP JUMPDEST ISZERO ISZERO PUSH1 0x20 DUP4 ADD MSTORE PUSH1 0x65 SLOAD PUSH1 0x40 MLOAD PUSH4 0x9AD1F0BB PUSH1 0xE0 SHL DUP2 MSTORE PUSH1 0x4 DUP2 ADD DUP7 SWAP1 MSTORE PUSH1 0x1 PUSH1 0x1 PUSH1 0xA0 SHL SUB SWAP1 SWAP2 AND SWAP1 PUSH4 0x9AD1F0BB SWAP1 PUSH1 0x24 ADD PUSH1 0x20 PUSH1 0x40 MLOAD DUP1 DUP4 SUB DUP2 DUP7 DUP1 EXTCODESIZE ISZERO DUP1 ISZERO PUSH2 0x1A54 JUMPI PUSH1 0x0 DUP1 REVERT JUMPDEST POP GAS STATICCALL ISZERO DUP1 ISZERO PUSH2 0x1A68 JUMPI RETURNDATASIZE PUSH1 0x0 DUP1 RETURNDATACOPY RETURNDATASIZE PUSH1 0x0 REVERT JUMPDEST POP POP POP POP PUSH1 0x40 MLOAD RETURNDATASIZE PUSH1 0x1F NOT PUSH1 0x1F DUP3 ADD AND DUP3 ADD DUP1 PUSH1 0x40 MSTORE POP DUP2 ADD SWAP1 PUSH2 0x1A8C SWAP2 SWAP1 PUSH2 0x3301 JUMP JUMPDEST ISZERO ISZERO PUSH1 0x40 DUP1 DUP5 ADD SWAP2 SWAP1 SWAP2 MSTORE PUSH1 0x65 SLOAD SWAP1 MLOAD PUSH4 0xE06D2EB5 PUSH1 0xE0 SHL DUP2 MSTORE PUSH1 0x4 DUP2 ADD DUP7 SWAP1 MSTORE PUSH1 0x1 PUSH1 0x1 PUSH1 0xA0 SHL SUB SWAP1 SWAP2 AND SWAP1 PUSH4 0xE06D2EB5 SWAP1 PUSH1 0x24 ADD PUSH1 0x20 PUSH1 0x40 MLOAD DUP1 DUP4 SUB DUP2 DUP7 DUP1 EXTCODESIZE ISZERO DUP1 ISZERO PUSH2 0x1ADA JUMPI PUSH1 0x0 DUP1 REVERT JUMPDEST POP GAS STATICCALL ISZERO DUP1 ISZERO PUSH2 0x1AEE JUMPI RETURNDATASIZE PUSH1 0x0 DUP1 RETURNDATACOPY RETURNDATASIZE PUSH1 0x0 REVERT JUMPDEST POP POP POP POP PUSH1 0x40 MLOAD RETURNDATASIZE PUSH1 0x1F NOT PUSH1 0x1F DUP3 ADD AND DUP3 ADD DUP1 PUSH1 0x40 MSTORE POP DUP2 ADD SWAP1 PUSH2 0x1B12 SWAP2 SWAP1 PUSH2 0x333C JUMP JUMPDEST DUP4 MSTORE PUSH1 0x65 SLOAD PUSH1 0x40 MLOAD PUSH4 0x5DD07B23 PUSH1 0xE1 SHL DUP2 MSTORE PUSH1 0x4 DUP2 ADD DUP7 SWAP1 MSTORE PUSH1 0x1 PUSH1 0x1 PUSH1 0xA0 SHL SUB SWAP1 SWAP2 AND SWAP1 PUSH4 0xBBA0F646 SWAP1 PUSH1 0x24 ADD PUSH1 0x20 PUSH1 0x40 MLOAD DUP1 DUP4 SUB DUP2 DUP7 DUP1 EXTCODESIZE ISZERO DUP1 ISZERO PUSH2 0x1B58 JUMPI PUSH1 0x0 DUP1 REVERT JUMPDEST POP GAS STATICCALL ISZERO DUP1 ISZERO PUSH2 0x1B6C JUMPI RETURNDATASIZE PUSH1 0x0 DUP1 RETURNDATACOPY RETURNDATASIZE PUSH1 0x0 REVERT JUMPDEST POP POP POP POP PUSH1 0x40 MLOAD RETURNDATASIZE PUSH1 0x1F NOT PUSH1 0x1F DUP3 ADD AND DUP3 ADD DUP1 PUSH1 0x40 MSTORE POP DUP2 ADD SWAP1 PUSH2 0x1B90 SWAP2 SWAP1 PUSH2 0x333C JUMP JUMPDEST PUSH1 0x20 DUP5 ADD MSTORE PUSH1 0x65 SLOAD PUSH1 0x40 MLOAD PUSH4 0x3F01AC53 PUSH1 0xE1 SHL DUP2 MSTORE PUSH1 0x4 DUP2 ADD DUP7 SWAP1 MSTORE PUSH1 0x1 PUSH1 0x1 PUSH1 0xA0 SHL SUB SWAP1 SWAP2 AND SWAP1 PUSH4 0x7E0358A6 SWAP1 PUSH1 0x24 ADD PUSH1 0x20 PUSH1 0x40 MLOAD DUP1 DUP4 SUB DUP2 DUP7 DUP1 EXTCODESIZE ISZERO DUP1 ISZERO PUSH2 0x1BD9 JUMPI PUSH1 0x0 DUP1 REVERT JUMPDEST POP GAS STATICCALL ISZERO DUP1 ISZERO PUSH2 0x1BED JUMPI RETURNDATASIZE PUSH1 0x0 DUP1 RETURNDATACOPY RETURNDATASIZE PUSH1 0x0 REVERT JUMPDEST POP POP POP POP PUSH1 0x40 MLOAD RETURNDATASIZE PUSH1 0x1F NOT PUSH1 0x1F DUP3 ADD AND DUP3 ADD DUP1 PUSH1 0x40 MSTORE POP DUP2 ADD SWAP1 PUSH2 0x1C11 SWAP2 SWAP1 PUSH2 0x333C JUMP JUMPDEST DUP4 PUSH1 0x2 PUSH1 0x20 MUL ADD MSTORE PUSH1 0x65 SLOAD PUSH1 0x40 MLOAD PUSH4 0x44947C7 PUSH1 0xE2 SHL DUP2 MSTORE PUSH1 0x4 DUP2 ADD DUP7 SWAP1 MSTORE PUSH1 0x1 PUSH1 0x1 PUSH1 0xA0 SHL SUB SWAP1 SWAP2 AND SWAP1 PUSH4 0x11251F1C SWAP1 PUSH1 0x24 ADD PUSH1 0x20 PUSH1 0x40 MLOAD DUP1 DUP4 SUB DUP2 DUP7 DUP1 EXTCODESIZE ISZERO DUP1 ISZERO PUSH2 0x1C5D JUMPI PUSH1 0x0 DUP1 REVERT JUMPDEST POP GAS STATICCALL ISZERO DUP1 ISZERO PUSH2 0x1C71 JUMPI RETURNDATASIZE PUSH1 0x0 DUP1 RETURNDATACOPY RETURNDATASIZE PUSH1 0x0 REVERT JUMPDEST POP POP POP POP PUSH1 0x40 MLOAD RETURNDATASIZE PUSH1 0x1F NOT PUSH1 0x1F DUP3 ADD AND DUP3 ADD DUP1 PUSH1 0x40 MSTORE POP DUP2 ADD SWAP1 PUSH2 0x1C95 SWAP2 SWAP1 PUSH2 0x333C JUMP JUMPDEST PUSH1 0x60 DUP5 ADD MSTORE PUSH1 0x65 SLOAD PUSH1 0x40 MLOAD PUSH4 0x14706383 PUSH1 0xE2 SHL DUP2 MSTORE PUSH1 0x4 DUP2 ADD DUP7 SWAP1 MSTORE PUSH1 0x1 PUSH1 0x1 PUSH1 0xA0 SHL SUB SWAP1 SWAP2 AND SWAP1 PUSH4 0x51C18E0C SWAP1 PUSH1 0x24 ADD PUSH1 0x20 PUSH1 0x40 MLOAD DUP1 DUP4 SUB DUP2 DUP7 DUP1 EXTCODESIZE ISZERO DUP1 ISZERO PUSH2 0x1CDE JUMPI PUSH1 0x0 DUP1 REVERT JUMPDEST POP GAS STATICCALL ISZERO DUP1 ISZERO PUSH2 0x1CF2 JUMPI RETURNDATASIZE PUSH1 0x0 DUP1 RETURNDATACOPY RETURNDATASIZE PUSH1 0x0 REVERT JUMPDEST POP POP POP POP PUSH1 0x40 MLOAD RETURNDATASIZE PUSH1 0x1F NOT PUSH1 0x1F DUP3 ADD AND DUP3 ADD DUP1 PUSH1 0x40 MSTORE POP DUP2 ADD SWAP1 PUSH2 0x1D16 SWAP2 SWAP1 PUSH2 0x333C JUMP JUMPDEST PUSH1 0x80 DUP5 ADD MSTORE PUSH1 0x0 PUSH1 0xA0 DUP5 ADD MSTORE PUSH1 0x65 SLOAD PUSH1 0x40 MLOAD PUSH4 0xCFF840F PUSH1 0xE4 SHL DUP2 MSTORE PUSH1 0x4 DUP2 ADD DUP7 SWAP1 MSTORE PUSH1 0x1 PUSH1 0x1 PUSH1 0xA0 SHL SUB SWAP1 SWAP2 AND SWAP1 PUSH4 0xCFF840F0 SWAP1 PUSH1 0x24 ADD PUSH1 0x20 PUSH1 0x40 MLOAD DUP1 DUP4 SUB DUP2 DUP7 DUP1 EXTCODESIZE ISZERO DUP1 ISZERO PUSH2 0x1D66 JUMPI PUSH1 0x0 DUP1 REVERT JUMPDEST POP GAS STATICCALL ISZERO DUP1 ISZERO PUSH2 0x1D7A JUMPI RETURNDATASIZE PUSH1 0x0 DUP1 RETURNDATACOPY RETURNDATASIZE PUSH1 0x0 REVERT JUMPDEST POP POP POP POP PUSH1 0x40 MLOAD RETURNDATASIZE PUSH1 0x1F NOT PUSH1 0x1F DUP3 ADD AND DUP3 ADD DUP1 PUSH1 0x40 MSTORE POP DUP2 ADD SWAP1 PUSH2 0x1D9E SWAP2 SWAP1 PUSH2 0x333C JUMP JUMPDEST PUSH1 0xC0 DUP5 ADD MSTORE PUSH1 0x65 SLOAD PUSH1 0x40 MLOAD PUSH4 0xE622563 PUSH1 0xE4 SHL DUP2 MSTORE PUSH1 0x4 DUP2 ADD DUP7 SWAP1 MSTORE PUSH1 0x1 PUSH1 0x1 PUSH1 0xA0 SHL SUB SWAP1 SWAP2 AND SWAP1 PUSH4 0xE6225630 SWAP1 PUSH1 0x24 ADD PUSH1 0x20 PUSH1 0x40 MLOAD DUP1 DUP4 SUB DUP2 DUP7 DUP1 EXTCODESIZE ISZERO DUP1 ISZERO PUSH2 0x1DE7 JUMPI PUSH1 0x0 DUP1 REVERT JUMPDEST POP GAS STATICCALL ISZERO DUP1 ISZERO PUSH2 0x1DFB JUMPI RETURNDATASIZE PUSH1 0x0 DUP1 RETURNDATACOPY RETURNDATASIZE PUSH1 0x0 REVERT JUMPDEST POP POP POP POP PUSH1 0x40 MLOAD RETURNDATASIZE PUSH1 0x1F NOT PUSH1 0x1F DUP3 ADD AND DUP3 ADD DUP1 PUSH1 0x40 MSTORE POP DUP2 ADD SWAP1 PUSH2 0x1E1F SWAP2 SWAP1 PUSH2 0x333C JUMP JUMPDEST PUSH1 0xE0 DUP5 ADD MSTORE PUSH1 0x65 SLOAD PUSH1 0x40 MLOAD PUSH4 0xEB22DAA3 PUSH1 0xE0 SHL DUP2 MSTORE PUSH1 0x4 DUP2 ADD DUP7 SWAP1 MSTORE PUSH1 0x1 PUSH1 0x1 PUSH1 0xA0 SHL SUB SWAP1 SWAP2 AND SWAP1 PUSH4 0xEB22DAA3 SWAP1 PUSH1 0x24 ADD PUSH1 0x20 PUSH1 0x40 MLOAD DUP1 DUP4 SUB DUP2 DUP7 DUP1 EXTCODESIZE ISZERO DUP1 ISZERO PUSH2 0x1E68 JUMPI PUSH1 0x0 DUP1 REVERT JUMPDEST POP GAS STATICCALL ISZERO DUP1 ISZERO PUSH2 0x1E7C JUMPI RETURNDATASIZE PUSH1 0x0 DUP1 RETURNDATACOPY RETURNDATASIZE PUSH1 0x0 REVERT JUMPDEST POP POP POP POP PUSH1 0x40 MLOAD RETURNDATASIZE PUSH1 0x1F NOT PUSH1 0x1F DUP3 ADD AND DUP3 ADD DUP1 PUSH1 0x40 MSTORE POP DUP2 ADD SWAP1 PUSH2 0x1EA0 SWAP2 SWAP1 PUSH2 0x333C JUMP JUMPDEST PUSH2 0x100 DUP5 ADD MSTORE PUSH1 0x65 SLOAD PUSH1 0x40 MLOAD PUSH4 0x184E9C2D PUSH1 0xE0 SHL DUP2 MSTORE PUSH1 0x4 DUP2 ADD DUP7 SWAP1 MSTORE PUSH1 0x1 PUSH1 0x1 PUSH1 0xA0 SHL SUB SWAP1 SWAP2 AND SWAP1 PUSH4 0x184E9C2D SWAP1 PUSH1 0x24 ADD PUSH1 0x20 PUSH1 0x40 MLOAD DUP1 DUP4 SUB DUP2 DUP7 DUP1 EXTCODESIZE ISZERO DUP1 ISZERO PUSH2 0x1EEA JUMPI PUSH1 0x0 DUP1 REVERT JUMPDEST POP GAS STATICCALL ISZERO DUP1 ISZERO PUSH2 0x1EFE JUMPI RETURNDATASIZE PUSH1 0x0 DUP1 RETURNDATACOPY RETURNDATASIZE PUSH1 0x0 REVERT JUMPDEST POP POP POP POP PUSH1 0x40 MLOAD RETURNDATASIZE PUSH1 0x1F NOT PUSH1 0x1F DUP3 ADD AND DUP3 ADD DUP1 PUSH1 0x40 MSTORE POP DUP2 ADD SWAP1 PUSH2 0x1F22 SWAP2 SWAP1 PUSH2 0x333C JUMP JUMPDEST PUSH2 0x120 DUP5 ADD MSTORE PUSH1 0x65 SLOAD PUSH1 0x40 MLOAD PUSH4 0x92D9495D PUSH1 0xE0 SHL DUP2 MSTORE PUSH1 0x4 DUP2 ADD DUP7 SWAP1 MSTORE PUSH1 0x1 PUSH1 0x1 PUSH1 0xA0 SHL SUB SWAP1 SWAP2 AND SWAP1 PUSH4 0x92D9495D SWAP1 PUSH1 0x24 ADD PUSH1 0x20 PUSH1 0x40 MLOAD DUP1 DUP4 SUB DUP2 DUP7 DUP1 EXTCODESIZE ISZERO DUP1 ISZERO PUSH2 0x1F6C JUMPI PUSH1 0x0 DUP1 REVERT JUMPDEST POP GAS STATICCALL ISZERO DUP1 ISZERO PUSH2 0x1F80 JUMPI RETURNDATASIZE PUSH1 0x0 DUP1 RETURNDATACOPY RETURNDATASIZE PUSH1 0x0 REVERT JUMPDEST POP POP POP POP PUSH1 0x40 MLOAD RETURNDATASIZE PUSH1 0x1F NOT PUSH1 0x1F DUP3 ADD AND DUP3 ADD DUP1 PUSH1 0x40 MSTORE POP DUP2 ADD SWAP1 PUSH2 0x1FA4 SWAP2 SWAP1 PUSH2 0x333C JUMP JUMPDEST PUSH2 0x140 DUP5 ADD MSTORE PUSH1 0x65 SLOAD PUSH1 0x40 MLOAD PUSH4 0x31509849 PUSH1 0xE2 SHL DUP2 MSTORE PUSH1 0x4 DUP2 ADD DUP7 SWAP1 MSTORE PUSH1 0x1 PUSH1 0x1 PUSH1 0xA0 SHL SUB SWAP1 SWAP2 AND SWAP1 PUSH4 0xC5426124 SWAP1 PUSH1 0x24 ADD PUSH1 0x20 PUSH1 0x40 MLOAD DUP1 DUP4 SUB DUP2 DUP7 DUP1 EXTCODESIZE ISZERO DUP1 ISZERO PUSH2 0x1FEE JUMPI PUSH1 0x0 DUP1 REVERT JUMPDEST POP GAS STATICCALL ISZERO DUP1 ISZERO PUSH2 0x2002 JUMPI RETURNDATASIZE PUSH1 0x0 DUP1 RETURNDATACOPY RETURNDATASIZE PUSH1 0x0 REVERT JUMPDEST POP POP POP POP PUSH1 0x40 MLOAD RETURNDATASIZE PUSH1 0x1F NOT PUSH1 0x1F DUP3 ADD AND DUP3 ADD DUP1 PUSH1 0x40 MSTORE POP DUP2 ADD SWAP1 PUSH2 0x2026 SWAP2 SWAP1 PUSH2 0x333C JUMP JUMPDEST PUSH2 0x160 DUP5 ADD MSTORE PUSH1 0x65 SLOAD PUSH1 0x40 MLOAD PUSH4 0x4B4116D7 PUSH1 0xE1 SHL DUP2 MSTORE PUSH1 0x4 DUP2 ADD DUP7 SWAP1 MSTORE PUSH1 0x1 PUSH1 0x1 PUSH1 0xA0 SHL SUB SWAP1 SWAP2 AND SWAP1 PUSH4 0x96822DAE SWAP1 PUSH1 0x24 ADD PUSH1 0x20 PUSH1 0x40 MLOAD DUP1 DUP4 SUB DUP2 DUP7 DUP1 EXTCODESIZE ISZERO DUP1 ISZERO PUSH2 0x2070 JUMPI PUSH1 0x0 DUP1 REVERT JUMPDEST POP GAS STATICCALL ISZERO DUP1 ISZERO PUSH2 0x2084 JUMPI RETURNDATASIZE PUSH1 0x0 DUP1 RETURNDATACOPY RETURNDATASIZE PUSH1 0x0 REVERT JUMPDEST POP POP POP POP PUSH1 0x40 MLOAD RETURNDATASIZE PUSH1 0x1F NOT PUSH1 0x1F DUP3 ADD AND DUP3 ADD DUP1 PUSH1 0x40 MSTORE POP DUP2 ADD SWAP1 PUSH2 0x20A8 SWAP2 SWAP1 PUSH2 0x333C JUMP JUMPDEST PUSH2 0x180 DUP5 ADD MSTORE PUSH1 0x68 SLOAD PUSH1 0x40 MLOAD PUSH4 0x78F9FACF PUSH1 0xE0 SHL DUP2 MSTORE PUSH1 0x4 DUP2 ADD DUP7 SWAP1 MSTORE PUSH1 0x1 PUSH1 0x1 PUSH1 0xA0 SHL SUB SWAP1 SWAP2 AND SWAP1 PUSH4 0x78F9FACF SWAP1 PUSH1 0x24 ADD PUSH1 0x20 PUSH1 0x40 MLOAD DUP1 DUP4 SUB DUP2 DUP7 DUP1 EXTCODESIZE ISZERO DUP1 ISZERO PUSH2 0x20F2 JUMPI PUSH1 0x0 DUP1 REVERT JUMPDEST POP GAS STATICCALL ISZERO DUP1 ISZERO PUSH2 0x2106 JUMPI RETURNDATASIZE PUSH1 0x0 DUP1 RETURNDATACOPY RETURNDATASIZE PUSH1 0x0 REVERT JUMPDEST POP POP POP POP PUSH1 0x40 MLOAD RETURNDATASIZE PUSH1 0x1F NOT PUSH1 0x1F DUP3 ADD AND DUP3 ADD DUP1 PUSH1 0x40 MSTORE POP DUP2 ADD SWAP1 PUSH2 0x212A SWAP2 SWAP1 PUSH2 0x333C JUMP JUMPDEST PUSH2 0x1A0 DUP5 ADD MSTORE PUSH1 0x68 SLOAD PUSH1 0x40 MLOAD PUSH4 0x14298F83 PUSH1 0xE1 SHL DUP2 MSTORE PUSH1 0x4 DUP2 ADD DUP7 SWAP1 MSTORE PUSH1 0x1 PUSH1 0x1 PUSH1 0xA0 SHL SUB SWAP1 SWAP2 AND SWAP1 PUSH4 0x28531F06 SWAP1 PUSH1 0x24 ADD PUSH1 0x20 PUSH1 0x40 MLOAD DUP1 DUP4 SUB DUP2 DUP7 DUP1 EXTCODESIZE ISZERO DUP1 ISZERO PUSH2 0x2174 JUMPI PUSH1 0x0 DUP1 REVERT JUMPDEST POP GAS STATICCALL ISZERO DUP1 ISZERO PUSH2 0x2188 JUMPI RETURNDATASIZE PUSH1 0x0 DUP1 RETURNDATACOPY RETURNDATASIZE PUSH1 0x0 REVERT JUMPDEST POP POP POP POP PUSH1 0x40 MLOAD RETURNDATASIZE PUSH1 0x1F NOT PUSH1 0x1F DUP3 ADD AND DUP3 ADD DUP1 PUSH1 0x40 MSTORE POP DUP2 ADD SWAP1 PUSH2 0x21AC SWAP2 SWAP1 PUSH2 0x333C JUMP JUMPDEST PUSH2 0x1C0 DUP5 ADD MSTORE PUSH1 0x68 SLOAD PUSH1 0x40 DUP1 MLOAD PUSH4 0xD53DC7EF PUSH1 0xE0 SHL DUP2 MSTORE SWAP1 MLOAD PUSH1 0x1 PUSH1 0x1 PUSH1 0xA0 SHL SUB SWAP1 SWAP3 AND SWAP2 PUSH4 0xD53DC7EF SWAP2 PUSH1 0x4 DUP1 DUP3 ADD SWAP3 PUSH1 0x20 SWAP3 SWAP1 SWAP2 SWAP1 DUP3 SWAP1 SUB ADD DUP2 DUP7 DUP1 EXTCODESIZE ISZERO DUP1 ISZERO PUSH2 0x21F7 JUMPI PUSH1 0x0 DUP1 REVERT JUMPDEST POP GAS STATICCALL ISZERO DUP1 ISZERO PUSH2 0x220B JUMPI RETURNDATASIZE PUSH1 0x0 DUP1 RETURNDATACOPY RETURNDATASIZE PUSH1 0x0 REVERT JUMPDEST POP POP POP POP PUSH1 0x40 MLOAD RETURNDATASIZE PUSH1 0x1F NOT PUSH1 0x1F DUP3 ADD AND DUP3 ADD DUP1 PUSH1 0x40 MSTORE POP DUP2 ADD SWAP1 PUSH2 0x222F SWAP2 SWAP1 PUSH2 0x333C JUMP JUMPDEST PUSH2 0x1E0 DUP5 ADD DUP2 SWAP1 MSTORE PUSH1 0x68 SLOAD PUSH1 0x40 MLOAD PUSH4 0x3453478F PUSH1 0xE0 SHL DUP2 MSTORE PUSH1 0x4 DUP2 ADD SWAP3 SWAP1 SWAP3 MSTORE PUSH1 0x24 DUP3 ADD DUP7 SWAP1 MSTORE PUSH1 0x1 PUSH1 0x1 PUSH1 0xA0 SHL SUB AND SWAP1 PUSH4 0x3453478F SWAP1 PUSH1 0x44 ADD PUSH1 0x20 PUSH1 0x40 MLOAD DUP1 DUP4 SUB DUP2 DUP7 DUP1 EXTCODESIZE ISZERO DUP1 ISZERO PUSH2 0x2281 JUMPI PUSH1 0x0 DUP1 REVERT JUMPDEST POP GAS STATICCALL ISZERO DUP1 ISZERO PUSH2 0x2295 JUMPI RETURNDATASIZE PUSH1 0x0 DUP1 RETURNDATACOPY RETURNDATASIZE PUSH1 0x0 REVERT JUMPDEST POP POP POP POP PUSH1 0x40 MLOAD RETURNDATASIZE PUSH1 0x1F NOT PUSH1 0x1F DUP3 ADD AND DUP3 ADD DUP1 PUSH1 0x40 MSTORE POP DUP2 ADD SWAP1 PUSH2 0x22B9 SWAP2 SWAP1 PUSH2 0x333C JUMP JUMPDEST PUSH2 0x200 DUP5 ADD MSTORE PUSH1 0x68 SLOAD PUSH1 0x40 MLOAD PUSH3 0x380019 PUSH1 0xE2 SHL DUP2 MSTORE PUSH1 0x4 DUP2 ADD DUP7 SWAP1 MSTORE PUSH1 0x1 PUSH1 0x1 PUSH1 0xA0 SHL SUB SWAP1 SWAP2 AND SWAP1 PUSH3 0xE00064 SWAP1 PUSH1 0x24 ADD PUSH1 0x20 PUSH1 0x40 MLOAD DUP1 DUP4 SUB DUP2 DUP7 DUP1 EXTCODESIZE ISZERO DUP1 ISZERO PUSH2 0x2301 JUMPI PUSH1 0x0 DUP1 REVERT JUMPDEST POP GAS STATICCALL ISZERO DUP1 ISZERO PUSH2 0x2315 JUMPI RETURNDATASIZE PUSH1 0x0 DUP1 RETURNDATACOPY RETURNDATASIZE PUSH1 0x0 REVERT JUMPDEST POP POP POP POP PUSH1 0x40 MLOAD RETURNDATASIZE PUSH1 0x1F NOT PUSH1 0x1F DUP3 ADD AND DUP3 ADD DUP1 PUSH1 0x40 MSTORE POP DUP2 ADD SWAP1 PUSH2 0x2339 SWAP2 SWAP1 PUSH2 0x333C JUMP JUMPDEST PUSH2 0x220 DUP5 ADD MSTORE PUSH1 0x69 SLOAD PUSH1 0x40 MLOAD PUSH4 0x9A7A141 PUSH1 0xE1 SHL DUP2 MSTORE PUSH1 0x4 DUP2 ADD DUP7 SWAP1 MSTORE PUSH1 0x1 PUSH1 0x1 PUSH1 0xA0 SHL SUB SWAP1 SWAP2 AND SWAP1 PUSH4 0x134F4282 SWAP1 PUSH1 0x24 ADD PUSH1 0x20 PUSH1 0x40 MLOAD DUP1 DUP4 SUB DUP2 DUP7 DUP1 EXTCODESIZE ISZERO DUP1 ISZERO PUSH2 0x2383 JUMPI PUSH1 0x0 DUP1 REVERT JUMPDEST POP GAS STATICCALL ISZERO DUP1 ISZERO PUSH2 0x2397 JUMPI RETURNDATASIZE PUSH1 0x0 DUP1 RETURNDATACOPY RETURNDATASIZE PUSH1 0x0 REVERT JUMPDEST POP POP POP POP PUSH1 0x40 MLOAD RETURNDATASIZE PUSH1 0x1F NOT PUSH1 0x1F DUP3 ADD AND DUP3 ADD DUP1 PUSH1 0x40 MSTORE POP DUP2 ADD SWAP1 PUSH2 0x23BB SWAP2 SWAP1 PUSH2 0x333C JUMP JUMPDEST PUSH2 0x240 DUP5 ADD MSTORE PUSH1 0x69 SLOAD PUSH1 0x40 MLOAD PUSH4 0xC4C1A187 PUSH1 0xE0 SHL DUP2 MSTORE PUSH1 0x4 DUP2 ADD DUP7 SWAP1 MSTORE PUSH1 0x1 PUSH1 0x1 PUSH1 0xA0 SHL SUB SWAP1 SWAP2 AND SWAP1 PUSH4 0xC4C1A187 SWAP1 PUSH1 0x24 ADD PUSH1 0x20 PUSH1 0x40 MLOAD DUP1 DUP4 SUB DUP2 DUP7 DUP1 EXTCODESIZE ISZERO DUP1 ISZERO PUSH2 0x2405 JUMPI PUSH1 0x0 DUP1 REVERT JUMPDEST POP GAS STATICCALL ISZERO DUP1 ISZERO PUSH2 0x2419 JUMPI RETURNDATASIZE PUSH1 0x0 DUP1 RETURNDATACOPY RETURNDATASIZE PUSH1 0x0 REVERT JUMPDEST POP POP POP POP PUSH1 0x40 MLOAD RETURNDATASIZE PUSH1 0x1F NOT PUSH1 0x1F DUP3 ADD AND DUP3 ADD DUP1 PUSH1 0x40 MSTORE POP DUP2 ADD SWAP1 PUSH2 0x243D SWAP2 SWAP1 PUSH2 0x333C JUMP JUMPDEST PUSH2 0x260 DUP5 ADD MSTORE PUSH1 0x6B SLOAD PUSH1 0x40 MLOAD PUSH4 0xBBAC3EED PUSH1 0xE0 SHL DUP2 MSTORE PUSH1 0x4 DUP2 ADD DUP7 SWAP1 MSTORE PUSH1 0x1 PUSH1 0x1 PUSH1 0xA0 SHL SUB SWAP1 SWAP2 AND SWAP1 PUSH4 0xBBAC3EED SWAP1 PUSH1 0x24 ADD PUSH1 0x20 PUSH1 0x40 MLOAD DUP1 DUP4 SUB DUP2 DUP7 DUP1 EXTCODESIZE ISZERO DUP1 ISZERO PUSH2 0x2487 JUMPI PUSH1 0x0 DUP1 REVERT JUMPDEST POP GAS STATICCALL ISZERO DUP1 ISZERO PUSH2 0x249B JUMPI RETURNDATASIZE PUSH1 0x0 DUP1 RETURNDATACOPY RETURNDATASIZE PUSH1 0x0 REVERT JUMPDEST POP POP POP POP PUSH1 0x40 MLOAD RETURNDATASIZE PUSH1 0x1F NOT PUSH1 0x1F DUP3 ADD AND DUP3 ADD DUP1 PUSH1 0x40 MSTORE POP DUP2 ADD SWAP1 PUSH2 0x24BF SWAP2 SWAP1 PUSH2 0x333C JUMP JUMPDEST PUSH2 0x280 DUP5 ADD MSTORE PUSH1 0x65 SLOAD PUSH1 0x40 MLOAD PUSH4 0x1128A67F PUSH1 0xE2 SHL DUP2 MSTORE PUSH1 0x4 DUP2 ADD DUP7 SWAP1 MSTORE PUSH1 0x1 PUSH1 0x1 PUSH1 0xA0 SHL SUB SWAP1 SWAP2 AND SWAP1 PUSH4 0x44A299FC SWAP1 PUSH1 0x24 ADD PUSH1 0x20 PUSH1 0x40 MLOAD DUP1 DUP4 SUB DUP2 DUP7 DUP1 EXTCODESIZE ISZERO DUP1 ISZERO PUSH2 0x2509 JUMPI PUSH1 0x0 DUP1 REVERT JUMPDEST POP GAS STATICCALL ISZERO DUP1 ISZERO PUSH2 0x251D JUMPI RETURNDATASIZE PUSH1 0x0 DUP1 RETURNDATACOPY RETURNDATASIZE PUSH1 0x0 REVERT JUMPDEST POP POP POP POP PUSH1 0x40 MLOAD RETURNDATASIZE PUSH1 0x1F NOT PUSH1 0x1F DUP3 ADD AND DUP3 ADD DUP1 PUSH1 0x40 MSTORE POP DUP2 ADD SWAP1 PUSH2 0x2541 SWAP2 SWAP1 PUSH2 0x333C JUMP JUMPDEST PUSH2 0x2A0 DUP5 ADD MSTORE PUSH1 0x65 SLOAD PUSH1 0x40 MLOAD PUSH4 0x5F64D7F3 PUSH1 0xE0 SHL DUP2 MSTORE PUSH1 0x4 DUP2 ADD DUP7 SWAP1 MSTORE PUSH1 0x1 PUSH1 0x1 PUSH1 0xA0 SHL SUB SWAP1 SWAP2 AND SWAP1 PUSH4 0x5F64D7F3 SWAP1 PUSH1 0x24 ADD PUSH1 0x40 DUP1 MLOAD DUP1 DUP4 SUB DUP2 DUP7 DUP1 EXTCODESIZE ISZERO DUP1 ISZERO PUSH2 0x258A JUMPI PUSH1 0x0 DUP1 REVERT JUMPDEST POP GAS STATICCALL ISZERO DUP1 ISZERO PUSH2 0x259E JUMPI RETURNDATASIZE PUSH1 0x0 DUP1 RETURNDATACOPY RETURNDATASIZE PUSH1 0x0 REVERT JUMPDEST POP POP POP POP PUSH1 0x40 MLOAD RETURNDATASIZE PUSH1 0x1F NOT PUSH1 0x1F DUP3 ADD AND DUP3 ADD DUP1 PUSH1 0x40 MSTORE POP DUP2 ADD SWAP1 PUSH2 0x1523 SWAP2 SWAP1 PUSH2 0x31DC JUMP JUMPDEST PUSH1 0x60 PUSH1 0x0 DUP1 JUMPDEST DUP4 MLOAD DUP2 LT ISZERO PUSH2 0x2695 JUMPI PUSH1 0x65 SLOAD DUP5 MLOAD PUSH1 0x1 PUSH1 0x1 PUSH1 0xA0 SHL SUB SWAP1 SWAP2 AND SWAP1 PUSH4 0xF0A90FF0 SWAP1 DUP7 SWAP1 DUP5 SWAP1 DUP2 LT PUSH2 0x25FA JUMPI PUSH2 0x25FA PUSH2 0x382D JUMP JUMPDEST PUSH1 0x20 MUL PUSH1 0x20 ADD ADD MLOAD PUSH1 0x40 MLOAD DUP3 PUSH4 0xFFFFFFFF AND PUSH1 0xE0 SHL DUP2 MSTORE PUSH1 0x4 ADD PUSH2 0x2620 SWAP2 DUP2 MSTORE PUSH1 0x20 ADD SWAP1 JUMP JUMPDEST PUSH1 0x20 PUSH1 0x40 MLOAD DUP1 DUP4 SUB DUP2 DUP7 DUP1 EXTCODESIZE ISZERO DUP1 ISZERO PUSH2 0x2638 JUMPI PUSH1 0x0 DUP1 REVERT JUMPDEST POP GAS STATICCALL ISZERO DUP1 ISZERO PUSH2 0x264C JUMPI RETURNDATASIZE PUSH1 0x0 DUP1 RETURNDATACOPY RETURNDATASIZE PUSH1 0x0 REVERT JUMPDEST POP POP POP POP PUSH1 0x40 MLOAD RETURNDATASIZE PUSH1 0x1F NOT PUSH1 0x1F DUP3 ADD AND DUP3 ADD DUP1 PUSH1 0x40 MSTORE POP DUP2 ADD SWAP1 PUSH2 0x2670 SWAP2 SWAP1 PUSH2 0x3301 JUMP JUMPDEST ISZERO PUSH2 0x2683 JUMPI DUP2 PUSH2 0x267F DUP2 PUSH2 0x37D2 JUMP JUMPDEST SWAP3 POP POP JUMPDEST DUP1 PUSH2 0x268D DUP2 PUSH2 0x37D2 JUMP JUMPDEST SWAP2 POP POP PUSH2 0x25C8 JUMP JUMPDEST POP PUSH1 0x0 DUP2 PUSH8 0xFFFFFFFFFFFFFFFF DUP2 GT ISZERO PUSH2 0x26B1 JUMPI PUSH2 0x26B1 PUSH2 0x3843 JUMP JUMPDEST PUSH1 0x40 MLOAD SWAP1 DUP1 DUP3 MSTORE DUP1 PUSH1 0x20 MUL PUSH1 0x20 ADD DUP3 ADD PUSH1 0x40 MSTORE DUP1 ISZERO PUSH2 0x26DA JUMPI DUP2 PUSH1 0x20 ADD PUSH1 0x20 DUP3 MUL DUP1 CALLDATASIZE DUP4 CALLDATACOPY ADD SWAP1 POP JUMPDEST POP SWAP1 POP PUSH1 0x0 SWAP2 POP PUSH1 0x0 JUMPDEST DUP5 MLOAD DUP2 LT ISZERO PUSH2 0x27E8 JUMPI PUSH1 0x65 SLOAD DUP6 MLOAD PUSH1 0x1 PUSH1 0x1 PUSH1 0xA0 SHL SUB SWAP1 SWAP2 AND SWAP1 PUSH4 0xF0A90FF0 SWAP1 DUP8 SWAP1 DUP5 SWAP1 DUP2 LT PUSH2 0x2716 JUMPI PUSH2 0x2716 PUSH2 0x382D JUMP JUMPDEST PUSH1 0x20 MUL PUSH1 0x20 ADD ADD MLOAD PUSH1 0x40 MLOAD DUP3 PUSH4 0xFFFFFFFF AND PUSH1 0xE0 SHL DUP2 MSTORE PUSH1 0x4 ADD PUSH2 0x273C SWAP2 DUP2 MSTORE PUSH1 0x20 ADD SWAP1 JUMP JUMPDEST PUSH1 0x20 PUSH1 0x40 MLOAD DUP1 DUP4 SUB DUP2 DUP7 DUP1 EXTCODESIZE ISZERO DUP1 ISZERO PUSH2 0x2754 JUMPI PUSH1 0x0 DUP1 REVERT JUMPDEST POP GAS STATICCALL ISZERO DUP1 ISZERO PUSH2 0x2768 JUMPI RETURNDATASIZE PUSH1 0x0 DUP1 RETURNDATACOPY RETURNDATASIZE PUSH1 0x0 REVERT JUMPDEST POP POP POP POP PUSH1 0x40 MLOAD RETURNDATASIZE PUSH1 0x1F NOT PUSH1 0x1F DUP3 ADD AND DUP3 ADD DUP1 PUSH1 0x40 MSTORE POP DUP2 ADD SWAP1 PUSH2 0x278C SWAP2 SWAP1 PUSH2 0x3301 JUMP JUMPDEST ISZERO PUSH2 0x27D6 JUMPI DUP5 DUP2 DUP2 MLOAD DUP2 LT PUSH2 0x27A3 JUMPI PUSH2 0x27A3 PUSH2 0x382D JUMP JUMPDEST PUSH1 0x20 MUL PUSH1 0x20 ADD ADD MLOAD DUP3 DUP5 DUP2 MLOAD DUP2 LT PUSH2 0x27BD JUMPI PUSH2 0x27BD PUSH2 0x382D JUMP JUMPDEST PUSH1 0x20 SWAP1 DUP2 MUL SWAP2 SWAP1 SWAP2 ADD ADD MSTORE DUP3 PUSH2 0x27D2 DUP2 PUSH2 0x37D2 JUMP JUMPDEST SWAP4 POP POP JUMPDEST DUP1 PUSH2 0x27E0 DUP2 PUSH2 0x37D2 JUMP JUMPDEST SWAP2 POP POP PUSH2 0x26E4 JUMP JUMPDEST POP SWAP4 SWAP3 POP POP POP JUMP JUMPDEST PUSH1 0x60 PUSH1 0x0 DUP3 MLOAD DUP5 MLOAD DUP7 MLOAD PUSH2 0x2804 SWAP2 SWAP1 PUSH2 0x3740 JUMP JUMPDEST PUSH2 0x280E SWAP2 SWAP1 PUSH2 0x3740 JUMP JUMPDEST PUSH8 0xFFFFFFFFFFFFFFFF DUP2 GT ISZERO PUSH2 0x2826 JUMPI PUSH2 0x2826 PUSH2 0x3843 JUMP JUMPDEST PUSH1 0x40 MLOAD SWAP1 DUP1 DUP3 MSTORE DUP1 PUSH1 0x20 MUL PUSH1 0x20 ADD DUP3 ADD PUSH1 0x40 MSTORE DUP1 ISZERO PUSH2 0x284F JUMPI DUP2 PUSH1 0x20 ADD PUSH1 0x20 DUP3 MUL DUP1 CALLDATASIZE DUP4 CALLDATACOPY ADD SWAP1 POP JUMPDEST POP SWAP1 POP PUSH1 0x0 JUMPDEST DUP6 MLOAD DUP2 LT ISZERO PUSH2 0x28A7 JUMPI DUP6 DUP2 DUP2 MLOAD DUP2 LT PUSH2 0x2870 JUMPI PUSH2 0x2870 PUSH2 0x382D JUMP JUMPDEST PUSH1 0x20 MUL PUSH1 0x20 ADD ADD MLOAD DUP3 DUP3 DUP2 MLOAD DUP2 LT PUSH2 0x288A JUMPI PUSH2 0x288A PUSH2 0x382D JUMP JUMPDEST PUSH1 0x20 SWAP1 DUP2 MUL SWAP2 SWAP1 SWAP2 ADD ADD MSTORE DUP1 PUSH2 0x289F DUP2 PUSH2 0x37D2 JUMP JUMPDEST SWAP2 POP POP PUSH2 0x2855 JUMP JUMPDEST POP PUSH1 0x0 JUMPDEST DUP5 MLOAD DUP2 LT ISZERO PUSH2 0x2909 JUMPI DUP5 DUP2 DUP2 MLOAD DUP2 LT PUSH2 0x28C6 JUMPI PUSH2 0x28C6 PUSH2 0x382D JUMP JUMPDEST PUSH1 0x20 MUL PUSH1 0x20 ADD ADD MLOAD DUP3 DUP3 DUP9 MLOAD PUSH2 0x28DC SWAP2 SWAP1 PUSH2 0x3740 JUMP JUMPDEST DUP2 MLOAD DUP2 LT PUSH2 0x28EC JUMPI PUSH2 0x28EC PUSH2 0x382D JUMP JUMPDEST PUSH1 0x20 SWAP1 DUP2 MUL SWAP2 SWAP1 SWAP2 ADD ADD MSTORE DUP1 PUSH2 0x2901 DUP2 PUSH2 0x37D2 JUMP JUMPDEST SWAP2 POP POP PUSH2 0x28AB JUMP JUMPDEST POP PUSH1 0x0 JUMPDEST DUP4 MLOAD DUP2 LT ISZERO PUSH2 0x2977 JUMPI DUP4 DUP2 DUP2 MLOAD DUP2 LT PUSH2 0x2928 JUMPI PUSH2 0x2928 PUSH2 0x382D JUMP JUMPDEST PUSH1 0x20 MUL PUSH1 0x20 ADD ADD MLOAD DUP3 DUP3 DUP8 MLOAD DUP10 MLOAD PUSH2 0x2940 SWAP2 SWAP1 PUSH2 0x3740 JUMP JUMPDEST PUSH2 0x294A SWAP2 SWAP1 PUSH2 0x3740 JUMP JUMPDEST DUP2 MLOAD DUP2 LT PUSH2 0x295A JUMPI PUSH2 0x295A PUSH2 0x382D JUMP JUMPDEST PUSH1 0x20 SWAP1 DUP2 MUL SWAP2 SWAP1 SWAP2 ADD ADD MSTORE DUP1 PUSH2 0x296F DUP2 PUSH2 0x37D2 JUMP JUMPDEST SWAP2 POP POP PUSH2 0x290D JUMP JUMPDEST POP SWAP5 SWAP4 POP POP POP POP JUMP JUMPDEST PUSH1 0x60 DUP2 PUSH2 0x29A4 JUMPI POP POP PUSH1 0x40 DUP1 MLOAD DUP1 DUP3 ADD SWAP1 SWAP2 MSTORE PUSH1 0x1 DUP2 MSTORE PUSH1 0x3 PUSH1 0xFC SHL PUSH1 0x20 DUP3 ADD MSTORE SWAP1 JUMP JUMPDEST DUP2 PUSH1 0x0 JUMPDEST DUP2 ISZERO PUSH2 0x29CE JUMPI DUP1 PUSH2 0x29B8 DUP2 PUSH2 0x37D2 JUMP JUMPDEST SWAP2 POP PUSH2 0x29C7 SWAP1 POP PUSH1 0xA DUP4 PUSH2 0x3758 JUMP JUMPDEST SWAP2 POP PUSH2 0x29A8 JUMP JUMPDEST PUSH1 0x0 DUP2 PUSH8 0xFFFFFFFFFFFFFFFF DUP2 GT ISZERO PUSH2 0x29E9 JUMPI PUSH2 0x29E9 PUSH2 0x3843 JUMP JUMPDEST PUSH1 0x40 MLOAD SWAP1 DUP1 DUP3 MSTORE DUP1 PUSH1 0x1F ADD PUSH1 0x1F NOT AND PUSH1 0x20 ADD DUP3 ADD PUSH1 0x40 MSTORE DUP1 ISZERO PUSH2 0x2A13 JUMPI PUSH1 0x20 DUP3 ADD DUP2 DUP1 CALLDATASIZE DUP4 CALLDATACOPY ADD SWAP1 POP JUMPDEST POP SWAP1 POP JUMPDEST DUP5 ISZERO PUSH2 0x2A7E JUMPI PUSH2 0x2A28 PUSH1 0x1 DUP4 PUSH2 0x378B JUMP JUMPDEST SWAP2 POP PUSH2 0x2A35 PUSH1 0xA DUP7 PUSH2 0x37ED JUMP JUMPDEST PUSH2 0x2A40 SWAP1 PUSH1 0x30 PUSH2 0x3740 JUMP JUMPDEST PUSH1 0xF8 SHL DUP2 DUP4 DUP2 MLOAD DUP2 LT PUSH2 0x2A55 JUMPI PUSH2 0x2A55 PUSH2 0x382D JUMP JUMPDEST PUSH1 0x20 ADD ADD SWAP1 PUSH1 0x1 PUSH1 0x1 PUSH1 0xF8 SHL SUB NOT AND SWAP1 DUP2 PUSH1 0x0 BYTE SWAP1 MSTORE8 POP PUSH2 0x2A77 PUSH1 0xA DUP7 PUSH2 0x3758 JUMP JUMPDEST SWAP5 POP PUSH2 0x2A17 JUMP JUMPDEST SWAP5 SWAP4 POP POP POP POP JUMP JUMPDEST PUSH1 0x33 DUP1 SLOAD PUSH1 0x1 PUSH1 0x1 PUSH1 0xA0 SHL SUB DUP4 DUP2 AND PUSH1 0x1 PUSH1 0x1 PUSH1 0xA0 SHL SUB NOT DUP4 AND DUP2 OR SWAP1 SWAP4 SSTORE PUSH1 0x40 MLOAD SWAP2 AND SWAP2 SWAP1 DUP3 SWAP1 PUSH32 0x8BE0079C531659141344CD1FD0A4F28419497F9722A3DAAFE3B4186F6B6457E0 SWAP1 PUSH1 0x0 SWAP1 LOG3 POP POP JUMP JUMPDEST PUSH1 0x0 SLOAD PUSH2 0x100 SWAP1 DIV PUSH1 0xFF AND PUSH2 0x10E7 JUMPI PUSH1 0x40 MLOAD PUSH3 0x461BCD PUSH1 0xE5 SHL DUP2 MSTORE PUSH1 0x4 ADD PUSH2 0x49F SWAP1 PUSH2 0x3644 JUMP JUMPDEST PUSH1 0x0 SLOAD PUSH2 0x100 SWAP1 DIV PUSH1 0xFF AND PUSH2 0x2B26 JUMPI PUSH1 0x40 MLOAD PUSH3 0x461BCD PUSH1 0xE5 SHL DUP2 MSTORE PUSH1 0x4 ADD PUSH2 0x49F SWAP1 PUSH2 0x3644 JUMP JUMPDEST PUSH2 0x10E7 CALLER PUSH2 0x2A86 JUMP JUMPDEST PUSH1 0x65 SLOAD PUSH1 0x40 MLOAD PUSH4 0x136F8D5F PUSH1 0xE3 SHL DUP2 MSTORE PUSH1 0x1 PUSH1 0x1 PUSH1 0xA0 SHL SUB DUP4 DUP2 AND PUSH1 0x4 DUP4 ADD MSTORE PUSH1 0x1 PUSH1 0x24 DUP4 ADD MSTORE PUSH1 0x0 SWAP3 DUP4 SWAP3 DUP4 SWAP3 DUP4 SWAP3 AND SWAP1 PUSH4 0x9B7C6AF8 SWAP1 PUSH1 0x44 ADD PUSH1 0x0 PUSH1 0x40 MLOAD DUP1 DUP4 SUB DUP2 DUP7 DUP1 EXTCODESIZE ISZERO DUP1 ISZERO PUSH2 0x2B82 JUMPI PUSH1 0x0 DUP1 REVERT JUMPDEST POP GAS STATICCALL ISZERO DUP1 ISZERO PUSH2 0x2B96 JUMPI RETURNDATASIZE PUSH1 0x0 DUP1 RETURNDATACOPY RETURNDATASIZE PUSH1 0x0 REVERT JUMPDEST POP POP POP POP PUSH1 0x40 MLOAD RETURNDATASIZE PUSH1 0x0 DUP3 RETURNDATACOPY PUSH1 0x1F RETURNDATASIZE SWAP1 DUP2 ADD PUSH1 0x1F NOT AND DUP3 ADD PUSH1 0x40 MSTORE PUSH2 0x2BBE SWAP2 SWAP1 DUP2 ADD SWAP1 PUSH2 0x3264 JUMP JUMPDEST PUSH1 0x65 SLOAD PUSH1 0x40 MLOAD PUSH4 0x1847D46B PUSH1 0xE2 SHL DUP2 MSTORE PUSH1 0x1 PUSH1 0x1 PUSH1 0xA0 SHL SUB DUP9 DUP2 AND PUSH1 0x4 DUP4 ADD MSTORE SWAP3 SWAP4 POP PUSH1 0x0 SWAP3 SWAP1 SWAP2 AND SWAP1 PUSH4 0x611F51AC SWAP1 PUSH1 0x24 ADD PUSH1 0x0 PUSH1 0x40 MLOAD DUP1 DUP4 SUB DUP2 DUP7 DUP1 EXTCODESIZE ISZERO DUP1 ISZERO PUSH2 0x2C09 JUMPI PUSH1 0x0 DUP1 REVERT JUMPDEST POP GAS STATICCALL ISZERO DUP1 ISZERO PUSH2 0x2C1D JUMPI RETURNDATASIZE PUSH1 0x0 DUP1 RETURNDATACOPY RETURNDATASIZE PUSH1 0x0 REVERT JUMPDEST POP POP POP POP PUSH1 0x40 MLOAD RETURNDATASIZE PUSH1 0x0 DUP3 RETURNDATACOPY PUSH1 0x1F RETURNDATASIZE SWAP1 DUP2 ADD PUSH1 0x1F NOT AND DUP3 ADD PUSH1 0x40 MSTORE PUSH2 0x2C45 SWAP2 SWAP1 DUP2 ADD SWAP1 PUSH2 0x3264 JUMP JUMPDEST SWAP1 POP DUP2 MLOAD SWAP3 POP PUSH1 0x0 JUMPDEST DUP2 MLOAD DUP2 LT ISZERO PUSH2 0x2D30 JUMPI PUSH1 0x65 SLOAD DUP3 MLOAD PUSH1 0x1 PUSH1 0x1 PUSH1 0xA0 SHL SUB SWAP1 SWAP2 AND SWAP1 PUSH4 0xE06D2EB5 SWAP1 DUP5 SWAP1 DUP5 SWAP1 DUP2 LT PUSH2 0x2C80 JUMPI PUSH2 0x2C80 PUSH2 0x382D JUMP JUMPDEST PUSH1 0x20 MUL PUSH1 0x20 ADD ADD MLOAD PUSH1 0x40 MLOAD DUP3 PUSH4 0xFFFFFFFF AND PUSH1 0xE0 SHL DUP2 MSTORE PUSH1 0x4 ADD PUSH2 0x2CA6 SWAP2 DUP2 MSTORE PUSH1 0x20 ADD SWAP1 JUMP JUMPDEST PUSH1 0x20 PUSH1 0x40 MLOAD DUP1 DUP4 SUB DUP2 DUP7 DUP1 EXTCODESIZE ISZERO DUP1 ISZERO PUSH2 0x2CBE JUMPI PUSH1 0x0 DUP1 REVERT JUMPDEST POP GAS STATICCALL ISZERO DUP1 ISZERO PUSH2 0x2CD2 JUMPI RETURNDATASIZE PUSH1 0x0 DUP1 RETURNDATACOPY RETURNDATASIZE PUSH1 0x0 REVERT JUMPDEST POP POP POP POP PUSH1 0x40 MLOAD RETURNDATASIZE PUSH1 0x1F NOT PUSH1 0x1F DUP3 ADD AND DUP3 ADD DUP1 PUSH1 0x40 MSTORE POP DUP2 ADD SWAP1 PUSH2 0x2CF6 SWAP2 SWAP1 PUSH2 0x333C JUMP JUMPDEST PUSH1 0x1 EQ ISZERO PUSH2 0x2D10 JUMPI DUP6 PUSH2 0x2D08 DUP2 PUSH2 0x37D2 JUMP JUMPDEST SWAP7 POP POP PUSH2 0x2D1E JUMP JUMPDEST DUP5 PUSH2 0x2D1A DUP2 PUSH2 0x37D2 JUMP JUMPDEST SWAP6 POP POP JUMPDEST DUP1 PUSH2 0x2D28 DUP2 PUSH2 0x37D2 JUMP JUMPDEST SWAP2 POP POP PUSH2 0x2C4E JUMP JUMPDEST POP PUSH1 0x68 SLOAD PUSH1 0x40 MLOAD PUSH4 0x7ED81E33 PUSH1 0xE1 SHL DUP2 MSTORE PUSH1 0x1 PUSH1 0x1 PUSH1 0xA0 SHL SUB DUP9 DUP2 AND PUSH1 0x4 DUP4 ADD MSTORE PUSH1 0x0 SWAP3 AND SWAP1 PUSH4 0xFDB03C66 SWAP1 PUSH1 0x24 ADD PUSH1 0x0 PUSH1 0x40 MLOAD DUP1 DUP4 SUB DUP2 DUP7 DUP1 EXTCODESIZE ISZERO DUP1 ISZERO PUSH2 0x2D77 JUMPI PUSH1 0x0 DUP1 REVERT JUMPDEST POP GAS STATICCALL ISZERO DUP1 ISZERO PUSH2 0x2D8B JUMPI RETURNDATASIZE PUSH1 0x0 DUP1 RETURNDATACOPY RETURNDATASIZE PUSH1 0x0 REVERT JUMPDEST POP POP POP POP PUSH1 0x40 MLOAD RETURNDATASIZE PUSH1 0x0 DUP3 RETURNDATACOPY PUSH1 0x1F RETURNDATASIZE SWAP1 DUP2 ADD PUSH1 0x1F NOT AND DUP3 ADD PUSH1 0x40 MSTORE PUSH2 0x2DB3 SWAP2 SWAP1 DUP2 ADD SWAP1 PUSH2 0x3264 JUMP JUMPDEST SWAP1 POP PUSH1 0x0 JUMPDEST DUP2 MLOAD DUP2 LT ISZERO PUSH2 0x2F4C JUMPI PUSH1 0x65 SLOAD DUP3 MLOAD PUSH1 0x1 PUSH1 0x1 PUSH1 0xA0 SHL SUB SWAP1 SWAP2 AND SWAP1 PUSH4 0xF0A90FF0 SWAP1 DUP5 SWAP1 DUP5 SWAP1 DUP2 LT PUSH2 0x2DEA JUMPI PUSH2 0x2DEA PUSH2 0x382D JUMP JUMPDEST PUSH1 0x20 MUL PUSH1 0x20 ADD ADD MLOAD PUSH1 0x40 MLOAD DUP3 PUSH4 0xFFFFFFFF AND PUSH1 0xE0 SHL DUP2 MSTORE PUSH1 0x4 ADD PUSH2 0x2E10 SWAP2 DUP2 MSTORE PUSH1 0x20 ADD SWAP1 JUMP JUMPDEST PUSH1 0x20 PUSH1 0x40 MLOAD DUP1 DUP4 SUB DUP2 DUP7 DUP1 EXTCODESIZE ISZERO DUP1 ISZERO PUSH2 0x2E28 JUMPI PUSH1 0x0 DUP1 REVERT JUMPDEST POP GAS STATICCALL ISZERO DUP1 ISZERO PUSH2 0x2E3C JUMPI RETURNDATASIZE PUSH1 0x0 DUP1 RETURNDATACOPY RETURNDATASIZE PUSH1 0x0 REVERT JUMPDEST POP POP POP POP PUSH1 0x40 MLOAD RETURNDATASIZE PUSH1 0x1F NOT PUSH1 0x1F DUP3 ADD AND DUP3 ADD DUP1 PUSH1 0x40 MSTORE POP DUP2 ADD SWAP1 PUSH2 0x2E60 SWAP2 SWAP1 PUSH2 0x3301 JUMP JUMPDEST ISZERO PUSH2 0x2E73 JUMPI DUP5 PUSH2 0x2E6F DUP2 PUSH2 0x37D2 JUMP JUMPDEST SWAP6 POP POP JUMPDEST PUSH1 0x65 SLOAD DUP3 MLOAD PUSH1 0x1 PUSH1 0x1 PUSH1 0xA0 SHL SUB SWAP1 SWAP2 AND SWAP1 PUSH4 0xE06D2EB5 SWAP1 DUP5 SWAP1 DUP5 SWAP1 DUP2 LT PUSH2 0x2E9C JUMPI PUSH2 0x2E9C PUSH2 0x382D JUMP JUMPDEST PUSH1 0x20 MUL PUSH1 0x20 ADD ADD MLOAD PUSH1 0x40 MLOAD DUP3 PUSH4 0xFFFFFFFF AND PUSH1 0xE0 SHL DUP2 MSTORE PUSH1 0x4 ADD PUSH2 0x2EC2 SWAP2 DUP2 MSTORE PUSH1 0x20 ADD SWAP1 JUMP JUMPDEST PUSH1 0x20 PUSH1 0x40 MLOAD DUP1 DUP4 SUB DUP2 DUP7 DUP1 EXTCODESIZE ISZERO DUP1 ISZERO PUSH2 0x2EDA JUMPI PUSH1 0x0 DUP1 REVERT JUMPDEST POP GAS STATICCALL ISZERO DUP1 ISZERO PUSH2 0x2EEE JUMPI RETURNDATASIZE PUSH1 0x0 DUP1 RETURNDATACOPY RETURNDATASIZE PUSH1 0x0 REVERT JUMPDEST POP POP POP POP PUSH1 0x40 MLOAD RETURNDATASIZE PUSH1 0x1F NOT PUSH1 0x1F DUP3 ADD AND DUP3 ADD DUP1 PUSH1 0x40 MSTORE POP DUP2 ADD SWAP1 PUSH2 0x2F12 SWAP2 SWAP1 PUSH2 0x333C JUMP JUMPDEST PUSH1 0x1 EQ ISZERO PUSH2 0x2F2C JUMPI DUP7 PUSH2 0x2F24 DUP2 PUSH2 0x37D2 JUMP JUMPDEST SWAP8 POP POP PUSH2 0x2F3A JUMP JUMPDEST DUP6 PUSH2 0x2F36 DUP2 PUSH2 0x37D2 JUMP JUMPDEST SWAP7 POP POP JUMPDEST DUP1 PUSH2 0x2F44 DUP2 PUSH2 0x37D2 JUMP JUMPDEST SWAP2 POP POP PUSH2 0x2DB8 JUMP JUMPDEST POP POP POP POP SWAP2 SWAP4 SWAP1 SWAP3 POP JUMP JUMPDEST PUSH1 0x6E SLOAD PUSH1 0x40 MLOAD PUSH4 0xF4DE607 PUSH1 0xE1 SHL DUP2 MSTORE PUSH1 0x1 PUSH1 0x1 PUSH1 0xA0 SHL SUB DUP4 DUP2 AND PUSH1 0x4 DUP4 ADD MSTORE PUSH1 0x0 SWAP3 DUP4 SWAP3 SWAP2 AND SWAP1 PUSH4 0x1E9BCC0E SWAP1 PUSH1 0x24 ADD PUSH1 0x20 PUSH1 0x40 MLOAD DUP1 DUP4 SUB DUP2 DUP7 DUP1 EXTCODESIZE ISZERO DUP1 ISZERO PUSH2 0x2FA0 JUMPI PUSH1 0x0 DUP1 REVERT JUMPDEST POP GAS STATICCALL ISZERO DUP1 ISZERO PUSH2 0x2FB4 JUMPI RETURNDATASIZE PUSH1 0x0 DUP1 RETURNDATACOPY RETURNDATASIZE PUSH1 0x0 REVERT JUMPDEST POP POP POP POP PUSH1 0x40 MLOAD RETURNDATASIZE PUSH1 0x1F NOT PUSH1 0x1F DUP3 ADD AND DUP3 ADD DUP1 PUSH1 0x40 MSTORE POP DUP2 ADD SWAP1 PUSH2 0x2FD8 SWAP2 SWAP1 PUSH2 0x333C JUMP JUMPDEST PUSH2 0x2FE2 SWAP1 DUP4 PUSH2 0x3740 JUMP JUMPDEST PUSH1 0x6E SLOAD PUSH1 0x40 MLOAD PUSH4 0xC542A90B PUSH1 0xE0 SHL DUP2 MSTORE PUSH1 0x1 PUSH1 0x1 PUSH1 0xA0 SHL SUB DUP7 DUP2 AND PUSH1 0x4 DUP4 ADD MSTORE SWAP3 SWAP5 POP SWAP2 AND SWAP1 PUSH4 0xC542A90B SWAP1 PUSH1 0x24 ADD PUSH1 0x20 PUSH1 0x40 MLOAD DUP1 DUP4 SUB DUP2 DUP7 DUP1 EXTCODESIZE ISZERO DUP1 ISZERO PUSH2 0x3029 JUMPI PUSH1 0x0 DUP1 REVERT JUMPDEST POP GAS STATICCALL ISZERO DUP1 ISZERO PUSH2 0x303D JUMPI RETURNDATASIZE PUSH1 0x0 DUP1 RETURNDATACOPY RETURNDATASIZE PUSH1 0x0 REVERT JUMPDEST POP POP POP POP PUSH1 0x40 MLOAD RETURNDATASIZE PUSH1 0x1F NOT PUSH1 0x1F DUP3 ADD AND DUP3 ADD DUP1 PUSH1 0x40 MSTORE POP DUP2 ADD SWAP1 PUSH2 0x3061 SWAP2 SWAP1 PUSH2 0x333C JUMP JUMPDEST PUSH2 0x306B SWAP1 DUP3 PUSH2 0x3740 JUMP JUMPDEST PUSH1 0x6C SLOAD PUSH1 0x40 MLOAD PUSH4 0xCACD001 PUSH1 0xE1 SHL DUP2 MSTORE PUSH1 0x1 PUSH1 0x1 PUSH1 0xA0 SHL SUB DUP7 DUP2 AND PUSH1 0x4 DUP4 ADD MSTORE SWAP3 SWAP4 POP PUSH1 0x0 SWAP3 SWAP1 SWAP2 AND SWAP1 PUSH4 0x1959A002 SWAP1 PUSH1 0x24 ADD PUSH1 0x40 DUP1 MLOAD DUP1 DUP4 SUB DUP2 DUP7 DUP1 EXTCODESIZE ISZERO DUP1 ISZERO PUSH2 0x30B5 JUMPI PUSH1 0x0 DUP1 REVERT JUMPDEST POP GAS STATICCALL ISZERO DUP1 ISZERO PUSH2 0x30C9 JUMPI RETURNDATASIZE PUSH1 0x0 DUP1 RETURNDATACOPY RETURNDATASIZE PUSH1 0x0 REVERT JUMPDEST POP POP POP POP PUSH1 0x40 MLOAD RETURNDATASIZE PUSH1 0x1F NOT PUSH1 0x1F DUP3 ADD AND DUP3 ADD DUP1 PUSH1 0x40 MSTORE POP DUP2 ADD SWAP1 PUSH2 0x30ED SWAP2 SWAP1 PUSH2 0x33F9 JUMP JUMPDEST SWAP2 POP PUSH2 0x30FB SWAP1 POP DUP2 DUP4 PUSH2 0x3740 JUMP JUMPDEST SWAP2 POP POP SWAP2 POP SWAP2 JUMP JUMPDEST PUSH1 0x40 MLOAD DUP1 PUSH1 0xA0 ADD PUSH1 0x40 MSTORE DUP1 PUSH1 0x5 SWAP1 PUSH1 0x20 DUP3 MUL DUP1 CALLDATASIZE DUP4 CALLDATACOPY POP SWAP2 SWAP3 SWAP2 POP POP JUMP JUMPDEST PUSH1 0x40 MLOAD DUP1 PUSH1 0x60 ADD PUSH1 0x40 MSTORE DUP1 PUSH1 0x3 SWAP1 PUSH1 0x20 DUP3 MUL DUP1 CALLDATASIZE DUP4 CALLDATACOPY POP SWAP2 SWAP3 SWAP2 POP POP JUMP JUMPDEST PUSH1 0x40 MLOAD DUP1 PUSH2 0x140 ADD PUSH1 0x40 MSTORE DUP1 PUSH1 0xA SWAP1 PUSH1 0x20 DUP3 MUL DUP1 CALLDATASIZE DUP4 CALLDATACOPY POP SWAP2 SWAP3 SWAP2 POP POP JUMP JUMPDEST PUSH1 0x40 MLOAD DUP1 PUSH2 0x2C0 ADD PUSH1 0x40 MSTORE DUP1 PUSH1 0x16 SWAP1 PUSH1 0x20 DUP3 MUL DUP1 CALLDATASIZE DUP4 CALLDATACOPY POP SWAP2 SWAP3 SWAP2 POP POP JUMP JUMPDEST PUSH1 0x40 MLOAD DUP1 PUSH1 0x40 ADD PUSH1 0x40 MSTORE DUP1 PUSH1 0x2 SWAP1 PUSH1 0x20 DUP3 MUL DUP1 CALLDATASIZE DUP4 CALLDATACOPY POP SWAP2 SWAP3 SWAP2 POP POP JUMP JUMPDEST PUSH1 0x0 PUSH1 0x20 DUP3 DUP5 SUB SLT ISZERO PUSH2 0x31AD JUMPI PUSH1 0x0 DUP1 REVERT JUMPDEST DUP2 CALLDATALOAD PUSH2 0x31B8 DUP2 PUSH2 0x3859 JUMP JUMPDEST SWAP4 SWAP3 POP POP POP JUMP JUMPDEST PUSH1 0x0 PUSH1 0x20 DUP3 DUP5 SUB SLT ISZERO PUSH2 0x31D1 JUMPI PUSH1 0x0 DUP1 REVERT JUMPDEST DUP2 MLOAD PUSH2 0x31B8 DUP2 PUSH2 0x3859 JUMP JUMPDEST PUSH1 0x0 PUSH1 0x40 DUP3 DUP5 SUB SLT ISZERO PUSH2 0x31EE JUMPI PUSH1 0x0 DUP1 REVERT JUMPDEST DUP3 PUSH1 0x1F DUP4 ADD SLT PUSH2 0x31FD JUMPI PUSH1 0x0 DUP1 REVERT JUMPDEST PUSH1 0x40 MLOAD PUSH1 0x40 DUP2 ADD DUP2 DUP2 LT PUSH8 0xFFFFFFFFFFFFFFFF DUP3 GT OR ISZERO PUSH2 0x3220 JUMPI PUSH2 0x3220 PUSH2 0x3843 JUMP JUMPDEST DUP1 PUSH1 0x40 MSTORE POP DUP1 DUP4 DUP6 PUSH1 0x40 DUP7 ADD GT ISZERO PUSH2 0x3237 JUMPI PUSH1 0x0 DUP1 REVERT JUMPDEST PUSH1 0x0 JUMPDEST PUSH1 0x2 DUP2 LT ISZERO PUSH2 0x3259 JUMPI DUP2 MLOAD DUP4 MSTORE PUSH1 0x20 SWAP3 DUP4 ADD SWAP3 SWAP1 SWAP2 ADD SWAP1 PUSH1 0x1 ADD PUSH2 0x323A JUMP JUMPDEST POP SWAP2 SWAP6 SWAP5 POP POP POP POP POP JUMP JUMPDEST PUSH1 0x0 PUSH1 0x20 DUP1 DUP4 DUP6 SUB SLT ISZERO PUSH2 0x3277 JUMPI PUSH1 0x0 DUP1 REVERT JUMPDEST DUP3 MLOAD PUSH8 0xFFFFFFFFFFFFFFFF DUP2 GT ISZERO PUSH2 0x328E JUMPI PUSH1 0x0 DUP1 REVERT JUMPDEST DUP4 ADD PUSH1 0x1F DUP2 ADD DUP6 SGT PUSH2 0x329F JUMPI PUSH1 0x0 DUP1 REVERT JUMPDEST DUP1 MLOAD PUSH2 0x32B2 PUSH2 0x32AD DUP3 PUSH2 0x371C JUMP JUMPDEST PUSH2 0x36EB JUMP JUMPDEST DUP1 DUP3 DUP3 MSTORE DUP5 DUP3 ADD SWAP2 POP DUP5 DUP5 ADD DUP9 DUP7 DUP6 PUSH1 0x5 SHL DUP8 ADD ADD GT ISZERO PUSH2 0x32D2 JUMPI PUSH1 0x0 DUP1 REVERT JUMPDEST PUSH1 0x0 SWAP5 POP JUMPDEST DUP4 DUP6 LT ISZERO PUSH2 0x32F5 JUMPI DUP1 MLOAD DUP4 MSTORE PUSH1 0x1 SWAP5 SWAP1 SWAP5 ADD SWAP4 SWAP2 DUP6 ADD SWAP2 DUP6 ADD PUSH2 0x32D7 JUMP JUMPDEST POP SWAP8 SWAP7 POP POP POP POP POP POP POP JUMP JUMPDEST PUSH1 0x0 PUSH1 0x20 DUP3 DUP5 SUB SLT ISZERO PUSH2 0x3313 JUMPI PUSH1 0x0 DUP1 REVERT JUMPDEST DUP2 MLOAD DUP1 ISZERO ISZERO DUP2 EQ PUSH2 0x31B8 JUMPI PUSH1 0x0 DUP1 REVERT JUMPDEST PUSH1 0x0 PUSH1 0x20 DUP3 DUP5 SUB SLT ISZERO PUSH2 0x3335 JUMPI PUSH1 0x0 DUP1 REVERT JUMPDEST POP CALLDATALOAD SWAP2 SWAP1 POP JUMP JUMPDEST PUSH1 0x0 PUSH1 0x20 DUP3 DUP5 SUB SLT ISZERO PUSH2 0x334E JUMPI PUSH1 0x0 DUP1 REVERT JUMPDEST POP MLOAD SWAP2 SWAP1 POP JUMP JUMPDEST PUSH1 0x0 DUP1 PUSH1 0x40 DUP4 DUP6 SUB SLT ISZERO PUSH2 0x3368 JUMPI PUSH1 0x0 DUP1 REVERT JUMPDEST DUP3 CALLDATALOAD SWAP2 POP PUSH1 0x20 DUP1 DUP5 ADD CALLDATALOAD PUSH8 0xFFFFFFFFFFFFFFFF DUP2 GT ISZERO PUSH2 0x3387 JUMPI PUSH1 0x0 DUP1 REVERT JUMPDEST DUP5 ADD PUSH1 0x1F DUP2 ADD DUP7 SGT PUSH2 0x3398 JUMPI PUSH1 0x0 DUP1 REVERT JUMPDEST DUP1 CALLDATALOAD PUSH2 0x33A6 PUSH2 0x32AD DUP3 PUSH2 0x371C JUMP JUMPDEST DUP1 DUP3 DUP3 MSTORE DUP5 DUP3 ADD SWAP2 POP DUP5 DUP5 ADD DUP10 DUP7 DUP6 PUSH1 0x5 SHL DUP8 ADD ADD GT ISZERO PUSH2 0x33C6 JUMPI PUSH1 0x0 DUP1 REVERT JUMPDEST PUSH1 0x0 SWAP5 POP JUMPDEST DUP4 DUP6 LT ISZERO PUSH2 0x33E9 JUMPI DUP1 CALLDATALOAD DUP4 MSTORE PUSH1 0x1 SWAP5 SWAP1 SWAP5 ADD SWAP4 SWAP2 DUP6 ADD SWAP2 DUP6 ADD PUSH2 0x33CB JUMP JUMPDEST POP DUP1 SWAP6 POP POP POP POP POP POP SWAP3 POP SWAP3 SWAP1 POP JUMP JUMPDEST PUSH1 0x0 DUP1 PUSH1 0x40 DUP4 DUP6 SUB SLT ISZERO PUSH2 0x340C JUMPI PUSH1 0x0 DUP1 REVERT JUMPDEST POP POP DUP1 MLOAD PUSH1 0x20 SWAP1 SWAP2 ADD MLOAD SWAP1 SWAP3 SWAP1 SWAP2 POP JUMP JUMPDEST PUSH1 0x0 DUP3 MLOAD PUSH2 0x342F DUP2 DUP5 PUSH1 0x20 DUP8 ADD PUSH2 0x37A2 JUMP JUMPDEST SWAP2 SWAP1 SWAP2 ADD SWAP3 SWAP2 POP POP JUMP JUMPDEST PUSH13 0x426F76696E65204865726F2023 PUSH1 0x98 SHL DUP2 MSTORE PUSH1 0x0 DUP3 MLOAD PUSH2 0x3461 DUP2 PUSH1 0xD DUP6 ADD PUSH1 0x20 DUP8 ADD PUSH2 0x37A2 JUMP JUMPDEST SWAP2 SWAP1 SWAP2 ADD PUSH1 0xD ADD SWAP3 SWAP2 POP POP JUMP JUMPDEST PUSH1 0x0 PUSH1 0x20 DUP1 DUP4 ADD DUP2 DUP5 MSTORE DUP1 DUP6 MLOAD DUP1 DUP4 MSTORE PUSH1 0x40 DUP7 ADD SWAP2 POP PUSH1 0x40 DUP2 PUSH1 0x5 SHL DUP8 ADD ADD SWAP3 POP DUP4 DUP8 ADD PUSH1 0x0 JUMPDEST DUP3 DUP2 LT ISZERO PUSH2 0x34DB JUMPI DUP8 DUP6 SUB PUSH1 0x3F NOT ADD DUP5 MSTORE DUP2 MLOAD DUP1 MLOAD DUP1 DUP8 MSTORE PUSH2 0x34BC DUP2 DUP10 DUP10 ADD DUP11 DUP6 ADD PUSH2 0x37A2 JUMP JUMPDEST PUSH1 0x1F ADD PUSH1 0x1F NOT AND SWAP6 SWAP1 SWAP6 ADD DUP7 ADD SWAP5 POP SWAP3 DUP6 ADD SWAP3 SWAP1 DUP6 ADD SWAP1 PUSH1 0x1 ADD PUSH2 0x3495 JUMP JUMPDEST POP SWAP3 SWAP8 SWAP7 POP POP POP POP POP POP POP JUMP JUMPDEST PUSH2 0x140 DUP2 ADD DUP2 DUP4 PUSH1 0x0 JUMPDEST PUSH1 0xA DUP2 LT ISZERO PUSH2 0xE6F JUMPI DUP2 MLOAD DUP4 MSTORE PUSH1 0x20 SWAP3 DUP4 ADD SWAP3 SWAP1 SWAP2 ADD SWAP1 PUSH1 0x1 ADD PUSH2 0x34F2 JUMP JUMPDEST PUSH2 0x360 DUP2 ADD DUP2 DUP6 PUSH1 0x0 JUMPDEST PUSH1 0x16 DUP2 LT ISZERO PUSH2 0x353A JUMPI DUP2 MLOAD DUP4 MSTORE PUSH1 0x20 SWAP3 DUP4 ADD SWAP3 SWAP1 SWAP2 ADD SWAP1 PUSH1 0x1 ADD PUSH2 0x351B JUMP JUMPDEST POP POP POP PUSH2 0x2C0 DUP3 ADD DUP5 PUSH1 0x0 JUMPDEST PUSH1 0x3 DUP2 LT ISZERO PUSH2 0x3567 JUMPI DUP2 MLOAD ISZERO ISZERO DUP4 MSTORE PUSH1 0x20 SWAP3 DUP4 ADD SWAP3 SWAP1 SWAP2 ADD SWAP1 PUSH1 0x1 ADD PUSH2 0x3546 JUMP JUMPDEST POP POP POP PUSH2 0x320 DUP3 ADD DUP4 PUSH1 0x0 JUMPDEST PUSH1 0x2 DUP2 LT ISZERO PUSH2 0x3592 JUMPI DUP2 MLOAD DUP4 MSTORE PUSH1 0x20 SWAP3 DUP4 ADD SWAP3 SWAP1 SWAP2 ADD SWAP1 PUSH1 0x1 ADD PUSH2 0x3573 JUMP JUMPDEST POP POP POP SWAP5 SWAP4 POP POP POP POP JUMP JUMPDEST PUSH1 0xA0 DUP2 ADD DUP2 DUP6 PUSH1 0x0 JUMPDEST PUSH1 0x3 DUP2 LT ISZERO PUSH2 0x35C5 JUMPI DUP2 MLOAD DUP4 MSTORE PUSH1 0x20 SWAP3 DUP4 ADD SWAP3 SWAP1 SWAP2 ADD SWAP1 PUSH1 0x1 ADD PUSH2 0x35A6 JUMP JUMPDEST POP POP POP SWAP3 ISZERO ISZERO PUSH1 0x60 DUP3 ADD MSTORE PUSH1 0x1 PUSH1 0x1 PUSH1 0xA0 SHL SUB SWAP2 SWAP1 SWAP2 AND PUSH1 0x80 SWAP1 SWAP2 ADD MSTORE SWAP2 SWAP1 POP JUMP JUMPDEST PUSH1 0xA0 DUP2 ADD DUP2 DUP4 PUSH1 0x0 JUMPDEST PUSH1 0x5 DUP2 LT ISZERO PUSH2 0xE6F JUMPI DUP2 MLOAD DUP4 MSTORE PUSH1 0x20 SWAP3 DUP4 ADD SWAP3 SWAP1 SWAP2 ADD SWAP1 PUSH1 0x1 ADD PUSH2 0x35F0 JUMP JUMPDEST PUSH1 0x20 DUP1 DUP3 MSTORE DUP2 DUP2 ADD MSTORE PUSH32 0x4F776E61626C653A2063616C6C6572206973206E6F7420746865206F776E6572 PUSH1 0x40 DUP3 ADD MSTORE PUSH1 0x60 ADD SWAP1 JUMP JUMPDEST PUSH1 0x20 DUP1 DUP3 MSTORE PUSH1 0x2B SWAP1 DUP3 ADD MSTORE PUSH32 0x496E697469616C697A61626C653A20636F6E7472616374206973206E6F742069 PUSH1 0x40 DUP3 ADD MSTORE PUSH11 0x6E697469616C697A696E67 PUSH1 0xA8 SHL PUSH1 0x60 DUP3 ADD MSTORE PUSH1 0x80 ADD SWAP1 JUMP JUMPDEST PUSH1 0x0 PUSH1 0x80 DUP3 ADD DUP7 DUP4 MSTORE PUSH1 0x20 DUP7 DUP2 DUP6 ADD MSTORE DUP6 PUSH1 0x40 DUP6 ADD MSTORE PUSH1 0x80 PUSH1 0x60 DUP6 ADD MSTORE DUP2 DUP6 MLOAD DUP1 DUP5 MSTORE PUSH1 0xA0 DUP7 ADD SWAP2 POP DUP3 DUP8 ADD SWAP4 POP PUSH1 0x0 JUMPDEST DUP2 DUP2 LT ISZERO PUSH2 0x36DC JUMPI DUP5 MLOAD DUP4 MSTORE SWAP4 DUP4 ADD SWAP4 SWAP2 DUP4 ADD SWAP2 PUSH1 0x1 ADD PUSH2 0x36C0 JUMP JUMPDEST POP SWAP1 SWAP10 SWAP9 POP POP POP POP POP POP POP POP POP JUMP JUMPDEST PUSH1 0x40 MLOAD PUSH1 0x1F DUP3 ADD PUSH1 0x1F NOT AND DUP2 ADD PUSH8 0xFFFFFFFFFFFFFFFF DUP2 GT DUP3 DUP3 LT OR ISZERO PUSH2 0x3714 JUMPI PUSH2 0x3714 PUSH2 0x3843 JUMP JUMPDEST PUSH1 0x40 MSTORE SWAP2 SWAP1 POP JUMP JUMPDEST PUSH1 0x0 PUSH8 0xFFFFFFFFFFFFFFFF DUP3 GT ISZERO PUSH2 0x3736 JUMPI PUSH2 0x3736 PUSH2 0x3843 JUMP JUMPDEST POP PUSH1 0x5 SHL PUSH1 0x20 ADD SWAP1 JUMP JUMPDEST PUSH1 0x0 DUP3 NOT DUP3 GT ISZERO PUSH2 0x3753 JUMPI PUSH2 0x3753 PUSH2 0x3801 JUMP JUMPDEST POP ADD SWAP1 JUMP JUMPDEST PUSH1 0x0 DUP3 PUSH2 0x3767 JUMPI PUSH2 0x3767 PUSH2 0x3817 JUMP JUMPDEST POP DIV SWAP1 JUMP JUMPDEST PUSH1 0x0 DUP2 PUSH1 0x0 NOT DIV DUP4 GT DUP3 ISZERO ISZERO AND ISZERO PUSH2 0x3786 JUMPI PUSH2 0x3786 PUSH2 0x3801 JUMP JUMPDEST POP MUL SWAP1 JUMP JUMPDEST PUSH1 0x0 DUP3 DUP3 LT ISZERO PUSH2 0x379D JUMPI PUSH2 0x379D PUSH2 0x3801 JUMP JUMPDEST POP SUB SWAP1 JUMP JUMPDEST PUSH1 0x0 JUMPDEST DUP4 DUP2 LT ISZERO PUSH2 0x37BD JUMPI DUP2 DUP2 ADD MLOAD DUP4 DUP3 ADD MSTORE PUSH1 0x20 ADD PUSH2 0x37A5 JUMP JUMPDEST DUP4 DUP2 GT ISZERO PUSH2 0x37CC JUMPI PUSH1 0x0 DUP5 DUP5 ADD MSTORE JUMPDEST POP POP POP POP JUMP JUMPDEST PUSH1 0x0 PUSH1 0x0 NOT DUP3 EQ ISZERO PUSH2 0x37E6 JUMPI PUSH2 0x37E6 PUSH2 0x3801 JUMP JUMPDEST POP PUSH1 0x1 ADD SWAP1 JUMP JUMPDEST PUSH1 0x0 DUP3 PUSH2 0x37FC JUMPI PUSH2 0x37FC PUSH2 0x3817 JUMP JUMPDEST POP MOD SWAP1 JUMP JUMPDEST PUSH4 0x4E487B71 PUSH1 0xE0 SHL PUSH1 0x0 MSTORE PUSH1 0x11 PUSH1 0x4 MSTORE PUSH1 0x24 PUSH1 0x0 REVERT JUMPDEST PUSH4 0x4E487B71 PUSH1 0xE0 SHL PUSH1 0x0 MSTORE PUSH1 0x12 PUSH1 0x4 MSTORE PUSH1 0x24 PUSH1 0x0 REVERT JUMPDEST PUSH4 0x4E487B71 PUSH1 0xE0 SHL PUSH1 0x0 MSTORE PUSH1 0x32 PUSH1 0x4 MSTORE PUSH1 0x24 PUSH1 0x0 REVERT JUMPDEST PUSH4 0x4E487B71 PUSH1 0xE0 SHL PUSH1 0x0 MSTORE PUSH1 0x41 PUSH1 0x4 MSTORE PUSH1 0x24 PUSH1 0x0 REVERT JUMPDEST PUSH1 0x1 PUSH1 0x1 PUSH1 0xA0 SHL SUB DUP2 AND DUP2 EQ PUSH2 0x11FB JUMPI PUSH1 0x0 DUP1 REVERT INVALID LOG2 PUSH5 0x6970667358 0x22 SLT KECCAK256 0xBA 0x4D 0x5F PUSH16 0xDE8B26E6894D029B34C471F52836FA1D 0xBC 0xC1 LOG1 0xCF 0x4B 0xE2 0xC2 PUSH5 0x3AC205EC64 PUSH20 0x6F6C634300080700330000000000000000000000 "
		},
		"gasEstimates": {
			"creation": {
				"codeDepositCost": "2900000",
				"executionCost": "3177",
				"totalCost": "2903177"
			},
			"external": {
				"avatar()": "2416",
				"battleInfo(uint256)": "infinite",
				"bullPenInfo(address)": "infinite",
				"cattle()": "2373",
				"compound()": "2436",
				"compoundInfo(uint256,uint256[])": "infinite",
				"cowInfoes(uint256)": "infinite",
				"getUserProfilePhoto(address)": "infinite",
				"initialize()": "infinite",
				"item()": "2437",
				"mail()": "2371",
				"market()": "2437",
				"mating()": "2437",
				"milk()": "2415",
				"owner()": "2410",
				"planet()": "2394",
				"renounceOwnership()": "28184",
				"setCattle(address)": "26774",
				"setCompound(address)": "26817",
				"setItem(address)": "26751",
				"setMail(address)": "26794",
				"setMarket(address)": "26750",
				"setMating(address)": "26772",
				"setMilk(address)": "26796",
				"setPlanet(address)": "26794",
				"setProfilePhoto(address)": "26817",
				"setStable(address)": "26772",
				"stable()": "2416",
				"transferOwnership(address)": "infinite",
				"userCenter(address)": "infinite"
			},
			"internal": {
				"_checkUserCows(address)": "infinite",
				"checkCreation(uint256[] memory)": "infinite",
				"compoundList(uint256[] memory,uint256[] memory,uint256[] memory)": "infinite",
				"coutingCoin(address)": "infinite"
			}
		},
		"methodIdentifiers": {
			"avatar()": "5aef7de6",
			"battleInfo(uint256)": "db71dcdc",
			"bullPenInfo(address)": "3144286b",
			"cattle()": "01c211c7",
			"compound()": "f69e2046",
			"compoundInfo(uint256,uint256[])": "2e8e7d7a",
			"cowInfoes(uint256)": "f610e982",
			"getUserProfilePhoto(address)": "1d97b39e",
			"initialize()": "8129fc1c",
			"item()": "f2a4a82e",
			"mail()": "9a68308f",
			"market()": "80f55605",
			"mating()": "b4dac333",
			"milk()": "dbf8b168",
			"owner()": "8da5cb5b",
			"planet()": "8443bea6",
			"renounceOwnership()": "715018a6",
			"setCattle(address)": "0de307fe",
			"setCompound(address)": "2be682d4",
			"setItem(address)": "165ed276",
			"setMail(address)": "773b1543",
			"setMarket(address)": "6dcea85f",
			"setMating(address)": "9fd0e138",
			"setMilk(address)": "110a2ded",
			"setPlanet(address)": "ad911387",
			"setProfilePhoto(address)": "61a91290",
			"setStable(address)": "dba71376",
			"stable()": "22be3de1",
			"transferOwnership(address)": "f2fde38b",
			"userCenter(address)": "f36eb671"
		}
	},
	"abi": [
		{
			"anonymous": false,
			"inputs": [
				{
					"indexed": true,
					"internalType": "address",
					"name": "previousOwner",
					"type": "address"
				},
				{
					"indexed": true,
					"internalType": "address",
					"name": "newOwner",
					"type": "address"
				}
			],
			"name": "OwnershipTransferred",
			"type": "event"
		},
		{
			"inputs": [],
			"name": "avatar",
			"outputs": [
				{
					"internalType": "contract IProfilePhoto",
					"name": "",
					"type": "address"
				}
			],
			"stateMutability": "view",
			"type": "function"
		},
		{
			"inputs": [
				{
					"internalType": "uint256",
					"name": "tokenId",
					"type": "uint256"
				}
			],
			"name": "battleInfo",
			"outputs": [
				{
					"internalType": "uint256[3]",
					"name": "info",
					"type": "uint256[3]"
				},
				{
					"internalType": "bool",
					"name": "isDead",
					"type": "bool"
				},
				{
					"internalType": "address",
					"name": "owner_",
					"type": "address"
				}
			],
			"stateMutability": "view",
			"type": "function"
		},
		{
			"inputs": [
				{
					"internalType": "address",
					"name": "addr_",
					"type": "address"
				}
			],
			"name": "bullPenInfo",
			"outputs": [
				{
					"internalType": "uint256",
					"name": "",
					"type": "uint256"
				},
				{
					"internalType": "uint256",
					"name": "",
					"type": "uint256"
				},
				{
					"internalType": "uint256",
					"name": "",
					"type": "uint256"
				},
				{
					"internalType": "uint256[]",
					"name": "",
					"type": "uint256[]"
				}
			],
			"stateMutability": "view",
			"type": "function"
		},
		{
			"inputs": [],
			"name": "cattle",
			"outputs": [
				{
					"internalType": "contract ICOW",
					"name": "",
					"type": "address"
				}
			],
			"stateMutability": "view",
			"type": "function"
		},
		{
			"inputs": [],
			"name": "compound",
			"outputs": [
				{
					"internalType": "contract ICompound",
					"name": "",
					"type": "address"
				}
			],
			"stateMutability": "view",
			"type": "function"
		},
		{
			"inputs": [
				{
					"internalType": "uint256",
					"name": "tokenId",
					"type": "uint256"
				},
				{
					"internalType": "uint256[]",
					"name": "targetId",
					"type": "uint256[]"
				}
			],
			"name": "compoundInfo",
			"outputs": [
				{
					"internalType": "uint256[5]",
					"name": "info",
					"type": "uint256[5]"
				}
			],
			"stateMutability": "view",
			"type": "function"
		},
		{
			"inputs": [
				{
					"internalType": "uint256",
					"name": "tokenId",
					"type": "uint256"
				}
			],
			"name": "cowInfoes",
			"outputs": [
				{
					"internalType": "uint256[22]",
					"name": "info1",
					"type": "uint256[22]"
				},
				{
					"internalType": "bool[3]",
					"name": "info2",
					"type": "bool[3]"
				},
				{
					"internalType": "uint256[2]",
					"name": "parents",
					"type": "uint256[2]"
				}
			],
			"stateMutability": "view",
			"type": "function"
		},
		{
			"inputs": [
				{
					"internalType": "address",
					"name": "addr_",
					"type": "address"
				}
			],
			"name": "getUserProfilePhoto",
			"outputs": [
				{
					"internalType": "string[]",
					"name": "",
					"type": "string[]"
				}
			],
			"stateMutability": "view",
			"type": "function"
		},
		{
			"inputs": [],
			"name": "initialize",
			"outputs": [],
			"stateMutability": "nonpayable",
			"type": "function"
		},
		{
			"inputs": [],
			"name": "item",
			"outputs": [
				{
					"internalType": "contract ICattle1155",
					"name": "",
					"type": "address"
				}
			],
			"stateMutability": "view",
			"type": "function"
		},
		{
			"inputs": [],
			"name": "mail",
			"outputs": [
				{
					"internalType": "contract IMail",
					"name": "",
					"type": "address"
				}
			],
			"stateMutability": "view",
			"type": "function"
		},
		{
			"inputs": [],
			"name": "market",
			"outputs": [
				{
					"internalType": "contract IMarket",
					"name": "",
					"type": "address"
				}
			],
			"stateMutability": "view",
			"type": "function"
		},
		{
			"inputs": [],
			"name": "mating",
			"outputs": [
				{
					"internalType": "contract IMating",
					"name": "",
					"type": "address"
				}
			],
			"stateMutability": "view",
			"type": "function"
		},
		{
			"inputs": [],
			"name": "milk",
			"outputs": [
				{
					"internalType": "contract IMilk",
					"name": "",
					"type": "address"
				}
			],
			"stateMutability": "view",
			"type": "function"
		},
		{
			"inputs": [],
			"name": "owner",
			"outputs": [
				{
					"internalType": "address",
					"name": "",
					"type": "address"
				}
			],
			"stateMutability": "view",
			"type": "function"
		},
		{
			"inputs": [],
			"name": "planet",
			"outputs": [
				{
					"internalType": "contract IPlanet",
					"name": "",
					"type": "address"
				}
			],
			"stateMutability": "view",
			"type": "function"
		},
		{
			"inputs": [],
			"name": "renounceOwnership",
			"outputs": [],
			"stateMutability": "nonpayable",
			"type": "function"
		},
		{
			"inputs": [
				{
					"internalType": "address",
					"name": "addr_",
					"type": "address"
				}
			],
			"name": "setCattle",
			"outputs": [],
			"stateMutability": "nonpayable",
			"type": "function"
		},
		{
			"inputs": [
				{
					"internalType": "address",
					"name": "addr",
					"type": "address"
				}
			],
			"name": "setCompound",
			"outputs": [],
			"stateMutability": "nonpayable",
			"type": "function"
		},
		{
			"inputs": [
				{
					"internalType": "address",
					"name": "addr_",
					"type": "address"
				}
			],
			"name": "setItem",
			"outputs": [],
			"stateMutability": "nonpayable",
			"type": "function"
		},
		{
			"inputs": [
				{
					"internalType": "address",
					"name": "addr",
					"type": "address"
				}
			],
			"name": "setMail",
			"outputs": [],
			"stateMutability": "nonpayable",
			"type": "function"
		},
		{
			"inputs": [
				{
					"internalType": "address",
					"name": "addr",
					"type": "address"
				}
			],
			"name": "setMarket",
			"outputs": [],
			"stateMutability": "nonpayable",
			"type": "function"
		},
		{
			"inputs": [
				{
					"internalType": "address",
					"name": "addr",
					"type": "address"
				}
			],
			"name": "setMating",
			"outputs": [],
			"stateMutability": "nonpayable",
			"type": "function"
		},
		{
			"inputs": [
				{
					"internalType": "address",
					"name": "addr",
					"type": "address"
				}
			],
			"name": "setMilk",
			"outputs": [],
			"stateMutability": "nonpayable",
			"type": "function"
		},
		{
			"inputs": [
				{
					"internalType": "address",
					"name": "addr_",
					"type": "address"
				}
			],
			"name": "setPlanet",
			"outputs": [],
			"stateMutability": "nonpayable",
			"type": "function"
		},
		{
			"inputs": [
				{
					"internalType": "address",
					"name": "addr",
					"type": "address"
				}
			],
			"name": "setProfilePhoto",
			"outputs": [],
			"stateMutability": "nonpayable",
			"type": "function"
		},
		{
			"inputs": [
				{
					"internalType": "address",
					"name": "addr_",
					"type": "address"
				}
			],
			"name": "setStable",
			"outputs": [],
			"stateMutability": "nonpayable",
			"type": "function"
		},
		{
			"inputs": [],
			"name": "stable",
			"outputs": [
				{
					"internalType": "contract IStable",
					"name": "",
					"type": "address"
				}
			],
			"stateMutability": "view",
			"type": "function"
		},
		{
			"inputs": [
				{
					"internalType": "address",
					"name": "newOwner",
					"type": "address"
				}
			],
			"name": "transferOwnership",
			"outputs": [],
			"stateMutability": "nonpayable",
			"type": "function"
		},
		{
			"inputs": [
				{
					"internalType": "address",
					"name": "player",
					"type": "address"
				}
			],
			"name": "userCenter",
			"outputs": [
				{
					"internalType": "uint256[10]",
					"name": "info",
					"type": "uint256[10]"
				}
			],
			"stateMutability": "view",
			"type": "function"
		}
	]
}