{
	"data": {
		"bytecode": {
			"linkReferences": {},
			"object": "608060405234801561001057600080fd5b50611239806100206000396000f3fe608060405234801561001057600080fd5b50600436106101005760003560e01c80638da5cb5b11610097578063a2e8f33511610066578063a2e8f3351461023d578063d194f14314610252578063f2a4a82e1461028b578063f2fde38b1461029e57600080fd5b80638da5cb5b146101a6578063942b765a146101b75780639979c009146101cf5780639fdd7ec4146101e257600080fd5b80635f24b4a4116100d35780635f24b4a414610153578063715018a6146101835780638129fc1c1461018b578063874643891461019357600080fd5b80630670c4d514610105578063165ed2761461011a5780631da26a8b1461012d578063314c4eae14610140575b600080fd5b610118610113366004610f4c565b6102b1565b005b610118610128366004610e9e565b6104a8565b61011861013b366004610eb9565b6104f4565b61011861014e366004610f94565b61054c565b606554610166906001600160a01b031681565b6040516001600160a01b0390911681526020015b60405180910390f35b61011861058b565b6101186105c1565b606654610166906001600160a01b031681565b6033546001600160a01b0316610166565b6101bf61068a565b60405161017a9493929190611020565b6101186101dd366004610f94565b6108a3565b61021b6101f0366004610f33565b606960205260009081526040902080546001820154600283015460039093015460ff90921692909184565b604080519415158552602085019390935291830152606082015260800161017a565b610245610a33565b60405161017a919061100d565b61027d610260366004610eec565b606b60209081526000928352604080842090915290825290205481565b60405190815260200161017a565b606754610166906001600160a01b031681565b6101186102ac366004610e9e565b610a8b565b6033546001600160a01b031633146102e45760405162461bcd60e51b81526004016102db906110a0565b60405180910390fd5b606854846103b95760008681526069602052604090205460ff166103375760405162461bcd60e51b815260206004820152600a6024820152696e6f74206f6e53616c6560b01b60448201526064016102db565b606861034460018361113f565b81548110610354576103546111c9565b90600052602060002001546068606a60008981526020019081526020016000205481548110610385576103856111c9565b60009182526020909120015560688054806103a2576103a26111b3565b600190038181906000526020600020016000905590555b84156104525760008681526069602052604090205460ff161561040f5760405162461bcd60e51b815260206004820152600e60248201526d616c7265616479206f6e53616c6560901b60448201526064016102db565b6000868152606a602052604081208290556068805460018101825591527fa2153420d844928b4421650203c77babc8b33d7f2e7b450e2966db0c22097753018690555b506040805160808101825294151585526020808601948552858201938452606086019283526000968752606990529094209251835460ff1916901515178355905160018301555160028201559051600390910155565b6033546001600160a01b031633146104d25760405162461bcd60e51b81526004016102db906110a0565b606780546001600160a01b0319166001600160a01b0392909216919091179055565b6033546001600160a01b0316331461051e5760405162461bcd60e51b81526004016102db906110a0565b606580546001600160a01b039384166001600160a01b03199182161790915560668054929093169116179055565b6033546001600160a01b031633146105765760405162461bcd60e51b81526004016102db906110a0565b60009182526069602052604090912060010155565b6033546001600160a01b031633146105b55760405162461bcd60e51b81526004016102db906110a0565b6105bf6000610b1f565b565b600054610100900460ff166105dc5760005460ff16156105e0565b303b155b6106435760405162461bcd60e51b815260206004820152602e60248201527f496e697469616c697a61626c653a20636f6e747261637420697320616c72656160448201526d191e481a5b9a5d1a585b1a5e995960921b60648201526084016102db565b600054610100900460ff16158015610665576000805461ffff19166101011790555b61066d610b71565b610675610b98565b8015610687576000805461ff00191690555b50565b60608060608060688054806020026020016040519081016040528092919081815260200182805480156106dc57602002820191906000526020600020905b8154815260200190600101908083116106c8575b5050606854939750505067ffffffffffffffff8211159050610700576107006111df565b604051908082528060200260200182016040528015610729578160200160208202803683370190505b5060685490935067ffffffffffffffff811115610748576107486111df565b604051908082528060200260200182016040528015610771578160200160208202803683370190505b5060685490925067ffffffffffffffff811115610790576107906111df565b6040519080825280602002602001820160405280156107b9578160200160208202803683370190505b50905060005b60685481101561089c576000606882815481106107de576107de6111c9565b906000526020600020015490506069600082815260200190815260200160002060010154858381518110610814576108146111c9565b6020026020010181815250506069600082815260200190815260200160002060020154848381518110610849576108496111c9565b602002602001018181525050606960008281526020019081526020016000206003015483838151811061087e5761087e6111c9565b6020908102919091010152508061089481611182565b9150506107bf565b5090919293565b600082815260696020526040902060018101548211156108f45760405162461bcd60e51b815260206004820152600c60248201526b1bdd5d081bd9881b1a5b5a5d60a21b60448201526064016102db565b805460ff166109325760405162461bcd60e51b815260206004820152600a6024820152696e6f74206f6e53616c6560b01b60448201526064016102db565b60008160030154836109449190611120565b90508160020154600114156109705760655461096b906001600160a01b0316333084610bc8565b610988565b606654610988906001600160a01b0316333084610bc8565b606754604051630ab714fb60e11b815233600482015260248101869052604481018590526001600160a01b039091169063156e29f690606401602060405180830381600087803b1580156109db57600080fd5b505af11580156109ef573d6000803e3d6000fd5b505050506040513d601f19601f82011682018060405250810190610a139190610f16565b5082826001016000828254610a28919061113f565b909155505050505050565b60606068805480602002602001604051908101604052809291908181526020018280548015610a8157602002820191906000526020600020905b815481526020019060010190808311610a6d575b5050505050905090565b6033546001600160a01b03163314610ab55760405162461bcd60e51b81526004016102db906110a0565b6001600160a01b038116610b1a5760405162461bcd60e51b815260206004820152602660248201527f4f776e61626c653a206e6577206f776e657220697320746865207a65726f206160448201526564647265737360d01b60648201526084016102db565b610687815b603380546001600160a01b038381166001600160a01b0319831681179093556040519116919082907f8be0079c531659141344cd1fd0a4f28419497f9722a3daafe3b4186f6b6457e090600090a35050565b600054610100900460ff166105bf5760405162461bcd60e51b81526004016102db906110d5565b600054610100900460ff16610bbf5760405162461bcd60e51b81526004016102db906110d5565b6105bf33610b1f565b604080516001600160a01b0385811660248301528416604482015260648082018490528251808303909101815260849091019091526020810180516001600160e01b03166323b872dd60e01b179052610c22908590610c28565b50505050565b6000610c7d826040518060400160405280602081526020017f5361666545524332303a206c6f772d6c6576656c2063616c6c206661696c6564815250856001600160a01b0316610cff9092919063ffffffff16565b805190915015610cfa5780806020019051810190610c9b9190610f16565b610cfa5760405162461bcd60e51b815260206004820152602a60248201527f5361666545524332303a204552433230206f7065726174696f6e20646964206e6044820152691bdd081cdd58d8d9595960b21b60648201526084016102db565b505050565b6060610d0e8484600085610d18565b90505b9392505050565b606082471015610d795760405162461bcd60e51b815260206004820152602660248201527f416464726573733a20696e73756666696369656e742062616c616e636520666f6044820152651c8818d85b1b60d21b60648201526084016102db565b6001600160a01b0385163b610dd05760405162461bcd60e51b815260206004820152601d60248201527f416464726573733a2063616c6c20746f206e6f6e2d636f6e747261637400000060448201526064016102db565b600080866001600160a01b03168587604051610dec9190610ff1565b60006040518083038185875af1925050503d8060008114610e29576040519150601f19603f3d011682016040523d82523d6000602084013e610e2e565b606091505b5091509150610e3e828286610e49565b979650505050505050565b60608315610e58575081610d11565b825115610e685782518084602001fd5b8160405162461bcd60e51b81526004016102db919061106d565b80356001600160a01b0381168114610e9957600080fd5b919050565b600060208284031215610eb057600080fd5b610d1182610e82565b60008060408385031215610ecc57600080fd5b610ed583610e82565b9150610ee360208401610e82565b90509250929050565b60008060408385031215610eff57600080fd5b610f0883610e82565b946020939093013593505050565b600060208284031215610f2857600080fd5b8151610d11816111f5565b600060208284031215610f4557600080fd5b5035919050565b600080600080600060a08688031215610f6457600080fd5b853594506020860135610f76816111f5565b94979496505050506040830135926060810135926080909101359150565b60008060408385031215610fa757600080fd5b50508035926020909101359150565b600081518084526020808501945080840160005b83811015610fe657815187529582019590820190600101610fca565b509495945050505050565b60008251611003818460208701611156565b9190910192915050565b602081526000610d116020830184610fb6565b6080815260006110336080830187610fb6565b82810360208401526110458187610fb6565b905082810360408401526110598186610fb6565b90508281036060840152610e3e8185610fb6565b602081526000825180602084015261108c816040850160208701611156565b601f01601f19169190910160400192915050565b6020808252818101527f4f776e61626c653a2063616c6c6572206973206e6f7420746865206f776e6572604082015260600190565b6020808252602b908201527f496e697469616c697a61626c653a20636f6e7472616374206973206e6f74206960408201526a6e697469616c697a696e6760a81b606082015260800190565b600081600019048311821515161561113a5761113a61119d565b500290565b6000828210156111515761115161119d565b500390565b60005b83811015611171578181015183820152602001611159565b83811115610c225750506000910152565b60006000198214156111965761119661119d565b5060010190565b634e487b7160e01b600052601160045260246000fd5b634e487b7160e01b600052603160045260246000fd5b634e487b7160e01b600052603260045260246000fd5b634e487b7160e01b600052604160045260246000fd5b801515811461068757600080fdfea2646970667358221220fc1eb39bad323cdb8151fc77ba04336c2c94c9a5a36585b3740d8d4924ad43c064736f6c63430008070033",
			"opcodes": "PUSH1 0x80 PUSH1 0x40 MSTORE CALLVALUE DUP1 ISZERO PUSH2 0x10 JUMPI PUSH1 0x0 DUP1 REVERT JUMPDEST POP PUSH2 0x1239 DUP1 PUSH2 0x20 PUSH1 0x0 CODECOPY PUSH1 0x0 RETURN INVALID PUSH1 0x80 PUSH1 0x40 MSTORE CALLVALUE DUP1 ISZERO PUSH2 0x10 JUMPI PUSH1 0x0 DUP1 REVERT JUMPDEST POP PUSH1 0x4 CALLDATASIZE LT PUSH2 0x100 JUMPI PUSH1 0x0 CALLDATALOAD PUSH1 0xE0 SHR DUP1 PUSH4 0x8DA5CB5B GT PUSH2 0x97 JUMPI DUP1 PUSH4 0xA2E8F335 GT PUSH2 0x66 JUMPI DUP1 PUSH4 0xA2E8F335 EQ PUSH2 0x23D JUMPI DUP1 PUSH4 0xD194F143 EQ PUSH2 0x252 JUMPI DUP1 PUSH4 0xF2A4A82E EQ PUSH2 0x28B JUMPI DUP1 PUSH4 0xF2FDE38B EQ PUSH2 0x29E JUMPI PUSH1 0x0 DUP1 REVERT JUMPDEST DUP1 PUSH4 0x8DA5CB5B EQ PUSH2 0x1A6 JUMPI DUP1 PUSH4 0x942B765A EQ PUSH2 0x1B7 JUMPI DUP1 PUSH4 0x9979C009 EQ PUSH2 0x1CF JUMPI DUP1 PUSH4 0x9FDD7EC4 EQ PUSH2 0x1E2 JUMPI PUSH1 0x0 DUP1 REVERT JUMPDEST DUP1 PUSH4 0x5F24B4A4 GT PUSH2 0xD3 JUMPI DUP1 PUSH4 0x5F24B4A4 EQ PUSH2 0x153 JUMPI DUP1 PUSH4 0x715018A6 EQ PUSH2 0x183 JUMPI DUP1 PUSH4 0x8129FC1C EQ PUSH2 0x18B JUMPI DUP1 PUSH4 0x87464389 EQ PUSH2 0x193 JUMPI PUSH1 0x0 DUP1 REVERT JUMPDEST DUP1 PUSH4 0x670C4D5 EQ PUSH2 0x105 JUMPI DUP1 PUSH4 0x165ED276 EQ PUSH2 0x11A JUMPI DUP1 PUSH4 0x1DA26A8B EQ PUSH2 0x12D JUMPI DUP1 PUSH4 0x314C4EAE EQ PUSH2 0x140 JUMPI JUMPDEST PUSH1 0x0 DUP1 REVERT JUMPDEST PUSH2 0x118 PUSH2 0x113 CALLDATASIZE PUSH1 0x4 PUSH2 0xF4C JUMP JUMPDEST PUSH2 0x2B1 JUMP JUMPDEST STOP JUMPDEST PUSH2 0x118 PUSH2 0x128 CALLDATASIZE PUSH1 0x4 PUSH2 0xE9E JUMP JUMPDEST PUSH2 0x4A8 JUMP JUMPDEST PUSH2 0x118 PUSH2 0x13B CALLDATASIZE PUSH1 0x4 PUSH2 0xEB9 JUMP JUMPDEST PUSH2 0x4F4 JUMP JUMPDEST PUSH2 0x118 PUSH2 0x14E CALLDATASIZE PUSH1 0x4 PUSH2 0xF94 JUMP JUMPDEST PUSH2 0x54C JUMP JUMPDEST PUSH1 0x65 SLOAD PUSH2 0x166 SWAP1 PUSH1 0x1 PUSH1 0x1 PUSH1 0xA0 SHL SUB AND DUP2 JUMP JUMPDEST PUSH1 0x40 MLOAD PUSH1 0x1 PUSH1 0x1 PUSH1 0xA0 SHL SUB SWAP1 SWAP2 AND DUP2 MSTORE PUSH1 0x20 ADD JUMPDEST PUSH1 0x40 MLOAD DUP1 SWAP2 SUB SWAP1 RETURN JUMPDEST PUSH2 0x118 PUSH2 0x58B JUMP JUMPDEST PUSH2 0x118 PUSH2 0x5C1 JUMP JUMPDEST PUSH1 0x66 SLOAD PUSH2 0x166 SWAP1 PUSH1 0x1 PUSH1 0x1 PUSH1 0xA0 SHL SUB AND DUP2 JUMP JUMPDEST PUSH1 0x33 SLOAD PUSH1 0x1 PUSH1 0x1 PUSH1 0xA0 SHL SUB AND PUSH2 0x166 JUMP JUMPDEST PUSH2 0x1BF PUSH2 0x68A JUMP JUMPDEST PUSH1 0x40 MLOAD PUSH2 0x17A SWAP5 SWAP4 SWAP3 SWAP2 SWAP1 PUSH2 0x1020 JUMP JUMPDEST PUSH2 0x118 PUSH2 0x1DD CALLDATASIZE PUSH1 0x4 PUSH2 0xF94 JUMP JUMPDEST PUSH2 0x8A3 JUMP JUMPDEST PUSH2 0x21B PUSH2 0x1F0 CALLDATASIZE PUSH1 0x4 PUSH2 0xF33 JUMP JUMPDEST PUSH1 0x69 PUSH1 0x20 MSTORE PUSH1 0x0 SWAP1 DUP2 MSTORE PUSH1 0x40 SWAP1 KECCAK256 DUP1 SLOAD PUSH1 0x1 DUP3 ADD SLOAD PUSH1 0x2 DUP4 ADD SLOAD PUSH1 0x3 SWAP1 SWAP4 ADD SLOAD PUSH1 0xFF SWAP1 SWAP3 AND SWAP3 SWAP1 SWAP2 DUP5 JUMP JUMPDEST PUSH1 0x40 DUP1 MLOAD SWAP5 ISZERO ISZERO DUP6 MSTORE PUSH1 0x20 DUP6 ADD SWAP4 SWAP1 SWAP4 MSTORE SWAP2 DUP4 ADD MSTORE PUSH1 0x60 DUP3 ADD MSTORE PUSH1 0x80 ADD PUSH2 0x17A JUMP JUMPDEST PUSH2 0x245 PUSH2 0xA33 JUMP JUMPDEST PUSH1 0x40 MLOAD PUSH2 0x17A SWAP2 SWAP1 PUSH2 0x100D JUMP JUMPDEST PUSH2 0x27D PUSH2 0x260 CALLDATASIZE PUSH1 0x4 PUSH2 0xEEC JUMP JUMPDEST PUSH1 0x6B PUSH1 0x20 SWAP1 DUP2 MSTORE PUSH1 0x0 SWAP3 DUP4 MSTORE PUSH1 0x40 DUP1 DUP5 KECCAK256 SWAP1 SWAP2 MSTORE SWAP1 DUP3 MSTORE SWAP1 KECCAK256 SLOAD DUP2 JUMP JUMPDEST PUSH1 0x40 MLOAD SWAP1 DUP2 MSTORE PUSH1 0x20 ADD PUSH2 0x17A JUMP JUMPDEST PUSH1 0x67 SLOAD PUSH2 0x166 SWAP1 PUSH1 0x1 PUSH1 0x1 PUSH1 0xA0 SHL SUB AND DUP2 JUMP JUMPDEST PUSH2 0x118 PUSH2 0x2AC CALLDATASIZE PUSH1 0x4 PUSH2 0xE9E JUMP JUMPDEST PUSH2 0xA8B JUMP JUMPDEST PUSH1 0x33 SLOAD PUSH1 0x1 PUSH1 0x1 PUSH1 0xA0 SHL SUB AND CALLER EQ PUSH2 0x2E4 JUMPI PUSH1 0x40 MLOAD PUSH3 0x461BCD PUSH1 0xE5 SHL DUP2 MSTORE PUSH1 0x4 ADD PUSH2 0x2DB SWAP1 PUSH2 0x10A0 JUMP JUMPDEST PUSH1 0x40 MLOAD DUP1 SWAP2 SUB SWAP1 REVERT JUMPDEST PUSH1 0x68 SLOAD DUP5 PUSH2 0x3B9 JUMPI PUSH1 0x0 DUP7 DUP2 MSTORE PUSH1 0x69 PUSH1 0x20 MSTORE PUSH1 0x40 SWAP1 KECCAK256 SLOAD PUSH1 0xFF AND PUSH2 0x337 JUMPI PUSH1 0x40 MLOAD PUSH3 0x461BCD PUSH1 0xE5 SHL DUP2 MSTORE PUSH1 0x20 PUSH1 0x4 DUP3 ADD MSTORE PUSH1 0xA PUSH1 0x24 DUP3 ADD MSTORE PUSH10 0x6E6F74206F6E53616C65 PUSH1 0xB0 SHL PUSH1 0x44 DUP3 ADD MSTORE PUSH1 0x64 ADD PUSH2 0x2DB JUMP JUMPDEST PUSH1 0x68 PUSH2 0x344 PUSH1 0x1 DUP4 PUSH2 0x113F JUMP JUMPDEST DUP2 SLOAD DUP2 LT PUSH2 0x354 JUMPI PUSH2 0x354 PUSH2 0x11C9 JUMP JUMPDEST SWAP1 PUSH1 0x0 MSTORE PUSH1 0x20 PUSH1 0x0 KECCAK256 ADD SLOAD PUSH1 0x68 PUSH1 0x6A PUSH1 0x0 DUP10 DUP2 MSTORE PUSH1 0x20 ADD SWAP1 DUP2 MSTORE PUSH1 0x20 ADD PUSH1 0x0 KECCAK256 SLOAD DUP2 SLOAD DUP2 LT PUSH2 0x385 JUMPI PUSH2 0x385 PUSH2 0x11C9 JUMP JUMPDEST PUSH1 0x0 SWAP2 DUP3 MSTORE PUSH1 0x20 SWAP1 SWAP2 KECCAK256 ADD SSTORE PUSH1 0x68 DUP1 SLOAD DUP1 PUSH2 0x3A2 JUMPI PUSH2 0x3A2 PUSH2 0x11B3 JUMP JUMPDEST PUSH1 0x1 SWAP1 SUB DUP2 DUP2 SWAP1 PUSH1 0x0 MSTORE PUSH1 0x20 PUSH1 0x0 KECCAK256 ADD PUSH1 0x0 SWAP1 SSTORE SWAP1 SSTORE JUMPDEST DUP5 ISZERO PUSH2 0x452 JUMPI PUSH1 0x0 DUP7 DUP2 MSTORE PUSH1 0x69 PUSH1 0x20 MSTORE PUSH1 0x40 SWAP1 KECCAK256 SLOAD PUSH1 0xFF AND ISZERO PUSH2 0x40F JUMPI PUSH1 0x40 MLOAD PUSH3 0x461BCD PUSH1 0xE5 SHL DUP2 MSTORE PUSH1 0x20 PUSH1 0x4 DUP3 ADD MSTORE PUSH1 0xE PUSH1 0x24 DUP3 ADD MSTORE PUSH14 0x616C7265616479206F6E53616C65 PUSH1 0x90 SHL PUSH1 0x44 DUP3 ADD MSTORE PUSH1 0x64 ADD PUSH2 0x2DB JUMP JUMPDEST PUSH1 0x0 DUP7 DUP2 MSTORE PUSH1 0x6A PUSH1 0x20 MSTORE PUSH1 0x40 DUP2 KECCAK256 DUP3 SWAP1 SSTORE PUSH1 0x68 DUP1 SLOAD PUSH1 0x1 DUP2 ADD DUP3 SSTORE SWAP2 MSTORE PUSH32 0xA2153420D844928B4421650203C77BABC8B33D7F2E7B450E2966DB0C22097753 ADD DUP7 SWAP1 SSTORE JUMPDEST POP PUSH1 0x40 DUP1 MLOAD PUSH1 0x80 DUP2 ADD DUP3 MSTORE SWAP5 ISZERO ISZERO DUP6 MSTORE PUSH1 0x20 DUP1 DUP7 ADD SWAP5 DUP6 MSTORE DUP6 DUP3 ADD SWAP4 DUP5 MSTORE PUSH1 0x60 DUP7 ADD SWAP3 DUP4 MSTORE PUSH1 0x0 SWAP7 DUP8 MSTORE PUSH1 0x69 SWAP1 MSTORE SWAP1 SWAP5 KECCAK256 SWAP3 MLOAD DUP4 SLOAD PUSH1 0xFF NOT AND SWAP1 ISZERO ISZERO OR DUP4 SSTORE SWAP1 MLOAD PUSH1 0x1 DUP4 ADD SSTORE MLOAD PUSH1 0x2 DUP3 ADD SSTORE SWAP1 MLOAD PUSH1 0x3 SWAP1 SWAP2 ADD SSTORE JUMP JUMPDEST PUSH1 0x33 SLOAD PUSH1 0x1 PUSH1 0x1 PUSH1 0xA0 SHL SUB AND CALLER EQ PUSH2 0x4D2 JUMPI PUSH1 0x40 MLOAD PUSH3 0x461BCD PUSH1 0xE5 SHL DUP2 MSTORE PUSH1 0x4 ADD PUSH2 0x2DB SWAP1 PUSH2 0x10A0 JUMP JUMPDEST PUSH1 0x67 DUP1 SLOAD PUSH1 0x1 PUSH1 0x1 PUSH1 0xA0 SHL SUB NOT AND PUSH1 0x1 PUSH1 0x1 PUSH1 0xA0 SHL SUB SWAP3 SWAP1 SWAP3 AND SWAP2 SWAP1 SWAP2 OR SWAP1 SSTORE JUMP JUMPDEST PUSH1 0x33 SLOAD PUSH1 0x1 PUSH1 0x1 PUSH1 0xA0 SHL SUB AND CALLER EQ PUSH2 0x51E JUMPI PUSH1 0x40 MLOAD PUSH3 0x461BCD PUSH1 0xE5 SHL DUP2 MSTORE PUSH1 0x4 ADD PUSH2 0x2DB SWAP1 PUSH2 0x10A0 JUMP JUMPDEST PUSH1 0x65 DUP1 SLOAD PUSH1 0x1 PUSH1 0x1 PUSH1 0xA0 SHL SUB SWAP4 DUP5 AND PUSH1 0x1 PUSH1 0x1 PUSH1 0xA0 SHL SUB NOT SWAP2 DUP3 AND OR SWAP1 SWAP2 SSTORE PUSH1 0x66 DUP1 SLOAD SWAP3 SWAP1 SWAP4 AND SWAP2 AND OR SWAP1 SSTORE JUMP JUMPDEST PUSH1 0x33 SLOAD PUSH1 0x1 PUSH1 0x1 PUSH1 0xA0 SHL SUB AND CALLER EQ PUSH2 0x576 JUMPI PUSH1 0x40 MLOAD PUSH3 0x461BCD PUSH1 0xE5 SHL DUP2 MSTORE PUSH1 0x4 ADD PUSH2 0x2DB SWAP1 PUSH2 0x10A0 JUMP JUMPDEST PUSH1 0x0 SWAP2 DUP3 MSTORE PUSH1 0x69 PUSH1 0x20 MSTORE PUSH1 0x40 SWAP1 SWAP2 KECCAK256 PUSH1 0x1 ADD SSTORE JUMP JUMPDEST PUSH1 0x33 SLOAD PUSH1 0x1 PUSH1 0x1 PUSH1 0xA0 SHL SUB AND CALLER EQ PUSH2 0x5B5 JUMPI PUSH1 0x40 MLOAD PUSH3 0x461BCD PUSH1 0xE5 SHL DUP2 MSTORE PUSH1 0x4 ADD PUSH2 0x2DB SWAP1 PUSH2 0x10A0 JUMP JUMPDEST PUSH2 0x5BF PUSH1 0x0 PUSH2 0xB1F JUMP JUMPDEST JUMP JUMPDEST PUSH1 0x0 SLOAD PUSH2 0x100 SWAP1 DIV PUSH1 0xFF AND PUSH2 0x5DC JUMPI PUSH1 0x0 SLOAD PUSH1 0xFF AND ISZERO PUSH2 0x5E0 JUMP JUMPDEST ADDRESS EXTCODESIZE ISZERO JUMPDEST PUSH2 0x643 JUMPI PUSH1 0x40 MLOAD PUSH3 0x461BCD PUSH1 0xE5 SHL DUP2 MSTORE PUSH1 0x20 PUSH1 0x4 DUP3 ADD MSTORE PUSH1 0x2E PUSH1 0x24 DUP3 ADD MSTORE PUSH32 0x496E697469616C697A61626C653A20636F6E747261637420697320616C726561 PUSH1 0x44 DUP3 ADD MSTORE PUSH14 0x191E481A5B9A5D1A585B1A5E9959 PUSH1 0x92 SHL PUSH1 0x64 DUP3 ADD MSTORE PUSH1 0x84 ADD PUSH2 0x2DB JUMP JUMPDEST PUSH1 0x0 SLOAD PUSH2 0x100 SWAP1 DIV PUSH1 0xFF AND ISZERO DUP1 ISZERO PUSH2 0x665 JUMPI PUSH1 0x0 DUP1 SLOAD PUSH2 0xFFFF NOT AND PUSH2 0x101 OR SWAP1 SSTORE JUMPDEST PUSH2 0x66D PUSH2 0xB71 JUMP JUMPDEST PUSH2 0x675 PUSH2 0xB98 JUMP JUMPDEST DUP1 ISZERO PUSH2 0x687 JUMPI PUSH1 0x0 DUP1 SLOAD PUSH2 0xFF00 NOT AND SWAP1 SSTORE JUMPDEST POP JUMP JUMPDEST PUSH1 0x60 DUP1 PUSH1 0x60 DUP1 PUSH1 0x68 DUP1 SLOAD DUP1 PUSH1 0x20 MUL PUSH1 0x20 ADD PUSH1 0x40 MLOAD SWAP1 DUP2 ADD PUSH1 0x40 MSTORE DUP1 SWAP3 SWAP2 SWAP1 DUP2 DUP2 MSTORE PUSH1 0x20 ADD DUP3 DUP1 SLOAD DUP1 ISZERO PUSH2 0x6DC JUMPI PUSH1 0x20 MUL DUP3 ADD SWAP2 SWAP1 PUSH1 0x0 MSTORE PUSH1 0x20 PUSH1 0x0 KECCAK256 SWAP1 JUMPDEST DUP2 SLOAD DUP2 MSTORE PUSH1 0x20 ADD SWAP1 PUSH1 0x1 ADD SWAP1 DUP1 DUP4 GT PUSH2 0x6C8 JUMPI JUMPDEST POP POP PUSH1 0x68 SLOAD SWAP4 SWAP8 POP POP POP PUSH8 0xFFFFFFFFFFFFFFFF DUP3 GT ISZERO SWAP1 POP PUSH2 0x700 JUMPI PUSH2 0x700 PUSH2 0x11DF JUMP JUMPDEST PUSH1 0x40 MLOAD SWAP1 DUP1 DUP3 MSTORE DUP1 PUSH1 0x20 MUL PUSH1 0x20 ADD DUP3 ADD PUSH1 0x40 MSTORE DUP1 ISZERO PUSH2 0x729 JUMPI DUP2 PUSH1 0x20 ADD PUSH1 0x20 DUP3 MUL DUP1 CALLDATASIZE DUP4 CALLDATACOPY ADD SWAP1 POP JUMPDEST POP PUSH1 0x68 SLOAD SWAP1 SWAP4 POP PUSH8 0xFFFFFFFFFFFFFFFF DUP2 GT ISZERO PUSH2 0x748 JUMPI PUSH2 0x748 PUSH2 0x11DF JUMP JUMPDEST PUSH1 0x40 MLOAD SWAP1 DUP1 DUP3 MSTORE DUP1 PUSH1 0x20 MUL PUSH1 0x20 ADD DUP3 ADD PUSH1 0x40 MSTORE DUP1 ISZERO PUSH2 0x771 JUMPI DUP2 PUSH1 0x20 ADD PUSH1 0x20 DUP3 MUL DUP1 CALLDATASIZE DUP4 CALLDATACOPY ADD SWAP1 POP JUMPDEST POP PUSH1 0x68 SLOAD SWAP1 SWAP3 POP PUSH8 0xFFFFFFFFFFFFFFFF DUP2 GT ISZERO PUSH2 0x790 JUMPI PUSH2 0x790 PUSH2 0x11DF JUMP JUMPDEST PUSH1 0x40 MLOAD SWAP1 DUP1 DUP3 MSTORE DUP1 PUSH1 0x20 MUL PUSH1 0x20 ADD DUP3 ADD PUSH1 0x40 MSTORE DUP1 ISZERO PUSH2 0x7B9 JUMPI DUP2 PUSH1 0x20 ADD PUSH1 0x20 DUP3 MUL DUP1 CALLDATASIZE DUP4 CALLDATACOPY ADD SWAP1 POP JUMPDEST POP SWAP1 POP PUSH1 0x0 JUMPDEST PUSH1 0x68 SLOAD DUP2 LT ISZERO PUSH2 0x89C JUMPI PUSH1 0x0 PUSH1 0x68 DUP3 DUP2 SLOAD DUP2 LT PUSH2 0x7DE JUMPI PUSH2 0x7DE PUSH2 0x11C9 JUMP JUMPDEST SWAP1 PUSH1 0x0 MSTORE PUSH1 0x20 PUSH1 0x0 KECCAK256 ADD SLOAD SWAP1 POP PUSH1 0x69 PUSH1 0x0 DUP3 DUP2 MSTORE PUSH1 0x20 ADD SWAP1 DUP2 MSTORE PUSH1 0x20 ADD PUSH1 0x0 KECCAK256 PUSH1 0x1 ADD SLOAD DUP6 DUP4 DUP2 MLOAD DUP2 LT PUSH2 0x814 JUMPI PUSH2 0x814 PUSH2 0x11C9 JUMP JUMPDEST PUSH1 0x20 MUL PUSH1 0x20 ADD ADD DUP2 DUP2 MSTORE POP POP PUSH1 0x69 PUSH1 0x0 DUP3 DUP2 MSTORE PUSH1 0x20 ADD SWAP1 DUP2 MSTORE PUSH1 0x20 ADD PUSH1 0x0 KECCAK256 PUSH1 0x2 ADD SLOAD DUP5 DUP4 DUP2 MLOAD DUP2 LT PUSH2 0x849 JUMPI PUSH2 0x849 PUSH2 0x11C9 JUMP JUMPDEST PUSH1 0x20 MUL PUSH1 0x20 ADD ADD DUP2 DUP2 MSTORE POP POP PUSH1 0x69 PUSH1 0x0 DUP3 DUP2 MSTORE PUSH1 0x20 ADD SWAP1 DUP2 MSTORE PUSH1 0x20 ADD PUSH1 0x0 KECCAK256 PUSH1 0x3 ADD SLOAD DUP4 DUP4 DUP2 MLOAD DUP2 LT PUSH2 0x87E JUMPI PUSH2 0x87E PUSH2 0x11C9 JUMP JUMPDEST PUSH1 0x20 SWAP1 DUP2 MUL SWAP2 SWAP1 SWAP2 ADD ADD MSTORE POP DUP1 PUSH2 0x894 DUP2 PUSH2 0x1182 JUMP JUMPDEST SWAP2 POP POP PUSH2 0x7BF JUMP JUMPDEST POP SWAP1 SWAP2 SWAP3 SWAP4 JUMP JUMPDEST PUSH1 0x0 DUP3 DUP2 MSTORE PUSH1 0x69 PUSH1 0x20 MSTORE PUSH1 0x40 SWAP1 KECCAK256 PUSH1 0x1 DUP2 ADD SLOAD DUP3 GT ISZERO PUSH2 0x8F4 JUMPI PUSH1 0x40 MLOAD PUSH3 0x461BCD PUSH1 0xE5 SHL DUP2 MSTORE PUSH1 0x20 PUSH1 0x4 DUP3 ADD MSTORE PUSH1 0xC PUSH1 0x24 DUP3 ADD MSTORE PUSH12 0x1BDD5D081BD9881B1A5B5A5D PUSH1 0xA2 SHL PUSH1 0x44 DUP3 ADD MSTORE PUSH1 0x64 ADD PUSH2 0x2DB JUMP JUMPDEST DUP1 SLOAD PUSH1 0xFF AND PUSH2 0x932 JUMPI PUSH1 0x40 MLOAD PUSH3 0x461BCD PUSH1 0xE5 SHL DUP2 MSTORE PUSH1 0x20 PUSH1 0x4 DUP3 ADD MSTORE PUSH1 0xA PUSH1 0x24 DUP3 ADD MSTORE PUSH10 0x6E6F74206F6E53616C65 PUSH1 0xB0 SHL PUSH1 0x44 DUP3 ADD MSTORE PUSH1 0x64 ADD PUSH2 0x2DB JUMP JUMPDEST PUSH1 0x0 DUP2 PUSH1 0x3 ADD SLOAD DUP4 PUSH2 0x944 SWAP2 SWAP1 PUSH2 0x1120 JUMP JUMPDEST SWAP1 POP DUP2 PUSH1 0x2 ADD SLOAD PUSH1 0x1 EQ ISZERO PUSH2 0x970 JUMPI PUSH1 0x65 SLOAD PUSH2 0x96B SWAP1 PUSH1 0x1 PUSH1 0x1 PUSH1 0xA0 SHL SUB AND CALLER ADDRESS DUP5 PUSH2 0xBC8 JUMP JUMPDEST PUSH2 0x988 JUMP JUMPDEST PUSH1 0x66 SLOAD PUSH2 0x988 SWAP1 PUSH1 0x1 PUSH1 0x1 PUSH1 0xA0 SHL SUB AND CALLER ADDRESS DUP5 PUSH2 0xBC8 JUMP JUMPDEST PUSH1 0x67 SLOAD PUSH1 0x40 MLOAD PUSH4 0xAB714FB PUSH1 0xE1 SHL DUP2 MSTORE CALLER PUSH1 0x4 DUP3 ADD MSTORE PUSH1 0x24 DUP2 ADD DUP7 SWAP1 MSTORE PUSH1 0x44 DUP2 ADD DUP6 SWAP1 MSTORE PUSH1 0x1 PUSH1 0x1 PUSH1 0xA0 SHL SUB SWAP1 SWAP2 AND SWAP1 PUSH4 0x156E29F6 SWAP1 PUSH1 0x64 ADD PUSH1 0x20 PUSH1 0x40 MLOAD DUP1 DUP4 SUB DUP2 PUSH1 0x0 DUP8 DUP1 EXTCODESIZE ISZERO DUP1 ISZERO PUSH2 0x9DB JUMPI PUSH1 0x0 DUP1 REVERT JUMPDEST POP GAS CALL ISZERO DUP1 ISZERO PUSH2 0x9EF JUMPI RETURNDATASIZE PUSH1 0x0 DUP1 RETURNDATACOPY RETURNDATASIZE PUSH1 0x0 REVERT JUMPDEST POP POP POP POP PUSH1 0x40 MLOAD RETURNDATASIZE PUSH1 0x1F NOT PUSH1 0x1F DUP3 ADD AND DUP3 ADD DUP1 PUSH1 0x40 MSTORE POP DUP2 ADD SWAP1 PUSH2 0xA13 SWAP2 SWAP1 PUSH2 0xF16 JUMP JUMPDEST POP DUP3 DUP3 PUSH1 0x1 ADD PUSH1 0x0 DUP3 DUP3 SLOAD PUSH2 0xA28 SWAP2 SWAP1 PUSH2 0x113F JUMP JUMPDEST SWAP1 SWAP2 SSTORE POP POP POP POP POP POP JUMP JUMPDEST PUSH1 0x60 PUSH1 0x68 DUP1 SLOAD DUP1 PUSH1 0x20 MUL PUSH1 0x20 ADD PUSH1 0x40 MLOAD SWAP1 DUP2 ADD PUSH1 0x40 MSTORE DUP1 SWAP3 SWAP2 SWAP1 DUP2 DUP2 MSTORE PUSH1 0x20 ADD DUP3 DUP1 SLOAD DUP1 ISZERO PUSH2 0xA81 JUMPI PUSH1 0x20 MUL DUP3 ADD SWAP2 SWAP1 PUSH1 0x0 MSTORE PUSH1 0x20 PUSH1 0x0 KECCAK256 SWAP1 JUMPDEST DUP2 SLOAD DUP2 MSTORE PUSH1 0x20 ADD SWAP1 PUSH1 0x1 ADD SWAP1 DUP1 DUP4 GT PUSH2 0xA6D JUMPI JUMPDEST POP POP POP POP POP SWAP1 POP SWAP1 JUMP JUMPDEST PUSH1 0x33 SLOAD PUSH1 0x1 PUSH1 0x1 PUSH1 0xA0 SHL SUB AND CALLER EQ PUSH2 0xAB5 JUMPI PUSH1 0x40 MLOAD PUSH3 0x461BCD PUSH1 0xE5 SHL DUP2 MSTORE PUSH1 0x4 ADD PUSH2 0x2DB SWAP1 PUSH2 0x10A0 JUMP JUMPDEST PUSH1 0x1 PUSH1 0x1 PUSH1 0xA0 SHL SUB DUP2 AND PUSH2 0xB1A JUMPI PUSH1 0x40 MLOAD PUSH3 0x461BCD PUSH1 0xE5 SHL DUP2 MSTORE PUSH1 0x20 PUSH1 0x4 DUP3 ADD MSTORE PUSH1 0x26 PUSH1 0x24 DUP3 ADD MSTORE PUSH32 0x4F776E61626C653A206E6577206F776E657220697320746865207A65726F2061 PUSH1 0x44 DUP3 ADD MSTORE PUSH6 0x646472657373 PUSH1 0xD0 SHL PUSH1 0x64 DUP3 ADD MSTORE PUSH1 0x84 ADD PUSH2 0x2DB JUMP JUMPDEST PUSH2 0x687 DUP2 JUMPDEST PUSH1 0x33 DUP1 SLOAD PUSH1 0x1 PUSH1 0x1 PUSH1 0xA0 SHL SUB DUP4 DUP2 AND PUSH1 0x1 PUSH1 0x1 PUSH1 0xA0 SHL SUB NOT DUP4 AND DUP2 OR SWAP1 SWAP4 SSTORE PUSH1 0x40 MLOAD SWAP2 AND SWAP2 SWAP1 DUP3 SWAP1 PUSH32 0x8BE0079C531659141344CD1FD0A4F28419497F9722A3DAAFE3B4186F6B6457E0 SWAP1 PUSH1 0x0 SWAP1 LOG3 POP POP JUMP JUMPDEST PUSH1 0x0 SLOAD PUSH2 0x100 SWAP1 DIV PUSH1 0xFF AND PUSH2 0x5BF JUMPI PUSH1 0x40 MLOAD PUSH3 0x461BCD PUSH1 0xE5 SHL DUP2 MSTORE PUSH1 0x4 ADD PUSH2 0x2DB SWAP1 PUSH2 0x10D5 JUMP JUMPDEST PUSH1 0x0 SLOAD PUSH2 0x100 SWAP1 DIV PUSH1 0xFF AND PUSH2 0xBBF JUMPI PUSH1 0x40 MLOAD PUSH3 0x461BCD PUSH1 0xE5 SHL DUP2 MSTORE PUSH1 0x4 ADD PUSH2 0x2DB SWAP1 PUSH2 0x10D5 JUMP JUMPDEST PUSH2 0x5BF CALLER PUSH2 0xB1F JUMP JUMPDEST PUSH1 0x40 DUP1 MLOAD PUSH1 0x1 PUSH1 0x1 PUSH1 0xA0 SHL SUB DUP6 DUP2 AND PUSH1 0x24 DUP4 ADD MSTORE DUP5 AND PUSH1 0x44 DUP3 ADD MSTORE PUSH1 0x64 DUP1 DUP3 ADD DUP5 SWAP1 MSTORE DUP3 MLOAD DUP1 DUP4 SUB SWAP1 SWAP2 ADD DUP2 MSTORE PUSH1 0x84 SWAP1 SWAP2 ADD SWAP1 SWAP2 MSTORE PUSH1 0x20 DUP2 ADD DUP1 MLOAD PUSH1 0x1 PUSH1 0x1 PUSH1 0xE0 SHL SUB AND PUSH4 0x23B872DD PUSH1 0xE0 SHL OR SWAP1 MSTORE PUSH2 0xC22 SWAP1 DUP6 SWAP1 PUSH2 0xC28 JUMP JUMPDEST POP POP POP POP JUMP JUMPDEST PUSH1 0x0 PUSH2 0xC7D DUP3 PUSH1 0x40 MLOAD DUP1 PUSH1 0x40 ADD PUSH1 0x40 MSTORE DUP1 PUSH1 0x20 DUP2 MSTORE PUSH1 0x20 ADD PUSH32 0x5361666545524332303A206C6F772D6C6576656C2063616C6C206661696C6564 DUP2 MSTORE POP DUP6 PUSH1 0x1 PUSH1 0x1 PUSH1 0xA0 SHL SUB AND PUSH2 0xCFF SWAP1 SWAP3 SWAP2 SWAP1 PUSH4 0xFFFFFFFF AND JUMP JUMPDEST DUP1 MLOAD SWAP1 SWAP2 POP ISZERO PUSH2 0xCFA JUMPI DUP1 DUP1 PUSH1 0x20 ADD SWAP1 MLOAD DUP2 ADD SWAP1 PUSH2 0xC9B SWAP2 SWAP1 PUSH2 0xF16 JUMP JUMPDEST PUSH2 0xCFA JUMPI PUSH1 0x40 MLOAD PUSH3 0x461BCD PUSH1 0xE5 SHL DUP2 MSTORE PUSH1 0x20 PUSH1 0x4 DUP3 ADD MSTORE PUSH1 0x2A PUSH1 0x24 DUP3 ADD MSTORE PUSH32 0x5361666545524332303A204552433230206F7065726174696F6E20646964206E PUSH1 0x44 DUP3 ADD MSTORE PUSH10 0x1BDD081CDD58D8D95959 PUSH1 0xB2 SHL PUSH1 0x64 DUP3 ADD MSTORE PUSH1 0x84 ADD PUSH2 0x2DB JUMP JUMPDEST POP POP POP JUMP JUMPDEST PUSH1 0x60 PUSH2 0xD0E DUP5 DUP5 PUSH1 0x0 DUP6 PUSH2 0xD18 JUMP JUMPDEST SWAP1 POP JUMPDEST SWAP4 SWAP3 POP POP POP JUMP JUMPDEST PUSH1 0x60 DUP3 SELFBALANCE LT ISZERO PUSH2 0xD79 JUMPI PUSH1 0x40 MLOAD PUSH3 0x461BCD PUSH1 0xE5 SHL DUP2 MSTORE PUSH1 0x20 PUSH1 0x4 DUP3 ADD MSTORE PUSH1 0x26 PUSH1 0x24 DUP3 ADD MSTORE PUSH32 0x416464726573733A20696E73756666696369656E742062616C616E636520666F PUSH1 0x44 DUP3 ADD MSTORE PUSH6 0x1C8818D85B1B PUSH1 0xD2 SHL PUSH1 0x64 DUP3 ADD MSTORE PUSH1 0x84 ADD PUSH2 0x2DB JUMP JUMPDEST PUSH1 0x1 PUSH1 0x1 PUSH1 0xA0 SHL SUB DUP6 AND EXTCODESIZE PUSH2 0xDD0 JUMPI PUSH1 0x40 MLOAD PUSH3 0x461BCD PUSH1 0xE5 SHL DUP2 MSTORE PUSH1 0x20 PUSH1 0x4 DUP3 ADD MSTORE PUSH1 0x1D PUSH1 0x24 DUP3 ADD MSTORE PUSH32 0x416464726573733A2063616C6C20746F206E6F6E2D636F6E7472616374000000 PUSH1 0x44 DUP3 ADD MSTORE PUSH1 0x64 ADD PUSH2 0x2DB JUMP JUMPDEST PUSH1 0x0 DUP1 DUP7 PUSH1 0x1 PUSH1 0x1 PUSH1 0xA0 SHL SUB AND DUP6 DUP8 PUSH1 0x40 MLOAD PUSH2 0xDEC SWAP2 SWAP1 PUSH2 0xFF1 JUMP JUMPDEST PUSH1 0x0 PUSH1 0x40 MLOAD DUP1 DUP4 SUB DUP2 DUP6 DUP8 GAS CALL SWAP3 POP POP POP RETURNDATASIZE DUP1 PUSH1 0x0 DUP2 EQ PUSH2 0xE29 JUMPI PUSH1 0x40 MLOAD SWAP2 POP PUSH1 0x1F NOT PUSH1 0x3F RETURNDATASIZE ADD AND DUP3 ADD PUSH1 0x40 MSTORE RETURNDATASIZE DUP3 MSTORE RETURNDATASIZE PUSH1 0x0 PUSH1 0x20 DUP5 ADD RETURNDATACOPY PUSH2 0xE2E JUMP JUMPDEST PUSH1 0x60 SWAP2 POP JUMPDEST POP SWAP2 POP SWAP2 POP PUSH2 0xE3E DUP3 DUP3 DUP7 PUSH2 0xE49 JUMP JUMPDEST SWAP8 SWAP7 POP POP POP POP POP POP POP JUMP JUMPDEST PUSH1 0x60 DUP4 ISZERO PUSH2 0xE58 JUMPI POP DUP2 PUSH2 0xD11 JUMP JUMPDEST DUP3 MLOAD ISZERO PUSH2 0xE68 JUMPI DUP3 MLOAD DUP1 DUP5 PUSH1 0x20 ADD REVERT JUMPDEST DUP2 PUSH1 0x40 MLOAD PUSH3 0x461BCD PUSH1 0xE5 SHL DUP2 MSTORE PUSH1 0x4 ADD PUSH2 0x2DB SWAP2 SWAP1 PUSH2 0x106D JUMP JUMPDEST DUP1 CALLDATALOAD PUSH1 0x1 PUSH1 0x1 PUSH1 0xA0 SHL SUB DUP2 AND DUP2 EQ PUSH2 0xE99 JUMPI PUSH1 0x0 DUP1 REVERT JUMPDEST SWAP2 SWAP1 POP JUMP JUMPDEST PUSH1 0x0 PUSH1 0x20 DUP3 DUP5 SUB SLT ISZERO PUSH2 0xEB0 JUMPI PUSH1 0x0 DUP1 REVERT JUMPDEST PUSH2 0xD11 DUP3 PUSH2 0xE82 JUMP JUMPDEST PUSH1 0x0 DUP1 PUSH1 0x40 DUP4 DUP6 SUB SLT ISZERO PUSH2 0xECC JUMPI PUSH1 0x0 DUP1 REVERT JUMPDEST PUSH2 0xED5 DUP4 PUSH2 0xE82 JUMP JUMPDEST SWAP2 POP PUSH2 0xEE3 PUSH1 0x20 DUP5 ADD PUSH2 0xE82 JUMP JUMPDEST SWAP1 POP SWAP3 POP SWAP3 SWAP1 POP JUMP JUMPDEST PUSH1 0x0 DUP1 PUSH1 0x40 DUP4 DUP6 SUB SLT ISZERO PUSH2 0xEFF JUMPI PUSH1 0x0 DUP1 REVERT JUMPDEST PUSH2 0xF08 DUP4 PUSH2 0xE82 JUMP JUMPDEST SWAP5 PUSH1 0x20 SWAP4 SWAP1 SWAP4 ADD CALLDATALOAD SWAP4 POP POP POP JUMP JUMPDEST PUSH1 0x0 PUSH1 0x20 DUP3 DUP5 SUB SLT ISZERO PUSH2 0xF28 JUMPI PUSH1 0x0 DUP1 REVERT JUMPDEST DUP2 MLOAD PUSH2 0xD11 DUP2 PUSH2 0x11F5 JUMP JUMPDEST PUSH1 0x0 PUSH1 0x20 DUP3 DUP5 SUB SLT ISZERO PUSH2 0xF45 JUMPI PUSH1 0x0 DUP1 REVERT JUMPDEST POP CALLDATALOAD SWAP2 SWAP1 POP JUMP JUMPDEST PUSH1 0x0 DUP1 PUSH1 0x0 DUP1 PUSH1 0x0 PUSH1 0xA0 DUP7 DUP9 SUB SLT ISZERO PUSH2 0xF64 JUMPI PUSH1 0x0 DUP1 REVERT JUMPDEST DUP6 CALLDATALOAD SWAP5 POP PUSH1 0x20 DUP7 ADD CALLDATALOAD PUSH2 0xF76 DUP2 PUSH2 0x11F5 JUMP JUMPDEST SWAP5 SWAP8 SWAP5 SWAP7 POP POP POP POP PUSH1 0x40 DUP4 ADD CALLDATALOAD SWAP3 PUSH1 0x60 DUP2 ADD CALLDATALOAD SWAP3 PUSH1 0x80 SWAP1 SWAP2 ADD CALLDATALOAD SWAP2 POP JUMP JUMPDEST PUSH1 0x0 DUP1 PUSH1 0x40 DUP4 DUP6 SUB SLT ISZERO PUSH2 0xFA7 JUMPI PUSH1 0x0 DUP1 REVERT JUMPDEST POP POP DUP1 CALLDATALOAD SWAP3 PUSH1 0x20 SWAP1 SWAP2 ADD CALLDATALOAD SWAP2 POP JUMP JUMPDEST PUSH1 0x0 DUP2 MLOAD DUP1 DUP5 MSTORE PUSH1 0x20 DUP1 DUP6 ADD SWAP5 POP DUP1 DUP5 ADD PUSH1 0x0 JUMPDEST DUP4 DUP2 LT ISZERO PUSH2 0xFE6 JUMPI DUP2 MLOAD DUP8 MSTORE SWAP6 DUP3 ADD SWAP6 SWAP1 DUP3 ADD SWAP1 PUSH1 0x1 ADD PUSH2 0xFCA JUMP JUMPDEST POP SWAP5 SWAP6 SWAP5 POP POP POP POP POP JUMP JUMPDEST PUSH1 0x0 DUP3 MLOAD PUSH2 0x1003 DUP2 DUP5 PUSH1 0x20 DUP8 ADD PUSH2 0x1156 JUMP JUMPDEST SWAP2 SWAP1 SWAP2 ADD SWAP3 SWAP2 POP POP JUMP JUMPDEST PUSH1 0x20 DUP2 MSTORE PUSH1 0x0 PUSH2 0xD11 PUSH1 0x20 DUP4 ADD DUP5 PUSH2 0xFB6 JUMP JUMPDEST PUSH1 0x80 DUP2 MSTORE PUSH1 0x0 PUSH2 0x1033 PUSH1 0x80 DUP4 ADD DUP8 PUSH2 0xFB6 JUMP JUMPDEST DUP3 DUP2 SUB PUSH1 0x20 DUP5 ADD MSTORE PUSH2 0x1045 DUP2 DUP8 PUSH2 0xFB6 JUMP JUMPDEST SWAP1 POP DUP3 DUP2 SUB PUSH1 0x40 DUP5 ADD MSTORE PUSH2 0x1059 DUP2 DUP7 PUSH2 0xFB6 JUMP JUMPDEST SWAP1 POP DUP3 DUP2 SUB PUSH1 0x60 DUP5 ADD MSTORE PUSH2 0xE3E DUP2 DUP6 PUSH2 0xFB6 JUMP JUMPDEST PUSH1 0x20 DUP2 MSTORE PUSH1 0x0 DUP3 MLOAD DUP1 PUSH1 0x20 DUP5 ADD MSTORE PUSH2 0x108C DUP2 PUSH1 0x40 DUP6 ADD PUSH1 0x20 DUP8 ADD PUSH2 0x1156 JUMP JUMPDEST PUSH1 0x1F ADD PUSH1 0x1F NOT AND SWAP2 SWAP1 SWAP2 ADD PUSH1 0x40 ADD SWAP3 SWAP2 POP POP JUMP JUMPDEST PUSH1 0x20 DUP1 DUP3 MSTORE DUP2 DUP2 ADD MSTORE PUSH32 0x4F776E61626C653A2063616C6C6572206973206E6F7420746865206F776E6572 PUSH1 0x40 DUP3 ADD MSTORE PUSH1 0x60 ADD SWAP1 JUMP JUMPDEST PUSH1 0x20 DUP1 DUP3 MSTORE PUSH1 0x2B SWAP1 DUP3 ADD MSTORE PUSH32 0x496E697469616C697A61626C653A20636F6E7472616374206973206E6F742069 PUSH1 0x40 DUP3 ADD MSTORE PUSH11 0x6E697469616C697A696E67 PUSH1 0xA8 SHL PUSH1 0x60 DUP3 ADD MSTORE PUSH1 0x80 ADD SWAP1 JUMP JUMPDEST PUSH1 0x0 DUP2 PUSH1 0x0 NOT DIV DUP4 GT DUP3 ISZERO ISZERO AND ISZERO PUSH2 0x113A JUMPI PUSH2 0x113A PUSH2 0x119D JUMP JUMPDEST POP MUL SWAP1 JUMP JUMPDEST PUSH1 0x0 DUP3 DUP3 LT ISZERO PUSH2 0x1151 JUMPI PUSH2 0x1151 PUSH2 0x119D JUMP JUMPDEST POP SUB SWAP1 JUMP JUMPDEST PUSH1 0x0 JUMPDEST DUP4 DUP2 LT ISZERO PUSH2 0x1171 JUMPI DUP2 DUP2 ADD MLOAD DUP4 DUP3 ADD MSTORE PUSH1 0x20 ADD PUSH2 0x1159 JUMP JUMPDEST DUP4 DUP2 GT ISZERO PUSH2 0xC22 JUMPI POP POP PUSH1 0x0 SWAP2 ADD MSTORE JUMP JUMPDEST PUSH1 0x0 PUSH1 0x0 NOT DUP3 EQ ISZERO PUSH2 0x1196 JUMPI PUSH2 0x1196 PUSH2 0x119D JUMP JUMPDEST POP PUSH1 0x1 ADD SWAP1 JUMP JUMPDEST PUSH4 0x4E487B71 PUSH1 0xE0 SHL PUSH1 0x0 MSTORE PUSH1 0x11 PUSH1 0x4 MSTORE PUSH1 0x24 PUSH1 0x0 REVERT JUMPDEST PUSH4 0x4E487B71 PUSH1 0xE0 SHL PUSH1 0x0 MSTORE PUSH1 0x31 PUSH1 0x4 MSTORE PUSH1 0x24 PUSH1 0x0 REVERT JUMPDEST PUSH4 0x4E487B71 PUSH1 0xE0 SHL PUSH1 0x0 MSTORE PUSH1 0x32 PUSH1 0x4 MSTORE PUSH1 0x24 PUSH1 0x0 REVERT JUMPDEST PUSH4 0x4E487B71 PUSH1 0xE0 SHL PUSH1 0x0 MSTORE PUSH1 0x41 PUSH1 0x4 MSTORE PUSH1 0x24 PUSH1 0x0 REVERT JUMPDEST DUP1 ISZERO ISZERO DUP2 EQ PUSH2 0x687 JUMPI PUSH1 0x0 DUP1 REVERT INVALID LOG2 PUSH5 0x6970667358 0x22 SLT KECCAK256 0xFC 0x1E 0xB3 SWAP12 0xAD ORIGIN EXTCODECOPY 0xDB DUP2 MLOAD 0xFC PUSH24 0xBA04336C2C94C9A5A36585B3740D8D4924AD43C064736F6C PUSH4 0x43000807 STOP CALLER "
		},
		"gasEstimates": {
			"creation": {
				"codeDepositCost": "933000",
				"executionCost": "968",
				"totalCost": "933968"
			},
			"external": {
				"BVG()": "2415",
				"BVT()": "2349",
				"buyItem(uint256,uint256)": "infinite",
				"getList()": "infinite",
				"getOnSaleList()": "infinite",
				"initialize()": "infinite",
				"item()": "2392",
				"owner()": "2343",
				"renounceOwnership()": "28162",
				"setItem(address)": "26757",
				"setItemAmount(uint256,uint256)": "24652",
				"setShopInfo(uint256,bool,uint256,uint256,uint256)": "228442",
				"setToken(address,address)": "infinite",
				"shopInfo(uint256)": "8944",
				"transferOwnership(address)": "28389",
				"userBuyed(address,uint256)": "2656"
			}
		},
		"methodIdentifiers": {
			"BVG()": "87464389",
			"BVT()": "5f24b4a4",
			"buyItem(uint256,uint256)": "9979c009",
			"getList()": "942b765a",
			"getOnSaleList()": "a2e8f335",
			"initialize()": "8129fc1c",
			"item()": "f2a4a82e",
			"owner()": "8da5cb5b",
			"renounceOwnership()": "715018a6",
			"setItem(address)": "165ed276",
			"setItemAmount(uint256,uint256)": "314c4eae",
			"setShopInfo(uint256,bool,uint256,uint256,uint256)": "0670c4d5",
			"setToken(address,address)": "1da26a8b",
			"shopInfo(uint256)": "9fdd7ec4",
			"transferOwnership(address)": "f2fde38b",
			"userBuyed(address,uint256)": "d194f143"
		}
	},
	"abi": [
		{
			"anonymous": false,
			"inputs": [
				{
					"indexed": true,
					"internalType": "address",
					"name": "previousOwner",
					"type": "address"
				},
				{
					"indexed": true,
					"internalType": "address",
					"name": "newOwner",
					"type": "address"
				}
			],
			"name": "OwnershipTransferred",
			"type": "event"
		},
		{
			"inputs": [],
			"name": "BVG",
			"outputs": [
				{
					"internalType": "contract IERC20Upgradeable",
					"name": "",
					"type": "address"
				}
			],
			"stateMutability": "view",
			"type": "function"
		},
		{
			"inputs": [],
			"name": "BVT",
			"outputs": [
				{
					"internalType": "contract IERC20Upgradeable",
					"name": "",
					"type": "address"
				}
			],
			"stateMutability": "view",
			"type": "function"
		},
		{
			"inputs": [
				{
					"internalType": "uint256",
					"name": "itemId",
					"type": "uint256"
				},
				{
					"internalType": "uint256",
					"name": "amount",
					"type": "uint256"
				}
			],
			"name": "buyItem",
			"outputs": [],
			"stateMutability": "nonpayable",
			"type": "function"
		},
		{
			"inputs": [],
			"name": "getList",
			"outputs": [
				{
					"internalType": "uint256[]",
					"name": "lists",
					"type": "uint256[]"
				},
				{
					"internalType": "uint256[]",
					"name": "lefts",
					"type": "uint256[]"
				},
				{
					"internalType": "uint256[]",
					"name": "pays",
					"type": "uint256[]"
				},
				{
					"internalType": "uint256[]",
					"name": "prices",
					"type": "uint256[]"
				}
			],
			"stateMutability": "view",
			"type": "function"
		},
		{
			"inputs": [],
			"name": "getOnSaleList",
			"outputs": [
				{
					"internalType": "uint256[]",
					"name": "",
					"type": "uint256[]"
				}
			],
			"stateMutability": "view",
			"type": "function"
		},
		{
			"inputs": [],
			"name": "initialize",
			"outputs": [],
			"stateMutability": "nonpayable",
			"type": "function"
		},
		{
			"inputs": [],
			"name": "item",
			"outputs": [
				{
					"internalType": "contract ICattle1155",
					"name": "",
					"type": "address"
				}
			],
			"stateMutability": "view",
			"type": "function"
		},
		{
			"inputs": [],
			"name": "owner",
			"outputs": [
				{
					"internalType": "address",
					"name": "",
					"type": "address"
				}
			],
			"stateMutability": "view",
			"type": "function"
		},
		{
			"inputs": [],
			"name": "renounceOwnership",
			"outputs": [],
			"stateMutability": "nonpayable",
			"type": "function"
		},
		{
			"inputs": [
				{
					"internalType": "address",
					"name": "addr_",
					"type": "address"
				}
			],
			"name": "setItem",
			"outputs": [],
			"stateMutability": "nonpayable",
			"type": "function"
		},
		{
			"inputs": [
				{
					"internalType": "uint256",
					"name": "itemId",
					"type": "uint256"
				},
				{
					"internalType": "uint256",
					"name": "amount",
					"type": "uint256"
				}
			],
			"name": "setItemAmount",
			"outputs": [],
			"stateMutability": "nonpayable",
			"type": "function"
		},
		{
			"inputs": [
				{
					"internalType": "uint256",
					"name": "itemId",
					"type": "uint256"
				},
				{
					"internalType": "bool",
					"name": "isOnsale",
					"type": "bool"
				},
				{
					"internalType": "uint256",
					"name": "sellLimit",
					"type": "uint256"
				},
				{
					"internalType": "uint256",
					"name": "payWith",
					"type": "uint256"
				},
				{
					"internalType": "uint256",
					"name": "price_",
					"type": "uint256"
				}
			],
			"name": "setShopInfo",
			"outputs": [],
			"stateMutability": "nonpayable",
			"type": "function"
		},
		{
			"inputs": [
				{
					"internalType": "address",
					"name": "BVT_",
					"type": "address"
				},
				{
					"internalType": "address",
					"name": "BVG_",
					"type": "address"
				}
			],
			"name": "setToken",
			"outputs": [],
			"stateMutability": "nonpayable",
			"type": "function"
		},
		{
			"inputs": [
				{
					"internalType": "uint256",
					"name": "",
					"type": "uint256"
				}
			],
			"name": "shopInfo",
			"outputs": [
				{
					"internalType": "bool",
					"name": "onSale",
					"type": "bool"
				},
				{
					"internalType": "uint256",
					"name": "left",
					"type": "uint256"
				},
				{
					"internalType": "uint256",
					"name": "pay",
					"type": "uint256"
				},
				{
					"internalType": "uint256",
					"name": "price",
					"type": "uint256"
				}
			],
			"stateMutability": "view",
			"type": "function"
		},
		{
			"inputs": [
				{
					"internalType": "address",
					"name": "newOwner",
					"type": "address"
				}
			],
			"name": "transferOwnership",
			"outputs": [],
			"stateMutability": "nonpayable",
			"type": "function"
		},
		{
			"inputs": [
				{
					"internalType": "address",
					"name": "",
					"type": "address"
				},
				{
					"internalType": "uint256",
					"name": "",
					"type": "uint256"
				}
			],
			"name": "userBuyed",
			"outputs": [
				{
					"internalType": "uint256",
					"name": "",
					"type": "uint256"
				}
			],
			"stateMutability": "view",
			"type": "function"
		}
	]
}