{
	"data": {
		"bytecode": {
			"linkReferences": {},
			"object": "608060405234801561001057600080fd5b50611d34806100206000396000f3fe608060405234801561001057600080fd5b50600436106101fb5760003560e01c8063754215a11161011a578063ad911387116100ad578063dbf8b1681161007c578063dbf8b16814610471578063f1ff732b14610484578063f2a4a82e14610497578063f2fde38b146104aa578063f69e2046146104bd57600080fd5b8063ad91138714610418578063b4dac3331461042b578063c542a90b1461043e578063dba713761461045e57600080fd5b80638be031f4116100e95780638be031f4146103b65780638da5cb5b146103e15780639f1646d7146103f25780639fd0e1381461040557600080fd5b8063754215a1146103755780638129fc1c146103885780638443bea61461039057806387464389146103a357600080fd5b806322be3de1116101925780635aef7de6116101615780635aef7de6146103345780635f24b4a41461034757806361a912901461035a578063715018a61461036d57600080fd5b806322be3de1146102d25780632be682d4146102e5578063537627ab146102f857806353b9008f1461030b57600080fd5b8063165ed276116101ce578063165ed2761461026b5780631da26a8b1461027e5780631e9bcc0e146102915780631ef84039146102bf57600080fd5b806301c211c7146102005780630ab9db5b146102305780630de307fe14610243578063110a2ded14610258575b600080fd5b606754610213906001600160a01b031681565b6040516001600160a01b0390911681526020015b60405180910390f35b607054610213906001600160a01b031681565b610256610251366004611759565b6104d0565b005b610256610266366004611759565b610525565b610256610279366004611759565b610571565b61025661028c366004611774565b6105bd565b6102b161029f366004611759565b60726020526000908152604090205481565b604051908152602001610227565b6102566102cd366004611842565b610615565b606a54610213906001600160a01b031681565b6102566102f3366004611759565b61094c565b610256610306366004611759565b610998565b610213610319366004611926565b6071602052600090815260409020546001600160a01b031681565b606c54610213906001600160a01b031681565b606554610213906001600160a01b031681565b610256610368366004611759565b6109e4565b610256610a30565b606d54610213906001600160a01b031681565b610256610a66565b606854610213906001600160a01b031681565b606654610213906001600160a01b031681565b6102b16103c4366004611774565b607460209081526000928352604080842090915290825290205481565b6033546001600160a01b0316610213565b6102566104003660046117a7565b610ae3565b610256610413366004611759565b610ce0565b610256610426366004611759565b610d2c565b606b54610213906001600160a01b031681565b6102b161044c366004611759565b60736020526000908152604090205481565b61025661046c366004611759565b610d78565b606f54610213906001600160a01b031681565b610256610492366004611759565b610dc4565b606954610213906001600160a01b031681565b6102566104b8366004611759565b610e10565b606e54610213906001600160a01b031681565b6033546001600160a01b031633146105035760405162461bcd60e51b81526004016104fa90611af9565b60405180910390fd5b606780546001600160a01b0319166001600160a01b0392909216919091179055565b6033546001600160a01b0316331461054f5760405162461bcd60e51b81526004016104fa90611af9565b606f80546001600160a01b0319166001600160a01b0392909216919091179055565b6033546001600160a01b0316331461059b5760405162461bcd60e51b81526004016104fa90611af9565b606980546001600160a01b0319166001600160a01b0392909216919091179055565b6033546001600160a01b031633146105e75760405162461bcd60e51b81526004016104fa90611af9565b606580546001600160a01b039384166001600160a01b03199182161790915560668054929093169116179055565b6000888860405160200161062a929190611a06565b60405160208183030381529060405280519060200120905060008760405160200161065591906119d0565b6040516020818303038152906040528051906020012090506000863360405160200161069d92919091825260601b6bffffffffffffffffffffffff1916602082015260340190565b6040516020818303038152906040528051906020012090506000886040516020016106cf91151560f81b815260010190565b60408051601f1981840301815282825280516020918201209083018790529082018590526060820184905260808201819052915060009060a00160408051601f198184030181528282528051602091820120600080855291840180845281905260ff8a1692840192909252606083018b9052608083018a90529092509060019060a0016020604051602081039080840390855afa158015610774573d6000803e3d6000fd5b5050604051601f1901516070549092506001600160a01b0380841691161490506107cd5760405162461bcd60e51b815260206004820152600a6024820152693737ba103130b735b2b960b11b60448201526064016104fa565b60008a8152607160205260409020546001600160a01b03161561081c5760405162461bcd60e51b815260206004820152600760248201526618db185a5b595960ca1b60448201526064016104fa565b8c518e5114801561082e57508b518d51145b6108695760405162461bcd60e51b815260206004820152600c60248201526b0eee4dedcce40d8cadccee8d60a31b60448201526064016104fa565b60005b8e5181101561090e578e818151811061088757610887611cc4565b602002602001015160ff166000141561089f5761090e565b6108fc8f82815181106108b4576108b4611cc4565b602002602001015160ff168f83815181106108d1576108d1611cc4565b602002602001015160ff168f84815181106108ee576108ee611cc4565b60200260200101518f610ea8565b8061090681611c93565b91505061086c565b506040518a9033907fa24234afdca02a8d3145889376ed6307832a41930df54311c44ecd3d72769c1090600090a35050505050505050505050505050565b6033546001600160a01b031633146109765760405162461bcd60e51b81526004016104fa90611af9565b606e80546001600160a01b0319166001600160a01b0392909216919091179055565b6033546001600160a01b031633146109c25760405162461bcd60e51b81526004016104fa90611af9565b606d80546001600160a01b0319166001600160a01b0392909216919091179055565b6033546001600160a01b03163314610a0e5760405162461bcd60e51b81526004016104fa90611af9565b606c80546001600160a01b0319166001600160a01b0392909216919091179055565b6033546001600160a01b03163314610a5a5760405162461bcd60e51b81526004016104fa90611af9565b610a64600061124d565b565b6000610a72600161129f565b90508015610a8a576000805461ff0019166101001790555b610a9261132c565b610a9a611353565b8015610ae0576000805461ff0019169055604051600181527f7f26b83ff96e1f2b6a682f133852f6798a09c465da95921460cefb38474024989060200160405180910390a15b50565b60008585604051602001610af892919061198e565b60408051601f198184030181528282528051602091820120600080855291840180845281905260ff86169284019290925260608301879052608083018690529092509060019060a0016020604051602081039080840390855afa158015610b63573d6000803e3d6000fd5b5050604051601f1901516070549092506001600160a01b038084169116149050610bbc5760405162461bcd60e51b815260206004820152600a6024820152693737ba103130b735b2b960b11b60448201526064016104fa565b865160208801516001600160a01b0390811691161415610c0e5760405162461bcd60e51b815260206004820152600d60248201526c77726f6e67206164647265737360981b60448201526064016104fa565b600086118015610c1f575060058611155b610c585760405162461bcd60e51b815260206004820152600a60248201526977726f6e67207479706560b01b60448201526064016104fa565b86516001600160a01b039081166000908152607460208181526040808420828d018051871686529083528185208c90558051861685529282528084208c51861685529091528083208a905590518a5191518a949182169392909116917f22698539b7560d5b21d018f58a2471e2b0223fd2aab30b1c1bbefc70f24fc9dc91a450505050505050565b6033546001600160a01b03163314610d0a5760405162461bcd60e51b81526004016104fa90611af9565b606b80546001600160a01b0319166001600160a01b0392909216919091179055565b6033546001600160a01b03163314610d565760405162461bcd60e51b81526004016104fa90611af9565b606880546001600160a01b0319166001600160a01b0392909216919091179055565b6033546001600160a01b03163314610da25760405162461bcd60e51b81526004016104fa90611af9565b606a80546001600160a01b0319166001600160a01b0392909216919091179055565b6033546001600160a01b03163314610dee5760405162461bcd60e51b81526004016104fa90611af9565b607080546001600160a01b0319166001600160a01b0392909216919091179055565b6033546001600160a01b03163314610e3a5760405162461bcd60e51b81526004016104fa90611af9565b6001600160a01b038116610e9f5760405162461bcd60e51b815260206004820152602660248201527f4f776e61626c653a206e6577206f776e657220697320746865207a65726f206160448201526564647265737360d01b60648201526084016104fa565b610ae08161124d565b8360011415610f4d578260011415610f1d576067546040516335313c2160e11b81523360048201526001600160a01b0390911690636a627842906024015b600060405180830381600087803b158015610f0057600080fd5b505af1158015610f14573d6000803e3d6000fd5b50505050611247565b6067546040516302ecee5d60e61b81523360048201526001600160a01b039091169063bb3b974090602401610ee6565b8360021415610fe757606954604051630ab714fb60e11b815233600482015260248101859052604481018490526001600160a01b039091169063156e29f690606401602060405180830381600087803b158015610fa957600080fd5b505af1158015610fbd573d6000803e3d6000fd5b505050506040513d601f19601f82011682018060405250810190610fe19190611909565b50611247565b8360031415610ff557611247565b83600414156110705761100661162f565b606d5460405163259c037f60e11b81526001600160a01b0390911690634b3806fe906110389033908590600401611a37565b600060405180830381600087803b15801561105257600080fd5b505af1158015611066573d6000803e3d6000fd5b5050505050611247565b83600514156112025780156111e65760685460405163e86fc83160e01b81523360048201526000916001600160a01b03169063e86fc8319060240160206040518083038186803b1580156110c357600080fd5b505afa1580156110d7573d6000803e3d6000fd5b505050506040513d601f19601f820116820180604052508101906110fb919061193f565b90506000606461110b8386611c31565b6111159190611c0f565b60685460405163832403f360e01b8152336004820152602481018390529192506001600160a01b03169063832403f390604401600060405180830381600087803b15801561116257600080fd5b505af1158015611176573d6000803e3d6000fd5b5050505061119d33828661118a9190611c50565b6065546001600160a01b03169190611383565b6068546065546111ba916001600160a01b03918216911683611383565b33600090815260736020526040812080548692906111d9908490611bf7565b9091555061124792505050565b6065546111fd906001600160a01b03163384611383565b611247565b836006141561124757606654611222906001600160a01b03163384611383565b3360009081526072602052604081208054849290611241908490611bf7565b90915550505b50505050565b603380546001600160a01b038381166001600160a01b0319831681179093556040519116919082907f8be0079c531659141344cd1fd0a4f28419497f9722a3daafe3b4186f6b6457e090600090a35050565b60008054610100900460ff16156112e6578160ff1660011480156112c25750303b155b6112de5760405162461bcd60e51b81526004016104fa90611aab565b506000919050565b60005460ff80841691161061130d5760405162461bcd60e51b81526004016104fa90611aab565b506000805460ff191660ff92909216919091179055600190565b919050565b600054610100900460ff16610a645760405162461bcd60e51b81526004016104fa90611b2e565b600054610100900460ff1661137a5760405162461bcd60e51b81526004016104fa90611b2e565b610a643361124d565b604080516001600160a01b038416602482015260448082018490528251808303909101815260649091019091526020810180516001600160e01b031663a9059cbb60e01b1790526113d59084906113da565b505050565b600061142f826040518060400160405280602081526020017f5361666545524332303a206c6f772d6c6576656c2063616c6c206661696c6564815250856001600160a01b03166114ac9092919063ffffffff16565b8051909150156113d5578080602001905181019061144d9190611909565b6113d55760405162461bcd60e51b815260206004820152602a60248201527f5361666545524332303a204552433230206f7065726174696f6e20646964206e6044820152691bdd081cdd58d8d9595960b21b60648201526084016104fa565b60606114bb84846000856114c5565b90505b9392505050565b6060824710156115265760405162461bcd60e51b815260206004820152602660248201527f416464726573733a20696e73756666696369656e742062616c616e636520666f6044820152651c8818d85b1b60d21b60648201526084016104fa565b6001600160a01b0385163b61157d5760405162461bcd60e51b815260206004820152601d60248201527f416464726573733a2063616c6c20746f206e6f6e2d636f6e747261637400000060448201526064016104fa565b600080866001600160a01b031685876040516115999190611a1b565b60006040518083038185875af1925050503d80600081146115d6576040519150601f19603f3d011682016040523d82523d6000602084013e6115db565b606091505b50915091506115eb8282866115f6565b979650505050505050565b606083156116055750816114be565b8251156116155782518084602001fd5b8160405162461bcd60e51b81526004016104fa9190611a78565b60405180604001604052806002906020820280368337509192915050565b80356001600160a01b038116811461132757600080fd5b600082601f83011261167557600080fd5b8135602061168a61168583611bd3565b611ba2565b80838252828201915082860187848660051b89010111156116aa57600080fd5b60005b858110156116c9578135845292840192908401906001016116ad565b5090979650505050505050565b600082601f8301126116e757600080fd5b813560206116f761168583611bd3565b80838252828201915082860187848660051b890101111561171757600080fd5b60005b858110156116c95761172b82611748565b8452928401929084019060010161171a565b803561132781611cf0565b803560ff8116811461132757600080fd5b60006020828403121561176b57600080fd5b6114be8261164d565b6000806040838503121561178757600080fd5b6117908361164d565b915061179e6020840161164d565b90509250929050565b600080600080600060c086880312156117bf57600080fd5b86601f8701126117ce57600080fd5b6117d6611b79565b8087604089018a8111156117e957600080fd5b60005b6002811015611813576117fe8361164d565b855260209485019492909201916001016117ec565b509197505035945050606086013592506080860135915061183660a08701611748565b90509295509295909350565b600080600080600080600080610100898b03121561185f57600080fd5b883567ffffffffffffffff8082111561187757600080fd5b6118838c838d016116d6565b995060208b013591508082111561189957600080fd5b6118a58c838d016116d6565b985060408b01359150808211156118bb57600080fd5b506118c88b828c01611664565b9650506118d760608a0161173d565b94506080890135935060a0890135925060c089013591506118fa60e08a01611748565b90509295985092959890939650565b60006020828403121561191b57600080fd5b81516114be81611cf0565b60006020828403121561193857600080fd5b5035919050565b60006020828403121561195157600080fd5b5051919050565b60008151602080840160005b8381101561198357815160ff1687529582019590820190600101611964565b509495945050505050565b60008184825b60028110156119bc5781516001600160a01b0316835260209283019290910190600101611994565b505050506040810191909152606001919050565b815160009082906020808601845b838110156119fa578151855293820193908201906001016119de565b50929695505050505050565b60006114bb611a158386611958565b84611958565b60008251611a2d818460208701611c67565b9190910192915050565b6001600160a01b03831681526060810160208083018460005b6002811015611a6d57815183529183019190830190600101611a50565b505050509392505050565b6020815260008251806020840152611a97816040850160208701611c67565b601f01601f19169190910160400192915050565b6020808252602e908201527f496e697469616c697a61626c653a20636f6e747261637420697320616c72656160408201526d191e481a5b9a5d1a585b1a5e995960921b606082015260800190565b6020808252818101527f4f776e61626c653a2063616c6c6572206973206e6f7420746865206f776e6572604082015260600190565b6020808252602b908201527f496e697469616c697a61626c653a20636f6e7472616374206973206e6f74206960408201526a6e697469616c697a696e6760a81b606082015260800190565b6040805190810167ffffffffffffffff81118282101715611b9c57611b9c611cda565b60405290565b604051601f8201601f1916810167ffffffffffffffff81118282101715611bcb57611bcb611cda565b604052919050565b600067ffffffffffffffff821115611bed57611bed611cda565b5060051b60200190565b60008219821115611c0a57611c0a611cae565b500190565b600082611c2c57634e487b7160e01b600052601260045260246000fd5b500490565b6000816000190483118215151615611c4b57611c4b611cae565b500290565b600082821015611c6257611c62611cae565b500390565b60005b83811015611c82578181015183820152602001611c6a565b838111156112475750506000910152565b6000600019821415611ca757611ca7611cae565b5060010190565b634e487b7160e01b600052601160045260246000fd5b634e487b7160e01b600052603260045260246000fd5b634e487b7160e01b600052604160045260246000fd5b8015158114610ae057600080fdfea264697066735822122086dd0b17121d9446f247aaef3ddab1d6f7c09a680f322e92853ba291d94c062f64736f6c63430008070033",
			"opcodes": "PUSH1 0x80 PUSH1 0x40 MSTORE CALLVALUE DUP1 ISZERO PUSH2 0x10 JUMPI PUSH1 0x0 DUP1 REVERT JUMPDEST POP PUSH2 0x1D34 DUP1 PUSH2 0x20 PUSH1 0x0 CODECOPY PUSH1 0x0 RETURN INVALID PUSH1 0x80 PUSH1 0x40 MSTORE CALLVALUE DUP1 ISZERO PUSH2 0x10 JUMPI PUSH1 0x0 DUP1 REVERT JUMPDEST POP PUSH1 0x4 CALLDATASIZE LT PUSH2 0x1FB JUMPI PUSH1 0x0 CALLDATALOAD PUSH1 0xE0 SHR DUP1 PUSH4 0x754215A1 GT PUSH2 0x11A JUMPI DUP1 PUSH4 0xAD911387 GT PUSH2 0xAD JUMPI DUP1 PUSH4 0xDBF8B168 GT PUSH2 0x7C JUMPI DUP1 PUSH4 0xDBF8B168 EQ PUSH2 0x471 JUMPI DUP1 PUSH4 0xF1FF732B EQ PUSH2 0x484 JUMPI DUP1 PUSH4 0xF2A4A82E EQ PUSH2 0x497 JUMPI DUP1 PUSH4 0xF2FDE38B EQ PUSH2 0x4AA JUMPI DUP1 PUSH4 0xF69E2046 EQ PUSH2 0x4BD JUMPI PUSH1 0x0 DUP1 REVERT JUMPDEST DUP1 PUSH4 0xAD911387 EQ PUSH2 0x418 JUMPI DUP1 PUSH4 0xB4DAC333 EQ PUSH2 0x42B JUMPI DUP1 PUSH4 0xC542A90B EQ PUSH2 0x43E JUMPI DUP1 PUSH4 0xDBA71376 EQ PUSH2 0x45E JUMPI PUSH1 0x0 DUP1 REVERT JUMPDEST DUP1 PUSH4 0x8BE031F4 GT PUSH2 0xE9 JUMPI DUP1 PUSH4 0x8BE031F4 EQ PUSH2 0x3B6 JUMPI DUP1 PUSH4 0x8DA5CB5B EQ PUSH2 0x3E1 JUMPI DUP1 PUSH4 0x9F1646D7 EQ PUSH2 0x3F2 JUMPI DUP1 PUSH4 0x9FD0E138 EQ PUSH2 0x405 JUMPI PUSH1 0x0 DUP1 REVERT JUMPDEST DUP1 PUSH4 0x754215A1 EQ PUSH2 0x375 JUMPI DUP1 PUSH4 0x8129FC1C EQ PUSH2 0x388 JUMPI DUP1 PUSH4 0x8443BEA6 EQ PUSH2 0x390 JUMPI DUP1 PUSH4 0x87464389 EQ PUSH2 0x3A3 JUMPI PUSH1 0x0 DUP1 REVERT JUMPDEST DUP1 PUSH4 0x22BE3DE1 GT PUSH2 0x192 JUMPI DUP1 PUSH4 0x5AEF7DE6 GT PUSH2 0x161 JUMPI DUP1 PUSH4 0x5AEF7DE6 EQ PUSH2 0x334 JUMPI DUP1 PUSH4 0x5F24B4A4 EQ PUSH2 0x347 JUMPI DUP1 PUSH4 0x61A91290 EQ PUSH2 0x35A JUMPI DUP1 PUSH4 0x715018A6 EQ PUSH2 0x36D JUMPI PUSH1 0x0 DUP1 REVERT JUMPDEST DUP1 PUSH4 0x22BE3DE1 EQ PUSH2 0x2D2 JUMPI DUP1 PUSH4 0x2BE682D4 EQ PUSH2 0x2E5 JUMPI DUP1 PUSH4 0x537627AB EQ PUSH2 0x2F8 JUMPI DUP1 PUSH4 0x53B9008F EQ PUSH2 0x30B JUMPI PUSH1 0x0 DUP1 REVERT JUMPDEST DUP1 PUSH4 0x165ED276 GT PUSH2 0x1CE JUMPI DUP1 PUSH4 0x165ED276 EQ PUSH2 0x26B JUMPI DUP1 PUSH4 0x1DA26A8B EQ PUSH2 0x27E JUMPI DUP1 PUSH4 0x1E9BCC0E EQ PUSH2 0x291 JUMPI DUP1 PUSH4 0x1EF84039 EQ PUSH2 0x2BF JUMPI PUSH1 0x0 DUP1 REVERT JUMPDEST DUP1 PUSH4 0x1C211C7 EQ PUSH2 0x200 JUMPI DUP1 PUSH4 0xAB9DB5B EQ PUSH2 0x230 JUMPI DUP1 PUSH4 0xDE307FE EQ PUSH2 0x243 JUMPI DUP1 PUSH4 0x110A2DED EQ PUSH2 0x258 JUMPI JUMPDEST PUSH1 0x0 DUP1 REVERT JUMPDEST PUSH1 0x67 SLOAD PUSH2 0x213 SWAP1 PUSH1 0x1 PUSH1 0x1 PUSH1 0xA0 SHL SUB AND DUP2 JUMP JUMPDEST PUSH1 0x40 MLOAD PUSH1 0x1 PUSH1 0x1 PUSH1 0xA0 SHL SUB SWAP1 SWAP2 AND DUP2 MSTORE PUSH1 0x20 ADD JUMPDEST PUSH1 0x40 MLOAD DUP1 SWAP2 SUB SWAP1 RETURN JUMPDEST PUSH1 0x70 SLOAD PUSH2 0x213 SWAP1 PUSH1 0x1 PUSH1 0x1 PUSH1 0xA0 SHL SUB AND DUP2 JUMP JUMPDEST PUSH2 0x256 PUSH2 0x251 CALLDATASIZE PUSH1 0x4 PUSH2 0x1759 JUMP JUMPDEST PUSH2 0x4D0 JUMP JUMPDEST STOP JUMPDEST PUSH2 0x256 PUSH2 0x266 CALLDATASIZE PUSH1 0x4 PUSH2 0x1759 JUMP JUMPDEST PUSH2 0x525 JUMP JUMPDEST PUSH2 0x256 PUSH2 0x279 CALLDATASIZE PUSH1 0x4 PUSH2 0x1759 JUMP JUMPDEST PUSH2 0x571 JUMP JUMPDEST PUSH2 0x256 PUSH2 0x28C CALLDATASIZE PUSH1 0x4 PUSH2 0x1774 JUMP JUMPDEST PUSH2 0x5BD JUMP JUMPDEST PUSH2 0x2B1 PUSH2 0x29F CALLDATASIZE PUSH1 0x4 PUSH2 0x1759 JUMP JUMPDEST PUSH1 0x72 PUSH1 0x20 MSTORE PUSH1 0x0 SWAP1 DUP2 MSTORE PUSH1 0x40 SWAP1 KECCAK256 SLOAD DUP2 JUMP JUMPDEST PUSH1 0x40 MLOAD SWAP1 DUP2 MSTORE PUSH1 0x20 ADD PUSH2 0x227 JUMP JUMPDEST PUSH2 0x256 PUSH2 0x2CD CALLDATASIZE PUSH1 0x4 PUSH2 0x1842 JUMP JUMPDEST PUSH2 0x615 JUMP JUMPDEST PUSH1 0x6A SLOAD PUSH2 0x213 SWAP1 PUSH1 0x1 PUSH1 0x1 PUSH1 0xA0 SHL SUB AND DUP2 JUMP JUMPDEST PUSH2 0x256 PUSH2 0x2F3 CALLDATASIZE PUSH1 0x4 PUSH2 0x1759 JUMP JUMPDEST PUSH2 0x94C JUMP JUMPDEST PUSH2 0x256 PUSH2 0x306 CALLDATASIZE PUSH1 0x4 PUSH2 0x1759 JUMP JUMPDEST PUSH2 0x998 JUMP JUMPDEST PUSH2 0x213 PUSH2 0x319 CALLDATASIZE PUSH1 0x4 PUSH2 0x1926 JUMP JUMPDEST PUSH1 0x71 PUSH1 0x20 MSTORE PUSH1 0x0 SWAP1 DUP2 MSTORE PUSH1 0x40 SWAP1 KECCAK256 SLOAD PUSH1 0x1 PUSH1 0x1 PUSH1 0xA0 SHL SUB AND DUP2 JUMP JUMPDEST PUSH1 0x6C SLOAD PUSH2 0x213 SWAP1 PUSH1 0x1 PUSH1 0x1 PUSH1 0xA0 SHL SUB AND DUP2 JUMP JUMPDEST PUSH1 0x65 SLOAD PUSH2 0x213 SWAP1 PUSH1 0x1 PUSH1 0x1 PUSH1 0xA0 SHL SUB AND DUP2 JUMP JUMPDEST PUSH2 0x256 PUSH2 0x368 CALLDATASIZE PUSH1 0x4 PUSH2 0x1759 JUMP JUMPDEST PUSH2 0x9E4 JUMP JUMPDEST PUSH2 0x256 PUSH2 0xA30 JUMP JUMPDEST PUSH1 0x6D SLOAD PUSH2 0x213 SWAP1 PUSH1 0x1 PUSH1 0x1 PUSH1 0xA0 SHL SUB AND DUP2 JUMP JUMPDEST PUSH2 0x256 PUSH2 0xA66 JUMP JUMPDEST PUSH1 0x68 SLOAD PUSH2 0x213 SWAP1 PUSH1 0x1 PUSH1 0x1 PUSH1 0xA0 SHL SUB AND DUP2 JUMP JUMPDEST PUSH1 0x66 SLOAD PUSH2 0x213 SWAP1 PUSH1 0x1 PUSH1 0x1 PUSH1 0xA0 SHL SUB AND DUP2 JUMP JUMPDEST PUSH2 0x2B1 PUSH2 0x3C4 CALLDATASIZE PUSH1 0x4 PUSH2 0x1774 JUMP JUMPDEST PUSH1 0x74 PUSH1 0x20 SWAP1 DUP2 MSTORE PUSH1 0x0 SWAP3 DUP4 MSTORE PUSH1 0x40 DUP1 DUP5 KECCAK256 SWAP1 SWAP2 MSTORE SWAP1 DUP3 MSTORE SWAP1 KECCAK256 SLOAD DUP2 JUMP JUMPDEST PUSH1 0x33 SLOAD PUSH1 0x1 PUSH1 0x1 PUSH1 0xA0 SHL SUB AND PUSH2 0x213 JUMP JUMPDEST PUSH2 0x256 PUSH2 0x400 CALLDATASIZE PUSH1 0x4 PUSH2 0x17A7 JUMP JUMPDEST PUSH2 0xAE3 JUMP JUMPDEST PUSH2 0x256 PUSH2 0x413 CALLDATASIZE PUSH1 0x4 PUSH2 0x1759 JUMP JUMPDEST PUSH2 0xCE0 JUMP JUMPDEST PUSH2 0x256 PUSH2 0x426 CALLDATASIZE PUSH1 0x4 PUSH2 0x1759 JUMP JUMPDEST PUSH2 0xD2C JUMP JUMPDEST PUSH1 0x6B SLOAD PUSH2 0x213 SWAP1 PUSH1 0x1 PUSH1 0x1 PUSH1 0xA0 SHL SUB AND DUP2 JUMP JUMPDEST PUSH2 0x2B1 PUSH2 0x44C CALLDATASIZE PUSH1 0x4 PUSH2 0x1759 JUMP JUMPDEST PUSH1 0x73 PUSH1 0x20 MSTORE PUSH1 0x0 SWAP1 DUP2 MSTORE PUSH1 0x40 SWAP1 KECCAK256 SLOAD DUP2 JUMP JUMPDEST PUSH2 0x256 PUSH2 0x46C CALLDATASIZE PUSH1 0x4 PUSH2 0x1759 JUMP JUMPDEST PUSH2 0xD78 JUMP JUMPDEST PUSH1 0x6F SLOAD PUSH2 0x213 SWAP1 PUSH1 0x1 PUSH1 0x1 PUSH1 0xA0 SHL SUB AND DUP2 JUMP JUMPDEST PUSH2 0x256 PUSH2 0x492 CALLDATASIZE PUSH1 0x4 PUSH2 0x1759 JUMP JUMPDEST PUSH2 0xDC4 JUMP JUMPDEST PUSH1 0x69 SLOAD PUSH2 0x213 SWAP1 PUSH1 0x1 PUSH1 0x1 PUSH1 0xA0 SHL SUB AND DUP2 JUMP JUMPDEST PUSH2 0x256 PUSH2 0x4B8 CALLDATASIZE PUSH1 0x4 PUSH2 0x1759 JUMP JUMPDEST PUSH2 0xE10 JUMP JUMPDEST PUSH1 0x6E SLOAD PUSH2 0x213 SWAP1 PUSH1 0x1 PUSH1 0x1 PUSH1 0xA0 SHL SUB AND DUP2 JUMP JUMPDEST PUSH1 0x33 SLOAD PUSH1 0x1 PUSH1 0x1 PUSH1 0xA0 SHL SUB AND CALLER EQ PUSH2 0x503 JUMPI PUSH1 0x40 MLOAD PUSH3 0x461BCD PUSH1 0xE5 SHL DUP2 MSTORE PUSH1 0x4 ADD PUSH2 0x4FA SWAP1 PUSH2 0x1AF9 JUMP JUMPDEST PUSH1 0x40 MLOAD DUP1 SWAP2 SUB SWAP1 REVERT JUMPDEST PUSH1 0x67 DUP1 SLOAD PUSH1 0x1 PUSH1 0x1 PUSH1 0xA0 SHL SUB NOT AND PUSH1 0x1 PUSH1 0x1 PUSH1 0xA0 SHL SUB SWAP3 SWAP1 SWAP3 AND SWAP2 SWAP1 SWAP2 OR SWAP1 SSTORE JUMP JUMPDEST PUSH1 0x33 SLOAD PUSH1 0x1 PUSH1 0x1 PUSH1 0xA0 SHL SUB AND CALLER EQ PUSH2 0x54F JUMPI PUSH1 0x40 MLOAD PUSH3 0x461BCD PUSH1 0xE5 SHL DUP2 MSTORE PUSH1 0x4 ADD PUSH2 0x4FA SWAP1 PUSH2 0x1AF9 JUMP JUMPDEST PUSH1 0x6F DUP1 SLOAD PUSH1 0x1 PUSH1 0x1 PUSH1 0xA0 SHL SUB NOT AND PUSH1 0x1 PUSH1 0x1 PUSH1 0xA0 SHL SUB SWAP3 SWAP1 SWAP3 AND SWAP2 SWAP1 SWAP2 OR SWAP1 SSTORE JUMP JUMPDEST PUSH1 0x33 SLOAD PUSH1 0x1 PUSH1 0x1 PUSH1 0xA0 SHL SUB AND CALLER EQ PUSH2 0x59B JUMPI PUSH1 0x40 MLOAD PUSH3 0x461BCD PUSH1 0xE5 SHL DUP2 MSTORE PUSH1 0x4 ADD PUSH2 0x4FA SWAP1 PUSH2 0x1AF9 JUMP JUMPDEST PUSH1 0x69 DUP1 SLOAD PUSH1 0x1 PUSH1 0x1 PUSH1 0xA0 SHL SUB NOT AND PUSH1 0x1 PUSH1 0x1 PUSH1 0xA0 SHL SUB SWAP3 SWAP1 SWAP3 AND SWAP2 SWAP1 SWAP2 OR SWAP1 SSTORE JUMP JUMPDEST PUSH1 0x33 SLOAD PUSH1 0x1 PUSH1 0x1 PUSH1 0xA0 SHL SUB AND CALLER EQ PUSH2 0x5E7 JUMPI PUSH1 0x40 MLOAD PUSH3 0x461BCD PUSH1 0xE5 SHL DUP2 MSTORE PUSH1 0x4 ADD PUSH2 0x4FA SWAP1 PUSH2 0x1AF9 JUMP JUMPDEST PUSH1 0x65 DUP1 SLOAD PUSH1 0x1 PUSH1 0x1 PUSH1 0xA0 SHL SUB SWAP4 DUP5 AND PUSH1 0x1 PUSH1 0x1 PUSH1 0xA0 SHL SUB NOT SWAP2 DUP3 AND OR SWAP1 SWAP2 SSTORE PUSH1 0x66 DUP1 SLOAD SWAP3 SWAP1 SWAP4 AND SWAP2 AND OR SWAP1 SSTORE JUMP JUMPDEST PUSH1 0x0 DUP9 DUP9 PUSH1 0x40 MLOAD PUSH1 0x20 ADD PUSH2 0x62A SWAP3 SWAP2 SWAP1 PUSH2 0x1A06 JUMP JUMPDEST PUSH1 0x40 MLOAD PUSH1 0x20 DUP2 DUP4 SUB SUB DUP2 MSTORE SWAP1 PUSH1 0x40 MSTORE DUP1 MLOAD SWAP1 PUSH1 0x20 ADD KECCAK256 SWAP1 POP PUSH1 0x0 DUP8 PUSH1 0x40 MLOAD PUSH1 0x20 ADD PUSH2 0x655 SWAP2 SWAP1 PUSH2 0x19D0 JUMP JUMPDEST PUSH1 0x40 MLOAD PUSH1 0x20 DUP2 DUP4 SUB SUB DUP2 MSTORE SWAP1 PUSH1 0x40 MSTORE DUP1 MLOAD SWAP1 PUSH1 0x20 ADD KECCAK256 SWAP1 POP PUSH1 0x0 DUP7 CALLER PUSH1 0x40 MLOAD PUSH1 0x20 ADD PUSH2 0x69D SWAP3 SWAP2 SWAP1 SWAP2 DUP3 MSTORE PUSH1 0x60 SHL PUSH12 0xFFFFFFFFFFFFFFFFFFFFFFFF NOT AND PUSH1 0x20 DUP3 ADD MSTORE PUSH1 0x34 ADD SWAP1 JUMP JUMPDEST PUSH1 0x40 MLOAD PUSH1 0x20 DUP2 DUP4 SUB SUB DUP2 MSTORE SWAP1 PUSH1 0x40 MSTORE DUP1 MLOAD SWAP1 PUSH1 0x20 ADD KECCAK256 SWAP1 POP PUSH1 0x0 DUP9 PUSH1 0x40 MLOAD PUSH1 0x20 ADD PUSH2 0x6CF SWAP2 ISZERO ISZERO PUSH1 0xF8 SHL DUP2 MSTORE PUSH1 0x1 ADD SWAP1 JUMP JUMPDEST PUSH1 0x40 DUP1 MLOAD PUSH1 0x1F NOT DUP2 DUP5 SUB ADD DUP2 MSTORE DUP3 DUP3 MSTORE DUP1 MLOAD PUSH1 0x20 SWAP2 DUP3 ADD KECCAK256 SWAP1 DUP4 ADD DUP8 SWAP1 MSTORE SWAP1 DUP3 ADD DUP6 SWAP1 MSTORE PUSH1 0x60 DUP3 ADD DUP5 SWAP1 MSTORE PUSH1 0x80 DUP3 ADD DUP2 SWAP1 MSTORE SWAP2 POP PUSH1 0x0 SWAP1 PUSH1 0xA0 ADD PUSH1 0x40 DUP1 MLOAD PUSH1 0x1F NOT DUP2 DUP5 SUB ADD DUP2 MSTORE DUP3 DUP3 MSTORE DUP1 MLOAD PUSH1 0x20 SWAP2 DUP3 ADD KECCAK256 PUSH1 0x0 DUP1 DUP6 MSTORE SWAP2 DUP5 ADD DUP1 DUP5 MSTORE DUP2 SWAP1 MSTORE PUSH1 0xFF DUP11 AND SWAP3 DUP5 ADD SWAP3 SWAP1 SWAP3 MSTORE PUSH1 0x60 DUP4 ADD DUP12 SWAP1 MSTORE PUSH1 0x80 DUP4 ADD DUP11 SWAP1 MSTORE SWAP1 SWAP3 POP SWAP1 PUSH1 0x1 SWAP1 PUSH1 0xA0 ADD PUSH1 0x20 PUSH1 0x40 MLOAD PUSH1 0x20 DUP2 SUB SWAP1 DUP1 DUP5 SUB SWAP1 DUP6 GAS STATICCALL ISZERO DUP1 ISZERO PUSH2 0x774 JUMPI RETURNDATASIZE PUSH1 0x0 DUP1 RETURNDATACOPY RETURNDATASIZE PUSH1 0x0 REVERT JUMPDEST POP POP PUSH1 0x40 MLOAD PUSH1 0x1F NOT ADD MLOAD PUSH1 0x70 SLOAD SWAP1 SWAP3 POP PUSH1 0x1 PUSH1 0x1 PUSH1 0xA0 SHL SUB DUP1 DUP5 AND SWAP2 AND EQ SWAP1 POP PUSH2 0x7CD JUMPI PUSH1 0x40 MLOAD PUSH3 0x461BCD PUSH1 0xE5 SHL DUP2 MSTORE PUSH1 0x20 PUSH1 0x4 DUP3 ADD MSTORE PUSH1 0xA PUSH1 0x24 DUP3 ADD MSTORE PUSH10 0x3737BA103130B735B2B9 PUSH1 0xB1 SHL PUSH1 0x44 DUP3 ADD MSTORE PUSH1 0x64 ADD PUSH2 0x4FA JUMP JUMPDEST PUSH1 0x0 DUP11 DUP2 MSTORE PUSH1 0x71 PUSH1 0x20 MSTORE PUSH1 0x40 SWAP1 KECCAK256 SLOAD PUSH1 0x1 PUSH1 0x1 PUSH1 0xA0 SHL SUB AND ISZERO PUSH2 0x81C JUMPI PUSH1 0x40 MLOAD PUSH3 0x461BCD PUSH1 0xE5 SHL DUP2 MSTORE PUSH1 0x20 PUSH1 0x4 DUP3 ADD MSTORE PUSH1 0x7 PUSH1 0x24 DUP3 ADD MSTORE PUSH7 0x18DB185A5B5959 PUSH1 0xCA SHL PUSH1 0x44 DUP3 ADD MSTORE PUSH1 0x64 ADD PUSH2 0x4FA JUMP JUMPDEST DUP13 MLOAD DUP15 MLOAD EQ DUP1 ISZERO PUSH2 0x82E JUMPI POP DUP12 MLOAD DUP14 MLOAD EQ JUMPDEST PUSH2 0x869 JUMPI PUSH1 0x40 MLOAD PUSH3 0x461BCD PUSH1 0xE5 SHL DUP2 MSTORE PUSH1 0x20 PUSH1 0x4 DUP3 ADD MSTORE PUSH1 0xC PUSH1 0x24 DUP3 ADD MSTORE PUSH12 0xEEE4DEDCCE40D8CADCCEE8D PUSH1 0xA3 SHL PUSH1 0x44 DUP3 ADD MSTORE PUSH1 0x64 ADD PUSH2 0x4FA JUMP JUMPDEST PUSH1 0x0 JUMPDEST DUP15 MLOAD DUP2 LT ISZERO PUSH2 0x90E JUMPI DUP15 DUP2 DUP2 MLOAD DUP2 LT PUSH2 0x887 JUMPI PUSH2 0x887 PUSH2 0x1CC4 JUMP JUMPDEST PUSH1 0x20 MUL PUSH1 0x20 ADD ADD MLOAD PUSH1 0xFF AND PUSH1 0x0 EQ ISZERO PUSH2 0x89F JUMPI PUSH2 0x90E JUMP JUMPDEST PUSH2 0x8FC DUP16 DUP3 DUP2 MLOAD DUP2 LT PUSH2 0x8B4 JUMPI PUSH2 0x8B4 PUSH2 0x1CC4 JUMP JUMPDEST PUSH1 0x20 MUL PUSH1 0x20 ADD ADD MLOAD PUSH1 0xFF AND DUP16 DUP4 DUP2 MLOAD DUP2 LT PUSH2 0x8D1 JUMPI PUSH2 0x8D1 PUSH2 0x1CC4 JUMP JUMPDEST PUSH1 0x20 MUL PUSH1 0x20 ADD ADD MLOAD PUSH1 0xFF AND DUP16 DUP5 DUP2 MLOAD DUP2 LT PUSH2 0x8EE JUMPI PUSH2 0x8EE PUSH2 0x1CC4 JUMP JUMPDEST PUSH1 0x20 MUL PUSH1 0x20 ADD ADD MLOAD DUP16 PUSH2 0xEA8 JUMP JUMPDEST DUP1 PUSH2 0x906 DUP2 PUSH2 0x1C93 JUMP JUMPDEST SWAP2 POP POP PUSH2 0x86C JUMP JUMPDEST POP PUSH1 0x40 MLOAD DUP11 SWAP1 CALLER SWAP1 PUSH32 0xA24234AFDCA02A8D3145889376ED6307832A41930DF54311C44ECD3D72769C10 SWAP1 PUSH1 0x0 SWAP1 LOG3 POP POP POP POP POP POP POP POP POP POP POP POP POP POP JUMP JUMPDEST PUSH1 0x33 SLOAD PUSH1 0x1 PUSH1 0x1 PUSH1 0xA0 SHL SUB AND CALLER EQ PUSH2 0x976 JUMPI PUSH1 0x40 MLOAD PUSH3 0x461BCD PUSH1 0xE5 SHL DUP2 MSTORE PUSH1 0x4 ADD PUSH2 0x4FA SWAP1 PUSH2 0x1AF9 JUMP JUMPDEST PUSH1 0x6E DUP1 SLOAD PUSH1 0x1 PUSH1 0x1 PUSH1 0xA0 SHL SUB NOT AND PUSH1 0x1 PUSH1 0x1 PUSH1 0xA0 SHL SUB SWAP3 SWAP1 SWAP3 AND SWAP2 SWAP1 SWAP2 OR SWAP1 SSTORE JUMP JUMPDEST PUSH1 0x33 SLOAD PUSH1 0x1 PUSH1 0x1 PUSH1 0xA0 SHL SUB AND CALLER EQ PUSH2 0x9C2 JUMPI PUSH1 0x40 MLOAD PUSH3 0x461BCD PUSH1 0xE5 SHL DUP2 MSTORE PUSH1 0x4 ADD PUSH2 0x4FA SWAP1 PUSH2 0x1AF9 JUMP JUMPDEST PUSH1 0x6D DUP1 SLOAD PUSH1 0x1 PUSH1 0x1 PUSH1 0xA0 SHL SUB NOT AND PUSH1 0x1 PUSH1 0x1 PUSH1 0xA0 SHL SUB SWAP3 SWAP1 SWAP3 AND SWAP2 SWAP1 SWAP2 OR SWAP1 SSTORE JUMP JUMPDEST PUSH1 0x33 SLOAD PUSH1 0x1 PUSH1 0x1 PUSH1 0xA0 SHL SUB AND CALLER EQ PUSH2 0xA0E JUMPI PUSH1 0x40 MLOAD PUSH3 0x461BCD PUSH1 0xE5 SHL DUP2 MSTORE PUSH1 0x4 ADD PUSH2 0x4FA SWAP1 PUSH2 0x1AF9 JUMP JUMPDEST PUSH1 0x6C DUP1 SLOAD PUSH1 0x1 PUSH1 0x1 PUSH1 0xA0 SHL SUB NOT AND PUSH1 0x1 PUSH1 0x1 PUSH1 0xA0 SHL SUB SWAP3 SWAP1 SWAP3 AND SWAP2 SWAP1 SWAP2 OR SWAP1 SSTORE JUMP JUMPDEST PUSH1 0x33 SLOAD PUSH1 0x1 PUSH1 0x1 PUSH1 0xA0 SHL SUB AND CALLER EQ PUSH2 0xA5A JUMPI PUSH1 0x40 MLOAD PUSH3 0x461BCD PUSH1 0xE5 SHL DUP2 MSTORE PUSH1 0x4 ADD PUSH2 0x4FA SWAP1 PUSH2 0x1AF9 JUMP JUMPDEST PUSH2 0xA64 PUSH1 0x0 PUSH2 0x124D JUMP JUMPDEST JUMP JUMPDEST PUSH1 0x0 PUSH2 0xA72 PUSH1 0x1 PUSH2 0x129F JUMP JUMPDEST SWAP1 POP DUP1 ISZERO PUSH2 0xA8A JUMPI PUSH1 0x0 DUP1 SLOAD PUSH2 0xFF00 NOT AND PUSH2 0x100 OR SWAP1 SSTORE JUMPDEST PUSH2 0xA92 PUSH2 0x132C JUMP JUMPDEST PUSH2 0xA9A PUSH2 0x1353 JUMP JUMPDEST DUP1 ISZERO PUSH2 0xAE0 JUMPI PUSH1 0x0 DUP1 SLOAD PUSH2 0xFF00 NOT AND SWAP1 SSTORE PUSH1 0x40 MLOAD PUSH1 0x1 DUP2 MSTORE PUSH32 0x7F26B83FF96E1F2B6A682F133852F6798A09C465DA95921460CEFB3847402498 SWAP1 PUSH1 0x20 ADD PUSH1 0x40 MLOAD DUP1 SWAP2 SUB SWAP1 LOG1 JUMPDEST POP JUMP JUMPDEST PUSH1 0x0 DUP6 DUP6 PUSH1 0x40 MLOAD PUSH1 0x20 ADD PUSH2 0xAF8 SWAP3 SWAP2 SWAP1 PUSH2 0x198E JUMP JUMPDEST PUSH1 0x40 DUP1 MLOAD PUSH1 0x1F NOT DUP2 DUP5 SUB ADD DUP2 MSTORE DUP3 DUP3 MSTORE DUP1 MLOAD PUSH1 0x20 SWAP2 DUP3 ADD KECCAK256 PUSH1 0x0 DUP1 DUP6 MSTORE SWAP2 DUP5 ADD DUP1 DUP5 MSTORE DUP2 SWAP1 MSTORE PUSH1 0xFF DUP7 AND SWAP3 DUP5 ADD SWAP3 SWAP1 SWAP3 MSTORE PUSH1 0x60 DUP4 ADD DUP8 SWAP1 MSTORE PUSH1 0x80 DUP4 ADD DUP7 SWAP1 MSTORE SWAP1 SWAP3 POP SWAP1 PUSH1 0x1 SWAP1 PUSH1 0xA0 ADD PUSH1 0x20 PUSH1 0x40 MLOAD PUSH1 0x20 DUP2 SUB SWAP1 DUP1 DUP5 SUB SWAP1 DUP6 GAS STATICCALL ISZERO DUP1 ISZERO PUSH2 0xB63 JUMPI RETURNDATASIZE PUSH1 0x0 DUP1 RETURNDATACOPY RETURNDATASIZE PUSH1 0x0 REVERT JUMPDEST POP POP PUSH1 0x40 MLOAD PUSH1 0x1F NOT ADD MLOAD PUSH1 0x70 SLOAD SWAP1 SWAP3 POP PUSH1 0x1 PUSH1 0x1 PUSH1 0xA0 SHL SUB DUP1 DUP5 AND SWAP2 AND EQ SWAP1 POP PUSH2 0xBBC JUMPI PUSH1 0x40 MLOAD PUSH3 0x461BCD PUSH1 0xE5 SHL DUP2 MSTORE PUSH1 0x20 PUSH1 0x4 DUP3 ADD MSTORE PUSH1 0xA PUSH1 0x24 DUP3 ADD MSTORE PUSH10 0x3737BA103130B735B2B9 PUSH1 0xB1 SHL PUSH1 0x44 DUP3 ADD MSTORE PUSH1 0x64 ADD PUSH2 0x4FA JUMP JUMPDEST DUP7 MLOAD PUSH1 0x20 DUP9 ADD MLOAD PUSH1 0x1 PUSH1 0x1 PUSH1 0xA0 SHL SUB SWAP1 DUP2 AND SWAP2 AND EQ ISZERO PUSH2 0xC0E JUMPI PUSH1 0x40 MLOAD PUSH3 0x461BCD PUSH1 0xE5 SHL DUP2 MSTORE PUSH1 0x20 PUSH1 0x4 DUP3 ADD MSTORE PUSH1 0xD PUSH1 0x24 DUP3 ADD MSTORE PUSH13 0x77726F6E672061646472657373 PUSH1 0x98 SHL PUSH1 0x44 DUP3 ADD MSTORE PUSH1 0x64 ADD PUSH2 0x4FA JUMP JUMPDEST PUSH1 0x0 DUP7 GT DUP1 ISZERO PUSH2 0xC1F JUMPI POP PUSH1 0x5 DUP7 GT ISZERO JUMPDEST PUSH2 0xC58 JUMPI PUSH1 0x40 MLOAD PUSH3 0x461BCD PUSH1 0xE5 SHL DUP2 MSTORE PUSH1 0x20 PUSH1 0x4 DUP3 ADD MSTORE PUSH1 0xA PUSH1 0x24 DUP3 ADD MSTORE PUSH10 0x77726F6E672074797065 PUSH1 0xB0 SHL PUSH1 0x44 DUP3 ADD MSTORE PUSH1 0x64 ADD PUSH2 0x4FA JUMP JUMPDEST DUP7 MLOAD PUSH1 0x1 PUSH1 0x1 PUSH1 0xA0 SHL SUB SWAP1 DUP2 AND PUSH1 0x0 SWAP1 DUP2 MSTORE PUSH1 0x74 PUSH1 0x20 DUP2 DUP2 MSTORE PUSH1 0x40 DUP1 DUP5 KECCAK256 DUP3 DUP14 ADD DUP1 MLOAD DUP8 AND DUP7 MSTORE SWAP1 DUP4 MSTORE DUP2 DUP6 KECCAK256 DUP13 SWAP1 SSTORE DUP1 MLOAD DUP7 AND DUP6 MSTORE SWAP3 DUP3 MSTORE DUP1 DUP5 KECCAK256 DUP13 MLOAD DUP7 AND DUP6 MSTORE SWAP1 SWAP2 MSTORE DUP1 DUP4 KECCAK256 DUP11 SWAP1 SSTORE SWAP1 MLOAD DUP11 MLOAD SWAP2 MLOAD DUP11 SWAP5 SWAP2 DUP3 AND SWAP4 SWAP3 SWAP1 SWAP2 AND SWAP2 PUSH32 0x22698539B7560D5B21D018F58A2471E2B0223FD2AAB30B1C1BBEFC70F24FC9DC SWAP2 LOG4 POP POP POP POP POP POP POP JUMP JUMPDEST PUSH1 0x33 SLOAD PUSH1 0x1 PUSH1 0x1 PUSH1 0xA0 SHL SUB AND CALLER EQ PUSH2 0xD0A JUMPI PUSH1 0x40 MLOAD PUSH3 0x461BCD PUSH1 0xE5 SHL DUP2 MSTORE PUSH1 0x4 ADD PUSH2 0x4FA SWAP1 PUSH2 0x1AF9 JUMP JUMPDEST PUSH1 0x6B DUP1 SLOAD PUSH1 0x1 PUSH1 0x1 PUSH1 0xA0 SHL SUB NOT AND PUSH1 0x1 PUSH1 0x1 PUSH1 0xA0 SHL SUB SWAP3 SWAP1 SWAP3 AND SWAP2 SWAP1 SWAP2 OR SWAP1 SSTORE JUMP JUMPDEST PUSH1 0x33 SLOAD PUSH1 0x1 PUSH1 0x1 PUSH1 0xA0 SHL SUB AND CALLER EQ PUSH2 0xD56 JUMPI PUSH1 0x40 MLOAD PUSH3 0x461BCD PUSH1 0xE5 SHL DUP2 MSTORE PUSH1 0x4 ADD PUSH2 0x4FA SWAP1 PUSH2 0x1AF9 JUMP JUMPDEST PUSH1 0x68 DUP1 SLOAD PUSH1 0x1 PUSH1 0x1 PUSH1 0xA0 SHL SUB NOT AND PUSH1 0x1 PUSH1 0x1 PUSH1 0xA0 SHL SUB SWAP3 SWAP1 SWAP3 AND SWAP2 SWAP1 SWAP2 OR SWAP1 SSTORE JUMP JUMPDEST PUSH1 0x33 SLOAD PUSH1 0x1 PUSH1 0x1 PUSH1 0xA0 SHL SUB AND CALLER EQ PUSH2 0xDA2 JUMPI PUSH1 0x40 MLOAD PUSH3 0x461BCD PUSH1 0xE5 SHL DUP2 MSTORE PUSH1 0x4 ADD PUSH2 0x4FA SWAP1 PUSH2 0x1AF9 JUMP JUMPDEST PUSH1 0x6A DUP1 SLOAD PUSH1 0x1 PUSH1 0x1 PUSH1 0xA0 SHL SUB NOT AND PUSH1 0x1 PUSH1 0x1 PUSH1 0xA0 SHL SUB SWAP3 SWAP1 SWAP3 AND SWAP2 SWAP1 SWAP2 OR SWAP1 SSTORE JUMP JUMPDEST PUSH1 0x33 SLOAD PUSH1 0x1 PUSH1 0x1 PUSH1 0xA0 SHL SUB AND CALLER EQ PUSH2 0xDEE JUMPI PUSH1 0x40 MLOAD PUSH3 0x461BCD PUSH1 0xE5 SHL DUP2 MSTORE PUSH1 0x4 ADD PUSH2 0x4FA SWAP1 PUSH2 0x1AF9 JUMP JUMPDEST PUSH1 0x70 DUP1 SLOAD PUSH1 0x1 PUSH1 0x1 PUSH1 0xA0 SHL SUB NOT AND PUSH1 0x1 PUSH1 0x1 PUSH1 0xA0 SHL SUB SWAP3 SWAP1 SWAP3 AND SWAP2 SWAP1 SWAP2 OR SWAP1 SSTORE JUMP JUMPDEST PUSH1 0x33 SLOAD PUSH1 0x1 PUSH1 0x1 PUSH1 0xA0 SHL SUB AND CALLER EQ PUSH2 0xE3A JUMPI PUSH1 0x40 MLOAD PUSH3 0x461BCD PUSH1 0xE5 SHL DUP2 MSTORE PUSH1 0x4 ADD PUSH2 0x4FA SWAP1 PUSH2 0x1AF9 JUMP JUMPDEST PUSH1 0x1 PUSH1 0x1 PUSH1 0xA0 SHL SUB DUP2 AND PUSH2 0xE9F JUMPI PUSH1 0x40 MLOAD PUSH3 0x461BCD PUSH1 0xE5 SHL DUP2 MSTORE PUSH1 0x20 PUSH1 0x4 DUP3 ADD MSTORE PUSH1 0x26 PUSH1 0x24 DUP3 ADD MSTORE PUSH32 0x4F776E61626C653A206E6577206F776E657220697320746865207A65726F2061 PUSH1 0x44 DUP3 ADD MSTORE PUSH6 0x646472657373 PUSH1 0xD0 SHL PUSH1 0x64 DUP3 ADD MSTORE PUSH1 0x84 ADD PUSH2 0x4FA JUMP JUMPDEST PUSH2 0xAE0 DUP2 PUSH2 0x124D JUMP JUMPDEST DUP4 PUSH1 0x1 EQ ISZERO PUSH2 0xF4D JUMPI DUP3 PUSH1 0x1 EQ ISZERO PUSH2 0xF1D JUMPI PUSH1 0x67 SLOAD PUSH1 0x40 MLOAD PUSH4 0x35313C21 PUSH1 0xE1 SHL DUP2 MSTORE CALLER PUSH1 0x4 DUP3 ADD MSTORE PUSH1 0x1 PUSH1 0x1 PUSH1 0xA0 SHL SUB SWAP1 SWAP2 AND SWAP1 PUSH4 0x6A627842 SWAP1 PUSH1 0x24 ADD JUMPDEST PUSH1 0x0 PUSH1 0x40 MLOAD DUP1 DUP4 SUB DUP2 PUSH1 0x0 DUP8 DUP1 EXTCODESIZE ISZERO DUP1 ISZERO PUSH2 0xF00 JUMPI PUSH1 0x0 DUP1 REVERT JUMPDEST POP GAS CALL ISZERO DUP1 ISZERO PUSH2 0xF14 JUMPI RETURNDATASIZE PUSH1 0x0 DUP1 RETURNDATACOPY RETURNDATASIZE PUSH1 0x0 REVERT JUMPDEST POP POP POP POP PUSH2 0x1247 JUMP JUMPDEST PUSH1 0x67 SLOAD PUSH1 0x40 MLOAD PUSH4 0x2ECEE5D PUSH1 0xE6 SHL DUP2 MSTORE CALLER PUSH1 0x4 DUP3 ADD MSTORE PUSH1 0x1 PUSH1 0x1 PUSH1 0xA0 SHL SUB SWAP1 SWAP2 AND SWAP1 PUSH4 0xBB3B9740 SWAP1 PUSH1 0x24 ADD PUSH2 0xEE6 JUMP JUMPDEST DUP4 PUSH1 0x2 EQ ISZERO PUSH2 0xFE7 JUMPI PUSH1 0x69 SLOAD PUSH1 0x40 MLOAD PUSH4 0xAB714FB PUSH1 0xE1 SHL DUP2 MSTORE CALLER PUSH1 0x4 DUP3 ADD MSTORE PUSH1 0x24 DUP2 ADD DUP6 SWAP1 MSTORE PUSH1 0x44 DUP2 ADD DUP5 SWAP1 MSTORE PUSH1 0x1 PUSH1 0x1 PUSH1 0xA0 SHL SUB SWAP1 SWAP2 AND SWAP1 PUSH4 0x156E29F6 SWAP1 PUSH1 0x64 ADD PUSH1 0x20 PUSH1 0x40 MLOAD DUP1 DUP4 SUB DUP2 PUSH1 0x0 DUP8 DUP1 EXTCODESIZE ISZERO DUP1 ISZERO PUSH2 0xFA9 JUMPI PUSH1 0x0 DUP1 REVERT JUMPDEST POP GAS CALL ISZERO DUP1 ISZERO PUSH2 0xFBD JUMPI RETURNDATASIZE PUSH1 0x0 DUP1 RETURNDATACOPY RETURNDATASIZE PUSH1 0x0 REVERT JUMPDEST POP POP POP POP PUSH1 0x40 MLOAD RETURNDATASIZE PUSH1 0x1F NOT PUSH1 0x1F DUP3 ADD AND DUP3 ADD DUP1 PUSH1 0x40 MSTORE POP DUP2 ADD SWAP1 PUSH2 0xFE1 SWAP2 SWAP1 PUSH2 0x1909 JUMP JUMPDEST POP PUSH2 0x1247 JUMP JUMPDEST DUP4 PUSH1 0x3 EQ ISZERO PUSH2 0xFF5 JUMPI PUSH2 0x1247 JUMP JUMPDEST DUP4 PUSH1 0x4 EQ ISZERO PUSH2 0x1070 JUMPI PUSH2 0x1006 PUSH2 0x162F JUMP JUMPDEST PUSH1 0x6D SLOAD PUSH1 0x40 MLOAD PUSH4 0x259C037F PUSH1 0xE1 SHL DUP2 MSTORE PUSH1 0x1 PUSH1 0x1 PUSH1 0xA0 SHL SUB SWAP1 SWAP2 AND SWAP1 PUSH4 0x4B3806FE SWAP1 PUSH2 0x1038 SWAP1 CALLER SWAP1 DUP6 SWAP1 PUSH1 0x4 ADD PUSH2 0x1A37 JUMP JUMPDEST PUSH1 0x0 PUSH1 0x40 MLOAD DUP1 DUP4 SUB DUP2 PUSH1 0x0 DUP8 DUP1 EXTCODESIZE ISZERO DUP1 ISZERO PUSH2 0x1052 JUMPI PUSH1 0x0 DUP1 REVERT JUMPDEST POP GAS CALL ISZERO DUP1 ISZERO PUSH2 0x1066 JUMPI RETURNDATASIZE PUSH1 0x0 DUP1 RETURNDATACOPY RETURNDATASIZE PUSH1 0x0 REVERT JUMPDEST POP POP POP POP POP PUSH2 0x1247 JUMP JUMPDEST DUP4 PUSH1 0x5 EQ ISZERO PUSH2 0x1202 JUMPI DUP1 ISZERO PUSH2 0x11E6 JUMPI PUSH1 0x68 SLOAD PUSH1 0x40 MLOAD PUSH4 0xE86FC831 PUSH1 0xE0 SHL DUP2 MSTORE CALLER PUSH1 0x4 DUP3 ADD MSTORE PUSH1 0x0 SWAP2 PUSH1 0x1 PUSH1 0x1 PUSH1 0xA0 SHL SUB AND SWAP1 PUSH4 0xE86FC831 SWAP1 PUSH1 0x24 ADD PUSH1 0x20 PUSH1 0x40 MLOAD DUP1 DUP4 SUB DUP2 DUP7 DUP1 EXTCODESIZE ISZERO DUP1 ISZERO PUSH2 0x10C3 JUMPI PUSH1 0x0 DUP1 REVERT JUMPDEST POP GAS STATICCALL ISZERO DUP1 ISZERO PUSH2 0x10D7 JUMPI RETURNDATASIZE PUSH1 0x0 DUP1 RETURNDATACOPY RETURNDATASIZE PUSH1 0x0 REVERT JUMPDEST POP POP POP POP PUSH1 0x40 MLOAD RETURNDATASIZE PUSH1 0x1F NOT PUSH1 0x1F DUP3 ADD AND DUP3 ADD DUP1 PUSH1 0x40 MSTORE POP DUP2 ADD SWAP1 PUSH2 0x10FB SWAP2 SWAP1 PUSH2 0x193F JUMP JUMPDEST SWAP1 POP PUSH1 0x0 PUSH1 0x64 PUSH2 0x110B DUP4 DUP7 PUSH2 0x1C31 JUMP JUMPDEST PUSH2 0x1115 SWAP2 SWAP1 PUSH2 0x1C0F JUMP JUMPDEST PUSH1 0x68 SLOAD PUSH1 0x40 MLOAD PUSH4 0x832403F3 PUSH1 0xE0 SHL DUP2 MSTORE CALLER PUSH1 0x4 DUP3 ADD MSTORE PUSH1 0x24 DUP2 ADD DUP4 SWAP1 MSTORE SWAP2 SWAP3 POP PUSH1 0x1 PUSH1 0x1 PUSH1 0xA0 SHL SUB AND SWAP1 PUSH4 0x832403F3 SWAP1 PUSH1 0x44 ADD PUSH1 0x0 PUSH1 0x40 MLOAD DUP1 DUP4 SUB DUP2 PUSH1 0x0 DUP8 DUP1 EXTCODESIZE ISZERO DUP1 ISZERO PUSH2 0x1162 JUMPI PUSH1 0x0 DUP1 REVERT JUMPDEST POP GAS CALL ISZERO DUP1 ISZERO PUSH2 0x1176 JUMPI RETURNDATASIZE PUSH1 0x0 DUP1 RETURNDATACOPY RETURNDATASIZE PUSH1 0x0 REVERT JUMPDEST POP POP POP POP PUSH2 0x119D CALLER DUP3 DUP7 PUSH2 0x118A SWAP2 SWAP1 PUSH2 0x1C50 JUMP JUMPDEST PUSH1 0x65 SLOAD PUSH1 0x1 PUSH1 0x1 PUSH1 0xA0 SHL SUB AND SWAP2 SWAP1 PUSH2 0x1383 JUMP JUMPDEST PUSH1 0x68 SLOAD PUSH1 0x65 SLOAD PUSH2 0x11BA SWAP2 PUSH1 0x1 PUSH1 0x1 PUSH1 0xA0 SHL SUB SWAP2 DUP3 AND SWAP2 AND DUP4 PUSH2 0x1383 JUMP JUMPDEST CALLER PUSH1 0x0 SWAP1 DUP2 MSTORE PUSH1 0x73 PUSH1 0x20 MSTORE PUSH1 0x40 DUP2 KECCAK256 DUP1 SLOAD DUP7 SWAP3 SWAP1 PUSH2 0x11D9 SWAP1 DUP5 SWAP1 PUSH2 0x1BF7 JUMP JUMPDEST SWAP1 SWAP2 SSTORE POP PUSH2 0x1247 SWAP3 POP POP POP JUMP JUMPDEST PUSH1 0x65 SLOAD PUSH2 0x11FD SWAP1 PUSH1 0x1 PUSH1 0x1 PUSH1 0xA0 SHL SUB AND CALLER DUP5 PUSH2 0x1383 JUMP JUMPDEST PUSH2 0x1247 JUMP JUMPDEST DUP4 PUSH1 0x6 EQ ISZERO PUSH2 0x1247 JUMPI PUSH1 0x66 SLOAD PUSH2 0x1222 SWAP1 PUSH1 0x1 PUSH1 0x1 PUSH1 0xA0 SHL SUB AND CALLER DUP5 PUSH2 0x1383 JUMP JUMPDEST CALLER PUSH1 0x0 SWAP1 DUP2 MSTORE PUSH1 0x72 PUSH1 0x20 MSTORE PUSH1 0x40 DUP2 KECCAK256 DUP1 SLOAD DUP5 SWAP3 SWAP1 PUSH2 0x1241 SWAP1 DUP5 SWAP1 PUSH2 0x1BF7 JUMP JUMPDEST SWAP1 SWAP2 SSTORE POP POP JUMPDEST POP POP POP POP JUMP JUMPDEST PUSH1 0x33 DUP1 SLOAD PUSH1 0x1 PUSH1 0x1 PUSH1 0xA0 SHL SUB DUP4 DUP2 AND PUSH1 0x1 PUSH1 0x1 PUSH1 0xA0 SHL SUB NOT DUP4 AND DUP2 OR SWAP1 SWAP4 SSTORE PUSH1 0x40 MLOAD SWAP2 AND SWAP2 SWAP1 DUP3 SWAP1 PUSH32 0x8BE0079C531659141344CD1FD0A4F28419497F9722A3DAAFE3B4186F6B6457E0 SWAP1 PUSH1 0x0 SWAP1 LOG3 POP POP JUMP JUMPDEST PUSH1 0x0 DUP1 SLOAD PUSH2 0x100 SWAP1 DIV PUSH1 0xFF AND ISZERO PUSH2 0x12E6 JUMPI DUP2 PUSH1 0xFF AND PUSH1 0x1 EQ DUP1 ISZERO PUSH2 0x12C2 JUMPI POP ADDRESS EXTCODESIZE ISZERO JUMPDEST PUSH2 0x12DE JUMPI PUSH1 0x40 MLOAD PUSH3 0x461BCD PUSH1 0xE5 SHL DUP2 MSTORE PUSH1 0x4 ADD PUSH2 0x4FA SWAP1 PUSH2 0x1AAB JUMP JUMPDEST POP PUSH1 0x0 SWAP2 SWAP1 POP JUMP JUMPDEST PUSH1 0x0 SLOAD PUSH1 0xFF DUP1 DUP5 AND SWAP2 AND LT PUSH2 0x130D JUMPI PUSH1 0x40 MLOAD PUSH3 0x461BCD PUSH1 0xE5 SHL DUP2 MSTORE PUSH1 0x4 ADD PUSH2 0x4FA SWAP1 PUSH2 0x1AAB JUMP JUMPDEST POP PUSH1 0x0 DUP1 SLOAD PUSH1 0xFF NOT AND PUSH1 0xFF SWAP3 SWAP1 SWAP3 AND SWAP2 SWAP1 SWAP2 OR SWAP1 SSTORE PUSH1 0x1 SWAP1 JUMP JUMPDEST SWAP2 SWAP1 POP JUMP JUMPDEST PUSH1 0x0 SLOAD PUSH2 0x100 SWAP1 DIV PUSH1 0xFF AND PUSH2 0xA64 JUMPI PUSH1 0x40 MLOAD PUSH3 0x461BCD PUSH1 0xE5 SHL DUP2 MSTORE PUSH1 0x4 ADD PUSH2 0x4FA SWAP1 PUSH2 0x1B2E JUMP JUMPDEST PUSH1 0x0 SLOAD PUSH2 0x100 SWAP1 DIV PUSH1 0xFF AND PUSH2 0x137A JUMPI PUSH1 0x40 MLOAD PUSH3 0x461BCD PUSH1 0xE5 SHL DUP2 MSTORE PUSH1 0x4 ADD PUSH2 0x4FA SWAP1 PUSH2 0x1B2E JUMP JUMPDEST PUSH2 0xA64 CALLER PUSH2 0x124D JUMP JUMPDEST PUSH1 0x40 DUP1 MLOAD PUSH1 0x1 PUSH1 0x1 PUSH1 0xA0 SHL SUB DUP5 AND PUSH1 0x24 DUP3 ADD MSTORE PUSH1 0x44 DUP1 DUP3 ADD DUP5 SWAP1 MSTORE DUP3 MLOAD DUP1 DUP4 SUB SWAP1 SWAP2 ADD DUP2 MSTORE PUSH1 0x64 SWAP1 SWAP2 ADD SWAP1 SWAP2 MSTORE PUSH1 0x20 DUP2 ADD DUP1 MLOAD PUSH1 0x1 PUSH1 0x1 PUSH1 0xE0 SHL SUB AND PUSH4 0xA9059CBB PUSH1 0xE0 SHL OR SWAP1 MSTORE PUSH2 0x13D5 SWAP1 DUP5 SWAP1 PUSH2 0x13DA JUMP JUMPDEST POP POP POP JUMP JUMPDEST PUSH1 0x0 PUSH2 0x142F DUP3 PUSH1 0x40 MLOAD DUP1 PUSH1 0x40 ADD PUSH1 0x40 MSTORE DUP1 PUSH1 0x20 DUP2 MSTORE PUSH1 0x20 ADD PUSH32 0x5361666545524332303A206C6F772D6C6576656C2063616C6C206661696C6564 DUP2 MSTORE POP DUP6 PUSH1 0x1 PUSH1 0x1 PUSH1 0xA0 SHL SUB AND PUSH2 0x14AC SWAP1 SWAP3 SWAP2 SWAP1 PUSH4 0xFFFFFFFF AND JUMP JUMPDEST DUP1 MLOAD SWAP1 SWAP2 POP ISZERO PUSH2 0x13D5 JUMPI DUP1 DUP1 PUSH1 0x20 ADD SWAP1 MLOAD DUP2 ADD SWAP1 PUSH2 0x144D SWAP2 SWAP1 PUSH2 0x1909 JUMP JUMPDEST PUSH2 0x13D5 JUMPI PUSH1 0x40 MLOAD PUSH3 0x461BCD PUSH1 0xE5 SHL DUP2 MSTORE PUSH1 0x20 PUSH1 0x4 DUP3 ADD MSTORE PUSH1 0x2A PUSH1 0x24 DUP3 ADD MSTORE PUSH32 0x5361666545524332303A204552433230206F7065726174696F6E20646964206E PUSH1 0x44 DUP3 ADD MSTORE PUSH10 0x1BDD081CDD58D8D95959 PUSH1 0xB2 SHL PUSH1 0x64 DUP3 ADD MSTORE PUSH1 0x84 ADD PUSH2 0x4FA JUMP JUMPDEST PUSH1 0x60 PUSH2 0x14BB DUP5 DUP5 PUSH1 0x0 DUP6 PUSH2 0x14C5 JUMP JUMPDEST SWAP1 POP JUMPDEST SWAP4 SWAP3 POP POP POP JUMP JUMPDEST PUSH1 0x60 DUP3 SELFBALANCE LT ISZERO PUSH2 0x1526 JUMPI PUSH1 0x40 MLOAD PUSH3 0x461BCD PUSH1 0xE5 SHL DUP2 MSTORE PUSH1 0x20 PUSH1 0x4 DUP3 ADD MSTORE PUSH1 0x26 PUSH1 0x24 DUP3 ADD MSTORE PUSH32 0x416464726573733A20696E73756666696369656E742062616C616E636520666F PUSH1 0x44 DUP3 ADD MSTORE PUSH6 0x1C8818D85B1B PUSH1 0xD2 SHL PUSH1 0x64 DUP3 ADD MSTORE PUSH1 0x84 ADD PUSH2 0x4FA JUMP JUMPDEST PUSH1 0x1 PUSH1 0x1 PUSH1 0xA0 SHL SUB DUP6 AND EXTCODESIZE PUSH2 0x157D JUMPI PUSH1 0x40 MLOAD PUSH3 0x461BCD PUSH1 0xE5 SHL DUP2 MSTORE PUSH1 0x20 PUSH1 0x4 DUP3 ADD MSTORE PUSH1 0x1D PUSH1 0x24 DUP3 ADD MSTORE PUSH32 0x416464726573733A2063616C6C20746F206E6F6E2D636F6E7472616374000000 PUSH1 0x44 DUP3 ADD MSTORE PUSH1 0x64 ADD PUSH2 0x4FA JUMP JUMPDEST PUSH1 0x0 DUP1 DUP7 PUSH1 0x1 PUSH1 0x1 PUSH1 0xA0 SHL SUB AND DUP6 DUP8 PUSH1 0x40 MLOAD PUSH2 0x1599 SWAP2 SWAP1 PUSH2 0x1A1B JUMP JUMPDEST PUSH1 0x0 PUSH1 0x40 MLOAD DUP1 DUP4 SUB DUP2 DUP6 DUP8 GAS CALL SWAP3 POP POP POP RETURNDATASIZE DUP1 PUSH1 0x0 DUP2 EQ PUSH2 0x15D6 JUMPI PUSH1 0x40 MLOAD SWAP2 POP PUSH1 0x1F NOT PUSH1 0x3F RETURNDATASIZE ADD AND DUP3 ADD PUSH1 0x40 MSTORE RETURNDATASIZE DUP3 MSTORE RETURNDATASIZE PUSH1 0x0 PUSH1 0x20 DUP5 ADD RETURNDATACOPY PUSH2 0x15DB JUMP JUMPDEST PUSH1 0x60 SWAP2 POP JUMPDEST POP SWAP2 POP SWAP2 POP PUSH2 0x15EB DUP3 DUP3 DUP7 PUSH2 0x15F6 JUMP JUMPDEST SWAP8 SWAP7 POP POP POP POP POP POP POP JUMP JUMPDEST PUSH1 0x60 DUP4 ISZERO PUSH2 0x1605 JUMPI POP DUP2 PUSH2 0x14BE JUMP JUMPDEST DUP3 MLOAD ISZERO PUSH2 0x1615 JUMPI DUP3 MLOAD DUP1 DUP5 PUSH1 0x20 ADD REVERT JUMPDEST DUP2 PUSH1 0x40 MLOAD PUSH3 0x461BCD PUSH1 0xE5 SHL DUP2 MSTORE PUSH1 0x4 ADD PUSH2 0x4FA SWAP2 SWAP1 PUSH2 0x1A78 JUMP JUMPDEST PUSH1 0x40 MLOAD DUP1 PUSH1 0x40 ADD PUSH1 0x40 MSTORE DUP1 PUSH1 0x2 SWAP1 PUSH1 0x20 DUP3 MUL DUP1 CALLDATASIZE DUP4 CALLDATACOPY POP SWAP2 SWAP3 SWAP2 POP POP JUMP JUMPDEST DUP1 CALLDATALOAD PUSH1 0x1 PUSH1 0x1 PUSH1 0xA0 SHL SUB DUP2 AND DUP2 EQ PUSH2 0x1327 JUMPI PUSH1 0x0 DUP1 REVERT JUMPDEST PUSH1 0x0 DUP3 PUSH1 0x1F DUP4 ADD SLT PUSH2 0x1675 JUMPI PUSH1 0x0 DUP1 REVERT JUMPDEST DUP2 CALLDATALOAD PUSH1 0x20 PUSH2 0x168A PUSH2 0x1685 DUP4 PUSH2 0x1BD3 JUMP JUMPDEST PUSH2 0x1BA2 JUMP JUMPDEST DUP1 DUP4 DUP3 MSTORE DUP3 DUP3 ADD SWAP2 POP DUP3 DUP7 ADD DUP8 DUP5 DUP7 PUSH1 0x5 SHL DUP10 ADD ADD GT ISZERO PUSH2 0x16AA JUMPI PUSH1 0x0 DUP1 REVERT JUMPDEST PUSH1 0x0 JUMPDEST DUP6 DUP2 LT ISZERO PUSH2 0x16C9 JUMPI DUP2 CALLDATALOAD DUP5 MSTORE SWAP3 DUP5 ADD SWAP3 SWAP1 DUP5 ADD SWAP1 PUSH1 0x1 ADD PUSH2 0x16AD JUMP JUMPDEST POP SWAP1 SWAP8 SWAP7 POP POP POP POP POP POP POP JUMP JUMPDEST PUSH1 0x0 DUP3 PUSH1 0x1F DUP4 ADD SLT PUSH2 0x16E7 JUMPI PUSH1 0x0 DUP1 REVERT JUMPDEST DUP2 CALLDATALOAD PUSH1 0x20 PUSH2 0x16F7 PUSH2 0x1685 DUP4 PUSH2 0x1BD3 JUMP JUMPDEST DUP1 DUP4 DUP3 MSTORE DUP3 DUP3 ADD SWAP2 POP DUP3 DUP7 ADD DUP8 DUP5 DUP7 PUSH1 0x5 SHL DUP10 ADD ADD GT ISZERO PUSH2 0x1717 JUMPI PUSH1 0x0 DUP1 REVERT JUMPDEST PUSH1 0x0 JUMPDEST DUP6 DUP2 LT ISZERO PUSH2 0x16C9 JUMPI PUSH2 0x172B DUP3 PUSH2 0x1748 JUMP JUMPDEST DUP5 MSTORE SWAP3 DUP5 ADD SWAP3 SWAP1 DUP5 ADD SWAP1 PUSH1 0x1 ADD PUSH2 0x171A JUMP JUMPDEST DUP1 CALLDATALOAD PUSH2 0x1327 DUP2 PUSH2 0x1CF0 JUMP JUMPDEST DUP1 CALLDATALOAD PUSH1 0xFF DUP2 AND DUP2 EQ PUSH2 0x1327 JUMPI PUSH1 0x0 DUP1 REVERT JUMPDEST PUSH1 0x0 PUSH1 0x20 DUP3 DUP5 SUB SLT ISZERO PUSH2 0x176B JUMPI PUSH1 0x0 DUP1 REVERT JUMPDEST PUSH2 0x14BE DUP3 PUSH2 0x164D JUMP JUMPDEST PUSH1 0x0 DUP1 PUSH1 0x40 DUP4 DUP6 SUB SLT ISZERO PUSH2 0x1787 JUMPI PUSH1 0x0 DUP1 REVERT JUMPDEST PUSH2 0x1790 DUP4 PUSH2 0x164D JUMP JUMPDEST SWAP2 POP PUSH2 0x179E PUSH1 0x20 DUP5 ADD PUSH2 0x164D JUMP JUMPDEST SWAP1 POP SWAP3 POP SWAP3 SWAP1 POP JUMP JUMPDEST PUSH1 0x0 DUP1 PUSH1 0x0 DUP1 PUSH1 0x0 PUSH1 0xC0 DUP7 DUP9 SUB SLT ISZERO PUSH2 0x17BF JUMPI PUSH1 0x0 DUP1 REVERT JUMPDEST DUP7 PUSH1 0x1F DUP8 ADD SLT PUSH2 0x17CE JUMPI PUSH1 0x0 DUP1 REVERT JUMPDEST PUSH2 0x17D6 PUSH2 0x1B79 JUMP JUMPDEST DUP1 DUP8 PUSH1 0x40 DUP10 ADD DUP11 DUP2 GT ISZERO PUSH2 0x17E9 JUMPI PUSH1 0x0 DUP1 REVERT JUMPDEST PUSH1 0x0 JUMPDEST PUSH1 0x2 DUP2 LT ISZERO PUSH2 0x1813 JUMPI PUSH2 0x17FE DUP4 PUSH2 0x164D JUMP JUMPDEST DUP6 MSTORE PUSH1 0x20 SWAP5 DUP6 ADD SWAP5 SWAP3 SWAP1 SWAP3 ADD SWAP2 PUSH1 0x1 ADD PUSH2 0x17EC JUMP JUMPDEST POP SWAP2 SWAP8 POP POP CALLDATALOAD SWAP5 POP POP PUSH1 0x60 DUP7 ADD CALLDATALOAD SWAP3 POP PUSH1 0x80 DUP7 ADD CALLDATALOAD SWAP2 POP PUSH2 0x1836 PUSH1 0xA0 DUP8 ADD PUSH2 0x1748 JUMP JUMPDEST SWAP1 POP SWAP3 SWAP6 POP SWAP3 SWAP6 SWAP1 SWAP4 POP JUMP JUMPDEST PUSH1 0x0 DUP1 PUSH1 0x0 DUP1 PUSH1 0x0 DUP1 PUSH1 0x0 DUP1 PUSH2 0x100 DUP10 DUP12 SUB SLT ISZERO PUSH2 0x185F JUMPI PUSH1 0x0 DUP1 REVERT JUMPDEST DUP9 CALLDATALOAD PUSH8 0xFFFFFFFFFFFFFFFF DUP1 DUP3 GT ISZERO PUSH2 0x1877 JUMPI PUSH1 0x0 DUP1 REVERT JUMPDEST PUSH2 0x1883 DUP13 DUP4 DUP14 ADD PUSH2 0x16D6 JUMP JUMPDEST SWAP10 POP PUSH1 0x20 DUP12 ADD CALLDATALOAD SWAP2 POP DUP1 DUP3 GT ISZERO PUSH2 0x1899 JUMPI PUSH1 0x0 DUP1 REVERT JUMPDEST PUSH2 0x18A5 DUP13 DUP4 DUP14 ADD PUSH2 0x16D6 JUMP JUMPDEST SWAP9 POP PUSH1 0x40 DUP12 ADD CALLDATALOAD SWAP2 POP DUP1 DUP3 GT ISZERO PUSH2 0x18BB JUMPI PUSH1 0x0 DUP1 REVERT JUMPDEST POP PUSH2 0x18C8 DUP12 DUP3 DUP13 ADD PUSH2 0x1664 JUMP JUMPDEST SWAP7 POP POP PUSH2 0x18D7 PUSH1 0x60 DUP11 ADD PUSH2 0x173D JUMP JUMPDEST SWAP5 POP PUSH1 0x80 DUP10 ADD CALLDATALOAD SWAP4 POP PUSH1 0xA0 DUP10 ADD CALLDATALOAD SWAP3 POP PUSH1 0xC0 DUP10 ADD CALLDATALOAD SWAP2 POP PUSH2 0x18FA PUSH1 0xE0 DUP11 ADD PUSH2 0x1748 JUMP JUMPDEST SWAP1 POP SWAP3 SWAP6 SWAP9 POP SWAP3 SWAP6 SWAP9 SWAP1 SWAP4 SWAP7 POP JUMP JUMPDEST PUSH1 0x0 PUSH1 0x20 DUP3 DUP5 SUB SLT ISZERO PUSH2 0x191B JUMPI PUSH1 0x0 DUP1 REVERT JUMPDEST DUP2 MLOAD PUSH2 0x14BE DUP2 PUSH2 0x1CF0 JUMP JUMPDEST PUSH1 0x0 PUSH1 0x20 DUP3 DUP5 SUB SLT ISZERO PUSH2 0x1938 JUMPI PUSH1 0x0 DUP1 REVERT JUMPDEST POP CALLDATALOAD SWAP2 SWAP1 POP JUMP JUMPDEST PUSH1 0x0 PUSH1 0x20 DUP3 DUP5 SUB SLT ISZERO PUSH2 0x1951 JUMPI PUSH1 0x0 DUP1 REVERT JUMPDEST POP MLOAD SWAP2 SWAP1 POP JUMP JUMPDEST PUSH1 0x0 DUP2 MLOAD PUSH1 0x20 DUP1 DUP5 ADD PUSH1 0x0 JUMPDEST DUP4 DUP2 LT ISZERO PUSH2 0x1983 JUMPI DUP2 MLOAD PUSH1 0xFF AND DUP8 MSTORE SWAP6 DUP3 ADD SWAP6 SWAP1 DUP3 ADD SWAP1 PUSH1 0x1 ADD PUSH2 0x1964 JUMP JUMPDEST POP SWAP5 SWAP6 SWAP5 POP POP POP POP POP JUMP JUMPDEST PUSH1 0x0 DUP2 DUP5 DUP3 JUMPDEST PUSH1 0x2 DUP2 LT ISZERO PUSH2 0x19BC JUMPI DUP2 MLOAD PUSH1 0x1 PUSH1 0x1 PUSH1 0xA0 SHL SUB AND DUP4 MSTORE PUSH1 0x20 SWAP3 DUP4 ADD SWAP3 SWAP1 SWAP2 ADD SWAP1 PUSH1 0x1 ADD PUSH2 0x1994 JUMP JUMPDEST POP POP POP POP PUSH1 0x40 DUP2 ADD SWAP2 SWAP1 SWAP2 MSTORE PUSH1 0x60 ADD SWAP2 SWAP1 POP JUMP JUMPDEST DUP2 MLOAD PUSH1 0x0 SWAP1 DUP3 SWAP1 PUSH1 0x20 DUP1 DUP7 ADD DUP5 JUMPDEST DUP4 DUP2 LT ISZERO PUSH2 0x19FA JUMPI DUP2 MLOAD DUP6 MSTORE SWAP4 DUP3 ADD SWAP4 SWAP1 DUP3 ADD SWAP1 PUSH1 0x1 ADD PUSH2 0x19DE JUMP JUMPDEST POP SWAP3 SWAP7 SWAP6 POP POP POP POP POP POP JUMP JUMPDEST PUSH1 0x0 PUSH2 0x14BB PUSH2 0x1A15 DUP4 DUP7 PUSH2 0x1958 JUMP JUMPDEST DUP5 PUSH2 0x1958 JUMP JUMPDEST PUSH1 0x0 DUP3 MLOAD PUSH2 0x1A2D DUP2 DUP5 PUSH1 0x20 DUP8 ADD PUSH2 0x1C67 JUMP JUMPDEST SWAP2 SWAP1 SWAP2 ADD SWAP3 SWAP2 POP POP JUMP JUMPDEST PUSH1 0x1 PUSH1 0x1 PUSH1 0xA0 SHL SUB DUP4 AND DUP2 MSTORE PUSH1 0x60 DUP2 ADD PUSH1 0x20 DUP1 DUP4 ADD DUP5 PUSH1 0x0 JUMPDEST PUSH1 0x2 DUP2 LT ISZERO PUSH2 0x1A6D JUMPI DUP2 MLOAD DUP4 MSTORE SWAP2 DUP4 ADD SWAP2 SWAP1 DUP4 ADD SWAP1 PUSH1 0x1 ADD PUSH2 0x1A50 JUMP JUMPDEST POP POP POP POP SWAP4 SWAP3 POP POP POP JUMP JUMPDEST PUSH1 0x20 DUP2 MSTORE PUSH1 0x0 DUP3 MLOAD DUP1 PUSH1 0x20 DUP5 ADD MSTORE PUSH2 0x1A97 DUP2 PUSH1 0x40 DUP6 ADD PUSH1 0x20 DUP8 ADD PUSH2 0x1C67 JUMP JUMPDEST PUSH1 0x1F ADD PUSH1 0x1F NOT AND SWAP2 SWAP1 SWAP2 ADD PUSH1 0x40 ADD SWAP3 SWAP2 POP POP JUMP JUMPDEST PUSH1 0x20 DUP1 DUP3 MSTORE PUSH1 0x2E SWAP1 DUP3 ADD MSTORE PUSH32 0x496E697469616C697A61626C653A20636F6E747261637420697320616C726561 PUSH1 0x40 DUP3 ADD MSTORE PUSH14 0x191E481A5B9A5D1A585B1A5E9959 PUSH1 0x92 SHL PUSH1 0x60 DUP3 ADD MSTORE PUSH1 0x80 ADD SWAP1 JUMP JUMPDEST PUSH1 0x20 DUP1 DUP3 MSTORE DUP2 DUP2 ADD MSTORE PUSH32 0x4F776E61626C653A2063616C6C6572206973206E6F7420746865206F776E6572 PUSH1 0x40 DUP3 ADD MSTORE PUSH1 0x60 ADD SWAP1 JUMP JUMPDEST PUSH1 0x20 DUP1 DUP3 MSTORE PUSH1 0x2B SWAP1 DUP3 ADD MSTORE PUSH32 0x496E697469616C697A61626C653A20636F6E7472616374206973206E6F742069 PUSH1 0x40 DUP3 ADD MSTORE PUSH11 0x6E697469616C697A696E67 PUSH1 0xA8 SHL PUSH1 0x60 DUP3 ADD MSTORE PUSH1 0x80 ADD SWAP1 JUMP JUMPDEST PUSH1 0x40 DUP1 MLOAD SWAP1 DUP2 ADD PUSH8 0xFFFFFFFFFFFFFFFF DUP2 GT DUP3 DUP3 LT OR ISZERO PUSH2 0x1B9C JUMPI PUSH2 0x1B9C PUSH2 0x1CDA JUMP JUMPDEST PUSH1 0x40 MSTORE SWAP1 JUMP JUMPDEST PUSH1 0x40 MLOAD PUSH1 0x1F DUP3 ADD PUSH1 0x1F NOT AND DUP2 ADD PUSH8 0xFFFFFFFFFFFFFFFF DUP2 GT DUP3 DUP3 LT OR ISZERO PUSH2 0x1BCB JUMPI PUSH2 0x1BCB PUSH2 0x1CDA JUMP JUMPDEST PUSH1 0x40 MSTORE SWAP2 SWAP1 POP JUMP JUMPDEST PUSH1 0x0 PUSH8 0xFFFFFFFFFFFFFFFF DUP3 GT ISZERO PUSH2 0x1BED JUMPI PUSH2 0x1BED PUSH2 0x1CDA JUMP JUMPDEST POP PUSH1 0x5 SHL PUSH1 0x20 ADD SWAP1 JUMP JUMPDEST PUSH1 0x0 DUP3 NOT DUP3 GT ISZERO PUSH2 0x1C0A JUMPI PUSH2 0x1C0A PUSH2 0x1CAE JUMP JUMPDEST POP ADD SWAP1 JUMP JUMPDEST PUSH1 0x0 DUP3 PUSH2 0x1C2C JUMPI PUSH4 0x4E487B71 PUSH1 0xE0 SHL PUSH1 0x0 MSTORE PUSH1 0x12 PUSH1 0x4 MSTORE PUSH1 0x24 PUSH1 0x0 REVERT JUMPDEST POP DIV SWAP1 JUMP JUMPDEST PUSH1 0x0 DUP2 PUSH1 0x0 NOT DIV DUP4 GT DUP3 ISZERO ISZERO AND ISZERO PUSH2 0x1C4B JUMPI PUSH2 0x1C4B PUSH2 0x1CAE JUMP JUMPDEST POP MUL SWAP1 JUMP JUMPDEST PUSH1 0x0 DUP3 DUP3 LT ISZERO PUSH2 0x1C62 JUMPI PUSH2 0x1C62 PUSH2 0x1CAE JUMP JUMPDEST POP SUB SWAP1 JUMP JUMPDEST PUSH1 0x0 JUMPDEST DUP4 DUP2 LT ISZERO PUSH2 0x1C82 JUMPI DUP2 DUP2 ADD MLOAD DUP4 DUP3 ADD MSTORE PUSH1 0x20 ADD PUSH2 0x1C6A JUMP JUMPDEST DUP4 DUP2 GT ISZERO PUSH2 0x1247 JUMPI POP POP PUSH1 0x0 SWAP2 ADD MSTORE JUMP JUMPDEST PUSH1 0x0 PUSH1 0x0 NOT DUP3 EQ ISZERO PUSH2 0x1CA7 JUMPI PUSH2 0x1CA7 PUSH2 0x1CAE JUMP JUMPDEST POP PUSH1 0x1 ADD SWAP1 JUMP JUMPDEST PUSH4 0x4E487B71 PUSH1 0xE0 SHL PUSH1 0x0 MSTORE PUSH1 0x11 PUSH1 0x4 MSTORE PUSH1 0x24 PUSH1 0x0 REVERT JUMPDEST PUSH4 0x4E487B71 PUSH1 0xE0 SHL PUSH1 0x0 MSTORE PUSH1 0x32 PUSH1 0x4 MSTORE PUSH1 0x24 PUSH1 0x0 REVERT JUMPDEST PUSH4 0x4E487B71 PUSH1 0xE0 SHL PUSH1 0x0 MSTORE PUSH1 0x41 PUSH1 0x4 MSTORE PUSH1 0x24 PUSH1 0x0 REVERT JUMPDEST DUP1 ISZERO ISZERO DUP2 EQ PUSH2 0xAE0 JUMPI PUSH1 0x0 DUP1 REVERT INVALID LOG2 PUSH5 0x6970667358 0x22 SLT KECCAK256 DUP7 0xDD SIGNEXTEND OR SLT SAR SWAP5 CHAINID CALLCODE SELFBALANCE 0xAA 0xEF RETURNDATASIZE 0xDA 0xB1 0xD6 0xF7 0xC0 SWAP11 PUSH9 0xF322E92853BA291D9 0x4C MOD 0x2F PUSH5 0x736F6C6343 STOP ADDMOD SMOD STOP CALLER "
		},
		"gasEstimates": {
			"creation": {
				"codeDepositCost": "1495200",
				"executionCost": "1561",
				"totalCost": "1496761"
			},
			"external": {
				"BVG()": "2438",
				"BVT()": "2393",
				"avatar()": "2371",
				"banker()": "2395",
				"bond(address[2],uint256,bytes32,bytes32,uint8)": "infinite",
				"box()": "2372",
				"bvgClaimed(address)": "2609",
				"bvtClaimed(address)": "2608",
				"cattle()": "2373",
				"claimMail(uint8[],uint8[],uint256[],bool,uint256,bytes32,bytes32,uint8)": "infinite",
				"compound()": "2458",
				"idClaim(uint256)": "2578",
				"initialize()": "infinite",
				"item()": "2414",
				"mating()": "2393",
				"milk()": "2370",
				"owner()": "2387",
				"planet()": "2416",
				"relationTypes(address,address)": "infinite",
				"renounceOwnership()": "28228",
				"setBanker(address)": "26777",
				"setBox(address)": "26801",
				"setCattle(address)": "26802",
				"setCompound(address)": "26779",
				"setItem(address)": "26757",
				"setMating(address)": "26822",
				"setMilk(address)": "26824",
				"setPlanet(address)": "26756",
				"setProfilePhoto(address)": "26800",
				"setStable(address)": "26822",
				"setToken(address,address)": "infinite",
				"stable()": "2372",
				"transferOwnership(address)": "28422"
			},
			"internal": {
				"_processMail(uint256,uint256,uint256,bool)": "infinite"
			}
		},
		"methodIdentifiers": {
			"BVG()": "87464389",
			"BVT()": "5f24b4a4",
			"avatar()": "5aef7de6",
			"banker()": "0ab9db5b",
			"bond(address[2],uint256,bytes32,bytes32,uint8)": "9f1646d7",
			"box()": "754215a1",
			"bvgClaimed(address)": "1e9bcc0e",
			"bvtClaimed(address)": "c542a90b",
			"cattle()": "01c211c7",
			"claimMail(uint8[],uint8[],uint256[],bool,uint256,bytes32,bytes32,uint8)": "1ef84039",
			"compound()": "f69e2046",
			"idClaim(uint256)": "53b9008f",
			"initialize()": "8129fc1c",
			"item()": "f2a4a82e",
			"mating()": "b4dac333",
			"milk()": "dbf8b168",
			"owner()": "8da5cb5b",
			"planet()": "8443bea6",
			"relationTypes(address,address)": "8be031f4",
			"renounceOwnership()": "715018a6",
			"setBanker(address)": "f1ff732b",
			"setBox(address)": "537627ab",
			"setCattle(address)": "0de307fe",
			"setCompound(address)": "2be682d4",
			"setItem(address)": "165ed276",
			"setMating(address)": "9fd0e138",
			"setMilk(address)": "110a2ded",
			"setPlanet(address)": "ad911387",
			"setProfilePhoto(address)": "61a91290",
			"setStable(address)": "dba71376",
			"setToken(address,address)": "1da26a8b",
			"stable()": "22be3de1",
			"transferOwnership(address)": "f2fde38b"
		}
	},
	"abi": [
		{
			"anonymous": false,
			"inputs": [
				{
					"indexed": true,
					"internalType": "address",
					"name": "player1",
					"type": "address"
				},
				{
					"indexed": true,
					"internalType": "address",
					"name": "player2",
					"type": "address"
				},
				{
					"indexed": true,
					"internalType": "uint256",
					"name": "types",
					"type": "uint256"
				}
			],
			"name": "BondRelationship",
			"type": "event"
		},
		{
			"anonymous": false,
			"inputs": [
				{
					"indexed": true,
					"internalType": "address",
					"name": "player",
					"type": "address"
				},
				{
					"indexed": true,
					"internalType": "uint256",
					"name": "id",
					"type": "uint256"
				}
			],
			"name": "ClaimMail",
			"type": "event"
		},
		{
			"anonymous": false,
			"inputs": [
				{
					"indexed": false,
					"internalType": "uint8",
					"name": "version",
					"type": "uint8"
				}
			],
			"name": "Initialized",
			"type": "event"
		},
		{
			"anonymous": false,
			"inputs": [
				{
					"indexed": true,
					"internalType": "address",
					"name": "previousOwner",
					"type": "address"
				},
				{
					"indexed": true,
					"internalType": "address",
					"name": "newOwner",
					"type": "address"
				}
			],
			"name": "OwnershipTransferred",
			"type": "event"
		},
		{
			"inputs": [],
			"name": "BVG",
			"outputs": [
				{
					"internalType": "contract IERC20Upgradeable",
					"name": "",
					"type": "address"
				}
			],
			"stateMutability": "view",
			"type": "function"
		},
		{
			"inputs": [],
			"name": "BVT",
			"outputs": [
				{
					"internalType": "contract IERC20Upgradeable",
					"name": "",
					"type": "address"
				}
			],
			"stateMutability": "view",
			"type": "function"
		},
		{
			"inputs": [],
			"name": "avatar",
			"outputs": [
				{
					"internalType": "contract IProfilePhoto",
					"name": "",
					"type": "address"
				}
			],
			"stateMutability": "view",
			"type": "function"
		},
		{
			"inputs": [],
			"name": "banker",
			"outputs": [
				{
					"internalType": "address",
					"name": "",
					"type": "address"
				}
			],
			"stateMutability": "view",
			"type": "function"
		},
		{
			"inputs": [
				{
					"internalType": "address[2]",
					"name": "addr",
					"type": "address[2]"
				},
				{
					"internalType": "uint256",
					"name": "types",
					"type": "uint256"
				},
				{
					"internalType": "bytes32",
					"name": "r",
					"type": "bytes32"
				},
				{
					"internalType": "bytes32",
					"name": "s",
					"type": "bytes32"
				},
				{
					"internalType": "uint8",
					"name": "v",
					"type": "uint8"
				}
			],
			"name": "bond",
			"outputs": [],
			"stateMutability": "nonpayable",
			"type": "function"
		},
		{
			"inputs": [],
			"name": "box",
			"outputs": [
				{
					"internalType": "contract IBOX",
					"name": "",
					"type": "address"
				}
			],
			"stateMutability": "view",
			"type": "function"
		},
		{
			"inputs": [
				{
					"internalType": "address",
					"name": "",
					"type": "address"
				}
			],
			"name": "bvgClaimed",
			"outputs": [
				{
					"internalType": "uint256",
					"name": "",
					"type": "uint256"
				}
			],
			"stateMutability": "view",
			"type": "function"
		},
		{
			"inputs": [
				{
					"internalType": "address",
					"name": "",
					"type": "address"
				}
			],
			"name": "bvtClaimed",
			"outputs": [
				{
					"internalType": "uint256",
					"name": "",
					"type": "uint256"
				}
			],
			"stateMutability": "view",
			"type": "function"
		},
		{
			"inputs": [],
			"name": "cattle",
			"outputs": [
				{
					"internalType": "contract ICOW",
					"name": "",
					"type": "address"
				}
			],
			"stateMutability": "view",
			"type": "function"
		},
		{
			"inputs": [
				{
					"internalType": "uint8[]",
					"name": "rewardType",
					"type": "uint8[]"
				},
				{
					"internalType": "uint8[]",
					"name": "rewardId",
					"type": "uint8[]"
				},
				{
					"internalType": "uint256[]",
					"name": "rewardAmount",
					"type": "uint256[]"
				},
				{
					"internalType": "bool",
					"name": "isTax",
					"type": "bool"
				},
				{
					"internalType": "uint256",
					"name": "id",
					"type": "uint256"
				},
				{
					"internalType": "bytes32",
					"name": "r",
					"type": "bytes32"
				},
				{
					"internalType": "bytes32",
					"name": "s",
					"type": "bytes32"
				},
				{
					"internalType": "uint8",
					"name": "v",
					"type": "uint8"
				}
			],
			"name": "claimMail",
			"outputs": [],
			"stateMutability": "nonpayable",
			"type": "function"
		},
		{
			"inputs": [],
			"name": "compound",
			"outputs": [
				{
					"internalType": "contract ICompound",
					"name": "",
					"type": "address"
				}
			],
			"stateMutability": "view",
			"type": "function"
		},
		{
			"inputs": [
				{
					"internalType": "uint256",
					"name": "",
					"type": "uint256"
				}
			],
			"name": "idClaim",
			"outputs": [
				{
					"internalType": "address",
					"name": "",
					"type": "address"
				}
			],
			"stateMutability": "view",
			"type": "function"
		},
		{
			"inputs": [],
			"name": "initialize",
			"outputs": [],
			"stateMutability": "nonpayable",
			"type": "function"
		},
		{
			"inputs": [],
			"name": "item",
			"outputs": [
				{
					"internalType": "contract ICattle1155",
					"name": "",
					"type": "address"
				}
			],
			"stateMutability": "view",
			"type": "function"
		},
		{
			"inputs": [],
			"name": "mating",
			"outputs": [
				{
					"internalType": "contract IMating",
					"name": "",
					"type": "address"
				}
			],
			"stateMutability": "view",
			"type": "function"
		},
		{
			"inputs": [],
			"name": "milk",
			"outputs": [
				{
					"internalType": "contract IMilk",
					"name": "",
					"type": "address"
				}
			],
			"stateMutability": "view",
			"type": "function"
		},
		{
			"inputs": [],
			"name": "owner",
			"outputs": [
				{
					"internalType": "address",
					"name": "",
					"type": "address"
				}
			],
			"stateMutability": "view",
			"type": "function"
		},
		{
			"inputs": [],
			"name": "planet",
			"outputs": [
				{
					"internalType": "contract IPlanet",
					"name": "",
					"type": "address"
				}
			],
			"stateMutability": "view",
			"type": "function"
		},
		{
			"inputs": [
				{
					"internalType": "address",
					"name": "",
					"type": "address"
				},
				{
					"internalType": "address",
					"name": "",
					"type": "address"
				}
			],
			"name": "relationTypes",
			"outputs": [
				{
					"internalType": "uint256",
					"name": "",
					"type": "uint256"
				}
			],
			"stateMutability": "view",
			"type": "function"
		},
		{
			"inputs": [],
			"name": "renounceOwnership",
			"outputs": [],
			"stateMutability": "nonpayable",
			"type": "function"
		},
		{
			"inputs": [
				{
					"internalType": "address",
					"name": "addr",
					"type": "address"
				}
			],
			"name": "setBanker",
			"outputs": [],
			"stateMutability": "nonpayable",
			"type": "function"
		},
		{
			"inputs": [
				{
					"internalType": "address",
					"name": "addr",
					"type": "address"
				}
			],
			"name": "setBox",
			"outputs": [],
			"stateMutability": "nonpayable",
			"type": "function"
		},
		{
			"inputs": [
				{
					"internalType": "address",
					"name": "addr_",
					"type": "address"
				}
			],
			"name": "setCattle",
			"outputs": [],
			"stateMutability": "nonpayable",
			"type": "function"
		},
		{
			"inputs": [
				{
					"internalType": "address",
					"name": "addr",
					"type": "address"
				}
			],
			"name": "setCompound",
			"outputs": [],
			"stateMutability": "nonpayable",
			"type": "function"
		},
		{
			"inputs": [
				{
					"internalType": "address",
					"name": "addr_",
					"type": "address"
				}
			],
			"name": "setItem",
			"outputs": [],
			"stateMutability": "nonpayable",
			"type": "function"
		},
		{
			"inputs": [
				{
					"internalType": "address",
					"name": "addr",
					"type": "address"
				}
			],
			"name": "setMating",
			"outputs": [],
			"stateMutability": "nonpayable",
			"type": "function"
		},
		{
			"inputs": [
				{
					"internalType": "address",
					"name": "addr",
					"type": "address"
				}
			],
			"name": "setMilk",
			"outputs": [],
			"stateMutability": "nonpayable",
			"type": "function"
		},
		{
			"inputs": [
				{
					"internalType": "address",
					"name": "addr_",
					"type": "address"
				}
			],
			"name": "setPlanet",
			"outputs": [],
			"stateMutability": "nonpayable",
			"type": "function"
		},
		{
			"inputs": [
				{
					"internalType": "address",
					"name": "addr",
					"type": "address"
				}
			],
			"name": "setProfilePhoto",
			"outputs": [],
			"stateMutability": "nonpayable",
			"type": "function"
		},
		{
			"inputs": [
				{
					"internalType": "address",
					"name": "addr_",
					"type": "address"
				}
			],
			"name": "setStable",
			"outputs": [],
			"stateMutability": "nonpayable",
			"type": "function"
		},
		{
			"inputs": [
				{
					"internalType": "address",
					"name": "BVT_",
					"type": "address"
				},
				{
					"internalType": "address",
					"name": "BVG_",
					"type": "address"
				}
			],
			"name": "setToken",
			"outputs": [],
			"stateMutability": "nonpayable",
			"type": "function"
		},
		{
			"inputs": [],
			"name": "stable",
			"outputs": [
				{
					"internalType": "contract IStable",
					"name": "",
					"type": "address"
				}
			],
			"stateMutability": "view",
			"type": "function"
		},
		{
			"inputs": [
				{
					"internalType": "address",
					"name": "newOwner",
					"type": "address"
				}
			],
			"name": "transferOwnership",
			"outputs": [],
			"stateMutability": "nonpayable",
			"type": "function"
		}
	]
}