{
	"data": {
		"bytecode": {
			"linkReferences": {},
			"object": "608060405234801561001057600080fd5b50613ee6806100206000396000f3fe608060405234801561001057600080fd5b50600436106103985760003560e01c8063704aa277116101e95780639b1fdccd1161010f578063d53dc7ef116100ad578063f7ebb5101161007c578063f7ebb510146108b8578063fa9496e9146108e1578063fdb03c66146108f4578063ff67e7cc1461091457600080fd5b8063d53dc7ef14610876578063d76ec1a31461087f578063ee0dd5d614610892578063f2fde38b146108a557600080fd5b8063b995a31f116100e9578063b995a31f1461081d578063c94bc86c14610830578063cea0196214610850578063d1c82f6e1461086357600080fd5b80639b1fdccd146107e4578063b1ce604f146107f7578063b7a9dd0a1461080a57600080fd5b80638443bea6116101875780639401e1d4116101565780639401e1d4146107a357806396490f3c146107b6578063988d1a87146107c95780639ab0436b146107dc57600080fd5b80638443bea614610749578063874643891461075c5780638cbf7cb31461076f5780638da5cb5b1461079257600080fd5b806378f9facf116101c357806378f9facf146106da5780637a0dedf6146106fa5780637e856ed61461070d5780638129fc1c1461074157600080fd5b8063704aa277146106ac578063715018a6146106bf578063786673c5146106c757600080fd5b80632cc5af88116102ce5780634d6e34521161026c57806361c46b251161023b57806361c46b251461062a57806363a846f81461063d5780636b1aa15714610670578063700a63f01461068357600080fd5b80634d6e3452146105d157806356813019146105f15780635f24b4a41461060457806360151db01461061757600080fd5b8063471e130f116102a8578063471e130f1461058f57806347da57d1146105a257806348c62d14146105ab5780634b0bddd2146105be57600080fd5b80632cc5af881461053e5780632e161c0b146105515780633453478f1461056457600080fd5b80631ddbd1671161033b578063264b538711610315578063264b5387146104ef57806328531f06146105025780632a36624b146105225780632bb4ad5d1461052b57600080fd5b80631ddbd167146104a957806321353fd5146104bc578063255a8b86146104dc57600080fd5b8063150b7a0211610377578063150b7a021461041057806318cce8fc146104475780631959a0021461045a5780631da26a8b1461049657600080fd5b8062e000641461039d57806301c211c7146103d05780631349ac3b146103fb575b600080fd5b6103bd6103ab366004613a99565b60a26020526000908152604090205481565b6040519081526020015b60405180910390f35b6097546103e3906001600160a01b031681565b6040516001600160a01b0390911681526020016103c7565b61040e610409366004613af0565b61091d565b005b61042e61041e3660046137b6565b630a85bd0160e11b949350505050565b6040516001600160e01b031990911681526020016103c7565b61040e610455366004613a99565b610ba1565b610481610468366004613702565b60ad602052600090815260409020805460019091015482565b604080519283526020830191909152016103c7565b61040e6104a436600461373c565b610ee3565b61040e6104b7366004613702565b610f3b565b6103bd6104ca366004613a99565b60b16020526000908152604090205481565b61040e6104ea366004613b12565b610f87565b6103bd6104fd366004613a99565b61171d565b6103bd610510366004613a99565b60aa6020526000908152604090205481565b6103bd609d5481565b61040e610539366004613a99565b61173e565b61040e61054c366004613af0565b611a04565b61040e61055f36600461395a565b611cc3565b6103bd610572366004613af0565b60ab60209081526000928352604080842090915290825290205481565b6103bd61059d366004613a99565b611cf9565b6103bd60a75481565b61040e6105b9366004613af0565b611d09565b61040e6105cc36600461387a565b61203c565b6103bd6105df366004613702565b60b26020526000908152604090205481565b61040e6105ff3660046139cf565b6120ef565b6098546103e3906001600160a01b031681565b61040e610625366004613702565b612130565b61040e610638366004613af0565b61217c565b61066061064b366004613702565b60a16020526000908152604090205460ff1681565b60405190151581526020016103c7565b61066061067e366004613a99565b6122ba565b6103bd610691366004613702565b6001600160a01b0316600090815260b0602052604090205490565b61040e6106ba3660046139cf565b6122fc565b61040e612339565b6103e36106d5366004613a99565b61236f565b6103bd6106e8366004613a99565b60a96020526000908152604090205481565b61040e610708366004613b12565b6123f2565b61066061071b366004613775565b60ac60209081526000938452604080852082529284528284209052825290205460ff1681565b61040e6127f8565b609a546103e3906001600160a01b031681565b6099546103e3906001600160a01b031681565b61066061077d366004613a99565b609e6020526000908152604090205460ff1681565b6033546001600160a01b03166103e3565b60a4546103e3906001600160a01b031681565b61040e6107c4366004613acb565b6129f4565b61040e6107d7366004613702565b612a43565b61040e612a8f565b61040e6107f2366004613a99565b612b6b565b61040e610805366004613a99565b612d5a565b61040e610818366004613702565b612d89565b6103bd61082b366004613a99565b612dd5565b6103bd61083e366004613a99565b60a36020526000908152604090205481565b6103bd61085e366004613a99565b612de5565b6103bd610871366004613702565b612df5565b6103bd60a65481565b609b546103e3906001600160a01b031681565b61040e6108a03660046139cf565b612e56565b61040e6108b3366004613702565b612e93565b6103e36108c6366004613a99565b60a0602052600090815260409020546001600160a01b031681565b61040e6108ef3660046138a8565b612f2b565b610907610902366004613702565b612f64565b6040516103c79190613b5a565b6103bd60a55481565b600382116109615760405162461bcd60e51b815260206004820152600c60248201526b1ddc9bdb99c81a5d195b525960a21b60448201526064015b60405180910390fd5b60a454604051636711066d60e11b8152600481018490526000916001600160a01b03169063ce220cda9060240160606040518083038186803b1580156109a657600080fd5b505afa1580156109ba573d6000803e3d6000fd5b505050506040513d601f19601f820116820180604052508101906109de91906138d4565b8051909150610a1f5760405162461bcd60e51b815260206004820152600d60248201526c1ddc9bdb99c8125a5d195b5259609a1b6044820152606401610958565b8051610a2c908390613d8e565b33600090815260b2602052604081208054909190610a4b908490613d62565b90915550508051614e2090610a61908490613d8e565b1115610a9e5760405162461bcd60e51b815260206004820152600c60248201526b1bdd5d081bd9881b1a5b5a5d60a21b6044820152606401610958565b60a454604051636d83ceff60e01b815260048101859052610b3091339185916001600160a01b031690636d83ceff906024015b60206040518083038186803b158015610ae957600080fd5b505afa158015610afd573d6000803e3d6000fd5b505050506040513d601f19601f82011682018060405250810190610b219190613ab2565b610b2b9190613d8e565b612fd3565b60a454604051637a94c56560e11b815233600482015260248101859052604481018490526001600160a01b039091169063f5298aca906064015b600060405180830381600087803b158015610b8457600080fd5b505af1158015610b98573d6000803e3d6000fd5b50505050505050565b610baa816122ba565b15610be25760405162461bcd60e51b81526020600482015260086024820152676973205573696e6760c01b6044820152606401610958565b33600081815260ad6020908152604080832085845260a09092529091205490916001600160a01b0390911614610c2a5760405162461bcd60e51b815260040161095890613d0e565b6000828152609e602052604090205460ff16610c585760405162461bcd60e51b815260040161095890613bd1565b6002810154610c9e5760405162461bcd60e51b8152602060048201526012602482015271206e6f20636f777320696e20737461626c6560701b6044820152606401610958565b6000610cad826002018461317a565b905080670de0b6b3a76400001415610cf75760405162461bcd60e51b815260206004820152600d60248201526c1ddc9bdb99c81d1bdad95b9259609a1b6044820152606401610958565b600282018054610d0990600190613dad565b81548110610d1957610d19613e61565b9060005260206000200154826002018281548110610d3957610d39613e61565b60009182526020909120015560028201805480610d5857610d58613e4b565b60008281526020808220600019908401810183905590920190925584825260a08152604080832080546001600160a01b0319169055609e90915290819020805460ff191690556097549051634b4116d760e11b8152600481018590526001600160a01b03909116906396822dae9060240160206040518083038186803b158015610de157600080fd5b505afa158015610df5573d6000803e3d6000fd5b505050506040513d601f19601f82011682018060405250810190610e199190613ab2565b421015610e5d57609754604051632142170760e11b8152306004820152336024820152604481018590526001600160a01b03909116906342842e0e90606401610b6a565b609754604051630852cd8d60e31b8152600481018590526001600160a01b03909116906342966c68906024015b602060405180830381600087803b158015610ea457600080fd5b505af1158015610eb8573d6000803e3d6000fd5b505050506040513d601f19601f82011682018060405250810190610edc9190613a7c565b505b505050565b6033546001600160a01b03163314610f0d5760405162461bcd60e51b815260040161095890613c6b565b609880546001600160a01b039384166001600160a01b03199182161790915560998054929093169116179055565b6033546001600160a01b03163314610f655760405162461bcd60e51b815260040161095890613c6b565b609780546001600160a01b0319166001600160a01b0392909216919091179055565b6000838152609e602052604090205460ff16610fb55760405162461bcd60e51b815260040161095890613bd1565b600083815260a060205260409020546001600160a01b03163314610feb5760405162461bcd60e51b815260040161095890613d0e565b6003821161102a5760405162461bcd60e51b815260206004820152600c60248201526b1ddc9bdb99c81a5d195b525960a21b6044820152606401610958565b609754604051634b4116d760e11b8152600481018590526001600160a01b03909116906396822dae9060240160206040518083038186803b15801561106e57600080fd5b505afa158015611082573d6000803e3d6000fd5b505050506040513d601f19601f820116820180604052508101906110a69190613ab2565b42106110c45760405162461bcd60e51b815260040161095890613c46565b60a454604051636711066d60e11b8152600481018490526000916001600160a01b03169063ce220cda9060240160606040518083038186803b15801561110957600080fd5b505afa15801561111d573d6000803e3d6000fd5b505050506040513d601f19601f8201168201806040525081019061114191906138d4565b80519091501561122557609754604051633f01ac5360e11b8152600481018690526000916001600160a01b031690637e0358a69060240160206040518083038186803b15801561119057600080fd5b505afa1580156111a4573d6000803e3d6000fd5b505050506040513d601f19601f820116820180604052508101906111c89190613ab2565b82519091506111d8908490613d8e565b600086815260a96020526040812080549091906111f6908490613d62565b9091555050600085815260a9602052604090205481101561122357600085815260a9602052604090208190555b505b6020810151156114ac5760a55461123e90611388613d62565b602082015161124e908490613d8e565b60a654600090815260ab602090815260408083208984529091529020546112759190613d62565b11156112af5760405162461bcd60e51b81526020600482015260096024820152681bdd5d081b1a5b5a5d60ba1b6044820152606401610958565b60208101516112bf908390613d8e565b600085815260aa6020526040812080549091906112dd908490613d62565b9091555050600084815260aa6020526040902054617530116114ac5760975460405163211a1b1960e21b8152600481018690526001600160a01b03909116906384686c6490602401600060405180830381600087803b15801561133f57600080fd5b505af1158015611353573d6000803e3d6000fd5b50505050611362336014612fd3565b60975460405163e06d2eb560e01b8152600481018690526000916001600160a01b03169063e06d2eb59060240160206040518083038186803b1580156113a757600080fd5b505afa1580156113bb573d6000803e3d6000fd5b505050506040513d601f19601f820116820180604052508101906113df9190613ab2565b9050806001141561144c57609b54604051631f11890160e11b81523360048201526001600160a01b0390911690633e23120290602401600060405180830381600087803b15801561142f57600080fd5b505af1158015611443573d6000803e3d6000fd5b505050506114aa565b609b5460405163e85548f760e01b81523360048201526001600160a01b039091169063e85548f790602401600060405180830381600087803b15801561149157600080fd5b505af11580156114a5573d6000803e3d6000fd5b505050505b505b60408101511561167557600084815260b16020526040902054620d2f001161150f5760405162461bcd60e51b81526020600482015260166024820152751bdd5d081bd98818591908131a599948185b5bdd5b9d60521b6044820152606401610958565b6040810151600090611522908490613d8e565b600086815260b1602052604090205490915061154190620d2f00613dad565b8111156115ea57609754600086815260b160205260409020546001600160a01b0390911690635f70a1d590879061157b90620d2f00613dad565b6040516001600160e01b031960e085901b16815260048101929092526024820152604401600060405180830381600087803b1580156115b957600080fd5b505af11580156115cd573d6000803e3d6000fd5b505050600086815260b160205260409020620d2f00905550611673565b600085815260b1602052604081208054839290611608908490613d62565b9091555050609754604051635f70a1d560e01b815260048101879052602481018390526001600160a01b0390911690635f70a1d590604401600060405180830381600087803b15801561165a57600080fd5b505af115801561166e573d6000803e3d6000fd5b505050505b505b60a454604051636d83ceff60e01b8152600481018590526116ac91339185916001600160a01b031690636d83ceff90602401610ad1565b60a454604051637a94c56560e11b815233600482015260248101859052604481018490526001600160a01b039091169063f5298aca90606401600060405180830381600087803b1580156116ff57600080fd5b505af1158015611713573d6000803e3d6000fd5b5050505050505050565b60a8818154811061172d57600080fd5b600091825260209091200154905081565b609a546040516313ce3d6960e01b81523360048201526001600160a01b03909116906313ce3d699060240160206040518083038186803b15801561178157600080fd5b505afa158015611795573d6000803e3d6000fd5b505050506040513d601f19601f820116820180604052508101906117b99190613a7c565b6117fa5760405162461bcd60e51b81526020600482015260126024820152711b9bdd08189bdb991a5b99c81c1b185b995d60721b6044820152606401610958565b33600090815260ad6020526040902080546002111561181857600281555b609754604051634b4116d760e11b81526004810184905242916001600160a01b0316906396822dae9060240160206040518083038186803b15801561185c57600080fd5b505afa158015611870573d6000803e3d6000fd5b505050506040513d601f19601f820116820180604052508101906118949190613ab2565b116118d25760405162461bcd60e51b815260206004820152600e60248201526d18d85d1d1b19481a5cc81919585960921b6044820152606401610958565b805460028201541061191c5760405162461bcd60e51b81526020600482015260136024820152721bdd5d081bd9881cdd18589b19505b5bdd5b9d606a1b6044820152606401610958565b336119268361236f565b6001600160a01b03161461194c5760405162461bcd60e51b815260040161095890613d0e565b609754604051632142170760e11b8152336004820152306024820152604481018490526001600160a01b03909116906342842e0e90606401600060405180830381600087803b15801561199e57600080fd5b505af11580156119b2573d6000803e3d6000fd5b505050600083815260a06020908152604080832080546001600160a01b03191633179055609e82528220805460ff19166001908117909155600290940180549485018155825290209091019190915550565b600082815260a060205260409020546001600160a01b03163314611a3a5760405162461bcd60e51b815260040161095890613d0e565b6000828152609e602052604090205460ff16611a685760405162461bcd60e51b815260040161095890613bd1565b600082815260a96020526040902054811115611aba5760405162461bcd60e51b81526020600482015260116024820152706e6f7420656e6f75676820656e6572677960781b6044820152606401610958565b609754604051634b4116d760e11b8152600481018490526001600160a01b03909116906396822dae9060240160206040518083038186803b158015611afe57600080fd5b505afa158015611b12573d6000803e3d6000fd5b505050506040513d601f19601f82011682018060405250810190611b369190613ab2565b4210611b545760405162461bcd60e51b815260040161095890613c46565b60975460405163e06d2eb560e01b8152600481018490526001600160a01b039091169063e06d2eb59060240160206040518083038186803b158015611b9857600080fd5b505afa158015611bac573d6000803e3d6000fd5b505050506040513d601f19601f82011682018060405250810190611bd09190613ab2565b600114611c0a5760405162461bcd60e51b81526020600482015260086024820152671b9bdd08189d5b1b60c21b6044820152606401610958565b600082815260a9602052604081208054839290611c28908490613dad565b909155505033600090815260b2602052604081208054839290611c4c908490613d62565b9091555050614e20811115611c925760405162461bcd60e51b815260206004820152600c60248201526b1bdd5d081bd9881b1a5b5a5d60a21b6044820152606401610958565b604051819033907f8f34218a529508858e9054bf52c7957c414473b152ee72c5355e9ebe531cbae190600090a35050565b6033546001600160a01b03163314611ced5760405162461bcd60e51b815260040161095890613c6b565b610ede60a8838361359e565b60ae818154811061172d57600080fd5b6000828152609e602052604090205460ff16611d375760405162461bcd60e51b815260040161095890613bd1565b600082815260a060205260409020546001600160a01b03163314611d6d5760405162461bcd60e51b815260040161095890613d0e565b600082815260a96020526040902054811115611dbb5760405162461bcd60e51b815260206004820152600d60248201526c6f7574206f6620656e6572677960981b6044820152606401610958565b6000611dca6201518042613e0b565b611dd49042613dad565b905060a6548114611de55760a68190555b609754604051630f0a90ff60e41b8152600481018590526001600160a01b039091169063f0a90ff09060240160206040518083038186803b158015611e2957600080fd5b505afa158015611e3d573d6000803e3d6000fd5b505050506040513d601f19601f82011682018060405250810190611e619190613a7c565b15611eae5760405162461bcd60e51b815260206004820152601c60248201527f6372656174696f6e20436174746c652043616e206e6f742067726f77000000006044820152606401610958565b60a55460a654600090815260ab60209081526040808320878452909152902054611ed9908490613d62565b1115611f135760405162461bcd60e51b81526020600482015260096024820152681bdd5d081b1a5b5a5d60ba1b6044820152606401610958565b60a654600090815260ab6020908152604080832086845290915281208054849290611f3f908490613d62565b9091555050600083815260a9602052604081208054849290611f62908490613dad565b9091555050600083815260aa602052604081208054849290611f85908490613d62565b9091555050600083815260aa60205260409020546175301161200a5760975460405163211a1b1960e21b8152600481018590526001600160a01b03909116906384686c6490602401600060405180830381600087803b158015611fe757600080fd5b505af1158015611ffb573d6000803e3d6000fd5b5050505061200a336014612fd3565b604051829084907f3c8ddafc514cbe83f50a55fc5db847c9736adf809bcddeffd67c500e7261348390600090a3505050565b6033546001600160a01b031633146120665760405162461bcd60e51b815260040161095890613c6b565b6001600160a01b03828116600081815260a1602052604090819020805460ff1916851515908117909155609754915163a22cb46560e01b8152600481019390935260248301529091169063a22cb46590604401600060405180830381600087803b1580156120d357600080fd5b505af11580156120e7573d6000803e3d6000fd5b505050505050565b6033546001600160a01b031633146121195760405162461bcd60e51b815260040161095890613c6b565b805161212c90609c9060208401906135e9565b5050565b6033546001600160a01b0316331461215a5760405162461bcd60e51b815260040161095890613c6b565b609a80546001600160a01b0319166001600160a01b0392909216919091179055565b33600090815260a1602052604090205460ff166121ab5760405162461bcd60e51b815260040161095890613ceb565b600082815260a960205260409020548111156121f95760405162461bcd60e51b815260206004820152600d60248201526c6f7574206f6620656e6572677960981b6044820152606401610958565b609754604051634b4116d760e11b8152600481018490526001600160a01b03909116906396822dae9060240160206040518083038186803b15801561223d57600080fd5b505afa158015612251573d6000803e3d6000fd5b505050506040513d601f19601f820116820180604052508101906122759190613ab2565b42106122935760405162461bcd60e51b815260040161095890613c46565b600082815260a96020526040812080548392906122b1908490613dad565b90915550505050565b6000818152609f602052604081205460ff16156122e757506000908152609f602052604090205460ff1690565b50600090815260a26020526040902054421090565b6033546001600160a01b031633146123265760405162461bcd60e51b815260040161095890613c6b565b805161212c9060ae9060208401906135e9565b6033546001600160a01b031633146123635760405162461bcd60e51b815260040161095890613c6b565b61236d60006131d5565b565b6097546040516331a9108f60e11b8152600481018390526000916001600160a01b031690636352211e9060240160206040518083038186803b1580156123b457600080fd5b505afa1580156123c8573d6000803e3d6000fd5b505050506040513d601f19601f820116820180604052508101906123ec919061371f565b92915050565b6000838152609e602052604090205460ff166124205760405162461bcd60e51b815260040161095890613bd1565b600083815260a060205260409020546001600160a01b031633146124565760405162461bcd60e51b815260040161095890613d0e565b6003811115801561246657508015155b6124a05760405162461bcd60e51b815260206004820152600b60248201526a77726f6e6720747970657360a81b6044820152606401610958565b6124a9836122ba565b156124ed5760405162461bcd60e51b81526020600482015260146024820152737468697320636174746c65206973207573696e6760601b6044820152606401610958565b609754604051634b4116d760e11b8152600481018590526001600160a01b03909116906396822dae9060240160206040518083038186803b15801561253157600080fd5b505afa158015612545573d6000803e3d6000fd5b505050506040513d601f19601f820116820180604052508101906125699190613ab2565b42106125875760405162461bcd60e51b815260040161095890613c46565b60a454604051636711066d60e11b8152600481018390526000916001600160a01b03169063ce220cda9060240160606040518083038186803b1580156125cc57600080fd5b505afa1580156125e0573d6000803e3d6000fd5b505050506040513d601f19601f8201168201806040525081019061260491906138d4565b60a454604051637a94c56560e11b815233600482015260248101859052604481018690529192506001600160a01b03169063f5298aca90606401600060405180830381600087803b15801561265857600080fd5b505af115801561266c573d6000803e3d6000fd5b5050609754604051633f01ac5360e11b815260048101889052600093506001600160a01b039091169150637e0358a69060240160206040518083038186803b1580156126b757600080fd5b505afa1580156126cb573d6000803e3d6000fd5b505050506040513d601f19601f820116820180604052508101906126ef9190613ab2565b600086815260a96020526040902054909150819061270e908690613d62565b11156127515760405162461bcd60e51b81526020600482015260126024820152711bdd5d081bd988195b995c99de531a5b5a5d60721b6044820152606401610958565b815161275d9085613d8e565b600086815260a960205260408120805490919061277b908490613d62565b9091555084905060a36000612791600187613dad565b8152602001908152602001600020546127aa9190613d8e565b6127b49042613d62565b600086815260a26020526040808220929092559051859187917f5ca6e6057d17a1e118c804b45d136285d0e2d00a826ed5a5bcd483359cafb8ed9190a35050505050565b60006128046001613227565b9050801561281c576000805461ff0019166101001790555b6128246132af565b61282c6132d6565b6040805160a08101825260c8815261012c60208201526101c2918101919091526102a36060820152610546608082015261286a9060a8906005613624565b506040805160c0810182526064815260696020820152606e918101919091526073606082015260786080820152608260a08201526128ac9060af906006613665565b506040805160608101825260328152603c60208201526050918101919091526128d99060ae906003613665565b5060408051606081018252685150ae84a8cdf000008152686c6b935b8bbd400000602082015268a2a15d09519be000009181019190915261291e90609c9060036136a5565b5068056bc75e2d6310000060a75561271060a55560a36020526102587f69b4e8f94ad9e612080e13aad01219472d8c2c7ae7aa6cdf175400ddc8c4ed3d556103847fc3869149e653ab70ab3abed8edc49ed99ccd0c8cf7ca81486b7adbd034773b105560026000526104b07fe262b42e4ca35e2f1e405b90c91327b65c89bdbf5dd51dedc3459002050f6b7b5580156129f1576000805461ff0019169055604051600181527f7f26b83ff96e1f2b6a682f133852f6798a09c465da95921460cefb38474024989060200160405180910390a15b50565b33600090815260a1602052604090205460ff16612a235760405162461bcd60e51b815260040161095890613ceb565b6000918252609f6020526040909120805460ff1916911515919091179055565b6033546001600160a01b03163314612a6d5760405162461bcd60e51b815260040161095890613c6b565b60a480546001600160a01b0319166001600160a01b0392909216919091179055565b33600090815260ad602052604090205460021115612abb5733600090815260ad60205260409020600290555b33600090815260ad6020526040812054600190612ada90600290613d7a565b612ae49190613dad565b90506000609c8281548110612afb57612afb613e61565b90600052602060002001549050612b2f3360ae8481548110612b1f57612b1f613e61565b9060005260206000200154612fd3565b612b47336098546001600160a01b0316903084613306565b33600090815260ad60205260408120805491612b6283613df0565b91905055505050565b33600090815260a1602052604090205460ff16612b9a5760405162461bcd60e51b815260040161095890613ceb565b612ba3816122ba565b15612bdb5760405162461bcd60e51b81526020600482015260086024820152676973207573696e6760c01b6044820152606401610958565b600081815260a060209081526040808320546001600160a01b0316835260ad8252808320848452609e9092529091205460ff16612c2a5760405162461bcd60e51b815260040161095890613bd1565b6000612c39826002018461317a565b905080670de0b6b3a76400001415612c835760405162461bcd60e51b815260206004820152600d60248201526c1ddc9bdb99c81d1bdad95b9259609a1b6044820152606401610958565b600282018054612c9590600190613dad565b81548110612ca557612ca5613e61565b9060005260206000200154826002018281548110612cc557612cc5613e61565b60009182526020909120015560028201805480612ce457612ce4613e4b565b60008281526020808220600019908401810183905590920190925584825260a08152604080832080546001600160a01b0319169055609e90915290819020805460ff191690556097549051630852cd8d60e31b8152600481018590526001600160a01b03909116906342966c6890602401610e8a565b6033546001600160a01b03163314612d845760405162461bcd60e51b815260040161095890613c6b565b609d55565b6033546001600160a01b03163314612db35760405162461bcd60e51b815260040161095890613c6b565b609b80546001600160a01b0319166001600160a01b0392909216919091179055565b609c818154811061172d57600080fd5b60af818154811061172d57600080fd5b6001600160a01b038116600090815260ad602052604081205480612e17575060025b6000609c6001612e28600285613d7a565b612e329190613dad565b81548110612e4257612e42613e61565b600091825260209091200154949350505050565b6033546001600160a01b03163314612e805760405162461bcd60e51b815260040161095890613c6b565b805161212c9060af9060208401906135e9565b6033546001600160a01b03163314612ebd5760405162461bcd60e51b815260040161095890613c6b565b6001600160a01b038116612f225760405162461bcd60e51b815260206004820152602660248201527f4f776e61626c653a206e6577206f776e657220697320746865207a65726f206160448201526564647265737360d01b6064820152608401610958565b6129f1816131d5565b33600090815260a1602052604090205460ff16612f5a5760405162461bcd60e51b815260040161095890613ceb565b61212c8282612fd3565b6001600160a01b038116600090815260ad6020908152604091829020600201805483518184028101840190945280845260609392830182828015612fc757602002820191906000526020600020905b815481526020019060010190808311612fb3575b50505050509050919050565b6001600160a01b038216600090815260ad602052604090206001015467016345785d8a00001161301a576001600160a01b038216600090815260ad60205260408120600101555b6001600160a01b038216600090815260b0602052604090205460058110613070576001600160a01b038316600090815260ad602052604081206001018054849290613066908490613d62565b9091555050505050565b60a8818154811061308357613083613e61565b60009182526020808320909101546001600160a01b038616835260ad9091526040909120600101546130b6908490613d62565b1061314f57600060a882815481106130d0576130d0613e61565b60009182526020808320909101546001600160a01b038716835260ad909152604090912060010154613103908590613d62565b61310d9190613dad565b6001600160a01b038516600090815260ad6020908152604080832060010184905560b0909152812080549293509061314483613df0565b919050555050505050565b6001600160a01b038316600090815260ad602052604081206001018054849290613066908490613d62565b6000805b83548110156131c4578284828154811061319a5761319a613e61565b906000526020600020015414156131b25790506123ec565b806131bc81613df0565b91505061317e565b50670de0b6b3a76400009392505050565b603380546001600160a01b038381166001600160a01b0319831681179093556040519116919082907f8be0079c531659141344cd1fd0a4f28419497f9722a3daafe3b4186f6b6457e090600090a35050565b60008054610100900460ff161561326e578160ff16600114801561324a5750303b155b6132665760405162461bcd60e51b815260040161095890613bf8565b506000919050565b60005460ff8084169116106132955760405162461bcd60e51b815260040161095890613bf8565b506000805460ff191660ff92909216919091179055600190565b600054610100900460ff1661236d5760405162461bcd60e51b815260040161095890613ca0565b600054610100900460ff166132fd5760405162461bcd60e51b815260040161095890613ca0565b61236d336131d5565b604080516001600160a01b038581166024830152848116604483015260648083018590528351808403909101815260849092018352602080830180516001600160e01b03166323b872dd60e01b17905283518085019094528084527f5361666545524332303a206c6f772d6c6576656c2063616c6c206661696c656490840152610edc9287929160009161339e91851690849061341b565b805190915015610ede57808060200190518101906133bc9190613a7c565b610ede5760405162461bcd60e51b815260206004820152602a60248201527f5361666545524332303a204552433230206f7065726174696f6e20646964206e6044820152691bdd081cdd58d8d9595960b21b6064820152608401610958565b606061342a8484600085613434565b90505b9392505050565b6060824710156134955760405162461bcd60e51b815260206004820152602660248201527f416464726573733a20696e73756666696369656e742062616c616e636520666f6044820152651c8818d85b1b60d21b6064820152608401610958565b6001600160a01b0385163b6134ec5760405162461bcd60e51b815260206004820152601d60248201527f416464726573733a2063616c6c20746f206e6f6e2d636f6e74726163740000006044820152606401610958565b600080866001600160a01b031685876040516135089190613b3e565b60006040518083038185875af1925050503d8060008114613545576040519150601f19603f3d011682016040523d82523d6000602084013e61354a565b606091505b509150915061355a828286613565565b979650505050505050565b6060831561357457508161342d565b8251156135845782518084602001fd5b8160405162461bcd60e51b81526004016109589190613b9e565b8280548282559060005260206000209081019282156135d9579160200282015b828111156135d95782358255916020019190600101906135be565b506135e59291506136ed565b5090565b8280548282559060005260206000209081019282156135d9579160200282015b828111156135d9578251825591602001919060010190613609565b8280548282559060005260206000209081019282156135d9579160200282015b828111156135d9578251829061ffff16905591602001919060010190613644565b8280548282559060005260206000209081019282156135d9579160200282015b828111156135d9578251829060ff16905591602001919060010190613685565b8280548282559060005260206000209081019282156135d9579160200282015b828111156135d9578251829068ffffffffffffffffff169055916020019190600101906136c5565b5b808211156135e557600081556001016136ee565b60006020828403121561371457600080fd5b813561342d81613e8d565b60006020828403121561373157600080fd5b815161342d81613e8d565b6000806040838503121561374f57600080fd5b823561375a81613e8d565b9150602083013561376a81613e8d565b809150509250929050565b60008060006060848603121561378a57600080fd5b833561379581613e8d565b925060208401356137a581613e8d565b929592945050506040919091013590565b600080600080608085870312156137cc57600080fd5b84356137d781613e8d565b93506020858101356137e881613e8d565b935060408601359250606086013567ffffffffffffffff8082111561380c57600080fd5b818801915088601f83011261382057600080fd5b81358181111561383257613832613e77565b613844601f8201601f19168501613d31565b9150808252898482850101111561385a57600080fd5b808484018584013760008482840101525080935050505092959194509250565b6000806040838503121561388d57600080fd5b823561389881613e8d565b9150602083013561376a81613ea2565b600080604083850312156138bb57600080fd5b82356138c681613e8d565b946020939093013593505050565b6000606082840312156138e657600080fd5b82601f8301126138f557600080fd5b6040516060810181811067ffffffffffffffff8211171561391857613918613e77565b60405280836060810186101561392d57600080fd5b60005b600381101561394f578151835260209283019290910190600101613930565b509195945050505050565b6000806020838503121561396d57600080fd5b823567ffffffffffffffff8082111561398557600080fd5b818501915085601f83011261399957600080fd5b8135818111156139a857600080fd5b8660208260051b85010111156139bd57600080fd5b60209290920196919550909350505050565b600060208083850312156139e257600080fd5b823567ffffffffffffffff808211156139fa57600080fd5b818501915085601f830112613a0e57600080fd5b813581811115613a2057613a20613e77565b8060051b9150613a31848301613d31565b8181528481019084860184860187018a1015613a4c57600080fd5b600095505b83861015613a6f578035835260019590950194918601918601613a51565b5098975050505050505050565b600060208284031215613a8e57600080fd5b815161342d81613ea2565b600060208284031215613aab57600080fd5b5035919050565b600060208284031215613ac457600080fd5b5051919050565b60008060408385031215613ade57600080fd5b82359150602083013561376a81613ea2565b60008060408385031215613b0357600080fd5b50508035926020909101359150565b600080600060608486031215613b2757600080fd5b505081359360208301359350604090920135919050565b60008251613b50818460208701613dc4565b9190910192915050565b6020808252825182820181905260009190848201906040850190845b81811015613b9257835183529284019291840191600101613b76565b50909695505050505050565b6020815260008251806020840152613bbd816040850160208701613dc4565b601f01601f19169190910160400192915050565b6020808252600d908201526c6e6f7420696e20737461626c6560981b604082015260600190565b6020808252602e908201527f496e697469616c697a61626c653a20636f6e747261637420697320616c72656160408201526d191e481a5b9a5d1a585b1a5e995960921b606082015260800190565b6020808252600b908201526a6465616420636174746c6560a81b604082015260600190565b6020808252818101527f4f776e61626c653a2063616c6c6572206973206e6f7420746865206f776e6572604082015260600190565b6020808252602b908201527f496e697469616c697a61626c653a20636f6e7472616374206973206e6f74206960408201526a6e697469616c697a696e6760a81b606082015260800190565b6020808252600990820152683737ba1030b236b4b760b91b604082015260600190565b6020808252600990820152683737ba1037bbb732b960b91b604082015260600190565b604051601f8201601f1916810167ffffffffffffffff81118282101715613d5a57613d5a613e77565b604052919050565b60008219821115613d7557613d75613e1f565b500190565b600082613d8957613d89613e35565b500490565b6000816000190483118215151615613da857613da8613e1f565b500290565b600082821015613dbf57613dbf613e1f565b500390565b60005b83811015613ddf578181015183820152602001613dc7565b83811115610edc5750506000910152565b6000600019821415613e0457613e04613e1f565b5060010190565b600082613e1a57613e1a613e35565b500690565b634e487b7160e01b600052601160045260246000fd5b634e487b7160e01b600052601260045260246000fd5b634e487b7160e01b600052603160045260246000fd5b634e487b7160e01b600052603260045260246000fd5b634e487b7160e01b600052604160045260246000fd5b6001600160a01b03811681146129f157600080fd5b80151581146129f157600080fdfea264697066735822122088f6b5bf56fbd143ee456431cae98973de7ac1ed1189bcc9cce9285c574e4e7d64736f6c63430008070033",
			"opcodes": "PUSH1 0x80 PUSH1 0x40 MSTORE CALLVALUE DUP1 ISZERO PUSH2 0x10 JUMPI PUSH1 0x0 DUP1 REVERT JUMPDEST POP PUSH2 0x3EE6 DUP1 PUSH2 0x20 PUSH1 0x0 CODECOPY PUSH1 0x0 RETURN INVALID PUSH1 0x80 PUSH1 0x40 MSTORE CALLVALUE DUP1 ISZERO PUSH2 0x10 JUMPI PUSH1 0x0 DUP1 REVERT JUMPDEST POP PUSH1 0x4 CALLDATASIZE LT PUSH2 0x398 JUMPI PUSH1 0x0 CALLDATALOAD PUSH1 0xE0 SHR DUP1 PUSH4 0x704AA277 GT PUSH2 0x1E9 JUMPI DUP1 PUSH4 0x9B1FDCCD GT PUSH2 0x10F JUMPI DUP1 PUSH4 0xD53DC7EF GT PUSH2 0xAD JUMPI DUP1 PUSH4 0xF7EBB510 GT PUSH2 0x7C JUMPI DUP1 PUSH4 0xF7EBB510 EQ PUSH2 0x8B8 JUMPI DUP1 PUSH4 0xFA9496E9 EQ PUSH2 0x8E1 JUMPI DUP1 PUSH4 0xFDB03C66 EQ PUSH2 0x8F4 JUMPI DUP1 PUSH4 0xFF67E7CC EQ PUSH2 0x914 JUMPI PUSH1 0x0 DUP1 REVERT JUMPDEST DUP1 PUSH4 0xD53DC7EF EQ PUSH2 0x876 JUMPI DUP1 PUSH4 0xD76EC1A3 EQ PUSH2 0x87F JUMPI DUP1 PUSH4 0xEE0DD5D6 EQ PUSH2 0x892 JUMPI DUP1 PUSH4 0xF2FDE38B EQ PUSH2 0x8A5 JUMPI PUSH1 0x0 DUP1 REVERT JUMPDEST DUP1 PUSH4 0xB995A31F GT PUSH2 0xE9 JUMPI DUP1 PUSH4 0xB995A31F EQ PUSH2 0x81D JUMPI DUP1 PUSH4 0xC94BC86C EQ PUSH2 0x830 JUMPI DUP1 PUSH4 0xCEA01962 EQ PUSH2 0x850 JUMPI DUP1 PUSH4 0xD1C82F6E EQ PUSH2 0x863 JUMPI PUSH1 0x0 DUP1 REVERT JUMPDEST DUP1 PUSH4 0x9B1FDCCD EQ PUSH2 0x7E4 JUMPI DUP1 PUSH4 0xB1CE604F EQ PUSH2 0x7F7 JUMPI DUP1 PUSH4 0xB7A9DD0A EQ PUSH2 0x80A JUMPI PUSH1 0x0 DUP1 REVERT JUMPDEST DUP1 PUSH4 0x8443BEA6 GT PUSH2 0x187 JUMPI DUP1 PUSH4 0x9401E1D4 GT PUSH2 0x156 JUMPI DUP1 PUSH4 0x9401E1D4 EQ PUSH2 0x7A3 JUMPI DUP1 PUSH4 0x96490F3C EQ PUSH2 0x7B6 JUMPI DUP1 PUSH4 0x988D1A87 EQ PUSH2 0x7C9 JUMPI DUP1 PUSH4 0x9AB0436B EQ PUSH2 0x7DC JUMPI PUSH1 0x0 DUP1 REVERT JUMPDEST DUP1 PUSH4 0x8443BEA6 EQ PUSH2 0x749 JUMPI DUP1 PUSH4 0x87464389 EQ PUSH2 0x75C JUMPI DUP1 PUSH4 0x8CBF7CB3 EQ PUSH2 0x76F JUMPI DUP1 PUSH4 0x8DA5CB5B EQ PUSH2 0x792 JUMPI PUSH1 0x0 DUP1 REVERT JUMPDEST DUP1 PUSH4 0x78F9FACF GT PUSH2 0x1C3 JUMPI DUP1 PUSH4 0x78F9FACF EQ PUSH2 0x6DA JUMPI DUP1 PUSH4 0x7A0DEDF6 EQ PUSH2 0x6FA JUMPI DUP1 PUSH4 0x7E856ED6 EQ PUSH2 0x70D JUMPI DUP1 PUSH4 0x8129FC1C EQ PUSH2 0x741 JUMPI PUSH1 0x0 DUP1 REVERT JUMPDEST DUP1 PUSH4 0x704AA277 EQ PUSH2 0x6AC JUMPI DUP1 PUSH4 0x715018A6 EQ PUSH2 0x6BF JUMPI DUP1 PUSH4 0x786673C5 EQ PUSH2 0x6C7 JUMPI PUSH1 0x0 DUP1 REVERT JUMPDEST DUP1 PUSH4 0x2CC5AF88 GT PUSH2 0x2CE JUMPI DUP1 PUSH4 0x4D6E3452 GT PUSH2 0x26C JUMPI DUP1 PUSH4 0x61C46B25 GT PUSH2 0x23B JUMPI DUP1 PUSH4 0x61C46B25 EQ PUSH2 0x62A JUMPI DUP1 PUSH4 0x63A846F8 EQ PUSH2 0x63D JUMPI DUP1 PUSH4 0x6B1AA157 EQ PUSH2 0x670 JUMPI DUP1 PUSH4 0x700A63F0 EQ PUSH2 0x683 JUMPI PUSH1 0x0 DUP1 REVERT JUMPDEST DUP1 PUSH4 0x4D6E3452 EQ PUSH2 0x5D1 JUMPI DUP1 PUSH4 0x56813019 EQ PUSH2 0x5F1 JUMPI DUP1 PUSH4 0x5F24B4A4 EQ PUSH2 0x604 JUMPI DUP1 PUSH4 0x60151DB0 EQ PUSH2 0x617 JUMPI PUSH1 0x0 DUP1 REVERT JUMPDEST DUP1 PUSH4 0x471E130F GT PUSH2 0x2A8 JUMPI DUP1 PUSH4 0x471E130F EQ PUSH2 0x58F JUMPI DUP1 PUSH4 0x47DA57D1 EQ PUSH2 0x5A2 JUMPI DUP1 PUSH4 0x48C62D14 EQ PUSH2 0x5AB JUMPI DUP1 PUSH4 0x4B0BDDD2 EQ PUSH2 0x5BE JUMPI PUSH1 0x0 DUP1 REVERT JUMPDEST DUP1 PUSH4 0x2CC5AF88 EQ PUSH2 0x53E JUMPI DUP1 PUSH4 0x2E161C0B EQ PUSH2 0x551 JUMPI DUP1 PUSH4 0x3453478F EQ PUSH2 0x564 JUMPI PUSH1 0x0 DUP1 REVERT JUMPDEST DUP1 PUSH4 0x1DDBD167 GT PUSH2 0x33B JUMPI DUP1 PUSH4 0x264B5387 GT PUSH2 0x315 JUMPI DUP1 PUSH4 0x264B5387 EQ PUSH2 0x4EF JUMPI DUP1 PUSH4 0x28531F06 EQ PUSH2 0x502 JUMPI DUP1 PUSH4 0x2A36624B EQ PUSH2 0x522 JUMPI DUP1 PUSH4 0x2BB4AD5D EQ PUSH2 0x52B JUMPI PUSH1 0x0 DUP1 REVERT JUMPDEST DUP1 PUSH4 0x1DDBD167 EQ PUSH2 0x4A9 JUMPI DUP1 PUSH4 0x21353FD5 EQ PUSH2 0x4BC JUMPI DUP1 PUSH4 0x255A8B86 EQ PUSH2 0x4DC JUMPI PUSH1 0x0 DUP1 REVERT JUMPDEST DUP1 PUSH4 0x150B7A02 GT PUSH2 0x377 JUMPI DUP1 PUSH4 0x150B7A02 EQ PUSH2 0x410 JUMPI DUP1 PUSH4 0x18CCE8FC EQ PUSH2 0x447 JUMPI DUP1 PUSH4 0x1959A002 EQ PUSH2 0x45A JUMPI DUP1 PUSH4 0x1DA26A8B EQ PUSH2 0x496 JUMPI PUSH1 0x0 DUP1 REVERT JUMPDEST DUP1 PUSH3 0xE00064 EQ PUSH2 0x39D JUMPI DUP1 PUSH4 0x1C211C7 EQ PUSH2 0x3D0 JUMPI DUP1 PUSH4 0x1349AC3B EQ PUSH2 0x3FB JUMPI JUMPDEST PUSH1 0x0 DUP1 REVERT JUMPDEST PUSH2 0x3BD PUSH2 0x3AB CALLDATASIZE PUSH1 0x4 PUSH2 0x3A99 JUMP JUMPDEST PUSH1 0xA2 PUSH1 0x20 MSTORE PUSH1 0x0 SWAP1 DUP2 MSTORE PUSH1 0x40 SWAP1 KECCAK256 SLOAD DUP2 JUMP JUMPDEST PUSH1 0x40 MLOAD SWAP1 DUP2 MSTORE PUSH1 0x20 ADD JUMPDEST PUSH1 0x40 MLOAD DUP1 SWAP2 SUB SWAP1 RETURN JUMPDEST PUSH1 0x97 SLOAD PUSH2 0x3E3 SWAP1 PUSH1 0x1 PUSH1 0x1 PUSH1 0xA0 SHL SUB AND DUP2 JUMP JUMPDEST PUSH1 0x40 MLOAD PUSH1 0x1 PUSH1 0x1 PUSH1 0xA0 SHL SUB SWAP1 SWAP2 AND DUP2 MSTORE PUSH1 0x20 ADD PUSH2 0x3C7 JUMP JUMPDEST PUSH2 0x40E PUSH2 0x409 CALLDATASIZE PUSH1 0x4 PUSH2 0x3AF0 JUMP JUMPDEST PUSH2 0x91D JUMP JUMPDEST STOP JUMPDEST PUSH2 0x42E PUSH2 0x41E CALLDATASIZE PUSH1 0x4 PUSH2 0x37B6 JUMP JUMPDEST PUSH4 0xA85BD01 PUSH1 0xE1 SHL SWAP5 SWAP4 POP POP POP POP JUMP JUMPDEST PUSH1 0x40 MLOAD PUSH1 0x1 PUSH1 0x1 PUSH1 0xE0 SHL SUB NOT SWAP1 SWAP2 AND DUP2 MSTORE PUSH1 0x20 ADD PUSH2 0x3C7 JUMP JUMPDEST PUSH2 0x40E PUSH2 0x455 CALLDATASIZE PUSH1 0x4 PUSH2 0x3A99 JUMP JUMPDEST PUSH2 0xBA1 JUMP JUMPDEST PUSH2 0x481 PUSH2 0x468 CALLDATASIZE PUSH1 0x4 PUSH2 0x3702 JUMP JUMPDEST PUSH1 0xAD PUSH1 0x20 MSTORE PUSH1 0x0 SWAP1 DUP2 MSTORE PUSH1 0x40 SWAP1 KECCAK256 DUP1 SLOAD PUSH1 0x1 SWAP1 SWAP2 ADD SLOAD DUP3 JUMP JUMPDEST PUSH1 0x40 DUP1 MLOAD SWAP3 DUP4 MSTORE PUSH1 0x20 DUP4 ADD SWAP2 SWAP1 SWAP2 MSTORE ADD PUSH2 0x3C7 JUMP JUMPDEST PUSH2 0x40E PUSH2 0x4A4 CALLDATASIZE PUSH1 0x4 PUSH2 0x373C JUMP JUMPDEST PUSH2 0xEE3 JUMP JUMPDEST PUSH2 0x40E PUSH2 0x4B7 CALLDATASIZE PUSH1 0x4 PUSH2 0x3702 JUMP JUMPDEST PUSH2 0xF3B JUMP JUMPDEST PUSH2 0x3BD PUSH2 0x4CA CALLDATASIZE PUSH1 0x4 PUSH2 0x3A99 JUMP JUMPDEST PUSH1 0xB1 PUSH1 0x20 MSTORE PUSH1 0x0 SWAP1 DUP2 MSTORE PUSH1 0x40 SWAP1 KECCAK256 SLOAD DUP2 JUMP JUMPDEST PUSH2 0x40E PUSH2 0x4EA CALLDATASIZE PUSH1 0x4 PUSH2 0x3B12 JUMP JUMPDEST PUSH2 0xF87 JUMP JUMPDEST PUSH2 0x3BD PUSH2 0x4FD CALLDATASIZE PUSH1 0x4 PUSH2 0x3A99 JUMP JUMPDEST PUSH2 0x171D JUMP JUMPDEST PUSH2 0x3BD PUSH2 0x510 CALLDATASIZE PUSH1 0x4 PUSH2 0x3A99 JUMP JUMPDEST PUSH1 0xAA PUSH1 0x20 MSTORE PUSH1 0x0 SWAP1 DUP2 MSTORE PUSH1 0x40 SWAP1 KECCAK256 SLOAD DUP2 JUMP JUMPDEST PUSH2 0x3BD PUSH1 0x9D SLOAD DUP2 JUMP JUMPDEST PUSH2 0x40E PUSH2 0x539 CALLDATASIZE PUSH1 0x4 PUSH2 0x3A99 JUMP JUMPDEST PUSH2 0x173E JUMP JUMPDEST PUSH2 0x40E PUSH2 0x54C CALLDATASIZE PUSH1 0x4 PUSH2 0x3AF0 JUMP JUMPDEST PUSH2 0x1A04 JUMP JUMPDEST PUSH2 0x40E PUSH2 0x55F CALLDATASIZE PUSH1 0x4 PUSH2 0x395A JUMP JUMPDEST PUSH2 0x1CC3 JUMP JUMPDEST PUSH2 0x3BD PUSH2 0x572 CALLDATASIZE PUSH1 0x4 PUSH2 0x3AF0 JUMP JUMPDEST PUSH1 0xAB PUSH1 0x20 SWAP1 DUP2 MSTORE PUSH1 0x0 SWAP3 DUP4 MSTORE PUSH1 0x40 DUP1 DUP5 KECCAK256 SWAP1 SWAP2 MSTORE SWAP1 DUP3 MSTORE SWAP1 KECCAK256 SLOAD DUP2 JUMP JUMPDEST PUSH2 0x3BD PUSH2 0x59D CALLDATASIZE PUSH1 0x4 PUSH2 0x3A99 JUMP JUMPDEST PUSH2 0x1CF9 JUMP JUMPDEST PUSH2 0x3BD PUSH1 0xA7 SLOAD DUP2 JUMP JUMPDEST PUSH2 0x40E PUSH2 0x5B9 CALLDATASIZE PUSH1 0x4 PUSH2 0x3AF0 JUMP JUMPDEST PUSH2 0x1D09 JUMP JUMPDEST PUSH2 0x40E PUSH2 0x5CC CALLDATASIZE PUSH1 0x4 PUSH2 0x387A JUMP JUMPDEST PUSH2 0x203C JUMP JUMPDEST PUSH2 0x3BD PUSH2 0x5DF CALLDATASIZE PUSH1 0x4 PUSH2 0x3702 JUMP JUMPDEST PUSH1 0xB2 PUSH1 0x20 MSTORE PUSH1 0x0 SWAP1 DUP2 MSTORE PUSH1 0x40 SWAP1 KECCAK256 SLOAD DUP2 JUMP JUMPDEST PUSH2 0x40E PUSH2 0x5FF CALLDATASIZE PUSH1 0x4 PUSH2 0x39CF JUMP JUMPDEST PUSH2 0x20EF JUMP JUMPDEST PUSH1 0x98 SLOAD PUSH2 0x3E3 SWAP1 PUSH1 0x1 PUSH1 0x1 PUSH1 0xA0 SHL SUB AND DUP2 JUMP JUMPDEST PUSH2 0x40E PUSH2 0x625 CALLDATASIZE PUSH1 0x4 PUSH2 0x3702 JUMP JUMPDEST PUSH2 0x2130 JUMP JUMPDEST PUSH2 0x40E PUSH2 0x638 CALLDATASIZE PUSH1 0x4 PUSH2 0x3AF0 JUMP JUMPDEST PUSH2 0x217C JUMP JUMPDEST PUSH2 0x660 PUSH2 0x64B CALLDATASIZE PUSH1 0x4 PUSH2 0x3702 JUMP JUMPDEST PUSH1 0xA1 PUSH1 0x20 MSTORE PUSH1 0x0 SWAP1 DUP2 MSTORE PUSH1 0x40 SWAP1 KECCAK256 SLOAD PUSH1 0xFF AND DUP2 JUMP JUMPDEST PUSH1 0x40 MLOAD SWAP1 ISZERO ISZERO DUP2 MSTORE PUSH1 0x20 ADD PUSH2 0x3C7 JUMP JUMPDEST PUSH2 0x660 PUSH2 0x67E CALLDATASIZE PUSH1 0x4 PUSH2 0x3A99 JUMP JUMPDEST PUSH2 0x22BA JUMP JUMPDEST PUSH2 0x3BD PUSH2 0x691 CALLDATASIZE PUSH1 0x4 PUSH2 0x3702 JUMP JUMPDEST PUSH1 0x1 PUSH1 0x1 PUSH1 0xA0 SHL SUB AND PUSH1 0x0 SWAP1 DUP2 MSTORE PUSH1 0xB0 PUSH1 0x20 MSTORE PUSH1 0x40 SWAP1 KECCAK256 SLOAD SWAP1 JUMP JUMPDEST PUSH2 0x40E PUSH2 0x6BA CALLDATASIZE PUSH1 0x4 PUSH2 0x39CF JUMP JUMPDEST PUSH2 0x22FC JUMP JUMPDEST PUSH2 0x40E PUSH2 0x2339 JUMP JUMPDEST PUSH2 0x3E3 PUSH2 0x6D5 CALLDATASIZE PUSH1 0x4 PUSH2 0x3A99 JUMP JUMPDEST PUSH2 0x236F JUMP JUMPDEST PUSH2 0x3BD PUSH2 0x6E8 CALLDATASIZE PUSH1 0x4 PUSH2 0x3A99 JUMP JUMPDEST PUSH1 0xA9 PUSH1 0x20 MSTORE PUSH1 0x0 SWAP1 DUP2 MSTORE PUSH1 0x40 SWAP1 KECCAK256 SLOAD DUP2 JUMP JUMPDEST PUSH2 0x40E PUSH2 0x708 CALLDATASIZE PUSH1 0x4 PUSH2 0x3B12 JUMP JUMPDEST PUSH2 0x23F2 JUMP JUMPDEST PUSH2 0x660 PUSH2 0x71B CALLDATASIZE PUSH1 0x4 PUSH2 0x3775 JUMP JUMPDEST PUSH1 0xAC PUSH1 0x20 SWAP1 DUP2 MSTORE PUSH1 0x0 SWAP4 DUP5 MSTORE PUSH1 0x40 DUP1 DUP6 KECCAK256 DUP3 MSTORE SWAP3 DUP5 MSTORE DUP3 DUP5 KECCAK256 SWAP1 MSTORE DUP3 MSTORE SWAP1 KECCAK256 SLOAD PUSH1 0xFF AND DUP2 JUMP JUMPDEST PUSH2 0x40E PUSH2 0x27F8 JUMP JUMPDEST PUSH1 0x9A SLOAD PUSH2 0x3E3 SWAP1 PUSH1 0x1 PUSH1 0x1 PUSH1 0xA0 SHL SUB AND DUP2 JUMP JUMPDEST PUSH1 0x99 SLOAD PUSH2 0x3E3 SWAP1 PUSH1 0x1 PUSH1 0x1 PUSH1 0xA0 SHL SUB AND DUP2 JUMP JUMPDEST PUSH2 0x660 PUSH2 0x77D CALLDATASIZE PUSH1 0x4 PUSH2 0x3A99 JUMP JUMPDEST PUSH1 0x9E PUSH1 0x20 MSTORE PUSH1 0x0 SWAP1 DUP2 MSTORE PUSH1 0x40 SWAP1 KECCAK256 SLOAD PUSH1 0xFF AND DUP2 JUMP JUMPDEST PUSH1 0x33 SLOAD PUSH1 0x1 PUSH1 0x1 PUSH1 0xA0 SHL SUB AND PUSH2 0x3E3 JUMP JUMPDEST PUSH1 0xA4 SLOAD PUSH2 0x3E3 SWAP1 PUSH1 0x1 PUSH1 0x1 PUSH1 0xA0 SHL SUB AND DUP2 JUMP JUMPDEST PUSH2 0x40E PUSH2 0x7C4 CALLDATASIZE PUSH1 0x4 PUSH2 0x3ACB JUMP JUMPDEST PUSH2 0x29F4 JUMP JUMPDEST PUSH2 0x40E PUSH2 0x7D7 CALLDATASIZE PUSH1 0x4 PUSH2 0x3702 JUMP JUMPDEST PUSH2 0x2A43 JUMP JUMPDEST PUSH2 0x40E PUSH2 0x2A8F JUMP JUMPDEST PUSH2 0x40E PUSH2 0x7F2 CALLDATASIZE PUSH1 0x4 PUSH2 0x3A99 JUMP JUMPDEST PUSH2 0x2B6B JUMP JUMPDEST PUSH2 0x40E PUSH2 0x805 CALLDATASIZE PUSH1 0x4 PUSH2 0x3A99 JUMP JUMPDEST PUSH2 0x2D5A JUMP JUMPDEST PUSH2 0x40E PUSH2 0x818 CALLDATASIZE PUSH1 0x4 PUSH2 0x3702 JUMP JUMPDEST PUSH2 0x2D89 JUMP JUMPDEST PUSH2 0x3BD PUSH2 0x82B CALLDATASIZE PUSH1 0x4 PUSH2 0x3A99 JUMP JUMPDEST PUSH2 0x2DD5 JUMP JUMPDEST PUSH2 0x3BD PUSH2 0x83E CALLDATASIZE PUSH1 0x4 PUSH2 0x3A99 JUMP JUMPDEST PUSH1 0xA3 PUSH1 0x20 MSTORE PUSH1 0x0 SWAP1 DUP2 MSTORE PUSH1 0x40 SWAP1 KECCAK256 SLOAD DUP2 JUMP JUMPDEST PUSH2 0x3BD PUSH2 0x85E CALLDATASIZE PUSH1 0x4 PUSH2 0x3A99 JUMP JUMPDEST PUSH2 0x2DE5 JUMP JUMPDEST PUSH2 0x3BD PUSH2 0x871 CALLDATASIZE PUSH1 0x4 PUSH2 0x3702 JUMP JUMPDEST PUSH2 0x2DF5 JUMP JUMPDEST PUSH2 0x3BD PUSH1 0xA6 SLOAD DUP2 JUMP JUMPDEST PUSH1 0x9B SLOAD PUSH2 0x3E3 SWAP1 PUSH1 0x1 PUSH1 0x1 PUSH1 0xA0 SHL SUB AND DUP2 JUMP JUMPDEST PUSH2 0x40E PUSH2 0x8A0 CALLDATASIZE PUSH1 0x4 PUSH2 0x39CF JUMP JUMPDEST PUSH2 0x2E56 JUMP JUMPDEST PUSH2 0x40E PUSH2 0x8B3 CALLDATASIZE PUSH1 0x4 PUSH2 0x3702 JUMP JUMPDEST PUSH2 0x2E93 JUMP JUMPDEST PUSH2 0x3E3 PUSH2 0x8C6 CALLDATASIZE PUSH1 0x4 PUSH2 0x3A99 JUMP JUMPDEST PUSH1 0xA0 PUSH1 0x20 MSTORE PUSH1 0x0 SWAP1 DUP2 MSTORE PUSH1 0x40 SWAP1 KECCAK256 SLOAD PUSH1 0x1 PUSH1 0x1 PUSH1 0xA0 SHL SUB AND DUP2 JUMP JUMPDEST PUSH2 0x40E PUSH2 0x8EF CALLDATASIZE PUSH1 0x4 PUSH2 0x38A8 JUMP JUMPDEST PUSH2 0x2F2B JUMP JUMPDEST PUSH2 0x907 PUSH2 0x902 CALLDATASIZE PUSH1 0x4 PUSH2 0x3702 JUMP JUMPDEST PUSH2 0x2F64 JUMP JUMPDEST PUSH1 0x40 MLOAD PUSH2 0x3C7 SWAP2 SWAP1 PUSH2 0x3B5A JUMP JUMPDEST PUSH2 0x3BD PUSH1 0xA5 SLOAD DUP2 JUMP JUMPDEST PUSH1 0x3 DUP3 GT PUSH2 0x961 JUMPI PUSH1 0x40 MLOAD PUSH3 0x461BCD PUSH1 0xE5 SHL DUP2 MSTORE PUSH1 0x20 PUSH1 0x4 DUP3 ADD MSTORE PUSH1 0xC PUSH1 0x24 DUP3 ADD MSTORE PUSH12 0x1DDC9BDB99C81A5D195B5259 PUSH1 0xA2 SHL PUSH1 0x44 DUP3 ADD MSTORE PUSH1 0x64 ADD JUMPDEST PUSH1 0x40 MLOAD DUP1 SWAP2 SUB SWAP1 REVERT JUMPDEST PUSH1 0xA4 SLOAD PUSH1 0x40 MLOAD PUSH4 0x6711066D PUSH1 0xE1 SHL DUP2 MSTORE PUSH1 0x4 DUP2 ADD DUP5 SWAP1 MSTORE PUSH1 0x0 SWAP2 PUSH1 0x1 PUSH1 0x1 PUSH1 0xA0 SHL SUB AND SWAP1 PUSH4 0xCE220CDA SWAP1 PUSH1 0x24 ADD PUSH1 0x60 PUSH1 0x40 MLOAD DUP1 DUP4 SUB DUP2 DUP7 DUP1 EXTCODESIZE ISZERO DUP1 ISZERO PUSH2 0x9A6 JUMPI PUSH1 0x0 DUP1 REVERT JUMPDEST POP GAS STATICCALL ISZERO DUP1 ISZERO PUSH2 0x9BA JUMPI RETURNDATASIZE PUSH1 0x0 DUP1 RETURNDATACOPY RETURNDATASIZE PUSH1 0x0 REVERT JUMPDEST POP POP POP POP PUSH1 0x40 MLOAD RETURNDATASIZE PUSH1 0x1F NOT PUSH1 0x1F DUP3 ADD AND DUP3 ADD DUP1 PUSH1 0x40 MSTORE POP DUP2 ADD SWAP1 PUSH2 0x9DE SWAP2 SWAP1 PUSH2 0x38D4 JUMP JUMPDEST DUP1 MLOAD SWAP1 SWAP2 POP PUSH2 0xA1F JUMPI PUSH1 0x40 MLOAD PUSH3 0x461BCD PUSH1 0xE5 SHL DUP2 MSTORE PUSH1 0x20 PUSH1 0x4 DUP3 ADD MSTORE PUSH1 0xD PUSH1 0x24 DUP3 ADD MSTORE PUSH13 0x1DDC9BDB99C8125A5D195B5259 PUSH1 0x9A SHL PUSH1 0x44 DUP3 ADD MSTORE PUSH1 0x64 ADD PUSH2 0x958 JUMP JUMPDEST DUP1 MLOAD PUSH2 0xA2C SWAP1 DUP4 SWAP1 PUSH2 0x3D8E JUMP JUMPDEST CALLER PUSH1 0x0 SWAP1 DUP2 MSTORE PUSH1 0xB2 PUSH1 0x20 MSTORE PUSH1 0x40 DUP2 KECCAK256 DUP1 SLOAD SWAP1 SWAP2 SWAP1 PUSH2 0xA4B SWAP1 DUP5 SWAP1 PUSH2 0x3D62 JUMP JUMPDEST SWAP1 SWAP2 SSTORE POP POP DUP1 MLOAD PUSH2 0x4E20 SWAP1 PUSH2 0xA61 SWAP1 DUP5 SWAP1 PUSH2 0x3D8E JUMP JUMPDEST GT ISZERO PUSH2 0xA9E JUMPI PUSH1 0x40 MLOAD PUSH3 0x461BCD PUSH1 0xE5 SHL DUP2 MSTORE PUSH1 0x20 PUSH1 0x4 DUP3 ADD MSTORE PUSH1 0xC PUSH1 0x24 DUP3 ADD MSTORE PUSH12 0x1BDD5D081BD9881B1A5B5A5D PUSH1 0xA2 SHL PUSH1 0x44 DUP3 ADD MSTORE PUSH1 0x64 ADD PUSH2 0x958 JUMP JUMPDEST PUSH1 0xA4 SLOAD PUSH1 0x40 MLOAD PUSH4 0x6D83CEFF PUSH1 0xE0 SHL DUP2 MSTORE PUSH1 0x4 DUP2 ADD DUP6 SWAP1 MSTORE PUSH2 0xB30 SWAP2 CALLER SWAP2 DUP6 SWAP2 PUSH1 0x1 PUSH1 0x1 PUSH1 0xA0 SHL SUB AND SWAP1 PUSH4 0x6D83CEFF SWAP1 PUSH1 0x24 ADD JUMPDEST PUSH1 0x20 PUSH1 0x40 MLOAD DUP1 DUP4 SUB DUP2 DUP7 DUP1 EXTCODESIZE ISZERO DUP1 ISZERO PUSH2 0xAE9 JUMPI PUSH1 0x0 DUP1 REVERT JUMPDEST POP GAS STATICCALL ISZERO DUP1 ISZERO PUSH2 0xAFD JUMPI RETURNDATASIZE PUSH1 0x0 DUP1 RETURNDATACOPY RETURNDATASIZE PUSH1 0x0 REVERT JUMPDEST POP POP POP POP PUSH1 0x40 MLOAD RETURNDATASIZE PUSH1 0x1F NOT PUSH1 0x1F DUP3 ADD AND DUP3 ADD DUP1 PUSH1 0x40 MSTORE POP DUP2 ADD SWAP1 PUSH2 0xB21 SWAP2 SWAP1 PUSH2 0x3AB2 JUMP JUMPDEST PUSH2 0xB2B SWAP2 SWAP1 PUSH2 0x3D8E JUMP JUMPDEST PUSH2 0x2FD3 JUMP JUMPDEST PUSH1 0xA4 SLOAD PUSH1 0x40 MLOAD PUSH4 0x7A94C565 PUSH1 0xE1 SHL DUP2 MSTORE CALLER PUSH1 0x4 DUP3 ADD MSTORE PUSH1 0x24 DUP2 ADD DUP6 SWAP1 MSTORE PUSH1 0x44 DUP2 ADD DUP5 SWAP1 MSTORE PUSH1 0x1 PUSH1 0x1 PUSH1 0xA0 SHL SUB SWAP1 SWAP2 AND SWAP1 PUSH4 0xF5298ACA SWAP1 PUSH1 0x64 ADD JUMPDEST PUSH1 0x0 PUSH1 0x40 MLOAD DUP1 DUP4 SUB DUP2 PUSH1 0x0 DUP8 DUP1 EXTCODESIZE ISZERO DUP1 ISZERO PUSH2 0xB84 JUMPI PUSH1 0x0 DUP1 REVERT JUMPDEST POP GAS CALL ISZERO DUP1 ISZERO PUSH2 0xB98 JUMPI RETURNDATASIZE PUSH1 0x0 DUP1 RETURNDATACOPY RETURNDATASIZE PUSH1 0x0 REVERT JUMPDEST POP POP POP POP POP POP POP JUMP JUMPDEST PUSH2 0xBAA DUP2 PUSH2 0x22BA JUMP JUMPDEST ISZERO PUSH2 0xBE2 JUMPI PUSH1 0x40 MLOAD PUSH3 0x461BCD PUSH1 0xE5 SHL DUP2 MSTORE PUSH1 0x20 PUSH1 0x4 DUP3 ADD MSTORE PUSH1 0x8 PUSH1 0x24 DUP3 ADD MSTORE PUSH8 0x6973205573696E67 PUSH1 0xC0 SHL PUSH1 0x44 DUP3 ADD MSTORE PUSH1 0x64 ADD PUSH2 0x958 JUMP JUMPDEST CALLER PUSH1 0x0 DUP2 DUP2 MSTORE PUSH1 0xAD PUSH1 0x20 SWAP1 DUP2 MSTORE PUSH1 0x40 DUP1 DUP4 KECCAK256 DUP6 DUP5 MSTORE PUSH1 0xA0 SWAP1 SWAP3 MSTORE SWAP1 SWAP2 KECCAK256 SLOAD SWAP1 SWAP2 PUSH1 0x1 PUSH1 0x1 PUSH1 0xA0 SHL SUB SWAP1 SWAP2 AND EQ PUSH2 0xC2A JUMPI PUSH1 0x40 MLOAD PUSH3 0x461BCD PUSH1 0xE5 SHL DUP2 MSTORE PUSH1 0x4 ADD PUSH2 0x958 SWAP1 PUSH2 0x3D0E JUMP JUMPDEST PUSH1 0x0 DUP3 DUP2 MSTORE PUSH1 0x9E PUSH1 0x20 MSTORE PUSH1 0x40 SWAP1 KECCAK256 SLOAD PUSH1 0xFF AND PUSH2 0xC58 JUMPI PUSH1 0x40 MLOAD PUSH3 0x461BCD PUSH1 0xE5 SHL DUP2 MSTORE PUSH1 0x4 ADD PUSH2 0x958 SWAP1 PUSH2 0x3BD1 JUMP JUMPDEST PUSH1 0x2 DUP2 ADD SLOAD PUSH2 0xC9E JUMPI PUSH1 0x40 MLOAD PUSH3 0x461BCD PUSH1 0xE5 SHL DUP2 MSTORE PUSH1 0x20 PUSH1 0x4 DUP3 ADD MSTORE PUSH1 0x12 PUSH1 0x24 DUP3 ADD MSTORE PUSH18 0x206E6F20636F777320696E20737461626C65 PUSH1 0x70 SHL PUSH1 0x44 DUP3 ADD MSTORE PUSH1 0x64 ADD PUSH2 0x958 JUMP JUMPDEST PUSH1 0x0 PUSH2 0xCAD DUP3 PUSH1 0x2 ADD DUP5 PUSH2 0x317A JUMP JUMPDEST SWAP1 POP DUP1 PUSH8 0xDE0B6B3A7640000 EQ ISZERO PUSH2 0xCF7 JUMPI PUSH1 0x40 MLOAD PUSH3 0x461BCD PUSH1 0xE5 SHL DUP2 MSTORE PUSH1 0x20 PUSH1 0x4 DUP3 ADD MSTORE PUSH1 0xD PUSH1 0x24 DUP3 ADD MSTORE PUSH13 0x1DDC9BDB99C81D1BDAD95B9259 PUSH1 0x9A SHL PUSH1 0x44 DUP3 ADD MSTORE PUSH1 0x64 ADD PUSH2 0x958 JUMP JUMPDEST PUSH1 0x2 DUP3 ADD DUP1 SLOAD PUSH2 0xD09 SWAP1 PUSH1 0x1 SWAP1 PUSH2 0x3DAD JUMP JUMPDEST DUP2 SLOAD DUP2 LT PUSH2 0xD19 JUMPI PUSH2 0xD19 PUSH2 0x3E61 JUMP JUMPDEST SWAP1 PUSH1 0x0 MSTORE PUSH1 0x20 PUSH1 0x0 KECCAK256 ADD SLOAD DUP3 PUSH1 0x2 ADD DUP3 DUP2 SLOAD DUP2 LT PUSH2 0xD39 JUMPI PUSH2 0xD39 PUSH2 0x3E61 JUMP JUMPDEST PUSH1 0x0 SWAP2 DUP3 MSTORE PUSH1 0x20 SWAP1 SWAP2 KECCAK256 ADD SSTORE PUSH1 0x2 DUP3 ADD DUP1 SLOAD DUP1 PUSH2 0xD58 JUMPI PUSH2 0xD58 PUSH2 0x3E4B JUMP JUMPDEST PUSH1 0x0 DUP3 DUP2 MSTORE PUSH1 0x20 DUP1 DUP3 KECCAK256 PUSH1 0x0 NOT SWAP1 DUP5 ADD DUP2 ADD DUP4 SWAP1 SSTORE SWAP1 SWAP3 ADD SWAP1 SWAP3 SSTORE DUP5 DUP3 MSTORE PUSH1 0xA0 DUP2 MSTORE PUSH1 0x40 DUP1 DUP4 KECCAK256 DUP1 SLOAD PUSH1 0x1 PUSH1 0x1 PUSH1 0xA0 SHL SUB NOT AND SWAP1 SSTORE PUSH1 0x9E SWAP1 SWAP2 MSTORE SWAP1 DUP2 SWAP1 KECCAK256 DUP1 SLOAD PUSH1 0xFF NOT AND SWAP1 SSTORE PUSH1 0x97 SLOAD SWAP1 MLOAD PUSH4 0x4B4116D7 PUSH1 0xE1 SHL DUP2 MSTORE PUSH1 0x4 DUP2 ADD DUP6 SWAP1 MSTORE PUSH1 0x1 PUSH1 0x1 PUSH1 0xA0 SHL SUB SWAP1 SWAP2 AND SWAP1 PUSH4 0x96822DAE SWAP1 PUSH1 0x24 ADD PUSH1 0x20 PUSH1 0x40 MLOAD DUP1 DUP4 SUB DUP2 DUP7 DUP1 EXTCODESIZE ISZERO DUP1 ISZERO PUSH2 0xDE1 JUMPI PUSH1 0x0 DUP1 REVERT JUMPDEST POP GAS STATICCALL ISZERO DUP1 ISZERO PUSH2 0xDF5 JUMPI RETURNDATASIZE PUSH1 0x0 DUP1 RETURNDATACOPY RETURNDATASIZE PUSH1 0x0 REVERT JUMPDEST POP POP POP POP PUSH1 0x40 MLOAD RETURNDATASIZE PUSH1 0x1F NOT PUSH1 0x1F DUP3 ADD AND DUP3 ADD DUP1 PUSH1 0x40 MSTORE POP DUP2 ADD SWAP1 PUSH2 0xE19 SWAP2 SWAP1 PUSH2 0x3AB2 JUMP JUMPDEST TIMESTAMP LT ISZERO PUSH2 0xE5D JUMPI PUSH1 0x97 SLOAD PUSH1 0x40 MLOAD PUSH4 0x21421707 PUSH1 0xE1 SHL DUP2 MSTORE ADDRESS PUSH1 0x4 DUP3 ADD MSTORE CALLER PUSH1 0x24 DUP3 ADD MSTORE PUSH1 0x44 DUP2 ADD DUP6 SWAP1 MSTORE PUSH1 0x1 PUSH1 0x1 PUSH1 0xA0 SHL SUB SWAP1 SWAP2 AND SWAP1 PUSH4 0x42842E0E SWAP1 PUSH1 0x64 ADD PUSH2 0xB6A JUMP JUMPDEST PUSH1 0x97 SLOAD PUSH1 0x40 MLOAD PUSH4 0x852CD8D PUSH1 0xE3 SHL DUP2 MSTORE PUSH1 0x4 DUP2 ADD DUP6 SWAP1 MSTORE PUSH1 0x1 PUSH1 0x1 PUSH1 0xA0 SHL SUB SWAP1 SWAP2 AND SWAP1 PUSH4 0x42966C68 SWAP1 PUSH1 0x24 ADD JUMPDEST PUSH1 0x20 PUSH1 0x40 MLOAD DUP1 DUP4 SUB DUP2 PUSH1 0x0 DUP8 DUP1 EXTCODESIZE ISZERO DUP1 ISZERO PUSH2 0xEA4 JUMPI PUSH1 0x0 DUP1 REVERT JUMPDEST POP GAS CALL ISZERO DUP1 ISZERO PUSH2 0xEB8 JUMPI RETURNDATASIZE PUSH1 0x0 DUP1 RETURNDATACOPY RETURNDATASIZE PUSH1 0x0 REVERT JUMPDEST POP POP POP POP PUSH1 0x40 MLOAD RETURNDATASIZE PUSH1 0x1F NOT PUSH1 0x1F DUP3 ADD AND DUP3 ADD DUP1 PUSH1 0x40 MSTORE POP DUP2 ADD SWAP1 PUSH2 0xEDC SWAP2 SWAP1 PUSH2 0x3A7C JUMP JUMPDEST POP JUMPDEST POP POP POP JUMP JUMPDEST PUSH1 0x33 SLOAD PUSH1 0x1 PUSH1 0x1 PUSH1 0xA0 SHL SUB AND CALLER EQ PUSH2 0xF0D JUMPI PUSH1 0x40 MLOAD PUSH3 0x461BCD PUSH1 0xE5 SHL DUP2 MSTORE PUSH1 0x4 ADD PUSH2 0x958 SWAP1 PUSH2 0x3C6B JUMP JUMPDEST PUSH1 0x98 DUP1 SLOAD PUSH1 0x1 PUSH1 0x1 PUSH1 0xA0 SHL SUB SWAP4 DUP5 AND PUSH1 0x1 PUSH1 0x1 PUSH1 0xA0 SHL SUB NOT SWAP2 DUP3 AND OR SWAP1 SWAP2 SSTORE PUSH1 0x99 DUP1 SLOAD SWAP3 SWAP1 SWAP4 AND SWAP2 AND OR SWAP1 SSTORE JUMP JUMPDEST PUSH1 0x33 SLOAD PUSH1 0x1 PUSH1 0x1 PUSH1 0xA0 SHL SUB AND CALLER EQ PUSH2 0xF65 JUMPI PUSH1 0x40 MLOAD PUSH3 0x461BCD PUSH1 0xE5 SHL DUP2 MSTORE PUSH1 0x4 ADD PUSH2 0x958 SWAP1 PUSH2 0x3C6B JUMP JUMPDEST PUSH1 0x97 DUP1 SLOAD PUSH1 0x1 PUSH1 0x1 PUSH1 0xA0 SHL SUB NOT AND PUSH1 0x1 PUSH1 0x1 PUSH1 0xA0 SHL SUB SWAP3 SWAP1 SWAP3 AND SWAP2 SWAP1 SWAP2 OR SWAP1 SSTORE JUMP JUMPDEST PUSH1 0x0 DUP4 DUP2 MSTORE PUSH1 0x9E PUSH1 0x20 MSTORE PUSH1 0x40 SWAP1 KECCAK256 SLOAD PUSH1 0xFF AND PUSH2 0xFB5 JUMPI PUSH1 0x40 MLOAD PUSH3 0x461BCD PUSH1 0xE5 SHL DUP2 MSTORE PUSH1 0x4 ADD PUSH2 0x958 SWAP1 PUSH2 0x3BD1 JUMP JUMPDEST PUSH1 0x0 DUP4 DUP2 MSTORE PUSH1 0xA0 PUSH1 0x20 MSTORE PUSH1 0x40 SWAP1 KECCAK256 SLOAD PUSH1 0x1 PUSH1 0x1 PUSH1 0xA0 SHL SUB AND CALLER EQ PUSH2 0xFEB JUMPI PUSH1 0x40 MLOAD PUSH3 0x461BCD PUSH1 0xE5 SHL DUP2 MSTORE PUSH1 0x4 ADD PUSH2 0x958 SWAP1 PUSH2 0x3D0E JUMP JUMPDEST PUSH1 0x3 DUP3 GT PUSH2 0x102A JUMPI PUSH1 0x40 MLOAD PUSH3 0x461BCD PUSH1 0xE5 SHL DUP2 MSTORE PUSH1 0x20 PUSH1 0x4 DUP3 ADD MSTORE PUSH1 0xC PUSH1 0x24 DUP3 ADD MSTORE PUSH12 0x1DDC9BDB99C81A5D195B5259 PUSH1 0xA2 SHL PUSH1 0x44 DUP3 ADD MSTORE PUSH1 0x64 ADD PUSH2 0x958 JUMP JUMPDEST PUSH1 0x97 SLOAD PUSH1 0x40 MLOAD PUSH4 0x4B4116D7 PUSH1 0xE1 SHL DUP2 MSTORE PUSH1 0x4 DUP2 ADD DUP6 SWAP1 MSTORE PUSH1 0x1 PUSH1 0x1 PUSH1 0xA0 SHL SUB SWAP1 SWAP2 AND SWAP1 PUSH4 0x96822DAE SWAP1 PUSH1 0x24 ADD PUSH1 0x20 PUSH1 0x40 MLOAD DUP1 DUP4 SUB DUP2 DUP7 DUP1 EXTCODESIZE ISZERO DUP1 ISZERO PUSH2 0x106E JUMPI PUSH1 0x0 DUP1 REVERT JUMPDEST POP GAS STATICCALL ISZERO DUP1 ISZERO PUSH2 0x1082 JUMPI RETURNDATASIZE PUSH1 0x0 DUP1 RETURNDATACOPY RETURNDATASIZE PUSH1 0x0 REVERT JUMPDEST POP POP POP POP PUSH1 0x40 MLOAD RETURNDATASIZE PUSH1 0x1F NOT PUSH1 0x1F DUP3 ADD AND DUP3 ADD DUP1 PUSH1 0x40 MSTORE POP DUP2 ADD SWAP1 PUSH2 0x10A6 SWAP2 SWAP1 PUSH2 0x3AB2 JUMP JUMPDEST TIMESTAMP LT PUSH2 0x10C4 JUMPI PUSH1 0x40 MLOAD PUSH3 0x461BCD PUSH1 0xE5 SHL DUP2 MSTORE PUSH1 0x4 ADD PUSH2 0x958 SWAP1 PUSH2 0x3C46 JUMP JUMPDEST PUSH1 0xA4 SLOAD PUSH1 0x40 MLOAD PUSH4 0x6711066D PUSH1 0xE1 SHL DUP2 MSTORE PUSH1 0x4 DUP2 ADD DUP5 SWAP1 MSTORE PUSH1 0x0 SWAP2 PUSH1 0x1 PUSH1 0x1 PUSH1 0xA0 SHL SUB AND SWAP1 PUSH4 0xCE220CDA SWAP1 PUSH1 0x24 ADD PUSH1 0x60 PUSH1 0x40 MLOAD DUP1 DUP4 SUB DUP2 DUP7 DUP1 EXTCODESIZE ISZERO DUP1 ISZERO PUSH2 0x1109 JUMPI PUSH1 0x0 DUP1 REVERT JUMPDEST POP GAS STATICCALL ISZERO DUP1 ISZERO PUSH2 0x111D JUMPI RETURNDATASIZE PUSH1 0x0 DUP1 RETURNDATACOPY RETURNDATASIZE PUSH1 0x0 REVERT JUMPDEST POP POP POP POP PUSH1 0x40 MLOAD RETURNDATASIZE PUSH1 0x1F NOT PUSH1 0x1F DUP3 ADD AND DUP3 ADD DUP1 PUSH1 0x40 MSTORE POP DUP2 ADD SWAP1 PUSH2 0x1141 SWAP2 SWAP1 PUSH2 0x38D4 JUMP JUMPDEST DUP1 MLOAD SWAP1 SWAP2 POP ISZERO PUSH2 0x1225 JUMPI PUSH1 0x97 SLOAD PUSH1 0x40 MLOAD PUSH4 0x3F01AC53 PUSH1 0xE1 SHL DUP2 MSTORE PUSH1 0x4 DUP2 ADD DUP7 SWAP1 MSTORE PUSH1 0x0 SWAP2 PUSH1 0x1 PUSH1 0x1 PUSH1 0xA0 SHL SUB AND SWAP1 PUSH4 0x7E0358A6 SWAP1 PUSH1 0x24 ADD PUSH1 0x20 PUSH1 0x40 MLOAD DUP1 DUP4 SUB DUP2 DUP7 DUP1 EXTCODESIZE ISZERO DUP1 ISZERO PUSH2 0x1190 JUMPI PUSH1 0x0 DUP1 REVERT JUMPDEST POP GAS STATICCALL ISZERO DUP1 ISZERO PUSH2 0x11A4 JUMPI RETURNDATASIZE PUSH1 0x0 DUP1 RETURNDATACOPY RETURNDATASIZE PUSH1 0x0 REVERT JUMPDEST POP POP POP POP PUSH1 0x40 MLOAD RETURNDATASIZE PUSH1 0x1F NOT PUSH1 0x1F DUP3 ADD AND DUP3 ADD DUP1 PUSH1 0x40 MSTORE POP DUP2 ADD SWAP1 PUSH2 0x11C8 SWAP2 SWAP1 PUSH2 0x3AB2 JUMP JUMPDEST DUP3 MLOAD SWAP1 SWAP2 POP PUSH2 0x11D8 SWAP1 DUP5 SWAP1 PUSH2 0x3D8E JUMP JUMPDEST PUSH1 0x0 DUP7 DUP2 MSTORE PUSH1 0xA9 PUSH1 0x20 MSTORE PUSH1 0x40 DUP2 KECCAK256 DUP1 SLOAD SWAP1 SWAP2 SWAP1 PUSH2 0x11F6 SWAP1 DUP5 SWAP1 PUSH2 0x3D62 JUMP JUMPDEST SWAP1 SWAP2 SSTORE POP POP PUSH1 0x0 DUP6 DUP2 MSTORE PUSH1 0xA9 PUSH1 0x20 MSTORE PUSH1 0x40 SWAP1 KECCAK256 SLOAD DUP2 LT ISZERO PUSH2 0x1223 JUMPI PUSH1 0x0 DUP6 DUP2 MSTORE PUSH1 0xA9 PUSH1 0x20 MSTORE PUSH1 0x40 SWAP1 KECCAK256 DUP2 SWAP1 SSTORE JUMPDEST POP JUMPDEST PUSH1 0x20 DUP2 ADD MLOAD ISZERO PUSH2 0x14AC JUMPI PUSH1 0xA5 SLOAD PUSH2 0x123E SWAP1 PUSH2 0x1388 PUSH2 0x3D62 JUMP JUMPDEST PUSH1 0x20 DUP3 ADD MLOAD PUSH2 0x124E SWAP1 DUP5 SWAP1 PUSH2 0x3D8E JUMP JUMPDEST PUSH1 0xA6 SLOAD PUSH1 0x0 SWAP1 DUP2 MSTORE PUSH1 0xAB PUSH1 0x20 SWAP1 DUP2 MSTORE PUSH1 0x40 DUP1 DUP4 KECCAK256 DUP10 DUP5 MSTORE SWAP1 SWAP2 MSTORE SWAP1 KECCAK256 SLOAD PUSH2 0x1275 SWAP2 SWAP1 PUSH2 0x3D62 JUMP JUMPDEST GT ISZERO PUSH2 0x12AF JUMPI PUSH1 0x40 MLOAD PUSH3 0x461BCD PUSH1 0xE5 SHL DUP2 MSTORE PUSH1 0x20 PUSH1 0x4 DUP3 ADD MSTORE PUSH1 0x9 PUSH1 0x24 DUP3 ADD MSTORE PUSH9 0x1BDD5D081B1A5B5A5D PUSH1 0xBA SHL PUSH1 0x44 DUP3 ADD MSTORE PUSH1 0x64 ADD PUSH2 0x958 JUMP JUMPDEST PUSH1 0x20 DUP2 ADD MLOAD PUSH2 0x12BF SWAP1 DUP4 SWAP1 PUSH2 0x3D8E JUMP JUMPDEST PUSH1 0x0 DUP6 DUP2 MSTORE PUSH1 0xAA PUSH1 0x20 MSTORE PUSH1 0x40 DUP2 KECCAK256 DUP1 SLOAD SWAP1 SWAP2 SWAP1 PUSH2 0x12DD SWAP1 DUP5 SWAP1 PUSH2 0x3D62 JUMP JUMPDEST SWAP1 SWAP2 SSTORE POP POP PUSH1 0x0 DUP5 DUP2 MSTORE PUSH1 0xAA PUSH1 0x20 MSTORE PUSH1 0x40 SWAP1 KECCAK256 SLOAD PUSH2 0x7530 GT PUSH2 0x14AC JUMPI PUSH1 0x97 SLOAD PUSH1 0x40 MLOAD PUSH4 0x211A1B19 PUSH1 0xE2 SHL DUP2 MSTORE PUSH1 0x4 DUP2 ADD DUP7 SWAP1 MSTORE PUSH1 0x1 PUSH1 0x1 PUSH1 0xA0 SHL SUB SWAP1 SWAP2 AND SWAP1 PUSH4 0x84686C64 SWAP1 PUSH1 0x24 ADD PUSH1 0x0 PUSH1 0x40 MLOAD DUP1 DUP4 SUB DUP2 PUSH1 0x0 DUP8 DUP1 EXTCODESIZE ISZERO DUP1 ISZERO PUSH2 0x133F JUMPI PUSH1 0x0 DUP1 REVERT JUMPDEST POP GAS CALL ISZERO DUP1 ISZERO PUSH2 0x1353 JUMPI RETURNDATASIZE PUSH1 0x0 DUP1 RETURNDATACOPY RETURNDATASIZE PUSH1 0x0 REVERT JUMPDEST POP POP POP POP PUSH2 0x1362 CALLER PUSH1 0x14 PUSH2 0x2FD3 JUMP JUMPDEST PUSH1 0x97 SLOAD PUSH1 0x40 MLOAD PUSH4 0xE06D2EB5 PUSH1 0xE0 SHL DUP2 MSTORE PUSH1 0x4 DUP2 ADD DUP7 SWAP1 MSTORE PUSH1 0x0 SWAP2 PUSH1 0x1 PUSH1 0x1 PUSH1 0xA0 SHL SUB AND SWAP1 PUSH4 0xE06D2EB5 SWAP1 PUSH1 0x24 ADD PUSH1 0x20 PUSH1 0x40 MLOAD DUP1 DUP4 SUB DUP2 DUP7 DUP1 EXTCODESIZE ISZERO DUP1 ISZERO PUSH2 0x13A7 JUMPI PUSH1 0x0 DUP1 REVERT JUMPDEST POP GAS STATICCALL ISZERO DUP1 ISZERO PUSH2 0x13BB JUMPI RETURNDATASIZE PUSH1 0x0 DUP1 RETURNDATACOPY RETURNDATASIZE PUSH1 0x0 REVERT JUMPDEST POP POP POP POP PUSH1 0x40 MLOAD RETURNDATASIZE PUSH1 0x1F NOT PUSH1 0x1F DUP3 ADD AND DUP3 ADD DUP1 PUSH1 0x40 MSTORE POP DUP2 ADD SWAP1 PUSH2 0x13DF SWAP2 SWAP1 PUSH2 0x3AB2 JUMP JUMPDEST SWAP1 POP DUP1 PUSH1 0x1 EQ ISZERO PUSH2 0x144C JUMPI PUSH1 0x9B SLOAD PUSH1 0x40 MLOAD PUSH4 0x1F118901 PUSH1 0xE1 SHL DUP2 MSTORE CALLER PUSH1 0x4 DUP3 ADD MSTORE PUSH1 0x1 PUSH1 0x1 PUSH1 0xA0 SHL SUB SWAP1 SWAP2 AND SWAP1 PUSH4 0x3E231202 SWAP1 PUSH1 0x24 ADD PUSH1 0x0 PUSH1 0x40 MLOAD DUP1 DUP4 SUB DUP2 PUSH1 0x0 DUP8 DUP1 EXTCODESIZE ISZERO DUP1 ISZERO PUSH2 0x142F JUMPI PUSH1 0x0 DUP1 REVERT JUMPDEST POP GAS CALL ISZERO DUP1 ISZERO PUSH2 0x1443 JUMPI RETURNDATASIZE PUSH1 0x0 DUP1 RETURNDATACOPY RETURNDATASIZE PUSH1 0x0 REVERT JUMPDEST POP POP POP POP PUSH2 0x14AA JUMP JUMPDEST PUSH1 0x9B SLOAD PUSH1 0x40 MLOAD PUSH4 0xE85548F7 PUSH1 0xE0 SHL DUP2 MSTORE CALLER PUSH1 0x4 DUP3 ADD MSTORE PUSH1 0x1 PUSH1 0x1 PUSH1 0xA0 SHL SUB SWAP1 SWAP2 AND SWAP1 PUSH4 0xE85548F7 SWAP1 PUSH1 0x24 ADD PUSH1 0x0 PUSH1 0x40 MLOAD DUP1 DUP4 SUB DUP2 PUSH1 0x0 DUP8 DUP1 EXTCODESIZE ISZERO DUP1 ISZERO PUSH2 0x1491 JUMPI PUSH1 0x0 DUP1 REVERT JUMPDEST POP GAS CALL ISZERO DUP1 ISZERO PUSH2 0x14A5 JUMPI RETURNDATASIZE PUSH1 0x0 DUP1 RETURNDATACOPY RETURNDATASIZE PUSH1 0x0 REVERT JUMPDEST POP POP POP POP JUMPDEST POP JUMPDEST PUSH1 0x40 DUP2 ADD MLOAD ISZERO PUSH2 0x1675 JUMPI PUSH1 0x0 DUP5 DUP2 MSTORE PUSH1 0xB1 PUSH1 0x20 MSTORE PUSH1 0x40 SWAP1 KECCAK256 SLOAD PUSH3 0xD2F00 GT PUSH2 0x150F JUMPI PUSH1 0x40 MLOAD PUSH3 0x461BCD PUSH1 0xE5 SHL DUP2 MSTORE PUSH1 0x20 PUSH1 0x4 DUP3 ADD MSTORE PUSH1 0x16 PUSH1 0x24 DUP3 ADD MSTORE PUSH22 0x1BDD5D081BD98818591908131A599948185B5BDD5B9D PUSH1 0x52 SHL PUSH1 0x44 DUP3 ADD MSTORE PUSH1 0x64 ADD PUSH2 0x958 JUMP JUMPDEST PUSH1 0x40 DUP2 ADD MLOAD PUSH1 0x0 SWAP1 PUSH2 0x1522 SWAP1 DUP5 SWAP1 PUSH2 0x3D8E JUMP JUMPDEST PUSH1 0x0 DUP7 DUP2 MSTORE PUSH1 0xB1 PUSH1 0x20 MSTORE PUSH1 0x40 SWAP1 KECCAK256 SLOAD SWAP1 SWAP2 POP PUSH2 0x1541 SWAP1 PUSH3 0xD2F00 PUSH2 0x3DAD JUMP JUMPDEST DUP2 GT ISZERO PUSH2 0x15EA JUMPI PUSH1 0x97 SLOAD PUSH1 0x0 DUP7 DUP2 MSTORE PUSH1 0xB1 PUSH1 0x20 MSTORE PUSH1 0x40 SWAP1 KECCAK256 SLOAD PUSH1 0x1 PUSH1 0x1 PUSH1 0xA0 SHL SUB SWAP1 SWAP2 AND SWAP1 PUSH4 0x5F70A1D5 SWAP1 DUP8 SWAP1 PUSH2 0x157B SWAP1 PUSH3 0xD2F00 PUSH2 0x3DAD JUMP JUMPDEST PUSH1 0x40 MLOAD PUSH1 0x1 PUSH1 0x1 PUSH1 0xE0 SHL SUB NOT PUSH1 0xE0 DUP6 SWAP1 SHL AND DUP2 MSTORE PUSH1 0x4 DUP2 ADD SWAP3 SWAP1 SWAP3 MSTORE PUSH1 0x24 DUP3 ADD MSTORE PUSH1 0x44 ADD PUSH1 0x0 PUSH1 0x40 MLOAD DUP1 DUP4 SUB DUP2 PUSH1 0x0 DUP8 DUP1 EXTCODESIZE ISZERO DUP1 ISZERO PUSH2 0x15B9 JUMPI PUSH1 0x0 DUP1 REVERT JUMPDEST POP GAS CALL ISZERO DUP1 ISZERO PUSH2 0x15CD JUMPI RETURNDATASIZE PUSH1 0x0 DUP1 RETURNDATACOPY RETURNDATASIZE PUSH1 0x0 REVERT JUMPDEST POP POP POP PUSH1 0x0 DUP7 DUP2 MSTORE PUSH1 0xB1 PUSH1 0x20 MSTORE PUSH1 0x40 SWAP1 KECCAK256 PUSH3 0xD2F00 SWAP1 SSTORE POP PUSH2 0x1673 JUMP JUMPDEST PUSH1 0x0 DUP6 DUP2 MSTORE PUSH1 0xB1 PUSH1 0x20 MSTORE PUSH1 0x40 DUP2 KECCAK256 DUP1 SLOAD DUP4 SWAP3 SWAP1 PUSH2 0x1608 SWAP1 DUP5 SWAP1 PUSH2 0x3D62 JUMP JUMPDEST SWAP1 SWAP2 SSTORE POP POP PUSH1 0x97 SLOAD PUSH1 0x40 MLOAD PUSH4 0x5F70A1D5 PUSH1 0xE0 SHL DUP2 MSTORE PUSH1 0x4 DUP2 ADD DUP8 SWAP1 MSTORE PUSH1 0x24 DUP2 ADD DUP4 SWAP1 MSTORE PUSH1 0x1 PUSH1 0x1 PUSH1 0xA0 SHL SUB SWAP1 SWAP2 AND SWAP1 PUSH4 0x5F70A1D5 SWAP1 PUSH1 0x44 ADD PUSH1 0x0 PUSH1 0x40 MLOAD DUP1 DUP4 SUB DUP2 PUSH1 0x0 DUP8 DUP1 EXTCODESIZE ISZERO DUP1 ISZERO PUSH2 0x165A JUMPI PUSH1 0x0 DUP1 REVERT JUMPDEST POP GAS CALL ISZERO DUP1 ISZERO PUSH2 0x166E JUMPI RETURNDATASIZE PUSH1 0x0 DUP1 RETURNDATACOPY RETURNDATASIZE PUSH1 0x0 REVERT JUMPDEST POP POP POP POP JUMPDEST POP JUMPDEST PUSH1 0xA4 SLOAD PUSH1 0x40 MLOAD PUSH4 0x6D83CEFF PUSH1 0xE0 SHL DUP2 MSTORE PUSH1 0x4 DUP2 ADD DUP6 SWAP1 MSTORE PUSH2 0x16AC SWAP2 CALLER SWAP2 DUP6 SWAP2 PUSH1 0x1 PUSH1 0x1 PUSH1 0xA0 SHL SUB AND SWAP1 PUSH4 0x6D83CEFF SWAP1 PUSH1 0x24 ADD PUSH2 0xAD1 JUMP JUMPDEST PUSH1 0xA4 SLOAD PUSH1 0x40 MLOAD PUSH4 0x7A94C565 PUSH1 0xE1 SHL DUP2 MSTORE CALLER PUSH1 0x4 DUP3 ADD MSTORE PUSH1 0x24 DUP2 ADD DUP6 SWAP1 MSTORE PUSH1 0x44 DUP2 ADD DUP5 SWAP1 MSTORE PUSH1 0x1 PUSH1 0x1 PUSH1 0xA0 SHL SUB SWAP1 SWAP2 AND SWAP1 PUSH4 0xF5298ACA SWAP1 PUSH1 0x64 ADD PUSH1 0x0 PUSH1 0x40 MLOAD DUP1 DUP4 SUB DUP2 PUSH1 0x0 DUP8 DUP1 EXTCODESIZE ISZERO DUP1 ISZERO PUSH2 0x16FF JUMPI PUSH1 0x0 DUP1 REVERT JUMPDEST POP GAS CALL ISZERO DUP1 ISZERO PUSH2 0x1713 JUMPI RETURNDATASIZE PUSH1 0x0 DUP1 RETURNDATACOPY RETURNDATASIZE PUSH1 0x0 REVERT JUMPDEST POP POP POP POP POP POP POP POP JUMP JUMPDEST PUSH1 0xA8 DUP2 DUP2 SLOAD DUP2 LT PUSH2 0x172D JUMPI PUSH1 0x0 DUP1 REVERT JUMPDEST PUSH1 0x0 SWAP2 DUP3 MSTORE PUSH1 0x20 SWAP1 SWAP2 KECCAK256 ADD SLOAD SWAP1 POP DUP2 JUMP JUMPDEST PUSH1 0x9A SLOAD PUSH1 0x40 MLOAD PUSH4 0x13CE3D69 PUSH1 0xE0 SHL DUP2 MSTORE CALLER PUSH1 0x4 DUP3 ADD MSTORE PUSH1 0x1 PUSH1 0x1 PUSH1 0xA0 SHL SUB SWAP1 SWAP2 AND SWAP1 PUSH4 0x13CE3D69 SWAP1 PUSH1 0x24 ADD PUSH1 0x20 PUSH1 0x40 MLOAD DUP1 DUP4 SUB DUP2 DUP7 DUP1 EXTCODESIZE ISZERO DUP1 ISZERO PUSH2 0x1781 JUMPI PUSH1 0x0 DUP1 REVERT JUMPDEST POP GAS STATICCALL ISZERO DUP1 ISZERO PUSH2 0x1795 JUMPI RETURNDATASIZE PUSH1 0x0 DUP1 RETURNDATACOPY RETURNDATASIZE PUSH1 0x0 REVERT JUMPDEST POP POP POP POP PUSH1 0x40 MLOAD RETURNDATASIZE PUSH1 0x1F NOT PUSH1 0x1F DUP3 ADD AND DUP3 ADD DUP1 PUSH1 0x40 MSTORE POP DUP2 ADD SWAP1 PUSH2 0x17B9 SWAP2 SWAP1 PUSH2 0x3A7C JUMP JUMPDEST PUSH2 0x17FA JUMPI PUSH1 0x40 MLOAD PUSH3 0x461BCD PUSH1 0xE5 SHL DUP2 MSTORE PUSH1 0x20 PUSH1 0x4 DUP3 ADD MSTORE PUSH1 0x12 PUSH1 0x24 DUP3 ADD MSTORE PUSH18 0x1B9BDD08189BDB991A5B99C81C1B185B995D PUSH1 0x72 SHL PUSH1 0x44 DUP3 ADD MSTORE PUSH1 0x64 ADD PUSH2 0x958 JUMP JUMPDEST CALLER PUSH1 0x0 SWAP1 DUP2 MSTORE PUSH1 0xAD PUSH1 0x20 MSTORE PUSH1 0x40 SWAP1 KECCAK256 DUP1 SLOAD PUSH1 0x2 GT ISZERO PUSH2 0x1818 JUMPI PUSH1 0x2 DUP2 SSTORE JUMPDEST PUSH1 0x97 SLOAD PUSH1 0x40 MLOAD PUSH4 0x4B4116D7 PUSH1 0xE1 SHL DUP2 MSTORE PUSH1 0x4 DUP2 ADD DUP5 SWAP1 MSTORE TIMESTAMP SWAP2 PUSH1 0x1 PUSH1 0x1 PUSH1 0xA0 SHL SUB AND SWAP1 PUSH4 0x96822DAE SWAP1 PUSH1 0x24 ADD PUSH1 0x20 PUSH1 0x40 MLOAD DUP1 DUP4 SUB DUP2 DUP7 DUP1 EXTCODESIZE ISZERO DUP1 ISZERO PUSH2 0x185C JUMPI PUSH1 0x0 DUP1 REVERT JUMPDEST POP GAS STATICCALL ISZERO DUP1 ISZERO PUSH2 0x1870 JUMPI RETURNDATASIZE PUSH1 0x0 DUP1 RETURNDATACOPY RETURNDATASIZE PUSH1 0x0 REVERT JUMPDEST POP POP POP POP PUSH1 0x40 MLOAD RETURNDATASIZE PUSH1 0x1F NOT PUSH1 0x1F DUP3 ADD AND DUP3 ADD DUP1 PUSH1 0x40 MSTORE POP DUP2 ADD SWAP1 PUSH2 0x1894 SWAP2 SWAP1 PUSH2 0x3AB2 JUMP JUMPDEST GT PUSH2 0x18D2 JUMPI PUSH1 0x40 MLOAD PUSH3 0x461BCD PUSH1 0xE5 SHL DUP2 MSTORE PUSH1 0x20 PUSH1 0x4 DUP3 ADD MSTORE PUSH1 0xE PUSH1 0x24 DUP3 ADD MSTORE PUSH14 0x18D85D1D1B19481A5CC819195859 PUSH1 0x92 SHL PUSH1 0x44 DUP3 ADD MSTORE PUSH1 0x64 ADD PUSH2 0x958 JUMP JUMPDEST DUP1 SLOAD PUSH1 0x2 DUP3 ADD SLOAD LT PUSH2 0x191C JUMPI PUSH1 0x40 MLOAD PUSH3 0x461BCD PUSH1 0xE5 SHL DUP2 MSTORE PUSH1 0x20 PUSH1 0x4 DUP3 ADD MSTORE PUSH1 0x13 PUSH1 0x24 DUP3 ADD MSTORE PUSH19 0x1BDD5D081BD9881CDD18589B19505B5BDD5B9D PUSH1 0x6A SHL PUSH1 0x44 DUP3 ADD MSTORE PUSH1 0x64 ADD PUSH2 0x958 JUMP JUMPDEST CALLER PUSH2 0x1926 DUP4 PUSH2 0x236F JUMP JUMPDEST PUSH1 0x1 PUSH1 0x1 PUSH1 0xA0 SHL SUB AND EQ PUSH2 0x194C JUMPI PUSH1 0x40 MLOAD PUSH3 0x461BCD PUSH1 0xE5 SHL DUP2 MSTORE PUSH1 0x4 ADD PUSH2 0x958 SWAP1 PUSH2 0x3D0E JUMP JUMPDEST PUSH1 0x97 SLOAD PUSH1 0x40 MLOAD PUSH4 0x21421707 PUSH1 0xE1 SHL DUP2 MSTORE CALLER PUSH1 0x4 DUP3 ADD MSTORE ADDRESS PUSH1 0x24 DUP3 ADD MSTORE PUSH1 0x44 DUP2 ADD DUP5 SWAP1 MSTORE PUSH1 0x1 PUSH1 0x1 PUSH1 0xA0 SHL SUB SWAP1 SWAP2 AND SWAP1 PUSH4 0x42842E0E SWAP1 PUSH1 0x64 ADD PUSH1 0x0 PUSH1 0x40 MLOAD DUP1 DUP4 SUB DUP2 PUSH1 0x0 DUP8 DUP1 EXTCODESIZE ISZERO DUP1 ISZERO PUSH2 0x199E JUMPI PUSH1 0x0 DUP1 REVERT JUMPDEST POP GAS CALL ISZERO DUP1 ISZERO PUSH2 0x19B2 JUMPI RETURNDATASIZE PUSH1 0x0 DUP1 RETURNDATACOPY RETURNDATASIZE PUSH1 0x0 REVERT JUMPDEST POP POP POP PUSH1 0x0 DUP4 DUP2 MSTORE PUSH1 0xA0 PUSH1 0x20 SWAP1 DUP2 MSTORE PUSH1 0x40 DUP1 DUP4 KECCAK256 DUP1 SLOAD PUSH1 0x1 PUSH1 0x1 PUSH1 0xA0 SHL SUB NOT AND CALLER OR SWAP1 SSTORE PUSH1 0x9E DUP3 MSTORE DUP3 KECCAK256 DUP1 SLOAD PUSH1 0xFF NOT AND PUSH1 0x1 SWAP1 DUP2 OR SWAP1 SWAP2 SSTORE PUSH1 0x2 SWAP1 SWAP5 ADD DUP1 SLOAD SWAP5 DUP6 ADD DUP2 SSTORE DUP3 MSTORE SWAP1 KECCAK256 SWAP1 SWAP2 ADD SWAP2 SWAP1 SWAP2 SSTORE POP JUMP JUMPDEST PUSH1 0x0 DUP3 DUP2 MSTORE PUSH1 0xA0 PUSH1 0x20 MSTORE PUSH1 0x40 SWAP1 KECCAK256 SLOAD PUSH1 0x1 PUSH1 0x1 PUSH1 0xA0 SHL SUB AND CALLER EQ PUSH2 0x1A3A JUMPI PUSH1 0x40 MLOAD PUSH3 0x461BCD PUSH1 0xE5 SHL DUP2 MSTORE PUSH1 0x4 ADD PUSH2 0x958 SWAP1 PUSH2 0x3D0E JUMP JUMPDEST PUSH1 0x0 DUP3 DUP2 MSTORE PUSH1 0x9E PUSH1 0x20 MSTORE PUSH1 0x40 SWAP1 KECCAK256 SLOAD PUSH1 0xFF AND PUSH2 0x1A68 JUMPI PUSH1 0x40 MLOAD PUSH3 0x461BCD PUSH1 0xE5 SHL DUP2 MSTORE PUSH1 0x4 ADD PUSH2 0x958 SWAP1 PUSH2 0x3BD1 JUMP JUMPDEST PUSH1 0x0 DUP3 DUP2 MSTORE PUSH1 0xA9 PUSH1 0x20 MSTORE PUSH1 0x40 SWAP1 KECCAK256 SLOAD DUP2 GT ISZERO PUSH2 0x1ABA JUMPI PUSH1 0x40 MLOAD PUSH3 0x461BCD PUSH1 0xE5 SHL DUP2 MSTORE PUSH1 0x20 PUSH1 0x4 DUP3 ADD MSTORE PUSH1 0x11 PUSH1 0x24 DUP3 ADD MSTORE PUSH17 0x6E6F7420656E6F75676820656E65726779 PUSH1 0x78 SHL PUSH1 0x44 DUP3 ADD MSTORE PUSH1 0x64 ADD PUSH2 0x958 JUMP JUMPDEST PUSH1 0x97 SLOAD PUSH1 0x40 MLOAD PUSH4 0x4B4116D7 PUSH1 0xE1 SHL DUP2 MSTORE PUSH1 0x4 DUP2 ADD DUP5 SWAP1 MSTORE PUSH1 0x1 PUSH1 0x1 PUSH1 0xA0 SHL SUB SWAP1 SWAP2 AND SWAP1 PUSH4 0x96822DAE SWAP1 PUSH1 0x24 ADD PUSH1 0x20 PUSH1 0x40 MLOAD DUP1 DUP4 SUB DUP2 DUP7 DUP1 EXTCODESIZE ISZERO DUP1 ISZERO PUSH2 0x1AFE JUMPI PUSH1 0x0 DUP1 REVERT JUMPDEST POP GAS STATICCALL ISZERO DUP1 ISZERO PUSH2 0x1B12 JUMPI RETURNDATASIZE PUSH1 0x0 DUP1 RETURNDATACOPY RETURNDATASIZE PUSH1 0x0 REVERT JUMPDEST POP POP POP POP PUSH1 0x40 MLOAD RETURNDATASIZE PUSH1 0x1F NOT PUSH1 0x1F DUP3 ADD AND DUP3 ADD DUP1 PUSH1 0x40 MSTORE POP DUP2 ADD SWAP1 PUSH2 0x1B36 SWAP2 SWAP1 PUSH2 0x3AB2 JUMP JUMPDEST TIMESTAMP LT PUSH2 0x1B54 JUMPI PUSH1 0x40 MLOAD PUSH3 0x461BCD PUSH1 0xE5 SHL DUP2 MSTORE PUSH1 0x4 ADD PUSH2 0x958 SWAP1 PUSH2 0x3C46 JUMP JUMPDEST PUSH1 0x97 SLOAD PUSH1 0x40 MLOAD PUSH4 0xE06D2EB5 PUSH1 0xE0 SHL DUP2 MSTORE PUSH1 0x4 DUP2 ADD DUP5 SWAP1 MSTORE PUSH1 0x1 PUSH1 0x1 PUSH1 0xA0 SHL SUB SWAP1 SWAP2 AND SWAP1 PUSH4 0xE06D2EB5 SWAP1 PUSH1 0x24 ADD PUSH1 0x20 PUSH1 0x40 MLOAD DUP1 DUP4 SUB DUP2 DUP7 DUP1 EXTCODESIZE ISZERO DUP1 ISZERO PUSH2 0x1B98 JUMPI PUSH1 0x0 DUP1 REVERT JUMPDEST POP GAS STATICCALL ISZERO DUP1 ISZERO PUSH2 0x1BAC JUMPI RETURNDATASIZE PUSH1 0x0 DUP1 RETURNDATACOPY RETURNDATASIZE PUSH1 0x0 REVERT JUMPDEST POP POP POP POP PUSH1 0x40 MLOAD RETURNDATASIZE PUSH1 0x1F NOT PUSH1 0x1F DUP3 ADD AND DUP3 ADD DUP1 PUSH1 0x40 MSTORE POP DUP2 ADD SWAP1 PUSH2 0x1BD0 SWAP2 SWAP1 PUSH2 0x3AB2 JUMP JUMPDEST PUSH1 0x1 EQ PUSH2 0x1C0A JUMPI PUSH1 0x40 MLOAD PUSH3 0x461BCD PUSH1 0xE5 SHL DUP2 MSTORE PUSH1 0x20 PUSH1 0x4 DUP3 ADD MSTORE PUSH1 0x8 PUSH1 0x24 DUP3 ADD MSTORE PUSH8 0x1B9BDD08189D5B1B PUSH1 0xC2 SHL PUSH1 0x44 DUP3 ADD MSTORE PUSH1 0x64 ADD PUSH2 0x958 JUMP JUMPDEST PUSH1 0x0 DUP3 DUP2 MSTORE PUSH1 0xA9 PUSH1 0x20 MSTORE PUSH1 0x40 DUP2 KECCAK256 DUP1 SLOAD DUP4 SWAP3 SWAP1 PUSH2 0x1C28 SWAP1 DUP5 SWAP1 PUSH2 0x3DAD JUMP JUMPDEST SWAP1 SWAP2 SSTORE POP POP CALLER PUSH1 0x0 SWAP1 DUP2 MSTORE PUSH1 0xB2 PUSH1 0x20 MSTORE PUSH1 0x40 DUP2 KECCAK256 DUP1 SLOAD DUP4 SWAP3 SWAP1 PUSH2 0x1C4C SWAP1 DUP5 SWAP1 PUSH2 0x3D62 JUMP JUMPDEST SWAP1 SWAP2 SSTORE POP POP PUSH2 0x4E20 DUP2 GT ISZERO PUSH2 0x1C92 JUMPI PUSH1 0x40 MLOAD PUSH3 0x461BCD PUSH1 0xE5 SHL DUP2 MSTORE PUSH1 0x20 PUSH1 0x4 DUP3 ADD MSTORE PUSH1 0xC PUSH1 0x24 DUP3 ADD MSTORE PUSH12 0x1BDD5D081BD9881B1A5B5A5D PUSH1 0xA2 SHL PUSH1 0x44 DUP3 ADD MSTORE PUSH1 0x64 ADD PUSH2 0x958 JUMP JUMPDEST PUSH1 0x40 MLOAD DUP2 SWAP1 CALLER SWAP1 PUSH32 0x8F34218A529508858E9054BF52C7957C414473B152EE72C5355E9EBE531CBAE1 SWAP1 PUSH1 0x0 SWAP1 LOG3 POP POP JUMP JUMPDEST PUSH1 0x33 SLOAD PUSH1 0x1 PUSH1 0x1 PUSH1 0xA0 SHL SUB AND CALLER EQ PUSH2 0x1CED JUMPI PUSH1 0x40 MLOAD PUSH3 0x461BCD PUSH1 0xE5 SHL DUP2 MSTORE PUSH1 0x4 ADD PUSH2 0x958 SWAP1 PUSH2 0x3C6B JUMP JUMPDEST PUSH2 0xEDE PUSH1 0xA8 DUP4 DUP4 PUSH2 0x359E JUMP JUMPDEST PUSH1 0xAE DUP2 DUP2 SLOAD DUP2 LT PUSH2 0x172D JUMPI PUSH1 0x0 DUP1 REVERT JUMPDEST PUSH1 0x0 DUP3 DUP2 MSTORE PUSH1 0x9E PUSH1 0x20 MSTORE PUSH1 0x40 SWAP1 KECCAK256 SLOAD PUSH1 0xFF AND PUSH2 0x1D37 JUMPI PUSH1 0x40 MLOAD PUSH3 0x461BCD PUSH1 0xE5 SHL DUP2 MSTORE PUSH1 0x4 ADD PUSH2 0x958 SWAP1 PUSH2 0x3BD1 JUMP JUMPDEST PUSH1 0x0 DUP3 DUP2 MSTORE PUSH1 0xA0 PUSH1 0x20 MSTORE PUSH1 0x40 SWAP1 KECCAK256 SLOAD PUSH1 0x1 PUSH1 0x1 PUSH1 0xA0 SHL SUB AND CALLER EQ PUSH2 0x1D6D JUMPI PUSH1 0x40 MLOAD PUSH3 0x461BCD PUSH1 0xE5 SHL DUP2 MSTORE PUSH1 0x4 ADD PUSH2 0x958 SWAP1 PUSH2 0x3D0E JUMP JUMPDEST PUSH1 0x0 DUP3 DUP2 MSTORE PUSH1 0xA9 PUSH1 0x20 MSTORE PUSH1 0x40 SWAP1 KECCAK256 SLOAD DUP2 GT ISZERO PUSH2 0x1DBB JUMPI PUSH1 0x40 MLOAD PUSH3 0x461BCD PUSH1 0xE5 SHL DUP2 MSTORE PUSH1 0x20 PUSH1 0x4 DUP3 ADD MSTORE PUSH1 0xD PUSH1 0x24 DUP3 ADD MSTORE PUSH13 0x6F7574206F6620656E65726779 PUSH1 0x98 SHL PUSH1 0x44 DUP3 ADD MSTORE PUSH1 0x64 ADD PUSH2 0x958 JUMP JUMPDEST PUSH1 0x0 PUSH2 0x1DCA PUSH3 0x15180 TIMESTAMP PUSH2 0x3E0B JUMP JUMPDEST PUSH2 0x1DD4 SWAP1 TIMESTAMP PUSH2 0x3DAD JUMP JUMPDEST SWAP1 POP PUSH1 0xA6 SLOAD DUP2 EQ PUSH2 0x1DE5 JUMPI PUSH1 0xA6 DUP2 SWAP1 SSTORE JUMPDEST PUSH1 0x97 SLOAD PUSH1 0x40 MLOAD PUSH4 0xF0A90FF PUSH1 0xE4 SHL DUP2 MSTORE PUSH1 0x4 DUP2 ADD DUP6 SWAP1 MSTORE PUSH1 0x1 PUSH1 0x1 PUSH1 0xA0 SHL SUB SWAP1 SWAP2 AND SWAP1 PUSH4 0xF0A90FF0 SWAP1 PUSH1 0x24 ADD PUSH1 0x20 PUSH1 0x40 MLOAD DUP1 DUP4 SUB DUP2 DUP7 DUP1 EXTCODESIZE ISZERO DUP1 ISZERO PUSH2 0x1E29 JUMPI PUSH1 0x0 DUP1 REVERT JUMPDEST POP GAS STATICCALL ISZERO DUP1 ISZERO PUSH2 0x1E3D JUMPI RETURNDATASIZE PUSH1 0x0 DUP1 RETURNDATACOPY RETURNDATASIZE PUSH1 0x0 REVERT JUMPDEST POP POP POP POP PUSH1 0x40 MLOAD RETURNDATASIZE PUSH1 0x1F NOT PUSH1 0x1F DUP3 ADD AND DUP3 ADD DUP1 PUSH1 0x40 MSTORE POP DUP2 ADD SWAP1 PUSH2 0x1E61 SWAP2 SWAP1 PUSH2 0x3A7C JUMP JUMPDEST ISZERO PUSH2 0x1EAE JUMPI PUSH1 0x40 MLOAD PUSH3 0x461BCD PUSH1 0xE5 SHL DUP2 MSTORE PUSH1 0x20 PUSH1 0x4 DUP3 ADD MSTORE PUSH1 0x1C PUSH1 0x24 DUP3 ADD MSTORE PUSH32 0x6372656174696F6E20436174746C652043616E206E6F742067726F7700000000 PUSH1 0x44 DUP3 ADD MSTORE PUSH1 0x64 ADD PUSH2 0x958 JUMP JUMPDEST PUSH1 0xA5 SLOAD PUSH1 0xA6 SLOAD PUSH1 0x0 SWAP1 DUP2 MSTORE PUSH1 0xAB PUSH1 0x20 SWAP1 DUP2 MSTORE PUSH1 0x40 DUP1 DUP4 KECCAK256 DUP8 DUP5 MSTORE SWAP1 SWAP2 MSTORE SWAP1 KECCAK256 SLOAD PUSH2 0x1ED9 SWAP1 DUP5 SWAP1 PUSH2 0x3D62 JUMP JUMPDEST GT ISZERO PUSH2 0x1F13 JUMPI PUSH1 0x40 MLOAD PUSH3 0x461BCD PUSH1 0xE5 SHL DUP2 MSTORE PUSH1 0x20 PUSH1 0x4 DUP3 ADD MSTORE PUSH1 0x9 PUSH1 0x24 DUP3 ADD MSTORE PUSH9 0x1BDD5D081B1A5B5A5D PUSH1 0xBA SHL PUSH1 0x44 DUP3 ADD MSTORE PUSH1 0x64 ADD PUSH2 0x958 JUMP JUMPDEST PUSH1 0xA6 SLOAD PUSH1 0x0 SWAP1 DUP2 MSTORE PUSH1 0xAB PUSH1 0x20 SWAP1 DUP2 MSTORE PUSH1 0x40 DUP1 DUP4 KECCAK256 DUP7 DUP5 MSTORE SWAP1 SWAP2 MSTORE DUP2 KECCAK256 DUP1 SLOAD DUP5 SWAP3 SWAP1 PUSH2 0x1F3F SWAP1 DUP5 SWAP1 PUSH2 0x3D62 JUMP JUMPDEST SWAP1 SWAP2 SSTORE POP POP PUSH1 0x0 DUP4 DUP2 MSTORE PUSH1 0xA9 PUSH1 0x20 MSTORE PUSH1 0x40 DUP2 KECCAK256 DUP1 SLOAD DUP5 SWAP3 SWAP1 PUSH2 0x1F62 SWAP1 DUP5 SWAP1 PUSH2 0x3DAD JUMP JUMPDEST SWAP1 SWAP2 SSTORE POP POP PUSH1 0x0 DUP4 DUP2 MSTORE PUSH1 0xAA PUSH1 0x20 MSTORE PUSH1 0x40 DUP2 KECCAK256 DUP1 SLOAD DUP5 SWAP3 SWAP1 PUSH2 0x1F85 SWAP1 DUP5 SWAP1 PUSH2 0x3D62 JUMP JUMPDEST SWAP1 SWAP2 SSTORE POP POP PUSH1 0x0 DUP4 DUP2 MSTORE PUSH1 0xAA PUSH1 0x20 MSTORE PUSH1 0x40 SWAP1 KECCAK256 SLOAD PUSH2 0x7530 GT PUSH2 0x200A JUMPI PUSH1 0x97 SLOAD PUSH1 0x40 MLOAD PUSH4 0x211A1B19 PUSH1 0xE2 SHL DUP2 MSTORE PUSH1 0x4 DUP2 ADD DUP6 SWAP1 MSTORE PUSH1 0x1 PUSH1 0x1 PUSH1 0xA0 SHL SUB SWAP1 SWAP2 AND SWAP1 PUSH4 0x84686C64 SWAP1 PUSH1 0x24 ADD PUSH1 0x0 PUSH1 0x40 MLOAD DUP1 DUP4 SUB DUP2 PUSH1 0x0 DUP8 DUP1 EXTCODESIZE ISZERO DUP1 ISZERO PUSH2 0x1FE7 JUMPI PUSH1 0x0 DUP1 REVERT JUMPDEST POP GAS CALL ISZERO DUP1 ISZERO PUSH2 0x1FFB JUMPI RETURNDATASIZE PUSH1 0x0 DUP1 RETURNDATACOPY RETURNDATASIZE PUSH1 0x0 REVERT JUMPDEST POP POP POP POP PUSH2 0x200A CALLER PUSH1 0x14 PUSH2 0x2FD3 JUMP JUMPDEST PUSH1 0x40 MLOAD DUP3 SWAP1 DUP5 SWAP1 PUSH32 0x3C8DDAFC514CBE83F50A55FC5DB847C9736ADF809BCDDEFFD67C500E72613483 SWAP1 PUSH1 0x0 SWAP1 LOG3 POP POP POP JUMP JUMPDEST PUSH1 0x33 SLOAD PUSH1 0x1 PUSH1 0x1 PUSH1 0xA0 SHL SUB AND CALLER EQ PUSH2 0x2066 JUMPI PUSH1 0x40 MLOAD PUSH3 0x461BCD PUSH1 0xE5 SHL DUP2 MSTORE PUSH1 0x4 ADD PUSH2 0x958 SWAP1 PUSH2 0x3C6B JUMP JUMPDEST PUSH1 0x1 PUSH1 0x1 PUSH1 0xA0 SHL SUB DUP3 DUP2 AND PUSH1 0x0 DUP2 DUP2 MSTORE PUSH1 0xA1 PUSH1 0x20 MSTORE PUSH1 0x40 SWAP1 DUP2 SWAP1 KECCAK256 DUP1 SLOAD PUSH1 0xFF NOT AND DUP6 ISZERO ISZERO SWAP1 DUP2 OR SWAP1 SWAP2 SSTORE PUSH1 0x97 SLOAD SWAP2 MLOAD PUSH4 0xA22CB465 PUSH1 0xE0 SHL DUP2 MSTORE PUSH1 0x4 DUP2 ADD SWAP4 SWAP1 SWAP4 MSTORE PUSH1 0x24 DUP4 ADD MSTORE SWAP1 SWAP2 AND SWAP1 PUSH4 0xA22CB465 SWAP1 PUSH1 0x44 ADD PUSH1 0x0 PUSH1 0x40 MLOAD DUP1 DUP4 SUB DUP2 PUSH1 0x0 DUP8 DUP1 EXTCODESIZE ISZERO DUP1 ISZERO PUSH2 0x20D3 JUMPI PUSH1 0x0 DUP1 REVERT JUMPDEST POP GAS CALL ISZERO DUP1 ISZERO PUSH2 0x20E7 JUMPI RETURNDATASIZE PUSH1 0x0 DUP1 RETURNDATACOPY RETURNDATASIZE PUSH1 0x0 REVERT JUMPDEST POP POP POP POP POP POP JUMP JUMPDEST PUSH1 0x33 SLOAD PUSH1 0x1 PUSH1 0x1 PUSH1 0xA0 SHL SUB AND CALLER EQ PUSH2 0x2119 JUMPI PUSH1 0x40 MLOAD PUSH3 0x461BCD PUSH1 0xE5 SHL DUP2 MSTORE PUSH1 0x4 ADD PUSH2 0x958 SWAP1 PUSH2 0x3C6B JUMP JUMPDEST DUP1 MLOAD PUSH2 0x212C SWAP1 PUSH1 0x9C SWAP1 PUSH1 0x20 DUP5 ADD SWAP1 PUSH2 0x35E9 JUMP JUMPDEST POP POP JUMP JUMPDEST PUSH1 0x33 SLOAD PUSH1 0x1 PUSH1 0x1 PUSH1 0xA0 SHL SUB AND CALLER EQ PUSH2 0x215A JUMPI PUSH1 0x40 MLOAD PUSH3 0x461BCD PUSH1 0xE5 SHL DUP2 MSTORE PUSH1 0x4 ADD PUSH2 0x958 SWAP1 PUSH2 0x3C6B JUMP JUMPDEST PUSH1 0x9A DUP1 SLOAD PUSH1 0x1 PUSH1 0x1 PUSH1 0xA0 SHL SUB NOT AND PUSH1 0x1 PUSH1 0x1 PUSH1 0xA0 SHL SUB SWAP3 SWAP1 SWAP3 AND SWAP2 SWAP1 SWAP2 OR SWAP1 SSTORE JUMP JUMPDEST CALLER PUSH1 0x0 SWAP1 DUP2 MSTORE PUSH1 0xA1 PUSH1 0x20 MSTORE PUSH1 0x40 SWAP1 KECCAK256 SLOAD PUSH1 0xFF AND PUSH2 0x21AB JUMPI PUSH1 0x40 MLOAD PUSH3 0x461BCD PUSH1 0xE5 SHL DUP2 MSTORE PUSH1 0x4 ADD PUSH2 0x958 SWAP1 PUSH2 0x3CEB JUMP JUMPDEST PUSH1 0x0 DUP3 DUP2 MSTORE PUSH1 0xA9 PUSH1 0x20 MSTORE PUSH1 0x40 SWAP1 KECCAK256 SLOAD DUP2 GT ISZERO PUSH2 0x21F9 JUMPI PUSH1 0x40 MLOAD PUSH3 0x461BCD PUSH1 0xE5 SHL DUP2 MSTORE PUSH1 0x20 PUSH1 0x4 DUP3 ADD MSTORE PUSH1 0xD PUSH1 0x24 DUP3 ADD MSTORE PUSH13 0x6F7574206F6620656E65726779 PUSH1 0x98 SHL PUSH1 0x44 DUP3 ADD MSTORE PUSH1 0x64 ADD PUSH2 0x958 JUMP JUMPDEST PUSH1 0x97 SLOAD PUSH1 0x40 MLOAD PUSH4 0x4B4116D7 PUSH1 0xE1 SHL DUP2 MSTORE PUSH1 0x4 DUP2 ADD DUP5 SWAP1 MSTORE PUSH1 0x1 PUSH1 0x1 PUSH1 0xA0 SHL SUB SWAP1 SWAP2 AND SWAP1 PUSH4 0x96822DAE SWAP1 PUSH1 0x24 ADD PUSH1 0x20 PUSH1 0x40 MLOAD DUP1 DUP4 SUB DUP2 DUP7 DUP1 EXTCODESIZE ISZERO DUP1 ISZERO PUSH2 0x223D JUMPI PUSH1 0x0 DUP1 REVERT JUMPDEST POP GAS STATICCALL ISZERO DUP1 ISZERO PUSH2 0x2251 JUMPI RETURNDATASIZE PUSH1 0x0 DUP1 RETURNDATACOPY RETURNDATASIZE PUSH1 0x0 REVERT JUMPDEST POP POP POP POP PUSH1 0x40 MLOAD RETURNDATASIZE PUSH1 0x1F NOT PUSH1 0x1F DUP3 ADD AND DUP3 ADD DUP1 PUSH1 0x40 MSTORE POP DUP2 ADD SWAP1 PUSH2 0x2275 SWAP2 SWAP1 PUSH2 0x3AB2 JUMP JUMPDEST TIMESTAMP LT PUSH2 0x2293 JUMPI PUSH1 0x40 MLOAD PUSH3 0x461BCD PUSH1 0xE5 SHL DUP2 MSTORE PUSH1 0x4 ADD PUSH2 0x958 SWAP1 PUSH2 0x3C46 JUMP JUMPDEST PUSH1 0x0 DUP3 DUP2 MSTORE PUSH1 0xA9 PUSH1 0x20 MSTORE PUSH1 0x40 DUP2 KECCAK256 DUP1 SLOAD DUP4 SWAP3 SWAP1 PUSH2 0x22B1 SWAP1 DUP5 SWAP1 PUSH2 0x3DAD JUMP JUMPDEST SWAP1 SWAP2 SSTORE POP POP POP POP JUMP JUMPDEST PUSH1 0x0 DUP2 DUP2 MSTORE PUSH1 0x9F PUSH1 0x20 MSTORE PUSH1 0x40 DUP2 KECCAK256 SLOAD PUSH1 0xFF AND ISZERO PUSH2 0x22E7 JUMPI POP PUSH1 0x0 SWAP1 DUP2 MSTORE PUSH1 0x9F PUSH1 0x20 MSTORE PUSH1 0x40 SWAP1 KECCAK256 SLOAD PUSH1 0xFF AND SWAP1 JUMP JUMPDEST POP PUSH1 0x0 SWAP1 DUP2 MSTORE PUSH1 0xA2 PUSH1 0x20 MSTORE PUSH1 0x40 SWAP1 KECCAK256 SLOAD TIMESTAMP LT SWAP1 JUMP JUMPDEST PUSH1 0x33 SLOAD PUSH1 0x1 PUSH1 0x1 PUSH1 0xA0 SHL SUB AND CALLER EQ PUSH2 0x2326 JUMPI PUSH1 0x40 MLOAD PUSH3 0x461BCD PUSH1 0xE5 SHL DUP2 MSTORE PUSH1 0x4 ADD PUSH2 0x958 SWAP1 PUSH2 0x3C6B JUMP JUMPDEST DUP1 MLOAD PUSH2 0x212C SWAP1 PUSH1 0xAE SWAP1 PUSH1 0x20 DUP5 ADD SWAP1 PUSH2 0x35E9 JUMP JUMPDEST PUSH1 0x33 SLOAD PUSH1 0x1 PUSH1 0x1 PUSH1 0xA0 SHL SUB AND CALLER EQ PUSH2 0x2363 JUMPI PUSH1 0x40 MLOAD PUSH3 0x461BCD PUSH1 0xE5 SHL DUP2 MSTORE PUSH1 0x4 ADD PUSH2 0x958 SWAP1 PUSH2 0x3C6B JUMP JUMPDEST PUSH2 0x236D PUSH1 0x0 PUSH2 0x31D5 JUMP JUMPDEST JUMP JUMPDEST PUSH1 0x97 SLOAD PUSH1 0x40 MLOAD PUSH4 0x31A9108F PUSH1 0xE1 SHL DUP2 MSTORE PUSH1 0x4 DUP2 ADD DUP4 SWAP1 MSTORE PUSH1 0x0 SWAP2 PUSH1 0x1 PUSH1 0x1 PUSH1 0xA0 SHL SUB AND SWAP1 PUSH4 0x6352211E SWAP1 PUSH1 0x24 ADD PUSH1 0x20 PUSH1 0x40 MLOAD DUP1 DUP4 SUB DUP2 DUP7 DUP1 EXTCODESIZE ISZERO DUP1 ISZERO PUSH2 0x23B4 JUMPI PUSH1 0x0 DUP1 REVERT JUMPDEST POP GAS STATICCALL ISZERO DUP1 ISZERO PUSH2 0x23C8 JUMPI RETURNDATASIZE PUSH1 0x0 DUP1 RETURNDATACOPY RETURNDATASIZE PUSH1 0x0 REVERT JUMPDEST POP POP POP POP PUSH1 0x40 MLOAD RETURNDATASIZE PUSH1 0x1F NOT PUSH1 0x1F DUP3 ADD AND DUP3 ADD DUP1 PUSH1 0x40 MSTORE POP DUP2 ADD SWAP1 PUSH2 0x23EC SWAP2 SWAP1 PUSH2 0x371F JUMP JUMPDEST SWAP3 SWAP2 POP POP JUMP JUMPDEST PUSH1 0x0 DUP4 DUP2 MSTORE PUSH1 0x9E PUSH1 0x20 MSTORE PUSH1 0x40 SWAP1 KECCAK256 SLOAD PUSH1 0xFF AND PUSH2 0x2420 JUMPI PUSH1 0x40 MLOAD PUSH3 0x461BCD PUSH1 0xE5 SHL DUP2 MSTORE PUSH1 0x4 ADD PUSH2 0x958 SWAP1 PUSH2 0x3BD1 JUMP JUMPDEST PUSH1 0x0 DUP4 DUP2 MSTORE PUSH1 0xA0 PUSH1 0x20 MSTORE PUSH1 0x40 SWAP1 KECCAK256 SLOAD PUSH1 0x1 PUSH1 0x1 PUSH1 0xA0 SHL SUB AND CALLER EQ PUSH2 0x2456 JUMPI PUSH1 0x40 MLOAD PUSH3 0x461BCD PUSH1 0xE5 SHL DUP2 MSTORE PUSH1 0x4 ADD PUSH2 0x958 SWAP1 PUSH2 0x3D0E JUMP JUMPDEST PUSH1 0x3 DUP2 GT ISZERO DUP1 ISZERO PUSH2 0x2466 JUMPI POP DUP1 ISZERO ISZERO JUMPDEST PUSH2 0x24A0 JUMPI PUSH1 0x40 MLOAD PUSH3 0x461BCD PUSH1 0xE5 SHL DUP2 MSTORE PUSH1 0x20 PUSH1 0x4 DUP3 ADD MSTORE PUSH1 0xB PUSH1 0x24 DUP3 ADD MSTORE PUSH11 0x77726F6E67207479706573 PUSH1 0xA8 SHL PUSH1 0x44 DUP3 ADD MSTORE PUSH1 0x64 ADD PUSH2 0x958 JUMP JUMPDEST PUSH2 0x24A9 DUP4 PUSH2 0x22BA JUMP JUMPDEST ISZERO PUSH2 0x24ED JUMPI PUSH1 0x40 MLOAD PUSH3 0x461BCD PUSH1 0xE5 SHL DUP2 MSTORE PUSH1 0x20 PUSH1 0x4 DUP3 ADD MSTORE PUSH1 0x14 PUSH1 0x24 DUP3 ADD MSTORE PUSH20 0x7468697320636174746C65206973207573696E67 PUSH1 0x60 SHL PUSH1 0x44 DUP3 ADD MSTORE PUSH1 0x64 ADD PUSH2 0x958 JUMP JUMPDEST PUSH1 0x97 SLOAD PUSH1 0x40 MLOAD PUSH4 0x4B4116D7 PUSH1 0xE1 SHL DUP2 MSTORE PUSH1 0x4 DUP2 ADD DUP6 SWAP1 MSTORE PUSH1 0x1 PUSH1 0x1 PUSH1 0xA0 SHL SUB SWAP1 SWAP2 AND SWAP1 PUSH4 0x96822DAE SWAP1 PUSH1 0x24 ADD PUSH1 0x20 PUSH1 0x40 MLOAD DUP1 DUP4 SUB DUP2 DUP7 DUP1 EXTCODESIZE ISZERO DUP1 ISZERO PUSH2 0x2531 JUMPI PUSH1 0x0 DUP1 REVERT JUMPDEST POP GAS STATICCALL ISZERO DUP1 ISZERO PUSH2 0x2545 JUMPI RETURNDATASIZE PUSH1 0x0 DUP1 RETURNDATACOPY RETURNDATASIZE PUSH1 0x0 REVERT JUMPDEST POP POP POP POP PUSH1 0x40 MLOAD RETURNDATASIZE PUSH1 0x1F NOT PUSH1 0x1F DUP3 ADD AND DUP3 ADD DUP1 PUSH1 0x40 MSTORE POP DUP2 ADD SWAP1 PUSH2 0x2569 SWAP2 SWAP1 PUSH2 0x3AB2 JUMP JUMPDEST TIMESTAMP LT PUSH2 0x2587 JUMPI PUSH1 0x40 MLOAD PUSH3 0x461BCD PUSH1 0xE5 SHL DUP2 MSTORE PUSH1 0x4 ADD PUSH2 0x958 SWAP1 PUSH2 0x3C46 JUMP JUMPDEST PUSH1 0xA4 SLOAD PUSH1 0x40 MLOAD PUSH4 0x6711066D PUSH1 0xE1 SHL DUP2 MSTORE PUSH1 0x4 DUP2 ADD DUP4 SWAP1 MSTORE PUSH1 0x0 SWAP2 PUSH1 0x1 PUSH1 0x1 PUSH1 0xA0 SHL SUB AND SWAP1 PUSH4 0xCE220CDA SWAP1 PUSH1 0x24 ADD PUSH1 0x60 PUSH1 0x40 MLOAD DUP1 DUP4 SUB DUP2 DUP7 DUP1 EXTCODESIZE ISZERO DUP1 ISZERO PUSH2 0x25CC JUMPI PUSH1 0x0 DUP1 REVERT JUMPDEST POP GAS STATICCALL ISZERO DUP1 ISZERO PUSH2 0x25E0 JUMPI RETURNDATASIZE PUSH1 0x0 DUP1 RETURNDATACOPY RETURNDATASIZE PUSH1 0x0 REVERT JUMPDEST POP POP POP POP PUSH1 0x40 MLOAD RETURNDATASIZE PUSH1 0x1F NOT PUSH1 0x1F DUP3 ADD AND DUP3 ADD DUP1 PUSH1 0x40 MSTORE POP DUP2 ADD SWAP1 PUSH2 0x2604 SWAP2 SWAP1 PUSH2 0x38D4 JUMP JUMPDEST PUSH1 0xA4 SLOAD PUSH1 0x40 MLOAD PUSH4 0x7A94C565 PUSH1 0xE1 SHL DUP2 MSTORE CALLER PUSH1 0x4 DUP3 ADD MSTORE PUSH1 0x24 DUP2 ADD DUP6 SWAP1 MSTORE PUSH1 0x44 DUP2 ADD DUP7 SWAP1 MSTORE SWAP2 SWAP3 POP PUSH1 0x1 PUSH1 0x1 PUSH1 0xA0 SHL SUB AND SWAP1 PUSH4 0xF5298ACA SWAP1 PUSH1 0x64 ADD PUSH1 0x0 PUSH1 0x40 MLOAD DUP1 DUP4 SUB DUP2 PUSH1 0x0 DUP8 DUP1 EXTCODESIZE ISZERO DUP1 ISZERO PUSH2 0x2658 JUMPI PUSH1 0x0 DUP1 REVERT JUMPDEST POP GAS CALL ISZERO DUP1 ISZERO PUSH2 0x266C JUMPI RETURNDATASIZE PUSH1 0x0 DUP1 RETURNDATACOPY RETURNDATASIZE PUSH1 0x0 REVERT JUMPDEST POP POP PUSH1 0x97 SLOAD PUSH1 0x40 MLOAD PUSH4 0x3F01AC53 PUSH1 0xE1 SHL DUP2 MSTORE PUSH1 0x4 DUP2 ADD DUP9 SWAP1 MSTORE PUSH1 0x0 SWAP4 POP PUSH1 0x1 PUSH1 0x1 PUSH1 0xA0 SHL SUB SWAP1 SWAP2 AND SWAP2 POP PUSH4 0x7E0358A6 SWAP1 PUSH1 0x24 ADD PUSH1 0x20 PUSH1 0x40 MLOAD DUP1 DUP4 SUB DUP2 DUP7 DUP1 EXTCODESIZE ISZERO DUP1 ISZERO PUSH2 0x26B7 JUMPI PUSH1 0x0 DUP1 REVERT JUMPDEST POP GAS STATICCALL ISZERO DUP1 ISZERO PUSH2 0x26CB JUMPI RETURNDATASIZE PUSH1 0x0 DUP1 RETURNDATACOPY RETURNDATASIZE PUSH1 0x0 REVERT JUMPDEST POP POP POP POP PUSH1 0x40 MLOAD RETURNDATASIZE PUSH1 0x1F NOT PUSH1 0x1F DUP3 ADD AND DUP3 ADD DUP1 PUSH1 0x40 MSTORE POP DUP2 ADD SWAP1 PUSH2 0x26EF SWAP2 SWAP1 PUSH2 0x3AB2 JUMP JUMPDEST PUSH1 0x0 DUP7 DUP2 MSTORE PUSH1 0xA9 PUSH1 0x20 MSTORE PUSH1 0x40 SWAP1 KECCAK256 SLOAD SWAP1 SWAP2 POP DUP2 SWAP1 PUSH2 0x270E SWAP1 DUP7 SWAP1 PUSH2 0x3D62 JUMP JUMPDEST GT ISZERO PUSH2 0x2751 JUMPI PUSH1 0x40 MLOAD PUSH3 0x461BCD PUSH1 0xE5 SHL DUP2 MSTORE PUSH1 0x20 PUSH1 0x4 DUP3 ADD MSTORE PUSH1 0x12 PUSH1 0x24 DUP3 ADD MSTORE PUSH18 0x1BDD5D081BD988195B995C99DE531A5B5A5D PUSH1 0x72 SHL PUSH1 0x44 DUP3 ADD MSTORE PUSH1 0x64 ADD PUSH2 0x958 JUMP JUMPDEST DUP2 MLOAD PUSH2 0x275D SWAP1 DUP6 PUSH2 0x3D8E JUMP JUMPDEST PUSH1 0x0 DUP7 DUP2 MSTORE PUSH1 0xA9 PUSH1 0x20 MSTORE PUSH1 0x40 DUP2 KECCAK256 DUP1 SLOAD SWAP1 SWAP2 SWAP1 PUSH2 0x277B SWAP1 DUP5 SWAP1 PUSH2 0x3D62 JUMP JUMPDEST SWAP1 SWAP2 SSTORE POP DUP5 SWAP1 POP PUSH1 0xA3 PUSH1 0x0 PUSH2 0x2791 PUSH1 0x1 DUP8 PUSH2 0x3DAD JUMP JUMPDEST DUP2 MSTORE PUSH1 0x20 ADD SWAP1 DUP2 MSTORE PUSH1 0x20 ADD PUSH1 0x0 KECCAK256 SLOAD PUSH2 0x27AA SWAP2 SWAP1 PUSH2 0x3D8E JUMP JUMPDEST PUSH2 0x27B4 SWAP1 TIMESTAMP PUSH2 0x3D62 JUMP JUMPDEST PUSH1 0x0 DUP7 DUP2 MSTORE PUSH1 0xA2 PUSH1 0x20 MSTORE PUSH1 0x40 DUP1 DUP3 KECCAK256 SWAP3 SWAP1 SWAP3 SSTORE SWAP1 MLOAD DUP6 SWAP2 DUP8 SWAP2 PUSH32 0x5CA6E6057D17A1E118C804B45D136285D0E2D00A826ED5A5BCD483359CAFB8ED SWAP2 SWAP1 LOG3 POP POP POP POP POP JUMP JUMPDEST PUSH1 0x0 PUSH2 0x2804 PUSH1 0x1 PUSH2 0x3227 JUMP JUMPDEST SWAP1 POP DUP1 ISZERO PUSH2 0x281C JUMPI PUSH1 0x0 DUP1 SLOAD PUSH2 0xFF00 NOT AND PUSH2 0x100 OR SWAP1 SSTORE JUMPDEST PUSH2 0x2824 PUSH2 0x32AF JUMP JUMPDEST PUSH2 0x282C PUSH2 0x32D6 JUMP JUMPDEST PUSH1 0x40 DUP1 MLOAD PUSH1 0xA0 DUP2 ADD DUP3 MSTORE PUSH1 0xC8 DUP2 MSTORE PUSH2 0x12C PUSH1 0x20 DUP3 ADD MSTORE PUSH2 0x1C2 SWAP2 DUP2 ADD SWAP2 SWAP1 SWAP2 MSTORE PUSH2 0x2A3 PUSH1 0x60 DUP3 ADD MSTORE PUSH2 0x546 PUSH1 0x80 DUP3 ADD MSTORE PUSH2 0x286A SWAP1 PUSH1 0xA8 SWAP1 PUSH1 0x5 PUSH2 0x3624 JUMP JUMPDEST POP PUSH1 0x40 DUP1 MLOAD PUSH1 0xC0 DUP2 ADD DUP3 MSTORE PUSH1 0x64 DUP2 MSTORE PUSH1 0x69 PUSH1 0x20 DUP3 ADD MSTORE PUSH1 0x6E SWAP2 DUP2 ADD SWAP2 SWAP1 SWAP2 MSTORE PUSH1 0x73 PUSH1 0x60 DUP3 ADD MSTORE PUSH1 0x78 PUSH1 0x80 DUP3 ADD MSTORE PUSH1 0x82 PUSH1 0xA0 DUP3 ADD MSTORE PUSH2 0x28AC SWAP1 PUSH1 0xAF SWAP1 PUSH1 0x6 PUSH2 0x3665 JUMP JUMPDEST POP PUSH1 0x40 DUP1 MLOAD PUSH1 0x60 DUP2 ADD DUP3 MSTORE PUSH1 0x32 DUP2 MSTORE PUSH1 0x3C PUSH1 0x20 DUP3 ADD MSTORE PUSH1 0x50 SWAP2 DUP2 ADD SWAP2 SWAP1 SWAP2 MSTORE PUSH2 0x28D9 SWAP1 PUSH1 0xAE SWAP1 PUSH1 0x3 PUSH2 0x3665 JUMP JUMPDEST POP PUSH1 0x40 DUP1 MLOAD PUSH1 0x60 DUP2 ADD DUP3 MSTORE PUSH9 0x5150AE84A8CDF00000 DUP2 MSTORE PUSH9 0x6C6B935B8BBD400000 PUSH1 0x20 DUP3 ADD MSTORE PUSH9 0xA2A15D09519BE00000 SWAP2 DUP2 ADD SWAP2 SWAP1 SWAP2 MSTORE PUSH2 0x291E SWAP1 PUSH1 0x9C SWAP1 PUSH1 0x3 PUSH2 0x36A5 JUMP JUMPDEST POP PUSH9 0x56BC75E2D63100000 PUSH1 0xA7 SSTORE PUSH2 0x2710 PUSH1 0xA5 SSTORE PUSH1 0xA3 PUSH1 0x20 MSTORE PUSH2 0x258 PUSH32 0x69B4E8F94AD9E612080E13AAD01219472D8C2C7AE7AA6CDF175400DDC8C4ED3D SSTORE PUSH2 0x384 PUSH32 0xC3869149E653AB70AB3ABED8EDC49ED99CCD0C8CF7CA81486B7ADBD034773B10 SSTORE PUSH1 0x2 PUSH1 0x0 MSTORE PUSH2 0x4B0 PUSH32 0xE262B42E4CA35E2F1E405B90C91327B65C89BDBF5DD51DEDC3459002050F6B7B SSTORE DUP1 ISZERO PUSH2 0x29F1 JUMPI PUSH1 0x0 DUP1 SLOAD PUSH2 0xFF00 NOT AND SWAP1 SSTORE PUSH1 0x40 MLOAD PUSH1 0x1 DUP2 MSTORE PUSH32 0x7F26B83FF96E1F2B6A682F133852F6798A09C465DA95921460CEFB3847402498 SWAP1 PUSH1 0x20 ADD PUSH1 0x40 MLOAD DUP1 SWAP2 SUB SWAP1 LOG1 JUMPDEST POP JUMP JUMPDEST CALLER PUSH1 0x0 SWAP1 DUP2 MSTORE PUSH1 0xA1 PUSH1 0x20 MSTORE PUSH1 0x40 SWAP1 KECCAK256 SLOAD PUSH1 0xFF AND PUSH2 0x2A23 JUMPI PUSH1 0x40 MLOAD PUSH3 0x461BCD PUSH1 0xE5 SHL DUP2 MSTORE PUSH1 0x4 ADD PUSH2 0x958 SWAP1 PUSH2 0x3CEB JUMP JUMPDEST PUSH1 0x0 SWAP2 DUP3 MSTORE PUSH1 0x9F PUSH1 0x20 MSTORE PUSH1 0x40 SWAP1 SWAP2 KECCAK256 DUP1 SLOAD PUSH1 0xFF NOT AND SWAP2 ISZERO ISZERO SWAP2 SWAP1 SWAP2 OR SWAP1 SSTORE JUMP JUMPDEST PUSH1 0x33 SLOAD PUSH1 0x1 PUSH1 0x1 PUSH1 0xA0 SHL SUB AND CALLER EQ PUSH2 0x2A6D JUMPI PUSH1 0x40 MLOAD PUSH3 0x461BCD PUSH1 0xE5 SHL DUP2 MSTORE PUSH1 0x4 ADD PUSH2 0x958 SWAP1 PUSH2 0x3C6B JUMP JUMPDEST PUSH1 0xA4 DUP1 SLOAD PUSH1 0x1 PUSH1 0x1 PUSH1 0xA0 SHL SUB NOT AND PUSH1 0x1 PUSH1 0x1 PUSH1 0xA0 SHL SUB SWAP3 SWAP1 SWAP3 AND SWAP2 SWAP1 SWAP2 OR SWAP1 SSTORE JUMP JUMPDEST CALLER PUSH1 0x0 SWAP1 DUP2 MSTORE PUSH1 0xAD PUSH1 0x20 MSTORE PUSH1 0x40 SWAP1 KECCAK256 SLOAD PUSH1 0x2 GT ISZERO PUSH2 0x2ABB JUMPI CALLER PUSH1 0x0 SWAP1 DUP2 MSTORE PUSH1 0xAD PUSH1 0x20 MSTORE PUSH1 0x40 SWAP1 KECCAK256 PUSH1 0x2 SWAP1 SSTORE JUMPDEST CALLER PUSH1 0x0 SWAP1 DUP2 MSTORE PUSH1 0xAD PUSH1 0x20 MSTORE PUSH1 0x40 DUP2 KECCAK256 SLOAD PUSH1 0x1 SWAP1 PUSH2 0x2ADA SWAP1 PUSH1 0x2 SWAP1 PUSH2 0x3D7A JUMP JUMPDEST PUSH2 0x2AE4 SWAP2 SWAP1 PUSH2 0x3DAD JUMP JUMPDEST SWAP1 POP PUSH1 0x0 PUSH1 0x9C DUP3 DUP2 SLOAD DUP2 LT PUSH2 0x2AFB JUMPI PUSH2 0x2AFB PUSH2 0x3E61 JUMP JUMPDEST SWAP1 PUSH1 0x0 MSTORE PUSH1 0x20 PUSH1 0x0 KECCAK256 ADD SLOAD SWAP1 POP PUSH2 0x2B2F CALLER PUSH1 0xAE DUP5 DUP2 SLOAD DUP2 LT PUSH2 0x2B1F JUMPI PUSH2 0x2B1F PUSH2 0x3E61 JUMP JUMPDEST SWAP1 PUSH1 0x0 MSTORE PUSH1 0x20 PUSH1 0x0 KECCAK256 ADD SLOAD PUSH2 0x2FD3 JUMP JUMPDEST PUSH2 0x2B47 CALLER PUSH1 0x98 SLOAD PUSH1 0x1 PUSH1 0x1 PUSH1 0xA0 SHL SUB AND SWAP1 ADDRESS DUP5 PUSH2 0x3306 JUMP JUMPDEST CALLER PUSH1 0x0 SWAP1 DUP2 MSTORE PUSH1 0xAD PUSH1 0x20 MSTORE PUSH1 0x40 DUP2 KECCAK256 DUP1 SLOAD SWAP2 PUSH2 0x2B62 DUP4 PUSH2 0x3DF0 JUMP JUMPDEST SWAP2 SWAP1 POP SSTORE POP POP POP JUMP JUMPDEST CALLER PUSH1 0x0 SWAP1 DUP2 MSTORE PUSH1 0xA1 PUSH1 0x20 MSTORE PUSH1 0x40 SWAP1 KECCAK256 SLOAD PUSH1 0xFF AND PUSH2 0x2B9A JUMPI PUSH1 0x40 MLOAD PUSH3 0x461BCD PUSH1 0xE5 SHL DUP2 MSTORE PUSH1 0x4 ADD PUSH2 0x958 SWAP1 PUSH2 0x3CEB JUMP JUMPDEST PUSH2 0x2BA3 DUP2 PUSH2 0x22BA JUMP JUMPDEST ISZERO PUSH2 0x2BDB JUMPI PUSH1 0x40 MLOAD PUSH3 0x461BCD PUSH1 0xE5 SHL DUP2 MSTORE PUSH1 0x20 PUSH1 0x4 DUP3 ADD MSTORE PUSH1 0x8 PUSH1 0x24 DUP3 ADD MSTORE PUSH8 0x6973207573696E67 PUSH1 0xC0 SHL PUSH1 0x44 DUP3 ADD MSTORE PUSH1 0x64 ADD PUSH2 0x958 JUMP JUMPDEST PUSH1 0x0 DUP2 DUP2 MSTORE PUSH1 0xA0 PUSH1 0x20 SWAP1 DUP2 MSTORE PUSH1 0x40 DUP1 DUP4 KECCAK256 SLOAD PUSH1 0x1 PUSH1 0x1 PUSH1 0xA0 SHL SUB AND DUP4 MSTORE PUSH1 0xAD DUP3 MSTORE DUP1 DUP4 KECCAK256 DUP5 DUP5 MSTORE PUSH1 0x9E SWAP1 SWAP3 MSTORE SWAP1 SWAP2 KECCAK256 SLOAD PUSH1 0xFF AND PUSH2 0x2C2A JUMPI PUSH1 0x40 MLOAD PUSH3 0x461BCD PUSH1 0xE5 SHL DUP2 MSTORE PUSH1 0x4 ADD PUSH2 0x958 SWAP1 PUSH2 0x3BD1 JUMP JUMPDEST PUSH1 0x0 PUSH2 0x2C39 DUP3 PUSH1 0x2 ADD DUP5 PUSH2 0x317A JUMP JUMPDEST SWAP1 POP DUP1 PUSH8 0xDE0B6B3A7640000 EQ ISZERO PUSH2 0x2C83 JUMPI PUSH1 0x40 MLOAD PUSH3 0x461BCD PUSH1 0xE5 SHL DUP2 MSTORE PUSH1 0x20 PUSH1 0x4 DUP3 ADD MSTORE PUSH1 0xD PUSH1 0x24 DUP3 ADD MSTORE PUSH13 0x1DDC9BDB99C81D1BDAD95B9259 PUSH1 0x9A SHL PUSH1 0x44 DUP3 ADD MSTORE PUSH1 0x64 ADD PUSH2 0x958 JUMP JUMPDEST PUSH1 0x2 DUP3 ADD DUP1 SLOAD PUSH2 0x2C95 SWAP1 PUSH1 0x1 SWAP1 PUSH2 0x3DAD JUMP JUMPDEST DUP2 SLOAD DUP2 LT PUSH2 0x2CA5 JUMPI PUSH2 0x2CA5 PUSH2 0x3E61 JUMP JUMPDEST SWAP1 PUSH1 0x0 MSTORE PUSH1 0x20 PUSH1 0x0 KECCAK256 ADD SLOAD DUP3 PUSH1 0x2 ADD DUP3 DUP2 SLOAD DUP2 LT PUSH2 0x2CC5 JUMPI PUSH2 0x2CC5 PUSH2 0x3E61 JUMP JUMPDEST PUSH1 0x0 SWAP2 DUP3 MSTORE PUSH1 0x20 SWAP1 SWAP2 KECCAK256 ADD SSTORE PUSH1 0x2 DUP3 ADD DUP1 SLOAD DUP1 PUSH2 0x2CE4 JUMPI PUSH2 0x2CE4 PUSH2 0x3E4B JUMP JUMPDEST PUSH1 0x0 DUP3 DUP2 MSTORE PUSH1 0x20 DUP1 DUP3 KECCAK256 PUSH1 0x0 NOT SWAP1 DUP5 ADD DUP2 ADD DUP4 SWAP1 SSTORE SWAP1 SWAP3 ADD SWAP1 SWAP3 SSTORE DUP5 DUP3 MSTORE PUSH1 0xA0 DUP2 MSTORE PUSH1 0x40 DUP1 DUP4 KECCAK256 DUP1 SLOAD PUSH1 0x1 PUSH1 0x1 PUSH1 0xA0 SHL SUB NOT AND SWAP1 SSTORE PUSH1 0x9E SWAP1 SWAP2 MSTORE SWAP1 DUP2 SWAP1 KECCAK256 DUP1 SLOAD PUSH1 0xFF NOT AND SWAP1 SSTORE PUSH1 0x97 SLOAD SWAP1 MLOAD PUSH4 0x852CD8D PUSH1 0xE3 SHL DUP2 MSTORE PUSH1 0x4 DUP2 ADD DUP6 SWAP1 MSTORE PUSH1 0x1 PUSH1 0x1 PUSH1 0xA0 SHL SUB SWAP1 SWAP2 AND SWAP1 PUSH4 0x42966C68 SWAP1 PUSH1 0x24 ADD PUSH2 0xE8A JUMP JUMPDEST PUSH1 0x33 SLOAD PUSH1 0x1 PUSH1 0x1 PUSH1 0xA0 SHL SUB AND CALLER EQ PUSH2 0x2D84 JUMPI PUSH1 0x40 MLOAD PUSH3 0x461BCD PUSH1 0xE5 SHL DUP2 MSTORE PUSH1 0x4 ADD PUSH2 0x958 SWAP1 PUSH2 0x3C6B JUMP JUMPDEST PUSH1 0x9D SSTORE JUMP JUMPDEST PUSH1 0x33 SLOAD PUSH1 0x1 PUSH1 0x1 PUSH1 0xA0 SHL SUB AND CALLER EQ PUSH2 0x2DB3 JUMPI PUSH1 0x40 MLOAD PUSH3 0x461BCD PUSH1 0xE5 SHL DUP2 MSTORE PUSH1 0x4 ADD PUSH2 0x958 SWAP1 PUSH2 0x3C6B JUMP JUMPDEST PUSH1 0x9B DUP1 SLOAD PUSH1 0x1 PUSH1 0x1 PUSH1 0xA0 SHL SUB NOT AND PUSH1 0x1 PUSH1 0x1 PUSH1 0xA0 SHL SUB SWAP3 SWAP1 SWAP3 AND SWAP2 SWAP1 SWAP2 OR SWAP1 SSTORE JUMP JUMPDEST PUSH1 0x9C DUP2 DUP2 SLOAD DUP2 LT PUSH2 0x172D JUMPI PUSH1 0x0 DUP1 REVERT JUMPDEST PUSH1 0xAF DUP2 DUP2 SLOAD DUP2 LT PUSH2 0x172D JUMPI PUSH1 0x0 DUP1 REVERT JUMPDEST PUSH1 0x1 PUSH1 0x1 PUSH1 0xA0 SHL SUB DUP2 AND PUSH1 0x0 SWAP1 DUP2 MSTORE PUSH1 0xAD PUSH1 0x20 MSTORE PUSH1 0x40 DUP2 KECCAK256 SLOAD DUP1 PUSH2 0x2E17 JUMPI POP PUSH1 0x2 JUMPDEST PUSH1 0x0 PUSH1 0x9C PUSH1 0x1 PUSH2 0x2E28 PUSH1 0x2 DUP6 PUSH2 0x3D7A JUMP JUMPDEST PUSH2 0x2E32 SWAP2 SWAP1 PUSH2 0x3DAD JUMP JUMPDEST DUP2 SLOAD DUP2 LT PUSH2 0x2E42 JUMPI PUSH2 0x2E42 PUSH2 0x3E61 JUMP JUMPDEST PUSH1 0x0 SWAP2 DUP3 MSTORE PUSH1 0x20 SWAP1 SWAP2 KECCAK256 ADD SLOAD SWAP5 SWAP4 POP POP POP POP JUMP JUMPDEST PUSH1 0x33 SLOAD PUSH1 0x1 PUSH1 0x1 PUSH1 0xA0 SHL SUB AND CALLER EQ PUSH2 0x2E80 JUMPI PUSH1 0x40 MLOAD PUSH3 0x461BCD PUSH1 0xE5 SHL DUP2 MSTORE PUSH1 0x4 ADD PUSH2 0x958 SWAP1 PUSH2 0x3C6B JUMP JUMPDEST DUP1 MLOAD PUSH2 0x212C SWAP1 PUSH1 0xAF SWAP1 PUSH1 0x20 DUP5 ADD SWAP1 PUSH2 0x35E9 JUMP JUMPDEST PUSH1 0x33 SLOAD PUSH1 0x1 PUSH1 0x1 PUSH1 0xA0 SHL SUB AND CALLER EQ PUSH2 0x2EBD JUMPI PUSH1 0x40 MLOAD PUSH3 0x461BCD PUSH1 0xE5 SHL DUP2 MSTORE PUSH1 0x4 ADD PUSH2 0x958 SWAP1 PUSH2 0x3C6B JUMP JUMPDEST PUSH1 0x1 PUSH1 0x1 PUSH1 0xA0 SHL SUB DUP2 AND PUSH2 0x2F22 JUMPI PUSH1 0x40 MLOAD PUSH3 0x461BCD PUSH1 0xE5 SHL DUP2 MSTORE PUSH1 0x20 PUSH1 0x4 DUP3 ADD MSTORE PUSH1 0x26 PUSH1 0x24 DUP3 ADD MSTORE PUSH32 0x4F776E61626C653A206E6577206F776E657220697320746865207A65726F2061 PUSH1 0x44 DUP3 ADD MSTORE PUSH6 0x646472657373 PUSH1 0xD0 SHL PUSH1 0x64 DUP3 ADD MSTORE PUSH1 0x84 ADD PUSH2 0x958 JUMP JUMPDEST PUSH2 0x29F1 DUP2 PUSH2 0x31D5 JUMP JUMPDEST CALLER PUSH1 0x0 SWAP1 DUP2 MSTORE PUSH1 0xA1 PUSH1 0x20 MSTORE PUSH1 0x40 SWAP1 KECCAK256 SLOAD PUSH1 0xFF AND PUSH2 0x2F5A JUMPI PUSH1 0x40 MLOAD PUSH3 0x461BCD PUSH1 0xE5 SHL DUP2 MSTORE PUSH1 0x4 ADD PUSH2 0x958 SWAP1 PUSH2 0x3CEB JUMP JUMPDEST PUSH2 0x212C DUP3 DUP3 PUSH2 0x2FD3 JUMP JUMPDEST PUSH1 0x1 PUSH1 0x1 PUSH1 0xA0 SHL SUB DUP2 AND PUSH1 0x0 SWAP1 DUP2 MSTORE PUSH1 0xAD PUSH1 0x20 SWAP1 DUP2 MSTORE PUSH1 0x40 SWAP2 DUP3 SWAP1 KECCAK256 PUSH1 0x2 ADD DUP1 SLOAD DUP4 MLOAD DUP2 DUP5 MUL DUP2 ADD DUP5 ADD SWAP1 SWAP5 MSTORE DUP1 DUP5 MSTORE PUSH1 0x60 SWAP4 SWAP3 DUP4 ADD DUP3 DUP3 DUP1 ISZERO PUSH2 0x2FC7 JUMPI PUSH1 0x20 MUL DUP3 ADD SWAP2 SWAP1 PUSH1 0x0 MSTORE PUSH1 0x20 PUSH1 0x0 KECCAK256 SWAP1 JUMPDEST DUP2 SLOAD DUP2 MSTORE PUSH1 0x20 ADD SWAP1 PUSH1 0x1 ADD SWAP1 DUP1 DUP4 GT PUSH2 0x2FB3 JUMPI JUMPDEST POP POP POP POP POP SWAP1 POP SWAP2 SWAP1 POP JUMP JUMPDEST PUSH1 0x1 PUSH1 0x1 PUSH1 0xA0 SHL SUB DUP3 AND PUSH1 0x0 SWAP1 DUP2 MSTORE PUSH1 0xAD PUSH1 0x20 MSTORE PUSH1 0x40 SWAP1 KECCAK256 PUSH1 0x1 ADD SLOAD PUSH8 0x16345785D8A0000 GT PUSH2 0x301A JUMPI PUSH1 0x1 PUSH1 0x1 PUSH1 0xA0 SHL SUB DUP3 AND PUSH1 0x0 SWAP1 DUP2 MSTORE PUSH1 0xAD PUSH1 0x20 MSTORE PUSH1 0x40 DUP2 KECCAK256 PUSH1 0x1 ADD SSTORE JUMPDEST PUSH1 0x1 PUSH1 0x1 PUSH1 0xA0 SHL SUB DUP3 AND PUSH1 0x0 SWAP1 DUP2 MSTORE PUSH1 0xB0 PUSH1 0x20 MSTORE PUSH1 0x40 SWAP1 KECCAK256 SLOAD PUSH1 0x5 DUP2 LT PUSH2 0x3070 JUMPI PUSH1 0x1 PUSH1 0x1 PUSH1 0xA0 SHL SUB DUP4 AND PUSH1 0x0 SWAP1 DUP2 MSTORE PUSH1 0xAD PUSH1 0x20 MSTORE PUSH1 0x40 DUP2 KECCAK256 PUSH1 0x1 ADD DUP1 SLOAD DUP5 SWAP3 SWAP1 PUSH2 0x3066 SWAP1 DUP5 SWAP1 PUSH2 0x3D62 JUMP JUMPDEST SWAP1 SWAP2 SSTORE POP POP POP POP POP JUMP JUMPDEST PUSH1 0xA8 DUP2 DUP2 SLOAD DUP2 LT PUSH2 0x3083 JUMPI PUSH2 0x3083 PUSH2 0x3E61 JUMP JUMPDEST PUSH1 0x0 SWAP2 DUP3 MSTORE PUSH1 0x20 DUP1 DUP4 KECCAK256 SWAP1 SWAP2 ADD SLOAD PUSH1 0x1 PUSH1 0x1 PUSH1 0xA0 SHL SUB DUP7 AND DUP4 MSTORE PUSH1 0xAD SWAP1 SWAP2 MSTORE PUSH1 0x40 SWAP1 SWAP2 KECCAK256 PUSH1 0x1 ADD SLOAD PUSH2 0x30B6 SWAP1 DUP5 SWAP1 PUSH2 0x3D62 JUMP JUMPDEST LT PUSH2 0x314F JUMPI PUSH1 0x0 PUSH1 0xA8 DUP3 DUP2 SLOAD DUP2 LT PUSH2 0x30D0 JUMPI PUSH2 0x30D0 PUSH2 0x3E61 JUMP JUMPDEST PUSH1 0x0 SWAP2 DUP3 MSTORE PUSH1 0x20 DUP1 DUP4 KECCAK256 SWAP1 SWAP2 ADD SLOAD PUSH1 0x1 PUSH1 0x1 PUSH1 0xA0 SHL SUB DUP8 AND DUP4 MSTORE PUSH1 0xAD SWAP1 SWAP2 MSTORE PUSH1 0x40 SWAP1 SWAP2 KECCAK256 PUSH1 0x1 ADD SLOAD PUSH2 0x3103 SWAP1 DUP6 SWAP1 PUSH2 0x3D62 JUMP JUMPDEST PUSH2 0x310D SWAP2 SWAP1 PUSH2 0x3DAD JUMP JUMPDEST PUSH1 0x1 PUSH1 0x1 PUSH1 0xA0 SHL SUB DUP6 AND PUSH1 0x0 SWAP1 DUP2 MSTORE PUSH1 0xAD PUSH1 0x20 SWAP1 DUP2 MSTORE PUSH1 0x40 DUP1 DUP4 KECCAK256 PUSH1 0x1 ADD DUP5 SWAP1 SSTORE PUSH1 0xB0 SWAP1 SWAP2 MSTORE DUP2 KECCAK256 DUP1 SLOAD SWAP3 SWAP4 POP SWAP1 PUSH2 0x3144 DUP4 PUSH2 0x3DF0 JUMP JUMPDEST SWAP2 SWAP1 POP SSTORE POP POP POP POP POP JUMP JUMPDEST PUSH1 0x1 PUSH1 0x1 PUSH1 0xA0 SHL SUB DUP4 AND PUSH1 0x0 SWAP1 DUP2 MSTORE PUSH1 0xAD PUSH1 0x20 MSTORE PUSH1 0x40 DUP2 KECCAK256 PUSH1 0x1 ADD DUP1 SLOAD DUP5 SWAP3 SWAP1 PUSH2 0x3066 SWAP1 DUP5 SWAP1 PUSH2 0x3D62 JUMP JUMPDEST PUSH1 0x0 DUP1 JUMPDEST DUP4 SLOAD DUP2 LT ISZERO PUSH2 0x31C4 JUMPI DUP3 DUP5 DUP3 DUP2 SLOAD DUP2 LT PUSH2 0x319A JUMPI PUSH2 0x319A PUSH2 0x3E61 JUMP JUMPDEST SWAP1 PUSH1 0x0 MSTORE PUSH1 0x20 PUSH1 0x0 KECCAK256 ADD SLOAD EQ ISZERO PUSH2 0x31B2 JUMPI SWAP1 POP PUSH2 0x23EC JUMP JUMPDEST DUP1 PUSH2 0x31BC DUP2 PUSH2 0x3DF0 JUMP JUMPDEST SWAP2 POP POP PUSH2 0x317E JUMP JUMPDEST POP PUSH8 0xDE0B6B3A7640000 SWAP4 SWAP3 POP POP POP JUMP JUMPDEST PUSH1 0x33 DUP1 SLOAD PUSH1 0x1 PUSH1 0x1 PUSH1 0xA0 SHL SUB DUP4 DUP2 AND PUSH1 0x1 PUSH1 0x1 PUSH1 0xA0 SHL SUB NOT DUP4 AND DUP2 OR SWAP1 SWAP4 SSTORE PUSH1 0x40 MLOAD SWAP2 AND SWAP2 SWAP1 DUP3 SWAP1 PUSH32 0x8BE0079C531659141344CD1FD0A4F28419497F9722A3DAAFE3B4186F6B6457E0 SWAP1 PUSH1 0x0 SWAP1 LOG3 POP POP JUMP JUMPDEST PUSH1 0x0 DUP1 SLOAD PUSH2 0x100 SWAP1 DIV PUSH1 0xFF AND ISZERO PUSH2 0x326E JUMPI DUP2 PUSH1 0xFF AND PUSH1 0x1 EQ DUP1 ISZERO PUSH2 0x324A JUMPI POP ADDRESS EXTCODESIZE ISZERO JUMPDEST PUSH2 0x3266 JUMPI PUSH1 0x40 MLOAD PUSH3 0x461BCD PUSH1 0xE5 SHL DUP2 MSTORE PUSH1 0x4 ADD PUSH2 0x958 SWAP1 PUSH2 0x3BF8 JUMP JUMPDEST POP PUSH1 0x0 SWAP2 SWAP1 POP JUMP JUMPDEST PUSH1 0x0 SLOAD PUSH1 0xFF DUP1 DUP5 AND SWAP2 AND LT PUSH2 0x3295 JUMPI PUSH1 0x40 MLOAD PUSH3 0x461BCD PUSH1 0xE5 SHL DUP2 MSTORE PUSH1 0x4 ADD PUSH2 0x958 SWAP1 PUSH2 0x3BF8 JUMP JUMPDEST POP PUSH1 0x0 DUP1 SLOAD PUSH1 0xFF NOT AND PUSH1 0xFF SWAP3 SWAP1 SWAP3 AND SWAP2 SWAP1 SWAP2 OR SWAP1 SSTORE PUSH1 0x1 SWAP1 JUMP JUMPDEST PUSH1 0x0 SLOAD PUSH2 0x100 SWAP1 DIV PUSH1 0xFF AND PUSH2 0x236D JUMPI PUSH1 0x40 MLOAD PUSH3 0x461BCD PUSH1 0xE5 SHL DUP2 MSTORE PUSH1 0x4 ADD PUSH2 0x958 SWAP1 PUSH2 0x3CA0 JUMP JUMPDEST PUSH1 0x0 SLOAD PUSH2 0x100 SWAP1 DIV PUSH1 0xFF AND PUSH2 0x32FD JUMPI PUSH1 0x40 MLOAD PUSH3 0x461BCD PUSH1 0xE5 SHL DUP2 MSTORE PUSH1 0x4 ADD PUSH2 0x958 SWAP1 PUSH2 0x3CA0 JUMP JUMPDEST PUSH2 0x236D CALLER PUSH2 0x31D5 JUMP JUMPDEST PUSH1 0x40 DUP1 MLOAD PUSH1 0x1 PUSH1 0x1 PUSH1 0xA0 SHL SUB DUP6 DUP2 AND PUSH1 0x24 DUP4 ADD MSTORE DUP5 DUP2 AND PUSH1 0x44 DUP4 ADD MSTORE PUSH1 0x64 DUP1 DUP4 ADD DUP6 SWAP1 MSTORE DUP4 MLOAD DUP1 DUP5 SUB SWAP1 SWAP2 ADD DUP2 MSTORE PUSH1 0x84 SWAP1 SWAP3 ADD DUP4 MSTORE PUSH1 0x20 DUP1 DUP4 ADD DUP1 MLOAD PUSH1 0x1 PUSH1 0x1 PUSH1 0xE0 SHL SUB AND PUSH4 0x23B872DD PUSH1 0xE0 SHL OR SWAP1 MSTORE DUP4 MLOAD DUP1 DUP6 ADD SWAP1 SWAP5 MSTORE DUP1 DUP5 MSTORE PUSH32 0x5361666545524332303A206C6F772D6C6576656C2063616C6C206661696C6564 SWAP1 DUP5 ADD MSTORE PUSH2 0xEDC SWAP3 DUP8 SWAP3 SWAP2 PUSH1 0x0 SWAP2 PUSH2 0x339E SWAP2 DUP6 AND SWAP1 DUP5 SWAP1 PUSH2 0x341B JUMP JUMPDEST DUP1 MLOAD SWAP1 SWAP2 POP ISZERO PUSH2 0xEDE JUMPI DUP1 DUP1 PUSH1 0x20 ADD SWAP1 MLOAD DUP2 ADD SWAP1 PUSH2 0x33BC SWAP2 SWAP1 PUSH2 0x3A7C JUMP JUMPDEST PUSH2 0xEDE JUMPI PUSH1 0x40 MLOAD PUSH3 0x461BCD PUSH1 0xE5 SHL DUP2 MSTORE PUSH1 0x20 PUSH1 0x4 DUP3 ADD MSTORE PUSH1 0x2A PUSH1 0x24 DUP3 ADD MSTORE PUSH32 0x5361666545524332303A204552433230206F7065726174696F6E20646964206E PUSH1 0x44 DUP3 ADD MSTORE PUSH10 0x1BDD081CDD58D8D95959 PUSH1 0xB2 SHL PUSH1 0x64 DUP3 ADD MSTORE PUSH1 0x84 ADD PUSH2 0x958 JUMP JUMPDEST PUSH1 0x60 PUSH2 0x342A DUP5 DUP5 PUSH1 0x0 DUP6 PUSH2 0x3434 JUMP JUMPDEST SWAP1 POP JUMPDEST SWAP4 SWAP3 POP POP POP JUMP JUMPDEST PUSH1 0x60 DUP3 SELFBALANCE LT ISZERO PUSH2 0x3495 JUMPI PUSH1 0x40 MLOAD PUSH3 0x461BCD PUSH1 0xE5 SHL DUP2 MSTORE PUSH1 0x20 PUSH1 0x4 DUP3 ADD MSTORE PUSH1 0x26 PUSH1 0x24 DUP3 ADD MSTORE PUSH32 0x416464726573733A20696E73756666696369656E742062616C616E636520666F PUSH1 0x44 DUP3 ADD MSTORE PUSH6 0x1C8818D85B1B PUSH1 0xD2 SHL PUSH1 0x64 DUP3 ADD MSTORE PUSH1 0x84 ADD PUSH2 0x958 JUMP JUMPDEST PUSH1 0x1 PUSH1 0x1 PUSH1 0xA0 SHL SUB DUP6 AND EXTCODESIZE PUSH2 0x34EC JUMPI PUSH1 0x40 MLOAD PUSH3 0x461BCD PUSH1 0xE5 SHL DUP2 MSTORE PUSH1 0x20 PUSH1 0x4 DUP3 ADD MSTORE PUSH1 0x1D PUSH1 0x24 DUP3 ADD MSTORE PUSH32 0x416464726573733A2063616C6C20746F206E6F6E2D636F6E7472616374000000 PUSH1 0x44 DUP3 ADD MSTORE PUSH1 0x64 ADD PUSH2 0x958 JUMP JUMPDEST PUSH1 0x0 DUP1 DUP7 PUSH1 0x1 PUSH1 0x1 PUSH1 0xA0 SHL SUB AND DUP6 DUP8 PUSH1 0x40 MLOAD PUSH2 0x3508 SWAP2 SWAP1 PUSH2 0x3B3E JUMP JUMPDEST PUSH1 0x0 PUSH1 0x40 MLOAD DUP1 DUP4 SUB DUP2 DUP6 DUP8 GAS CALL SWAP3 POP POP POP RETURNDATASIZE DUP1 PUSH1 0x0 DUP2 EQ PUSH2 0x3545 JUMPI PUSH1 0x40 MLOAD SWAP2 POP PUSH1 0x1F NOT PUSH1 0x3F RETURNDATASIZE ADD AND DUP3 ADD PUSH1 0x40 MSTORE RETURNDATASIZE DUP3 MSTORE RETURNDATASIZE PUSH1 0x0 PUSH1 0x20 DUP5 ADD RETURNDATACOPY PUSH2 0x354A JUMP JUMPDEST PUSH1 0x60 SWAP2 POP JUMPDEST POP SWAP2 POP SWAP2 POP PUSH2 0x355A DUP3 DUP3 DUP7 PUSH2 0x3565 JUMP JUMPDEST SWAP8 SWAP7 POP POP POP POP POP POP POP JUMP JUMPDEST PUSH1 0x60 DUP4 ISZERO PUSH2 0x3574 JUMPI POP DUP2 PUSH2 0x342D JUMP JUMPDEST DUP3 MLOAD ISZERO PUSH2 0x3584 JUMPI DUP3 MLOAD DUP1 DUP5 PUSH1 0x20 ADD REVERT JUMPDEST DUP2 PUSH1 0x40 MLOAD PUSH3 0x461BCD PUSH1 0xE5 SHL DUP2 MSTORE PUSH1 0x4 ADD PUSH2 0x958 SWAP2 SWAP1 PUSH2 0x3B9E JUMP JUMPDEST DUP3 DUP1 SLOAD DUP3 DUP3 SSTORE SWAP1 PUSH1 0x0 MSTORE PUSH1 0x20 PUSH1 0x0 KECCAK256 SWAP1 DUP2 ADD SWAP3 DUP3 ISZERO PUSH2 0x35D9 JUMPI SWAP2 PUSH1 0x20 MUL DUP3 ADD JUMPDEST DUP3 DUP2 GT ISZERO PUSH2 0x35D9 JUMPI DUP3 CALLDATALOAD DUP3 SSTORE SWAP2 PUSH1 0x20 ADD SWAP2 SWAP1 PUSH1 0x1 ADD SWAP1 PUSH2 0x35BE JUMP JUMPDEST POP PUSH2 0x35E5 SWAP3 SWAP2 POP PUSH2 0x36ED JUMP JUMPDEST POP SWAP1 JUMP JUMPDEST DUP3 DUP1 SLOAD DUP3 DUP3 SSTORE SWAP1 PUSH1 0x0 MSTORE PUSH1 0x20 PUSH1 0x0 KECCAK256 SWAP1 DUP2 ADD SWAP3 DUP3 ISZERO PUSH2 0x35D9 JUMPI SWAP2 PUSH1 0x20 MUL DUP3 ADD JUMPDEST DUP3 DUP2 GT ISZERO PUSH2 0x35D9 JUMPI DUP3 MLOAD DUP3 SSTORE SWAP2 PUSH1 0x20 ADD SWAP2 SWAP1 PUSH1 0x1 ADD SWAP1 PUSH2 0x3609 JUMP JUMPDEST DUP3 DUP1 SLOAD DUP3 DUP3 SSTORE SWAP1 PUSH1 0x0 MSTORE PUSH1 0x20 PUSH1 0x0 KECCAK256 SWAP1 DUP2 ADD SWAP3 DUP3 ISZERO PUSH2 0x35D9 JUMPI SWAP2 PUSH1 0x20 MUL DUP3 ADD JUMPDEST DUP3 DUP2 GT ISZERO PUSH2 0x35D9 JUMPI DUP3 MLOAD DUP3 SWAP1 PUSH2 0xFFFF AND SWAP1 SSTORE SWAP2 PUSH1 0x20 ADD SWAP2 SWAP1 PUSH1 0x1 ADD SWAP1 PUSH2 0x3644 JUMP JUMPDEST DUP3 DUP1 SLOAD DUP3 DUP3 SSTORE SWAP1 PUSH1 0x0 MSTORE PUSH1 0x20 PUSH1 0x0 KECCAK256 SWAP1 DUP2 ADD SWAP3 DUP3 ISZERO PUSH2 0x35D9 JUMPI SWAP2 PUSH1 0x20 MUL DUP3 ADD JUMPDEST DUP3 DUP2 GT ISZERO PUSH2 0x35D9 JUMPI DUP3 MLOAD DUP3 SWAP1 PUSH1 0xFF AND SWAP1 SSTORE SWAP2 PUSH1 0x20 ADD SWAP2 SWAP1 PUSH1 0x1 ADD SWAP1 PUSH2 0x3685 JUMP JUMPDEST DUP3 DUP1 SLOAD DUP3 DUP3 SSTORE SWAP1 PUSH1 0x0 MSTORE PUSH1 0x20 PUSH1 0x0 KECCAK256 SWAP1 DUP2 ADD SWAP3 DUP3 ISZERO PUSH2 0x35D9 JUMPI SWAP2 PUSH1 0x20 MUL DUP3 ADD JUMPDEST DUP3 DUP2 GT ISZERO PUSH2 0x35D9 JUMPI DUP3 MLOAD DUP3 SWAP1 PUSH9 0xFFFFFFFFFFFFFFFFFF AND SWAP1 SSTORE SWAP2 PUSH1 0x20 ADD SWAP2 SWAP1 PUSH1 0x1 ADD SWAP1 PUSH2 0x36C5 JUMP JUMPDEST JUMPDEST DUP1 DUP3 GT ISZERO PUSH2 0x35E5 JUMPI PUSH1 0x0 DUP2 SSTORE PUSH1 0x1 ADD PUSH2 0x36EE JUMP JUMPDEST PUSH1 0x0 PUSH1 0x20 DUP3 DUP5 SUB SLT ISZERO PUSH2 0x3714 JUMPI PUSH1 0x0 DUP1 REVERT JUMPDEST DUP2 CALLDATALOAD PUSH2 0x342D DUP2 PUSH2 0x3E8D JUMP JUMPDEST PUSH1 0x0 PUSH1 0x20 DUP3 DUP5 SUB SLT ISZERO PUSH2 0x3731 JUMPI PUSH1 0x0 DUP1 REVERT JUMPDEST DUP2 MLOAD PUSH2 0x342D DUP2 PUSH2 0x3E8D JUMP JUMPDEST PUSH1 0x0 DUP1 PUSH1 0x40 DUP4 DUP6 SUB SLT ISZERO PUSH2 0x374F JUMPI PUSH1 0x0 DUP1 REVERT JUMPDEST DUP3 CALLDATALOAD PUSH2 0x375A DUP2 PUSH2 0x3E8D JUMP JUMPDEST SWAP2 POP PUSH1 0x20 DUP4 ADD CALLDATALOAD PUSH2 0x376A DUP2 PUSH2 0x3E8D JUMP JUMPDEST DUP1 SWAP2 POP POP SWAP3 POP SWAP3 SWAP1 POP JUMP JUMPDEST PUSH1 0x0 DUP1 PUSH1 0x0 PUSH1 0x60 DUP5 DUP7 SUB SLT ISZERO PUSH2 0x378A JUMPI PUSH1 0x0 DUP1 REVERT JUMPDEST DUP4 CALLDATALOAD PUSH2 0x3795 DUP2 PUSH2 0x3E8D JUMP JUMPDEST SWAP3 POP PUSH1 0x20 DUP5 ADD CALLDATALOAD PUSH2 0x37A5 DUP2 PUSH2 0x3E8D JUMP JUMPDEST SWAP3 SWAP6 SWAP3 SWAP5 POP POP POP PUSH1 0x40 SWAP2 SWAP1 SWAP2 ADD CALLDATALOAD SWAP1 JUMP JUMPDEST PUSH1 0x0 DUP1 PUSH1 0x0 DUP1 PUSH1 0x80 DUP6 DUP8 SUB SLT ISZERO PUSH2 0x37CC JUMPI PUSH1 0x0 DUP1 REVERT JUMPDEST DUP5 CALLDATALOAD PUSH2 0x37D7 DUP2 PUSH2 0x3E8D JUMP JUMPDEST SWAP4 POP PUSH1 0x20 DUP6 DUP2 ADD CALLDATALOAD PUSH2 0x37E8 DUP2 PUSH2 0x3E8D JUMP JUMPDEST SWAP4 POP PUSH1 0x40 DUP7 ADD CALLDATALOAD SWAP3 POP PUSH1 0x60 DUP7 ADD CALLDATALOAD PUSH8 0xFFFFFFFFFFFFFFFF DUP1 DUP3 GT ISZERO PUSH2 0x380C JUMPI PUSH1 0x0 DUP1 REVERT JUMPDEST DUP2 DUP9 ADD SWAP2 POP DUP9 PUSH1 0x1F DUP4 ADD SLT PUSH2 0x3820 JUMPI PUSH1 0x0 DUP1 REVERT JUMPDEST DUP2 CALLDATALOAD DUP2 DUP2 GT ISZERO PUSH2 0x3832 JUMPI PUSH2 0x3832 PUSH2 0x3E77 JUMP JUMPDEST PUSH2 0x3844 PUSH1 0x1F DUP3 ADD PUSH1 0x1F NOT AND DUP6 ADD PUSH2 0x3D31 JUMP JUMPDEST SWAP2 POP DUP1 DUP3 MSTORE DUP10 DUP5 DUP3 DUP6 ADD ADD GT ISZERO PUSH2 0x385A JUMPI PUSH1 0x0 DUP1 REVERT JUMPDEST DUP1 DUP5 DUP5 ADD DUP6 DUP5 ADD CALLDATACOPY PUSH1 0x0 DUP5 DUP3 DUP5 ADD ADD MSTORE POP DUP1 SWAP4 POP POP POP POP SWAP3 SWAP6 SWAP2 SWAP5 POP SWAP3 POP JUMP JUMPDEST PUSH1 0x0 DUP1 PUSH1 0x40 DUP4 DUP6 SUB SLT ISZERO PUSH2 0x388D JUMPI PUSH1 0x0 DUP1 REVERT JUMPDEST DUP3 CALLDATALOAD PUSH2 0x3898 DUP2 PUSH2 0x3E8D JUMP JUMPDEST SWAP2 POP PUSH1 0x20 DUP4 ADD CALLDATALOAD PUSH2 0x376A DUP2 PUSH2 0x3EA2 JUMP JUMPDEST PUSH1 0x0 DUP1 PUSH1 0x40 DUP4 DUP6 SUB SLT ISZERO PUSH2 0x38BB JUMPI PUSH1 0x0 DUP1 REVERT JUMPDEST DUP3 CALLDATALOAD PUSH2 0x38C6 DUP2 PUSH2 0x3E8D JUMP JUMPDEST SWAP5 PUSH1 0x20 SWAP4 SWAP1 SWAP4 ADD CALLDATALOAD SWAP4 POP POP POP JUMP JUMPDEST PUSH1 0x0 PUSH1 0x60 DUP3 DUP5 SUB SLT ISZERO PUSH2 0x38E6 JUMPI PUSH1 0x0 DUP1 REVERT JUMPDEST DUP3 PUSH1 0x1F DUP4 ADD SLT PUSH2 0x38F5 JUMPI PUSH1 0x0 DUP1 REVERT JUMPDEST PUSH1 0x40 MLOAD PUSH1 0x60 DUP2 ADD DUP2 DUP2 LT PUSH8 0xFFFFFFFFFFFFFFFF DUP3 GT OR ISZERO PUSH2 0x3918 JUMPI PUSH2 0x3918 PUSH2 0x3E77 JUMP JUMPDEST PUSH1 0x40 MSTORE DUP1 DUP4 PUSH1 0x60 DUP2 ADD DUP7 LT ISZERO PUSH2 0x392D JUMPI PUSH1 0x0 DUP1 REVERT JUMPDEST PUSH1 0x0 JUMPDEST PUSH1 0x3 DUP2 LT ISZERO PUSH2 0x394F JUMPI DUP2 MLOAD DUP4 MSTORE PUSH1 0x20 SWAP3 DUP4 ADD SWAP3 SWAP1 SWAP2 ADD SWAP1 PUSH1 0x1 ADD PUSH2 0x3930 JUMP JUMPDEST POP SWAP2 SWAP6 SWAP5 POP POP POP POP POP JUMP JUMPDEST PUSH1 0x0 DUP1 PUSH1 0x20 DUP4 DUP6 SUB SLT ISZERO PUSH2 0x396D JUMPI PUSH1 0x0 DUP1 REVERT JUMPDEST DUP3 CALLDATALOAD PUSH8 0xFFFFFFFFFFFFFFFF DUP1 DUP3 GT ISZERO PUSH2 0x3985 JUMPI PUSH1 0x0 DUP1 REVERT JUMPDEST DUP2 DUP6 ADD SWAP2 POP DUP6 PUSH1 0x1F DUP4 ADD SLT PUSH2 0x3999 JUMPI PUSH1 0x0 DUP1 REVERT JUMPDEST DUP2 CALLDATALOAD DUP2 DUP2 GT ISZERO PUSH2 0x39A8 JUMPI PUSH1 0x0 DUP1 REVERT JUMPDEST DUP7 PUSH1 0x20 DUP3 PUSH1 0x5 SHL DUP6 ADD ADD GT ISZERO PUSH2 0x39BD JUMPI PUSH1 0x0 DUP1 REVERT JUMPDEST PUSH1 0x20 SWAP3 SWAP1 SWAP3 ADD SWAP7 SWAP2 SWAP6 POP SWAP1 SWAP4 POP POP POP POP JUMP JUMPDEST PUSH1 0x0 PUSH1 0x20 DUP1 DUP4 DUP6 SUB SLT ISZERO PUSH2 0x39E2 JUMPI PUSH1 0x0 DUP1 REVERT JUMPDEST DUP3 CALLDATALOAD PUSH8 0xFFFFFFFFFFFFFFFF DUP1 DUP3 GT ISZERO PUSH2 0x39FA JUMPI PUSH1 0x0 DUP1 REVERT JUMPDEST DUP2 DUP6 ADD SWAP2 POP DUP6 PUSH1 0x1F DUP4 ADD SLT PUSH2 0x3A0E JUMPI PUSH1 0x0 DUP1 REVERT JUMPDEST DUP2 CALLDATALOAD DUP2 DUP2 GT ISZERO PUSH2 0x3A20 JUMPI PUSH2 0x3A20 PUSH2 0x3E77 JUMP JUMPDEST DUP1 PUSH1 0x5 SHL SWAP2 POP PUSH2 0x3A31 DUP5 DUP4 ADD PUSH2 0x3D31 JUMP JUMPDEST DUP2 DUP2 MSTORE DUP5 DUP2 ADD SWAP1 DUP5 DUP7 ADD DUP5 DUP7 ADD DUP8 ADD DUP11 LT ISZERO PUSH2 0x3A4C JUMPI PUSH1 0x0 DUP1 REVERT JUMPDEST PUSH1 0x0 SWAP6 POP JUMPDEST DUP4 DUP7 LT ISZERO PUSH2 0x3A6F JUMPI DUP1 CALLDATALOAD DUP4 MSTORE PUSH1 0x1 SWAP6 SWAP1 SWAP6 ADD SWAP5 SWAP2 DUP7 ADD SWAP2 DUP7 ADD PUSH2 0x3A51 JUMP JUMPDEST POP SWAP9 SWAP8 POP POP POP POP POP POP POP POP JUMP JUMPDEST PUSH1 0x0 PUSH1 0x20 DUP3 DUP5 SUB SLT ISZERO PUSH2 0x3A8E JUMPI PUSH1 0x0 DUP1 REVERT JUMPDEST DUP2 MLOAD PUSH2 0x342D DUP2 PUSH2 0x3EA2 JUMP JUMPDEST PUSH1 0x0 PUSH1 0x20 DUP3 DUP5 SUB SLT ISZERO PUSH2 0x3AAB JUMPI PUSH1 0x0 DUP1 REVERT JUMPDEST POP CALLDATALOAD SWAP2 SWAP1 POP JUMP JUMPDEST PUSH1 0x0 PUSH1 0x20 DUP3 DUP5 SUB SLT ISZERO PUSH2 0x3AC4 JUMPI PUSH1 0x0 DUP1 REVERT JUMPDEST POP MLOAD SWAP2 SWAP1 POP JUMP JUMPDEST PUSH1 0x0 DUP1 PUSH1 0x40 DUP4 DUP6 SUB SLT ISZERO PUSH2 0x3ADE JUMPI PUSH1 0x0 DUP1 REVERT JUMPDEST DUP3 CALLDATALOAD SWAP2 POP PUSH1 0x20 DUP4 ADD CALLDATALOAD PUSH2 0x376A DUP2 PUSH2 0x3EA2 JUMP JUMPDEST PUSH1 0x0 DUP1 PUSH1 0x40 DUP4 DUP6 SUB SLT ISZERO PUSH2 0x3B03 JUMPI PUSH1 0x0 DUP1 REVERT JUMPDEST POP POP DUP1 CALLDATALOAD SWAP3 PUSH1 0x20 SWAP1 SWAP2 ADD CALLDATALOAD SWAP2 POP JUMP JUMPDEST PUSH1 0x0 DUP1 PUSH1 0x0 PUSH1 0x60 DUP5 DUP7 SUB SLT ISZERO PUSH2 0x3B27 JUMPI PUSH1 0x0 DUP1 REVERT JUMPDEST POP POP DUP2 CALLDATALOAD SWAP4 PUSH1 0x20 DUP4 ADD CALLDATALOAD SWAP4 POP PUSH1 0x40 SWAP1 SWAP3 ADD CALLDATALOAD SWAP2 SWAP1 POP JUMP JUMPDEST PUSH1 0x0 DUP3 MLOAD PUSH2 0x3B50 DUP2 DUP5 PUSH1 0x20 DUP8 ADD PUSH2 0x3DC4 JUMP JUMPDEST SWAP2 SWAP1 SWAP2 ADD SWAP3 SWAP2 POP POP JUMP JUMPDEST PUSH1 0x20 DUP1 DUP3 MSTORE DUP3 MLOAD DUP3 DUP3 ADD DUP2 SWAP1 MSTORE PUSH1 0x0 SWAP2 SWAP1 DUP5 DUP3 ADD SWAP1 PUSH1 0x40 DUP6 ADD SWAP1 DUP5 JUMPDEST DUP2 DUP2 LT ISZERO PUSH2 0x3B92 JUMPI DUP4 MLOAD DUP4 MSTORE SWAP3 DUP5 ADD SWAP3 SWAP2 DUP5 ADD SWAP2 PUSH1 0x1 ADD PUSH2 0x3B76 JUMP JUMPDEST POP SWAP1 SWAP7 SWAP6 POP POP POP POP POP POP JUMP JUMPDEST PUSH1 0x20 DUP2 MSTORE PUSH1 0x0 DUP3 MLOAD DUP1 PUSH1 0x20 DUP5 ADD MSTORE PUSH2 0x3BBD DUP2 PUSH1 0x40 DUP6 ADD PUSH1 0x20 DUP8 ADD PUSH2 0x3DC4 JUMP JUMPDEST PUSH1 0x1F ADD PUSH1 0x1F NOT AND SWAP2 SWAP1 SWAP2 ADD PUSH1 0x40 ADD SWAP3 SWAP2 POP POP JUMP JUMPDEST PUSH1 0x20 DUP1 DUP3 MSTORE PUSH1 0xD SWAP1 DUP3 ADD MSTORE PUSH13 0x6E6F7420696E20737461626C65 PUSH1 0x98 SHL PUSH1 0x40 DUP3 ADD MSTORE PUSH1 0x60 ADD SWAP1 JUMP JUMPDEST PUSH1 0x20 DUP1 DUP3 MSTORE PUSH1 0x2E SWAP1 DUP3 ADD MSTORE PUSH32 0x496E697469616C697A61626C653A20636F6E747261637420697320616C726561 PUSH1 0x40 DUP3 ADD MSTORE PUSH14 0x191E481A5B9A5D1A585B1A5E9959 PUSH1 0x92 SHL PUSH1 0x60 DUP3 ADD MSTORE PUSH1 0x80 ADD SWAP1 JUMP JUMPDEST PUSH1 0x20 DUP1 DUP3 MSTORE PUSH1 0xB SWAP1 DUP3 ADD MSTORE PUSH11 0x6465616420636174746C65 PUSH1 0xA8 SHL PUSH1 0x40 DUP3 ADD MSTORE PUSH1 0x60 ADD SWAP1 JUMP JUMPDEST PUSH1 0x20 DUP1 DUP3 MSTORE DUP2 DUP2 ADD MSTORE PUSH32 0x4F776E61626C653A2063616C6C6572206973206E6F7420746865206F776E6572 PUSH1 0x40 DUP3 ADD MSTORE PUSH1 0x60 ADD SWAP1 JUMP JUMPDEST PUSH1 0x20 DUP1 DUP3 MSTORE PUSH1 0x2B SWAP1 DUP3 ADD MSTORE PUSH32 0x496E697469616C697A61626C653A20636F6E7472616374206973206E6F742069 PUSH1 0x40 DUP3 ADD MSTORE PUSH11 0x6E697469616C697A696E67 PUSH1 0xA8 SHL PUSH1 0x60 DUP3 ADD MSTORE PUSH1 0x80 ADD SWAP1 JUMP JUMPDEST PUSH1 0x20 DUP1 DUP3 MSTORE PUSH1 0x9 SWAP1 DUP3 ADD MSTORE PUSH9 0x3737BA1030B236B4B7 PUSH1 0xB9 SHL PUSH1 0x40 DUP3 ADD MSTORE PUSH1 0x60 ADD SWAP1 JUMP JUMPDEST PUSH1 0x20 DUP1 DUP3 MSTORE PUSH1 0x9 SWAP1 DUP3 ADD MSTORE PUSH9 0x3737BA1037BBB732B9 PUSH1 0xB9 SHL PUSH1 0x40 DUP3 ADD MSTORE PUSH1 0x60 ADD SWAP1 JUMP JUMPDEST PUSH1 0x40 MLOAD PUSH1 0x1F DUP3 ADD PUSH1 0x1F NOT AND DUP2 ADD PUSH8 0xFFFFFFFFFFFFFFFF DUP2 GT DUP3 DUP3 LT OR ISZERO PUSH2 0x3D5A JUMPI PUSH2 0x3D5A PUSH2 0x3E77 JUMP JUMPDEST PUSH1 0x40 MSTORE SWAP2 SWAP1 POP JUMP JUMPDEST PUSH1 0x0 DUP3 NOT DUP3 GT ISZERO PUSH2 0x3D75 JUMPI PUSH2 0x3D75 PUSH2 0x3E1F JUMP JUMPDEST POP ADD SWAP1 JUMP JUMPDEST PUSH1 0x0 DUP3 PUSH2 0x3D89 JUMPI PUSH2 0x3D89 PUSH2 0x3E35 JUMP JUMPDEST POP DIV SWAP1 JUMP JUMPDEST PUSH1 0x0 DUP2 PUSH1 0x0 NOT DIV DUP4 GT DUP3 ISZERO ISZERO AND ISZERO PUSH2 0x3DA8 JUMPI PUSH2 0x3DA8 PUSH2 0x3E1F JUMP JUMPDEST POP MUL SWAP1 JUMP JUMPDEST PUSH1 0x0 DUP3 DUP3 LT ISZERO PUSH2 0x3DBF JUMPI PUSH2 0x3DBF PUSH2 0x3E1F JUMP JUMPDEST POP SUB SWAP1 JUMP JUMPDEST PUSH1 0x0 JUMPDEST DUP4 DUP2 LT ISZERO PUSH2 0x3DDF JUMPI DUP2 DUP2 ADD MLOAD DUP4 DUP3 ADD MSTORE PUSH1 0x20 ADD PUSH2 0x3DC7 JUMP JUMPDEST DUP4 DUP2 GT ISZERO PUSH2 0xEDC JUMPI POP POP PUSH1 0x0 SWAP2 ADD MSTORE JUMP JUMPDEST PUSH1 0x0 PUSH1 0x0 NOT DUP3 EQ ISZERO PUSH2 0x3E04 JUMPI PUSH2 0x3E04 PUSH2 0x3E1F JUMP JUMPDEST POP PUSH1 0x1 ADD SWAP1 JUMP JUMPDEST PUSH1 0x0 DUP3 PUSH2 0x3E1A JUMPI PUSH2 0x3E1A PUSH2 0x3E35 JUMP JUMPDEST POP MOD SWAP1 JUMP JUMPDEST PUSH4 0x4E487B71 PUSH1 0xE0 SHL PUSH1 0x0 MSTORE PUSH1 0x11 PUSH1 0x4 MSTORE PUSH1 0x24 PUSH1 0x0 REVERT JUMPDEST PUSH4 0x4E487B71 PUSH1 0xE0 SHL PUSH1 0x0 MSTORE PUSH1 0x12 PUSH1 0x4 MSTORE PUSH1 0x24 PUSH1 0x0 REVERT JUMPDEST PUSH4 0x4E487B71 PUSH1 0xE0 SHL PUSH1 0x0 MSTORE PUSH1 0x31 PUSH1 0x4 MSTORE PUSH1 0x24 PUSH1 0x0 REVERT JUMPDEST PUSH4 0x4E487B71 PUSH1 0xE0 SHL PUSH1 0x0 MSTORE PUSH1 0x32 PUSH1 0x4 MSTORE PUSH1 0x24 PUSH1 0x0 REVERT JUMPDEST PUSH4 0x4E487B71 PUSH1 0xE0 SHL PUSH1 0x0 MSTORE PUSH1 0x41 PUSH1 0x4 MSTORE PUSH1 0x24 PUSH1 0x0 REVERT JUMPDEST PUSH1 0x1 PUSH1 0x1 PUSH1 0xA0 SHL SUB DUP2 AND DUP2 EQ PUSH2 0x29F1 JUMPI PUSH1 0x0 DUP1 REVERT JUMPDEST DUP1 ISZERO ISZERO DUP2 EQ PUSH2 0x29F1 JUMPI PUSH1 0x0 DUP1 REVERT INVALID LOG2 PUSH5 0x6970667358 0x22 SLT KECCAK256 DUP9 0xF6 0xB5 0xBF JUMP 0xFB 0xD1 NUMBER 0xEE GASLIMIT PUSH5 0x31CAE98973 0xDE PUSH27 0xC1ED1189BCC9CCE9285C574E4E7D64736F6C634300080700330000 "
		},
		"gasEstimates": {
			"creation": {
				"codeDepositCost": "3220400",
				"executionCost": "3571",
				"totalCost": "3223971"
			},
			"external": {
				"BVG()": "2427",
				"BVT()": "2449",
				"CattleOwner(uint256)": "2543",
				"addLifeAmount(uint256)": "2518",
				"addStableExp(address,uint256)": "infinite",
				"admin(address)": "2614",
				"approves(address,address,uint256)": "infinite",
				"buyStable()": "infinite",
				"cattle()": "2429",
				"cattleItem()": "2404",
				"changeUsing(uint256,bool)": "26903",
				"charge(uint256,uint256)": "infinite",
				"chargeWithItem(uint256,uint256)": "infinite",
				"checkUserCows(address)": "infinite",
				"compoundCattle(uint256)": "infinite",
				"costEnergy(uint256,uint256)": "infinite",
				"energy(uint256)": "2495",
				"feed(uint256,uint256,uint256)": "infinite",
				"feeding(uint256)": "2497",
				"feedingTime(uint256)": "2516",
				"findOnwer(uint256)": "infinite",
				"forageId()": "2396",
				"getStableLevel(address)": "2653",
				"getStablePrice(address)": "7120",
				"grow(uint256)": "2517",
				"growAmount(uint256,uint256)": "2635",
				"growUp(uint256,uint256)": "infinite",
				"initialize()": "infinite",
				"isStable(uint256)": "2562",
				"isUsing(uint256)": "4766",
				"levelLimit(uint256)": "4632",
				"maxGrowAmount()": "2416",
				"onERC721Received(address,address,uint256,bytes)": "infinite",
				"owner()": "2465",
				"photo()": "2426",
				"planet()": "2405",
				"putIn(uint256)": "infinite",
				"putOut(uint256)": "infinite",
				"refreshTime()": "2351",
				"renounceOwnership()": "28208",
				"rewardRate(uint256)": "4675",
				"setAdmin(address,bool)": "infinite",
				"setCattle1155(address)": "26816",
				"setCattlePlanet(address)": "26839",
				"setCow(address)": "26774",
				"setForageId(uint256)": "24554",
				"setLevelLimit(uint256[])": "infinite",
				"setPhoto(address)": "26817",
				"setRewardRate(uint256[])": "infinite",
				"setStableAmountExp(uint256[])": "infinite",
				"setStablePrice(uint256[])": "infinite",
				"setToken(address,address)": "infinite",
				"stableAmountExp(uint256)": "4632",
				"stablePrice(uint256)": "4631",
				"transferOwnership(address)": "infinite",
				"upLevelPrice()": "2374",
				"useItem(uint256,uint256,uint256)": "infinite",
				"userInfo(address)": "4765",
				"userPower(address)": "2570"
			},
			"internal": {
				"_addStableExp(address,uint256)": "infinite",
				"findIndex(uint256[] storage pointer,uint256)": "infinite"
			}
		},
		"methodIdentifiers": {
			"BVG()": "87464389",
			"BVT()": "5f24b4a4",
			"CattleOwner(uint256)": "f7ebb510",
			"addLifeAmount(uint256)": "21353fd5",
			"addStableExp(address,uint256)": "fa9496e9",
			"admin(address)": "63a846f8",
			"approves(address,address,uint256)": "7e856ed6",
			"buyStable()": "9ab0436b",
			"cattle()": "01c211c7",
			"cattleItem()": "9401e1d4",
			"changeUsing(uint256,bool)": "96490f3c",
			"charge(uint256,uint256)": "2cc5af88",
			"chargeWithItem(uint256,uint256)": "1349ac3b",
			"checkUserCows(address)": "fdb03c66",
			"compoundCattle(uint256)": "9b1fdccd",
			"costEnergy(uint256,uint256)": "61c46b25",
			"energy(uint256)": "78f9facf",
			"feed(uint256,uint256,uint256)": "7a0dedf6",
			"feeding(uint256)": "00e00064",
			"feedingTime(uint256)": "c94bc86c",
			"findOnwer(uint256)": "786673c5",
			"forageId()": "2a36624b",
			"getStableLevel(address)": "700a63f0",
			"getStablePrice(address)": "d1c82f6e",
			"grow(uint256)": "28531f06",
			"growAmount(uint256,uint256)": "3453478f",
			"growUp(uint256,uint256)": "48c62d14",
			"initialize()": "8129fc1c",
			"isStable(uint256)": "8cbf7cb3",
			"isUsing(uint256)": "6b1aa157",
			"levelLimit(uint256)": "264b5387",
			"maxGrowAmount()": "ff67e7cc",
			"onERC721Received(address,address,uint256,bytes)": "150b7a02",
			"owner()": "8da5cb5b",
			"photo()": "d76ec1a3",
			"planet()": "8443bea6",
			"putIn(uint256)": "2bb4ad5d",
			"putOut(uint256)": "18cce8fc",
			"refreshTime()": "d53dc7ef",
			"renounceOwnership()": "715018a6",
			"rewardRate(uint256)": "cea01962",
			"setAdmin(address,bool)": "4b0bddd2",
			"setCattle1155(address)": "988d1a87",
			"setCattlePlanet(address)": "60151db0",
			"setCow(address)": "1ddbd167",
			"setForageId(uint256)": "b1ce604f",
			"setLevelLimit(uint256[])": "2e161c0b",
			"setPhoto(address)": "b7a9dd0a",
			"setRewardRate(uint256[])": "ee0dd5d6",
			"setStableAmountExp(uint256[])": "704aa277",
			"setStablePrice(uint256[])": "56813019",
			"setToken(address,address)": "1da26a8b",
			"stableAmountExp(uint256)": "471e130f",
			"stablePrice(uint256)": "b995a31f",
			"transferOwnership(address)": "f2fde38b",
			"upLevelPrice()": "47da57d1",
			"useItem(uint256,uint256,uint256)": "255a8b86",
			"userInfo(address)": "1959a002",
			"userPower(address)": "4d6e3452"
		}
	},
	"abi": [
		{
			"anonymous": false,
			"inputs": [
				{
					"indexed": true,
					"internalType": "address",
					"name": "player",
					"type": "address"
				},
				{
					"indexed": true,
					"internalType": "uint256",
					"name": "amount",
					"type": "uint256"
				}
			],
			"name": "Charge",
			"type": "event"
		},
		{
			"anonymous": false,
			"inputs": [
				{
					"indexed": true,
					"internalType": "uint256",
					"name": "tokenId",
					"type": "uint256"
				},
				{
					"indexed": true,
					"internalType": "uint256",
					"name": "amount",
					"type": "uint256"
				}
			],
			"name": "Feed",
			"type": "event"
		},
		{
			"anonymous": false,
			"inputs": [
				{
					"indexed": true,
					"internalType": "uint256",
					"name": "tokenId",
					"type": "uint256"
				},
				{
					"indexed": true,
					"internalType": "uint256",
					"name": "amount",
					"type": "uint256"
				}
			],
			"name": "Grow",
			"type": "event"
		},
		{
			"anonymous": false,
			"inputs": [
				{
					"indexed": false,
					"internalType": "uint8",
					"name": "version",
					"type": "uint8"
				}
			],
			"name": "Initialized",
			"type": "event"
		},
		{
			"anonymous": false,
			"inputs": [
				{
					"indexed": true,
					"internalType": "address",
					"name": "previousOwner",
					"type": "address"
				},
				{
					"indexed": true,
					"internalType": "address",
					"name": "newOwner",
					"type": "address"
				}
			],
			"name": "OwnershipTransferred",
			"type": "event"
		},
		{
			"inputs": [],
			"name": "BVG",
			"outputs": [
				{
					"internalType": "contract IERC20Upgradeable",
					"name": "",
					"type": "address"
				}
			],
			"stateMutability": "view",
			"type": "function"
		},
		{
			"inputs": [],
			"name": "BVT",
			"outputs": [
				{
					"internalType": "contract IERC20Upgradeable",
					"name": "",
					"type": "address"
				}
			],
			"stateMutability": "view",
			"type": "function"
		},
		{
			"inputs": [
				{
					"internalType": "uint256",
					"name": "",
					"type": "uint256"
				}
			],
			"name": "CattleOwner",
			"outputs": [
				{
					"internalType": "address",
					"name": "",
					"type": "address"
				}
			],
			"stateMutability": "view",
			"type": "function"
		},
		{
			"inputs": [
				{
					"internalType": "uint256",
					"name": "",
					"type": "uint256"
				}
			],
			"name": "addLifeAmount",
			"outputs": [
				{
					"internalType": "uint256",
					"name": "",
					"type": "uint256"
				}
			],
			"stateMutability": "view",
			"type": "function"
		},
		{
			"inputs": [
				{
					"internalType": "address",
					"name": "addr",
					"type": "address"
				},
				{
					"internalType": "uint256",
					"name": "amount",
					"type": "uint256"
				}
			],
			"name": "addStableExp",
			"outputs": [],
			"stateMutability": "nonpayable",
			"type": "function"
		},
		{
			"inputs": [
				{
					"internalType": "address",
					"name": "",
					"type": "address"
				}
			],
			"name": "admin",
			"outputs": [
				{
					"internalType": "bool",
					"name": "",
					"type": "bool"
				}
			],
			"stateMutability": "view",
			"type": "function"
		},
		{
			"inputs": [
				{
					"internalType": "address",
					"name": "",
					"type": "address"
				},
				{
					"internalType": "address",
					"name": "",
					"type": "address"
				},
				{
					"internalType": "uint256",
					"name": "",
					"type": "uint256"
				}
			],
			"name": "approves",
			"outputs": [
				{
					"internalType": "bool",
					"name": "",
					"type": "bool"
				}
			],
			"stateMutability": "view",
			"type": "function"
		},
		{
			"inputs": [],
			"name": "buyStable",
			"outputs": [],
			"stateMutability": "nonpayable",
			"type": "function"
		},
		{
			"inputs": [],
			"name": "cattle",
			"outputs": [
				{
					"internalType": "contract ICOW",
					"name": "",
					"type": "address"
				}
			],
			"stateMutability": "view",
			"type": "function"
		},
		{
			"inputs": [],
			"name": "cattleItem",
			"outputs": [
				{
					"internalType": "contract ICattle1155",
					"name": "",
					"type": "address"
				}
			],
			"stateMutability": "view",
			"type": "function"
		},
		{
			"inputs": [
				{
					"internalType": "uint256",
					"name": "tokenId",
					"type": "uint256"
				},
				{
					"internalType": "bool",
					"name": "com_",
					"type": "bool"
				}
			],
			"name": "changeUsing",
			"outputs": [],
			"stateMutability": "nonpayable",
			"type": "function"
		},
		{
			"inputs": [
				{
					"internalType": "uint256",
					"name": "tokenId",
					"type": "uint256"
				},
				{
					"internalType": "uint256",
					"name": "amount_",
					"type": "uint256"
				}
			],
			"name": "charge",
			"outputs": [],
			"stateMutability": "nonpayable",
			"type": "function"
		},
		{
			"inputs": [
				{
					"internalType": "uint256",
					"name": "itemId",
					"type": "uint256"
				},
				{
					"internalType": "uint256",
					"name": "amount_",
					"type": "uint256"
				}
			],
			"name": "chargeWithItem",
			"outputs": [],
			"stateMutability": "nonpayable",
			"type": "function"
		},
		{
			"inputs": [
				{
					"internalType": "address",
					"name": "addr_",
					"type": "address"
				}
			],
			"name": "checkUserCows",
			"outputs": [
				{
					"internalType": "uint256[]",
					"name": "",
					"type": "uint256[]"
				}
			],
			"stateMutability": "view",
			"type": "function"
		},
		{
			"inputs": [
				{
					"internalType": "uint256",
					"name": "tokenId",
					"type": "uint256"
				}
			],
			"name": "compoundCattle",
			"outputs": [],
			"stateMutability": "nonpayable",
			"type": "function"
		},
		{
			"inputs": [
				{
					"internalType": "uint256",
					"name": "tokenId",
					"type": "uint256"
				},
				{
					"internalType": "uint256",
					"name": "amount",
					"type": "uint256"
				}
			],
			"name": "costEnergy",
			"outputs": [],
			"stateMutability": "nonpayable",
			"type": "function"
		},
		{
			"inputs": [
				{
					"internalType": "uint256",
					"name": "",
					"type": "uint256"
				}
			],
			"name": "energy",
			"outputs": [
				{
					"internalType": "uint256",
					"name": "",
					"type": "uint256"
				}
			],
			"stateMutability": "view",
			"type": "function"
		},
		{
			"inputs": [
				{
					"internalType": "uint256",
					"name": "tokenId",
					"type": "uint256"
				},
				{
					"internalType": "uint256",
					"name": "amount_",
					"type": "uint256"
				},
				{
					"internalType": "uint256",
					"name": "types",
					"type": "uint256"
				}
			],
			"name": "feed",
			"outputs": [],
			"stateMutability": "nonpayable",
			"type": "function"
		},
		{
			"inputs": [
				{
					"internalType": "uint256",
					"name": "",
					"type": "uint256"
				}
			],
			"name": "feeding",
			"outputs": [
				{
					"internalType": "uint256",
					"name": "",
					"type": "uint256"
				}
			],
			"stateMutability": "view",
			"type": "function"
		},
		{
			"inputs": [
				{
					"internalType": "uint256",
					"name": "",
					"type": "uint256"
				}
			],
			"name": "feedingTime",
			"outputs": [
				{
					"internalType": "uint256",
					"name": "",
					"type": "uint256"
				}
			],
			"stateMutability": "view",
			"type": "function"
		},
		{
			"inputs": [
				{
					"internalType": "uint256",
					"name": "tokenId",
					"type": "uint256"
				}
			],
			"name": "findOnwer",
			"outputs": [
				{
					"internalType": "address",
					"name": "out",
					"type": "address"
				}
			],
			"stateMutability": "view",
			"type": "function"
		},
		{
			"inputs": [],
			"name": "forageId",
			"outputs": [
				{
					"internalType": "uint256",
					"name": "",
					"type": "uint256"
				}
			],
			"stateMutability": "view",
			"type": "function"
		},
		{
			"inputs": [
				{
					"internalType": "address",
					"name": "addr_",
					"type": "address"
				}
			],
			"name": "getStableLevel",
			"outputs": [
				{
					"internalType": "uint256",
					"name": "",
					"type": "uint256"
				}
			],
			"stateMutability": "view",
			"type": "function"
		},
		{
			"inputs": [
				{
					"internalType": "address",
					"name": "addr",
					"type": "address"
				}
			],
			"name": "getStablePrice",
			"outputs": [
				{
					"internalType": "uint256",
					"name": "",
					"type": "uint256"
				}
			],
			"stateMutability": "view",
			"type": "function"
		},
		{
			"inputs": [
				{
					"internalType": "uint256",
					"name": "",
					"type": "uint256"
				}
			],
			"name": "grow",
			"outputs": [
				{
					"internalType": "uint256",
					"name": "",
					"type": "uint256"
				}
			],
			"stateMutability": "view",
			"type": "function"
		},
		{
			"inputs": [
				{
					"internalType": "uint256",
					"name": "",
					"type": "uint256"
				},
				{
					"internalType": "uint256",
					"name": "",
					"type": "uint256"
				}
			],
			"name": "growAmount",
			"outputs": [
				{
					"internalType": "uint256",
					"name": "",
					"type": "uint256"
				}
			],
			"stateMutability": "view",
			"type": "function"
		},
		{
			"inputs": [
				{
					"internalType": "uint256",
					"name": "tokenId",
					"type": "uint256"
				},
				{
					"internalType": "uint256",
					"name": "amount_",
					"type": "uint256"
				}
			],
			"name": "growUp",
			"outputs": [],
			"stateMutability": "nonpayable",
			"type": "function"
		},
		{
			"inputs": [],
			"name": "initialize",
			"outputs": [],
			"stateMutability": "nonpayable",
			"type": "function"
		},
		{
			"inputs": [
				{
					"internalType": "uint256",
					"name": "",
					"type": "uint256"
				}
			],
			"name": "isStable",
			"outputs": [
				{
					"internalType": "bool",
					"name": "",
					"type": "bool"
				}
			],
			"stateMutability": "view",
			"type": "function"
		},
		{
			"inputs": [
				{
					"internalType": "uint256",
					"name": "tokenId_",
					"type": "uint256"
				}
			],
			"name": "isUsing",
			"outputs": [
				{
					"internalType": "bool",
					"name": "",
					"type": "bool"
				}
			],
			"stateMutability": "view",
			"type": "function"
		},
		{
			"inputs": [
				{
					"internalType": "uint256",
					"name": "",
					"type": "uint256"
				}
			],
			"name": "levelLimit",
			"outputs": [
				{
					"internalType": "uint256",
					"name": "",
					"type": "uint256"
				}
			],
			"stateMutability": "view",
			"type": "function"
		},
		{
			"inputs": [],
			"name": "maxGrowAmount",
			"outputs": [
				{
					"internalType": "uint256",
					"name": "",
					"type": "uint256"
				}
			],
			"stateMutability": "view",
			"type": "function"
		},
		{
			"inputs": [
				{
					"internalType": "address",
					"name": "",
					"type": "address"
				},
				{
					"internalType": "address",
					"name": "",
					"type": "address"
				},
				{
					"internalType": "uint256",
					"name": "",
					"type": "uint256"
				},
				{
					"internalType": "bytes",
					"name": "",
					"type": "bytes"
				}
			],
			"name": "onERC721Received",
			"outputs": [
				{
					"internalType": "bytes4",
					"name": "",
					"type": "bytes4"
				}
			],
			"stateMutability": "nonpayable",
			"type": "function"
		},
		{
			"inputs": [],
			"name": "owner",
			"outputs": [
				{
					"internalType": "address",
					"name": "",
					"type": "address"
				}
			],
			"stateMutability": "view",
			"type": "function"
		},
		{
			"inputs": [],
			"name": "photo",
			"outputs": [
				{
					"internalType": "contract IProfilePhoto",
					"name": "",
					"type": "address"
				}
			],
			"stateMutability": "view",
			"type": "function"
		},
		{
			"inputs": [],
			"name": "planet",
			"outputs": [
				{
					"internalType": "contract IPlanet",
					"name": "",
					"type": "address"
				}
			],
			"stateMutability": "view",
			"type": "function"
		},
		{
			"inputs": [
				{
					"internalType": "uint256",
					"name": "tokenId",
					"type": "uint256"
				}
			],
			"name": "putIn",
			"outputs": [],
			"stateMutability": "nonpayable",
			"type": "function"
		},
		{
			"inputs": [
				{
					"internalType": "uint256",
					"name": "tokenId",
					"type": "uint256"
				}
			],
			"name": "putOut",
			"outputs": [],
			"stateMutability": "nonpayable",
			"type": "function"
		},
		{
			"inputs": [],
			"name": "refreshTime",
			"outputs": [
				{
					"internalType": "uint256",
					"name": "",
					"type": "uint256"
				}
			],
			"stateMutability": "view",
			"type": "function"
		},
		{
			"inputs": [],
			"name": "renounceOwnership",
			"outputs": [],
			"stateMutability": "nonpayable",
			"type": "function"
		},
		{
			"inputs": [
				{
					"internalType": "uint256",
					"name": "",
					"type": "uint256"
				}
			],
			"name": "rewardRate",
			"outputs": [
				{
					"internalType": "uint256",
					"name": "",
					"type": "uint256"
				}
			],
			"stateMutability": "view",
			"type": "function"
		},
		{
			"inputs": [
				{
					"internalType": "address",
					"name": "addr_",
					"type": "address"
				},
				{
					"internalType": "bool",
					"name": "com_",
					"type": "bool"
				}
			],
			"name": "setAdmin",
			"outputs": [],
			"stateMutability": "nonpayable",
			"type": "function"
		},
		{
			"inputs": [
				{
					"internalType": "address",
					"name": "Cattle1155_",
					"type": "address"
				}
			],
			"name": "setCattle1155",
			"outputs": [],
			"stateMutability": "nonpayable",
			"type": "function"
		},
		{
			"inputs": [
				{
					"internalType": "address",
					"name": "planet_",
					"type": "address"
				}
			],
			"name": "setCattlePlanet",
			"outputs": [],
			"stateMutability": "nonpayable",
			"type": "function"
		},
		{
			"inputs": [
				{
					"internalType": "address",
					"name": "cattle_",
					"type": "address"
				}
			],
			"name": "setCow",
			"outputs": [],
			"stateMutability": "nonpayable",
			"type": "function"
		},
		{
			"inputs": [
				{
					"internalType": "uint256",
					"name": "Id_",
					"type": "uint256"
				}
			],
			"name": "setForageId",
			"outputs": [],
			"stateMutability": "nonpayable",
			"type": "function"
		},
		{
			"inputs": [
				{
					"internalType": "uint256[]",
					"name": "list_",
					"type": "uint256[]"
				}
			],
			"name": "setLevelLimit",
			"outputs": [],
			"stateMutability": "nonpayable",
			"type": "function"
		},
		{
			"inputs": [
				{
					"internalType": "address",
					"name": "photo_",
					"type": "address"
				}
			],
			"name": "setPhoto",
			"outputs": [],
			"stateMutability": "nonpayable",
			"type": "function"
		},
		{
			"inputs": [
				{
					"internalType": "uint256[]",
					"name": "list",
					"type": "uint256[]"
				}
			],
			"name": "setRewardRate",
			"outputs": [],
			"stateMutability": "nonpayable",
			"type": "function"
		},
		{
			"inputs": [
				{
					"internalType": "uint256[]",
					"name": "list",
					"type": "uint256[]"
				}
			],
			"name": "setStableAmountExp",
			"outputs": [],
			"stateMutability": "nonpayable",
			"type": "function"
		},
		{
			"inputs": [
				{
					"internalType": "uint256[]",
					"name": "price",
					"type": "uint256[]"
				}
			],
			"name": "setStablePrice",
			"outputs": [],
			"stateMutability": "nonpayable",
			"type": "function"
		},
		{
			"inputs": [
				{
					"internalType": "address",
					"name": "BVT_",
					"type": "address"
				},
				{
					"internalType": "address",
					"name": "BVG_",
					"type": "address"
				}
			],
			"name": "setToken",
			"outputs": [],
			"stateMutability": "nonpayable",
			"type": "function"
		},
		{
			"inputs": [
				{
					"internalType": "uint256",
					"name": "",
					"type": "uint256"
				}
			],
			"name": "stableAmountExp",
			"outputs": [
				{
					"internalType": "uint256",
					"name": "",
					"type": "uint256"
				}
			],
			"stateMutability": "view",
			"type": "function"
		},
		{
			"inputs": [
				{
					"internalType": "uint256",
					"name": "",
					"type": "uint256"
				}
			],
			"name": "stablePrice",
			"outputs": [
				{
					"internalType": "uint256",
					"name": "",
					"type": "uint256"
				}
			],
			"stateMutability": "view",
			"type": "function"
		},
		{
			"inputs": [
				{
					"internalType": "address",
					"name": "newOwner",
					"type": "address"
				}
			],
			"name": "transferOwnership",
			"outputs": [],
			"stateMutability": "nonpayable",
			"type": "function"
		},
		{
			"inputs": [],
			"name": "upLevelPrice",
			"outputs": [
				{
					"internalType": "uint256",
					"name": "",
					"type": "uint256"
				}
			],
			"stateMutability": "view",
			"type": "function"
		},
		{
			"inputs": [
				{
					"internalType": "uint256",
					"name": "tokenId",
					"type": "uint256"
				},
				{
					"internalType": "uint256",
					"name": "itemId",
					"type": "uint256"
				},
				{
					"internalType": "uint256",
					"name": "amount_",
					"type": "uint256"
				}
			],
			"name": "useItem",
			"outputs": [],
			"stateMutability": "nonpayable",
			"type": "function"
		},
		{
			"inputs": [
				{
					"internalType": "address",
					"name": "",
					"type": "address"
				}
			],
			"name": "userInfo",
			"outputs": [
				{
					"internalType": "uint256",
					"name": "stableAmount",
					"type": "uint256"
				},
				{
					"internalType": "uint256",
					"name": "stableExp",
					"type": "uint256"
				}
			],
			"stateMutability": "view",
			"type": "function"
		},
		{
			"inputs": [
				{
					"internalType": "address",
					"name": "",
					"type": "address"
				}
			],
			"name": "userPower",
			"outputs": [
				{
					"internalType": "uint256",
					"name": "",
					"type": "uint256"
				}
			],
			"stateMutability": "view",
			"type": "function"
		}
	]
}