{
	"data": {
		"bytecode": {
			"linkReferences": {},
			"object": "60806040523480156200001157600080fd5b50604080518082018252600b81526a5465737420436174746c6560a81b60208083019182528351808501909452600784526654436174746c6560c81b908401528151919291620000649160009162000185565b5080516200007a90600190602084019062000185565b50505062000097620000916200012f60201b60201c565b62000133565b6001600c55600d80546001600160a01b03191633179055612710600e819055600f556101f4601055622e2480601155604080518082019091526113888152613a986020820152620000ed90601590600262000214565b50604080516080810182526019815260286020820152603c91810191909152605060608201526200012390601690600462000258565b506001601b55620002ef565b3390565b600a80546001600160a01b038381166001600160a01b0319831681179093556040519116919082907f8be0079c531659141344cd1fd0a4f28419497f9722a3daafe3b4186f6b6457e090600090a35050565b8280546200019390620002b2565b90600052602060002090601f016020900481019282620001b7576000855562000202565b82601f10620001d257805160ff191683800117855562000202565b8280016001018555821562000202579182015b8281111562000202578251825591602001919060010190620001e5565b50620002109291506200029b565b5090565b82805482825590600052602060002090810192821562000202579160200282015b8281111562000202578251829061ffff1690559160200191906001019062000235565b82805482825590600052602060002090810192821562000202579160200282015b8281111562000202578251829060ff1690559160200191906001019062000279565b5b808211156200021057600081556001016200029c565b600181811c90821680620002c757607f821691505b60208210811415620002e957634e487b7160e01b600052602260045260246000fd5b50919050565b61431d80620002ff6000396000f3fe608060405234801561001057600080fd5b50600436106104125760003560e01c8063780ff40211610220578063bb3b974011610130578063e2608438116100b8578063eb22daa311610087578063eb22daa3146109d9578063f0a90ff0146109ec578063f2fde38b14610a0f578063f610e98214610a22578063ff45fec814610b0957600080fd5b8063e26084381461096f578063e440be0014610982578063e62256301461098a578063e985e9c51461099d57600080fd5b8063c8877f8e116100ff578063c8877f8e14610900578063cff840f014610913578063d6eac26c14610926578063e00dd16114610946578063e06d2eb51461094f57600080fd5b8063bb3b974014610894578063bba0f646146108a7578063c5426124146108ca578063c87b56dd146108ed57600080fd5b80639ad1f0bb116101b3578063ae9921de11610182578063ae9921de14610832578063b41d74d814610845578063b88d4fde14610858578063b969f2221461086b578063b9eea7221461087457600080fd5b80639ad1f0bb146107d35780639b7c6af8146107f9578063a22cb4651461080c578063a435ff651461081f57600080fd5b80638da5cb5b116101ef5780638da5cb5b1461078457806392d9495d1461079557806395d89b41146107a857806396822dae146107b057600080fd5b8063780ff402146107335780637e0358a61461074657806383197ef01461076957806384686c641461077157600080fd5b806342966c6811610326578063611f51ac116102ae5780636a6278421161027d5780636a627842146106f357806370a0823114610706578063715018a6146107195780637371bfe71461072157806373f425611461072a57600080fd5b8063611f51ac1461068a57806362e42cb0146106aa5780636352211e146106bd57806363a846f8146106d057600080fd5b80634f6ccce7116102f55780634f6ccce71461060e57806351c18e0c1461062157806355f804b3146106445780635f64d7f3146106575780635f70a1d51461067757600080fd5b806342966c68146105b557806344a299fc146105c85780634b0bddd2146105e85780634bcee787146105fb57600080fd5b8063184e9c2d116103a95780632f745c59116103785780632f745c59146105615780633352343314610574578063372a3b82146105875780634147da131461058f57806342842e0e146105a257600080fd5b8063184e9c2d1461051f578063232cba0d1461053257806323b872dd1461053b578063254210131461054e57600080fd5b8063095ea7b3116103e5578063095ea7b31461049657806311251f1c146104e1578063148eebd71461050457806318160ddd1461051757600080fd5b806301ffc9a71461041757806306fdde031461043f578063072c490714610454578063081812fc1461046b575b600080fd5b61042a610425366004613d24565b610b3d565b60405190151581526020015b60405180910390f35b610447610b68565b6040516104369190613f7b565b61045d60145481565b604051908152602001610436565b61047e610479366004613da2565b610bfa565b6040516001600160a01b039091168152602001610436565b6104df6104a4366004613c53565b336000908152601a602090815260408083206001600160a01b039590951683529381528382209282529190915220805460ff19166001179055565b005b61045d6104ef366004613da2565b6000908152601c602052604090206003015490565b6104df610512366004613c53565b610c94565b60085461045d565b61045d61052d366004613da2565b610cda565b61045d60115481565b6104df610549366004613ad1565b610d7c565b6104df61055c366004613da2565b610e08565b61045d61056f366004613c53565b610f61565b6104df610582366004613c53565b610ff7565b61044761103d565b6104df61059d366004613dba565b6110cb565b6104df6105b0366004613ad1565b611124565b61042a6105c3366004613da2565b611199565b61045d6105d6366004613da2565b601f6020526000908152604090205481565b6104df6105f6366004613c19565b611211565b6104df610609366004613dba565b611266565b61045d61061c366004613da2565b6112a5565b61045d61062f366004613da2565b6000908152601c602052604090206004015490565b6104df610652366004613d5c565b611346565b61066a610665366004613da2565b611387565b6040516104369190613f29565b6104df610685366004613dba565b6113d5565b61069d610698366004613a85565b61151c565b6040516104369190613f37565b600d5461047e906001600160a01b031681565b61047e6106cb366004613da2565b6115e0565b61042a6106de366004613a85565b60176020526000908152604090205460ff1681565b6104df610701366004613a85565b611657565b61045d610714366004613a85565b611a77565b6104df611afe565b61045d601e5481565b61045d60125481565b6104df610741366004613dba565b611b34565b61045d610754366004613da2565b6000908152601c602052604090206002015490565b6104df611b69565b6104df61077f366004613da2565b611b96565b600a546001600160a01b031661047e565b61045d6107a3366004613da2565b611cb4565b610447611d45565b61045d6107be366004613da2565b6000908152601c60205260409020600f015490565b61042a6107e1366004613da2565b6000908152601c602052604090206006015460ff1690565b61069d610807366004613c19565b611d54565b6104df61081a366004613c19565b611f30565b6104df61082d366004613c7c565b611f3b565b6104df610840366004613b85565b611f78565b6104df610853366004613a85565b612418565b6104df610866366004613b0c565b612464565b61045d60135481565b61045d610882366004613a85565b60186020526000908152604090205481565b6104df6108a2366004613a85565b61249b565b61045d6108b5366004613da2565b6000908152601c602052604090206001015490565b61045d6108d8366004613da2565b6000908152601c60205260409020600c015490565b6104476108fb366004613da2565b61282d565b61045d61090e366004613da2565b6128ba565b61045d610921366004613da2565b6128db565b61045d610934366004613a85565b60196020526000908152604090205481565b61045d600c5481565b61045d61095d366004613da2565b6000908152601c602052604090205490565b61045d61097d366004613da2565b61296c565b6104df61297c565b61045d610998366004613da2565b612a39565b61042a6109ab366004613a9f565b6001600160a01b03918216600090815260056020908152604080832093909416825291909152205460ff1690565b61045d6109e7366004613da2565b612aca565b61042a6109fa366004613da2565b601d6020526000908152604090205460ff1681565b6104df610a1d366004613a85565b612b5b565b610aa1610a30366004613da2565b601c60205260009081526040902080546001820154600283015460038401546004850154600586015460068701546007880154600889015460098a0154600a8b0154600b8c0154600c8d0154600f909d01549b9c9a9b999a98999798969760ff90961696949593949293919290918e565b604080519e8f5260208f019d909d529b8d019a909a5260608c019890985260808b019690965260a08a019490945291151560c089015260e08801526101008701526101208601526101408501526101608401526101808301526101a08201526101c001610436565b61042a610b17366004613ad1565b601a60209081526000938452604080852082529284528284209052825290205460ff1681565b60006001600160e01b0319821663780e9d6360e01b1480610b625750610b6282612bf6565b92915050565b606060008054610b7790614225565b80601f0160208091040260200160405190810160405280929190818152602001828054610ba390614225565b8015610bf05780601f10610bc557610100808354040283529160200191610bf0565b820191906000526020600020905b815481529060010190602001808311610bd357829003601f168201915b5050505050905090565b6000818152600260205260408120546001600160a01b0316610c785760405162461bcd60e51b815260206004820152602c60248201527f4552433732313a20617070726f76656420717565727920666f72206e6f6e657860448201526b34b9ba32b73a103a37b5b2b760a11b60648201526084015b60405180910390fd5b506000908152600460205260409020546001600160a01b031690565b600a546001600160a01b03163314610cbe5760405162461bcd60e51b8152600401610c6f90613fe0565b6001600160a01b03909116600090815260186020526040902055565b6000818152601d602052604081205460ff1615610d0757506000908152601c60205260409020600a015490565b6000828152601c60205260409020600c0154601680546064919083908110610d3f57634e487b7160e01b600052603260045260246000fd5b9060005260206000200154601c6000868152602001908152602001600020600a0154610d6b91906141ac565b610d759190614198565b9392505050565b610d87335b82612c46565b610da35760405162461bcd60e51b8152600401610c6f9061403d565b6000818152601d602052604090205460ff16610de8573360009081526017602052604090205460ff16610de85760405162461bcd60e51b8152600401610c6f9061408e565b610e0383838360405180602001604052806000815250612464565b505050565b3360009081526017602052604090205460ff16610e375760405162461bcd60e51b8152600401610c6f9061408e565b6000818152601c60205260409020600c0154600311610e885760405162461bcd60e51b815260206004820152600d60248201526c63616e2774207570677261646560981b6044820152606401610c6f565b6000818152601c60205260408120600c01805491610ea583614260565b90915550506000818152601c602052604081206003015460115461271091610ecc916141ac565b610ed69190614198565b610ee09042614180565b6000838152601c6020526040808220600f0183905551919250829184917fc079f36d36fb34d06c2882fd7be02c1969f2dc8ce432ad6f087f977271f53f3891a36000828152601c6020526040808220600c01549051909184917fc345ee01e5afbb825f5ac65a2f0f2fa781c3c3498ac6c90c8d908009b12b31d89190a35050565b6000610f6c83611a77565b8210610fce5760405162461bcd60e51b815260206004820152602b60248201527f455243373231456e756d657261626c653a206f776e657220696e646578206f7560448201526a74206f6620626f756e647360a81b6064820152608401610c6f565b506001600160a01b03919091166000908152600660209081526040808320938352929052205490565b600a546001600160a01b031633146110215760405162461bcd60e51b8152600401610c6f90613fe0565b6001600160a01b03909116600090815260196020526040902055565b600b805461104a90614225565b80601f016020809104026020016040519081016040528092919081815260200182805461107690614225565b80156110c35780601f10611098576101008083540402835291602001916110c3565b820191906000526020600020905b8154815290600101906020018083116110a657829003601f168201915b505050505081565b3360009081526017602052604090205460ff166110fa5760405162461bcd60e51b8152600401610c6f9061408e565b6000828152601c60205260408120600501805483929061111b908490614180565b90915550505050565b61112d33610d81565b6111495760405162461bcd60e51b8152600401610c6f9061403d565b6000818152601d602052604090205460ff1661118e573360009081526017602052604090205460ff1661118e5760405162461bcd60e51b8152600401610c6f9061408e565b610e03838383612d3d565b60006111a6335b83612c46565b6111e75760405162461bcd60e51b8152602060048201526012602482015271313ab93732b91034b9b713ba1037bbb732b960711b6044820152606401610c6f565b6001601260008282546111fa9190614180565b90915550611209905082612ee4565b506001919050565b600a546001600160a01b0316331461123b5760405162461bcd60e51b8152600401610c6f90613fe0565b6001600160a01b03919091166000908152601760205260409020805460ff1916911515919091179055565b600a546001600160a01b031633146112905760405162461bcd60e51b8152600401610c6f90613fe0565b6000918252601c6020526040909120600f0155565b60006112b060085490565b82106113135760405162461bcd60e51b815260206004820152602c60248201527f455243373231456e756d657261626c653a20676c6f62616c20696e646578206f60448201526b7574206f6620626f756e647360a01b6064820152608401610c6f565b6008828154811061133457634e487b7160e01b600052603260045260246000fd5b90600052602060002001549050919050565b600a546001600160a01b031633146113705760405162461bcd60e51b8152600401610c6f90613fe0565b805161138390600b9060208401906138f7565b5050565b61138f613977565b6000828152601c6020526040908190208151808301909252600d0160028282826020028201915b8154815260200190600101908083116113b65750505050509050919050565b3360009081526017602052604090205460ff166114045760405162461bcd60e51b8152600401610c6f9061408e565b6000828152601c60205260409020600101546114565760405162461bcd60e51b81526020600482015260116024820152703737b732bc34b9ba32b73a103a37b5b2b760791b6044820152606401610c6f565b6000828152601d602052604090205460ff16156114b55760405162461bcd60e51b815260206004820152601b60248201527f63616e206e6f7420616464206372656174696f6e20436174746c6500000000006044820152606401610c6f565b6000828152601c60205260408120600f0180548392906114d6908490614180565b90915550506000828152601c6020526040808220600f01549051909184917fc079f36d36fb34d06c2882fd7be02c1969f2dc8ce432ad6f087f977271f53f389190a35050565b6060600061152983611a77565b905060008167ffffffffffffffff81111561155457634e487b7160e01b600052604160045260246000fd5b60405190808252806020026020018201604052801561157d578160200160208202803683370190505b5090506000805b838110156115d6576115968682610f61565b9150818382815181106115b957634e487b7160e01b600052603260045260246000fd5b6020908102919091010152806115ce81614260565b915050611584565b5090949350505050565b6000818152600260205260408120546001600160a01b031680610b625760405162461bcd60e51b815260206004820152602960248201527f4552433732313a206f776e657220717565727920666f72206e6f6e657869737460448201526832b73a103a37b5b2b760b91b6064820152608401610c6f565b61166381600c54612f8b565b600d546001600160a01b0316336001600160a01b0316146116d057336000908152601960205260409020546116aa5760405162461bcd60e51b8152600401610c6f90614015565b3360009081526019602052604081208054600192906116ca9084906141cb565b90915550505b6116d86130d9565b600c546000908152601c60205260409020556116f5610fa061313b565b61170190611f40614180565b600c80546000908152601c602052604080822060030193909355905481522042600190910155611732610fa061313b565b61173e90611f40614180565b600c546000908152601c602052604090206002015561175e610fa061313b565b61176a90611f40614180565b600c80546000908152601c6020526040808220600401939093559054815220600601805460ff191660011790556117a64264073df16000614180565b600c80546000908152601c6020526040808220600f01939093559054815220546001141561191c576117d9610fa061313b565b6117e590611f40614180565b600c546000908152601c6020526040902060070155611805610fa061313b565b61181190611f40614180565b600c546000908152601c6020526040902060080155611831610fa061313b565b61183d90611f40614180565b600c546000908152601c6020526040812060090191909155601380549161186383614260565b9091555050601354600c80546000908152601f602090815260408083208590559254808352601c825291839020600381015460028201546004830154600f84015460078501546009860154600890960154895195865296850193909352968301526060820195909552608081019490945260a084015260c0830152906001600160a01b038416907f6cadede40797b8dd19173bfb548d15376b7a853d2d84dc523423b656731deaf59060e00160405180910390a4611a30565b611927610fa061313b565b61193390611f40614180565b600c546000908152601c60205260409020600a0155611953610fa061313b565b61195f90611f40614180565b600c546000908152601c60205260408120600b0191909155601480549161198583614260565b9091555050601454600c80546000908152601f602090815260408083208590559254808352601c825291839020600381015460028201546004830154600f840154600a850154600b90950154885194855295840192909252958201959095526060810194909452608084015260a0830152906001600160a01b038416907f3be0cc335618acb20037383e05a5f336f1e6aa524c959ad29d1b91cf64772bc09060c00160405180910390a45b600c546000908152601d60205260408120805460ff19166001179055601e805491611a5a83614260565b9091555050600c8054906000611a6f83614260565b919050555050565b60006001600160a01b038216611ae25760405162461bcd60e51b815260206004820152602a60248201527f4552433732313a2062616c616e636520717565727920666f7220746865207a65604482015269726f206164647265737360b01b6064820152608401610c6f565b506001600160a01b031660009081526003602052604090205490565b600a546001600160a01b03163314611b285760405162461bcd60e51b8152600401610c6f90613fe0565b611b3260006131ab565b565b600a546001600160a01b03163314611b5e5760405162461bcd60e51b8152600401610c6f90613fe0565b600e91909155600f55565b600a546001600160a01b03163314611b935760405162461bcd60e51b8152600401610c6f90613fe0565b33ff5b3360009081526017602052604090205460ff16611bc55760405162461bcd60e51b8152600401610c6f9061408e565b6000818152601d602052604090205460ff1615611c1c5760405162461bcd60e51b81526020600482015260156024820152746372656174696f6e2063616e206e6f742067726f7760581b6044820152606401610c6f565b6000818152601c602052604090206006015460ff1615611c6e5760405162461bcd60e51b815260206004820152600d60248201526c6164756c74206973207472756560981b6044820152606401610c6f565b6000818152601c6020526040808220600601805460ff191660011790555182917f27308be09b242076a36ef5c74033829078220c467a50c92f69adf8c8f93f1f6591a250565b6000818152601d602052604081205460ff1615611ce157506000908152601c60205260409020600b015490565b6000828152601c60205260409020600c0154601680546064919083908110611d1957634e487b7160e01b600052603260045260246000fd5b9060005260206000200154601c6000868152602001908152602001600020600b0154610d6b91906141ac565b606060018054610b7790614225565b60606000611d6184611a77565b905060008060005b83811015611ded57611d7b8782610f61565b9250858015611d9857506000838152601d602052604090205460ff165b15611dab5781611da781614260565b9250505b85158015611dc857506000838152601d602052604090205460ff16155b15611ddb5781611dd781614260565b9250505b80611de581614260565b915050611d69565b5060008167ffffffffffffffff811115611e1757634e487b7160e01b600052604160045260246000fd5b604051908082528060200260200182016040528015611e40578160200160208202803683370190505b5090506000805b85811015611f2357611e598982610f61565b9450878015611e7657506000858152601d602052604090205460ff165b15611eb55784838381518110611e9c57634e487b7160e01b600052603260045260246000fd5b602090810291909101015281611eb181614260565b9250505b87158015611ed257506000858152601d602052604090205460ff16155b15611f115784838381518110611ef857634e487b7160e01b600052603260045260246000fd5b602090810291909101015281611f0d81614260565b9250505b80611f1b81614260565b915050611e47565b5090979650505050505050565b6113833383836131fd565b600a546001600160a01b03163314611f655760405162461bcd60e51b8152600401610c6f90613fe0565b8051611383906015906020840190613995565b600c5481516000908152601c60205260409020546001148015611faf57506020808301516000908152601c90915260409020546002145b611feb5760405162461bcd60e51b815260206004820152600d60248201526c77726f6e6720706172656e747360981b6044820152606401610c6f565b600d546001600160a01b0316336001600160a01b03161461205857336000908152601860205260409020546120325760405162461bcd60e51b8152600401610c6f90614015565b3360009081526018602052604081208054600192906120529084906141cb565b90915550505b81516000908152601c6020908152604080832091850151835290912061207e600261313b565b600c546000908152601c6020526040902055600380820154908301546120ba916002916120ab9190614180565b6120b59190614198565b6132cc565b600c80546000908152601c602052604080822060030193909355905481522042600190910155600281810154838201546120f892916120ab91614180565b601c6000600c5481526020019081526020016000206002018190555061212d6002826004015484600401546120ab9190614180565b600c80546000908152601c602052604080822060040193909355905481522061215b90600d018560026139cf565b50600c546000908152601c602052604090206003015460115461271091612181916141ac565b61218b9190614198565b6121959042614180565b600c80546000908152601c6020526040808220600f01939093559054815220546001141561232e576121ca82600701546132cc565b600c546000908152601c602052604090206007015560088201546121ed906132cc565b600c546000908152601c60205260409020600801556009820154612210906132cc565b601c6000600c54815260200190815260200160002060090181905550600c54856001600160a01b03167f18a18192f0826a437b79df65b06727f8310307aea2539b1e90284ee01bcff60b601c6000600c54815260200190815260200160002060030154601c6000600c54815260200190815260200160002060020154601c6000600c5481526020019081526020016000206004015460008a601c6000600c548152602001908152602001600020600f0154601c6000600c54815260200190815260200160002060070154601c6000600c54815260200190815260200160002060090154601c6000600c54815260200190815260200160002060080154604051612321999897969594939291906140fc565b60405180910390a36123f2565b61233b81600a01546132cc565b600c546000908152601c60205260409020600a90810191909155810154612361906132cc565b600c80546000908152601c6020526040808220600b908101949094559154808252828220600381015460028201546004830154600f840154600a8501549490980154965194976001600160a01b038e16977fc94528f8de56d922e972ef26ec9f62079bff7d5376c2ee08e5c5316271cea71a976123e99795969495939490938f9392906140b1565b60405180910390a35b600c805490600061240283614260565b91905055506124118584612f8b565b5050505050565b600a546001600160a01b031633146124425760405162461bcd60e51b8152600401610c6f90613fe0565b600d80546001600160a01b0319166001600160a01b0392909216919091179055565b61246d336111a0565b6124895760405162461bcd60e51b8152600401610c6f9061403d565b612495848484846133bd565b50505050565b600c546124a6613977565b600d546001600160a01b0316336001600160a01b03161461251357336000908152601860205260409020546124ed5760405162461bcd60e51b8152600401610c6f90614015565b33600090815260186020526040812080546001929061250d9084906141cb565b90915550505b61251d600261313b565b600c546000908152601c602052604090205561253a610fa061313b565b61254690611d4c614180565b600c80546000908152601c602052604080822060030193909355905481522042600190910155612577610fa061313b565b61258390611d4c614180565b600c546000908152601c60205260409020600201556125a3610fa061313b565b6125af90611d4c614180565b600c80546000908152601c60205260408082206004019390935581548152828120600601805460ff19169055905481522060030154601154612710916125f4916141ac565b6125fe9190614198565b6126089042614180565b600c80546000908152601c6020526040808220600f01939093559054815220546001141561273a5761263b610fa061313b565b61264790611d4c614180565b600c546000908152601c6020526040902060070155612667610fa061313b565b61267390611d4c614180565b600c546000908152601c6020526040902060080155612693610fa061313b565b61269f90611d4c614180565b600c80546000908152601c60205260408082206009908101949094559154808252828220600381015460028201546004830154600f840154600785015498850154600890950154975195986001600160a01b038d16987f18a18192f0826a437b79df65b06727f8310307aea2539b1e90284ee01bcff60b9861272d9896979596949590948d949392906140fc565b60405180910390a361280e565b612745610fa061313b565b61275190611d4c614180565b600c546000908152601c60205260409020600a0155612771610fa061313b565b61277d90611f40614180565b600c80546000908152601c6020526040808220600b908101949094559154808252828220600381015460028201546004830154600f840154600a8501549490980154965194976001600160a01b038c16977fc94528f8de56d922e972ef26ec9f62079bff7d5376c2ee08e5c5316271cea71a976128059795969495939490938c9392906140b1565b60405180910390a35b600c805490600061281e83614260565b9190505550610e038383612f8b565b6000818152600260205260409020546060906001600160a01b03166128885760405162461bcd60e51b81526020600482015260116024820152703737b732bc34b9ba32b73a103a37b5b2b760791b6044820152606401610c6f565b600b612893836133f0565b6040516020016128a4929190613e46565b6040516020818303038152906040529050919050565b601581815481106128ca57600080fd5b600091825260209091200154905081565b6000818152601d602052604081205460ff161561290857506000908152601c602052604090206007015490565b6000828152601c60205260409020600c015460168054606491908390811061294057634e487b7160e01b600052603260045260246000fd5b9060005260206000200154601c600086815260200190815260200160002060070154610d6b91906141ac565b601681815481106128ca57600080fd5b600a546001600160a01b031633146129a65760405162461bcd60e51b8152600401610c6f90613fe0565b60008060015b600c54811015610e03576000818152601d602052604090205460ff1615612a27576000818152601c602052604090205460011415612a0857826129ee81614260565b6000838152601f602052604090208190559350612a279050565b81612a1281614260565b6000838152601f602052604090208190559250505b80612a3181614260565b9150506129ac565b6000818152601d602052604081205460ff1615612a6657506000908152601c602052604090206008015490565b6000828152601c60205260409020600c0154601680546064919083908110612a9e57634e487b7160e01b600052603260045260246000fd5b9060005260206000200154601c600086815260200190815260200160002060080154610d6b91906141ac565b6000818152601d602052604081205460ff1615612af757506000908152601c602052604090206009015490565b6000828152601c60205260409020600c0154601680546064919083908110612b2f57634e487b7160e01b600052603260045260246000fd5b9060005260206000200154601c600086815260200190815260200160002060090154610d6b91906141ac565b600a546001600160a01b03163314612b855760405162461bcd60e51b8152600401610c6f90613fe0565b6001600160a01b038116612bea5760405162461bcd60e51b815260206004820152602660248201527f4f776e61626c653a206e6577206f776e657220697320746865207a65726f206160448201526564647265737360d01b6064820152608401610c6f565b612bf3816131ab565b50565b60006001600160e01b031982166380ac58cd60e01b1480612c2757506001600160e01b03198216635b5e139f60e01b145b80610b6257506301ffc9a760e01b6001600160e01b0319831614610b62565b6000818152600260205260408120546001600160a01b0316612cbf5760405162461bcd60e51b815260206004820152602c60248201527f4552433732313a206f70657261746f7220717565727920666f72206e6f6e657860448201526b34b9ba32b73a103a37b5b2b760a11b6064820152608401610c6f565b6000612cca836115e0565b9050806001600160a01b0316846001600160a01b03161480612d1157506001600160a01b0380821660009081526005602090815260408083209388168352929052205460ff165b80612d355750836001600160a01b0316612d2a84610bfa565b6001600160a01b0316145b949350505050565b826001600160a01b0316612d50826115e0565b6001600160a01b031614612db45760405162461bcd60e51b815260206004820152602560248201527f4552433732313a207472616e736665722066726f6d20696e636f72726563742060448201526437bbb732b960d91b6064820152608401610c6f565b6001600160a01b038216612e165760405162461bcd60e51b8152602060048201526024808201527f4552433732313a207472616e7366657220746f20746865207a65726f206164646044820152637265737360e01b6064820152608401610c6f565b612e2183838361350a565b612e2c6000826135c2565b6001600160a01b0383166000908152600360205260408120805460019290612e559084906141cb565b90915550506001600160a01b0382166000908152600360205260408120805460019290612e83908490614180565b909155505060008181526002602052604080822080546001600160a01b0319166001600160a01b0386811691821790925591518493918716917fddf252ad1be2c89b69c2b068fc378daa952ba7f163c4a11628f55a4df523b3ef91a4505050565b6000612eef826115e0565b9050612efd8160008461350a565b612f086000836135c2565b6001600160a01b0381166000908152600360205260408120805460019290612f319084906141cb565b909155505060008281526002602052604080822080546001600160a01b0319169055518391906001600160a01b038416907fddf252ad1be2c89b69c2b068fc378daa952ba7f163c4a11628f55a4df523b3ef908390a45050565b6001600160a01b038216612fe15760405162461bcd60e51b815260206004820181905260248201527f4552433732313a206d696e7420746f20746865207a65726f20616464726573736044820152606401610c6f565b6000818152600260205260409020546001600160a01b0316156130465760405162461bcd60e51b815260206004820152601c60248201527f4552433732313a20746f6b656e20616c7265616479206d696e746564000000006044820152606401610c6f565b6130526000838361350a565b6001600160a01b038216600090815260036020526040812080546001929061307b908490614180565b909155505060008181526002602052604080822080546001600160a01b0319166001600160a01b03861690811790915590518392907fddf252ad1be2c89b69c2b068fc378daa952ba7f163c4a11628f55a4df523b3ef908290a45050565b6000806130f4600f54600e546130ef9190614180565b61313b565b9050600e5481111561311d57600f80549060006131108361420e565b9190505550600291505090565b600e805490600061312d8361420e565b9190505550600191505b5090565b6000804442601b54604051602001613166939291909283526020830191909152604082015260600190565b60408051601f198184030181529190528051602090910120601b8054919250600061319083614260565b909155506131a09050838261427b565b610d75906001614180565b600a80546001600160a01b038381166001600160a01b0319831681179093556040519116919082907f8be0079c531659141344cd1fd0a4f28419497f9722a3daafe3b4186f6b6457e090600090a35050565b816001600160a01b0316836001600160a01b0316141561325f5760405162461bcd60e51b815260206004820152601960248201527f4552433732313a20617070726f766520746f2063616c6c6572000000000000006044820152606401610c6f565b6001600160a01b03838116600081815260056020908152604080832094871680845294825291829020805460ff191686151590811790915591519182527f17307eab39ab6107e8899845ad3d59bd9653f200f220920489ca2b5937696c31910160405180910390a3505050565b6000806103e86132dc60c861313b565b6132e890610384614180565b6132f290856141ac565b6132fc9190614198565b9050601560008154811061332057634e487b7160e01b600052603260045260246000fd5b906000526020600020015481101561336757601560008154811061335457634e487b7160e01b600052603260045260246000fd5b9060005260206000200154915050919050565b601560018154811061338957634e487b7160e01b600052603260045260246000fd5b9060005260206000200154811115610b6257601560018154811061335457634e487b7160e01b600052603260045260246000fd5b6133c8848484612d3d565b6133d484848484613630565b6124955760405162461bcd60e51b8152600401610c6f90613f8e565b6060816134145750506040805180820190915260018152600360fc1b602082015290565b8160005b811561343e578061342881614260565b91506134379050600a83614198565b9150613418565b60008167ffffffffffffffff81111561346757634e487b7160e01b600052604160045260246000fd5b6040519080825280601f01601f191660200182016040528015613491576020820181803683370190505b5090505b8415612d35576134a66001836141cb565b91506134b3600a8661427b565b6134be906030614180565b60f81b8183815181106134e157634e487b7160e01b600052603260045260246000fd5b60200101906001600160f81b031916908160001a905350613503600a86614198565b9450613495565b6001600160a01b0383166135655761356081600880546000838152600960205260408120829055600182018355919091527ff3f7a9fe364faab93b216da50a3214154f22a0a2b415b23a84c8169e8b636ee30155565b613588565b816001600160a01b0316836001600160a01b03161461358857613588838261373d565b6001600160a01b03821661359f57610e03816137da565b826001600160a01b0316826001600160a01b031614610e0357610e0382826138b3565b600081815260046020526040902080546001600160a01b0319166001600160a01b03841690811790915581906135f7826115e0565b6001600160a01b03167f8c5be1e5ebec7d5bd14f71427d1e84f3dd0314c0f7b2291e5b200ac8c7c3b92560405160405180910390a45050565b60006001600160a01b0384163b1561373257604051630a85bd0160e11b81526001600160a01b0385169063150b7a0290613674903390899088908890600401613eec565b602060405180830381600087803b15801561368e57600080fd5b505af19250505080156136be575060408051601f3d908101601f191682019092526136bb91810190613d40565b60015b613718573d8080156136ec576040519150601f19603f3d011682016040523d82523d6000602084013e6136f1565b606091505b5080516137105760405162461bcd60e51b8152600401610c6f90613f8e565b805181602001fd5b6001600160e01b031916630a85bd0160e11b149050612d35565b506001949350505050565b6000600161374a84611a77565b61375491906141cb565b6000838152600760205260409020549091508082146137a7576001600160a01b03841660009081526006602090815260408083208584528252808320548484528184208190558352600790915290208190555b5060009182526007602090815260408084208490556001600160a01b039094168352600681528383209183525290812055565b6008546000906137ec906001906141cb565b6000838152600960205260408120546008805493945090928490811061382257634e487b7160e01b600052603260045260246000fd5b90600052602060002001549050806008838154811061385157634e487b7160e01b600052603260045260246000fd5b600091825260208083209091019290925582815260099091526040808220849055858252812055600880548061389757634e487b7160e01b600052603160045260246000fd5b6001900381819060005260206000200160009055905550505050565b60006138be83611a77565b6001600160a01b039093166000908152600660209081526040808320868452825280832085905593825260079052919091209190915550565b82805461390390614225565b90600052602060002090601f016020900481019282613925576000855561396b565b82601f1061393e57805160ff191683800117855561396b565b8280016001018555821561396b579182015b8281111561396b578251825591602001919060010190613950565b506131379291506139fc565b60405180604001604052806002906020820280368337509192915050565b82805482825590600052602060002090810192821561396b579160200282018281111561396b578251825591602001919060010190613950565b826002810192821561396b579160200282018281111561396b578251825591602001919060010190613950565b5b8082111561313757600081556001016139fd565b600067ffffffffffffffff831115613a2b57613a2b6142bb565b613a3e601f8401601f191660200161414f565b9050828152838383011115613a5257600080fd5b828260208301376000602084830101529392505050565b80356001600160a01b0381168114613a8057600080fd5b919050565b600060208284031215613a96578081fd5b610d7582613a69565b60008060408385031215613ab1578081fd5b613aba83613a69565b9150613ac860208401613a69565b90509250929050565b600080600060608486031215613ae5578081fd5b613aee84613a69565b9250613afc60208501613a69565b9150604084013590509250925092565b60008060008060808587031215613b21578081fd5b613b2a85613a69565b9350613b3860208601613a69565b925060408501359150606085013567ffffffffffffffff811115613b5a578182fd5b8501601f81018713613b6a578182fd5b613b7987823560208401613a11565b91505092959194509250565b60008060608385031215613b97578182fd5b613ba083613a69565b9150602084603f850112613bb2578182fd5b6040516040810181811067ffffffffffffffff82111715613bd557613bd56142bb565b6040528085830160608701881015613beb578485fd5b845b6002811015613c0a57813583529184019190840190600101613bed565b50505080925050509250929050565b60008060408385031215613c2b578182fd5b613c3483613a69565b915060208301358015158114613c48578182fd5b809150509250929050565b60008060408385031215613c65578182fd5b613c6e83613a69565b946020939093013593505050565b60006020808385031215613c8e578182fd5b823567ffffffffffffffff80821115613ca5578384fd5b818501915085601f830112613cb8578384fd5b813581811115613cca57613cca6142bb565b8060051b9150613cdb84830161414f565b8181528481019084860184860187018a1015613cf5578788fd5b8795505b83861015613d17578035835260019590950194918601918601613cf9565b5098975050505050505050565b600060208284031215613d35578081fd5b8135610d75816142d1565b600060208284031215613d51578081fd5b8151610d75816142d1565b600060208284031215613d6d578081fd5b813567ffffffffffffffff811115613d83578182fd5b8201601f81018413613d93578182fd5b612d3584823560208401613a11565b600060208284031215613db3578081fd5b5035919050565b60008060408385031215613dcc578182fd5b50508035926020909101359150565b8060005b6002811015612495578151845260209384019390910190600101613ddf565b60008151808452613e168160208601602086016141e2565b601f01601f19169290920160200192915050565b60008151613e3c8185602086016141e2565b9290920192915050565b600080845482600182811c915080831680613e6257607f831692505b6020808410821415613e8257634e487b7160e01b87526022600452602487fd5b818015613e965760018114613ea757613ed3565b60ff19861689528489019650613ed3565b60008b815260209020885b86811015613ecb5781548b820152908501908301613eb2565b505084890196505b505050505050613ee38185613e2a565b95945050505050565b6001600160a01b0385811682528416602082015260408101839052608060608201819052600090613f1f90830184613dfe565b9695505050505050565b60408101610b628284613ddb565b6020808252825182820181905260009190848201906040850190845b81811015613f6f57835183529284019291840191600101613f53565b50909695505050505050565b602081526000610d756020830184613dfe565b60208082526032908201527f4552433732313a207472616e7366657220746f206e6f6e20455243373231526560408201527131b2b4bb32b91034b6b83632b6b2b73a32b960711b606082015260800190565b6020808252818101527f4f776e61626c653a2063616c6c6572206973206e6f7420746865206f776e6572604082015260600190565b6020808252600e908201526d1b9bc81b5a5b9d08185b5bdd5b9d60921b604082015260600190565b60208082526031908201527f4552433732313a207472616e736665722063616c6c6572206973206e6f74206f6040820152701ddb995c881b9bdc88185c1c1c9bdd9959607a1b606082015260800190565b6020808252600990820152683737ba1030b236b4b760b91b604082015260600190565b6000610120820190508982528860208301528760408301528660608301526140dc6080830187613ddb565b8460c08301528360e0830152826101008301529998505050505050505050565b6000610140820190508a82528960208301528860408301528760608301526141276080830188613ddb565b8560c08301528460e083015283610100830152826101208301529a9950505050505050505050565b604051601f8201601f1916810167ffffffffffffffff81118282101715614178576141786142bb565b604052919050565b600082198211156141935761419361428f565b500190565b6000826141a7576141a76142a5565b500490565b60008160001904831182151516156141c6576141c661428f565b500290565b6000828210156141dd576141dd61428f565b500390565b60005b838110156141fd5781810151838201526020016141e5565b838111156124955750506000910152565b60008161421d5761421d61428f565b506000190190565b600181811c9082168061423957607f821691505b6020821081141561425a57634e487b7160e01b600052602260045260246000fd5b50919050565b60006000198214156142745761427461428f565b5060010190565b60008261428a5761428a6142a5565b500690565b634e487b7160e01b600052601160045260246000fd5b634e487b7160e01b600052601260045260246000fd5b634e487b7160e01b600052604160045260246000fd5b6001600160e01b031981168114612bf357600080fdfea264697066735822122066f59434a5834bc8017692989a068478403f2eef0850382ce2944406ddcb923564736f6c63430008040033",
			"opcodes": "PUSH1 0x80 PUSH1 0x40 MSTORE CALLVALUE DUP1 ISZERO PUSH3 0x11 JUMPI PUSH1 0x0 DUP1 REVERT JUMPDEST POP PUSH1 0x40 DUP1 MLOAD DUP1 DUP3 ADD DUP3 MSTORE PUSH1 0xB DUP2 MSTORE PUSH11 0x5465737420436174746C65 PUSH1 0xA8 SHL PUSH1 0x20 DUP1 DUP4 ADD SWAP2 DUP3 MSTORE DUP4 MLOAD DUP1 DUP6 ADD SWAP1 SWAP5 MSTORE PUSH1 0x7 DUP5 MSTORE PUSH7 0x54436174746C65 PUSH1 0xC8 SHL SWAP1 DUP5 ADD MSTORE DUP2 MLOAD SWAP2 SWAP3 SWAP2 PUSH3 0x64 SWAP2 PUSH1 0x0 SWAP2 PUSH3 0x185 JUMP JUMPDEST POP DUP1 MLOAD PUSH3 0x7A SWAP1 PUSH1 0x1 SWAP1 PUSH1 0x20 DUP5 ADD SWAP1 PUSH3 0x185 JUMP JUMPDEST POP POP POP PUSH3 0x97 PUSH3 0x91 PUSH3 0x12F PUSH1 0x20 SHL PUSH1 0x20 SHR JUMP JUMPDEST PUSH3 0x133 JUMP JUMPDEST PUSH1 0x1 PUSH1 0xC SSTORE PUSH1 0xD DUP1 SLOAD PUSH1 0x1 PUSH1 0x1 PUSH1 0xA0 SHL SUB NOT AND CALLER OR SWAP1 SSTORE PUSH2 0x2710 PUSH1 0xE DUP2 SWAP1 SSTORE PUSH1 0xF SSTORE PUSH2 0x1F4 PUSH1 0x10 SSTORE PUSH3 0x2E2480 PUSH1 0x11 SSTORE PUSH1 0x40 DUP1 MLOAD DUP1 DUP3 ADD SWAP1 SWAP2 MSTORE PUSH2 0x1388 DUP2 MSTORE PUSH2 0x3A98 PUSH1 0x20 DUP3 ADD MSTORE PUSH3 0xED SWAP1 PUSH1 0x15 SWAP1 PUSH1 0x2 PUSH3 0x214 JUMP JUMPDEST POP PUSH1 0x40 DUP1 MLOAD PUSH1 0x80 DUP2 ADD DUP3 MSTORE PUSH1 0x19 DUP2 MSTORE PUSH1 0x28 PUSH1 0x20 DUP3 ADD MSTORE PUSH1 0x3C SWAP2 DUP2 ADD SWAP2 SWAP1 SWAP2 MSTORE PUSH1 0x50 PUSH1 0x60 DUP3 ADD MSTORE PUSH3 0x123 SWAP1 PUSH1 0x16 SWAP1 PUSH1 0x4 PUSH3 0x258 JUMP JUMPDEST POP PUSH1 0x1 PUSH1 0x1B SSTORE PUSH3 0x2EF JUMP JUMPDEST CALLER SWAP1 JUMP JUMPDEST PUSH1 0xA DUP1 SLOAD PUSH1 0x1 PUSH1 0x1 PUSH1 0xA0 SHL SUB DUP4 DUP2 AND PUSH1 0x1 PUSH1 0x1 PUSH1 0xA0 SHL SUB NOT DUP4 AND DUP2 OR SWAP1 SWAP4 SSTORE PUSH1 0x40 MLOAD SWAP2 AND SWAP2 SWAP1 DUP3 SWAP1 PUSH32 0x8BE0079C531659141344CD1FD0A4F28419497F9722A3DAAFE3B4186F6B6457E0 SWAP1 PUSH1 0x0 SWAP1 LOG3 POP POP JUMP JUMPDEST DUP3 DUP1 SLOAD PUSH3 0x193 SWAP1 PUSH3 0x2B2 JUMP JUMPDEST SWAP1 PUSH1 0x0 MSTORE PUSH1 0x20 PUSH1 0x0 KECCAK256 SWAP1 PUSH1 0x1F ADD PUSH1 0x20 SWAP1 DIV DUP2 ADD SWAP3 DUP3 PUSH3 0x1B7 JUMPI PUSH1 0x0 DUP6 SSTORE PUSH3 0x202 JUMP JUMPDEST DUP3 PUSH1 0x1F LT PUSH3 0x1D2 JUMPI DUP1 MLOAD PUSH1 0xFF NOT AND DUP4 DUP1 ADD OR DUP6 SSTORE PUSH3 0x202 JUMP JUMPDEST DUP3 DUP1 ADD PUSH1 0x1 ADD DUP6 SSTORE DUP3 ISZERO PUSH3 0x202 JUMPI SWAP2 DUP3 ADD JUMPDEST DUP3 DUP2 GT ISZERO PUSH3 0x202 JUMPI DUP3 MLOAD DUP3 SSTORE SWAP2 PUSH1 0x20 ADD SWAP2 SWAP1 PUSH1 0x1 ADD SWAP1 PUSH3 0x1E5 JUMP JUMPDEST POP PUSH3 0x210 SWAP3 SWAP2 POP PUSH3 0x29B JUMP JUMPDEST POP SWAP1 JUMP JUMPDEST DUP3 DUP1 SLOAD DUP3 DUP3 SSTORE SWAP1 PUSH1 0x0 MSTORE PUSH1 0x20 PUSH1 0x0 KECCAK256 SWAP1 DUP2 ADD SWAP3 DUP3 ISZERO PUSH3 0x202 JUMPI SWAP2 PUSH1 0x20 MUL DUP3 ADD JUMPDEST DUP3 DUP2 GT ISZERO PUSH3 0x202 JUMPI DUP3 MLOAD DUP3 SWAP1 PUSH2 0xFFFF AND SWAP1 SSTORE SWAP2 PUSH1 0x20 ADD SWAP2 SWAP1 PUSH1 0x1 ADD SWAP1 PUSH3 0x235 JUMP JUMPDEST DUP3 DUP1 SLOAD DUP3 DUP3 SSTORE SWAP1 PUSH1 0x0 MSTORE PUSH1 0x20 PUSH1 0x0 KECCAK256 SWAP1 DUP2 ADD SWAP3 DUP3 ISZERO PUSH3 0x202 JUMPI SWAP2 PUSH1 0x20 MUL DUP3 ADD JUMPDEST DUP3 DUP2 GT ISZERO PUSH3 0x202 JUMPI DUP3 MLOAD DUP3 SWAP1 PUSH1 0xFF AND SWAP1 SSTORE SWAP2 PUSH1 0x20 ADD SWAP2 SWAP1 PUSH1 0x1 ADD SWAP1 PUSH3 0x279 JUMP JUMPDEST JUMPDEST DUP1 DUP3 GT ISZERO PUSH3 0x210 JUMPI PUSH1 0x0 DUP2 SSTORE PUSH1 0x1 ADD PUSH3 0x29C JUMP JUMPDEST PUSH1 0x1 DUP2 DUP2 SHR SWAP1 DUP3 AND DUP1 PUSH3 0x2C7 JUMPI PUSH1 0x7F DUP3 AND SWAP2 POP JUMPDEST PUSH1 0x20 DUP3 LT DUP2 EQ ISZERO PUSH3 0x2E9 JUMPI PUSH4 0x4E487B71 PUSH1 0xE0 SHL PUSH1 0x0 MSTORE PUSH1 0x22 PUSH1 0x4 MSTORE PUSH1 0x24 PUSH1 0x0 REVERT JUMPDEST POP SWAP2 SWAP1 POP JUMP JUMPDEST PUSH2 0x431D DUP1 PUSH3 0x2FF PUSH1 0x0 CODECOPY PUSH1 0x0 RETURN INVALID PUSH1 0x80 PUSH1 0x40 MSTORE CALLVALUE DUP1 ISZERO PUSH2 0x10 JUMPI PUSH1 0x0 DUP1 REVERT JUMPDEST POP PUSH1 0x4 CALLDATASIZE LT PUSH2 0x412 JUMPI PUSH1 0x0 CALLDATALOAD PUSH1 0xE0 SHR DUP1 PUSH4 0x780FF402 GT PUSH2 0x220 JUMPI DUP1 PUSH4 0xBB3B9740 GT PUSH2 0x130 JUMPI DUP1 PUSH4 0xE2608438 GT PUSH2 0xB8 JUMPI DUP1 PUSH4 0xEB22DAA3 GT PUSH2 0x87 JUMPI DUP1 PUSH4 0xEB22DAA3 EQ PUSH2 0x9D9 JUMPI DUP1 PUSH4 0xF0A90FF0 EQ PUSH2 0x9EC JUMPI DUP1 PUSH4 0xF2FDE38B EQ PUSH2 0xA0F JUMPI DUP1 PUSH4 0xF610E982 EQ PUSH2 0xA22 JUMPI DUP1 PUSH4 0xFF45FEC8 EQ PUSH2 0xB09 JUMPI PUSH1 0x0 DUP1 REVERT JUMPDEST DUP1 PUSH4 0xE2608438 EQ PUSH2 0x96F JUMPI DUP1 PUSH4 0xE440BE00 EQ PUSH2 0x982 JUMPI DUP1 PUSH4 0xE6225630 EQ PUSH2 0x98A JUMPI DUP1 PUSH4 0xE985E9C5 EQ PUSH2 0x99D JUMPI PUSH1 0x0 DUP1 REVERT JUMPDEST DUP1 PUSH4 0xC8877F8E GT PUSH2 0xFF JUMPI DUP1 PUSH4 0xC8877F8E EQ PUSH2 0x900 JUMPI DUP1 PUSH4 0xCFF840F0 EQ PUSH2 0x913 JUMPI DUP1 PUSH4 0xD6EAC26C EQ PUSH2 0x926 JUMPI DUP1 PUSH4 0xE00DD161 EQ PUSH2 0x946 JUMPI DUP1 PUSH4 0xE06D2EB5 EQ PUSH2 0x94F JUMPI PUSH1 0x0 DUP1 REVERT JUMPDEST DUP1 PUSH4 0xBB3B9740 EQ PUSH2 0x894 JUMPI DUP1 PUSH4 0xBBA0F646 EQ PUSH2 0x8A7 JUMPI DUP1 PUSH4 0xC5426124 EQ PUSH2 0x8CA JUMPI DUP1 PUSH4 0xC87B56DD EQ PUSH2 0x8ED JUMPI PUSH1 0x0 DUP1 REVERT JUMPDEST DUP1 PUSH4 0x9AD1F0BB GT PUSH2 0x1B3 JUMPI DUP1 PUSH4 0xAE9921DE GT PUSH2 0x182 JUMPI DUP1 PUSH4 0xAE9921DE EQ PUSH2 0x832 JUMPI DUP1 PUSH4 0xB41D74D8 EQ PUSH2 0x845 JUMPI DUP1 PUSH4 0xB88D4FDE EQ PUSH2 0x858 JUMPI DUP1 PUSH4 0xB969F222 EQ PUSH2 0x86B JUMPI DUP1 PUSH4 0xB9EEA722 EQ PUSH2 0x874 JUMPI PUSH1 0x0 DUP1 REVERT JUMPDEST DUP1 PUSH4 0x9AD1F0BB EQ PUSH2 0x7D3 JUMPI DUP1 PUSH4 0x9B7C6AF8 EQ PUSH2 0x7F9 JUMPI DUP1 PUSH4 0xA22CB465 EQ PUSH2 0x80C JUMPI DUP1 PUSH4 0xA435FF65 EQ PUSH2 0x81F JUMPI PUSH1 0x0 DUP1 REVERT JUMPDEST DUP1 PUSH4 0x8DA5CB5B GT PUSH2 0x1EF JUMPI DUP1 PUSH4 0x8DA5CB5B EQ PUSH2 0x784 JUMPI DUP1 PUSH4 0x92D9495D EQ PUSH2 0x795 JUMPI DUP1 PUSH4 0x95D89B41 EQ PUSH2 0x7A8 JUMPI DUP1 PUSH4 0x96822DAE EQ PUSH2 0x7B0 JUMPI PUSH1 0x0 DUP1 REVERT JUMPDEST DUP1 PUSH4 0x780FF402 EQ PUSH2 0x733 JUMPI DUP1 PUSH4 0x7E0358A6 EQ PUSH2 0x746 JUMPI DUP1 PUSH4 0x83197EF0 EQ PUSH2 0x769 JUMPI DUP1 PUSH4 0x84686C64 EQ PUSH2 0x771 JUMPI PUSH1 0x0 DUP1 REVERT JUMPDEST DUP1 PUSH4 0x42966C68 GT PUSH2 0x326 JUMPI DUP1 PUSH4 0x611F51AC GT PUSH2 0x2AE JUMPI DUP1 PUSH4 0x6A627842 GT PUSH2 0x27D JUMPI DUP1 PUSH4 0x6A627842 EQ PUSH2 0x6F3 JUMPI DUP1 PUSH4 0x70A08231 EQ PUSH2 0x706 JUMPI DUP1 PUSH4 0x715018A6 EQ PUSH2 0x719 JUMPI DUP1 PUSH4 0x7371BFE7 EQ PUSH2 0x721 JUMPI DUP1 PUSH4 0x73F42561 EQ PUSH2 0x72A JUMPI PUSH1 0x0 DUP1 REVERT JUMPDEST DUP1 PUSH4 0x611F51AC EQ PUSH2 0x68A JUMPI DUP1 PUSH4 0x62E42CB0 EQ PUSH2 0x6AA JUMPI DUP1 PUSH4 0x6352211E EQ PUSH2 0x6BD JUMPI DUP1 PUSH4 0x63A846F8 EQ PUSH2 0x6D0 JUMPI PUSH1 0x0 DUP1 REVERT JUMPDEST DUP1 PUSH4 0x4F6CCCE7 GT PUSH2 0x2F5 JUMPI DUP1 PUSH4 0x4F6CCCE7 EQ PUSH2 0x60E JUMPI DUP1 PUSH4 0x51C18E0C EQ PUSH2 0x621 JUMPI DUP1 PUSH4 0x55F804B3 EQ PUSH2 0x644 JUMPI DUP1 PUSH4 0x5F64D7F3 EQ PUSH2 0x657 JUMPI DUP1 PUSH4 0x5F70A1D5 EQ PUSH2 0x677 JUMPI PUSH1 0x0 DUP1 REVERT JUMPDEST DUP1 PUSH4 0x42966C68 EQ PUSH2 0x5B5 JUMPI DUP1 PUSH4 0x44A299FC EQ PUSH2 0x5C8 JUMPI DUP1 PUSH4 0x4B0BDDD2 EQ PUSH2 0x5E8 JUMPI DUP1 PUSH4 0x4BCEE787 EQ PUSH2 0x5FB JUMPI PUSH1 0x0 DUP1 REVERT JUMPDEST DUP1 PUSH4 0x184E9C2D GT PUSH2 0x3A9 JUMPI DUP1 PUSH4 0x2F745C59 GT PUSH2 0x378 JUMPI DUP1 PUSH4 0x2F745C59 EQ PUSH2 0x561 JUMPI DUP1 PUSH4 0x33523433 EQ PUSH2 0x574 JUMPI DUP1 PUSH4 0x372A3B82 EQ PUSH2 0x587 JUMPI DUP1 PUSH4 0x4147DA13 EQ PUSH2 0x58F JUMPI DUP1 PUSH4 0x42842E0E EQ PUSH2 0x5A2 JUMPI PUSH1 0x0 DUP1 REVERT JUMPDEST DUP1 PUSH4 0x184E9C2D EQ PUSH2 0x51F JUMPI DUP1 PUSH4 0x232CBA0D EQ PUSH2 0x532 JUMPI DUP1 PUSH4 0x23B872DD EQ PUSH2 0x53B JUMPI DUP1 PUSH4 0x25421013 EQ PUSH2 0x54E JUMPI PUSH1 0x0 DUP1 REVERT JUMPDEST DUP1 PUSH4 0x95EA7B3 GT PUSH2 0x3E5 JUMPI DUP1 PUSH4 0x95EA7B3 EQ PUSH2 0x496 JUMPI DUP1 PUSH4 0x11251F1C EQ PUSH2 0x4E1 JUMPI DUP1 PUSH4 0x148EEBD7 EQ PUSH2 0x504 JUMPI DUP1 PUSH4 0x18160DDD EQ PUSH2 0x517 JUMPI PUSH1 0x0 DUP1 REVERT JUMPDEST DUP1 PUSH4 0x1FFC9A7 EQ PUSH2 0x417 JUMPI DUP1 PUSH4 0x6FDDE03 EQ PUSH2 0x43F JUMPI DUP1 PUSH4 0x72C4907 EQ PUSH2 0x454 JUMPI DUP1 PUSH4 0x81812FC EQ PUSH2 0x46B JUMPI JUMPDEST PUSH1 0x0 DUP1 REVERT JUMPDEST PUSH2 0x42A PUSH2 0x425 CALLDATASIZE PUSH1 0x4 PUSH2 0x3D24 JUMP JUMPDEST PUSH2 0xB3D JUMP JUMPDEST PUSH1 0x40 MLOAD SWAP1 ISZERO ISZERO DUP2 MSTORE PUSH1 0x20 ADD JUMPDEST PUSH1 0x40 MLOAD DUP1 SWAP2 SUB SWAP1 RETURN JUMPDEST PUSH2 0x447 PUSH2 0xB68 JUMP JUMPDEST PUSH1 0x40 MLOAD PUSH2 0x436 SWAP2 SWAP1 PUSH2 0x3F7B JUMP JUMPDEST PUSH2 0x45D PUSH1 0x14 SLOAD DUP2 JUMP JUMPDEST PUSH1 0x40 MLOAD SWAP1 DUP2 MSTORE PUSH1 0x20 ADD PUSH2 0x436 JUMP JUMPDEST PUSH2 0x47E PUSH2 0x479 CALLDATASIZE PUSH1 0x4 PUSH2 0x3DA2 JUMP JUMPDEST PUSH2 0xBFA JUMP JUMPDEST PUSH1 0x40 MLOAD PUSH1 0x1 PUSH1 0x1 PUSH1 0xA0 SHL SUB SWAP1 SWAP2 AND DUP2 MSTORE PUSH1 0x20 ADD PUSH2 0x436 JUMP JUMPDEST PUSH2 0x4DF PUSH2 0x4A4 CALLDATASIZE PUSH1 0x4 PUSH2 0x3C53 JUMP JUMPDEST CALLER PUSH1 0x0 SWAP1 DUP2 MSTORE PUSH1 0x1A PUSH1 0x20 SWAP1 DUP2 MSTORE PUSH1 0x40 DUP1 DUP4 KECCAK256 PUSH1 0x1 PUSH1 0x1 PUSH1 0xA0 SHL SUB SWAP6 SWAP1 SWAP6 AND DUP4 MSTORE SWAP4 DUP2 MSTORE DUP4 DUP3 KECCAK256 SWAP3 DUP3 MSTORE SWAP2 SWAP1 SWAP2 MSTORE KECCAK256 DUP1 SLOAD PUSH1 0xFF NOT AND PUSH1 0x1 OR SWAP1 SSTORE JUMP JUMPDEST STOP JUMPDEST PUSH2 0x45D PUSH2 0x4EF CALLDATASIZE PUSH1 0x4 PUSH2 0x3DA2 JUMP JUMPDEST PUSH1 0x0 SWAP1 DUP2 MSTORE PUSH1 0x1C PUSH1 0x20 MSTORE PUSH1 0x40 SWAP1 KECCAK256 PUSH1 0x3 ADD SLOAD SWAP1 JUMP JUMPDEST PUSH2 0x4DF PUSH2 0x512 CALLDATASIZE PUSH1 0x4 PUSH2 0x3C53 JUMP JUMPDEST PUSH2 0xC94 JUMP JUMPDEST PUSH1 0x8 SLOAD PUSH2 0x45D JUMP JUMPDEST PUSH2 0x45D PUSH2 0x52D CALLDATASIZE PUSH1 0x4 PUSH2 0x3DA2 JUMP JUMPDEST PUSH2 0xCDA JUMP JUMPDEST PUSH2 0x45D PUSH1 0x11 SLOAD DUP2 JUMP JUMPDEST PUSH2 0x4DF PUSH2 0x549 CALLDATASIZE PUSH1 0x4 PUSH2 0x3AD1 JUMP JUMPDEST PUSH2 0xD7C JUMP JUMPDEST PUSH2 0x4DF PUSH2 0x55C CALLDATASIZE PUSH1 0x4 PUSH2 0x3DA2 JUMP JUMPDEST PUSH2 0xE08 JUMP JUMPDEST PUSH2 0x45D PUSH2 0x56F CALLDATASIZE PUSH1 0x4 PUSH2 0x3C53 JUMP JUMPDEST PUSH2 0xF61 JUMP JUMPDEST PUSH2 0x4DF PUSH2 0x582 CALLDATASIZE PUSH1 0x4 PUSH2 0x3C53 JUMP JUMPDEST PUSH2 0xFF7 JUMP JUMPDEST PUSH2 0x447 PUSH2 0x103D JUMP JUMPDEST PUSH2 0x4DF PUSH2 0x59D CALLDATASIZE PUSH1 0x4 PUSH2 0x3DBA JUMP JUMPDEST PUSH2 0x10CB JUMP JUMPDEST PUSH2 0x4DF PUSH2 0x5B0 CALLDATASIZE PUSH1 0x4 PUSH2 0x3AD1 JUMP JUMPDEST PUSH2 0x1124 JUMP JUMPDEST PUSH2 0x42A PUSH2 0x5C3 CALLDATASIZE PUSH1 0x4 PUSH2 0x3DA2 JUMP JUMPDEST PUSH2 0x1199 JUMP JUMPDEST PUSH2 0x45D PUSH2 0x5D6 CALLDATASIZE PUSH1 0x4 PUSH2 0x3DA2 JUMP JUMPDEST PUSH1 0x1F PUSH1 0x20 MSTORE PUSH1 0x0 SWAP1 DUP2 MSTORE PUSH1 0x40 SWAP1 KECCAK256 SLOAD DUP2 JUMP JUMPDEST PUSH2 0x4DF PUSH2 0x5F6 CALLDATASIZE PUSH1 0x4 PUSH2 0x3C19 JUMP JUMPDEST PUSH2 0x1211 JUMP JUMPDEST PUSH2 0x4DF PUSH2 0x609 CALLDATASIZE PUSH1 0x4 PUSH2 0x3DBA JUMP JUMPDEST PUSH2 0x1266 JUMP JUMPDEST PUSH2 0x45D PUSH2 0x61C CALLDATASIZE PUSH1 0x4 PUSH2 0x3DA2 JUMP JUMPDEST PUSH2 0x12A5 JUMP JUMPDEST PUSH2 0x45D PUSH2 0x62F CALLDATASIZE PUSH1 0x4 PUSH2 0x3DA2 JUMP JUMPDEST PUSH1 0x0 SWAP1 DUP2 MSTORE PUSH1 0x1C PUSH1 0x20 MSTORE PUSH1 0x40 SWAP1 KECCAK256 PUSH1 0x4 ADD SLOAD SWAP1 JUMP JUMPDEST PUSH2 0x4DF PUSH2 0x652 CALLDATASIZE PUSH1 0x4 PUSH2 0x3D5C JUMP JUMPDEST PUSH2 0x1346 JUMP JUMPDEST PUSH2 0x66A PUSH2 0x665 CALLDATASIZE PUSH1 0x4 PUSH2 0x3DA2 JUMP JUMPDEST PUSH2 0x1387 JUMP JUMPDEST PUSH1 0x40 MLOAD PUSH2 0x436 SWAP2 SWAP1 PUSH2 0x3F29 JUMP JUMPDEST PUSH2 0x4DF PUSH2 0x685 CALLDATASIZE PUSH1 0x4 PUSH2 0x3DBA JUMP JUMPDEST PUSH2 0x13D5 JUMP JUMPDEST PUSH2 0x69D PUSH2 0x698 CALLDATASIZE PUSH1 0x4 PUSH2 0x3A85 JUMP JUMPDEST PUSH2 0x151C JUMP JUMPDEST PUSH1 0x40 MLOAD PUSH2 0x436 SWAP2 SWAP1 PUSH2 0x3F37 JUMP JUMPDEST PUSH1 0xD SLOAD PUSH2 0x47E SWAP1 PUSH1 0x1 PUSH1 0x1 PUSH1 0xA0 SHL SUB AND DUP2 JUMP JUMPDEST PUSH2 0x47E PUSH2 0x6CB CALLDATASIZE PUSH1 0x4 PUSH2 0x3DA2 JUMP JUMPDEST PUSH2 0x15E0 JUMP JUMPDEST PUSH2 0x42A PUSH2 0x6DE CALLDATASIZE PUSH1 0x4 PUSH2 0x3A85 JUMP JUMPDEST PUSH1 0x17 PUSH1 0x20 MSTORE PUSH1 0x0 SWAP1 DUP2 MSTORE PUSH1 0x40 SWAP1 KECCAK256 SLOAD PUSH1 0xFF AND DUP2 JUMP JUMPDEST PUSH2 0x4DF PUSH2 0x701 CALLDATASIZE PUSH1 0x4 PUSH2 0x3A85 JUMP JUMPDEST PUSH2 0x1657 JUMP JUMPDEST PUSH2 0x45D PUSH2 0x714 CALLDATASIZE PUSH1 0x4 PUSH2 0x3A85 JUMP JUMPDEST PUSH2 0x1A77 JUMP JUMPDEST PUSH2 0x4DF PUSH2 0x1AFE JUMP JUMPDEST PUSH2 0x45D PUSH1 0x1E SLOAD DUP2 JUMP JUMPDEST PUSH2 0x45D PUSH1 0x12 SLOAD DUP2 JUMP JUMPDEST PUSH2 0x4DF PUSH2 0x741 CALLDATASIZE PUSH1 0x4 PUSH2 0x3DBA JUMP JUMPDEST PUSH2 0x1B34 JUMP JUMPDEST PUSH2 0x45D PUSH2 0x754 CALLDATASIZE PUSH1 0x4 PUSH2 0x3DA2 JUMP JUMPDEST PUSH1 0x0 SWAP1 DUP2 MSTORE PUSH1 0x1C PUSH1 0x20 MSTORE PUSH1 0x40 SWAP1 KECCAK256 PUSH1 0x2 ADD SLOAD SWAP1 JUMP JUMPDEST PUSH2 0x4DF PUSH2 0x1B69 JUMP JUMPDEST PUSH2 0x4DF PUSH2 0x77F CALLDATASIZE PUSH1 0x4 PUSH2 0x3DA2 JUMP JUMPDEST PUSH2 0x1B96 JUMP JUMPDEST PUSH1 0xA SLOAD PUSH1 0x1 PUSH1 0x1 PUSH1 0xA0 SHL SUB AND PUSH2 0x47E JUMP JUMPDEST PUSH2 0x45D PUSH2 0x7A3 CALLDATASIZE PUSH1 0x4 PUSH2 0x3DA2 JUMP JUMPDEST PUSH2 0x1CB4 JUMP JUMPDEST PUSH2 0x447 PUSH2 0x1D45 JUMP JUMPDEST PUSH2 0x45D PUSH2 0x7BE CALLDATASIZE PUSH1 0x4 PUSH2 0x3DA2 JUMP JUMPDEST PUSH1 0x0 SWAP1 DUP2 MSTORE PUSH1 0x1C PUSH1 0x20 MSTORE PUSH1 0x40 SWAP1 KECCAK256 PUSH1 0xF ADD SLOAD SWAP1 JUMP JUMPDEST PUSH2 0x42A PUSH2 0x7E1 CALLDATASIZE PUSH1 0x4 PUSH2 0x3DA2 JUMP JUMPDEST PUSH1 0x0 SWAP1 DUP2 MSTORE PUSH1 0x1C PUSH1 0x20 MSTORE PUSH1 0x40 SWAP1 KECCAK256 PUSH1 0x6 ADD SLOAD PUSH1 0xFF AND SWAP1 JUMP JUMPDEST PUSH2 0x69D PUSH2 0x807 CALLDATASIZE PUSH1 0x4 PUSH2 0x3C19 JUMP JUMPDEST PUSH2 0x1D54 JUMP JUMPDEST PUSH2 0x4DF PUSH2 0x81A CALLDATASIZE PUSH1 0x4 PUSH2 0x3C19 JUMP JUMPDEST PUSH2 0x1F30 JUMP JUMPDEST PUSH2 0x4DF PUSH2 0x82D CALLDATASIZE PUSH1 0x4 PUSH2 0x3C7C JUMP JUMPDEST PUSH2 0x1F3B JUMP JUMPDEST PUSH2 0x4DF PUSH2 0x840 CALLDATASIZE PUSH1 0x4 PUSH2 0x3B85 JUMP JUMPDEST PUSH2 0x1F78 JUMP JUMPDEST PUSH2 0x4DF PUSH2 0x853 CALLDATASIZE PUSH1 0x4 PUSH2 0x3A85 JUMP JUMPDEST PUSH2 0x2418 JUMP JUMPDEST PUSH2 0x4DF PUSH2 0x866 CALLDATASIZE PUSH1 0x4 PUSH2 0x3B0C JUMP JUMPDEST PUSH2 0x2464 JUMP JUMPDEST PUSH2 0x45D PUSH1 0x13 SLOAD DUP2 JUMP JUMPDEST PUSH2 0x45D PUSH2 0x882 CALLDATASIZE PUSH1 0x4 PUSH2 0x3A85 JUMP JUMPDEST PUSH1 0x18 PUSH1 0x20 MSTORE PUSH1 0x0 SWAP1 DUP2 MSTORE PUSH1 0x40 SWAP1 KECCAK256 SLOAD DUP2 JUMP JUMPDEST PUSH2 0x4DF PUSH2 0x8A2 CALLDATASIZE PUSH1 0x4 PUSH2 0x3A85 JUMP JUMPDEST PUSH2 0x249B JUMP JUMPDEST PUSH2 0x45D PUSH2 0x8B5 CALLDATASIZE PUSH1 0x4 PUSH2 0x3DA2 JUMP JUMPDEST PUSH1 0x0 SWAP1 DUP2 MSTORE PUSH1 0x1C PUSH1 0x20 MSTORE PUSH1 0x40 SWAP1 KECCAK256 PUSH1 0x1 ADD SLOAD SWAP1 JUMP JUMPDEST PUSH2 0x45D PUSH2 0x8D8 CALLDATASIZE PUSH1 0x4 PUSH2 0x3DA2 JUMP JUMPDEST PUSH1 0x0 SWAP1 DUP2 MSTORE PUSH1 0x1C PUSH1 0x20 MSTORE PUSH1 0x40 SWAP1 KECCAK256 PUSH1 0xC ADD SLOAD SWAP1 JUMP JUMPDEST PUSH2 0x447 PUSH2 0x8FB CALLDATASIZE PUSH1 0x4 PUSH2 0x3DA2 JUMP JUMPDEST PUSH2 0x282D JUMP JUMPDEST PUSH2 0x45D PUSH2 0x90E CALLDATASIZE PUSH1 0x4 PUSH2 0x3DA2 JUMP JUMPDEST PUSH2 0x28BA JUMP JUMPDEST PUSH2 0x45D PUSH2 0x921 CALLDATASIZE PUSH1 0x4 PUSH2 0x3DA2 JUMP JUMPDEST PUSH2 0x28DB JUMP JUMPDEST PUSH2 0x45D PUSH2 0x934 CALLDATASIZE PUSH1 0x4 PUSH2 0x3A85 JUMP JUMPDEST PUSH1 0x19 PUSH1 0x20 MSTORE PUSH1 0x0 SWAP1 DUP2 MSTORE PUSH1 0x40 SWAP1 KECCAK256 SLOAD DUP2 JUMP JUMPDEST PUSH2 0x45D PUSH1 0xC SLOAD DUP2 JUMP JUMPDEST PUSH2 0x45D PUSH2 0x95D CALLDATASIZE PUSH1 0x4 PUSH2 0x3DA2 JUMP JUMPDEST PUSH1 0x0 SWAP1 DUP2 MSTORE PUSH1 0x1C PUSH1 0x20 MSTORE PUSH1 0x40 SWAP1 KECCAK256 SLOAD SWAP1 JUMP JUMPDEST PUSH2 0x45D PUSH2 0x97D CALLDATASIZE PUSH1 0x4 PUSH2 0x3DA2 JUMP JUMPDEST PUSH2 0x296C JUMP JUMPDEST PUSH2 0x4DF PUSH2 0x297C JUMP JUMPDEST PUSH2 0x45D PUSH2 0x998 CALLDATASIZE PUSH1 0x4 PUSH2 0x3DA2 JUMP JUMPDEST PUSH2 0x2A39 JUMP JUMPDEST PUSH2 0x42A PUSH2 0x9AB CALLDATASIZE PUSH1 0x4 PUSH2 0x3A9F JUMP JUMPDEST PUSH1 0x1 PUSH1 0x1 PUSH1 0xA0 SHL SUB SWAP2 DUP3 AND PUSH1 0x0 SWAP1 DUP2 MSTORE PUSH1 0x5 PUSH1 0x20 SWAP1 DUP2 MSTORE PUSH1 0x40 DUP1 DUP4 KECCAK256 SWAP4 SWAP1 SWAP5 AND DUP3 MSTORE SWAP2 SWAP1 SWAP2 MSTORE KECCAK256 SLOAD PUSH1 0xFF AND SWAP1 JUMP JUMPDEST PUSH2 0x45D PUSH2 0x9E7 CALLDATASIZE PUSH1 0x4 PUSH2 0x3DA2 JUMP JUMPDEST PUSH2 0x2ACA JUMP JUMPDEST PUSH2 0x42A PUSH2 0x9FA CALLDATASIZE PUSH1 0x4 PUSH2 0x3DA2 JUMP JUMPDEST PUSH1 0x1D PUSH1 0x20 MSTORE PUSH1 0x0 SWAP1 DUP2 MSTORE PUSH1 0x40 SWAP1 KECCAK256 SLOAD PUSH1 0xFF AND DUP2 JUMP JUMPDEST PUSH2 0x4DF PUSH2 0xA1D CALLDATASIZE PUSH1 0x4 PUSH2 0x3A85 JUMP JUMPDEST PUSH2 0x2B5B JUMP JUMPDEST PUSH2 0xAA1 PUSH2 0xA30 CALLDATASIZE PUSH1 0x4 PUSH2 0x3DA2 JUMP JUMPDEST PUSH1 0x1C PUSH1 0x20 MSTORE PUSH1 0x0 SWAP1 DUP2 MSTORE PUSH1 0x40 SWAP1 KECCAK256 DUP1 SLOAD PUSH1 0x1 DUP3 ADD SLOAD PUSH1 0x2 DUP4 ADD SLOAD PUSH1 0x3 DUP5 ADD SLOAD PUSH1 0x4 DUP6 ADD SLOAD PUSH1 0x5 DUP7 ADD SLOAD PUSH1 0x6 DUP8 ADD SLOAD PUSH1 0x7 DUP9 ADD SLOAD PUSH1 0x8 DUP10 ADD SLOAD PUSH1 0x9 DUP11 ADD SLOAD PUSH1 0xA DUP12 ADD SLOAD PUSH1 0xB DUP13 ADD SLOAD PUSH1 0xC DUP14 ADD SLOAD PUSH1 0xF SWAP1 SWAP14 ADD SLOAD SWAP12 SWAP13 SWAP11 SWAP12 SWAP10 SWAP11 SWAP9 SWAP10 SWAP8 SWAP9 SWAP7 SWAP8 PUSH1 0xFF SWAP1 SWAP7 AND SWAP7 SWAP5 SWAP6 SWAP4 SWAP5 SWAP3 SWAP4 SWAP2 SWAP3 SWAP1 SWAP2 DUP15 JUMP JUMPDEST PUSH1 0x40 DUP1 MLOAD SWAP15 DUP16 MSTORE PUSH1 0x20 DUP16 ADD SWAP14 SWAP1 SWAP14 MSTORE SWAP12 DUP14 ADD SWAP11 SWAP1 SWAP11 MSTORE PUSH1 0x60 DUP13 ADD SWAP9 SWAP1 SWAP9 MSTORE PUSH1 0x80 DUP12 ADD SWAP7 SWAP1 SWAP7 MSTORE PUSH1 0xA0 DUP11 ADD SWAP5 SWAP1 SWAP5 MSTORE SWAP2 ISZERO ISZERO PUSH1 0xC0 DUP10 ADD MSTORE PUSH1 0xE0 DUP9 ADD MSTORE PUSH2 0x100 DUP8 ADD MSTORE PUSH2 0x120 DUP7 ADD MSTORE PUSH2 0x140 DUP6 ADD MSTORE PUSH2 0x160 DUP5 ADD MSTORE PUSH2 0x180 DUP4 ADD MSTORE PUSH2 0x1A0 DUP3 ADD MSTORE PUSH2 0x1C0 ADD PUSH2 0x436 JUMP JUMPDEST PUSH2 0x42A PUSH2 0xB17 CALLDATASIZE PUSH1 0x4 PUSH2 0x3AD1 JUMP JUMPDEST PUSH1 0x1A PUSH1 0x20 SWAP1 DUP2 MSTORE PUSH1 0x0 SWAP4 DUP5 MSTORE PUSH1 0x40 DUP1 DUP6 KECCAK256 DUP3 MSTORE SWAP3 DUP5 MSTORE DUP3 DUP5 KECCAK256 SWAP1 MSTORE DUP3 MSTORE SWAP1 KECCAK256 SLOAD PUSH1 0xFF AND DUP2 JUMP JUMPDEST PUSH1 0x0 PUSH1 0x1 PUSH1 0x1 PUSH1 0xE0 SHL SUB NOT DUP3 AND PUSH4 0x780E9D63 PUSH1 0xE0 SHL EQ DUP1 PUSH2 0xB62 JUMPI POP PUSH2 0xB62 DUP3 PUSH2 0x2BF6 JUMP JUMPDEST SWAP3 SWAP2 POP POP JUMP JUMPDEST PUSH1 0x60 PUSH1 0x0 DUP1 SLOAD PUSH2 0xB77 SWAP1 PUSH2 0x4225 JUMP JUMPDEST DUP1 PUSH1 0x1F ADD PUSH1 0x20 DUP1 SWAP2 DIV MUL PUSH1 0x20 ADD PUSH1 0x40 MLOAD SWAP1 DUP2 ADD PUSH1 0x40 MSTORE DUP1 SWAP3 SWAP2 SWAP1 DUP2 DUP2 MSTORE PUSH1 0x20 ADD DUP3 DUP1 SLOAD PUSH2 0xBA3 SWAP1 PUSH2 0x4225 JUMP JUMPDEST DUP1 ISZERO PUSH2 0xBF0 JUMPI DUP1 PUSH1 0x1F LT PUSH2 0xBC5 JUMPI PUSH2 0x100 DUP1 DUP4 SLOAD DIV MUL DUP4 MSTORE SWAP2 PUSH1 0x20 ADD SWAP2 PUSH2 0xBF0 JUMP JUMPDEST DUP3 ADD SWAP2 SWAP1 PUSH1 0x0 MSTORE PUSH1 0x20 PUSH1 0x0 KECCAK256 SWAP1 JUMPDEST DUP2 SLOAD DUP2 MSTORE SWAP1 PUSH1 0x1 ADD SWAP1 PUSH1 0x20 ADD DUP1 DUP4 GT PUSH2 0xBD3 JUMPI DUP3 SWAP1 SUB PUSH1 0x1F AND DUP3 ADD SWAP2 JUMPDEST POP POP POP POP POP SWAP1 POP SWAP1 JUMP JUMPDEST PUSH1 0x0 DUP2 DUP2 MSTORE PUSH1 0x2 PUSH1 0x20 MSTORE PUSH1 0x40 DUP2 KECCAK256 SLOAD PUSH1 0x1 PUSH1 0x1 PUSH1 0xA0 SHL SUB AND PUSH2 0xC78 JUMPI PUSH1 0x40 MLOAD PUSH3 0x461BCD PUSH1 0xE5 SHL DUP2 MSTORE PUSH1 0x20 PUSH1 0x4 DUP3 ADD MSTORE PUSH1 0x2C PUSH1 0x24 DUP3 ADD MSTORE PUSH32 0x4552433732313A20617070726F76656420717565727920666F72206E6F6E6578 PUSH1 0x44 DUP3 ADD MSTORE PUSH12 0x34B9BA32B73A103A37B5B2B7 PUSH1 0xA1 SHL PUSH1 0x64 DUP3 ADD MSTORE PUSH1 0x84 ADD JUMPDEST PUSH1 0x40 MLOAD DUP1 SWAP2 SUB SWAP1 REVERT JUMPDEST POP PUSH1 0x0 SWAP1 DUP2 MSTORE PUSH1 0x4 PUSH1 0x20 MSTORE PUSH1 0x40 SWAP1 KECCAK256 SLOAD PUSH1 0x1 PUSH1 0x1 PUSH1 0xA0 SHL SUB AND SWAP1 JUMP JUMPDEST PUSH1 0xA SLOAD PUSH1 0x1 PUSH1 0x1 PUSH1 0xA0 SHL SUB AND CALLER EQ PUSH2 0xCBE JUMPI PUSH1 0x40 MLOAD PUSH3 0x461BCD PUSH1 0xE5 SHL DUP2 MSTORE PUSH1 0x4 ADD PUSH2 0xC6F SWAP1 PUSH2 0x3FE0 JUMP JUMPDEST PUSH1 0x1 PUSH1 0x1 PUSH1 0xA0 SHL SUB SWAP1 SWAP2 AND PUSH1 0x0 SWAP1 DUP2 MSTORE PUSH1 0x18 PUSH1 0x20 MSTORE PUSH1 0x40 SWAP1 KECCAK256 SSTORE JUMP JUMPDEST PUSH1 0x0 DUP2 DUP2 MSTORE PUSH1 0x1D PUSH1 0x20 MSTORE PUSH1 0x40 DUP2 KECCAK256 SLOAD PUSH1 0xFF AND ISZERO PUSH2 0xD07 JUMPI POP PUSH1 0x0 SWAP1 DUP2 MSTORE PUSH1 0x1C PUSH1 0x20 MSTORE PUSH1 0x40 SWAP1 KECCAK256 PUSH1 0xA ADD SLOAD SWAP1 JUMP JUMPDEST PUSH1 0x0 DUP3 DUP2 MSTORE PUSH1 0x1C PUSH1 0x20 MSTORE PUSH1 0x40 SWAP1 KECCAK256 PUSH1 0xC ADD SLOAD PUSH1 0x16 DUP1 SLOAD PUSH1 0x64 SWAP2 SWAP1 DUP4 SWAP1 DUP2 LT PUSH2 0xD3F JUMPI PUSH4 0x4E487B71 PUSH1 0xE0 SHL PUSH1 0x0 MSTORE PUSH1 0x32 PUSH1 0x4 MSTORE PUSH1 0x24 PUSH1 0x0 REVERT JUMPDEST SWAP1 PUSH1 0x0 MSTORE PUSH1 0x20 PUSH1 0x0 KECCAK256 ADD SLOAD PUSH1 0x1C PUSH1 0x0 DUP7 DUP2 MSTORE PUSH1 0x20 ADD SWAP1 DUP2 MSTORE PUSH1 0x20 ADD PUSH1 0x0 KECCAK256 PUSH1 0xA ADD SLOAD PUSH2 0xD6B SWAP2 SWAP1 PUSH2 0x41AC JUMP JUMPDEST PUSH2 0xD75 SWAP2 SWAP1 PUSH2 0x4198 JUMP JUMPDEST SWAP4 SWAP3 POP POP POP JUMP JUMPDEST PUSH2 0xD87 CALLER JUMPDEST DUP3 PUSH2 0x2C46 JUMP JUMPDEST PUSH2 0xDA3 JUMPI PUSH1 0x40 MLOAD PUSH3 0x461BCD PUSH1 0xE5 SHL DUP2 MSTORE PUSH1 0x4 ADD PUSH2 0xC6F SWAP1 PUSH2 0x403D JUMP JUMPDEST PUSH1 0x0 DUP2 DUP2 MSTORE PUSH1 0x1D PUSH1 0x20 MSTORE PUSH1 0x40 SWAP1 KECCAK256 SLOAD PUSH1 0xFF AND PUSH2 0xDE8 JUMPI CALLER PUSH1 0x0 SWAP1 DUP2 MSTORE PUSH1 0x17 PUSH1 0x20 MSTORE PUSH1 0x40 SWAP1 KECCAK256 SLOAD PUSH1 0xFF AND PUSH2 0xDE8 JUMPI PUSH1 0x40 MLOAD PUSH3 0x461BCD PUSH1 0xE5 SHL DUP2 MSTORE PUSH1 0x4 ADD PUSH2 0xC6F SWAP1 PUSH2 0x408E JUMP JUMPDEST PUSH2 0xE03 DUP4 DUP4 DUP4 PUSH1 0x40 MLOAD DUP1 PUSH1 0x20 ADD PUSH1 0x40 MSTORE DUP1 PUSH1 0x0 DUP2 MSTORE POP PUSH2 0x2464 JUMP JUMPDEST POP POP POP JUMP JUMPDEST CALLER PUSH1 0x0 SWAP1 DUP2 MSTORE PUSH1 0x17 PUSH1 0x20 MSTORE PUSH1 0x40 SWAP1 KECCAK256 SLOAD PUSH1 0xFF AND PUSH2 0xE37 JUMPI PUSH1 0x40 MLOAD PUSH3 0x461BCD PUSH1 0xE5 SHL DUP2 MSTORE PUSH1 0x4 ADD PUSH2 0xC6F SWAP1 PUSH2 0x408E JUMP JUMPDEST PUSH1 0x0 DUP2 DUP2 MSTORE PUSH1 0x1C PUSH1 0x20 MSTORE PUSH1 0x40 SWAP1 KECCAK256 PUSH1 0xC ADD SLOAD PUSH1 0x3 GT PUSH2 0xE88 JUMPI PUSH1 0x40 MLOAD PUSH3 0x461BCD PUSH1 0xE5 SHL DUP2 MSTORE PUSH1 0x20 PUSH1 0x4 DUP3 ADD MSTORE PUSH1 0xD PUSH1 0x24 DUP3 ADD MSTORE PUSH13 0x63616E27742075706772616465 PUSH1 0x98 SHL PUSH1 0x44 DUP3 ADD MSTORE PUSH1 0x64 ADD PUSH2 0xC6F JUMP JUMPDEST PUSH1 0x0 DUP2 DUP2 MSTORE PUSH1 0x1C PUSH1 0x20 MSTORE PUSH1 0x40 DUP2 KECCAK256 PUSH1 0xC ADD DUP1 SLOAD SWAP2 PUSH2 0xEA5 DUP4 PUSH2 0x4260 JUMP JUMPDEST SWAP1 SWAP2 SSTORE POP POP PUSH1 0x0 DUP2 DUP2 MSTORE PUSH1 0x1C PUSH1 0x20 MSTORE PUSH1 0x40 DUP2 KECCAK256 PUSH1 0x3 ADD SLOAD PUSH1 0x11 SLOAD PUSH2 0x2710 SWAP2 PUSH2 0xECC SWAP2 PUSH2 0x41AC JUMP JUMPDEST PUSH2 0xED6 SWAP2 SWAP1 PUSH2 0x4198 JUMP JUMPDEST PUSH2 0xEE0 SWAP1 TIMESTAMP PUSH2 0x4180 JUMP JUMPDEST PUSH1 0x0 DUP4 DUP2 MSTORE PUSH1 0x1C PUSH1 0x20 MSTORE PUSH1 0x40 DUP1 DUP3 KECCAK256 PUSH1 0xF ADD DUP4 SWAP1 SSTORE MLOAD SWAP2 SWAP3 POP DUP3 SWAP2 DUP5 SWAP2 PUSH32 0xC079F36D36FB34D06C2882FD7BE02C1969F2DC8CE432AD6F087F977271F53F38 SWAP2 LOG3 PUSH1 0x0 DUP3 DUP2 MSTORE PUSH1 0x1C PUSH1 0x20 MSTORE PUSH1 0x40 DUP1 DUP3 KECCAK256 PUSH1 0xC ADD SLOAD SWAP1 MLOAD SWAP1 SWAP2 DUP5 SWAP2 PUSH32 0xC345EE01E5AFBB825F5AC65A2F0F2FA781C3C3498AC6C90C8D908009B12B31D8 SWAP2 SWAP1 LOG3 POP POP JUMP JUMPDEST PUSH1 0x0 PUSH2 0xF6C DUP4 PUSH2 0x1A77 JUMP JUMPDEST DUP3 LT PUSH2 0xFCE JUMPI PUSH1 0x40 MLOAD PUSH3 0x461BCD PUSH1 0xE5 SHL DUP2 MSTORE PUSH1 0x20 PUSH1 0x4 DUP3 ADD MSTORE PUSH1 0x2B PUSH1 0x24 DUP3 ADD MSTORE PUSH32 0x455243373231456E756D657261626C653A206F776E657220696E646578206F75 PUSH1 0x44 DUP3 ADD MSTORE PUSH11 0x74206F6620626F756E6473 PUSH1 0xA8 SHL PUSH1 0x64 DUP3 ADD MSTORE PUSH1 0x84 ADD PUSH2 0xC6F JUMP JUMPDEST POP PUSH1 0x1 PUSH1 0x1 PUSH1 0xA0 SHL SUB SWAP2 SWAP1 SWAP2 AND PUSH1 0x0 SWAP1 DUP2 MSTORE PUSH1 0x6 PUSH1 0x20 SWAP1 DUP2 MSTORE PUSH1 0x40 DUP1 DUP4 KECCAK256 SWAP4 DUP4 MSTORE SWAP3 SWAP1 MSTORE KECCAK256 SLOAD SWAP1 JUMP JUMPDEST PUSH1 0xA SLOAD PUSH1 0x1 PUSH1 0x1 PUSH1 0xA0 SHL SUB AND CALLER EQ PUSH2 0x1021 JUMPI PUSH1 0x40 MLOAD PUSH3 0x461BCD PUSH1 0xE5 SHL DUP2 MSTORE PUSH1 0x4 ADD PUSH2 0xC6F SWAP1 PUSH2 0x3FE0 JUMP JUMPDEST PUSH1 0x1 PUSH1 0x1 PUSH1 0xA0 SHL SUB SWAP1 SWAP2 AND PUSH1 0x0 SWAP1 DUP2 MSTORE PUSH1 0x19 PUSH1 0x20 MSTORE PUSH1 0x40 SWAP1 KECCAK256 SSTORE JUMP JUMPDEST PUSH1 0xB DUP1 SLOAD PUSH2 0x104A SWAP1 PUSH2 0x4225 JUMP JUMPDEST DUP1 PUSH1 0x1F ADD PUSH1 0x20 DUP1 SWAP2 DIV MUL PUSH1 0x20 ADD PUSH1 0x40 MLOAD SWAP1 DUP2 ADD PUSH1 0x40 MSTORE DUP1 SWAP3 SWAP2 SWAP1 DUP2 DUP2 MSTORE PUSH1 0x20 ADD DUP3 DUP1 SLOAD PUSH2 0x1076 SWAP1 PUSH2 0x4225 JUMP JUMPDEST DUP1 ISZERO PUSH2 0x10C3 JUMPI DUP1 PUSH1 0x1F LT PUSH2 0x1098 JUMPI PUSH2 0x100 DUP1 DUP4 SLOAD DIV MUL DUP4 MSTORE SWAP2 PUSH1 0x20 ADD SWAP2 PUSH2 0x10C3 JUMP JUMPDEST DUP3 ADD SWAP2 SWAP1 PUSH1 0x0 MSTORE PUSH1 0x20 PUSH1 0x0 KECCAK256 SWAP1 JUMPDEST DUP2 SLOAD DUP2 MSTORE SWAP1 PUSH1 0x1 ADD SWAP1 PUSH1 0x20 ADD DUP1 DUP4 GT PUSH2 0x10A6 JUMPI DUP3 SWAP1 SUB PUSH1 0x1F AND DUP3 ADD SWAP2 JUMPDEST POP POP POP POP POP DUP2 JUMP JUMPDEST CALLER PUSH1 0x0 SWAP1 DUP2 MSTORE PUSH1 0x17 PUSH1 0x20 MSTORE PUSH1 0x40 SWAP1 KECCAK256 SLOAD PUSH1 0xFF AND PUSH2 0x10FA JUMPI PUSH1 0x40 MLOAD PUSH3 0x461BCD PUSH1 0xE5 SHL DUP2 MSTORE PUSH1 0x4 ADD PUSH2 0xC6F SWAP1 PUSH2 0x408E JUMP JUMPDEST PUSH1 0x0 DUP3 DUP2 MSTORE PUSH1 0x1C PUSH1 0x20 MSTORE PUSH1 0x40 DUP2 KECCAK256 PUSH1 0x5 ADD DUP1 SLOAD DUP4 SWAP3 SWAP1 PUSH2 0x111B SWAP1 DUP5 SWAP1 PUSH2 0x4180 JUMP JUMPDEST SWAP1 SWAP2 SSTORE POP POP POP POP JUMP JUMPDEST PUSH2 0x112D CALLER PUSH2 0xD81 JUMP JUMPDEST PUSH2 0x1149 JUMPI PUSH1 0x40 MLOAD PUSH3 0x461BCD PUSH1 0xE5 SHL DUP2 MSTORE PUSH1 0x4 ADD PUSH2 0xC6F SWAP1 PUSH2 0x403D JUMP JUMPDEST PUSH1 0x0 DUP2 DUP2 MSTORE PUSH1 0x1D PUSH1 0x20 MSTORE PUSH1 0x40 SWAP1 KECCAK256 SLOAD PUSH1 0xFF AND PUSH2 0x118E JUMPI CALLER PUSH1 0x0 SWAP1 DUP2 MSTORE PUSH1 0x17 PUSH1 0x20 MSTORE PUSH1 0x40 SWAP1 KECCAK256 SLOAD PUSH1 0xFF AND PUSH2 0x118E JUMPI PUSH1 0x40 MLOAD PUSH3 0x461BCD PUSH1 0xE5 SHL DUP2 MSTORE PUSH1 0x4 ADD PUSH2 0xC6F SWAP1 PUSH2 0x408E JUMP JUMPDEST PUSH2 0xE03 DUP4 DUP4 DUP4 PUSH2 0x2D3D JUMP JUMPDEST PUSH1 0x0 PUSH2 0x11A6 CALLER JUMPDEST DUP4 PUSH2 0x2C46 JUMP JUMPDEST PUSH2 0x11E7 JUMPI PUSH1 0x40 MLOAD PUSH3 0x461BCD PUSH1 0xE5 SHL DUP2 MSTORE PUSH1 0x20 PUSH1 0x4 DUP3 ADD MSTORE PUSH1 0x12 PUSH1 0x24 DUP3 ADD MSTORE PUSH18 0x313AB93732B91034B9B713BA1037BBB732B9 PUSH1 0x71 SHL PUSH1 0x44 DUP3 ADD MSTORE PUSH1 0x64 ADD PUSH2 0xC6F JUMP JUMPDEST PUSH1 0x1 PUSH1 0x12 PUSH1 0x0 DUP3 DUP3 SLOAD PUSH2 0x11FA SWAP2 SWAP1 PUSH2 0x4180 JUMP JUMPDEST SWAP1 SWAP2 SSTORE POP PUSH2 0x1209 SWAP1 POP DUP3 PUSH2 0x2EE4 JUMP JUMPDEST POP PUSH1 0x1 SWAP2 SWAP1 POP JUMP JUMPDEST PUSH1 0xA SLOAD PUSH1 0x1 PUSH1 0x1 PUSH1 0xA0 SHL SUB AND CALLER EQ PUSH2 0x123B JUMPI PUSH1 0x40 MLOAD PUSH3 0x461BCD PUSH1 0xE5 SHL DUP2 MSTORE PUSH1 0x4 ADD PUSH2 0xC6F SWAP1 PUSH2 0x3FE0 JUMP JUMPDEST PUSH1 0x1 PUSH1 0x1 PUSH1 0xA0 SHL SUB SWAP2 SWAP1 SWAP2 AND PUSH1 0x0 SWAP1 DUP2 MSTORE PUSH1 0x17 PUSH1 0x20 MSTORE PUSH1 0x40 SWAP1 KECCAK256 DUP1 SLOAD PUSH1 0xFF NOT AND SWAP2 ISZERO ISZERO SWAP2 SWAP1 SWAP2 OR SWAP1 SSTORE JUMP JUMPDEST PUSH1 0xA SLOAD PUSH1 0x1 PUSH1 0x1 PUSH1 0xA0 SHL SUB AND CALLER EQ PUSH2 0x1290 JUMPI PUSH1 0x40 MLOAD PUSH3 0x461BCD PUSH1 0xE5 SHL DUP2 MSTORE PUSH1 0x4 ADD PUSH2 0xC6F SWAP1 PUSH2 0x3FE0 JUMP JUMPDEST PUSH1 0x0 SWAP2 DUP3 MSTORE PUSH1 0x1C PUSH1 0x20 MSTORE PUSH1 0x40 SWAP1 SWAP2 KECCAK256 PUSH1 0xF ADD SSTORE JUMP JUMPDEST PUSH1 0x0 PUSH2 0x12B0 PUSH1 0x8 SLOAD SWAP1 JUMP JUMPDEST DUP3 LT PUSH2 0x1313 JUMPI PUSH1 0x40 MLOAD PUSH3 0x461BCD PUSH1 0xE5 SHL DUP2 MSTORE PUSH1 0x20 PUSH1 0x4 DUP3 ADD MSTORE PUSH1 0x2C PUSH1 0x24 DUP3 ADD MSTORE PUSH32 0x455243373231456E756D657261626C653A20676C6F62616C20696E646578206F PUSH1 0x44 DUP3 ADD MSTORE PUSH12 0x7574206F6620626F756E6473 PUSH1 0xA0 SHL PUSH1 0x64 DUP3 ADD MSTORE PUSH1 0x84 ADD PUSH2 0xC6F JUMP JUMPDEST PUSH1 0x8 DUP3 DUP2 SLOAD DUP2 LT PUSH2 0x1334 JUMPI PUSH4 0x4E487B71 PUSH1 0xE0 SHL PUSH1 0x0 MSTORE PUSH1 0x32 PUSH1 0x4 MSTORE PUSH1 0x24 PUSH1 0x0 REVERT JUMPDEST SWAP1 PUSH1 0x0 MSTORE PUSH1 0x20 PUSH1 0x0 KECCAK256 ADD SLOAD SWAP1 POP SWAP2 SWAP1 POP JUMP JUMPDEST PUSH1 0xA SLOAD PUSH1 0x1 PUSH1 0x1 PUSH1 0xA0 SHL SUB AND CALLER EQ PUSH2 0x1370 JUMPI PUSH1 0x40 MLOAD PUSH3 0x461BCD PUSH1 0xE5 SHL DUP2 MSTORE PUSH1 0x4 ADD PUSH2 0xC6F SWAP1 PUSH2 0x3FE0 JUMP JUMPDEST DUP1 MLOAD PUSH2 0x1383 SWAP1 PUSH1 0xB SWAP1 PUSH1 0x20 DUP5 ADD SWAP1 PUSH2 0x38F7 JUMP JUMPDEST POP POP JUMP JUMPDEST PUSH2 0x138F PUSH2 0x3977 JUMP JUMPDEST PUSH1 0x0 DUP3 DUP2 MSTORE PUSH1 0x1C PUSH1 0x20 MSTORE PUSH1 0x40 SWAP1 DUP2 SWAP1 KECCAK256 DUP2 MLOAD DUP1 DUP4 ADD SWAP1 SWAP3 MSTORE PUSH1 0xD ADD PUSH1 0x2 DUP3 DUP3 DUP3 PUSH1 0x20 MUL DUP3 ADD SWAP2 JUMPDEST DUP2 SLOAD DUP2 MSTORE PUSH1 0x20 ADD SWAP1 PUSH1 0x1 ADD SWAP1 DUP1 DUP4 GT PUSH2 0x13B6 JUMPI POP POP POP POP POP SWAP1 POP SWAP2 SWAP1 POP JUMP JUMPDEST CALLER PUSH1 0x0 SWAP1 DUP2 MSTORE PUSH1 0x17 PUSH1 0x20 MSTORE PUSH1 0x40 SWAP1 KECCAK256 SLOAD PUSH1 0xFF AND PUSH2 0x1404 JUMPI PUSH1 0x40 MLOAD PUSH3 0x461BCD PUSH1 0xE5 SHL DUP2 MSTORE PUSH1 0x4 ADD PUSH2 0xC6F SWAP1 PUSH2 0x408E JUMP JUMPDEST PUSH1 0x0 DUP3 DUP2 MSTORE PUSH1 0x1C PUSH1 0x20 MSTORE PUSH1 0x40 SWAP1 KECCAK256 PUSH1 0x1 ADD SLOAD PUSH2 0x1456 JUMPI PUSH1 0x40 MLOAD PUSH3 0x461BCD PUSH1 0xE5 SHL DUP2 MSTORE PUSH1 0x20 PUSH1 0x4 DUP3 ADD MSTORE PUSH1 0x11 PUSH1 0x24 DUP3 ADD MSTORE PUSH17 0x3737B732BC34B9BA32B73A103A37B5B2B7 PUSH1 0x79 SHL PUSH1 0x44 DUP3 ADD MSTORE PUSH1 0x64 ADD PUSH2 0xC6F JUMP JUMPDEST PUSH1 0x0 DUP3 DUP2 MSTORE PUSH1 0x1D PUSH1 0x20 MSTORE PUSH1 0x40 SWAP1 KECCAK256 SLOAD PUSH1 0xFF AND ISZERO PUSH2 0x14B5 JUMPI PUSH1 0x40 MLOAD PUSH3 0x461BCD PUSH1 0xE5 SHL DUP2 MSTORE PUSH1 0x20 PUSH1 0x4 DUP3 ADD MSTORE PUSH1 0x1B PUSH1 0x24 DUP3 ADD MSTORE PUSH32 0x63616E206E6F7420616464206372656174696F6E20436174746C650000000000 PUSH1 0x44 DUP3 ADD MSTORE PUSH1 0x64 ADD PUSH2 0xC6F JUMP JUMPDEST PUSH1 0x0 DUP3 DUP2 MSTORE PUSH1 0x1C PUSH1 0x20 MSTORE PUSH1 0x40 DUP2 KECCAK256 PUSH1 0xF ADD DUP1 SLOAD DUP4 SWAP3 SWAP1 PUSH2 0x14D6 SWAP1 DUP5 SWAP1 PUSH2 0x4180 JUMP JUMPDEST SWAP1 SWAP2 SSTORE POP POP PUSH1 0x0 DUP3 DUP2 MSTORE PUSH1 0x1C PUSH1 0x20 MSTORE PUSH1 0x40 DUP1 DUP3 KECCAK256 PUSH1 0xF ADD SLOAD SWAP1 MLOAD SWAP1 SWAP2 DUP5 SWAP2 PUSH32 0xC079F36D36FB34D06C2882FD7BE02C1969F2DC8CE432AD6F087F977271F53F38 SWAP2 SWAP1 LOG3 POP POP JUMP JUMPDEST PUSH1 0x60 PUSH1 0x0 PUSH2 0x1529 DUP4 PUSH2 0x1A77 JUMP JUMPDEST SWAP1 POP PUSH1 0x0 DUP2 PUSH8 0xFFFFFFFFFFFFFFFF DUP2 GT ISZERO PUSH2 0x1554 JUMPI PUSH4 0x4E487B71 PUSH1 0xE0 SHL PUSH1 0x0 MSTORE PUSH1 0x41 PUSH1 0x4 MSTORE PUSH1 0x24 PUSH1 0x0 REVERT JUMPDEST PUSH1 0x40 MLOAD SWAP1 DUP1 DUP3 MSTORE DUP1 PUSH1 0x20 MUL PUSH1 0x20 ADD DUP3 ADD PUSH1 0x40 MSTORE DUP1 ISZERO PUSH2 0x157D JUMPI DUP2 PUSH1 0x20 ADD PUSH1 0x20 DUP3 MUL DUP1 CALLDATASIZE DUP4 CALLDATACOPY ADD SWAP1 POP JUMPDEST POP SWAP1 POP PUSH1 0x0 DUP1 JUMPDEST DUP4 DUP2 LT ISZERO PUSH2 0x15D6 JUMPI PUSH2 0x1596 DUP7 DUP3 PUSH2 0xF61 JUMP JUMPDEST SWAP2 POP DUP2 DUP4 DUP3 DUP2 MLOAD DUP2 LT PUSH2 0x15B9 JUMPI PUSH4 0x4E487B71 PUSH1 0xE0 SHL PUSH1 0x0 MSTORE PUSH1 0x32 PUSH1 0x4 MSTORE PUSH1 0x24 PUSH1 0x0 REVERT JUMPDEST PUSH1 0x20 SWAP1 DUP2 MUL SWAP2 SWAP1 SWAP2 ADD ADD MSTORE DUP1 PUSH2 0x15CE DUP2 PUSH2 0x4260 JUMP JUMPDEST SWAP2 POP POP PUSH2 0x1584 JUMP JUMPDEST POP SWAP1 SWAP5 SWAP4 POP POP POP POP JUMP JUMPDEST PUSH1 0x0 DUP2 DUP2 MSTORE PUSH1 0x2 PUSH1 0x20 MSTORE PUSH1 0x40 DUP2 KECCAK256 SLOAD PUSH1 0x1 PUSH1 0x1 PUSH1 0xA0 SHL SUB AND DUP1 PUSH2 0xB62 JUMPI PUSH1 0x40 MLOAD PUSH3 0x461BCD PUSH1 0xE5 SHL DUP2 MSTORE PUSH1 0x20 PUSH1 0x4 DUP3 ADD MSTORE PUSH1 0x29 PUSH1 0x24 DUP3 ADD MSTORE PUSH32 0x4552433732313A206F776E657220717565727920666F72206E6F6E6578697374 PUSH1 0x44 DUP3 ADD MSTORE PUSH9 0x32B73A103A37B5B2B7 PUSH1 0xB9 SHL PUSH1 0x64 DUP3 ADD MSTORE PUSH1 0x84 ADD PUSH2 0xC6F JUMP JUMPDEST PUSH2 0x1663 DUP2 PUSH1 0xC SLOAD PUSH2 0x2F8B JUMP JUMPDEST PUSH1 0xD SLOAD PUSH1 0x1 PUSH1 0x1 PUSH1 0xA0 SHL SUB AND CALLER PUSH1 0x1 PUSH1 0x1 PUSH1 0xA0 SHL SUB AND EQ PUSH2 0x16D0 JUMPI CALLER PUSH1 0x0 SWAP1 DUP2 MSTORE PUSH1 0x19 PUSH1 0x20 MSTORE PUSH1 0x40 SWAP1 KECCAK256 SLOAD PUSH2 0x16AA JUMPI PUSH1 0x40 MLOAD PUSH3 0x461BCD PUSH1 0xE5 SHL DUP2 MSTORE PUSH1 0x4 ADD PUSH2 0xC6F SWAP1 PUSH2 0x4015 JUMP JUMPDEST CALLER PUSH1 0x0 SWAP1 DUP2 MSTORE PUSH1 0x19 PUSH1 0x20 MSTORE PUSH1 0x40 DUP2 KECCAK256 DUP1 SLOAD PUSH1 0x1 SWAP3 SWAP1 PUSH2 0x16CA SWAP1 DUP5 SWAP1 PUSH2 0x41CB JUMP JUMPDEST SWAP1 SWAP2 SSTORE POP POP JUMPDEST PUSH2 0x16D8 PUSH2 0x30D9 JUMP JUMPDEST PUSH1 0xC SLOAD PUSH1 0x0 SWAP1 DUP2 MSTORE PUSH1 0x1C PUSH1 0x20 MSTORE PUSH1 0x40 SWAP1 KECCAK256 SSTORE PUSH2 0x16F5 PUSH2 0xFA0 PUSH2 0x313B JUMP JUMPDEST PUSH2 0x1701 SWAP1 PUSH2 0x1F40 PUSH2 0x4180 JUMP JUMPDEST PUSH1 0xC DUP1 SLOAD PUSH1 0x0 SWAP1 DUP2 MSTORE PUSH1 0x1C PUSH1 0x20 MSTORE PUSH1 0x40 DUP1 DUP3 KECCAK256 PUSH1 0x3 ADD SWAP4 SWAP1 SWAP4 SSTORE SWAP1 SLOAD DUP2 MSTORE KECCAK256 TIMESTAMP PUSH1 0x1 SWAP1 SWAP2 ADD SSTORE PUSH2 0x1732 PUSH2 0xFA0 PUSH2 0x313B JUMP JUMPDEST PUSH2 0x173E SWAP1 PUSH2 0x1F40 PUSH2 0x4180 JUMP JUMPDEST PUSH1 0xC SLOAD PUSH1 0x0 SWAP1 DUP2 MSTORE PUSH1 0x1C PUSH1 0x20 MSTORE PUSH1 0x40 SWAP1 KECCAK256 PUSH1 0x2 ADD SSTORE PUSH2 0x175E PUSH2 0xFA0 PUSH2 0x313B JUMP JUMPDEST PUSH2 0x176A SWAP1 PUSH2 0x1F40 PUSH2 0x4180 JUMP JUMPDEST PUSH1 0xC DUP1 SLOAD PUSH1 0x0 SWAP1 DUP2 MSTORE PUSH1 0x1C PUSH1 0x20 MSTORE PUSH1 0x40 DUP1 DUP3 KECCAK256 PUSH1 0x4 ADD SWAP4 SWAP1 SWAP4 SSTORE SWAP1 SLOAD DUP2 MSTORE KECCAK256 PUSH1 0x6 ADD DUP1 SLOAD PUSH1 0xFF NOT AND PUSH1 0x1 OR SWAP1 SSTORE PUSH2 0x17A6 TIMESTAMP PUSH5 0x73DF16000 PUSH2 0x4180 JUMP JUMPDEST PUSH1 0xC DUP1 SLOAD PUSH1 0x0 SWAP1 DUP2 MSTORE PUSH1 0x1C PUSH1 0x20 MSTORE PUSH1 0x40 DUP1 DUP3 KECCAK256 PUSH1 0xF ADD SWAP4 SWAP1 SWAP4 SSTORE SWAP1 SLOAD DUP2 MSTORE KECCAK256 SLOAD PUSH1 0x1 EQ ISZERO PUSH2 0x191C JUMPI PUSH2 0x17D9 PUSH2 0xFA0 PUSH2 0x313B JUMP JUMPDEST PUSH2 0x17E5 SWAP1 PUSH2 0x1F40 PUSH2 0x4180 JUMP JUMPDEST PUSH1 0xC SLOAD PUSH1 0x0 SWAP1 DUP2 MSTORE PUSH1 0x1C PUSH1 0x20 MSTORE PUSH1 0x40 SWAP1 KECCAK256 PUSH1 0x7 ADD SSTORE PUSH2 0x1805 PUSH2 0xFA0 PUSH2 0x313B JUMP JUMPDEST PUSH2 0x1811 SWAP1 PUSH2 0x1F40 PUSH2 0x4180 JUMP JUMPDEST PUSH1 0xC SLOAD PUSH1 0x0 SWAP1 DUP2 MSTORE PUSH1 0x1C PUSH1 0x20 MSTORE PUSH1 0x40 SWAP1 KECCAK256 PUSH1 0x8 ADD SSTORE PUSH2 0x1831 PUSH2 0xFA0 PUSH2 0x313B JUMP JUMPDEST PUSH2 0x183D SWAP1 PUSH2 0x1F40 PUSH2 0x4180 JUMP JUMPDEST PUSH1 0xC SLOAD PUSH1 0x0 SWAP1 DUP2 MSTORE PUSH1 0x1C PUSH1 0x20 MSTORE PUSH1 0x40 DUP2 KECCAK256 PUSH1 0x9 ADD SWAP2 SWAP1 SWAP2 SSTORE PUSH1 0x13 DUP1 SLOAD SWAP2 PUSH2 0x1863 DUP4 PUSH2 0x4260 JUMP JUMPDEST SWAP1 SWAP2 SSTORE POP POP PUSH1 0x13 SLOAD PUSH1 0xC DUP1 SLOAD PUSH1 0x0 SWAP1 DUP2 MSTORE PUSH1 0x1F PUSH1 0x20 SWAP1 DUP2 MSTORE PUSH1 0x40 DUP1 DUP4 KECCAK256 DUP6 SWAP1 SSTORE SWAP3 SLOAD DUP1 DUP4 MSTORE PUSH1 0x1C DUP3 MSTORE SWAP2 DUP4 SWAP1 KECCAK256 PUSH1 0x3 DUP2 ADD SLOAD PUSH1 0x2 DUP3 ADD SLOAD PUSH1 0x4 DUP4 ADD SLOAD PUSH1 0xF DUP5 ADD SLOAD PUSH1 0x7 DUP6 ADD SLOAD PUSH1 0x9 DUP7 ADD SLOAD PUSH1 0x8 SWAP1 SWAP7 ADD SLOAD DUP10 MLOAD SWAP6 DUP7 MSTORE SWAP7 DUP6 ADD SWAP4 SWAP1 SWAP4 MSTORE SWAP7 DUP4 ADD MSTORE PUSH1 0x60 DUP3 ADD SWAP6 SWAP1 SWAP6 MSTORE PUSH1 0x80 DUP2 ADD SWAP5 SWAP1 SWAP5 MSTORE PUSH1 0xA0 DUP5 ADD MSTORE PUSH1 0xC0 DUP4 ADD MSTORE SWAP1 PUSH1 0x1 PUSH1 0x1 PUSH1 0xA0 SHL SUB DUP5 AND SWAP1 PUSH32 0x6CADEDE40797B8DD19173BFB548D15376B7A853D2D84DC523423B656731DEAF5 SWAP1 PUSH1 0xE0 ADD PUSH1 0x40 MLOAD DUP1 SWAP2 SUB SWAP1 LOG4 PUSH2 0x1A30 JUMP JUMPDEST PUSH2 0x1927 PUSH2 0xFA0 PUSH2 0x313B JUMP JUMPDEST PUSH2 0x1933 SWAP1 PUSH2 0x1F40 PUSH2 0x4180 JUMP JUMPDEST PUSH1 0xC SLOAD PUSH1 0x0 SWAP1 DUP2 MSTORE PUSH1 0x1C PUSH1 0x20 MSTORE PUSH1 0x40 SWAP1 KECCAK256 PUSH1 0xA ADD SSTORE PUSH2 0x1953 PUSH2 0xFA0 PUSH2 0x313B JUMP JUMPDEST PUSH2 0x195F SWAP1 PUSH2 0x1F40 PUSH2 0x4180 JUMP JUMPDEST PUSH1 0xC SLOAD PUSH1 0x0 SWAP1 DUP2 MSTORE PUSH1 0x1C PUSH1 0x20 MSTORE PUSH1 0x40 DUP2 KECCAK256 PUSH1 0xB ADD SWAP2 SWAP1 SWAP2 SSTORE PUSH1 0x14 DUP1 SLOAD SWAP2 PUSH2 0x1985 DUP4 PUSH2 0x4260 JUMP JUMPDEST SWAP1 SWAP2 SSTORE POP POP PUSH1 0x14 SLOAD PUSH1 0xC DUP1 SLOAD PUSH1 0x0 SWAP1 DUP2 MSTORE PUSH1 0x1F PUSH1 0x20 SWAP1 DUP2 MSTORE PUSH1 0x40 DUP1 DUP4 KECCAK256 DUP6 SWAP1 SSTORE SWAP3 SLOAD DUP1 DUP4 MSTORE PUSH1 0x1C DUP3 MSTORE SWAP2 DUP4 SWAP1 KECCAK256 PUSH1 0x3 DUP2 ADD SLOAD PUSH1 0x2 DUP3 ADD SLOAD PUSH1 0x4 DUP4 ADD SLOAD PUSH1 0xF DUP5 ADD SLOAD PUSH1 0xA DUP6 ADD SLOAD PUSH1 0xB SWAP1 SWAP6 ADD SLOAD DUP9 MLOAD SWAP5 DUP6 MSTORE SWAP6 DUP5 ADD SWAP3 SWAP1 SWAP3 MSTORE SWAP6 DUP3 ADD SWAP6 SWAP1 SWAP6 MSTORE PUSH1 0x60 DUP2 ADD SWAP5 SWAP1 SWAP5 MSTORE PUSH1 0x80 DUP5 ADD MSTORE PUSH1 0xA0 DUP4 ADD MSTORE SWAP1 PUSH1 0x1 PUSH1 0x1 PUSH1 0xA0 SHL SUB DUP5 AND SWAP1 PUSH32 0x3BE0CC335618ACB20037383E05A5F336F1E6AA524C959AD29D1B91CF64772BC0 SWAP1 PUSH1 0xC0 ADD PUSH1 0x40 MLOAD DUP1 SWAP2 SUB SWAP1 LOG4 JUMPDEST PUSH1 0xC SLOAD PUSH1 0x0 SWAP1 DUP2 MSTORE PUSH1 0x1D PUSH1 0x20 MSTORE PUSH1 0x40 DUP2 KECCAK256 DUP1 SLOAD PUSH1 0xFF NOT AND PUSH1 0x1 OR SWAP1 SSTORE PUSH1 0x1E DUP1 SLOAD SWAP2 PUSH2 0x1A5A DUP4 PUSH2 0x4260 JUMP JUMPDEST SWAP1 SWAP2 SSTORE POP POP PUSH1 0xC DUP1 SLOAD SWAP1 PUSH1 0x0 PUSH2 0x1A6F DUP4 PUSH2 0x4260 JUMP JUMPDEST SWAP2 SWAP1 POP SSTORE POP POP JUMP JUMPDEST PUSH1 0x0 PUSH1 0x1 PUSH1 0x1 PUSH1 0xA0 SHL SUB DUP3 AND PUSH2 0x1AE2 JUMPI PUSH1 0x40 MLOAD PUSH3 0x461BCD PUSH1 0xE5 SHL DUP2 MSTORE PUSH1 0x20 PUSH1 0x4 DUP3 ADD MSTORE PUSH1 0x2A PUSH1 0x24 DUP3 ADD MSTORE PUSH32 0x4552433732313A2062616C616E636520717565727920666F7220746865207A65 PUSH1 0x44 DUP3 ADD MSTORE PUSH10 0x726F2061646472657373 PUSH1 0xB0 SHL PUSH1 0x64 DUP3 ADD MSTORE PUSH1 0x84 ADD PUSH2 0xC6F JUMP JUMPDEST POP PUSH1 0x1 PUSH1 0x1 PUSH1 0xA0 SHL SUB AND PUSH1 0x0 SWAP1 DUP2 MSTORE PUSH1 0x3 PUSH1 0x20 MSTORE PUSH1 0x40 SWAP1 KECCAK256 SLOAD SWAP1 JUMP JUMPDEST PUSH1 0xA SLOAD PUSH1 0x1 PUSH1 0x1 PUSH1 0xA0 SHL SUB AND CALLER EQ PUSH2 0x1B28 JUMPI PUSH1 0x40 MLOAD PUSH3 0x461BCD PUSH1 0xE5 SHL DUP2 MSTORE PUSH1 0x4 ADD PUSH2 0xC6F SWAP1 PUSH2 0x3FE0 JUMP JUMPDEST PUSH2 0x1B32 PUSH1 0x0 PUSH2 0x31AB JUMP JUMPDEST JUMP JUMPDEST PUSH1 0xA SLOAD PUSH1 0x1 PUSH1 0x1 PUSH1 0xA0 SHL SUB AND CALLER EQ PUSH2 0x1B5E JUMPI PUSH1 0x40 MLOAD PUSH3 0x461BCD PUSH1 0xE5 SHL DUP2 MSTORE PUSH1 0x4 ADD PUSH2 0xC6F SWAP1 PUSH2 0x3FE0 JUMP JUMPDEST PUSH1 0xE SWAP2 SWAP1 SWAP2 SSTORE PUSH1 0xF SSTORE JUMP JUMPDEST PUSH1 0xA SLOAD PUSH1 0x1 PUSH1 0x1 PUSH1 0xA0 SHL SUB AND CALLER EQ PUSH2 0x1B93 JUMPI PUSH1 0x40 MLOAD PUSH3 0x461BCD PUSH1 0xE5 SHL DUP2 MSTORE PUSH1 0x4 ADD PUSH2 0xC6F SWAP1 PUSH2 0x3FE0 JUMP JUMPDEST CALLER SELFDESTRUCT JUMPDEST CALLER PUSH1 0x0 SWAP1 DUP2 MSTORE PUSH1 0x17 PUSH1 0x20 MSTORE PUSH1 0x40 SWAP1 KECCAK256 SLOAD PUSH1 0xFF AND PUSH2 0x1BC5 JUMPI PUSH1 0x40 MLOAD PUSH3 0x461BCD PUSH1 0xE5 SHL DUP2 MSTORE PUSH1 0x4 ADD PUSH2 0xC6F SWAP1 PUSH2 0x408E JUMP JUMPDEST PUSH1 0x0 DUP2 DUP2 MSTORE PUSH1 0x1D PUSH1 0x20 MSTORE PUSH1 0x40 SWAP1 KECCAK256 SLOAD PUSH1 0xFF AND ISZERO PUSH2 0x1C1C JUMPI PUSH1 0x40 MLOAD PUSH3 0x461BCD PUSH1 0xE5 SHL DUP2 MSTORE PUSH1 0x20 PUSH1 0x4 DUP3 ADD MSTORE PUSH1 0x15 PUSH1 0x24 DUP3 ADD MSTORE PUSH21 0x6372656174696F6E2063616E206E6F742067726F77 PUSH1 0x58 SHL PUSH1 0x44 DUP3 ADD MSTORE PUSH1 0x64 ADD PUSH2 0xC6F JUMP JUMPDEST PUSH1 0x0 DUP2 DUP2 MSTORE PUSH1 0x1C PUSH1 0x20 MSTORE PUSH1 0x40 SWAP1 KECCAK256 PUSH1 0x6 ADD SLOAD PUSH1 0xFF AND ISZERO PUSH2 0x1C6E JUMPI PUSH1 0x40 MLOAD PUSH3 0x461BCD PUSH1 0xE5 SHL DUP2 MSTORE PUSH1 0x20 PUSH1 0x4 DUP3 ADD MSTORE PUSH1 0xD PUSH1 0x24 DUP3 ADD MSTORE PUSH13 0x6164756C742069732074727565 PUSH1 0x98 SHL PUSH1 0x44 DUP3 ADD MSTORE PUSH1 0x64 ADD PUSH2 0xC6F JUMP JUMPDEST PUSH1 0x0 DUP2 DUP2 MSTORE PUSH1 0x1C PUSH1 0x20 MSTORE PUSH1 0x40 DUP1 DUP3 KECCAK256 PUSH1 0x6 ADD DUP1 SLOAD PUSH1 0xFF NOT AND PUSH1 0x1 OR SWAP1 SSTORE MLOAD DUP3 SWAP2 PUSH32 0x27308BE09B242076A36EF5C74033829078220C467A50C92F69ADF8C8F93F1F65 SWAP2 LOG2 POP JUMP JUMPDEST PUSH1 0x0 DUP2 DUP2 MSTORE PUSH1 0x1D PUSH1 0x20 MSTORE PUSH1 0x40 DUP2 KECCAK256 SLOAD PUSH1 0xFF AND ISZERO PUSH2 0x1CE1 JUMPI POP PUSH1 0x0 SWAP1 DUP2 MSTORE PUSH1 0x1C PUSH1 0x20 MSTORE PUSH1 0x40 SWAP1 KECCAK256 PUSH1 0xB ADD SLOAD SWAP1 JUMP JUMPDEST PUSH1 0x0 DUP3 DUP2 MSTORE PUSH1 0x1C PUSH1 0x20 MSTORE PUSH1 0x40 SWAP1 KECCAK256 PUSH1 0xC ADD SLOAD PUSH1 0x16 DUP1 SLOAD PUSH1 0x64 SWAP2 SWAP1 DUP4 SWAP1 DUP2 LT PUSH2 0x1D19 JUMPI PUSH4 0x4E487B71 PUSH1 0xE0 SHL PUSH1 0x0 MSTORE PUSH1 0x32 PUSH1 0x4 MSTORE PUSH1 0x24 PUSH1 0x0 REVERT JUMPDEST SWAP1 PUSH1 0x0 MSTORE PUSH1 0x20 PUSH1 0x0 KECCAK256 ADD SLOAD PUSH1 0x1C PUSH1 0x0 DUP7 DUP2 MSTORE PUSH1 0x20 ADD SWAP1 DUP2 MSTORE PUSH1 0x20 ADD PUSH1 0x0 KECCAK256 PUSH1 0xB ADD SLOAD PUSH2 0xD6B SWAP2 SWAP1 PUSH2 0x41AC JUMP JUMPDEST PUSH1 0x60 PUSH1 0x1 DUP1 SLOAD PUSH2 0xB77 SWAP1 PUSH2 0x4225 JUMP JUMPDEST PUSH1 0x60 PUSH1 0x0 PUSH2 0x1D61 DUP5 PUSH2 0x1A77 JUMP JUMPDEST SWAP1 POP PUSH1 0x0 DUP1 PUSH1 0x0 JUMPDEST DUP4 DUP2 LT ISZERO PUSH2 0x1DED JUMPI PUSH2 0x1D7B DUP8 DUP3 PUSH2 0xF61 JUMP JUMPDEST SWAP3 POP DUP6 DUP1 ISZERO PUSH2 0x1D98 JUMPI POP PUSH1 0x0 DUP4 DUP2 MSTORE PUSH1 0x1D PUSH1 0x20 MSTORE PUSH1 0x40 SWAP1 KECCAK256 SLOAD PUSH1 0xFF AND JUMPDEST ISZERO PUSH2 0x1DAB JUMPI DUP2 PUSH2 0x1DA7 DUP2 PUSH2 0x4260 JUMP JUMPDEST SWAP3 POP POP JUMPDEST DUP6 ISZERO DUP1 ISZERO PUSH2 0x1DC8 JUMPI POP PUSH1 0x0 DUP4 DUP2 MSTORE PUSH1 0x1D PUSH1 0x20 MSTORE PUSH1 0x40 SWAP1 KECCAK256 SLOAD PUSH1 0xFF AND ISZERO JUMPDEST ISZERO PUSH2 0x1DDB JUMPI DUP2 PUSH2 0x1DD7 DUP2 PUSH2 0x4260 JUMP JUMPDEST SWAP3 POP POP JUMPDEST DUP1 PUSH2 0x1DE5 DUP2 PUSH2 0x4260 JUMP JUMPDEST SWAP2 POP POP PUSH2 0x1D69 JUMP JUMPDEST POP PUSH1 0x0 DUP2 PUSH8 0xFFFFFFFFFFFFFFFF DUP2 GT ISZERO PUSH2 0x1E17 JUMPI PUSH4 0x4E487B71 PUSH1 0xE0 SHL PUSH1 0x0 MSTORE PUSH1 0x41 PUSH1 0x4 MSTORE PUSH1 0x24 PUSH1 0x0 REVERT JUMPDEST PUSH1 0x40 MLOAD SWAP1 DUP1 DUP3 MSTORE DUP1 PUSH1 0x20 MUL PUSH1 0x20 ADD DUP3 ADD PUSH1 0x40 MSTORE DUP1 ISZERO PUSH2 0x1E40 JUMPI DUP2 PUSH1 0x20 ADD PUSH1 0x20 DUP3 MUL DUP1 CALLDATASIZE DUP4 CALLDATACOPY ADD SWAP1 POP JUMPDEST POP SWAP1 POP PUSH1 0x0 DUP1 JUMPDEST DUP6 DUP2 LT ISZERO PUSH2 0x1F23 JUMPI PUSH2 0x1E59 DUP10 DUP3 PUSH2 0xF61 JUMP JUMPDEST SWAP5 POP DUP8 DUP1 ISZERO PUSH2 0x1E76 JUMPI POP PUSH1 0x0 DUP6 DUP2 MSTORE PUSH1 0x1D PUSH1 0x20 MSTORE PUSH1 0x40 SWAP1 KECCAK256 SLOAD PUSH1 0xFF AND JUMPDEST ISZERO PUSH2 0x1EB5 JUMPI DUP5 DUP4 DUP4 DUP2 MLOAD DUP2 LT PUSH2 0x1E9C JUMPI PUSH4 0x4E487B71 PUSH1 0xE0 SHL PUSH1 0x0 MSTORE PUSH1 0x32 PUSH1 0x4 MSTORE PUSH1 0x24 PUSH1 0x0 REVERT JUMPDEST PUSH1 0x20 SWAP1 DUP2 MUL SWAP2 SWAP1 SWAP2 ADD ADD MSTORE DUP2 PUSH2 0x1EB1 DUP2 PUSH2 0x4260 JUMP JUMPDEST SWAP3 POP POP JUMPDEST DUP8 ISZERO DUP1 ISZERO PUSH2 0x1ED2 JUMPI POP PUSH1 0x0 DUP6 DUP2 MSTORE PUSH1 0x1D PUSH1 0x20 MSTORE PUSH1 0x40 SWAP1 KECCAK256 SLOAD PUSH1 0xFF AND ISZERO JUMPDEST ISZERO PUSH2 0x1F11 JUMPI DUP5 DUP4 DUP4 DUP2 MLOAD DUP2 LT PUSH2 0x1EF8 JUMPI PUSH4 0x4E487B71 PUSH1 0xE0 SHL PUSH1 0x0 MSTORE PUSH1 0x32 PUSH1 0x4 MSTORE PUSH1 0x24 PUSH1 0x0 REVERT JUMPDEST PUSH1 0x20 SWAP1 DUP2 MUL SWAP2 SWAP1 SWAP2 ADD ADD MSTORE DUP2 PUSH2 0x1F0D DUP2 PUSH2 0x4260 JUMP JUMPDEST SWAP3 POP POP JUMPDEST DUP1 PUSH2 0x1F1B DUP2 PUSH2 0x4260 JUMP JUMPDEST SWAP2 POP POP PUSH2 0x1E47 JUMP JUMPDEST POP SWAP1 SWAP8 SWAP7 POP POP POP POP POP POP POP JUMP JUMPDEST PUSH2 0x1383 CALLER DUP4 DUP4 PUSH2 0x31FD JUMP JUMPDEST PUSH1 0xA SLOAD PUSH1 0x1 PUSH1 0x1 PUSH1 0xA0 SHL SUB AND CALLER EQ PUSH2 0x1F65 JUMPI PUSH1 0x40 MLOAD PUSH3 0x461BCD PUSH1 0xE5 SHL DUP2 MSTORE PUSH1 0x4 ADD PUSH2 0xC6F SWAP1 PUSH2 0x3FE0 JUMP JUMPDEST DUP1 MLOAD PUSH2 0x1383 SWAP1 PUSH1 0x15 SWAP1 PUSH1 0x20 DUP5 ADD SWAP1 PUSH2 0x3995 JUMP JUMPDEST PUSH1 0xC SLOAD DUP2 MLOAD PUSH1 0x0 SWAP1 DUP2 MSTORE PUSH1 0x1C PUSH1 0x20 MSTORE PUSH1 0x40 SWAP1 KECCAK256 SLOAD PUSH1 0x1 EQ DUP1 ISZERO PUSH2 0x1FAF JUMPI POP PUSH1 0x20 DUP1 DUP4 ADD MLOAD PUSH1 0x0 SWAP1 DUP2 MSTORE PUSH1 0x1C SWAP1 SWAP2 MSTORE PUSH1 0x40 SWAP1 KECCAK256 SLOAD PUSH1 0x2 EQ JUMPDEST PUSH2 0x1FEB JUMPI PUSH1 0x40 MLOAD PUSH3 0x461BCD PUSH1 0xE5 SHL DUP2 MSTORE PUSH1 0x20 PUSH1 0x4 DUP3 ADD MSTORE PUSH1 0xD PUSH1 0x24 DUP3 ADD MSTORE PUSH13 0x77726F6E6720706172656E7473 PUSH1 0x98 SHL PUSH1 0x44 DUP3 ADD MSTORE PUSH1 0x64 ADD PUSH2 0xC6F JUMP JUMPDEST PUSH1 0xD SLOAD PUSH1 0x1 PUSH1 0x1 PUSH1 0xA0 SHL SUB AND CALLER PUSH1 0x1 PUSH1 0x1 PUSH1 0xA0 SHL SUB AND EQ PUSH2 0x2058 JUMPI CALLER PUSH1 0x0 SWAP1 DUP2 MSTORE PUSH1 0x18 PUSH1 0x20 MSTORE PUSH1 0x40 SWAP1 KECCAK256 SLOAD PUSH2 0x2032 JUMPI PUSH1 0x40 MLOAD PUSH3 0x461BCD PUSH1 0xE5 SHL DUP2 MSTORE PUSH1 0x4 ADD PUSH2 0xC6F SWAP1 PUSH2 0x4015 JUMP JUMPDEST CALLER PUSH1 0x0 SWAP1 DUP2 MSTORE PUSH1 0x18 PUSH1 0x20 MSTORE PUSH1 0x40 DUP2 KECCAK256 DUP1 SLOAD PUSH1 0x1 SWAP3 SWAP1 PUSH2 0x2052 SWAP1 DUP5 SWAP1 PUSH2 0x41CB JUMP JUMPDEST SWAP1 SWAP2 SSTORE POP POP JUMPDEST DUP2 MLOAD PUSH1 0x0 SWAP1 DUP2 MSTORE PUSH1 0x1C PUSH1 0x20 SWAP1 DUP2 MSTORE PUSH1 0x40 DUP1 DUP4 KECCAK256 SWAP2 DUP6 ADD MLOAD DUP4 MSTORE SWAP1 SWAP2 KECCAK256 PUSH2 0x207E PUSH1 0x2 PUSH2 0x313B JUMP JUMPDEST PUSH1 0xC SLOAD PUSH1 0x0 SWAP1 DUP2 MSTORE PUSH1 0x1C PUSH1 0x20 MSTORE PUSH1 0x40 SWAP1 KECCAK256 SSTORE PUSH1 0x3 DUP1 DUP3 ADD SLOAD SWAP1 DUP4 ADD SLOAD PUSH2 0x20BA SWAP2 PUSH1 0x2 SWAP2 PUSH2 0x20AB SWAP2 SWAP1 PUSH2 0x4180 JUMP JUMPDEST PUSH2 0x20B5 SWAP2 SWAP1 PUSH2 0x4198 JUMP JUMPDEST PUSH2 0x32CC JUMP JUMPDEST PUSH1 0xC DUP1 SLOAD PUSH1 0x0 SWAP1 DUP2 MSTORE PUSH1 0x1C PUSH1 0x20 MSTORE PUSH1 0x40 DUP1 DUP3 KECCAK256 PUSH1 0x3 ADD SWAP4 SWAP1 SWAP4 SSTORE SWAP1 SLOAD DUP2 MSTORE KECCAK256 TIMESTAMP PUSH1 0x1 SWAP1 SWAP2 ADD SSTORE PUSH1 0x2 DUP2 DUP2 ADD SLOAD DUP4 DUP3 ADD SLOAD PUSH2 0x20F8 SWAP3 SWAP2 PUSH2 0x20AB SWAP2 PUSH2 0x4180 JUMP JUMPDEST PUSH1 0x1C PUSH1 0x0 PUSH1 0xC SLOAD DUP2 MSTORE PUSH1 0x20 ADD SWAP1 DUP2 MSTORE PUSH1 0x20 ADD PUSH1 0x0 KECCAK256 PUSH1 0x2 ADD DUP2 SWAP1 SSTORE POP PUSH2 0x212D PUSH1 0x2 DUP3 PUSH1 0x4 ADD SLOAD DUP5 PUSH1 0x4 ADD SLOAD PUSH2 0x20AB SWAP2 SWAP1 PUSH2 0x4180 JUMP JUMPDEST PUSH1 0xC DUP1 SLOAD PUSH1 0x0 SWAP1 DUP2 MSTORE PUSH1 0x1C PUSH1 0x20 MSTORE PUSH1 0x40 DUP1 DUP3 KECCAK256 PUSH1 0x4 ADD SWAP4 SWAP1 SWAP4 SSTORE SWAP1 SLOAD DUP2 MSTORE KECCAK256 PUSH2 0x215B SWAP1 PUSH1 0xD ADD DUP6 PUSH1 0x2 PUSH2 0x39CF JUMP JUMPDEST POP PUSH1 0xC SLOAD PUSH1 0x0 SWAP1 DUP2 MSTORE PUSH1 0x1C PUSH1 0x20 MSTORE PUSH1 0x40 SWAP1 KECCAK256 PUSH1 0x3 ADD SLOAD PUSH1 0x11 SLOAD PUSH2 0x2710 SWAP2 PUSH2 0x2181 SWAP2 PUSH2 0x41AC JUMP JUMPDEST PUSH2 0x218B SWAP2 SWAP1 PUSH2 0x4198 JUMP JUMPDEST PUSH2 0x2195 SWAP1 TIMESTAMP PUSH2 0x4180 JUMP JUMPDEST PUSH1 0xC DUP1 SLOAD PUSH1 0x0 SWAP1 DUP2 MSTORE PUSH1 0x1C PUSH1 0x20 MSTORE PUSH1 0x40 DUP1 DUP3 KECCAK256 PUSH1 0xF ADD SWAP4 SWAP1 SWAP4 SSTORE SWAP1 SLOAD DUP2 MSTORE KECCAK256 SLOAD PUSH1 0x1 EQ ISZERO PUSH2 0x232E JUMPI PUSH2 0x21CA DUP3 PUSH1 0x7 ADD SLOAD PUSH2 0x32CC JUMP JUMPDEST PUSH1 0xC SLOAD PUSH1 0x0 SWAP1 DUP2 MSTORE PUSH1 0x1C PUSH1 0x20 MSTORE PUSH1 0x40 SWAP1 KECCAK256 PUSH1 0x7 ADD SSTORE PUSH1 0x8 DUP3 ADD SLOAD PUSH2 0x21ED SWAP1 PUSH2 0x32CC JUMP JUMPDEST PUSH1 0xC SLOAD PUSH1 0x0 SWAP1 DUP2 MSTORE PUSH1 0x1C PUSH1 0x20 MSTORE PUSH1 0x40 SWAP1 KECCAK256 PUSH1 0x8 ADD SSTORE PUSH1 0x9 DUP3 ADD SLOAD PUSH2 0x2210 SWAP1 PUSH2 0x32CC JUMP JUMPDEST PUSH1 0x1C PUSH1 0x0 PUSH1 0xC SLOAD DUP2 MSTORE PUSH1 0x20 ADD SWAP1 DUP2 MSTORE PUSH1 0x20 ADD PUSH1 0x0 KECCAK256 PUSH1 0x9 ADD DUP2 SWAP1 SSTORE POP PUSH1 0xC SLOAD DUP6 PUSH1 0x1 PUSH1 0x1 PUSH1 0xA0 SHL SUB AND PUSH32 0x18A18192F0826A437B79DF65B06727F8310307AEA2539B1E90284EE01BCFF60B PUSH1 0x1C PUSH1 0x0 PUSH1 0xC SLOAD DUP2 MSTORE PUSH1 0x20 ADD SWAP1 DUP2 MSTORE PUSH1 0x20 ADD PUSH1 0x0 KECCAK256 PUSH1 0x3 ADD SLOAD PUSH1 0x1C PUSH1 0x0 PUSH1 0xC SLOAD DUP2 MSTORE PUSH1 0x20 ADD SWAP1 DUP2 MSTORE PUSH1 0x20 ADD PUSH1 0x0 KECCAK256 PUSH1 0x2 ADD SLOAD PUSH1 0x1C PUSH1 0x0 PUSH1 0xC SLOAD DUP2 MSTORE PUSH1 0x20 ADD SWAP1 DUP2 MSTORE PUSH1 0x20 ADD PUSH1 0x0 KECCAK256 PUSH1 0x4 ADD SLOAD PUSH1 0x0 DUP11 PUSH1 0x1C PUSH1 0x0 PUSH1 0xC SLOAD DUP2 MSTORE PUSH1 0x20 ADD SWAP1 DUP2 MSTORE PUSH1 0x20 ADD PUSH1 0x0 KECCAK256 PUSH1 0xF ADD SLOAD PUSH1 0x1C PUSH1 0x0 PUSH1 0xC SLOAD DUP2 MSTORE PUSH1 0x20 ADD SWAP1 DUP2 MSTORE PUSH1 0x20 ADD PUSH1 0x0 KECCAK256 PUSH1 0x7 ADD SLOAD PUSH1 0x1C PUSH1 0x0 PUSH1 0xC SLOAD DUP2 MSTORE PUSH1 0x20 ADD SWAP1 DUP2 MSTORE PUSH1 0x20 ADD PUSH1 0x0 KECCAK256 PUSH1 0x9 ADD SLOAD PUSH1 0x1C PUSH1 0x0 PUSH1 0xC SLOAD DUP2 MSTORE PUSH1 0x20 ADD SWAP1 DUP2 MSTORE PUSH1 0x20 ADD PUSH1 0x0 KECCAK256 PUSH1 0x8 ADD SLOAD PUSH1 0x40 MLOAD PUSH2 0x2321 SWAP10 SWAP9 SWAP8 SWAP7 SWAP6 SWAP5 SWAP4 SWAP3 SWAP2 SWAP1 PUSH2 0x40FC JUMP JUMPDEST PUSH1 0x40 MLOAD DUP1 SWAP2 SUB SWAP1 LOG3 PUSH2 0x23F2 JUMP JUMPDEST PUSH2 0x233B DUP2 PUSH1 0xA ADD SLOAD PUSH2 0x32CC JUMP JUMPDEST PUSH1 0xC SLOAD PUSH1 0x0 SWAP1 DUP2 MSTORE PUSH1 0x1C PUSH1 0x20 MSTORE PUSH1 0x40 SWAP1 KECCAK256 PUSH1 0xA SWAP1 DUP2 ADD SWAP2 SWAP1 SWAP2 SSTORE DUP2 ADD SLOAD PUSH2 0x2361 SWAP1 PUSH2 0x32CC JUMP JUMPDEST PUSH1 0xC DUP1 SLOAD PUSH1 0x0 SWAP1 DUP2 MSTORE PUSH1 0x1C PUSH1 0x20 MSTORE PUSH1 0x40 DUP1 DUP3 KECCAK256 PUSH1 0xB SWAP1 DUP2 ADD SWAP5 SWAP1 SWAP5 SSTORE SWAP2 SLOAD DUP1 DUP3 MSTORE DUP3 DUP3 KECCAK256 PUSH1 0x3 DUP2 ADD SLOAD PUSH1 0x2 DUP3 ADD SLOAD PUSH1 0x4 DUP4 ADD SLOAD PUSH1 0xF DUP5 ADD SLOAD PUSH1 0xA DUP6 ADD SLOAD SWAP5 SWAP1 SWAP9 ADD SLOAD SWAP7 MLOAD SWAP5 SWAP8 PUSH1 0x1 PUSH1 0x1 PUSH1 0xA0 SHL SUB DUP15 AND SWAP8 PUSH32 0xC94528F8DE56D922E972EF26EC9F62079BFF7D5376C2EE08E5C5316271CEA71A SWAP8 PUSH2 0x23E9 SWAP8 SWAP6 SWAP7 SWAP5 SWAP6 SWAP4 SWAP5 SWAP1 SWAP4 DUP16 SWAP4 SWAP3 SWAP1 PUSH2 0x40B1 JUMP JUMPDEST PUSH1 0x40 MLOAD DUP1 SWAP2 SUB SWAP1 LOG3 JUMPDEST PUSH1 0xC DUP1 SLOAD SWAP1 PUSH1 0x0 PUSH2 0x2402 DUP4 PUSH2 0x4260 JUMP JUMPDEST SWAP2 SWAP1 POP SSTORE POP PUSH2 0x2411 DUP6 DUP5 PUSH2 0x2F8B JUMP JUMPDEST POP POP POP POP POP JUMP JUMPDEST PUSH1 0xA SLOAD PUSH1 0x1 PUSH1 0x1 PUSH1 0xA0 SHL SUB AND CALLER EQ PUSH2 0x2442 JUMPI PUSH1 0x40 MLOAD PUSH3 0x461BCD PUSH1 0xE5 SHL DUP2 MSTORE PUSH1 0x4 ADD PUSH2 0xC6F SWAP1 PUSH2 0x3FE0 JUMP JUMPDEST PUSH1 0xD DUP1 SLOAD PUSH1 0x1 PUSH1 0x1 PUSH1 0xA0 SHL SUB NOT AND PUSH1 0x1 PUSH1 0x1 PUSH1 0xA0 SHL SUB SWAP3 SWAP1 SWAP3 AND SWAP2 SWAP1 SWAP2 OR SWAP1 SSTORE JUMP JUMPDEST PUSH2 0x246D CALLER PUSH2 0x11A0 JUMP JUMPDEST PUSH2 0x2489 JUMPI PUSH1 0x40 MLOAD PUSH3 0x461BCD PUSH1 0xE5 SHL DUP2 MSTORE PUSH1 0x4 ADD PUSH2 0xC6F SWAP1 PUSH2 0x403D JUMP JUMPDEST PUSH2 0x2495 DUP5 DUP5 DUP5 DUP5 PUSH2 0x33BD JUMP JUMPDEST POP POP POP POP JUMP JUMPDEST PUSH1 0xC SLOAD PUSH2 0x24A6 PUSH2 0x3977 JUMP JUMPDEST PUSH1 0xD SLOAD PUSH1 0x1 PUSH1 0x1 PUSH1 0xA0 SHL SUB AND CALLER PUSH1 0x1 PUSH1 0x1 PUSH1 0xA0 SHL SUB AND EQ PUSH2 0x2513 JUMPI CALLER PUSH1 0x0 SWAP1 DUP2 MSTORE PUSH1 0x18 PUSH1 0x20 MSTORE PUSH1 0x40 SWAP1 KECCAK256 SLOAD PUSH2 0x24ED JUMPI PUSH1 0x40 MLOAD PUSH3 0x461BCD PUSH1 0xE5 SHL DUP2 MSTORE PUSH1 0x4 ADD PUSH2 0xC6F SWAP1 PUSH2 0x4015 JUMP JUMPDEST CALLER PUSH1 0x0 SWAP1 DUP2 MSTORE PUSH1 0x18 PUSH1 0x20 MSTORE PUSH1 0x40 DUP2 KECCAK256 DUP1 SLOAD PUSH1 0x1 SWAP3 SWAP1 PUSH2 0x250D SWAP1 DUP5 SWAP1 PUSH2 0x41CB JUMP JUMPDEST SWAP1 SWAP2 SSTORE POP POP JUMPDEST PUSH2 0x251D PUSH1 0x2 PUSH2 0x313B JUMP JUMPDEST PUSH1 0xC SLOAD PUSH1 0x0 SWAP1 DUP2 MSTORE PUSH1 0x1C PUSH1 0x20 MSTORE PUSH1 0x40 SWAP1 KECCAK256 SSTORE PUSH2 0x253A PUSH2 0xFA0 PUSH2 0x313B JUMP JUMPDEST PUSH2 0x2546 SWAP1 PUSH2 0x1D4C PUSH2 0x4180 JUMP JUMPDEST PUSH1 0xC DUP1 SLOAD PUSH1 0x0 SWAP1 DUP2 MSTORE PUSH1 0x1C PUSH1 0x20 MSTORE PUSH1 0x40 DUP1 DUP3 KECCAK256 PUSH1 0x3 ADD SWAP4 SWAP1 SWAP4 SSTORE SWAP1 SLOAD DUP2 MSTORE KECCAK256 TIMESTAMP PUSH1 0x1 SWAP1 SWAP2 ADD SSTORE PUSH2 0x2577 PUSH2 0xFA0 PUSH2 0x313B JUMP JUMPDEST PUSH2 0x2583 SWAP1 PUSH2 0x1D4C PUSH2 0x4180 JUMP JUMPDEST PUSH1 0xC SLOAD PUSH1 0x0 SWAP1 DUP2 MSTORE PUSH1 0x1C PUSH1 0x20 MSTORE PUSH1 0x40 SWAP1 KECCAK256 PUSH1 0x2 ADD SSTORE PUSH2 0x25A3 PUSH2 0xFA0 PUSH2 0x313B JUMP JUMPDEST PUSH2 0x25AF SWAP1 PUSH2 0x1D4C PUSH2 0x4180 JUMP JUMPDEST PUSH1 0xC DUP1 SLOAD PUSH1 0x0 SWAP1 DUP2 MSTORE PUSH1 0x1C PUSH1 0x20 MSTORE PUSH1 0x40 DUP1 DUP3 KECCAK256 PUSH1 0x4 ADD SWAP4 SWAP1 SWAP4 SSTORE DUP2 SLOAD DUP2 MSTORE DUP3 DUP2 KECCAK256 PUSH1 0x6 ADD DUP1 SLOAD PUSH1 0xFF NOT AND SWAP1 SSTORE SWAP1 SLOAD DUP2 MSTORE KECCAK256 PUSH1 0x3 ADD SLOAD PUSH1 0x11 SLOAD PUSH2 0x2710 SWAP2 PUSH2 0x25F4 SWAP2 PUSH2 0x41AC JUMP JUMPDEST PUSH2 0x25FE SWAP2 SWAP1 PUSH2 0x4198 JUMP JUMPDEST PUSH2 0x2608 SWAP1 TIMESTAMP PUSH2 0x4180 JUMP JUMPDEST PUSH1 0xC DUP1 SLOAD PUSH1 0x0 SWAP1 DUP2 MSTORE PUSH1 0x1C PUSH1 0x20 MSTORE PUSH1 0x40 DUP1 DUP3 KECCAK256 PUSH1 0xF ADD SWAP4 SWAP1 SWAP4 SSTORE SWAP1 SLOAD DUP2 MSTORE KECCAK256 SLOAD PUSH1 0x1 EQ ISZERO PUSH2 0x273A JUMPI PUSH2 0x263B PUSH2 0xFA0 PUSH2 0x313B JUMP JUMPDEST PUSH2 0x2647 SWAP1 PUSH2 0x1D4C PUSH2 0x4180 JUMP JUMPDEST PUSH1 0xC SLOAD PUSH1 0x0 SWAP1 DUP2 MSTORE PUSH1 0x1C PUSH1 0x20 MSTORE PUSH1 0x40 SWAP1 KECCAK256 PUSH1 0x7 ADD SSTORE PUSH2 0x2667 PUSH2 0xFA0 PUSH2 0x313B JUMP JUMPDEST PUSH2 0x2673 SWAP1 PUSH2 0x1D4C PUSH2 0x4180 JUMP JUMPDEST PUSH1 0xC SLOAD PUSH1 0x0 SWAP1 DUP2 MSTORE PUSH1 0x1C PUSH1 0x20 MSTORE PUSH1 0x40 SWAP1 KECCAK256 PUSH1 0x8 ADD SSTORE PUSH2 0x2693 PUSH2 0xFA0 PUSH2 0x313B JUMP JUMPDEST PUSH2 0x269F SWAP1 PUSH2 0x1D4C PUSH2 0x4180 JUMP JUMPDEST PUSH1 0xC DUP1 SLOAD PUSH1 0x0 SWAP1 DUP2 MSTORE PUSH1 0x1C PUSH1 0x20 MSTORE PUSH1 0x40 DUP1 DUP3 KECCAK256 PUSH1 0x9 SWAP1 DUP2 ADD SWAP5 SWAP1 SWAP5 SSTORE SWAP2 SLOAD DUP1 DUP3 MSTORE DUP3 DUP3 KECCAK256 PUSH1 0x3 DUP2 ADD SLOAD PUSH1 0x2 DUP3 ADD SLOAD PUSH1 0x4 DUP4 ADD SLOAD PUSH1 0xF DUP5 ADD SLOAD PUSH1 0x7 DUP6 ADD SLOAD SWAP9 DUP6 ADD SLOAD PUSH1 0x8 SWAP1 SWAP6 ADD SLOAD SWAP8 MLOAD SWAP6 SWAP9 PUSH1 0x1 PUSH1 0x1 PUSH1 0xA0 SHL SUB DUP14 AND SWAP9 PUSH32 0x18A18192F0826A437B79DF65B06727F8310307AEA2539B1E90284EE01BCFF60B SWAP9 PUSH2 0x272D SWAP9 SWAP7 SWAP8 SWAP6 SWAP7 SWAP5 SWAP6 SWAP1 SWAP5 DUP14 SWAP5 SWAP4 SWAP3 SWAP1 PUSH2 0x40FC JUMP JUMPDEST PUSH1 0x40 MLOAD DUP1 SWAP2 SUB SWAP1 LOG3 PUSH2 0x280E JUMP JUMPDEST PUSH2 0x2745 PUSH2 0xFA0 PUSH2 0x313B JUMP JUMPDEST PUSH2 0x2751 SWAP1 PUSH2 0x1D4C PUSH2 0x4180 JUMP JUMPDEST PUSH1 0xC SLOAD PUSH1 0x0 SWAP1 DUP2 MSTORE PUSH1 0x1C PUSH1 0x20 MSTORE PUSH1 0x40 SWAP1 KECCAK256 PUSH1 0xA ADD SSTORE PUSH2 0x2771 PUSH2 0xFA0 PUSH2 0x313B JUMP JUMPDEST PUSH2 0x277D SWAP1 PUSH2 0x1F40 PUSH2 0x4180 JUMP JUMPDEST PUSH1 0xC DUP1 SLOAD PUSH1 0x0 SWAP1 DUP2 MSTORE PUSH1 0x1C PUSH1 0x20 MSTORE PUSH1 0x40 DUP1 DUP3 KECCAK256 PUSH1 0xB SWAP1 DUP2 ADD SWAP5 SWAP1 SWAP5 SSTORE SWAP2 SLOAD DUP1 DUP3 MSTORE DUP3 DUP3 KECCAK256 PUSH1 0x3 DUP2 ADD SLOAD PUSH1 0x2 DUP3 ADD SLOAD PUSH1 0x4 DUP4 ADD SLOAD PUSH1 0xF DUP5 ADD SLOAD PUSH1 0xA DUP6 ADD SLOAD SWAP5 SWAP1 SWAP9 ADD SLOAD SWAP7 MLOAD SWAP5 SWAP8 PUSH1 0x1 PUSH1 0x1 PUSH1 0xA0 SHL SUB DUP13 AND SWAP8 PUSH32 0xC94528F8DE56D922E972EF26EC9F62079BFF7D5376C2EE08E5C5316271CEA71A SWAP8 PUSH2 0x2805 SWAP8 SWAP6 SWAP7 SWAP5 SWAP6 SWAP4 SWAP5 SWAP1 SWAP4 DUP13 SWAP4 SWAP3 SWAP1 PUSH2 0x40B1 JUMP JUMPDEST PUSH1 0x40 MLOAD DUP1 SWAP2 SUB SWAP1 LOG3 JUMPDEST PUSH1 0xC DUP1 SLOAD SWAP1 PUSH1 0x0 PUSH2 0x281E DUP4 PUSH2 0x4260 JUMP JUMPDEST SWAP2 SWAP1 POP SSTORE POP PUSH2 0xE03 DUP4 DUP4 PUSH2 0x2F8B JUMP JUMPDEST PUSH1 0x0 DUP2 DUP2 MSTORE PUSH1 0x2 PUSH1 0x20 MSTORE PUSH1 0x40 SWAP1 KECCAK256 SLOAD PUSH1 0x60 SWAP1 PUSH1 0x1 PUSH1 0x1 PUSH1 0xA0 SHL SUB AND PUSH2 0x2888 JUMPI PUSH1 0x40 MLOAD PUSH3 0x461BCD PUSH1 0xE5 SHL DUP2 MSTORE PUSH1 0x20 PUSH1 0x4 DUP3 ADD MSTORE PUSH1 0x11 PUSH1 0x24 DUP3 ADD MSTORE PUSH17 0x3737B732BC34B9BA32B73A103A37B5B2B7 PUSH1 0x79 SHL PUSH1 0x44 DUP3 ADD MSTORE PUSH1 0x64 ADD PUSH2 0xC6F JUMP JUMPDEST PUSH1 0xB PUSH2 0x2893 DUP4 PUSH2 0x33F0 JUMP JUMPDEST PUSH1 0x40 MLOAD PUSH1 0x20 ADD PUSH2 0x28A4 SWAP3 SWAP2 SWAP1 PUSH2 0x3E46 JUMP JUMPDEST PUSH1 0x40 MLOAD PUSH1 0x20 DUP2 DUP4 SUB SUB DUP2 MSTORE SWAP1 PUSH1 0x40 MSTORE SWAP1 POP SWAP2 SWAP1 POP JUMP JUMPDEST PUSH1 0x15 DUP2 DUP2 SLOAD DUP2 LT PUSH2 0x28CA JUMPI PUSH1 0x0 DUP1 REVERT JUMPDEST PUSH1 0x0 SWAP2 DUP3 MSTORE PUSH1 0x20 SWAP1 SWAP2 KECCAK256 ADD SLOAD SWAP1 POP DUP2 JUMP JUMPDEST PUSH1 0x0 DUP2 DUP2 MSTORE PUSH1 0x1D PUSH1 0x20 MSTORE PUSH1 0x40 DUP2 KECCAK256 SLOAD PUSH1 0xFF AND ISZERO PUSH2 0x2908 JUMPI POP PUSH1 0x0 SWAP1 DUP2 MSTORE PUSH1 0x1C PUSH1 0x20 MSTORE PUSH1 0x40 SWAP1 KECCAK256 PUSH1 0x7 ADD SLOAD SWAP1 JUMP JUMPDEST PUSH1 0x0 DUP3 DUP2 MSTORE PUSH1 0x1C PUSH1 0x20 MSTORE PUSH1 0x40 SWAP1 KECCAK256 PUSH1 0xC ADD SLOAD PUSH1 0x16 DUP1 SLOAD PUSH1 0x64 SWAP2 SWAP1 DUP4 SWAP1 DUP2 LT PUSH2 0x2940 JUMPI PUSH4 0x4E487B71 PUSH1 0xE0 SHL PUSH1 0x0 MSTORE PUSH1 0x32 PUSH1 0x4 MSTORE PUSH1 0x24 PUSH1 0x0 REVERT JUMPDEST SWAP1 PUSH1 0x0 MSTORE PUSH1 0x20 PUSH1 0x0 KECCAK256 ADD SLOAD PUSH1 0x1C PUSH1 0x0 DUP7 DUP2 MSTORE PUSH1 0x20 ADD SWAP1 DUP2 MSTORE PUSH1 0x20 ADD PUSH1 0x0 KECCAK256 PUSH1 0x7 ADD SLOAD PUSH2 0xD6B SWAP2 SWAP1 PUSH2 0x41AC JUMP JUMPDEST PUSH1 0x16 DUP2 DUP2 SLOAD DUP2 LT PUSH2 0x28CA JUMPI PUSH1 0x0 DUP1 REVERT JUMPDEST PUSH1 0xA SLOAD PUSH1 0x1 PUSH1 0x1 PUSH1 0xA0 SHL SUB AND CALLER EQ PUSH2 0x29A6 JUMPI PUSH1 0x40 MLOAD PUSH3 0x461BCD PUSH1 0xE5 SHL DUP2 MSTORE PUSH1 0x4 ADD PUSH2 0xC6F SWAP1 PUSH2 0x3FE0 JUMP JUMPDEST PUSH1 0x0 DUP1 PUSH1 0x1 JUMPDEST PUSH1 0xC SLOAD DUP2 LT ISZERO PUSH2 0xE03 JUMPI PUSH1 0x0 DUP2 DUP2 MSTORE PUSH1 0x1D PUSH1 0x20 MSTORE PUSH1 0x40 SWAP1 KECCAK256 SLOAD PUSH1 0xFF AND ISZERO PUSH2 0x2A27 JUMPI PUSH1 0x0 DUP2 DUP2 MSTORE PUSH1 0x1C PUSH1 0x20 MSTORE PUSH1 0x40 SWAP1 KECCAK256 SLOAD PUSH1 0x1 EQ ISZERO PUSH2 0x2A08 JUMPI DUP3 PUSH2 0x29EE DUP2 PUSH2 0x4260 JUMP JUMPDEST PUSH1 0x0 DUP4 DUP2 MSTORE PUSH1 0x1F PUSH1 0x20 MSTORE PUSH1 0x40 SWAP1 KECCAK256 DUP2 SWAP1 SSTORE SWAP4 POP PUSH2 0x2A27 SWAP1 POP JUMP JUMPDEST DUP2 PUSH2 0x2A12 DUP2 PUSH2 0x4260 JUMP JUMPDEST PUSH1 0x0 DUP4 DUP2 MSTORE PUSH1 0x1F PUSH1 0x20 MSTORE PUSH1 0x40 SWAP1 KECCAK256 DUP2 SWAP1 SSTORE SWAP3 POP POP JUMPDEST DUP1 PUSH2 0x2A31 DUP2 PUSH2 0x4260 JUMP JUMPDEST SWAP2 POP POP PUSH2 0x29AC JUMP JUMPDEST PUSH1 0x0 DUP2 DUP2 MSTORE PUSH1 0x1D PUSH1 0x20 MSTORE PUSH1 0x40 DUP2 KECCAK256 SLOAD PUSH1 0xFF AND ISZERO PUSH2 0x2A66 JUMPI POP PUSH1 0x0 SWAP1 DUP2 MSTORE PUSH1 0x1C PUSH1 0x20 MSTORE PUSH1 0x40 SWAP1 KECCAK256 PUSH1 0x8 ADD SLOAD SWAP1 JUMP JUMPDEST PUSH1 0x0 DUP3 DUP2 MSTORE PUSH1 0x1C PUSH1 0x20 MSTORE PUSH1 0x40 SWAP1 KECCAK256 PUSH1 0xC ADD SLOAD PUSH1 0x16 DUP1 SLOAD PUSH1 0x64 SWAP2 SWAP1 DUP4 SWAP1 DUP2 LT PUSH2 0x2A9E JUMPI PUSH4 0x4E487B71 PUSH1 0xE0 SHL PUSH1 0x0 MSTORE PUSH1 0x32 PUSH1 0x4 MSTORE PUSH1 0x24 PUSH1 0x0 REVERT JUMPDEST SWAP1 PUSH1 0x0 MSTORE PUSH1 0x20 PUSH1 0x0 KECCAK256 ADD SLOAD PUSH1 0x1C PUSH1 0x0 DUP7 DUP2 MSTORE PUSH1 0x20 ADD SWAP1 DUP2 MSTORE PUSH1 0x20 ADD PUSH1 0x0 KECCAK256 PUSH1 0x8 ADD SLOAD PUSH2 0xD6B SWAP2 SWAP1 PUSH2 0x41AC JUMP JUMPDEST PUSH1 0x0 DUP2 DUP2 MSTORE PUSH1 0x1D PUSH1 0x20 MSTORE PUSH1 0x40 DUP2 KECCAK256 SLOAD PUSH1 0xFF AND ISZERO PUSH2 0x2AF7 JUMPI POP PUSH1 0x0 SWAP1 DUP2 MSTORE PUSH1 0x1C PUSH1 0x20 MSTORE PUSH1 0x40 SWAP1 KECCAK256 PUSH1 0x9 ADD SLOAD SWAP1 JUMP JUMPDEST PUSH1 0x0 DUP3 DUP2 MSTORE PUSH1 0x1C PUSH1 0x20 MSTORE PUSH1 0x40 SWAP1 KECCAK256 PUSH1 0xC ADD SLOAD PUSH1 0x16 DUP1 SLOAD PUSH1 0x64 SWAP2 SWAP1 DUP4 SWAP1 DUP2 LT PUSH2 0x2B2F JUMPI PUSH4 0x4E487B71 PUSH1 0xE0 SHL PUSH1 0x0 MSTORE PUSH1 0x32 PUSH1 0x4 MSTORE PUSH1 0x24 PUSH1 0x0 REVERT JUMPDEST SWAP1 PUSH1 0x0 MSTORE PUSH1 0x20 PUSH1 0x0 KECCAK256 ADD SLOAD PUSH1 0x1C PUSH1 0x0 DUP7 DUP2 MSTORE PUSH1 0x20 ADD SWAP1 DUP2 MSTORE PUSH1 0x20 ADD PUSH1 0x0 KECCAK256 PUSH1 0x9 ADD SLOAD PUSH2 0xD6B SWAP2 SWAP1 PUSH2 0x41AC JUMP JUMPDEST PUSH1 0xA SLOAD PUSH1 0x1 PUSH1 0x1 PUSH1 0xA0 SHL SUB AND CALLER EQ PUSH2 0x2B85 JUMPI PUSH1 0x40 MLOAD PUSH3 0x461BCD PUSH1 0xE5 SHL DUP2 MSTORE PUSH1 0x4 ADD PUSH2 0xC6F SWAP1 PUSH2 0x3FE0 JUMP JUMPDEST PUSH1 0x1 PUSH1 0x1 PUSH1 0xA0 SHL SUB DUP2 AND PUSH2 0x2BEA JUMPI PUSH1 0x40 MLOAD PUSH3 0x461BCD PUSH1 0xE5 SHL DUP2 MSTORE PUSH1 0x20 PUSH1 0x4 DUP3 ADD MSTORE PUSH1 0x26 PUSH1 0x24 DUP3 ADD MSTORE PUSH32 0x4F776E61626C653A206E6577206F776E657220697320746865207A65726F2061 PUSH1 0x44 DUP3 ADD MSTORE PUSH6 0x646472657373 PUSH1 0xD0 SHL PUSH1 0x64 DUP3 ADD MSTORE PUSH1 0x84 ADD PUSH2 0xC6F JUMP JUMPDEST PUSH2 0x2BF3 DUP2 PUSH2 0x31AB JUMP JUMPDEST POP JUMP JUMPDEST PUSH1 0x0 PUSH1 0x1 PUSH1 0x1 PUSH1 0xE0 SHL SUB NOT DUP3 AND PUSH4 0x80AC58CD PUSH1 0xE0 SHL EQ DUP1 PUSH2 0x2C27 JUMPI POP PUSH1 0x1 PUSH1 0x1 PUSH1 0xE0 SHL SUB NOT DUP3 AND PUSH4 0x5B5E139F PUSH1 0xE0 SHL EQ JUMPDEST DUP1 PUSH2 0xB62 JUMPI POP PUSH4 0x1FFC9A7 PUSH1 0xE0 SHL PUSH1 0x1 PUSH1 0x1 PUSH1 0xE0 SHL SUB NOT DUP4 AND EQ PUSH2 0xB62 JUMP JUMPDEST PUSH1 0x0 DUP2 DUP2 MSTORE PUSH1 0x2 PUSH1 0x20 MSTORE PUSH1 0x40 DUP2 KECCAK256 SLOAD PUSH1 0x1 PUSH1 0x1 PUSH1 0xA0 SHL SUB AND PUSH2 0x2CBF JUMPI PUSH1 0x40 MLOAD PUSH3 0x461BCD PUSH1 0xE5 SHL DUP2 MSTORE PUSH1 0x20 PUSH1 0x4 DUP3 ADD MSTORE PUSH1 0x2C PUSH1 0x24 DUP3 ADD MSTORE PUSH32 0x4552433732313A206F70657261746F7220717565727920666F72206E6F6E6578 PUSH1 0x44 DUP3 ADD MSTORE PUSH12 0x34B9BA32B73A103A37B5B2B7 PUSH1 0xA1 SHL PUSH1 0x64 DUP3 ADD MSTORE PUSH1 0x84 ADD PUSH2 0xC6F JUMP JUMPDEST PUSH1 0x0 PUSH2 0x2CCA DUP4 PUSH2 0x15E0 JUMP JUMPDEST SWAP1 POP DUP1 PUSH1 0x1 PUSH1 0x1 PUSH1 0xA0 SHL SUB AND DUP5 PUSH1 0x1 PUSH1 0x1 PUSH1 0xA0 SHL SUB AND EQ DUP1 PUSH2 0x2D11 JUMPI POP PUSH1 0x1 PUSH1 0x1 PUSH1 0xA0 SHL SUB DUP1 DUP3 AND PUSH1 0x0 SWAP1 DUP2 MSTORE PUSH1 0x5 PUSH1 0x20 SWAP1 DUP2 MSTORE PUSH1 0x40 DUP1 DUP4 KECCAK256 SWAP4 DUP9 AND DUP4 MSTORE SWAP3 SWAP1 MSTORE KECCAK256 SLOAD PUSH1 0xFF AND JUMPDEST DUP1 PUSH2 0x2D35 JUMPI POP DUP4 PUSH1 0x1 PUSH1 0x1 PUSH1 0xA0 SHL SUB AND PUSH2 0x2D2A DUP5 PUSH2 0xBFA JUMP JUMPDEST PUSH1 0x1 PUSH1 0x1 PUSH1 0xA0 SHL SUB AND EQ JUMPDEST SWAP5 SWAP4 POP POP POP POP JUMP JUMPDEST DUP3 PUSH1 0x1 PUSH1 0x1 PUSH1 0xA0 SHL SUB AND PUSH2 0x2D50 DUP3 PUSH2 0x15E0 JUMP JUMPDEST PUSH1 0x1 PUSH1 0x1 PUSH1 0xA0 SHL SUB AND EQ PUSH2 0x2DB4 JUMPI PUSH1 0x40 MLOAD PUSH3 0x461BCD PUSH1 0xE5 SHL DUP2 MSTORE PUSH1 0x20 PUSH1 0x4 DUP3 ADD MSTORE PUSH1 0x25 PUSH1 0x24 DUP3 ADD MSTORE PUSH32 0x4552433732313A207472616E736665722066726F6D20696E636F727265637420 PUSH1 0x44 DUP3 ADD MSTORE PUSH5 0x37BBB732B9 PUSH1 0xD9 SHL PUSH1 0x64 DUP3 ADD MSTORE PUSH1 0x84 ADD PUSH2 0xC6F JUMP JUMPDEST PUSH1 0x1 PUSH1 0x1 PUSH1 0xA0 SHL SUB DUP3 AND PUSH2 0x2E16 JUMPI PUSH1 0x40 MLOAD PUSH3 0x461BCD PUSH1 0xE5 SHL DUP2 MSTORE PUSH1 0x20 PUSH1 0x4 DUP3 ADD MSTORE PUSH1 0x24 DUP1 DUP3 ADD MSTORE PUSH32 0x4552433732313A207472616E7366657220746F20746865207A65726F20616464 PUSH1 0x44 DUP3 ADD MSTORE PUSH4 0x72657373 PUSH1 0xE0 SHL PUSH1 0x64 DUP3 ADD MSTORE PUSH1 0x84 ADD PUSH2 0xC6F JUMP JUMPDEST PUSH2 0x2E21 DUP4 DUP4 DUP4 PUSH2 0x350A JUMP JUMPDEST PUSH2 0x2E2C PUSH1 0x0 DUP3 PUSH2 0x35C2 JUMP JUMPDEST PUSH1 0x1 PUSH1 0x1 PUSH1 0xA0 SHL SUB DUP4 AND PUSH1 0x0 SWAP1 DUP2 MSTORE PUSH1 0x3 PUSH1 0x20 MSTORE PUSH1 0x40 DUP2 KECCAK256 DUP1 SLOAD PUSH1 0x1 SWAP3 SWAP1 PUSH2 0x2E55 SWAP1 DUP5 SWAP1 PUSH2 0x41CB JUMP JUMPDEST SWAP1 SWAP2 SSTORE POP POP PUSH1 0x1 PUSH1 0x1 PUSH1 0xA0 SHL SUB DUP3 AND PUSH1 0x0 SWAP1 DUP2 MSTORE PUSH1 0x3 PUSH1 0x20 MSTORE PUSH1 0x40 DUP2 KECCAK256 DUP1 SLOAD PUSH1 0x1 SWAP3 SWAP1 PUSH2 0x2E83 SWAP1 DUP5 SWAP1 PUSH2 0x4180 JUMP JUMPDEST SWAP1 SWAP2 SSTORE POP POP PUSH1 0x0 DUP2 DUP2 MSTORE PUSH1 0x2 PUSH1 0x20 MSTORE PUSH1 0x40 DUP1 DUP3 KECCAK256 DUP1 SLOAD PUSH1 0x1 PUSH1 0x1 PUSH1 0xA0 SHL SUB NOT AND PUSH1 0x1 PUSH1 0x1 PUSH1 0xA0 SHL SUB DUP7 DUP2 AND SWAP2 DUP3 OR SWAP1 SWAP3 SSTORE SWAP2 MLOAD DUP5 SWAP4 SWAP2 DUP8 AND SWAP2 PUSH32 0xDDF252AD1BE2C89B69C2B068FC378DAA952BA7F163C4A11628F55A4DF523B3EF SWAP2 LOG4 POP POP POP JUMP JUMPDEST PUSH1 0x0 PUSH2 0x2EEF DUP3 PUSH2 0x15E0 JUMP JUMPDEST SWAP1 POP PUSH2 0x2EFD DUP2 PUSH1 0x0 DUP5 PUSH2 0x350A JUMP JUMPDEST PUSH2 0x2F08 PUSH1 0x0 DUP4 PUSH2 0x35C2 JUMP JUMPDEST PUSH1 0x1 PUSH1 0x1 PUSH1 0xA0 SHL SUB DUP2 AND PUSH1 0x0 SWAP1 DUP2 MSTORE PUSH1 0x3 PUSH1 0x20 MSTORE PUSH1 0x40 DUP2 KECCAK256 DUP1 SLOAD PUSH1 0x1 SWAP3 SWAP1 PUSH2 0x2F31 SWAP1 DUP5 SWAP1 PUSH2 0x41CB JUMP JUMPDEST SWAP1 SWAP2 SSTORE POP POP PUSH1 0x0 DUP3 DUP2 MSTORE PUSH1 0x2 PUSH1 0x20 MSTORE PUSH1 0x40 DUP1 DUP3 KECCAK256 DUP1 SLOAD PUSH1 0x1 PUSH1 0x1 PUSH1 0xA0 SHL SUB NOT AND SWAP1 SSTORE MLOAD DUP4 SWAP2 SWAP1 PUSH1 0x1 PUSH1 0x1 PUSH1 0xA0 SHL SUB DUP5 AND SWAP1 PUSH32 0xDDF252AD1BE2C89B69C2B068FC378DAA952BA7F163C4A11628F55A4DF523B3EF SWAP1 DUP4 SWAP1 LOG4 POP POP JUMP JUMPDEST PUSH1 0x1 PUSH1 0x1 PUSH1 0xA0 SHL SUB DUP3 AND PUSH2 0x2FE1 JUMPI PUSH1 0x40 MLOAD PUSH3 0x461BCD PUSH1 0xE5 SHL DUP2 MSTORE PUSH1 0x20 PUSH1 0x4 DUP3 ADD DUP2 SWAP1 MSTORE PUSH1 0x24 DUP3 ADD MSTORE PUSH32 0x4552433732313A206D696E7420746F20746865207A65726F2061646472657373 PUSH1 0x44 DUP3 ADD MSTORE PUSH1 0x64 ADD PUSH2 0xC6F JUMP JUMPDEST PUSH1 0x0 DUP2 DUP2 MSTORE PUSH1 0x2 PUSH1 0x20 MSTORE PUSH1 0x40 SWAP1 KECCAK256 SLOAD PUSH1 0x1 PUSH1 0x1 PUSH1 0xA0 SHL SUB AND ISZERO PUSH2 0x3046 JUMPI PUSH1 0x40 MLOAD PUSH3 0x461BCD PUSH1 0xE5 SHL DUP2 MSTORE PUSH1 0x20 PUSH1 0x4 DUP3 ADD MSTORE PUSH1 0x1C PUSH1 0x24 DUP3 ADD MSTORE PUSH32 0x4552433732313A20746F6B656E20616C7265616479206D696E74656400000000 PUSH1 0x44 DUP3 ADD MSTORE PUSH1 0x64 ADD PUSH2 0xC6F JUMP JUMPDEST PUSH2 0x3052 PUSH1 0x0 DUP4 DUP4 PUSH2 0x350A JUMP JUMPDEST PUSH1 0x1 PUSH1 0x1 PUSH1 0xA0 SHL SUB DUP3 AND PUSH1 0x0 SWAP1 DUP2 MSTORE PUSH1 0x3 PUSH1 0x20 MSTORE PUSH1 0x40 DUP2 KECCAK256 DUP1 SLOAD PUSH1 0x1 SWAP3 SWAP1 PUSH2 0x307B SWAP1 DUP5 SWAP1 PUSH2 0x4180 JUMP JUMPDEST SWAP1 SWAP2 SSTORE POP POP PUSH1 0x0 DUP2 DUP2 MSTORE PUSH1 0x2 PUSH1 0x20 MSTORE PUSH1 0x40 DUP1 DUP3 KECCAK256 DUP1 SLOAD PUSH1 0x1 PUSH1 0x1 PUSH1 0xA0 SHL SUB NOT AND PUSH1 0x1 PUSH1 0x1 PUSH1 0xA0 SHL SUB DUP7 AND SWAP1 DUP2 OR SWAP1 SWAP2 SSTORE SWAP1 MLOAD DUP4 SWAP3 SWAP1 PUSH32 0xDDF252AD1BE2C89B69C2B068FC378DAA952BA7F163C4A11628F55A4DF523B3EF SWAP1 DUP3 SWAP1 LOG4 POP POP JUMP JUMPDEST PUSH1 0x0 DUP1 PUSH2 0x30F4 PUSH1 0xF SLOAD PUSH1 0xE SLOAD PUSH2 0x30EF SWAP2 SWAP1 PUSH2 0x4180 JUMP JUMPDEST PUSH2 0x313B JUMP JUMPDEST SWAP1 POP PUSH1 0xE SLOAD DUP2 GT ISZERO PUSH2 0x311D JUMPI PUSH1 0xF DUP1 SLOAD SWAP1 PUSH1 0x0 PUSH2 0x3110 DUP4 PUSH2 0x420E JUMP JUMPDEST SWAP2 SWAP1 POP SSTORE POP PUSH1 0x2 SWAP2 POP POP SWAP1 JUMP JUMPDEST PUSH1 0xE DUP1 SLOAD SWAP1 PUSH1 0x0 PUSH2 0x312D DUP4 PUSH2 0x420E JUMP JUMPDEST SWAP2 SWAP1 POP SSTORE POP PUSH1 0x1 SWAP2 POP JUMPDEST POP SWAP1 JUMP JUMPDEST PUSH1 0x0 DUP1 DIFFICULTY TIMESTAMP PUSH1 0x1B SLOAD PUSH1 0x40 MLOAD PUSH1 0x20 ADD PUSH2 0x3166 SWAP4 SWAP3 SWAP2 SWAP1 SWAP3 DUP4 MSTORE PUSH1 0x20 DUP4 ADD SWAP2 SWAP1 SWAP2 MSTORE PUSH1 0x40 DUP3 ADD MSTORE PUSH1 0x60 ADD SWAP1 JUMP JUMPDEST PUSH1 0x40 DUP1 MLOAD PUSH1 0x1F NOT DUP2 DUP5 SUB ADD DUP2 MSTORE SWAP2 SWAP1 MSTORE DUP1 MLOAD PUSH1 0x20 SWAP1 SWAP2 ADD KECCAK256 PUSH1 0x1B DUP1 SLOAD SWAP2 SWAP3 POP PUSH1 0x0 PUSH2 0x3190 DUP4 PUSH2 0x4260 JUMP JUMPDEST SWAP1 SWAP2 SSTORE POP PUSH2 0x31A0 SWAP1 POP DUP4 DUP3 PUSH2 0x427B JUMP JUMPDEST PUSH2 0xD75 SWAP1 PUSH1 0x1 PUSH2 0x4180 JUMP JUMPDEST PUSH1 0xA DUP1 SLOAD PUSH1 0x1 PUSH1 0x1 PUSH1 0xA0 SHL SUB DUP4 DUP2 AND PUSH1 0x1 PUSH1 0x1 PUSH1 0xA0 SHL SUB NOT DUP4 AND DUP2 OR SWAP1 SWAP4 SSTORE PUSH1 0x40 MLOAD SWAP2 AND SWAP2 SWAP1 DUP3 SWAP1 PUSH32 0x8BE0079C531659141344CD1FD0A4F28419497F9722A3DAAFE3B4186F6B6457E0 SWAP1 PUSH1 0x0 SWAP1 LOG3 POP POP JUMP JUMPDEST DUP2 PUSH1 0x1 PUSH1 0x1 PUSH1 0xA0 SHL SUB AND DUP4 PUSH1 0x1 PUSH1 0x1 PUSH1 0xA0 SHL SUB AND EQ ISZERO PUSH2 0x325F JUMPI PUSH1 0x40 MLOAD PUSH3 0x461BCD PUSH1 0xE5 SHL DUP2 MSTORE PUSH1 0x20 PUSH1 0x4 DUP3 ADD MSTORE PUSH1 0x19 PUSH1 0x24 DUP3 ADD MSTORE PUSH32 0x4552433732313A20617070726F766520746F2063616C6C657200000000000000 PUSH1 0x44 DUP3 ADD MSTORE PUSH1 0x64 ADD PUSH2 0xC6F JUMP JUMPDEST PUSH1 0x1 PUSH1 0x1 PUSH1 0xA0 SHL SUB DUP4 DUP2 AND PUSH1 0x0 DUP2 DUP2 MSTORE PUSH1 0x5 PUSH1 0x20 SWAP1 DUP2 MSTORE PUSH1 0x40 DUP1 DUP4 KECCAK256 SWAP5 DUP8 AND DUP1 DUP5 MSTORE SWAP5 DUP3 MSTORE SWAP2 DUP3 SWAP1 KECCAK256 DUP1 SLOAD PUSH1 0xFF NOT AND DUP7 ISZERO ISZERO SWAP1 DUP2 OR SWAP1 SWAP2 SSTORE SWAP2 MLOAD SWAP2 DUP3 MSTORE PUSH32 0x17307EAB39AB6107E8899845AD3D59BD9653F200F220920489CA2B5937696C31 SWAP2 ADD PUSH1 0x40 MLOAD DUP1 SWAP2 SUB SWAP1 LOG3 POP POP POP JUMP JUMPDEST PUSH1 0x0 DUP1 PUSH2 0x3E8 PUSH2 0x32DC PUSH1 0xC8 PUSH2 0x313B JUMP JUMPDEST PUSH2 0x32E8 SWAP1 PUSH2 0x384 PUSH2 0x4180 JUMP JUMPDEST PUSH2 0x32F2 SWAP1 DUP6 PUSH2 0x41AC JUMP JUMPDEST PUSH2 0x32FC SWAP2 SWAP1 PUSH2 0x4198 JUMP JUMPDEST SWAP1 POP PUSH1 0x15 PUSH1 0x0 DUP2 SLOAD DUP2 LT PUSH2 0x3320 JUMPI PUSH4 0x4E487B71 PUSH1 0xE0 SHL PUSH1 0x0 MSTORE PUSH1 0x32 PUSH1 0x4 MSTORE PUSH1 0x24 PUSH1 0x0 REVERT JUMPDEST SWAP1 PUSH1 0x0 MSTORE PUSH1 0x20 PUSH1 0x0 KECCAK256 ADD SLOAD DUP2 LT ISZERO PUSH2 0x3367 JUMPI PUSH1 0x15 PUSH1 0x0 DUP2 SLOAD DUP2 LT PUSH2 0x3354 JUMPI PUSH4 0x4E487B71 PUSH1 0xE0 SHL PUSH1 0x0 MSTORE PUSH1 0x32 PUSH1 0x4 MSTORE PUSH1 0x24 PUSH1 0x0 REVERT JUMPDEST SWAP1 PUSH1 0x0 MSTORE PUSH1 0x20 PUSH1 0x0 KECCAK256 ADD SLOAD SWAP2 POP POP SWAP2 SWAP1 POP JUMP JUMPDEST PUSH1 0x15 PUSH1 0x1 DUP2 SLOAD DUP2 LT PUSH2 0x3389 JUMPI PUSH4 0x4E487B71 PUSH1 0xE0 SHL PUSH1 0x0 MSTORE PUSH1 0x32 PUSH1 0x4 MSTORE PUSH1 0x24 PUSH1 0x0 REVERT JUMPDEST SWAP1 PUSH1 0x0 MSTORE PUSH1 0x20 PUSH1 0x0 KECCAK256 ADD SLOAD DUP2 GT ISZERO PUSH2 0xB62 JUMPI PUSH1 0x15 PUSH1 0x1 DUP2 SLOAD DUP2 LT PUSH2 0x3354 JUMPI PUSH4 0x4E487B71 PUSH1 0xE0 SHL PUSH1 0x0 MSTORE PUSH1 0x32 PUSH1 0x4 MSTORE PUSH1 0x24 PUSH1 0x0 REVERT JUMPDEST PUSH2 0x33C8 DUP5 DUP5 DUP5 PUSH2 0x2D3D JUMP JUMPDEST PUSH2 0x33D4 DUP5 DUP5 DUP5 DUP5 PUSH2 0x3630 JUMP JUMPDEST PUSH2 0x2495 JUMPI PUSH1 0x40 MLOAD PUSH3 0x461BCD PUSH1 0xE5 SHL DUP2 MSTORE PUSH1 0x4 ADD PUSH2 0xC6F SWAP1 PUSH2 0x3F8E JUMP JUMPDEST PUSH1 0x60 DUP2 PUSH2 0x3414 JUMPI POP POP PUSH1 0x40 DUP1 MLOAD DUP1 DUP3 ADD SWAP1 SWAP2 MSTORE PUSH1 0x1 DUP2 MSTORE PUSH1 0x3 PUSH1 0xFC SHL PUSH1 0x20 DUP3 ADD MSTORE SWAP1 JUMP JUMPDEST DUP2 PUSH1 0x0 JUMPDEST DUP2 ISZERO PUSH2 0x343E JUMPI DUP1 PUSH2 0x3428 DUP2 PUSH2 0x4260 JUMP JUMPDEST SWAP2 POP PUSH2 0x3437 SWAP1 POP PUSH1 0xA DUP4 PUSH2 0x4198 JUMP JUMPDEST SWAP2 POP PUSH2 0x3418 JUMP JUMPDEST PUSH1 0x0 DUP2 PUSH8 0xFFFFFFFFFFFFFFFF DUP2 GT ISZERO PUSH2 0x3467 JUMPI PUSH4 0x4E487B71 PUSH1 0xE0 SHL PUSH1 0x0 MSTORE PUSH1 0x41 PUSH1 0x4 MSTORE PUSH1 0x24 PUSH1 0x0 REVERT JUMPDEST PUSH1 0x40 MLOAD SWAP1 DUP1 DUP3 MSTORE DUP1 PUSH1 0x1F ADD PUSH1 0x1F NOT AND PUSH1 0x20 ADD DUP3 ADD PUSH1 0x40 MSTORE DUP1 ISZERO PUSH2 0x3491 JUMPI PUSH1 0x20 DUP3 ADD DUP2 DUP1 CALLDATASIZE DUP4 CALLDATACOPY ADD SWAP1 POP JUMPDEST POP SWAP1 POP JUMPDEST DUP5 ISZERO PUSH2 0x2D35 JUMPI PUSH2 0x34A6 PUSH1 0x1 DUP4 PUSH2 0x41CB JUMP JUMPDEST SWAP2 POP PUSH2 0x34B3 PUSH1 0xA DUP7 PUSH2 0x427B JUMP JUMPDEST PUSH2 0x34BE SWAP1 PUSH1 0x30 PUSH2 0x4180 JUMP JUMPDEST PUSH1 0xF8 SHL DUP2 DUP4 DUP2 MLOAD DUP2 LT PUSH2 0x34E1 JUMPI PUSH4 0x4E487B71 PUSH1 0xE0 SHL PUSH1 0x0 MSTORE PUSH1 0x32 PUSH1 0x4 MSTORE PUSH1 0x24 PUSH1 0x0 REVERT JUMPDEST PUSH1 0x20 ADD ADD SWAP1 PUSH1 0x1 PUSH1 0x1 PUSH1 0xF8 SHL SUB NOT AND SWAP1 DUP2 PUSH1 0x0 BYTE SWAP1 MSTORE8 POP PUSH2 0x3503 PUSH1 0xA DUP7 PUSH2 0x4198 JUMP JUMPDEST SWAP5 POP PUSH2 0x3495 JUMP JUMPDEST PUSH1 0x1 PUSH1 0x1 PUSH1 0xA0 SHL SUB DUP4 AND PUSH2 0x3565 JUMPI PUSH2 0x3560 DUP2 PUSH1 0x8 DUP1 SLOAD PUSH1 0x0 DUP4 DUP2 MSTORE PUSH1 0x9 PUSH1 0x20 MSTORE PUSH1 0x40 DUP2 KECCAK256 DUP3 SWAP1 SSTORE PUSH1 0x1 DUP3 ADD DUP4 SSTORE SWAP2 SWAP1 SWAP2 MSTORE PUSH32 0xF3F7A9FE364FAAB93B216DA50A3214154F22A0A2B415B23A84C8169E8B636EE3 ADD SSTORE JUMP JUMPDEST PUSH2 0x3588 JUMP JUMPDEST DUP2 PUSH1 0x1 PUSH1 0x1 PUSH1 0xA0 SHL SUB AND DUP4 PUSH1 0x1 PUSH1 0x1 PUSH1 0xA0 SHL SUB AND EQ PUSH2 0x3588 JUMPI PUSH2 0x3588 DUP4 DUP3 PUSH2 0x373D JUMP JUMPDEST PUSH1 0x1 PUSH1 0x1 PUSH1 0xA0 SHL SUB DUP3 AND PUSH2 0x359F JUMPI PUSH2 0xE03 DUP2 PUSH2 0x37DA JUMP JUMPDEST DUP3 PUSH1 0x1 PUSH1 0x1 PUSH1 0xA0 SHL SUB AND DUP3 PUSH1 0x1 PUSH1 0x1 PUSH1 0xA0 SHL SUB AND EQ PUSH2 0xE03 JUMPI PUSH2 0xE03 DUP3 DUP3 PUSH2 0x38B3 JUMP JUMPDEST PUSH1 0x0 DUP2 DUP2 MSTORE PUSH1 0x4 PUSH1 0x20 MSTORE PUSH1 0x40 SWAP1 KECCAK256 DUP1 SLOAD PUSH1 0x1 PUSH1 0x1 PUSH1 0xA0 SHL SUB NOT AND PUSH1 0x1 PUSH1 0x1 PUSH1 0xA0 SHL SUB DUP5 AND SWAP1 DUP2 OR SWAP1 SWAP2 SSTORE DUP2 SWAP1 PUSH2 0x35F7 DUP3 PUSH2 0x15E0 JUMP JUMPDEST PUSH1 0x1 PUSH1 0x1 PUSH1 0xA0 SHL SUB AND PUSH32 0x8C5BE1E5EBEC7D5BD14F71427D1E84F3DD0314C0F7B2291E5B200AC8C7C3B925 PUSH1 0x40 MLOAD PUSH1 0x40 MLOAD DUP1 SWAP2 SUB SWAP1 LOG4 POP POP JUMP JUMPDEST PUSH1 0x0 PUSH1 0x1 PUSH1 0x1 PUSH1 0xA0 SHL SUB DUP5 AND EXTCODESIZE ISZERO PUSH2 0x3732 JUMPI PUSH1 0x40 MLOAD PUSH4 0xA85BD01 PUSH1 0xE1 SHL DUP2 MSTORE PUSH1 0x1 PUSH1 0x1 PUSH1 0xA0 SHL SUB DUP6 AND SWAP1 PUSH4 0x150B7A02 SWAP1 PUSH2 0x3674 SWAP1 CALLER SWAP1 DUP10 SWAP1 DUP9 SWAP1 DUP9 SWAP1 PUSH1 0x4 ADD PUSH2 0x3EEC JUMP JUMPDEST PUSH1 0x20 PUSH1 0x40 MLOAD DUP1 DUP4 SUB DUP2 PUSH1 0x0 DUP8 DUP1 EXTCODESIZE ISZERO DUP1 ISZERO PUSH2 0x368E JUMPI PUSH1 0x0 DUP1 REVERT JUMPDEST POP GAS CALL SWAP3 POP POP POP DUP1 ISZERO PUSH2 0x36BE JUMPI POP PUSH1 0x40 DUP1 MLOAD PUSH1 0x1F RETURNDATASIZE SWAP1 DUP2 ADD PUSH1 0x1F NOT AND DUP3 ADD SWAP1 SWAP3 MSTORE PUSH2 0x36BB SWAP2 DUP2 ADD SWAP1 PUSH2 0x3D40 JUMP JUMPDEST PUSH1 0x1 JUMPDEST PUSH2 0x3718 JUMPI RETURNDATASIZE DUP1 DUP1 ISZERO PUSH2 0x36EC JUMPI PUSH1 0x40 MLOAD SWAP2 POP PUSH1 0x1F NOT PUSH1 0x3F RETURNDATASIZE ADD AND DUP3 ADD PUSH1 0x40 MSTORE RETURNDATASIZE DUP3 MSTORE RETURNDATASIZE PUSH1 0x0 PUSH1 0x20 DUP5 ADD RETURNDATACOPY PUSH2 0x36F1 JUMP JUMPDEST PUSH1 0x60 SWAP2 POP JUMPDEST POP DUP1 MLOAD PUSH2 0x3710 JUMPI PUSH1 0x40 MLOAD PUSH3 0x461BCD PUSH1 0xE5 SHL DUP2 MSTORE PUSH1 0x4 ADD PUSH2 0xC6F SWAP1 PUSH2 0x3F8E JUMP JUMPDEST DUP1 MLOAD DUP2 PUSH1 0x20 ADD REVERT JUMPDEST PUSH1 0x1 PUSH1 0x1 PUSH1 0xE0 SHL SUB NOT AND PUSH4 0xA85BD01 PUSH1 0xE1 SHL EQ SWAP1 POP PUSH2 0x2D35 JUMP JUMPDEST POP PUSH1 0x1 SWAP5 SWAP4 POP POP POP POP JUMP JUMPDEST PUSH1 0x0 PUSH1 0x1 PUSH2 0x374A DUP5 PUSH2 0x1A77 JUMP JUMPDEST PUSH2 0x3754 SWAP2 SWAP1 PUSH2 0x41CB JUMP JUMPDEST PUSH1 0x0 DUP4 DUP2 MSTORE PUSH1 0x7 PUSH1 0x20 MSTORE PUSH1 0x40 SWAP1 KECCAK256 SLOAD SWAP1 SWAP2 POP DUP1 DUP3 EQ PUSH2 0x37A7 JUMPI PUSH1 0x1 PUSH1 0x1 PUSH1 0xA0 SHL SUB DUP5 AND PUSH1 0x0 SWAP1 DUP2 MSTORE PUSH1 0x6 PUSH1 0x20 SWAP1 DUP2 MSTORE PUSH1 0x40 DUP1 DUP4 KECCAK256 DUP6 DUP5 MSTORE DUP3 MSTORE DUP1 DUP4 KECCAK256 SLOAD DUP5 DUP5 MSTORE DUP2 DUP5 KECCAK256 DUP2 SWAP1 SSTORE DUP4 MSTORE PUSH1 0x7 SWAP1 SWAP2 MSTORE SWAP1 KECCAK256 DUP2 SWAP1 SSTORE JUMPDEST POP PUSH1 0x0 SWAP2 DUP3 MSTORE PUSH1 0x7 PUSH1 0x20 SWAP1 DUP2 MSTORE PUSH1 0x40 DUP1 DUP5 KECCAK256 DUP5 SWAP1 SSTORE PUSH1 0x1 PUSH1 0x1 PUSH1 0xA0 SHL SUB SWAP1 SWAP5 AND DUP4 MSTORE PUSH1 0x6 DUP2 MSTORE DUP4 DUP4 KECCAK256 SWAP2 DUP4 MSTORE MSTORE SWAP1 DUP2 KECCAK256 SSTORE JUMP JUMPDEST PUSH1 0x8 SLOAD PUSH1 0x0 SWAP1 PUSH2 0x37EC SWAP1 PUSH1 0x1 SWAP1 PUSH2 0x41CB JUMP JUMPDEST PUSH1 0x0 DUP4 DUP2 MSTORE PUSH1 0x9 PUSH1 0x20 MSTORE PUSH1 0x40 DUP2 KECCAK256 SLOAD PUSH1 0x8 DUP1 SLOAD SWAP4 SWAP5 POP SWAP1 SWAP3 DUP5 SWAP1 DUP2 LT PUSH2 0x3822 JUMPI PUSH4 0x4E487B71 PUSH1 0xE0 SHL PUSH1 0x0 MSTORE PUSH1 0x32 PUSH1 0x4 MSTORE PUSH1 0x24 PUSH1 0x0 REVERT JUMPDEST SWAP1 PUSH1 0x0 MSTORE PUSH1 0x20 PUSH1 0x0 KECCAK256 ADD SLOAD SWAP1 POP DUP1 PUSH1 0x8 DUP4 DUP2 SLOAD DUP2 LT PUSH2 0x3851 JUMPI PUSH4 0x4E487B71 PUSH1 0xE0 SHL PUSH1 0x0 MSTORE PUSH1 0x32 PUSH1 0x4 MSTORE PUSH1 0x24 PUSH1 0x0 REVERT JUMPDEST PUSH1 0x0 SWAP2 DUP3 MSTORE PUSH1 0x20 DUP1 DUP4 KECCAK256 SWAP1 SWAP2 ADD SWAP3 SWAP1 SWAP3 SSTORE DUP3 DUP2 MSTORE PUSH1 0x9 SWAP1 SWAP2 MSTORE PUSH1 0x40 DUP1 DUP3 KECCAK256 DUP5 SWAP1 SSTORE DUP6 DUP3 MSTORE DUP2 KECCAK256 SSTORE PUSH1 0x8 DUP1 SLOAD DUP1 PUSH2 0x3897 JUMPI PUSH4 0x4E487B71 PUSH1 0xE0 SHL PUSH1 0x0 MSTORE PUSH1 0x31 PUSH1 0x4 MSTORE PUSH1 0x24 PUSH1 0x0 REVERT JUMPDEST PUSH1 0x1 SWAP1 SUB DUP2 DUP2 SWAP1 PUSH1 0x0 MSTORE PUSH1 0x20 PUSH1 0x0 KECCAK256 ADD PUSH1 0x0 SWAP1 SSTORE SWAP1 SSTORE POP POP POP POP JUMP JUMPDEST PUSH1 0x0 PUSH2 0x38BE DUP4 PUSH2 0x1A77 JUMP JUMPDEST PUSH1 0x1 PUSH1 0x1 PUSH1 0xA0 SHL SUB SWAP1 SWAP4 AND PUSH1 0x0 SWAP1 DUP2 MSTORE PUSH1 0x6 PUSH1 0x20 SWAP1 DUP2 MSTORE PUSH1 0x40 DUP1 DUP4 KECCAK256 DUP7 DUP5 MSTORE DUP3 MSTORE DUP1 DUP4 KECCAK256 DUP6 SWAP1 SSTORE SWAP4 DUP3 MSTORE PUSH1 0x7 SWAP1 MSTORE SWAP2 SWAP1 SWAP2 KECCAK256 SWAP2 SWAP1 SWAP2 SSTORE POP JUMP JUMPDEST DUP3 DUP1 SLOAD PUSH2 0x3903 SWAP1 PUSH2 0x4225 JUMP JUMPDEST SWAP1 PUSH1 0x0 MSTORE PUSH1 0x20 PUSH1 0x0 KECCAK256 SWAP1 PUSH1 0x1F ADD PUSH1 0x20 SWAP1 DIV DUP2 ADD SWAP3 DUP3 PUSH2 0x3925 JUMPI PUSH1 0x0 DUP6 SSTORE PUSH2 0x396B JUMP JUMPDEST DUP3 PUSH1 0x1F LT PUSH2 0x393E JUMPI DUP1 MLOAD PUSH1 0xFF NOT AND DUP4 DUP1 ADD OR DUP6 SSTORE PUSH2 0x396B JUMP JUMPDEST DUP3 DUP1 ADD PUSH1 0x1 ADD DUP6 SSTORE DUP3 ISZERO PUSH2 0x396B JUMPI SWAP2 DUP3 ADD JUMPDEST DUP3 DUP2 GT ISZERO PUSH2 0x396B JUMPI DUP3 MLOAD DUP3 SSTORE SWAP2 PUSH1 0x20 ADD SWAP2 SWAP1 PUSH1 0x1 ADD SWAP1 PUSH2 0x3950 JUMP JUMPDEST POP PUSH2 0x3137 SWAP3 SWAP2 POP PUSH2 0x39FC JUMP JUMPDEST PUSH1 0x40 MLOAD DUP1 PUSH1 0x40 ADD PUSH1 0x40 MSTORE DUP1 PUSH1 0x2 SWAP1 PUSH1 0x20 DUP3 MUL DUP1 CALLDATASIZE DUP4 CALLDATACOPY POP SWAP2 SWAP3 SWAP2 POP POP JUMP JUMPDEST DUP3 DUP1 SLOAD DUP3 DUP3 SSTORE SWAP1 PUSH1 0x0 MSTORE PUSH1 0x20 PUSH1 0x0 KECCAK256 SWAP1 DUP2 ADD SWAP3 DUP3 ISZERO PUSH2 0x396B JUMPI SWAP2 PUSH1 0x20 MUL DUP3 ADD DUP3 DUP2 GT ISZERO PUSH2 0x396B JUMPI DUP3 MLOAD DUP3 SSTORE SWAP2 PUSH1 0x20 ADD SWAP2 SWAP1 PUSH1 0x1 ADD SWAP1 PUSH2 0x3950 JUMP JUMPDEST DUP3 PUSH1 0x2 DUP2 ADD SWAP3 DUP3 ISZERO PUSH2 0x396B JUMPI SWAP2 PUSH1 0x20 MUL DUP3 ADD DUP3 DUP2 GT ISZERO PUSH2 0x396B JUMPI DUP3 MLOAD DUP3 SSTORE SWAP2 PUSH1 0x20 ADD SWAP2 SWAP1 PUSH1 0x1 ADD SWAP1 PUSH2 0x3950 JUMP JUMPDEST JUMPDEST DUP1 DUP3 GT ISZERO PUSH2 0x3137 JUMPI PUSH1 0x0 DUP2 SSTORE PUSH1 0x1 ADD PUSH2 0x39FD JUMP JUMPDEST PUSH1 0x0 PUSH8 0xFFFFFFFFFFFFFFFF DUP4 GT ISZERO PUSH2 0x3A2B JUMPI PUSH2 0x3A2B PUSH2 0x42BB JUMP JUMPDEST PUSH2 0x3A3E PUSH1 0x1F DUP5 ADD PUSH1 0x1F NOT AND PUSH1 0x20 ADD PUSH2 0x414F JUMP JUMPDEST SWAP1 POP DUP3 DUP2 MSTORE DUP4 DUP4 DUP4 ADD GT ISZERO PUSH2 0x3A52 JUMPI PUSH1 0x0 DUP1 REVERT JUMPDEST DUP3 DUP3 PUSH1 0x20 DUP4 ADD CALLDATACOPY PUSH1 0x0 PUSH1 0x20 DUP5 DUP4 ADD ADD MSTORE SWAP4 SWAP3 POP POP POP JUMP JUMPDEST DUP1 CALLDATALOAD PUSH1 0x1 PUSH1 0x1 PUSH1 0xA0 SHL SUB DUP2 AND DUP2 EQ PUSH2 0x3A80 JUMPI PUSH1 0x0 DUP1 REVERT JUMPDEST SWAP2 SWAP1 POP JUMP JUMPDEST PUSH1 0x0 PUSH1 0x20 DUP3 DUP5 SUB SLT ISZERO PUSH2 0x3A96 JUMPI DUP1 DUP2 REVERT JUMPDEST PUSH2 0xD75 DUP3 PUSH2 0x3A69 JUMP JUMPDEST PUSH1 0x0 DUP1 PUSH1 0x40 DUP4 DUP6 SUB SLT ISZERO PUSH2 0x3AB1 JUMPI DUP1 DUP2 REVERT JUMPDEST PUSH2 0x3ABA DUP4 PUSH2 0x3A69 JUMP JUMPDEST SWAP2 POP PUSH2 0x3AC8 PUSH1 0x20 DUP5 ADD PUSH2 0x3A69 JUMP JUMPDEST SWAP1 POP SWAP3 POP SWAP3 SWAP1 POP JUMP JUMPDEST PUSH1 0x0 DUP1 PUSH1 0x0 PUSH1 0x60 DUP5 DUP7 SUB SLT ISZERO PUSH2 0x3AE5 JUMPI DUP1 DUP2 REVERT JUMPDEST PUSH2 0x3AEE DUP5 PUSH2 0x3A69 JUMP JUMPDEST SWAP3 POP PUSH2 0x3AFC PUSH1 0x20 DUP6 ADD PUSH2 0x3A69 JUMP JUMPDEST SWAP2 POP PUSH1 0x40 DUP5 ADD CALLDATALOAD SWAP1 POP SWAP3 POP SWAP3 POP SWAP3 JUMP JUMPDEST PUSH1 0x0 DUP1 PUSH1 0x0 DUP1 PUSH1 0x80 DUP6 DUP8 SUB SLT ISZERO PUSH2 0x3B21 JUMPI DUP1 DUP2 REVERT JUMPDEST PUSH2 0x3B2A DUP6 PUSH2 0x3A69 JUMP JUMPDEST SWAP4 POP PUSH2 0x3B38 PUSH1 0x20 DUP7 ADD PUSH2 0x3A69 JUMP JUMPDEST SWAP3 POP PUSH1 0x40 DUP6 ADD CALLDATALOAD SWAP2 POP PUSH1 0x60 DUP6 ADD CALLDATALOAD PUSH8 0xFFFFFFFFFFFFFFFF DUP2 GT ISZERO PUSH2 0x3B5A JUMPI DUP2 DUP3 REVERT JUMPDEST DUP6 ADD PUSH1 0x1F DUP2 ADD DUP8 SGT PUSH2 0x3B6A JUMPI DUP2 DUP3 REVERT JUMPDEST PUSH2 0x3B79 DUP8 DUP3 CALLDATALOAD PUSH1 0x20 DUP5 ADD PUSH2 0x3A11 JUMP JUMPDEST SWAP2 POP POP SWAP3 SWAP6 SWAP2 SWAP5 POP SWAP3 POP JUMP JUMPDEST PUSH1 0x0 DUP1 PUSH1 0x60 DUP4 DUP6 SUB SLT ISZERO PUSH2 0x3B97 JUMPI DUP2 DUP3 REVERT JUMPDEST PUSH2 0x3BA0 DUP4 PUSH2 0x3A69 JUMP JUMPDEST SWAP2 POP PUSH1 0x20 DUP5 PUSH1 0x3F DUP6 ADD SLT PUSH2 0x3BB2 JUMPI DUP2 DUP3 REVERT JUMPDEST PUSH1 0x40 MLOAD PUSH1 0x40 DUP2 ADD DUP2 DUP2 LT PUSH8 0xFFFFFFFFFFFFFFFF DUP3 GT OR ISZERO PUSH2 0x3BD5 JUMPI PUSH2 0x3BD5 PUSH2 0x42BB JUMP JUMPDEST PUSH1 0x40 MSTORE DUP1 DUP6 DUP4 ADD PUSH1 0x60 DUP8 ADD DUP9 LT ISZERO PUSH2 0x3BEB JUMPI DUP5 DUP6 REVERT JUMPDEST DUP5 JUMPDEST PUSH1 0x2 DUP2 LT ISZERO PUSH2 0x3C0A JUMPI DUP2 CALLDATALOAD DUP4 MSTORE SWAP2 DUP5 ADD SWAP2 SWAP1 DUP5 ADD SWAP1 PUSH1 0x1 ADD PUSH2 0x3BED JUMP JUMPDEST POP POP POP DUP1 SWAP3 POP POP POP SWAP3 POP SWAP3 SWAP1 POP JUMP JUMPDEST PUSH1 0x0 DUP1 PUSH1 0x40 DUP4 DUP6 SUB SLT ISZERO PUSH2 0x3C2B JUMPI DUP2 DUP3 REVERT JUMPDEST PUSH2 0x3C34 DUP4 PUSH2 0x3A69 JUMP JUMPDEST SWAP2 POP PUSH1 0x20 DUP4 ADD CALLDATALOAD DUP1 ISZERO ISZERO DUP2 EQ PUSH2 0x3C48 JUMPI DUP2 DUP3 REVERT JUMPDEST DUP1 SWAP2 POP POP SWAP3 POP SWAP3 SWAP1 POP JUMP JUMPDEST PUSH1 0x0 DUP1 PUSH1 0x40 DUP4 DUP6 SUB SLT ISZERO PUSH2 0x3C65 JUMPI DUP2 DUP3 REVERT JUMPDEST PUSH2 0x3C6E DUP4 PUSH2 0x3A69 JUMP JUMPDEST SWAP5 PUSH1 0x20 SWAP4 SWAP1 SWAP4 ADD CALLDATALOAD SWAP4 POP POP POP JUMP JUMPDEST PUSH1 0x0 PUSH1 0x20 DUP1 DUP4 DUP6 SUB SLT ISZERO PUSH2 0x3C8E JUMPI DUP2 DUP3 REVERT JUMPDEST DUP3 CALLDATALOAD PUSH8 0xFFFFFFFFFFFFFFFF DUP1 DUP3 GT ISZERO PUSH2 0x3CA5 JUMPI DUP4 DUP5 REVERT JUMPDEST DUP2 DUP6 ADD SWAP2 POP DUP6 PUSH1 0x1F DUP4 ADD SLT PUSH2 0x3CB8 JUMPI DUP4 DUP5 REVERT JUMPDEST DUP2 CALLDATALOAD DUP2 DUP2 GT ISZERO PUSH2 0x3CCA JUMPI PUSH2 0x3CCA PUSH2 0x42BB JUMP JUMPDEST DUP1 PUSH1 0x5 SHL SWAP2 POP PUSH2 0x3CDB DUP5 DUP4 ADD PUSH2 0x414F JUMP JUMPDEST DUP2 DUP2 MSTORE DUP5 DUP2 ADD SWAP1 DUP5 DUP7 ADD DUP5 DUP7 ADD DUP8 ADD DUP11 LT ISZERO PUSH2 0x3CF5 JUMPI DUP8 DUP9 REVERT JUMPDEST DUP8 SWAP6 POP JUMPDEST DUP4 DUP7 LT ISZERO PUSH2 0x3D17 JUMPI DUP1 CALLDATALOAD DUP4 MSTORE PUSH1 0x1 SWAP6 SWAP1 SWAP6 ADD SWAP5 SWAP2 DUP7 ADD SWAP2 DUP7 ADD PUSH2 0x3CF9 JUMP JUMPDEST POP SWAP9 SWAP8 POP POP POP POP POP POP POP POP JUMP JUMPDEST PUSH1 0x0 PUSH1 0x20 DUP3 DUP5 SUB SLT ISZERO PUSH2 0x3D35 JUMPI DUP1 DUP2 REVERT JUMPDEST DUP2 CALLDATALOAD PUSH2 0xD75 DUP2 PUSH2 0x42D1 JUMP JUMPDEST PUSH1 0x0 PUSH1 0x20 DUP3 DUP5 SUB SLT ISZERO PUSH2 0x3D51 JUMPI DUP1 DUP2 REVERT JUMPDEST DUP2 MLOAD PUSH2 0xD75 DUP2 PUSH2 0x42D1 JUMP JUMPDEST PUSH1 0x0 PUSH1 0x20 DUP3 DUP5 SUB SLT ISZERO PUSH2 0x3D6D JUMPI DUP1 DUP2 REVERT JUMPDEST DUP2 CALLDATALOAD PUSH8 0xFFFFFFFFFFFFFFFF DUP2 GT ISZERO PUSH2 0x3D83 JUMPI DUP2 DUP3 REVERT JUMPDEST DUP3 ADD PUSH1 0x1F DUP2 ADD DUP5 SGT PUSH2 0x3D93 JUMPI DUP2 DUP3 REVERT JUMPDEST PUSH2 0x2D35 DUP5 DUP3 CALLDATALOAD PUSH1 0x20 DUP5 ADD PUSH2 0x3A11 JUMP JUMPDEST PUSH1 0x0 PUSH1 0x20 DUP3 DUP5 SUB SLT ISZERO PUSH2 0x3DB3 JUMPI DUP1 DUP2 REVERT JUMPDEST POP CALLDATALOAD SWAP2 SWAP1 POP JUMP JUMPDEST PUSH1 0x0 DUP1 PUSH1 0x40 DUP4 DUP6 SUB SLT ISZERO PUSH2 0x3DCC JUMPI DUP2 DUP3 REVERT JUMPDEST POP POP DUP1 CALLDATALOAD SWAP3 PUSH1 0x20 SWAP1 SWAP2 ADD CALLDATALOAD SWAP2 POP JUMP JUMPDEST DUP1 PUSH1 0x0 JUMPDEST PUSH1 0x2 DUP2 LT ISZERO PUSH2 0x2495 JUMPI DUP2 MLOAD DUP5 MSTORE PUSH1 0x20 SWAP4 DUP5 ADD SWAP4 SWAP1 SWAP2 ADD SWAP1 PUSH1 0x1 ADD PUSH2 0x3DDF JUMP JUMPDEST PUSH1 0x0 DUP2 MLOAD DUP1 DUP5 MSTORE PUSH2 0x3E16 DUP2 PUSH1 0x20 DUP7 ADD PUSH1 0x20 DUP7 ADD PUSH2 0x41E2 JUMP JUMPDEST PUSH1 0x1F ADD PUSH1 0x1F NOT AND SWAP3 SWAP1 SWAP3 ADD PUSH1 0x20 ADD SWAP3 SWAP2 POP POP JUMP JUMPDEST PUSH1 0x0 DUP2 MLOAD PUSH2 0x3E3C DUP2 DUP6 PUSH1 0x20 DUP7 ADD PUSH2 0x41E2 JUMP JUMPDEST SWAP3 SWAP1 SWAP3 ADD SWAP3 SWAP2 POP POP JUMP JUMPDEST PUSH1 0x0 DUP1 DUP5 SLOAD DUP3 PUSH1 0x1 DUP3 DUP2 SHR SWAP2 POP DUP1 DUP4 AND DUP1 PUSH2 0x3E62 JUMPI PUSH1 0x7F DUP4 AND SWAP3 POP JUMPDEST PUSH1 0x20 DUP1 DUP5 LT DUP3 EQ ISZERO PUSH2 0x3E82 JUMPI PUSH4 0x4E487B71 PUSH1 0xE0 SHL DUP8 MSTORE PUSH1 0x22 PUSH1 0x4 MSTORE PUSH1 0x24 DUP8 REVERT JUMPDEST DUP2 DUP1 ISZERO PUSH2 0x3E96 JUMPI PUSH1 0x1 DUP2 EQ PUSH2 0x3EA7 JUMPI PUSH2 0x3ED3 JUMP JUMPDEST PUSH1 0xFF NOT DUP7 AND DUP10 MSTORE DUP5 DUP10 ADD SWAP7 POP PUSH2 0x3ED3 JUMP JUMPDEST PUSH1 0x0 DUP12 DUP2 MSTORE PUSH1 0x20 SWAP1 KECCAK256 DUP9 JUMPDEST DUP7 DUP2 LT ISZERO PUSH2 0x3ECB JUMPI DUP2 SLOAD DUP12 DUP3 ADD MSTORE SWAP1 DUP6 ADD SWAP1 DUP4 ADD PUSH2 0x3EB2 JUMP JUMPDEST POP POP DUP5 DUP10 ADD SWAP7 POP JUMPDEST POP POP POP POP POP POP PUSH2 0x3EE3 DUP2 DUP6 PUSH2 0x3E2A JUMP JUMPDEST SWAP6 SWAP5 POP POP POP POP POP JUMP JUMPDEST PUSH1 0x1 PUSH1 0x1 PUSH1 0xA0 SHL SUB DUP6 DUP2 AND DUP3 MSTORE DUP5 AND PUSH1 0x20 DUP3 ADD MSTORE PUSH1 0x40 DUP2 ADD DUP4 SWAP1 MSTORE PUSH1 0x80 PUSH1 0x60 DUP3 ADD DUP2 SWAP1 MSTORE PUSH1 0x0 SWAP1 PUSH2 0x3F1F SWAP1 DUP4 ADD DUP5 PUSH2 0x3DFE JUMP JUMPDEST SWAP7 SWAP6 POP POP POP POP POP POP JUMP JUMPDEST PUSH1 0x40 DUP2 ADD PUSH2 0xB62 DUP3 DUP5 PUSH2 0x3DDB JUMP JUMPDEST PUSH1 0x20 DUP1 DUP3 MSTORE DUP3 MLOAD DUP3 DUP3 ADD DUP2 SWAP1 MSTORE PUSH1 0x0 SWAP2 SWAP1 DUP5 DUP3 ADD SWAP1 PUSH1 0x40 DUP6 ADD SWAP1 DUP5 JUMPDEST DUP2 DUP2 LT ISZERO PUSH2 0x3F6F JUMPI DUP4 MLOAD DUP4 MSTORE SWAP3 DUP5 ADD SWAP3 SWAP2 DUP5 ADD SWAP2 PUSH1 0x1 ADD PUSH2 0x3F53 JUMP JUMPDEST POP SWAP1 SWAP7 SWAP6 POP POP POP POP POP POP JUMP JUMPDEST PUSH1 0x20 DUP2 MSTORE PUSH1 0x0 PUSH2 0xD75 PUSH1 0x20 DUP4 ADD DUP5 PUSH2 0x3DFE JUMP JUMPDEST PUSH1 0x20 DUP1 DUP3 MSTORE PUSH1 0x32 SWAP1 DUP3 ADD MSTORE PUSH32 0x4552433732313A207472616E7366657220746F206E6F6E204552433732315265 PUSH1 0x40 DUP3 ADD MSTORE PUSH18 0x31B2B4BB32B91034B6B83632B6B2B73A32B9 PUSH1 0x71 SHL PUSH1 0x60 DUP3 ADD MSTORE PUSH1 0x80 ADD SWAP1 JUMP JUMPDEST PUSH1 0x20 DUP1 DUP3 MSTORE DUP2 DUP2 ADD MSTORE PUSH32 0x4F776E61626C653A2063616C6C6572206973206E6F7420746865206F776E6572 PUSH1 0x40 DUP3 ADD MSTORE PUSH1 0x60 ADD SWAP1 JUMP JUMPDEST PUSH1 0x20 DUP1 DUP3 MSTORE PUSH1 0xE SWAP1 DUP3 ADD MSTORE PUSH14 0x1B9BC81B5A5B9D08185B5BDD5B9D PUSH1 0x92 SHL PUSH1 0x40 DUP3 ADD MSTORE PUSH1 0x60 ADD SWAP1 JUMP JUMPDEST PUSH1 0x20 DUP1 DUP3 MSTORE PUSH1 0x31 SWAP1 DUP3 ADD MSTORE PUSH32 0x4552433732313A207472616E736665722063616C6C6572206973206E6F74206F PUSH1 0x40 DUP3 ADD MSTORE PUSH17 0x1DDB995C881B9BDC88185C1C1C9BDD9959 PUSH1 0x7A SHL PUSH1 0x60 DUP3 ADD MSTORE PUSH1 0x80 ADD SWAP1 JUMP JUMPDEST PUSH1 0x20 DUP1 DUP3 MSTORE PUSH1 0x9 SWAP1 DUP3 ADD MSTORE PUSH9 0x3737BA1030B236B4B7 PUSH1 0xB9 SHL PUSH1 0x40 DUP3 ADD MSTORE PUSH1 0x60 ADD SWAP1 JUMP JUMPDEST PUSH1 0x0 PUSH2 0x120 DUP3 ADD SWAP1 POP DUP10 DUP3 MSTORE DUP9 PUSH1 0x20 DUP4 ADD MSTORE DUP8 PUSH1 0x40 DUP4 ADD MSTORE DUP7 PUSH1 0x60 DUP4 ADD MSTORE PUSH2 0x40DC PUSH1 0x80 DUP4 ADD DUP8 PUSH2 0x3DDB JUMP JUMPDEST DUP5 PUSH1 0xC0 DUP4 ADD MSTORE DUP4 PUSH1 0xE0 DUP4 ADD MSTORE DUP3 PUSH2 0x100 DUP4 ADD MSTORE SWAP10 SWAP9 POP POP POP POP POP POP POP POP POP JUMP JUMPDEST PUSH1 0x0 PUSH2 0x140 DUP3 ADD SWAP1 POP DUP11 DUP3 MSTORE DUP10 PUSH1 0x20 DUP4 ADD MSTORE DUP9 PUSH1 0x40 DUP4 ADD MSTORE DUP8 PUSH1 0x60 DUP4 ADD MSTORE PUSH2 0x4127 PUSH1 0x80 DUP4 ADD DUP9 PUSH2 0x3DDB JUMP JUMPDEST DUP6 PUSH1 0xC0 DUP4 ADD MSTORE DUP5 PUSH1 0xE0 DUP4 ADD MSTORE DUP4 PUSH2 0x100 DUP4 ADD MSTORE DUP3 PUSH2 0x120 DUP4 ADD MSTORE SWAP11 SWAP10 POP POP POP POP POP POP POP POP POP POP JUMP JUMPDEST PUSH1 0x40 MLOAD PUSH1 0x1F DUP3 ADD PUSH1 0x1F NOT AND DUP2 ADD PUSH8 0xFFFFFFFFFFFFFFFF DUP2 GT DUP3 DUP3 LT OR ISZERO PUSH2 0x4178 JUMPI PUSH2 0x4178 PUSH2 0x42BB JUMP JUMPDEST PUSH1 0x40 MSTORE SWAP2 SWAP1 POP JUMP JUMPDEST PUSH1 0x0 DUP3 NOT DUP3 GT ISZERO PUSH2 0x4193 JUMPI PUSH2 0x4193 PUSH2 0x428F JUMP JUMPDEST POP ADD SWAP1 JUMP JUMPDEST PUSH1 0x0 DUP3 PUSH2 0x41A7 JUMPI PUSH2 0x41A7 PUSH2 0x42A5 JUMP JUMPDEST POP DIV SWAP1 JUMP JUMPDEST PUSH1 0x0 DUP2 PUSH1 0x0 NOT DIV DUP4 GT DUP3 ISZERO ISZERO AND ISZERO PUSH2 0x41C6 JUMPI PUSH2 0x41C6 PUSH2 0x428F JUMP JUMPDEST POP MUL SWAP1 JUMP JUMPDEST PUSH1 0x0 DUP3 DUP3 LT ISZERO PUSH2 0x41DD JUMPI PUSH2 0x41DD PUSH2 0x428F JUMP JUMPDEST POP SUB SWAP1 JUMP JUMPDEST PUSH1 0x0 JUMPDEST DUP4 DUP2 LT ISZERO PUSH2 0x41FD JUMPI DUP2 DUP2 ADD MLOAD DUP4 DUP3 ADD MSTORE PUSH1 0x20 ADD PUSH2 0x41E5 JUMP JUMPDEST DUP4 DUP2 GT ISZERO PUSH2 0x2495 JUMPI POP POP PUSH1 0x0 SWAP2 ADD MSTORE JUMP JUMPDEST PUSH1 0x0 DUP2 PUSH2 0x421D JUMPI PUSH2 0x421D PUSH2 0x428F JUMP JUMPDEST POP PUSH1 0x0 NOT ADD SWAP1 JUMP JUMPDEST PUSH1 0x1 DUP2 DUP2 SHR SWAP1 DUP3 AND DUP1 PUSH2 0x4239 JUMPI PUSH1 0x7F DUP3 AND SWAP2 POP JUMPDEST PUSH1 0x20 DUP3 LT DUP2 EQ ISZERO PUSH2 0x425A JUMPI PUSH4 0x4E487B71 PUSH1 0xE0 SHL PUSH1 0x0 MSTORE PUSH1 0x22 PUSH1 0x4 MSTORE PUSH1 0x24 PUSH1 0x0 REVERT JUMPDEST POP SWAP2 SWAP1 POP JUMP JUMPDEST PUSH1 0x0 PUSH1 0x0 NOT DUP3 EQ ISZERO PUSH2 0x4274 JUMPI PUSH2 0x4274 PUSH2 0x428F JUMP JUMPDEST POP PUSH1 0x1 ADD SWAP1 JUMP JUMPDEST PUSH1 0x0 DUP3 PUSH2 0x428A JUMPI PUSH2 0x428A PUSH2 0x42A5 JUMP JUMPDEST POP MOD SWAP1 JUMP JUMPDEST PUSH4 0x4E487B71 PUSH1 0xE0 SHL PUSH1 0x0 MSTORE PUSH1 0x11 PUSH1 0x4 MSTORE PUSH1 0x24 PUSH1 0x0 REVERT JUMPDEST PUSH4 0x4E487B71 PUSH1 0xE0 SHL PUSH1 0x0 MSTORE PUSH1 0x12 PUSH1 0x4 MSTORE PUSH1 0x24 PUSH1 0x0 REVERT JUMPDEST PUSH4 0x4E487B71 PUSH1 0xE0 SHL PUSH1 0x0 MSTORE PUSH1 0x41 PUSH1 0x4 MSTORE PUSH1 0x24 PUSH1 0x0 REVERT JUMPDEST PUSH1 0x1 PUSH1 0x1 PUSH1 0xE0 SHL SUB NOT DUP2 AND DUP2 EQ PUSH2 0x2BF3 JUMPI PUSH1 0x0 DUP1 REVERT INVALID LOG2 PUSH5 0x6970667358 0x22 SLT KECCAK256 PUSH7 0xF59434A5834BC8 ADD PUSH23 0x92989A068478403F2EEF0850382CE2944406DDCB923564 PUSH20 0x6F6C634300080400330000000000000000000000 "
		},
		"gasEstimates": {
			"creation": {
				"codeDepositCost": "3436200",
				"executionCost": "infinite",
				"totalCost": "infinite"
			},
			"external": {
				"addDeadTime(uint256,uint256)": "26451",
				"addExp(uint256,uint256)": "22243",
				"admin(address)": "1354",
				"approve(address,uint256)": "21434",
				"balanceOf(address)": "1378",
				"burn(uint256)": "infinite",
				"burned()": "1150",
				"checkUserCowList(address)": "infinite",
				"checkUserCowListType(address,bool)": "infinite",
				"cowInfoes(uint256)": "12126",
				"cowLimit(uint256)": "2042",
				"creationAmount()": "1128",
				"creationIndex(uint256)": "1229",
				"currentId()": "1128",
				"deadTime(uint256)": "1278",
				"destroy()": "31090",
				"femaleCreation()": "1109",
				"getAdult(uint256)": "1213",
				"getApproved(uint256)": "2228",
				"getAttack(uint256)": "4880",
				"getBronTime(uint256)": "1234",
				"getCowParents(uint256)": "infinite",
				"getDefense(uint256)": "4857",
				"getEnergy(uint256)": "1235",
				"getGender(uint256)": "1293",
				"getGrowth(uint256)": "1234",
				"getLife(uint256)": "1235",
				"getMilk(uint256)": "4860",
				"getMilkRate(uint256)": "4881",
				"getStamina(uint256)": "4902",
				"getStar(uint256)": "1256",
				"growUp(uint256)": "25078",
				"initCreation()": "infinite",
				"isApprove(address,address,uint256)": "infinite",
				"isApprovedForAll(address,address)": "infinite",
				"isCreation(uint256)": "1227",
				"maleCreation()": "1128",
				"maxLife()": "1086",
				"mint(address)": "infinite",
				"mintNormall(address,uint256[2])": "infinite",
				"mintNormallWithParents(address)": "infinite",
				"mintersCreation(address)": "1330",
				"mintersNormal(address)": "1374",
				"myBaseURI()": "infinite",
				"name()": "infinite",
				"owner()": "1099",
				"ownerOf(uint256)": "1368",
				"renounceOwnership()": "23528",
				"safeTransferFrom(address,address,uint256)": "infinite",
				"safeTransferFrom(address,address,uint256,bytes)": "infinite",
				"setAdmin(address,bool)": "22247",
				"setApprovalForAll(address,bool)": "23398",
				"setBaseURI(string)": "infinite",
				"setDeadTime(uint256,uint256)": "21297",
				"setGender(uint256,uint256)": "41168",
				"setLimit(uint256[])": "infinite",
				"setMintersCreation(address,uint256)": "21346",
				"setMintersNormal(address,uint256)": "21369",
				"setSuperMinter(address)": "22100",
				"starLimit(uint256)": "2042",
				"superMinter()": "1127",
				"supportsInterface(bytes4)": "infinite",
				"symbol()": "infinite",
				"tokenByIndex(uint256)": "2883",
				"tokenOfOwnerByIndex(address,uint256)": "2398",
				"tokenURI(uint256)": "infinite",
				"totalSupply()": "1127",
				"transferFrom(address,address,uint256)": "infinite",
				"transferOwnership(address)": "23722",
				"upGradeStar(uint256)": "49027"
			},
			"internal": {
				"coutintRand(uint256)": "infinite",
				"rand(uint256)": "infinite",
				"randGender()": "infinite"
			}
		},
		"methodIdentifiers": {
			"addDeadTime(uint256,uint256)": "5f70a1d5",
			"addExp(uint256,uint256)": "4147da13",
			"admin(address)": "63a846f8",
			"approve(address,uint256)": "095ea7b3",
			"balanceOf(address)": "70a08231",
			"burn(uint256)": "42966c68",
			"burned()": "73f42561",
			"checkUserCowList(address)": "611f51ac",
			"checkUserCowListType(address,bool)": "9b7c6af8",
			"cowInfoes(uint256)": "f610e982",
			"cowLimit(uint256)": "c8877f8e",
			"creationAmount()": "7371bfe7",
			"creationIndex(uint256)": "44a299fc",
			"currentId()": "e00dd161",
			"deadTime(uint256)": "96822dae",
			"destroy()": "83197ef0",
			"femaleCreation()": "072c4907",
			"getAdult(uint256)": "9ad1f0bb",
			"getApproved(uint256)": "081812fc",
			"getAttack(uint256)": "cff840f0",
			"getBronTime(uint256)": "bba0f646",
			"getCowParents(uint256)": "5f64d7f3",
			"getDefense(uint256)": "eb22daa3",
			"getEnergy(uint256)": "7e0358a6",
			"getGender(uint256)": "e06d2eb5",
			"getGrowth(uint256)": "51c18e0c",
			"getLife(uint256)": "11251f1c",
			"getMilk(uint256)": "184e9c2d",
			"getMilkRate(uint256)": "92d9495d",
			"getStamina(uint256)": "e6225630",
			"getStar(uint256)": "c5426124",
			"growUp(uint256)": "84686c64",
			"initCreation()": "e440be00",
			"isApprove(address,address,uint256)": "ff45fec8",
			"isApprovedForAll(address,address)": "e985e9c5",
			"isCreation(uint256)": "f0a90ff0",
			"maleCreation()": "b969f222",
			"maxLife()": "232cba0d",
			"mint(address)": "6a627842",
			"mintNormall(address,uint256[2])": "ae9921de",
			"mintNormallWithParents(address)": "bb3b9740",
			"mintersCreation(address)": "d6eac26c",
			"mintersNormal(address)": "b9eea722",
			"myBaseURI()": "372a3b82",
			"name()": "06fdde03",
			"owner()": "8da5cb5b",
			"ownerOf(uint256)": "6352211e",
			"renounceOwnership()": "715018a6",
			"safeTransferFrom(address,address,uint256)": "42842e0e",
			"safeTransferFrom(address,address,uint256,bytes)": "b88d4fde",
			"setAdmin(address,bool)": "4b0bddd2",
			"setApprovalForAll(address,bool)": "a22cb465",
			"setBaseURI(string)": "55f804b3",
			"setDeadTime(uint256,uint256)": "4bcee787",
			"setGender(uint256,uint256)": "780ff402",
			"setLimit(uint256[])": "a435ff65",
			"setMintersCreation(address,uint256)": "33523433",
			"setMintersNormal(address,uint256)": "148eebd7",
			"setSuperMinter(address)": "b41d74d8",
			"starLimit(uint256)": "e2608438",
			"superMinter()": "62e42cb0",
			"supportsInterface(bytes4)": "01ffc9a7",
			"symbol()": "95d89b41",
			"tokenByIndex(uint256)": "4f6ccce7",
			"tokenOfOwnerByIndex(address,uint256)": "2f745c59",
			"tokenURI(uint256)": "c87b56dd",
			"totalSupply()": "18160ddd",
			"transferFrom(address,address,uint256)": "23b872dd",
			"transferOwnership(address)": "f2fde38b",
			"upGradeStar(uint256)": "25421013"
		}
	},
	"abi": [
		{
			"inputs": [],
			"stateMutability": "nonpayable",
			"type": "constructor"
		},
		{
			"anonymous": false,
			"inputs": [
				{
					"indexed": true,
					"internalType": "uint256",
					"name": "tokenId",
					"type": "uint256"
				},
				{
					"indexed": true,
					"internalType": "uint256",
					"name": "time",
					"type": "uint256"
				}
			],
			"name": "AddDeadTime",
			"type": "event"
		},
		{
			"anonymous": false,
			"inputs": [
				{
					"indexed": true,
					"internalType": "address",
					"name": "owner",
					"type": "address"
				},
				{
					"indexed": true,
					"internalType": "address",
					"name": "approved",
					"type": "address"
				},
				{
					"indexed": true,
					"internalType": "uint256",
					"name": "tokenId",
					"type": "uint256"
				}
			],
			"name": "Approval",
			"type": "event"
		},
		{
			"anonymous": false,
			"inputs": [
				{
					"indexed": true,
					"internalType": "address",
					"name": "owner",
					"type": "address"
				},
				{
					"indexed": true,
					"internalType": "address",
					"name": "operator",
					"type": "address"
				},
				{
					"indexed": false,
					"internalType": "bool",
					"name": "approved",
					"type": "bool"
				}
			],
			"name": "ApprovalForAll",
			"type": "event"
		},
		{
			"anonymous": false,
			"inputs": [
				{
					"indexed": true,
					"internalType": "address",
					"name": "sender_",
					"type": "address"
				},
				{
					"indexed": true,
					"internalType": "uint256",
					"name": "tokenId",
					"type": "uint256"
				},
				{
					"indexed": true,
					"internalType": "uint256",
					"name": "creationId",
					"type": "uint256"
				},
				{
					"indexed": false,
					"internalType": "uint256",
					"name": "life_",
					"type": "uint256"
				},
				{
					"indexed": false,
					"internalType": "uint256",
					"name": "energy_",
					"type": "uint256"
				},
				{
					"indexed": false,
					"internalType": "uint256",
					"name": "grow",
					"type": "uint256"
				},
				{
					"indexed": false,
					"internalType": "uint256",
					"name": "deadTime",
					"type": "uint256"
				},
				{
					"indexed": false,
					"internalType": "uint256",
					"name": "attack_",
					"type": "uint256"
				},
				{
					"indexed": false,
					"internalType": "uint256",
					"name": "defense_",
					"type": "uint256"
				},
				{
					"indexed": false,
					"internalType": "uint256",
					"name": "stamina_",
					"type": "uint256"
				}
			],
			"name": "BornCreationBull",
			"type": "event"
		},
		{
			"anonymous": false,
			"inputs": [
				{
					"indexed": true,
					"internalType": "address",
					"name": "sender_",
					"type": "address"
				},
				{
					"indexed": true,
					"internalType": "uint256",
					"name": "tokenId",
					"type": "uint256"
				},
				{
					"indexed": true,
					"internalType": "uint256",
					"name": "creationId",
					"type": "uint256"
				},
				{
					"indexed": false,
					"internalType": "uint256",
					"name": "life_",
					"type": "uint256"
				},
				{
					"indexed": false,
					"internalType": "uint256",
					"name": "energy_",
					"type": "uint256"
				},
				{
					"indexed": false,
					"internalType": "uint256",
					"name": "grow",
					"type": "uint256"
				},
				{
					"indexed": false,
					"internalType": "uint256",
					"name": "deadTime",
					"type": "uint256"
				},
				{
					"indexed": false,
					"internalType": "uint256",
					"name": "milk_",
					"type": "uint256"
				},
				{
					"indexed": false,
					"internalType": "uint256",
					"name": "milkRate_",
					"type": "uint256"
				}
			],
			"name": "BornCreationCow",
			"type": "event"
		},
		{
			"anonymous": false,
			"inputs": [
				{
					"indexed": true,
					"internalType": "address",
					"name": "sender_",
					"type": "address"
				},
				{
					"indexed": true,
					"internalType": "uint256",
					"name": "tokenId",
					"type": "uint256"
				},
				{
					"indexed": false,
					"internalType": "uint256",
					"name": "life_",
					"type": "uint256"
				},
				{
					"indexed": false,
					"internalType": "uint256",
					"name": "energy_",
					"type": "uint256"
				},
				{
					"indexed": false,
					"internalType": "uint256",
					"name": "grow",
					"type": "uint256"
				},
				{
					"indexed": false,
					"internalType": "uint256",
					"name": "star",
					"type": "uint256"
				},
				{
					"indexed": false,
					"internalType": "uint256[2]",
					"name": "parents",
					"type": "uint256[2]"
				},
				{
					"indexed": false,
					"internalType": "uint256",
					"name": "deadTime",
					"type": "uint256"
				},
				{
					"indexed": false,
					"internalType": "uint256",
					"name": "attack_",
					"type": "uint256"
				},
				{
					"indexed": false,
					"internalType": "uint256",
					"name": "defense_",
					"type": "uint256"
				},
				{
					"indexed": false,
					"internalType": "uint256",
					"name": "stamina_",
					"type": "uint256"
				}
			],
			"name": "BornNormalBull",
			"type": "event"
		},
		{
			"anonymous": false,
			"inputs": [
				{
					"indexed": true,
					"internalType": "address",
					"name": "sender_",
					"type": "address"
				},
				{
					"indexed": true,
					"internalType": "uint256",
					"name": "tokenId",
					"type": "uint256"
				},
				{
					"indexed": false,
					"internalType": "uint256",
					"name": "life_",
					"type": "uint256"
				},
				{
					"indexed": false,
					"internalType": "uint256",
					"name": "energy_",
					"type": "uint256"
				},
				{
					"indexed": false,
					"internalType": "uint256",
					"name": "grow",
					"type": "uint256"
				},
				{
					"indexed": false,
					"internalType": "uint256",
					"name": "star",
					"type": "uint256"
				},
				{
					"indexed": false,
					"internalType": "uint256[2]",
					"name": "parents",
					"type": "uint256[2]"
				},
				{
					"indexed": false,
					"internalType": "uint256",
					"name": "deadTime",
					"type": "uint256"
				},
				{
					"indexed": false,
					"internalType": "uint256",
					"name": "milk_",
					"type": "uint256"
				},
				{
					"indexed": false,
					"internalType": "uint256",
					"name": "milkRate_",
					"type": "uint256"
				}
			],
			"name": "BornNormalCow",
			"type": "event"
		},
		{
			"anonymous": false,
			"inputs": [
				{
					"indexed": true,
					"internalType": "uint256",
					"name": "tokenId",
					"type": "uint256"
				}
			],
			"name": "GrowUp",
			"type": "event"
		},
		{
			"anonymous": false,
			"inputs": [
				{
					"indexed": true,
					"internalType": "address",
					"name": "previousOwner",
					"type": "address"
				},
				{
					"indexed": true,
					"internalType": "address",
					"name": "newOwner",
					"type": "address"
				}
			],
			"name": "OwnershipTransferred",
			"type": "event"
		},
		{
			"anonymous": false,
			"inputs": [
				{
					"indexed": true,
					"internalType": "address",
					"name": "from",
					"type": "address"
				},
				{
					"indexed": true,
					"internalType": "address",
					"name": "to",
					"type": "address"
				},
				{
					"indexed": true,
					"internalType": "uint256",
					"name": "tokenId",
					"type": "uint256"
				}
			],
			"name": "Transfer",
			"type": "event"
		},
		{
			"anonymous": false,
			"inputs": [
				{
					"indexed": true,
					"internalType": "uint256",
					"name": "tokenId",
					"type": "uint256"
				},
				{
					"indexed": true,
					"internalType": "uint256",
					"name": "stars",
					"type": "uint256"
				}
			],
			"name": "UpGradeStar",
			"type": "event"
		},
		{
			"inputs": [
				{
					"internalType": "uint256",
					"name": "tokenId",
					"type": "uint256"
				},
				{
					"internalType": "uint256",
					"name": "time_",
					"type": "uint256"
				}
			],
			"name": "addDeadTime",
			"outputs": [],
			"stateMutability": "nonpayable",
			"type": "function"
		},
		{
			"inputs": [
				{
					"internalType": "uint256",
					"name": "tokenId_",
					"type": "uint256"
				},
				{
					"internalType": "uint256",
					"name": "amount_",
					"type": "uint256"
				}
			],
			"name": "addExp",
			"outputs": [],
			"stateMutability": "nonpayable",
			"type": "function"
		},
		{
			"inputs": [
				{
					"internalType": "address",
					"name": "",
					"type": "address"
				}
			],
			"name": "admin",
			"outputs": [
				{
					"internalType": "bool",
					"name": "",
					"type": "bool"
				}
			],
			"stateMutability": "view",
			"type": "function"
		},
		{
			"inputs": [
				{
					"internalType": "address",
					"name": "to",
					"type": "address"
				},
				{
					"internalType": "uint256",
					"name": "tokenId",
					"type": "uint256"
				}
			],
			"name": "approve",
			"outputs": [],
			"stateMutability": "nonpayable",
			"type": "function"
		},
		{
			"inputs": [
				{
					"internalType": "address",
					"name": "owner",
					"type": "address"
				}
			],
			"name": "balanceOf",
			"outputs": [
				{
					"internalType": "uint256",
					"name": "",
					"type": "uint256"
				}
			],
			"stateMutability": "view",
			"type": "function"
		},
		{
			"inputs": [
				{
					"internalType": "uint256",
					"name": "tokenId_",
					"type": "uint256"
				}
			],
			"name": "burn",
			"outputs": [
				{
					"internalType": "bool",
					"name": "",
					"type": "bool"
				}
			],
			"stateMutability": "nonpayable",
			"type": "function"
		},
		{
			"inputs": [],
			"name": "burned",
			"outputs": [
				{
					"internalType": "uint256",
					"name": "",
					"type": "uint256"
				}
			],
			"stateMutability": "view",
			"type": "function"
		},
		{
			"inputs": [
				{
					"internalType": "address",
					"name": "player",
					"type": "address"
				}
			],
			"name": "checkUserCowList",
			"outputs": [
				{
					"internalType": "uint256[]",
					"name": "",
					"type": "uint256[]"
				}
			],
			"stateMutability": "view",
			"type": "function"
		},
		{
			"inputs": [
				{
					"internalType": "address",
					"name": "player",
					"type": "address"
				},
				{
					"internalType": "bool",
					"name": "creation_",
					"type": "bool"
				}
			],
			"name": "checkUserCowListType",
			"outputs": [
				{
					"internalType": "uint256[]",
					"name": "",
					"type": "uint256[]"
				}
			],
			"stateMutability": "view",
			"type": "function"
		},
		{
			"inputs": [
				{
					"internalType": "uint256",
					"name": "",
					"type": "uint256"
				}
			],
			"name": "cowInfoes",
			"outputs": [
				{
					"internalType": "uint256",
					"name": "gender",
					"type": "uint256"
				},
				{
					"internalType": "uint256",
					"name": "bornTime",
					"type": "uint256"
				},
				{
					"internalType": "uint256",
					"name": "energy",
					"type": "uint256"
				},
				{
					"internalType": "uint256",
					"name": "life",
					"type": "uint256"
				},
				{
					"internalType": "uint256",
					"name": "growth",
					"type": "uint256"
				},
				{
					"internalType": "uint256",
					"name": "exp",
					"type": "uint256"
				},
				{
					"internalType": "bool",
					"name": "isAdult",
					"type": "bool"
				},
				{
					"internalType": "uint256",
					"name": "attack",
					"type": "uint256"
				},
				{
					"internalType": "uint256",
					"name": "stamina",
					"type": "uint256"
				},
				{
					"internalType": "uint256",
					"name": "defense",
					"type": "uint256"
				},
				{
					"internalType": "uint256",
					"name": "milk",
					"type": "uint256"
				},
				{
					"internalType": "uint256",
					"name": "milkRate",
					"type": "uint256"
				},
				{
					"internalType": "uint256",
					"name": "star",
					"type": "uint256"
				},
				{
					"internalType": "uint256",
					"name": "deadTime",
					"type": "uint256"
				}
			],
			"stateMutability": "view",
			"type": "function"
		},
		{
			"inputs": [
				{
					"internalType": "uint256",
					"name": "",
					"type": "uint256"
				}
			],
			"name": "cowLimit",
			"outputs": [
				{
					"internalType": "uint256",
					"name": "",
					"type": "uint256"
				}
			],
			"stateMutability": "view",
			"type": "function"
		},
		{
			"inputs": [],
			"name": "creationAmount",
			"outputs": [
				{
					"internalType": "uint256",
					"name": "",
					"type": "uint256"
				}
			],
			"stateMutability": "view",
			"type": "function"
		},
		{
			"inputs": [
				{
					"internalType": "uint256",
					"name": "",
					"type": "uint256"
				}
			],
			"name": "creationIndex",
			"outputs": [
				{
					"internalType": "uint256",
					"name": "",
					"type": "uint256"
				}
			],
			"stateMutability": "view",
			"type": "function"
		},
		{
			"inputs": [],
			"name": "currentId",
			"outputs": [
				{
					"internalType": "uint256",
					"name": "",
					"type": "uint256"
				}
			],
			"stateMutability": "view",
			"type": "function"
		},
		{
			"inputs": [
				{
					"internalType": "uint256",
					"name": "tokenId_",
					"type": "uint256"
				}
			],
			"name": "deadTime",
			"outputs": [
				{
					"internalType": "uint256",
					"name": "",
					"type": "uint256"
				}
			],
			"stateMutability": "view",
			"type": "function"
		},
		{
			"inputs": [],
			"name": "destroy",
			"outputs": [],
			"stateMutability": "nonpayable",
			"type": "function"
		},
		{
			"inputs": [],
			"name": "femaleCreation",
			"outputs": [
				{
					"internalType": "uint256",
					"name": "",
					"type": "uint256"
				}
			],
			"stateMutability": "view",
			"type": "function"
		},
		{
			"inputs": [
				{
					"internalType": "uint256",
					"name": "tokenId_",
					"type": "uint256"
				}
			],
			"name": "getAdult",
			"outputs": [
				{
					"internalType": "bool",
					"name": "",
					"type": "bool"
				}
			],
			"stateMutability": "view",
			"type": "function"
		},
		{
			"inputs": [
				{
					"internalType": "uint256",
					"name": "tokenId",
					"type": "uint256"
				}
			],
			"name": "getApproved",
			"outputs": [
				{
					"internalType": "address",
					"name": "",
					"type": "address"
				}
			],
			"stateMutability": "view",
			"type": "function"
		},
		{
			"inputs": [
				{
					"internalType": "uint256",
					"name": "tokenId_",
					"type": "uint256"
				}
			],
			"name": "getAttack",
			"outputs": [
				{
					"internalType": "uint256",
					"name": "",
					"type": "uint256"
				}
			],
			"stateMutability": "view",
			"type": "function"
		},
		{
			"inputs": [
				{
					"internalType": "uint256",
					"name": "tokenId_",
					"type": "uint256"
				}
			],
			"name": "getBronTime",
			"outputs": [
				{
					"internalType": "uint256",
					"name": "",
					"type": "uint256"
				}
			],
			"stateMutability": "view",
			"type": "function"
		},
		{
			"inputs": [
				{
					"internalType": "uint256",
					"name": "tokenId_",
					"type": "uint256"
				}
			],
			"name": "getCowParents",
			"outputs": [
				{
					"internalType": "uint256[2]",
					"name": "",
					"type": "uint256[2]"
				}
			],
			"stateMutability": "view",
			"type": "function"
		},
		{
			"inputs": [
				{
					"internalType": "uint256",
					"name": "tokenId_",
					"type": "uint256"
				}
			],
			"name": "getDefense",
			"outputs": [
				{
					"internalType": "uint256",
					"name": "",
					"type": "uint256"
				}
			],
			"stateMutability": "view",
			"type": "function"
		},
		{
			"inputs": [
				{
					"internalType": "uint256",
					"name": "tokenId_",
					"type": "uint256"
				}
			],
			"name": "getEnergy",
			"outputs": [
				{
					"internalType": "uint256",
					"name": "",
					"type": "uint256"
				}
			],
			"stateMutability": "view",
			"type": "function"
		},
		{
			"inputs": [
				{
					"internalType": "uint256",
					"name": "tokenId_",
					"type": "uint256"
				}
			],
			"name": "getGender",
			"outputs": [
				{
					"internalType": "uint256",
					"name": "",
					"type": "uint256"
				}
			],
			"stateMutability": "view",
			"type": "function"
		},
		{
			"inputs": [
				{
					"internalType": "uint256",
					"name": "tokenId_",
					"type": "uint256"
				}
			],
			"name": "getGrowth",
			"outputs": [
				{
					"internalType": "uint256",
					"name": "",
					"type": "uint256"
				}
			],
			"stateMutability": "view",
			"type": "function"
		},
		{
			"inputs": [
				{
					"internalType": "uint256",
					"name": "tokenId_",
					"type": "uint256"
				}
			],
			"name": "getLife",
			"outputs": [
				{
					"internalType": "uint256",
					"name": "",
					"type": "uint256"
				}
			],
			"stateMutability": "view",
			"type": "function"
		},
		{
			"inputs": [
				{
					"internalType": "uint256",
					"name": "tokenId_",
					"type": "uint256"
				}
			],
			"name": "getMilk",
			"outputs": [
				{
					"internalType": "uint256",
					"name": "",
					"type": "uint256"
				}
			],
			"stateMutability": "view",
			"type": "function"
		},
		{
			"inputs": [
				{
					"internalType": "uint256",
					"name": "tokenId_",
					"type": "uint256"
				}
			],
			"name": "getMilkRate",
			"outputs": [
				{
					"internalType": "uint256",
					"name": "",
					"type": "uint256"
				}
			],
			"stateMutability": "view",
			"type": "function"
		},
		{
			"inputs": [
				{
					"internalType": "uint256",
					"name": "tokenId_",
					"type": "uint256"
				}
			],
			"name": "getStamina",
			"outputs": [
				{
					"internalType": "uint256",
					"name": "",
					"type": "uint256"
				}
			],
			"stateMutability": "view",
			"type": "function"
		},
		{
			"inputs": [
				{
					"internalType": "uint256",
					"name": "tokenId_",
					"type": "uint256"
				}
			],
			"name": "getStar",
			"outputs": [
				{
					"internalType": "uint256",
					"name": "",
					"type": "uint256"
				}
			],
			"stateMutability": "view",
			"type": "function"
		},
		{
			"inputs": [
				{
					"internalType": "uint256",
					"name": "tokenId",
					"type": "uint256"
				}
			],
			"name": "growUp",
			"outputs": [],
			"stateMutability": "nonpayable",
			"type": "function"
		},
		{
			"inputs": [],
			"name": "initCreation",
			"outputs": [],
			"stateMutability": "nonpayable",
			"type": "function"
		},
		{
			"inputs": [
				{
					"internalType": "address",
					"name": "",
					"type": "address"
				},
				{
					"internalType": "address",
					"name": "",
					"type": "address"
				},
				{
					"internalType": "uint256",
					"name": "",
					"type": "uint256"
				}
			],
			"name": "isApprove",
			"outputs": [
				{
					"internalType": "bool",
					"name": "",
					"type": "bool"
				}
			],
			"stateMutability": "view",
			"type": "function"
		},
		{
			"inputs": [
				{
					"internalType": "address",
					"name": "owner",
					"type": "address"
				},
				{
					"internalType": "address",
					"name": "operator",
					"type": "address"
				}
			],
			"name": "isApprovedForAll",
			"outputs": [
				{
					"internalType": "bool",
					"name": "",
					"type": "bool"
				}
			],
			"stateMutability": "view",
			"type": "function"
		},
		{
			"inputs": [
				{
					"internalType": "uint256",
					"name": "",
					"type": "uint256"
				}
			],
			"name": "isCreation",
			"outputs": [
				{
					"internalType": "bool",
					"name": "",
					"type": "bool"
				}
			],
			"stateMutability": "view",
			"type": "function"
		},
		{
			"inputs": [],
			"name": "maleCreation",
			"outputs": [
				{
					"internalType": "uint256",
					"name": "",
					"type": "uint256"
				}
			],
			"stateMutability": "view",
			"type": "function"
		},
		{
			"inputs": [],
			"name": "maxLife",
			"outputs": [
				{
					"internalType": "uint256",
					"name": "",
					"type": "uint256"
				}
			],
			"stateMutability": "view",
			"type": "function"
		},
		{
			"inputs": [
				{
					"internalType": "address",
					"name": "player",
					"type": "address"
				}
			],
			"name": "mint",
			"outputs": [],
			"stateMutability": "nonpayable",
			"type": "function"
		},
		{
			"inputs": [
				{
					"internalType": "address",
					"name": "player",
					"type": "address"
				},
				{
					"internalType": "uint256[2]",
					"name": "parents",
					"type": "uint256[2]"
				}
			],
			"name": "mintNormall",
			"outputs": [],
			"stateMutability": "nonpayable",
			"type": "function"
		},
		{
			"inputs": [
				{
					"internalType": "address",
					"name": "player",
					"type": "address"
				}
			],
			"name": "mintNormallWithParents",
			"outputs": [],
			"stateMutability": "nonpayable",
			"type": "function"
		},
		{
			"inputs": [
				{
					"internalType": "address",
					"name": "",
					"type": "address"
				}
			],
			"name": "mintersCreation",
			"outputs": [
				{
					"internalType": "uint256",
					"name": "",
					"type": "uint256"
				}
			],
			"stateMutability": "view",
			"type": "function"
		},
		{
			"inputs": [
				{
					"internalType": "address",
					"name": "",
					"type": "address"
				}
			],
			"name": "mintersNormal",
			"outputs": [
				{
					"internalType": "uint256",
					"name": "",
					"type": "uint256"
				}
			],
			"stateMutability": "view",
			"type": "function"
		},
		{
			"inputs": [],
			"name": "myBaseURI",
			"outputs": [
				{
					"internalType": "string",
					"name": "",
					"type": "string"
				}
			],
			"stateMutability": "view",
			"type": "function"
		},
		{
			"inputs": [],
			"name": "name",
			"outputs": [
				{
					"internalType": "string",
					"name": "",
					"type": "string"
				}
			],
			"stateMutability": "view",
			"type": "function"
		},
		{
			"inputs": [],
			"name": "owner",
			"outputs": [
				{
					"internalType": "address",
					"name": "",
					"type": "address"
				}
			],
			"stateMutability": "view",
			"type": "function"
		},
		{
			"inputs": [
				{
					"internalType": "uint256",
					"name": "tokenId",
					"type": "uint256"
				}
			],
			"name": "ownerOf",
			"outputs": [
				{
					"internalType": "address",
					"name": "",
					"type": "address"
				}
			],
			"stateMutability": "view",
			"type": "function"
		},
		{
			"inputs": [],
			"name": "renounceOwnership",
			"outputs": [],
			"stateMutability": "nonpayable",
			"type": "function"
		},
		{
			"inputs": [
				{
					"internalType": "address",
					"name": "from",
					"type": "address"
				},
				{
					"internalType": "address",
					"name": "to",
					"type": "address"
				},
				{
					"internalType": "uint256",
					"name": "tokenId",
					"type": "uint256"
				}
			],
			"name": "safeTransferFrom",
			"outputs": [],
			"stateMutability": "nonpayable",
			"type": "function"
		},
		{
			"inputs": [
				{
					"internalType": "address",
					"name": "from",
					"type": "address"
				},
				{
					"internalType": "address",
					"name": "to",
					"type": "address"
				},
				{
					"internalType": "uint256",
					"name": "tokenId",
					"type": "uint256"
				},
				{
					"internalType": "bytes",
					"name": "_data",
					"type": "bytes"
				}
			],
			"name": "safeTransferFrom",
			"outputs": [],
			"stateMutability": "nonpayable",
			"type": "function"
		},
		{
			"inputs": [
				{
					"internalType": "address",
					"name": "addr_",
					"type": "address"
				},
				{
					"internalType": "bool",
					"name": "com_",
					"type": "bool"
				}
			],
			"name": "setAdmin",
			"outputs": [],
			"stateMutability": "nonpayable",
			"type": "function"
		},
		{
			"inputs": [
				{
					"internalType": "address",
					"name": "operator",
					"type": "address"
				},
				{
					"internalType": "bool",
					"name": "approved",
					"type": "bool"
				}
			],
			"name": "setApprovalForAll",
			"outputs": [],
			"stateMutability": "nonpayable",
			"type": "function"
		},
		{
			"inputs": [
				{
					"internalType": "string",
					"name": "uri",
					"type": "string"
				}
			],
			"name": "setBaseURI",
			"outputs": [],
			"stateMutability": "nonpayable",
			"type": "function"
		},
		{
			"inputs": [
				{
					"internalType": "uint256",
					"name": "tokenId",
					"type": "uint256"
				},
				{
					"internalType": "uint256",
					"name": "time_",
					"type": "uint256"
				}
			],
			"name": "setDeadTime",
			"outputs": [],
			"stateMutability": "nonpayable",
			"type": "function"
		},
		{
			"inputs": [
				{
					"internalType": "uint256",
					"name": "male_",
					"type": "uint256"
				},
				{
					"internalType": "uint256",
					"name": "female_",
					"type": "uint256"
				}
			],
			"name": "setGender",
			"outputs": [],
			"stateMutability": "nonpayable",
			"type": "function"
		},
		{
			"inputs": [
				{
					"internalType": "uint256[]",
					"name": "limit_",
					"type": "uint256[]"
				}
			],
			"name": "setLimit",
			"outputs": [],
			"stateMutability": "nonpayable",
			"type": "function"
		},
		{
			"inputs": [
				{
					"internalType": "address",
					"name": "addr_",
					"type": "address"
				},
				{
					"internalType": "uint256",
					"name": "amount_",
					"type": "uint256"
				}
			],
			"name": "setMintersCreation",
			"outputs": [],
			"stateMutability": "nonpayable",
			"type": "function"
		},
		{
			"inputs": [
				{
					"internalType": "address",
					"name": "addr_",
					"type": "address"
				},
				{
					"internalType": "uint256",
					"name": "amount_",
					"type": "uint256"
				}
			],
			"name": "setMintersNormal",
			"outputs": [],
			"stateMutability": "nonpayable",
			"type": "function"
		},
		{
			"inputs": [
				{
					"internalType": "address",
					"name": "addr",
					"type": "address"
				}
			],
			"name": "setSuperMinter",
			"outputs": [],
			"stateMutability": "nonpayable",
			"type": "function"
		},
		{
			"inputs": [
				{
					"internalType": "uint256",
					"name": "",
					"type": "uint256"
				}
			],
			"name": "starLimit",
			"outputs": [
				{
					"internalType": "uint256",
					"name": "",
					"type": "uint256"
				}
			],
			"stateMutability": "view",
			"type": "function"
		},
		{
			"inputs": [],
			"name": "superMinter",
			"outputs": [
				{
					"internalType": "address",
					"name": "",
					"type": "address"
				}
			],
			"stateMutability": "view",
			"type": "function"
		},
		{
			"inputs": [
				{
					"internalType": "bytes4",
					"name": "interfaceId",
					"type": "bytes4"
				}
			],
			"name": "supportsInterface",
			"outputs": [
				{
					"internalType": "bool",
					"name": "",
					"type": "bool"
				}
			],
			"stateMutability": "view",
			"type": "function"
		},
		{
			"inputs": [],
			"name": "symbol",
			"outputs": [
				{
					"internalType": "string",
					"name": "",
					"type": "string"
				}
			],
			"stateMutability": "view",
			"type": "function"
		},
		{
			"inputs": [
				{
					"internalType": "uint256",
					"name": "index",
					"type": "uint256"
				}
			],
			"name": "tokenByIndex",
			"outputs": [
				{
					"internalType": "uint256",
					"name": "",
					"type": "uint256"
				}
			],
			"stateMutability": "view",
			"type": "function"
		},
		{
			"inputs": [
				{
					"internalType": "address",
					"name": "owner",
					"type": "address"
				},
				{
					"internalType": "uint256",
					"name": "index",
					"type": "uint256"
				}
			],
			"name": "tokenOfOwnerByIndex",
			"outputs": [
				{
					"internalType": "uint256",
					"name": "",
					"type": "uint256"
				}
			],
			"stateMutability": "view",
			"type": "function"
		},
		{
			"inputs": [
				{
					"internalType": "uint256",
					"name": "tokenId_",
					"type": "uint256"
				}
			],
			"name": "tokenURI",
			"outputs": [
				{
					"internalType": "string",
					"name": "",
					"type": "string"
				}
			],
			"stateMutability": "view",
			"type": "function"
		},
		{
			"inputs": [],
			"name": "totalSupply",
			"outputs": [
				{
					"internalType": "uint256",
					"name": "",
					"type": "uint256"
				}
			],
			"stateMutability": "view",
			"type": "function"
		},
		{
			"inputs": [
				{
					"internalType": "address",
					"name": "from",
					"type": "address"
				},
				{
					"internalType": "address",
					"name": "to",
					"type": "address"
				},
				{
					"internalType": "uint256",
					"name": "tokenId",
					"type": "uint256"
				}
			],
			"name": "transferFrom",
			"outputs": [],
			"stateMutability": "nonpayable",
			"type": "function"
		},
		{
			"inputs": [
				{
					"internalType": "address",
					"name": "newOwner",
					"type": "address"
				}
			],
			"name": "transferOwnership",
			"outputs": [],
			"stateMutability": "nonpayable",
			"type": "function"
		},
		{
			"inputs": [
				{
					"internalType": "uint256",
					"name": "tokenId",
					"type": "uint256"
				}
			],
			"name": "upGradeStar",
			"outputs": [],
			"stateMutability": "nonpayable",
			"type": "function"
		}
	]
}