{
  "_format": "hh-sol-artifact-1",
  "contractName": "Cattle1155",
  "sourceName": "contracts/item.sol",
  "abi": [
    {
      "anonymous": false,
      "inputs": [
        {
          "indexed": true,
          "internalType": "address",
          "name": "account",
          "type": "address"
        },
        {
          "indexed": true,
          "internalType": "address",
          "name": "operator",
          "type": "address"
        },
        {
          "indexed": false,
          "internalType": "bool",
          "name": "approved",
          "type": "bool"
        }
      ],
      "name": "ApprovalForAll",
      "type": "event"
    },
    {
      "anonymous": false,
      "inputs": [
        {
          "indexed": false,
          "internalType": "uint8",
          "name": "version",
          "type": "uint8"
        }
      ],
      "name": "Initialized",
      "type": "event"
    },
    {
      "anonymous": false,
      "inputs": [
        {
          "indexed": true,
          "internalType": "address",
          "name": "previousOwner",
          "type": "address"
        },
        {
          "indexed": true,
          "internalType": "address",
          "name": "newOwner",
          "type": "address"
        }
      ],
      "name": "OwnershipTransferred",
      "type": "event"
    },
    {
      "anonymous": false,
      "inputs": [
        {
          "indexed": true,
          "internalType": "address",
          "name": "operator",
          "type": "address"
        },
        {
          "indexed": true,
          "internalType": "address",
          "name": "from",
          "type": "address"
        },
        {
          "indexed": true,
          "internalType": "address",
          "name": "to",
          "type": "address"
        },
        {
          "indexed": false,
          "internalType": "uint256[]",
          "name": "ids",
          "type": "uint256[]"
        },
        {
          "indexed": false,
          "internalType": "uint256[]",
          "name": "values",
          "type": "uint256[]"
        }
      ],
      "name": "TransferBatch",
      "type": "event"
    },
    {
      "anonymous": false,
      "inputs": [
        {
          "indexed": true,
          "internalType": "address",
          "name": "operator",
          "type": "address"
        },
        {
          "indexed": true,
          "internalType": "address",
          "name": "from",
          "type": "address"
        },
        {
          "indexed": true,
          "internalType": "address",
          "name": "to",
          "type": "address"
        },
        {
          "indexed": false,
          "internalType": "uint256",
          "name": "id",
          "type": "uint256"
        },
        {
          "indexed": false,
          "internalType": "uint256",
          "name": "value",
          "type": "uint256"
        }
      ],
      "name": "TransferSingle",
      "type": "event"
    },
    {
      "anonymous": false,
      "inputs": [
        {
          "indexed": false,
          "internalType": "string",
          "name": "value",
          "type": "string"
        },
        {
          "indexed": true,
          "internalType": "uint256",
          "name": "id",
          "type": "uint256"
        }
      ],
      "name": "URI",
      "type": "event"
    },
    {
      "inputs": [
        {
          "internalType": "address",
          "name": "",
          "type": "address"
        }
      ],
      "name": "admin",
      "outputs": [
        {
          "internalType": "bool",
          "name": "",
          "type": "bool"
        }
      ],
      "stateMutability": "view",
      "type": "function"
    },
    {
      "inputs": [
        {
          "internalType": "address",
          "name": "account",
          "type": "address"
        },
        {
          "internalType": "uint256",
          "name": "id",
          "type": "uint256"
        }
      ],
      "name": "balanceOf",
      "outputs": [
        {
          "internalType": "uint256",
          "name": "",
          "type": "uint256"
        }
      ],
      "stateMutability": "view",
      "type": "function"
    },
    {
      "inputs": [
        {
          "internalType": "address[]",
          "name": "accounts",
          "type": "address[]"
        },
        {
          "internalType": "uint256[]",
          "name": "ids",
          "type": "uint256[]"
        }
      ],
      "name": "balanceOfBatch",
      "outputs": [
        {
          "internalType": "uint256[]",
          "name": "",
          "type": "uint256[]"
        }
      ],
      "stateMutability": "view",
      "type": "function"
    },
    {
      "inputs": [
        {
          "internalType": "address",
          "name": "account",
          "type": "address"
        },
        {
          "internalType": "uint256",
          "name": "id",
          "type": "uint256"
        },
        {
          "internalType": "uint256",
          "name": "value",
          "type": "uint256"
        }
      ],
      "name": "burn",
      "outputs": [],
      "stateMutability": "nonpayable",
      "type": "function"
    },
    {
      "inputs": [
        {
          "internalType": "address",
          "name": "account",
          "type": "address"
        },
        {
          "internalType": "uint256[]",
          "name": "ids",
          "type": "uint256[]"
        },
        {
          "internalType": "uint256[]",
          "name": "values",
          "type": "uint256[]"
        }
      ],
      "name": "burnBatch",
      "outputs": [],
      "stateMutability": "nonpayable",
      "type": "function"
    },
    {
      "inputs": [],
      "name": "burned",
      "outputs": [
        {
          "internalType": "uint256",
          "name": "",
          "type": "uint256"
        }
      ],
      "stateMutability": "view",
      "type": "function"
    },
    {
      "inputs": [
        {
          "internalType": "uint256",
          "name": "id_",
          "type": "uint256"
        }
      ],
      "name": "checkItemEffect",
      "outputs": [
        {
          "internalType": "uint256[3]",
          "name": "",
          "type": "uint256[3]"
        }
      ],
      "stateMutability": "view",
      "type": "function"
    },
    {
      "inputs": [
        {
          "internalType": "uint256[]",
          "name": "ids",
          "type": "uint256[]"
        }
      ],
      "name": "checkTypeBatch",
      "outputs": [
        {
          "internalType": "uint256[]",
          "name": "",
          "type": "uint256[]"
        }
      ],
      "stateMutability": "view",
      "type": "function"
    },
    {
      "inputs": [
        {
          "internalType": "string",
          "name": "name_",
          "type": "string"
        },
        {
          "internalType": "uint256",
          "name": "itemId_",
          "type": "uint256"
        },
        {
          "internalType": "uint256",
          "name": "maxAmount_",
          "type": "uint256"
        },
        {
          "internalType": "uint256[3]",
          "name": "effect_",
          "type": "uint256[3]"
        },
        {
          "internalType": "uint256",
          "name": "types",
          "type": "uint256"
        },
        {
          "internalType": "bool",
          "name": "tradeable_",
          "type": "bool"
        },
        {
          "internalType": "uint256",
          "name": "level_",
          "type": "uint256"
        },
        {
          "internalType": "uint256",
          "name": "itemExp_",
          "type": "uint256"
        },
        {
          "internalType": "string",
          "name": "tokenURI_",
          "type": "string"
        }
      ],
      "name": "editItem",
      "outputs": [],
      "stateMutability": "nonpayable",
      "type": "function"
    },
    {
      "inputs": [],
      "name": "initialize",
      "outputs": [],
      "stateMutability": "nonpayable",
      "type": "function"
    },
    {
      "inputs": [
        {
          "internalType": "address",
          "name": "account",
          "type": "address"
        },
        {
          "internalType": "address",
          "name": "operator",
          "type": "address"
        }
      ],
      "name": "isApprovedForAll",
      "outputs": [
        {
          "internalType": "bool",
          "name": "",
          "type": "bool"
        }
      ],
      "stateMutability": "view",
      "type": "function"
    },
    {
      "inputs": [],
      "name": "itemAmount",
      "outputs": [
        {
          "internalType": "uint256",
          "name": "",
          "type": "uint256"
        }
      ],
      "stateMutability": "view",
      "type": "function"
    },
    {
      "inputs": [
        {
          "internalType": "uint256",
          "name": "",
          "type": "uint256"
        }
      ],
      "name": "itemExp",
      "outputs": [
        {
          "internalType": "uint256",
          "name": "",
          "type": "uint256"
        }
      ],
      "stateMutability": "view",
      "type": "function"
    },
    {
      "inputs": [
        {
          "internalType": "uint256",
          "name": "",
          "type": "uint256"
        }
      ],
      "name": "itemInfoes",
      "outputs": [
        {
          "internalType": "uint256",
          "name": "itemId",
          "type": "uint256"
        },
        {
          "internalType": "string",
          "name": "name",
          "type": "string"
        },
        {
          "internalType": "uint256",
          "name": "currentAmount",
          "type": "uint256"
        },
        {
          "internalType": "uint256",
          "name": "burnedAmount",
          "type": "uint256"
        },
        {
          "internalType": "uint256",
          "name": "maxAmount",
          "type": "uint256"
        },
        {
          "internalType": "bool",
          "name": "tradeable",
          "type": "bool"
        },
        {
          "internalType": "string",
          "name": "tokenURI",
          "type": "string"
        }
      ],
      "stateMutability": "view",
      "type": "function"
    },
    {
      "inputs": [
        {
          "internalType": "uint256",
          "name": "",
          "type": "uint256"
        }
      ],
      "name": "itemLevel",
      "outputs": [
        {
          "internalType": "uint256",
          "name": "",
          "type": "uint256"
        }
      ],
      "stateMutability": "view",
      "type": "function"
    },
    {
      "inputs": [
        {
          "internalType": "uint256",
          "name": "",
          "type": "uint256"
        }
      ],
      "name": "itemType",
      "outputs": [
        {
          "internalType": "uint256",
          "name": "",
          "type": "uint256"
        }
      ],
      "stateMutability": "view",
      "type": "function"
    },
    {
      "inputs": [
        {
          "internalType": "address",
          "name": "to_",
          "type": "address"
        },
        {
          "internalType": "uint256",
          "name": "itemId_",
          "type": "uint256"
        },
        {
          "internalType": "uint256",
          "name": "amount_",
          "type": "uint256"
        }
      ],
      "name": "mint",
      "outputs": [
        {
          "internalType": "bool",
          "name": "",
          "type": "bool"
        }
      ],
      "stateMutability": "nonpayable",
      "type": "function"
    },
    {
      "inputs": [
        {
          "internalType": "address",
          "name": "to_",
          "type": "address"
        },
        {
          "internalType": "uint256[]",
          "name": "ids_",
          "type": "uint256[]"
        },
        {
          "internalType": "uint256[]",
          "name": "amounts_",
          "type": "uint256[]"
        }
      ],
      "name": "mintBatch",
      "outputs": [
        {
          "internalType": "bool",
          "name": "",
          "type": "bool"
        }
      ],
      "stateMutability": "nonpayable",
      "type": "function"
    },
    {
      "inputs": [
        {
          "internalType": "address",
          "name": "",
          "type": "address"
        },
        {
          "internalType": "uint256",
          "name": "",
          "type": "uint256"
        }
      ],
      "name": "minters",
      "outputs": [
        {
          "internalType": "uint256",
          "name": "",
          "type": "uint256"
        }
      ],
      "stateMutability": "view",
      "type": "function"
    },
    {
      "inputs": [],
      "name": "myBaseURI",
      "outputs": [
        {
          "internalType": "string",
          "name": "",
          "type": "string"
        }
      ],
      "stateMutability": "view",
      "type": "function"
    },
    {
      "inputs": [],
      "name": "name",
      "outputs": [
        {
          "internalType": "string",
          "name": "",
          "type": "string"
        }
      ],
      "stateMutability": "view",
      "type": "function"
    },
    {
      "inputs": [
        {
          "internalType": "string",
          "name": "name_",
          "type": "string"
        },
        {
          "internalType": "uint256",
          "name": "itemId_",
          "type": "uint256"
        },
        {
          "internalType": "uint256",
          "name": "maxAmount_",
          "type": "uint256"
        },
        {
          "internalType": "uint256[3]",
          "name": "effect_",
          "type": "uint256[3]"
        },
        {
          "internalType": "uint256",
          "name": "types",
          "type": "uint256"
        },
        {
          "internalType": "bool",
          "name": "tradeable_",
          "type": "bool"
        },
        {
          "internalType": "uint256",
          "name": "level_",
          "type": "uint256"
        },
        {
          "internalType": "uint256",
          "name": "itemExp_",
          "type": "uint256"
        },
        {
          "internalType": "string",
          "name": "tokenURI_",
          "type": "string"
        }
      ],
      "name": "newItem",
      "outputs": [],
      "stateMutability": "nonpayable",
      "type": "function"
    },
    {
      "inputs": [],
      "name": "owner",
      "outputs": [
        {
          "internalType": "address",
          "name": "",
          "type": "address"
        }
      ],
      "stateMutability": "view",
      "type": "function"
    },
    {
      "inputs": [],
      "name": "renounceOwnership",
      "outputs": [],
      "stateMutability": "nonpayable",
      "type": "function"
    },
    {
      "inputs": [
        {
          "internalType": "address",
          "name": "from",
          "type": "address"
        },
        {
          "internalType": "address",
          "name": "to",
          "type": "address"
        },
        {
          "internalType": "uint256[]",
          "name": "ids",
          "type": "uint256[]"
        },
        {
          "internalType": "uint256[]",
          "name": "amounts",
          "type": "uint256[]"
        },
        {
          "internalType": "bytes",
          "name": "data",
          "type": "bytes"
        }
      ],
      "name": "safeBatchTransferFrom",
      "outputs": [],
      "stateMutability": "nonpayable",
      "type": "function"
    },
    {
      "inputs": [
        {
          "internalType": "address",
          "name": "from",
          "type": "address"
        },
        {
          "internalType": "address",
          "name": "to",
          "type": "address"
        },
        {
          "internalType": "uint256",
          "name": "id",
          "type": "uint256"
        },
        {
          "internalType": "uint256",
          "name": "amount",
          "type": "uint256"
        },
        {
          "internalType": "bytes",
          "name": "data",
          "type": "bytes"
        }
      ],
      "name": "safeTransferFrom",
      "outputs": [],
      "stateMutability": "nonpayable",
      "type": "function"
    },
    {
      "inputs": [
        {
          "internalType": "address",
          "name": "addr",
          "type": "address"
        },
        {
          "internalType": "bool",
          "name": "b",
          "type": "bool"
        }
      ],
      "name": "setAdmin",
      "outputs": [],
      "stateMutability": "nonpayable",
      "type": "function"
    },
    {
      "inputs": [
        {
          "internalType": "address",
          "name": "operator",
          "type": "address"
        },
        {
          "internalType": "bool",
          "name": "approved",
          "type": "bool"
        }
      ],
      "name": "setApprovalForAll",
      "outputs": [],
      "stateMutability": "nonpayable",
      "type": "function"
    },
    {
      "inputs": [
        {
          "internalType": "address",
          "name": "newMinter_",
          "type": "address"
        },
        {
          "internalType": "uint256",
          "name": "itemId_",
          "type": "uint256"
        },
        {
          "internalType": "uint256",
          "name": "amount_",
          "type": "uint256"
        }
      ],
      "name": "setMinter",
      "outputs": [],
      "stateMutability": "nonpayable",
      "type": "function"
    },
    {
      "inputs": [
        {
          "internalType": "address",
          "name": "newMinter_",
          "type": "address"
        },
        {
          "internalType": "uint256[]",
          "name": "ids_",
          "type": "uint256[]"
        },
        {
          "internalType": "uint256[]",
          "name": "amounts_",
          "type": "uint256[]"
        }
      ],
      "name": "setMinterBatch",
      "outputs": [
        {
          "internalType": "bool",
          "name": "",
          "type": "bool"
        }
      ],
      "stateMutability": "nonpayable",
      "type": "function"
    },
    {
      "inputs": [
        {
          "internalType": "string",
          "name": "uri_",
          "type": "string"
        }
      ],
      "name": "setMyBaseURI",
      "outputs": [],
      "stateMutability": "nonpayable",
      "type": "function"
    },
    {
      "inputs": [
        {
          "internalType": "address",
          "name": "newSuperMinter_",
          "type": "address"
        }
      ],
      "name": "setSuperMinter",
      "outputs": [],
      "stateMutability": "nonpayable",
      "type": "function"
    },
    {
      "inputs": [],
      "name": "superMinter",
      "outputs": [
        {
          "internalType": "address",
          "name": "",
          "type": "address"
        }
      ],
      "stateMutability": "view",
      "type": "function"
    },
    {
      "inputs": [
        {
          "internalType": "bytes4",
          "name": "interfaceId",
          "type": "bytes4"
        }
      ],
      "name": "supportsInterface",
      "outputs": [
        {
          "internalType": "bool",
          "name": "",
          "type": "bool"
        }
      ],
      "stateMutability": "view",
      "type": "function"
    },
    {
      "inputs": [],
      "name": "symbol",
      "outputs": [
        {
          "internalType": "string",
          "name": "",
          "type": "string"
        }
      ],
      "stateMutability": "view",
      "type": "function"
    },
    {
      "inputs": [
        {
          "internalType": "uint256",
          "name": "itemId_",
          "type": "uint256"
        }
      ],
      "name": "tokenURI",
      "outputs": [
        {
          "internalType": "string",
          "name": "",
          "type": "string"
        }
      ],
      "stateMutability": "view",
      "type": "function"
    },
    {
      "inputs": [
        {
          "internalType": "address",
          "name": "newOwner",
          "type": "address"
        }
      ],
      "name": "transferOwnership",
      "outputs": [],
      "stateMutability": "nonpayable",
      "type": "function"
    },
    {
      "inputs": [
        {
          "internalType": "uint256",
          "name": "",
          "type": "uint256"
        }
      ],
      "name": "uri",
      "outputs": [
        {
          "internalType": "string",
          "name": "",
          "type": "string"
        }
      ],
      "stateMutability": "view",
      "type": "function"
    },
    {
      "inputs": [
        {
          "internalType": "address",
          "name": "",
          "type": "address"
        },
        {
          "internalType": "uint256",
          "name": "",
          "type": "uint256"
        }
      ],
      "name": "userBurn",
      "outputs": [
        {
          "internalType": "uint256",
          "name": "",
          "type": "uint256"
        }
      ],
      "stateMutability": "view",
      "type": "function"
    }
  ],
  "bytecode": "0x608060405234801561001057600080fd5b50613be2806100206000396000f3fe608060405234801561001057600080fd5b506004361061023c5760003560e01c806378746d0d1161013b578063c87b56dd116100b8578063e985e9c51161007c578063e985e9c51461055c578063f242432a14610598578063f2fde38b146105ab578063f5298aca146105be578063f882aa8d146105d157600080fd5b8063c87b56dd146104ca578063cc6ace03146104dd578063ce220cda146104fe578063d81d0a151461051e578063dfcea3b41461053157600080fd5b8063a22cb465116100ff578063a22cb46514610467578063ac09aa0f1461047a578063b41d74d81461049a578063bb2fa28c146104ad578063c0373561146104c057600080fd5b806378746d0d146103f55780638129fc1c1461042057806386e32a77146104285780638da5cb5b1461044e57806395d89b411461045f57600080fd5b80634e1273f4116101c9578063649d0c571161018d578063649d0c571461039c5780636b20c454146103af5780636d83ceff146103c2578063715018a6146103e357806373f42561146103eb57600080fd5b80634e1273f41461030857806353c358f5146103285780635dcce2341461033b57806362e42cb01461034e57806363a846f81461037957600080fd5b8063156e29f611610210578063156e29f6146102b25780632eb2c2d6146102c5578063372a3b82146102da5780633afdfbf9146102e25780634b0bddd2146102f557600080fd5b8062fdd58e1461024157806301ffc9a71461026757806306fdde031461028a5780630e89341c1461029f575b600080fd5b61025461024f366004613150565b6105e4565b6040519081526020015b60405180910390f35b61027a6102753660046132a7565b61067d565b604051901515815260200161025e565b6102926106cf565b60405161025e91906135cf565b6102926102ad36600461340d565b610762565b61027a6102c0366004613179565b6107f6565b6102d86102d3366004612f33565b6109d3565b005b610292610b23565b6102d86102f0366004613311565b610bb2565b6102d8610303366004613127565b610d2c565b61031b6103163660046131ab565b610d81565b60405161025e919061358e565b6102d8610336366004613311565b610ee2565b6102d86103493660046132df565b61106a565b60fc54610361906001600160a01b031681565b6040516001600160a01b03909116815260200161025e565b61027a610387366004612ee0565b60fd6020526000908152604090205460ff1681565b61031b6103aa366004613275565b6110ac565b6102d86103bd3660046130b7565b61118e565b6102546103d036600461340d565b6101076020526000908152604090205481565b6102d8611325565b6102546101015481565b610254610403366004613150565b60fb60209081526000928352604080842090915290825290205481565b6102d861135b565b61043b61043636600461340d565b611488565b60405161025e9796959493929190613951565b6033546001600160a01b0316610361565b6102926115dc565b6102d8610475366004613127565b6115ec565b61025461048836600461340d565b60ff6020526000908152604090205481565b6102d86104a8366004612ee0565b6115f7565b6102d86104bb366004613179565b611643565b6102546101005481565b6102926104d836600461340d565b611693565b6102546104eb36600461340d565b6101056020526000908152604090205481565b61051161050c36600461340d565b6117e0565b60405161025e919061355d565b61027a61052c3660046130b7565b611830565b61025461053f366004613150565b60fe60209081526000928352604080842090915290825290205481565b61027a61056a366004612f01565b6001600160a01b03918216600090815260986020908152604080832093909416825291909152205460ff1690565b6102d86105a6366004612fd8565b611c30565b6102d86105b9366004612ee0565b611d20565b6102d86105cc366004613179565b611db8565b61027a6105df36600461303a565b611e75565b60006001600160a01b0383166106555760405162461bcd60e51b815260206004820152602b60248201527f455243313135353a2062616c616e636520717565727920666f7220746865207a60448201526a65726f206164647265737360a81b60648201526084015b60405180910390fd5b5060009081526097602090815260408083206001600160a01b03949094168352929052205490565b60006001600160e01b03198216636cdb3d1360e11b14806106ae57506001600160e01b031982166303a24d0760e21b145b806106c957506301ffc9a760e01b6001600160e01b03198316145b92915050565b606061010280546106df90613a22565b80601f016020809104026020016040519081016040528092919081815260200182805461070b90613a22565b80156107585780601f1061072d57610100808354040283529160200191610758565b820191906000526020600020905b81548152906001019060200180831161073b57829003601f168201915b5050505050905090565b60606099805461077190613a22565b80601f016020809104026020016040519081016040528092919081815260200182805461079d90613a22565b80156107ea5780601f106107bf576101008083540402835291602001916107ea565b820191906000526020600020905b8154815290600101906020018083116107cd57829003601f168201915b50505050509050919050565b600080821161083b5760405162461bcd60e51b815260206004820152601160248201527012ce881b5a5cdcda5b99c8185b5bdd5b9d607a1b604482015260640161064c565b821580159061085857506000838152610104602052604090205415155b6108965760405162461bcd60e51b815260206004820152600f60248201526e12ce881ddc9bdb99c81a5d195b5259608a1b604482015260640161064c565b60fc546001600160a01b031633146109425733600090815260fb602090815260408083208684529091529020548211156109125760405162461bcd60e51b815260206004820152601c60248201527f436174746c653a206e6f74206d696e74657227732063616c6c696e6700000000604482015260640161064c565b33600090815260fb602090815260408083208684529091528120805484929061093c9084906139df565b90915550505b60008381526101046020526040902060028101546004909101548391610967916139df565b10156109855760405162461bcd60e51b815260040161064c90613839565b60008381526101046020526040812060020180548492906109a79084906139c7565b925050819055506109c984848460405180602001604052806000815250611fac565b5060019392505050565b6001600160a01b0385163314806109ef57506109ef853361056a565b610a565760405162461bcd60e51b815260206004820152603260248201527f455243313135353a207472616e736665722063616c6c6572206973206e6f74206044820152711bdddb995c881b9bdc88185c1c1c9bdd995960721b606482015260840161064c565b33600090815260fd602052604090205460ff16610b0f5760005b8351811015610b0d576101046000858381518110610a9e57634e487b7160e01b600052603260045260246000fd5b60209081029190910181015182528101919091526040016000206008015460ff16610afb5760405162461bcd60e51b815260206004820152600d60248201526c6e6f7420747261646561626c6560981b604482015260640161064c565b80610b0581613aae565b915050610a70565b505b610b1c8585858585612088565b5050505050565b6101068054610b3190613a22565b80601f0160208091040260200160405190810160405280929190818152602001828054610b5d90613a22565b8015610baa5780601f10610b7f57610100808354040283529160200191610baa565b820191906000526020600020905b815481529060010190602001808311610b8d57829003601f168201915b505050505081565b6033546001600160a01b03163314610bdc5760405162461bcd60e51b815260040161064c906137bc565b8715801590610bf957506000888152610104602052604090205488145b610c155760405162461bcd60e51b815260040161064c9061366e565b604080516101008101825289815260208082018c815260008c815261010480845285822060028101549686019690965260038601546060860152608085018d905260a085018c905289151560c086015260e08501879052908d9052825282518455518051929392610c8c9260018501920190612caa565b5060408201518160020155606082015181600301556080820151816004015560a082015181600501906003610cc2929190612d2e565b5060c082015160088201805460ff191691151591909117905560e08201518051610cf6916009840191602090910190612caa565b50505060009788525060ff6020908152604080892095909555610105815284882092909255610107909152919094205550505050565b6033546001600160a01b03163314610d565760405162461bcd60e51b815260040161064c906137bc565b6001600160a01b0391909116600090815260fd60205260409020805460ff1916911515919091179055565b60608151835114610de65760405162461bcd60e51b815260206004820152602960248201527f455243313135353a206163636f756e747320616e6420696473206c656e677468604482015268040dad2e6dac2e8c6d60bb1b606482015260840161064c565b600083516001600160401b03811115610e0f57634e487b7160e01b600052604160045260246000fd5b604051908082528060200260200182016040528015610e38578160200160208202803683370190505b50905060005b8451811015610eda57610e9f858281518110610e6a57634e487b7160e01b600052603260045260246000fd5b6020026020010151858381518110610e9257634e487b7160e01b600052603260045260246000fd5b60200260200101516105e4565b828281518110610ebf57634e487b7160e01b600052603260045260246000fd5b6020908102919091010152610ed381613aae565b9050610e3e565b509392505050565b6033546001600160a01b03163314610f0c5760405162461bcd60e51b815260040161064c906137bc565b8715801590610f28575060008881526101046020526040902054155b610f445760405162461bcd60e51b815260040161064c9061366e565b604080516101008101825289815260208082018c8152600083850181905260608401819052608084018c905260a084018b905288151560c085015260e084018690528c81526101048352939093208251815592518051929392610fad9260018501920190612caa565b5060408201518160020155606082015181600301556080820151816004015560a082015181600501906003610fe3929190612d2e565b5060c082015160088201805460ff191691151591909117905560e08201518051611017916009840191602090910190612caa565b505050600088815260ff60209081526040808320889055610105909152812084905561010080549161104883613aae565b9091555050506000968752610107602052604090962095909555505050505050565b6033546001600160a01b031633146110945760405162461bcd60e51b815260040161064c906137bc565b80516110a890610106906020840190612caa565b5050565b6060600082516001600160401b038111156110d757634e487b7160e01b600052604160045260246000fd5b604051908082528060200260200182016040528015611100578160200160208202803683370190505b50905060005b83518110156111875760ff600085838151811061113357634e487b7160e01b600052603260045260246000fd5b602002602001015181526020019081526020016000205482828151811061116a57634e487b7160e01b600052603260045260246000fd5b60209081029190910101528061117f81613aae565b915050611106565b5092915050565b6001600160a01b0383163314806111aa57506111aa833361056a565b6111c65760405162461bcd60e51b815260040161064c906137f1565b60005b8251811015611314578181815181106111f257634e487b7160e01b600052603260045260246000fd5b60200260200101516101046000838152602001908152602001600020600301600082825461122091906139c7565b9250508190555081818151811061124757634e487b7160e01b600052603260045260246000fd5b602002602001015160fe6000866001600160a01b03166001600160a01b03168152602001908152602001600020600085848151811061129657634e487b7160e01b600052603260045260246000fd5b6020026020010151815260200190815260200160002060008282546112bb91906139c7565b925050819055508181815181106112e257634e487b7160e01b600052603260045260246000fd5b602002602001015161010160008282546112fc91906139c7565b9091555081905061130c81613aae565b9150506111c9565b50611320838383612243565b505050565b6033546001600160a01b0316331461134f5760405162461bcd60e51b815260040161064c906137bc565b61135960006123ee565b565b60006113676001612440565b9050801561137f576000805461ff0019166101001790555b6113876124cd565b61138f6124f4565b6113b6604051806040016040528060068152602001651899199a1a9b60d11b815250612524565b604080518082019091526004808252634974656d60e01b60209092019182526113e29161010291612caa565b50604080518082019091526004808252634974656d60e01b602090920191825261140f9161010391612caa565b50604080518082019091526006808252651899199a1a9b60d11b602090920191825261143e9161010691612caa565b508015611485576000805461ff0019169055604051600181527f7f26b83ff96e1f2b6a682f133852f6798a09c465da95921460cefb38474024989060200160405180910390a15b50565b61010460205260009081526040902080546001820180549192916114ab90613a22565b80601f01602080910402602001604051908101604052809291908181526020018280546114d790613a22565b80156115245780601f106114f957610100808354040283529160200191611524565b820191906000526020600020905b81548152906001019060200180831161150757829003601f168201915b50505060028401546003850154600486015460088701546009880180549798949793965091945060ff16929161155990613a22565b80601f016020809104026020016040519081016040528092919081815260200182805461158590613a22565b80156115d25780601f106115a7576101008083540402835291602001916115d2565b820191906000526020600020905b8154815290600101906020018083116115b557829003601f168201915b5050505050905087565b606061010380546106df90613a22565b6110a8338383612554565b6033546001600160a01b031633146116215760405162461bcd60e51b815260040161064c906137bc565b60fc80546001600160a01b0319166001600160a01b0392909216919091179055565b6033546001600160a01b0316331461166d5760405162461bcd60e51b815260040161064c906137bc565b6001600160a01b03909216600090815260fb602090815260408083209383529290522055565b600081815261010460205260409020546060906116fd5760405162461bcd60e51b815260206004820152602260248201527f4b3a2055524920717565727920666f72206e6f6e6578697374656e7420746f6b60448201526132b760f11b606482015260840161064c565b600082815261010460205260408120600901805461171a90613a22565b80601f016020809104026020016040519081016040528092919081815260200182805461174690613a22565b80156117935780601f1061176857610100808354040283529160200191611793565b820191906000526020600020905b81548152906001019060200180831161177657829003601f168201915b5050505050905060006117a4612635565b905060008151116117b557816117d8565b80826040516020016117c892919061348b565b6040516020818303038152906040525b949350505050565b6117e8612d5b565b600082815261010460205260409081902081516060810190925260050160038282826020028201915b8154815260200190600101908083116118115750505050509050919050565b6000815183511461188e5760405162461bcd60e51b815260206004820152602260248201527f4b3a2069647320616e6420616d6f756e7473206c656e677468206d69736d61746044820152610c6d60f31b606482015260840161064c565b60005b8351811015611c14578381815181106118ba57634e487b7160e01b600052603260045260246000fd5b6020026020010151600014158015611911575061010460008583815181106118f257634e487b7160e01b600052603260045260246000fd5b6020026020010151815260200190815260200160002060000154600014155b61192d5760405162461bcd60e51b815260040161064c9061366e565b60fc546001600160a01b03163314611ab95782818151811061195f57634e487b7160e01b600052603260045260246000fd5b602002602001015160fb60006119723390565b6001600160a01b03166001600160a01b0316815260200190815260200160002060008684815181106119b457634e487b7160e01b600052603260045260246000fd5b60200260200101518152602001908152602001600020541015611a195760405162461bcd60e51b815260206004820152601c60248201527f436174746c653a206e6f74206d696e74657227732063616c6c696e6700000000604482015260640161064c565b828181518110611a3957634e487b7160e01b600052603260045260246000fd5b602002602001015160fb6000611a4c3390565b6001600160a01b03166001600160a01b031681526020019081526020016000206000868481518110611a8e57634e487b7160e01b600052603260045260246000fd5b602002602001015181526020019081526020016000206000828254611ab391906139df565b90915550505b828181518110611ad957634e487b7160e01b600052603260045260246000fd5b60200260200101516101046000868481518110611b0657634e487b7160e01b600052603260045260246000fd5b60200260200101518152602001908152602001600020600201546101046000878581518110611b4557634e487b7160e01b600052603260045260246000fd5b6020026020010151815260200190815260200160002060040154611b6991906139df565b1015611b875760405162461bcd60e51b815260040161064c90613839565b828181518110611ba757634e487b7160e01b600052603260045260246000fd5b60200260200101516101046000868481518110611bd457634e487b7160e01b600052603260045260246000fd5b602002602001015181526020019081526020016000206002016000828254611bfc91906139c7565b90915550819050611c0c81613aae565b915050611891565b506109c984848460405180602001604052806000815250612645565b6001600160a01b038516331480611c4c5750611c4c853361056a565b611caa5760405162461bcd60e51b815260206004820152602960248201527f455243313135353a2063616c6c6572206973206e6f74206f776e6572206e6f7260448201526808185c1c1c9bdd995960ba1b606482015260840161064c565b33600090815260fd602052604090205460ff16611d13576000838152610104602052604090206008015460ff16611d135760405162461bcd60e51b815260206004820152600d60248201526c6e6f7420747261646561626c6560981b604482015260640161064c565b610b1c85858585856127ad565b6033546001600160a01b03163314611d4a5760405162461bcd60e51b815260040161064c906137bc565b6001600160a01b038116611daf5760405162461bcd60e51b815260206004820152602660248201527f4f776e61626c653a206e6577206f776e657220697320746865207a65726f206160448201526564647265737360d01b606482015260840161064c565b611485816123ee565b6001600160a01b038316331480611dd45750611dd4833361056a565b611df05760405162461bcd60e51b815260040161064c906137f1565b6000828152610104602052604081206003018054839290611e129084906139c7565b92505081905550806101016000828254611e2c91906139c7565b90915550506001600160a01b038316600090815260fe6020908152604080832085845290915281208054839290611e649084906139c7565b9091555061132090508383836128db565b6033546000906001600160a01b03163314611ea25760405162461bcd60e51b815260040161064c906137bc565b8315801590611eb057508382145b611efc5760405162461bcd60e51b815260206004820152601f60248201527f69647320616e6420616d6f756e7473206c656e677468206d69736d6174636800604482015260640161064c565b60005b84811015611f9f57838382818110611f2757634e487b7160e01b600052603260045260246000fd5b9050602002013560fb6000896001600160a01b03166001600160a01b031681526020019081526020016000206000888885818110611f7557634e487b7160e01b600052603260045260246000fd5b9050602002013581526020019081526020016000208190555080611f9890613aae565b9050611eff565b5060019695505050505050565b6001600160a01b038416611fd25760405162461bcd60e51b815260040161064c90613910565b336000611fde856129e2565b90506000611feb856129e2565b905060008681526097602090815260408083206001600160a01b038b1684529091528120805487929061201f9084906139c7565b909155505060408051878152602081018790526001600160a01b03808a1692600092918716917fc3d58168c5ae7397731d063d5bbf3d657854427343f4c083240f7aacaa2d0f62910160405180910390a461207f83600089898989612a3b565b50505050505050565b81518351146120a95760405162461bcd60e51b815260040161064c906138c8565b6001600160a01b0384166120cf5760405162461bcd60e51b815260040161064c9061369c565b3360005b84518110156121d55760008582815181106120fe57634e487b7160e01b600052603260045260246000fd5b60200260200101519050600085838151811061212a57634e487b7160e01b600052603260045260246000fd5b60209081029190910181015160008481526097835260408082206001600160a01b038e16835290935291909120549091508181101561217b5760405162461bcd60e51b815260040161064c90613772565b60008381526097602090815260408083206001600160a01b038e8116855292528083208585039055908b168252812080548492906121ba9084906139c7565b92505081905550505050806121ce90613aae565b90506120d3565b50846001600160a01b0316866001600160a01b0316826001600160a01b03167f4a39dc06d4c0dbc64b70af90fd698a233a518aa5d07e595d983b8c0526c8f7fb87876040516122259291906135a1565b60405180910390a461223b818787878787612ba6565b505050505050565b6001600160a01b0383166122695760405162461bcd60e51b815260040161064c9061372f565b805182511461228a5760405162461bcd60e51b815260040161064c906138c8565b604080516020810190915260009081905233905b835181101561237f5760008482815181106122c957634e487b7160e01b600052603260045260246000fd5b6020026020010151905060008483815181106122f557634e487b7160e01b600052603260045260246000fd5b60209081029190910181015160008481526097835260408082206001600160a01b038c1683529093529190912054909150818110156123465760405162461bcd60e51b815260040161064c9061362a565b60009283526097602090815260408085206001600160a01b038b168652909152909220910390558061237781613aae565b91505061229e565b5060006001600160a01b0316846001600160a01b0316826001600160a01b03167f4a39dc06d4c0dbc64b70af90fd698a233a518aa5d07e595d983b8c0526c8f7fb86866040516123d09291906135a1565b60405180910390a46040805160208101909152600090525b50505050565b603380546001600160a01b038381166001600160a01b0319831681179093556040519116919082907f8be0079c531659141344cd1fd0a4f28419497f9722a3daafe3b4186f6b6457e090600090a35050565b60008054610100900460ff1615612487578160ff1660011480156124635750303b155b61247f5760405162461bcd60e51b815260040161064c906136e1565b506000919050565b60005460ff8084169116106124ae5760405162461bcd60e51b815260040161064c906136e1565b506000805460ff191660ff92909216919091179055600190565b919050565b600054610100900460ff166113595760405162461bcd60e51b815260040161064c9061387d565b600054610100900460ff1661251b5760405162461bcd60e51b815260040161064c9061387d565b611359336123ee565b600054610100900460ff1661254b5760405162461bcd60e51b815260040161064c9061387d565b61148581612c70565b816001600160a01b0316836001600160a01b031614156125c85760405162461bcd60e51b815260206004820152602960248201527f455243313135353a2073657474696e6720617070726f76616c20737461747573604482015268103337b91039b2b63360b91b606482015260840161064c565b6001600160a01b03838116600081815260986020908152604080832094871680845294825291829020805460ff191686151590811790915591519182527f17307eab39ab6107e8899845ad3d59bd9653f200f220920489ca2b5937696c31910160405180910390a3505050565b606061010680546106df90613a22565b6001600160a01b03841661266b5760405162461bcd60e51b815260040161064c90613910565b815183511461268c5760405162461bcd60e51b815260040161064c906138c8565b3360005b8451811015612745578381815181106126b957634e487b7160e01b600052603260045260246000fd5b6020026020010151609760008784815181106126e557634e487b7160e01b600052603260045260246000fd5b602002602001015181526020019081526020016000206000886001600160a01b03166001600160a01b03168152602001908152602001600020600082825461272d91906139c7565b9091555081905061273d81613aae565b915050612690565b50846001600160a01b031660006001600160a01b0316826001600160a01b03167f4a39dc06d4c0dbc64b70af90fd698a233a518aa5d07e595d983b8c0526c8f7fb87876040516127969291906135a1565b60405180910390a4610b1c81600087878787612ba6565b6001600160a01b0384166127d35760405162461bcd60e51b815260040161064c9061369c565b3360006127df856129e2565b905060006127ec856129e2565b905060008681526097602090815260408083206001600160a01b038c168452909152902054858110156128315760405162461bcd60e51b815260040161064c90613772565b60008781526097602090815260408083206001600160a01b038d8116855292528083208985039055908a168252812080548892906128709084906139c7565b909155505060408051888152602081018890526001600160a01b03808b16928c821692918816917fc3d58168c5ae7397731d063d5bbf3d657854427343f4c083240f7aacaa2d0f62910160405180910390a46128d0848a8a8a8a8a612a3b565b505050505050505050565b6001600160a01b0383166129015760405162461bcd60e51b815260040161064c9061372f565b33600061290d846129e2565b9050600061291a846129e2565b6040805160208082018352600091829052888252609781528282206001600160a01b038b16835290522054909150848110156129685760405162461bcd60e51b815260040161064c9061362a565b60008681526097602090815260408083206001600160a01b038b81168086529184528285208a8703905582518b81529384018a90529092908816917fc3d58168c5ae7397731d063d5bbf3d657854427343f4c083240f7aacaa2d0f62910160405180910390a460408051602081019091526000905261207f565b60408051600180825281830190925260609160009190602080830190803683370190505090508281600081518110612a2a57634e487b7160e01b600052603260045260246000fd5b602090810291909101015292915050565b6001600160a01b0384163b1561223b5760405163f23a6e6160e01b81526001600160a01b0385169063f23a6e6190612a7f9089908990889088908890600401613518565b602060405180830381600087803b158015612a9957600080fd5b505af1925050508015612ac9575060408051601f3d908101601f19168201909252612ac6918101906132c3565b60015b612b7657612ad5613af5565b806308c379a01415612b0f5750612aea613b0d565b80612af55750612b11565b8060405162461bcd60e51b815260040161064c91906135cf565b505b60405162461bcd60e51b815260206004820152603460248201527f455243313135353a207472616e7366657220746f206e6f6e20455243313135356044820152732932b1b2b4bb32b91034b6b83632b6b2b73a32b960611b606482015260840161064c565b6001600160e01b0319811663f23a6e6160e01b1461207f5760405162461bcd60e51b815260040161064c906135e2565b6001600160a01b0384163b1561223b5760405163bc197c8160e01b81526001600160a01b0385169063bc197c8190612bea90899089908890889088906004016134ba565b602060405180830381600087803b158015612c0457600080fd5b505af1925050508015612c34575060408051601f3d908101601f19168201909252612c31918101906132c3565b60015b612c4057612ad5613af5565b6001600160e01b0319811663bc197c8160e01b1461207f5760405162461bcd60e51b815260040161064c906135e2565b600054610100900460ff16612c975760405162461bcd60e51b815260040161064c9061387d565b6114858180516110a89060999060208401905b828054612cb690613a22565b90600052602060002090601f016020900481019282612cd85760008555612d1e565b82601f10612cf157805160ff1916838001178555612d1e565b82800160010185558215612d1e579182015b82811115612d1e578251825591602001919060010190612d03565b50612d2a929150612d79565b5090565b8260038101928215612d1e5791602002820182811115612d1e578251825591602001919060010190612d03565b60405180606001604052806003906020820280368337509192915050565b5b80821115612d2a5760008155600101612d7a565b80356001600160a01b03811681146124c857600080fd5b60008083601f840112612db6578182fd5b5081356001600160401b03811115612dcc578182fd5b6020830191508360208260051b8501011115612de757600080fd5b9250929050565b600082601f830112612dfe578081fd5b81356020612e0b826139a4565b604051612e188282613a82565b8381528281019150858301600585901b87018401881015612e37578586fd5b855b85811015612e5557813584529284019290840190600101612e39565b5090979650505050505050565b803580151581146124c857600080fd5b600082601f830112612e82578081fd5b81356001600160401b03811115612e9b57612e9b613adf565b604051612eb2601f8301601f191660200182613a82565b818152846020838601011115612ec6578283fd5b816020850160208301379081016020019190915292915050565b600060208284031215612ef1578081fd5b612efa82612d8e565b9392505050565b60008060408385031215612f13578081fd5b612f1c83612d8e565b9150612f2a60208401612d8e565b90509250929050565b600080600080600060a08688031215612f4a578081fd5b612f5386612d8e565b9450612f6160208701612d8e565b935060408601356001600160401b0380821115612f7c578283fd5b612f8889838a01612dee565b94506060880135915080821115612f9d578283fd5b612fa989838a01612dee565b93506080880135915080821115612fbe578283fd5b50612fcb88828901612e72565b9150509295509295909350565b600080600080600060a08688031215612fef578081fd5b612ff886612d8e565b945061300660208701612d8e565b9350604086013592506060860135915060808601356001600160401b0381111561302e578182fd5b612fcb88828901612e72565b600080600080600060608688031215613051578081fd5b61305a86612d8e565b945060208601356001600160401b0380821115613075578283fd5b61308189838a01612da5565b90965094506040880135915080821115613099578283fd5b506130a688828901612da5565b969995985093965092949392505050565b6000806000606084860312156130cb578081fd5b6130d484612d8e565b925060208401356001600160401b03808211156130ef578283fd5b6130fb87838801612dee565b93506040860135915080821115613110578283fd5b5061311d86828701612dee565b9150509250925092565b60008060408385031215613139578182fd5b61314283612d8e565b9150612f2a60208401612e62565b60008060408385031215613162578182fd5b61316b83612d8e565b946020939093013593505050565b60008060006060848603121561318d578081fd5b61319684612d8e565b95602085013595506040909401359392505050565b600080604083850312156131bd578182fd5b82356001600160401b03808211156131d3578384fd5b818501915085601f8301126131e6578384fd5b813560206131f3826139a4565b6040516132008282613a82565b8381528281019150858301600585901b870184018b101561321f578889fd5b8896505b848710156132485761323481612d8e565b835260019690960195918301918301613223565b509650508601359250508082111561325e578283fd5b5061326b85828601612dee565b9150509250929050565b600060208284031215613286578081fd5b81356001600160401b0381111561329b578182fd5b6117d884828501612dee565b6000602082840312156132b8578081fd5b8135612efa81613b96565b6000602082840312156132d4578081fd5b8151612efa81613b96565b6000602082840312156132f0578081fd5b81356001600160401b03811115613305578182fd5b6117d884828501612e72565b60008060008060008060008060006101608a8c03121561332f578687fd5b89356001600160401b0380821115613345578889fd5b6133518d838e01612e72565b9a5060208c0135995060408c013598508c607f8d011261336f578586fd5b604051915061337d82613a5d565b8160608d0160c08e018f811115613392578889fd5b885b60038110156133b3578235845260209384019390920191600101613394565b50849a50803599505050506133ca60e08d01612e62565b95506101008c013594506101208c013593506101408c01359150808211156133f0578283fd5b506133fd8c828d01612e72565b9150509295985092959850929598565b60006020828403121561341e578081fd5b5035919050565b6000815180845260208085019450808401835b8381101561345457815187529582019590820190600101613438565b509495945050505050565b600081518084526134778160208601602086016139f6565b601f01601f19169290920160200192915050565b6000835161349d8184602088016139f6565b8351908301906134b18183602088016139f6565b01949350505050565b6001600160a01b0386811682528516602082015260a0604082018190526000906134e690830186613425565b82810360608401526134f88186613425565b9050828103608084015261350c818561345f565b98975050505050505050565b6001600160a01b03868116825285166020820152604081018490526060810183905260a0608082018190526000906135529083018461345f565b979650505050505050565b60608101818360005b6003811015613585578151835260209283019290910190600101613566565b50505092915050565b602081526000612efa6020830184613425565b6040815260006135b46040830185613425565b82810360208401526135c68185613425565b95945050505050565b602081526000612efa602083018461345f565b60208082526028908201527f455243313135353a204552433131353552656365697665722072656a656374656040820152676420746f6b656e7360c01b606082015260800190565b60208082526024908201527f455243313135353a206275726e20616d6f756e7420657863656564732062616c604082015263616e636560e01b606082015260800190565b60208082526014908201527310d85d1d1b194e881ddc9bdb99c81a5d195b525960621b604082015260600190565b60208082526025908201527f455243313135353a207472616e7366657220746f20746865207a65726f206164604082015264647265737360d81b606082015260800190565b6020808252602e908201527f496e697469616c697a61626c653a20636f6e747261637420697320616c72656160408201526d191e481a5b9a5d1a585b1a5e995960921b606082015260800190565b60208082526023908201527f455243313135353a206275726e2066726f6d20746865207a65726f206164647260408201526265737360e81b606082015260800190565b6020808252602a908201527f455243313135353a20696e73756666696369656e742062616c616e636520666f60408201526939103a3930b739b332b960b11b606082015260800190565b6020808252818101527f4f776e61626c653a2063616c6c6572206973206e6f7420746865206f776e6572604082015260600190565b60208082526028908201527f436174746c653a2063616c6c6572206973206e6f74206f776e6572206e6f7220604082015267185c1c1c9bdd995960c21b606082015260800190565b60208082526024908201527f436174746c653a20546f6b656e20616d6f756e74206973206f7574206f66206c6040820152631a5b5a5d60e21b606082015260800190565b6020808252602b908201527f496e697469616c697a61626c653a20636f6e7472616374206973206e6f74206960408201526a6e697469616c697a696e6760a81b606082015260800190565b60208082526028908201527f455243313135353a2069647320616e6420616d6f756e7473206c656e677468206040820152670dad2e6dac2e8c6d60c31b606082015260800190565b60208082526021908201527f455243313135353a206d696e7420746f20746865207a65726f206164647265736040820152607360f81b606082015260800190565b87815260e06020820152600061396a60e083018961345f565b87604084015286606084015285608084015284151560a084015282810360c0840152613996818561345f565b9a9950505050505050505050565b60006001600160401b038211156139bd576139bd613adf565b5060051b60200190565b600082198211156139da576139da613ac9565b500190565b6000828210156139f1576139f1613ac9565b500390565b60005b83811015613a115781810151838201526020016139f9565b838111156123e85750506000910152565b600181811c90821680613a3657607f821691505b60208210811415613a5757634e487b7160e01b600052602260045260246000fd5b50919050565b606081018181106001600160401b0382111715613a7c57613a7c613adf565b60405250565b601f8201601f191681016001600160401b0381118282101715613aa757613aa7613adf565b6040525050565b6000600019821415613ac257613ac2613ac9565b5060010190565b634e487b7160e01b600052601160045260246000fd5b634e487b7160e01b600052604160045260246000fd5b600060033d1115613b0a57600481823e5160e01c5b90565b600060443d1015613b1b5790565b6040516003193d81016004833e81513d6001600160401b038160248401118184111715613b4a57505050505090565b8285019150815181811115613b625750505050505090565b843d8701016020828501011115613b7c5750505050505090565b613b8b60208286010187613a82565b509095945050505050565b6001600160e01b03198116811461148557600080fdfea2646970667358221220f80708b29886d86d64acda43828be91c89bcd4fb6af2864e649a2d53e300d7cb64736f6c63430008040033",
  "linkReferences": {},
  "deployedLinkReferences": {}
}